{
	"study_way/src/9day_thridToken.sol": {
		"ExtendERC20Two": {
			"abi": [
				{
					"inputs": [],
					"stateMutability": "nonpayable",
					"type": "constructor"
				},
				{
					"anonymous": false,
					"inputs": [
						{
							"indexed": true,
							"internalType": "address",
							"name": "owner",
							"type": "address"
						},
						{
							"indexed": true,
							"internalType": "address",
							"name": "spender",
							"type": "address"
						},
						{
							"indexed": false,
							"internalType": "uint256",
							"name": "value",
							"type": "uint256"
						}
					],
					"name": "Approval",
					"type": "event"
				},
				{
					"anonymous": false,
					"inputs": [
						{
							"indexed": true,
							"internalType": "address",
							"name": "from",
							"type": "address"
						},
						{
							"indexed": true,
							"internalType": "address",
							"name": "to",
							"type": "address"
						},
						{
							"indexed": false,
							"internalType": "uint256",
							"name": "value",
							"type": "uint256"
						}
					],
					"name": "Transfer",
					"type": "event"
				},
				{
					"inputs": [
						{
							"internalType": "address",
							"name": "_owner",
							"type": "address"
						},
						{
							"internalType": "address",
							"name": "_spender",
							"type": "address"
						}
					],
					"name": "allowance",
					"outputs": [
						{
							"internalType": "uint256",
							"name": "remaining",
							"type": "uint256"
						}
					],
					"stateMutability": "view",
					"type": "function"
				},
				{
					"inputs": [
						{
							"internalType": "address",
							"name": "_spender",
							"type": "address"
						},
						{
							"internalType": "uint256",
							"name": "_value",
							"type": "uint256"
						}
					],
					"name": "approve",
					"outputs": [
						{
							"internalType": "bool",
							"name": "success",
							"type": "bool"
						}
					],
					"stateMutability": "nonpayable",
					"type": "function"
				},
				{
					"inputs": [
						{
							"internalType": "address",
							"name": "_owner",
							"type": "address"
						}
					],
					"name": "balanceOf",
					"outputs": [
						{
							"internalType": "uint256",
							"name": "balance",
							"type": "uint256"
						}
					],
					"stateMutability": "view",
					"type": "function"
				},
				{
					"inputs": [],
					"name": "decimals",
					"outputs": [
						{
							"internalType": "uint8",
							"name": "",
							"type": "uint8"
						}
					],
					"stateMutability": "view",
					"type": "function"
				},
				{
					"inputs": [],
					"name": "name",
					"outputs": [
						{
							"internalType": "string",
							"name": "",
							"type": "string"
						}
					],
					"stateMutability": "view",
					"type": "function"
				},
				{
					"inputs": [],
					"name": "symbol",
					"outputs": [
						{
							"internalType": "string",
							"name": "",
							"type": "string"
						}
					],
					"stateMutability": "view",
					"type": "function"
				},
				{
					"inputs": [],
					"name": "totalSupply",
					"outputs": [
						{
							"internalType": "uint256",
							"name": "",
							"type": "uint256"
						}
					],
					"stateMutability": "view",
					"type": "function"
				},
				{
					"inputs": [
						{
							"internalType": "address",
							"name": "_to",
							"type": "address"
						},
						{
							"internalType": "uint256",
							"name": "_value",
							"type": "uint256"
						}
					],
					"name": "transfer",
					"outputs": [
						{
							"internalType": "bool",
							"name": "success",
							"type": "bool"
						}
					],
					"stateMutability": "nonpayable",
					"type": "function"
				},
				{
					"inputs": [
						{
							"internalType": "address",
							"name": "_from",
							"type": "address"
						},
						{
							"internalType": "address",
							"name": "_to",
							"type": "address"
						},
						{
							"internalType": "uint256",
							"name": "_value",
							"type": "uint256"
						}
					],
					"name": "transferFrom",
					"outputs": [
						{
							"internalType": "bool",
							"name": "success",
							"type": "bool"
						}
					],
					"stateMutability": "nonpayable",
					"type": "function"
				},
				{
					"inputs": [
						{
							"internalType": "address",
							"name": "_to",
							"type": "address"
						},
						{
							"internalType": "uint256",
							"name": "_value",
							"type": "uint256"
						}
					],
					"name": "transferWithCallback",
					"outputs": [
						{
							"internalType": "bool",
							"name": "",
							"type": "bool"
						}
					],
					"stateMutability": "nonpayable",
					"type": "function"
				},
				{
					"inputs": [
						{
							"internalType": "address",
							"name": "_to",
							"type": "address"
						},
						{
							"internalType": "uint256",
							"name": "_value",
							"type": "uint256"
						},
						{
							"internalType": "bytes",
							"name": "_data",
							"type": "bytes"
						}
					],
					"name": "transferWithData",
					"outputs": [
						{
							"internalType": "bool",
							"name": "",
							"type": "bool"
						}
					],
					"stateMutability": "nonpayable",
					"type": "function"
				}
			],
			"devdoc": {
				"kind": "dev",
				"methods": {},
				"version": 1
			},
			"evm": {
				"assembly": "    /* \"study_way/src/9day_thridToken.sol\":274:4059  contract ExtendERC20Two {... */\n  mstore(0x40, 0x80)\n    /* \"study_way/src/9day_thridToken.sol\":731:945  constructor() {... */\n  callvalue\n  dup1\n  iszero\n  tag_1\n  jumpi\n  0x00\n  dup1\n  revert\ntag_1:\n  pop\n    /* \"study_way/src/9day_thridToken.sol\":756:779  name = \"ExtendERC20Two\" */\n  mload(0x40)\n  dup1\n  0x40\n  add\n  0x40\n  mstore\n  dup1\n  0x0e\n  dup2\n  mstore\n  0x20\n  add\n  0x457874656e64455243323054776f000000000000000000000000000000000000\n  dup2\n  mstore\n  pop\n    /* \"study_way/src/9day_thridToken.sol\":756:760  name */\n  0x00\n    /* \"study_way/src/9day_thridToken.sol\":756:779  name = \"ExtendERC20Two\" */\n  swap1\n  dup2\n  tag_4\n  swap2\n  swap1\n  tag_5\n  jump\t// in\ntag_4:\n  pop\n    /* \"study_way/src/9day_thridToken.sol\":790:808  symbol = \"EXERC20\" */\n  mload(0x40)\n  dup1\n  0x40\n  add\n  0x40\n  mstore\n  dup1\n  0x07\n  dup2\n  mstore\n  0x20\n  add\n  0x4558455243323000000000000000000000000000000000000000000000000000\n  dup2\n  mstore\n  pop\n    /* \"study_way/src/9day_thridToken.sol\":790:796  symbol */\n  0x01\n    /* \"study_way/src/9day_thridToken.sol\":790:808  symbol = \"EXERC20\" */\n  swap1\n  dup2\n  tag_6\n  swap2\n  swap1\n  tag_5\n  jump\t// in\ntag_6:\n  pop\n    /* \"study_way/src/9day_thridToken.sol\":830:832  18 */\n  0x12\n    /* \"study_way/src/9day_thridToken.sol\":819:827  decimals */\n  0x02\n  0x00\n    /* \"study_way/src/9day_thridToken.sol\":819:832  decimals = 18 */\n  0x0100\n  exp\n  dup2\n  sload\n  dup2\n  0xff\n  mul\n  not\n  and\n  swap1\n  dup4\n  0xff\n  and\n  mul\n  or\n  swap1\n  sstore\n  pop\n    /* \"study_way/src/9day_thridToken.sol\":882:890  decimals */\n  0x02\n  0x00\n  swap1\n  sload\n  swap1\n  0x0100\n  exp\n  swap1\n  div\n  0xff\n  and\n    /* \"study_way/src/9day_thridToken.sol\":874:891  uint256(decimals) */\n  0xff\n  and\n    /* \"study_way/src/9day_thridToken.sol\":870:872  10 */\n  0x0a\n    /* \"study_way/src/9day_thridToken.sol\":870:891  10**uint256(decimals) */\n  tag_7\n  swap2\n  swap1\n  tag_8\n  jump\t// in\ntag_7:\n    /* \"study_way/src/9day_thridToken.sol\":857:866  100000000 */\n  0x05f5e100\n    /* \"study_way/src/9day_thridToken.sol\":857:892  100000000 * (10**uint256(decimals)) */\n  tag_9\n  swap2\n  swap1\n  tag_10\n  jump\t// in\ntag_9:\n    /* \"study_way/src/9day_thridToken.sol\":843:854  totalSupply */\n  0x03\n    /* \"study_way/src/9day_thridToken.sol\":843:892  totalSupply = 100000000 * (10**uint256(decimals)) */\n  dup2\n  swap1\n  sstore\n  pop\n    /* \"study_way/src/9day_thridToken.sol\":926:937  totalSupply */\n  sload(0x03)\n    /* \"study_way/src/9day_thridToken.sol\":903:911  balances */\n  0x04\n    /* \"study_way/src/9day_thridToken.sol\":903:923  balances[msg.sender] */\n  0x00\n    /* \"study_way/src/9day_thridToken.sol\":912:922  msg.sender */\n  caller\n    /* \"study_way/src/9day_thridToken.sol\":903:923  balances[msg.sender] */\n  0xffffffffffffffffffffffffffffffffffffffff\n  and\n  0xffffffffffffffffffffffffffffffffffffffff\n  and\n  dup2\n  mstore\n  0x20\n  add\n  swap1\n  dup2\n  mstore\n  0x20\n  add\n  0x00\n  keccak256\n    /* \"study_way/src/9day_thridToken.sol\":903:937  balances[msg.sender] = totalSupply */\n  dup2\n  swap1\n  sstore\n  pop\n    /* \"study_way/src/9day_thridToken.sol\":274:4059  contract ExtendERC20Two {... */\n  jump(tag_11)\n    /* \"#utility.yul\":7:106   */\ntag_12:\n    /* \"#utility.yul\":59:65   */\n  0x00\n    /* \"#utility.yul\":93:98   */\n  dup2\n    /* \"#utility.yul\":87:99   */\n  mload\n    /* \"#utility.yul\":77:99   */\n  swap1\n  pop\n    /* \"#utility.yul\":7:106   */\n  swap2\n  swap1\n  pop\n  jump\t// out\n    /* \"#utility.yul\":112:292   */\ntag_13:\n    /* \"#utility.yul\":160:237   */\n  0x4e487b7100000000000000000000000000000000000000000000000000000000\n    /* \"#utility.yul\":157:158   */\n  0x00\n    /* \"#utility.yul\":150:238   */\n  mstore\n    /* \"#utility.yul\":257:261   */\n  0x41\n    /* \"#utility.yul\":254:255   */\n  0x04\n    /* \"#utility.yul\":247:262   */\n  mstore\n    /* \"#utility.yul\":281:285   */\n  0x24\n    /* \"#utility.yul\":278:279   */\n  0x00\n    /* \"#utility.yul\":271:286   */\n  revert\n    /* \"#utility.yul\":298:478   */\ntag_14:\n    /* \"#utility.yul\":346:423   */\n  0x4e487b7100000000000000000000000000000000000000000000000000000000\n    /* \"#utility.yul\":343:344   */\n  0x00\n    /* \"#utility.yul\":336:424   */\n  mstore\n    /* \"#utility.yul\":443:447   */\n  0x22\n    /* \"#utility.yul\":440:441   */\n  0x04\n    /* \"#utility.yul\":433:448   */\n  mstore\n    /* \"#utility.yul\":467:471   */\n  0x24\n    /* \"#utility.yul\":464:465   */\n  0x00\n    /* \"#utility.yul\":457:472   */\n  revert\n    /* \"#utility.yul\":484:804   */\ntag_15:\n    /* \"#utility.yul\":528:534   */\n  0x00\n    /* \"#utility.yul\":565:566   */\n  0x02\n    /* \"#utility.yul\":559:563   */\n  dup3\n    /* \"#utility.yul\":555:567   */\n  div\n    /* \"#utility.yul\":545:567   */\n  swap1\n  pop\n    /* \"#utility.yul\":612:613   */\n  0x01\n    /* \"#utility.yul\":606:610   */\n  dup3\n    /* \"#utility.yul\":602:614   */\n  and\n    /* \"#utility.yul\":633:651   */\n  dup1\n    /* \"#utility.yul\":623:704   */\n  tag_41\n  jumpi\n    /* \"#utility.yul\":689:693   */\n  0x7f\n    /* \"#utility.yul\":681:687   */\n  dup3\n    /* \"#utility.yul\":677:694   */\n  and\n    /* \"#utility.yul\":667:694   */\n  swap2\n  pop\n    /* \"#utility.yul\":623:704   */\ntag_41:\n    /* \"#utility.yul\":751:753   */\n  0x20\n    /* \"#utility.yul\":743:749   */\n  dup3\n    /* \"#utility.yul\":740:754   */\n  lt\n    /* \"#utility.yul\":720:738   */\n  dup2\n    /* \"#utility.yul\":717:755   */\n  sub\n    /* \"#utility.yul\":714:798   */\n  tag_42\n  jumpi\n    /* \"#utility.yul\":770:788   */\n  tag_43\n  tag_14\n  jump\t// in\ntag_43:\n    /* \"#utility.yul\":714:798   */\ntag_42:\n    /* \"#utility.yul\":535:804   */\n  pop\n    /* \"#utility.yul\":484:804   */\n  swap2\n  swap1\n  pop\n  jump\t// out\n    /* \"#utility.yul\":810:951   */\ntag_16:\n    /* \"#utility.yul\":859:863   */\n  0x00\n    /* \"#utility.yul\":882:885   */\n  dup2\n    /* \"#utility.yul\":874:885   */\n  swap1\n  pop\n    /* \"#utility.yul\":905:908   */\n  dup2\n    /* \"#utility.yul\":902:903   */\n  0x00\n    /* \"#utility.yul\":895:909   */\n  mstore\n    /* \"#utility.yul\":939:943   */\n  0x20\n    /* \"#utility.yul\":936:937   */\n  0x00\n    /* \"#utility.yul\":926:944   */\n  keccak256\n    /* \"#utility.yul\":918:944   */\n  swap1\n  pop\n    /* \"#utility.yul\":810:951   */\n  swap2\n  swap1\n  pop\n  jump\t// out\n    /* \"#utility.yul\":957:1050   */\ntag_17:\n    /* \"#utility.yul\":994:1000   */\n  0x00\n    /* \"#utility.yul\":1041:1043   */\n  0x20\n    /* \"#utility.yul\":1036:1038   */\n  0x1f\n    /* \"#utility.yul\":1029:1034   */\n  dup4\n    /* \"#utility.yul\":1025:1039   */\n  add\n    /* \"#utility.yul\":1021:1044   */\n  div\n    /* \"#utility.yul\":1011:1044   */\n  swap1\n  pop\n    /* \"#utility.yul\":957:1050   */\n  swap2\n  swap1\n  pop\n  jump\t// out\n    /* \"#utility.yul\":1056:1163   */\ntag_18:\n    /* \"#utility.yul\":1100:1108   */\n  0x00\n    /* \"#utility.yul\":1150:1155   */\n  dup3\n    /* \"#utility.yul\":1144:1148   */\n  dup3\n    /* \"#utility.yul\":1140:1156   */\n  shl\n    /* \"#utility.yul\":1119:1156   */\n  swap1\n  pop\n    /* \"#utility.yul\":1056:1163   */\n  swap3\n  swap2\n  pop\n  pop\n  jump\t// out\n    /* \"#utility.yul\":1169:1562   */\ntag_19:\n    /* \"#utility.yul\":1238:1244   */\n  0x00\n    /* \"#utility.yul\":1288:1289   */\n  0x08\n    /* \"#utility.yul\":1276:1286   */\n  dup4\n    /* \"#utility.yul\":1272:1290   */\n  mul\n    /* \"#utility.yul\":1311:1408   */\n  tag_48\n    /* \"#utility.yul\":1341:1407   */\n  0xffffffffffffffffffffffffffffffffffffffffffffffffffffffffffffffff\n    /* \"#utility.yul\":1330:1339   */\n  dup3\n    /* \"#utility.yul\":1311:1408   */\n  tag_18\n  jump\t// in\ntag_48:\n    /* \"#utility.yul\":1429:1468   */\n  tag_49\n    /* \"#utility.yul\":1459:1467   */\n  dup7\n    /* \"#utility.yul\":1448:1457   */\n  dup4\n    /* \"#utility.yul\":1429:1468   */\n  tag_18\n  jump\t// in\ntag_49:\n    /* \"#utility.yul\":1417:1468   */\n  swap6\n  pop\n    /* \"#utility.yul\":1501:1505   */\n  dup1\n    /* \"#utility.yul\":1497:1506   */\n  not\n    /* \"#utility.yul\":1490:1495   */\n  dup5\n    /* \"#utility.yul\":1486:1507   */\n  and\n    /* \"#utility.yul\":1477:1507   */\n  swap4\n  pop\n    /* \"#utility.yul\":1550:1554   */\n  dup1\n    /* \"#utility.yul\":1540:1548   */\n  dup7\n    /* \"#utility.yul\":1536:1555   */\n  and\n    /* \"#utility.yul\":1529:1534   */\n  dup5\n    /* \"#utility.yul\":1526:1556   */\n  or\n    /* \"#utility.yul\":1516:1556   */\n  swap3\n  pop\n    /* \"#utility.yul\":1245:1562   */\n  pop\n  pop\n    /* \"#utility.yul\":1169:1562   */\n  swap4\n  swap3\n  pop\n  pop\n  pop\n  jump\t// out\n    /* \"#utility.yul\":1568:1645   */\ntag_20:\n    /* \"#utility.yul\":1605:1612   */\n  0x00\n    /* \"#utility.yul\":1634:1639   */\n  dup2\n    /* \"#utility.yul\":1623:1639   */\n  swap1\n  pop\n    /* \"#utility.yul\":1568:1645   */\n  swap2\n  swap1\n  pop\n  jump\t// out\n    /* \"#utility.yul\":1651:1711   */\ntag_21:\n    /* \"#utility.yul\":1679:1682   */\n  0x00\n    /* \"#utility.yul\":1700:1705   */\n  dup2\n    /* \"#utility.yul\":1693:1705   */\n  swap1\n  pop\n    /* \"#utility.yul\":1651:1711   */\n  swap2\n  swap1\n  pop\n  jump\t// out\n    /* \"#utility.yul\":1717:1859   */\ntag_22:\n    /* \"#utility.yul\":1767:1776   */\n  0x00\n    /* \"#utility.yul\":1800:1853   */\n  tag_53\n    /* \"#utility.yul\":1818:1852   */\n  tag_54\n    /* \"#utility.yul\":1827:1851   */\n  tag_55\n    /* \"#utility.yul\":1845:1850   */\n  dup5\n    /* \"#utility.yul\":1827:1851   */\n  tag_20\n  jump\t// in\ntag_55:\n    /* \"#utility.yul\":1818:1852   */\n  tag_21\n  jump\t// in\ntag_54:\n    /* \"#utility.yul\":1800:1853   */\n  tag_20\n  jump\t// in\ntag_53:\n    /* \"#utility.yul\":1787:1853   */\n  swap1\n  pop\n    /* \"#utility.yul\":1717:1859   */\n  swap2\n  swap1\n  pop\n  jump\t// out\n    /* \"#utility.yul\":1865:1940   */\ntag_23:\n    /* \"#utility.yul\":1908:1911   */\n  0x00\n    /* \"#utility.yul\":1929:1934   */\n  dup2\n    /* \"#utility.yul\":1922:1934   */\n  swap1\n  pop\n    /* \"#utility.yul\":1865:1940   */\n  swap2\n  swap1\n  pop\n  jump\t// out\n    /* \"#utility.yul\":1946:2215   */\ntag_24:\n    /* \"#utility.yul\":2056:2095   */\n  tag_58\n    /* \"#utility.yul\":2087:2094   */\n  dup4\n    /* \"#utility.yul\":2056:2095   */\n  tag_22\n  jump\t// in\ntag_58:\n    /* \"#utility.yul\":2117:2208   */\n  tag_59\n    /* \"#utility.yul\":2166:2207   */\n  tag_60\n    /* \"#utility.yul\":2190:2206   */\n  dup3\n    /* \"#utility.yul\":2166:2207   */\n  tag_23\n  jump\t// in\ntag_60:\n    /* \"#utility.yul\":2158:2164   */\n  dup5\n    /* \"#utility.yul\":2151:2155   */\n  dup5\n    /* \"#utility.yul\":2145:2156   */\n  sload\n    /* \"#utility.yul\":2117:2208   */\n  tag_19\n  jump\t// in\ntag_59:\n    /* \"#utility.yul\":2111:2115   */\n  dup3\n    /* \"#utility.yul\":2104:2209   */\n  sstore\n    /* \"#utility.yul\":2022:2215   */\n  pop\n    /* \"#utility.yul\":1946:2215   */\n  pop\n  pop\n  pop\n  jump\t// out\n    /* \"#utility.yul\":2221:2294   */\ntag_25:\n    /* \"#utility.yul\":2266:2269   */\n  0x00\n    /* \"#utility.yul\":2221:2294   */\n  swap1\n  jump\t// out\n    /* \"#utility.yul\":2300:2489   */\ntag_26:\n    /* \"#utility.yul\":2377:2409   */\n  tag_63\n  tag_25\n  jump\t// in\ntag_63:\n    /* \"#utility.yul\":2418:2483   */\n  tag_64\n    /* \"#utility.yul\":2476:2482   */\n  dup2\n    /* \"#utility.yul\":2468:2474   */\n  dup5\n    /* \"#utility.yul\":2462:2466   */\n  dup5\n    /* \"#utility.yul\":2418:2483   */\n  tag_24\n  jump\t// in\ntag_64:\n    /* \"#utility.yul\":2353:2489   */\n  pop\n    /* \"#utility.yul\":2300:2489   */\n  pop\n  pop\n  jump\t// out\n    /* \"#utility.yul\":2495:2681   */\ntag_27:\n    /* \"#utility.yul\":2555:2675   */\ntag_66:\n    /* \"#utility.yul\":2572:2575   */\n  dup2\n    /* \"#utility.yul\":2565:2570   */\n  dup2\n    /* \"#utility.yul\":2562:2576   */\n  lt\n    /* \"#utility.yul\":2555:2675   */\n  iszero\n  tag_68\n  jumpi\n    /* \"#utility.yul\":2626:2665   */\n  tag_69\n    /* \"#utility.yul\":2663:2664   */\n  0x00\n    /* \"#utility.yul\":2656:2661   */\n  dup3\n    /* \"#utility.yul\":2626:2665   */\n  tag_26\n  jump\t// in\ntag_69:\n    /* \"#utility.yul\":2599:2600   */\n  0x01\n    /* \"#utility.yul\":2592:2597   */\n  dup2\n    /* \"#utility.yul\":2588:2601   */\n  add\n    /* \"#utility.yul\":2579:2601   */\n  swap1\n  pop\n    /* \"#utility.yul\":2555:2675   */\n  jump(tag_66)\ntag_68:\n    /* \"#utility.yul\":2495:2681   */\n  pop\n  pop\n  jump\t// out\n    /* \"#utility.yul\":2687:3230   */\ntag_28:\n    /* \"#utility.yul\":2788:2790   */\n  0x1f\n    /* \"#utility.yul\":2783:2786   */\n  dup3\n    /* \"#utility.yul\":2780:2791   */\n  gt\n    /* \"#utility.yul\":2777:3223   */\n  iszero\n  tag_71\n  jumpi\n    /* \"#utility.yul\":2822:2860   */\n  tag_72\n    /* \"#utility.yul\":2854:2859   */\n  dup2\n    /* \"#utility.yul\":2822:2860   */\n  tag_16\n  jump\t// in\ntag_72:\n    /* \"#utility.yul\":2906:2935   */\n  tag_73\n    /* \"#utility.yul\":2924:2934   */\n  dup5\n    /* \"#utility.yul\":2906:2935   */\n  tag_17\n  jump\t// in\ntag_73:\n    /* \"#utility.yul\":2896:2904   */\n  dup2\n    /* \"#utility.yul\":2892:2936   */\n  add\n    /* \"#utility.yul\":3089:3091   */\n  0x20\n    /* \"#utility.yul\":3077:3087   */\n  dup6\n    /* \"#utility.yul\":3074:3092   */\n  lt\n    /* \"#utility.yul\":3071:3120   */\n  iszero\n  tag_74\n  jumpi\n    /* \"#utility.yul\":3110:3118   */\n  dup2\n    /* \"#utility.yul\":3095:3118   */\n  swap1\n  pop\n    /* \"#utility.yul\":3071:3120   */\ntag_74:\n    /* \"#utility.yul\":3133:3213   */\n  tag_75\n    /* \"#utility.yul\":3189:3211   */\n  tag_76\n    /* \"#utility.yul\":3207:3210   */\n  dup6\n    /* \"#utility.yul\":3189:3211   */\n  tag_17\n  jump\t// in\ntag_76:\n    /* \"#utility.yul\":3179:3187   */\n  dup4\n    /* \"#utility.yul\":3175:3212   */\n  add\n    /* \"#utility.yul\":3162:3173   */\n  dup3\n    /* \"#utility.yul\":3133:3213   */\n  tag_27\n  jump\t// in\ntag_75:\n    /* \"#utility.yul\":2792:3223   */\n  pop\n  pop\n    /* \"#utility.yul\":2777:3223   */\ntag_71:\n    /* \"#utility.yul\":2687:3230   */\n  pop\n  pop\n  pop\n  jump\t// out\n    /* \"#utility.yul\":3236:3353   */\ntag_29:\n    /* \"#utility.yul\":3290:3298   */\n  0x00\n    /* \"#utility.yul\":3340:3345   */\n  dup3\n    /* \"#utility.yul\":3334:3338   */\n  dup3\n    /* \"#utility.yul\":3330:3346   */\n  shr\n    /* \"#utility.yul\":3309:3346   */\n  swap1\n  pop\n    /* \"#utility.yul\":3236:3353   */\n  swap3\n  swap2\n  pop\n  pop\n  jump\t// out\n    /* \"#utility.yul\":3359:3528   */\ntag_30:\n    /* \"#utility.yul\":3403:3409   */\n  0x00\n    /* \"#utility.yul\":3436:3487   */\n  tag_79\n    /* \"#utility.yul\":3484:3485   */\n  0x00\n    /* \"#utility.yul\":3480:3486   */\n  not\n    /* \"#utility.yul\":3472:3477   */\n  dup5\n    /* \"#utility.yul\":3469:3470   */\n  0x08\n    /* \"#utility.yul\":3465:3478   */\n  mul\n    /* \"#utility.yul\":3436:3487   */\n  tag_29\n  jump\t// in\ntag_79:\n    /* \"#utility.yul\":3432:3488   */\n  not\n    /* \"#utility.yul\":3517:3521   */\n  dup1\n    /* \"#utility.yul\":3511:3515   */\n  dup4\n    /* \"#utility.yul\":3507:3522   */\n  and\n    /* \"#utility.yul\":3497:3522   */\n  swap2\n  pop\n    /* \"#utility.yul\":3410:3528   */\n  pop\n    /* \"#utility.yul\":3359:3528   */\n  swap3\n  swap2\n  pop\n  pop\n  jump\t// out\n    /* \"#utility.yul\":3533:3828   */\ntag_31:\n    /* \"#utility.yul\":3609:3613   */\n  0x00\n    /* \"#utility.yul\":3755:3784   */\n  tag_81\n    /* \"#utility.yul\":3780:3783   */\n  dup4\n    /* \"#utility.yul\":3774:3778   */\n  dup4\n    /* \"#utility.yul\":3755:3784   */\n  tag_30\n  jump\t// in\ntag_81:\n    /* \"#utility.yul\":3747:3784   */\n  swap2\n  pop\n    /* \"#utility.yul\":3817:3820   */\n  dup3\n    /* \"#utility.yul\":3814:3815   */\n  0x02\n    /* \"#utility.yul\":3810:3821   */\n  mul\n    /* \"#utility.yul\":3804:3808   */\n  dup3\n    /* \"#utility.yul\":3801:3822   */\n  or\n    /* \"#utility.yul\":3793:3822   */\n  swap1\n  pop\n    /* \"#utility.yul\":3533:3828   */\n  swap3\n  swap2\n  pop\n  pop\n  jump\t// out\n    /* \"#utility.yul\":3833:5228   */\ntag_5:\n    /* \"#utility.yul\":3950:3987   */\n  tag_83\n    /* \"#utility.yul\":3983:3986   */\n  dup3\n    /* \"#utility.yul\":3950:3987   */\n  tag_12\n  jump\t// in\ntag_83:\n    /* \"#utility.yul\":4052:4070   */\n  0xffffffffffffffff\n    /* \"#utility.yul\":4044:4050   */\n  dup2\n    /* \"#utility.yul\":4041:4071   */\n  gt\n    /* \"#utility.yul\":4038:4094   */\n  iszero\n  tag_84\n  jumpi\n    /* \"#utility.yul\":4074:4092   */\n  tag_85\n  tag_13\n  jump\t// in\ntag_85:\n    /* \"#utility.yul\":4038:4094   */\ntag_84:\n    /* \"#utility.yul\":4118:4156   */\n  tag_86\n    /* \"#utility.yul\":4150:4154   */\n  dup3\n    /* \"#utility.yul\":4144:4155   */\n  sload\n    /* \"#utility.yul\":4118:4156   */\n  tag_15\n  jump\t// in\ntag_86:\n    /* \"#utility.yul\":4203:4270   */\n  tag_87\n    /* \"#utility.yul\":4263:4269   */\n  dup3\n    /* \"#utility.yul\":4255:4261   */\n  dup3\n    /* \"#utility.yul\":4249:4253   */\n  dup6\n    /* \"#utility.yul\":4203:4270   */\n  tag_28\n  jump\t// in\ntag_87:\n    /* \"#utility.yul\":4297:4298   */\n  0x00\n    /* \"#utility.yul\":4321:4325   */\n  0x20\n    /* \"#utility.yul\":4308:4325   */\n  swap1\n  pop\n    /* \"#utility.yul\":4353:4355   */\n  0x1f\n    /* \"#utility.yul\":4345:4351   */\n  dup4\n    /* \"#utility.yul\":4342:4356   */\n  gt\n    /* \"#utility.yul\":4370:4371   */\n  0x01\n    /* \"#utility.yul\":4365:4983   */\n  dup2\n  eq\n  tag_89\n  jumpi\n    /* \"#utility.yul\":5027:5028   */\n  0x00\n    /* \"#utility.yul\":5044:5050   */\n  dup5\n    /* \"#utility.yul\":5041:5118   */\n  iszero\n  tag_90\n  jumpi\n    /* \"#utility.yul\":5093:5102   */\n  dup3\n    /* \"#utility.yul\":5088:5091   */\n  dup8\n    /* \"#utility.yul\":5084:5103   */\n  add\n    /* \"#utility.yul\":5078:5104   */\n  mload\n    /* \"#utility.yul\":5069:5104   */\n  swap1\n  pop\n    /* \"#utility.yul\":5041:5118   */\ntag_90:\n    /* \"#utility.yul\":5144:5211   */\n  tag_91\n    /* \"#utility.yul\":5204:5210   */\n  dup6\n    /* \"#utility.yul\":5197:5202   */\n  dup3\n    /* \"#utility.yul\":5144:5211   */\n  tag_31\n  jump\t// in\ntag_91:\n    /* \"#utility.yul\":5138:5142   */\n  dup7\n    /* \"#utility.yul\":5131:5212   */\n  sstore\n    /* \"#utility.yul\":5000:5222   */\n  pop\n    /* \"#utility.yul\":4335:5222   */\n  jump(tag_88)\n    /* \"#utility.yul\":4365:4983   */\ntag_89:\n    /* \"#utility.yul\":4417:4421   */\n  0x1f\n    /* \"#utility.yul\":4413:4422   */\n  not\n    /* \"#utility.yul\":4405:4411   */\n  dup5\n    /* \"#utility.yul\":4401:4423   */\n  and\n    /* \"#utility.yul\":4451:4488   */\n  tag_92\n    /* \"#utility.yul\":4483:4487   */\n  dup7\n    /* \"#utility.yul\":4451:4488   */\n  tag_16\n  jump\t// in\ntag_92:\n    /* \"#utility.yul\":4510:4511   */\n  0x00\n    /* \"#utility.yul\":4524:4732   */\ntag_93:\n    /* \"#utility.yul\":4538:4545   */\n  dup3\n    /* \"#utility.yul\":4535:4536   */\n  dup2\n    /* \"#utility.yul\":4532:4546   */\n  lt\n    /* \"#utility.yul\":4524:4732   */\n  iszero\n  tag_95\n  jumpi\n    /* \"#utility.yul\":4617:4626   */\n  dup5\n    /* \"#utility.yul\":4612:4615   */\n  dup10\n    /* \"#utility.yul\":4608:4627   */\n  add\n    /* \"#utility.yul\":4602:4628   */\n  mload\n    /* \"#utility.yul\":4594:4600   */\n  dup3\n    /* \"#utility.yul\":4587:4629   */\n  sstore\n    /* \"#utility.yul\":4668:4669   */\n  0x01\n    /* \"#utility.yul\":4660:4666   */\n  dup3\n    /* \"#utility.yul\":4656:4670   */\n  add\n    /* \"#utility.yul\":4646:4670   */\n  swap2\n  pop\n    /* \"#utility.yul\":4715:4717   */\n  0x20\n    /* \"#utility.yul\":4704:4713   */\n  dup6\n    /* \"#utility.yul\":4700:4718   */\n  add\n    /* \"#utility.yul\":4687:4718   */\n  swap5\n  pop\n    /* \"#utility.yul\":4561:4565   */\n  0x20\n    /* \"#utility.yul\":4558:4559   */\n  dup2\n    /* \"#utility.yul\":4554:4566   */\n  add\n    /* \"#utility.yul\":4549:4566   */\n  swap1\n  pop\n    /* \"#utility.yul\":4524:4732   */\n  jump(tag_93)\ntag_95:\n    /* \"#utility.yul\":4760:4766   */\n  dup7\n    /* \"#utility.yul\":4751:4758   */\n  dup4\n    /* \"#utility.yul\":4748:4767   */\n  lt\n    /* \"#utility.yul\":4745:4924   */\n  iszero\n  tag_96\n  jumpi\n    /* \"#utility.yul\":4818:4827   */\n  dup5\n    /* \"#utility.yul\":4813:4816   */\n  dup10\n    /* \"#utility.yul\":4809:4828   */\n  add\n    /* \"#utility.yul\":4803:4829   */\n  mload\n    /* \"#utility.yul\":4861:4909   */\n  tag_97\n    /* \"#utility.yul\":4903:4907   */\n  0x1f\n    /* \"#utility.yul\":4895:4901   */\n  dup10\n    /* \"#utility.yul\":4891:4908   */\n  and\n    /* \"#utility.yul\":4880:4889   */\n  dup3\n    /* \"#utility.yul\":4861:4909   */\n  tag_30\n  jump\t// in\ntag_97:\n    /* \"#utility.yul\":4853:4859   */\n  dup4\n    /* \"#utility.yul\":4846:4910   */\n  sstore\n    /* \"#utility.yul\":4768:4924   */\n  pop\n    /* \"#utility.yul\":4745:4924   */\ntag_96:\n    /* \"#utility.yul\":4970:4971   */\n  0x01\n    /* \"#utility.yul\":4966:4967   */\n  0x02\n    /* \"#utility.yul\":4958:4964   */\n  dup9\n    /* \"#utility.yul\":4954:4968   */\n  mul\n    /* \"#utility.yul\":4950:4972   */\n  add\n    /* \"#utility.yul\":4944:4948   */\n  dup9\n    /* \"#utility.yul\":4937:4973   */\n  sstore\n    /* \"#utility.yul\":4372:4983   */\n  pop\n  pop\n  pop\n    /* \"#utility.yul\":4335:5222   */\ntag_88:\n  pop\n    /* \"#utility.yul\":3925:5228   */\n  pop\n  pop\n  pop\n    /* \"#utility.yul\":3833:5228   */\n  pop\n  pop\n  jump\t// out\n    /* \"#utility.yul\":5234:5414   */\ntag_32:\n    /* \"#utility.yul\":5282:5359   */\n  0x4e487b7100000000000000000000000000000000000000000000000000000000\n    /* \"#utility.yul\":5279:5280   */\n  0x00\n    /* \"#utility.yul\":5272:5360   */\n  mstore\n    /* \"#utility.yul\":5379:5383   */\n  0x11\n    /* \"#utility.yul\":5376:5377   */\n  0x04\n    /* \"#utility.yul\":5369:5384   */\n  mstore\n    /* \"#utility.yul\":5403:5407   */\n  0x24\n    /* \"#utility.yul\":5400:5401   */\n  0x00\n    /* \"#utility.yul\":5393:5408   */\n  revert\n    /* \"#utility.yul\":5420:5522   */\ntag_33:\n    /* \"#utility.yul\":5462:5470   */\n  0x00\n    /* \"#utility.yul\":5509:5514   */\n  dup2\n    /* \"#utility.yul\":5506:5507   */\n  0x01\n    /* \"#utility.yul\":5502:5515   */\n  shr\n    /* \"#utility.yul\":5481:5515   */\n  swap1\n  pop\n    /* \"#utility.yul\":5420:5522   */\n  swap2\n  swap1\n  pop\n  jump\t// out\n    /* \"#utility.yul\":5528:6376   */\ntag_34:\n    /* \"#utility.yul\":5589:5594   */\n  0x00\n    /* \"#utility.yul\":5596:5600   */\n  dup1\n    /* \"#utility.yul\":5620:5626   */\n  dup3\n    /* \"#utility.yul\":5611:5626   */\n  swap2\n  pop\n    /* \"#utility.yul\":5644:5649   */\n  dup4\n    /* \"#utility.yul\":5635:5649   */\n  swap1\n  pop\n    /* \"#utility.yul\":5658:6370   */\ntag_101:\n    /* \"#utility.yul\":5679:5680   */\n  0x01\n    /* \"#utility.yul\":5669:5677   */\n  dup6\n    /* \"#utility.yul\":5666:5681   */\n  gt\n    /* \"#utility.yul\":5658:6370   */\n  iszero\n  tag_103\n  jumpi\n    /* \"#utility.yul\":5774:5778   */\n  dup1\n    /* \"#utility.yul\":5769:5772   */\n  dup7\n    /* \"#utility.yul\":5765:5779   */\n  div\n    /* \"#utility.yul\":5759:5763   */\n  dup2\n    /* \"#utility.yul\":5756:5780   */\n  gt\n    /* \"#utility.yul\":5753:5803   */\n  iszero\n  tag_104\n  jumpi\n    /* \"#utility.yul\":5783:5801   */\n  tag_105\n  tag_32\n  jump\t// in\ntag_105:\n    /* \"#utility.yul\":5753:5803   */\ntag_104:\n    /* \"#utility.yul\":5833:5834   */\n  0x01\n    /* \"#utility.yul\":5823:5831   */\n  dup6\n    /* \"#utility.yul\":5819:5835   */\n  and\n    /* \"#utility.yul\":5816:6267   */\n  iszero\n  tag_106\n  jumpi\n    /* \"#utility.yul\":6248:6252   */\n  dup1\n    /* \"#utility.yul\":6241:6246   */\n  dup3\n    /* \"#utility.yul\":6237:6253   */\n  mul\n    /* \"#utility.yul\":6228:6253   */\n  swap2\n  pop\n    /* \"#utility.yul\":5816:6267   */\ntag_106:\n    /* \"#utility.yul\":6298:6302   */\n  dup1\n    /* \"#utility.yul\":6292:6296   */\n  dup2\n    /* \"#utility.yul\":6288:6303   */\n  mul\n    /* \"#utility.yul\":6280:6303   */\n  swap1\n  pop\n    /* \"#utility.yul\":6328:6360   */\n  tag_107\n    /* \"#utility.yul\":6351:6359   */\n  dup6\n    /* \"#utility.yul\":6328:6360   */\n  tag_33\n  jump\t// in\ntag_107:\n    /* \"#utility.yul\":6316:6360   */\n  swap5\n  pop\n    /* \"#utility.yul\":5658:6370   */\n  jump(tag_101)\ntag_103:\n    /* \"#utility.yul\":5528:6376   */\n  swap5\n  pop\n  swap5\n  swap3\n  pop\n  pop\n  pop\n  jump\t// out\n    /* \"#utility.yul\":6382:7455   */\ntag_35:\n    /* \"#utility.yul\":6436:6441   */\n  0x00\n    /* \"#utility.yul\":6627:6635   */\n  dup3\n    /* \"#utility.yul\":6617:6657   */\n  tag_109\n  jumpi\n    /* \"#utility.yul\":6648:6649   */\n  0x01\n    /* \"#utility.yul\":6639:6649   */\n  swap1\n  pop\n    /* \"#utility.yul\":6650:6655   */\n  jump(tag_108)\n    /* \"#utility.yul\":6617:6657   */\ntag_109:\n    /* \"#utility.yul\":6676:6680   */\n  dup2\n    /* \"#utility.yul\":6666:6702   */\n  tag_110\n  jumpi\n    /* \"#utility.yul\":6693:6694   */\n  0x00\n    /* \"#utility.yul\":6684:6694   */\n  swap1\n  pop\n    /* \"#utility.yul\":6695:6700   */\n  jump(tag_108)\n    /* \"#utility.yul\":6666:6702   */\ntag_110:\n    /* \"#utility.yul\":6762:6766   */\n  dup2\n    /* \"#utility.yul\":6810:6811   */\n  0x01\n    /* \"#utility.yul\":6805:6832   */\n  dup2\n  eq\n  tag_112\n  jumpi\n    /* \"#utility.yul\":6846:6847   */\n  0x02\n    /* \"#utility.yul\":6841:7032   */\n  dup2\n  eq\n  tag_113\n  jumpi\n    /* \"#utility.yul\":6755:7032   */\n  jump(tag_111)\n    /* \"#utility.yul\":6805:6832   */\ntag_112:\n    /* \"#utility.yul\":6823:6824   */\n  0x01\n    /* \"#utility.yul\":6814:6824   */\n  swap2\n  pop\n    /* \"#utility.yul\":6825:6830   */\n  pop\n  jump(tag_108)\n    /* \"#utility.yul\":6841:7032   */\ntag_113:\n    /* \"#utility.yul\":6886:6889   */\n  0xff\n    /* \"#utility.yul\":6876:6884   */\n  dup5\n    /* \"#utility.yul\":6873:6890   */\n  gt\n    /* \"#utility.yul\":6870:6913   */\n  iszero\n  tag_114\n  jumpi\n    /* \"#utility.yul\":6893:6911   */\n  tag_115\n  tag_32\n  jump\t// in\ntag_115:\n    /* \"#utility.yul\":6870:6913   */\ntag_114:\n    /* \"#utility.yul\":6942:6950   */\n  dup4\n    /* \"#utility.yul\":6939:6940   */\n  0x02\n    /* \"#utility.yul\":6935:6951   */\n  exp\n    /* \"#utility.yul\":6926:6951   */\n  swap2\n  pop\n    /* \"#utility.yul\":6977:6980   */\n  dup5\n    /* \"#utility.yul\":6970:6975   */\n  dup3\n    /* \"#utility.yul\":6967:6981   */\n  gt\n    /* \"#utility.yul\":6964:7004   */\n  iszero\n  tag_116\n  jumpi\n    /* \"#utility.yul\":6984:7002   */\n  tag_117\n  tag_32\n  jump\t// in\ntag_117:\n    /* \"#utility.yul\":6964:7004   */\ntag_116:\n    /* \"#utility.yul\":7017:7022   */\n  pop\n  jump(tag_108)\n    /* \"#utility.yul\":6755:7032   */\ntag_111:\n  pop\n    /* \"#utility.yul\":7141:7143   */\n  0x20\n    /* \"#utility.yul\":7131:7139   */\n  dup4\n    /* \"#utility.yul\":7128:7144   */\n  lt\n    /* \"#utility.yul\":7122:7125   */\n  0x0133\n    /* \"#utility.yul\":7116:7120   */\n  dup4\n    /* \"#utility.yul\":7113:7126   */\n  lt\n    /* \"#utility.yul\":7109:7145   */\n  and\n    /* \"#utility.yul\":7091:7093   */\n  0x4e\n    /* \"#utility.yul\":7081:7089   */\n  dup5\n    /* \"#utility.yul\":7078:7094   */\n  lt\n    /* \"#utility.yul\":7073:7075   */\n  0x0b\n    /* \"#utility.yul\":7067:7071   */\n  dup5\n    /* \"#utility.yul\":7064:7076   */\n  lt\n    /* \"#utility.yul\":7060:7095   */\n  and\n    /* \"#utility.yul\":7044:7155   */\n  or\n    /* \"#utility.yul\":7041:7287   */\n  iszero\n  tag_118\n  jumpi\n    /* \"#utility.yul\":7197:7205   */\n  dup3\n    /* \"#utility.yul\":7191:7195   */\n  dup3\n    /* \"#utility.yul\":7187:7206   */\n  exp\n    /* \"#utility.yul\":7178:7206   */\n  swap1\n  pop\n    /* \"#utility.yul\":7232:7235   */\n  dup4\n    /* \"#utility.yul\":7225:7230   */\n  dup2\n    /* \"#utility.yul\":7222:7236   */\n  gt\n    /* \"#utility.yul\":7219:7259   */\n  iszero\n  tag_119\n  jumpi\n    /* \"#utility.yul\":7239:7257   */\n  tag_120\n  tag_32\n  jump\t// in\ntag_120:\n    /* \"#utility.yul\":7219:7259   */\ntag_119:\n    /* \"#utility.yul\":7272:7277   */\n  jump(tag_108)\n    /* \"#utility.yul\":7041:7287   */\ntag_118:\n    /* \"#utility.yul\":7312:7354   */\n  tag_121\n    /* \"#utility.yul\":7350:7353   */\n  dup5\n    /* \"#utility.yul\":7340:7348   */\n  dup5\n    /* \"#utility.yul\":7334:7338   */\n  dup5\n    /* \"#utility.yul\":7331:7332   */\n  0x01\n    /* \"#utility.yul\":7312:7354   */\n  tag_34\n  jump\t// in\ntag_121:\n    /* \"#utility.yul\":7297:7354   */\n  swap3\n  pop\n  swap1\n  pop\n    /* \"#utility.yul\":7386:7390   */\n  dup2\n    /* \"#utility.yul\":7381:7384   */\n  dup5\n    /* \"#utility.yul\":7377:7391   */\n  div\n    /* \"#utility.yul\":7370:7375   */\n  dup2\n    /* \"#utility.yul\":7367:7392   */\n  gt\n    /* \"#utility.yul\":7364:7415   */\n  iszero\n  tag_122\n  jumpi\n    /* \"#utility.yul\":7395:7413   */\n  tag_123\n  tag_32\n  jump\t// in\ntag_123:\n    /* \"#utility.yul\":7364:7415   */\ntag_122:\n    /* \"#utility.yul\":7444:7448   */\n  dup2\n    /* \"#utility.yul\":7437:7442   */\n  dup2\n    /* \"#utility.yul\":7433:7449   */\n  mul\n    /* \"#utility.yul\":7424:7449   */\n  swap1\n  pop\n    /* \"#utility.yul\":6382:7455   */\ntag_108:\n  swap4\n  swap3\n  pop\n  pop\n  pop\n  jump\t// out\n    /* \"#utility.yul\":7461:7746   */\ntag_8:\n    /* \"#utility.yul\":7521:7526   */\n  0x00\n    /* \"#utility.yul\":7545:7568   */\n  tag_125\n    /* \"#utility.yul\":7563:7567   */\n  dup3\n    /* \"#utility.yul\":7545:7568   */\n  tag_20\n  jump\t// in\ntag_125:\n    /* \"#utility.yul\":7537:7568   */\n  swap2\n  pop\n    /* \"#utility.yul\":7589:7616   */\n  tag_126\n    /* \"#utility.yul\":7607:7615   */\n  dup4\n    /* \"#utility.yul\":7589:7616   */\n  tag_20\n  jump\t// in\ntag_126:\n    /* \"#utility.yul\":7577:7616   */\n  swap3\n  pop\n    /* \"#utility.yul\":7635:7739   */\n  tag_127\n    /* \"#utility.yul\":7672:7738   */\n  0xffffffffffffffffffffffffffffffffffffffffffffffffffffffffffffffff\n    /* \"#utility.yul\":7662:7670   */\n  dup5\n    /* \"#utility.yul\":7656:7660   */\n  dup5\n    /* \"#utility.yul\":7635:7739   */\n  tag_35\n  jump\t// in\ntag_127:\n    /* \"#utility.yul\":7626:7739   */\n  swap1\n  pop\n    /* \"#utility.yul\":7461:7746   */\n  swap3\n  swap2\n  pop\n  pop\n  jump\t// out\n    /* \"#utility.yul\":7752:8162   */\ntag_10:\n    /* \"#utility.yul\":7792:7799   */\n  0x00\n    /* \"#utility.yul\":7815:7835   */\n  tag_129\n    /* \"#utility.yul\":7833:7834   */\n  dup3\n    /* \"#utility.yul\":7815:7835   */\n  tag_20\n  jump\t// in\ntag_129:\n    /* \"#utility.yul\":7810:7835   */\n  swap2\n  pop\n    /* \"#utility.yul\":7849:7869   */\n  tag_130\n    /* \"#utility.yul\":7867:7868   */\n  dup4\n    /* \"#utility.yul\":7849:7869   */\n  tag_20\n  jump\t// in\ntag_130:\n    /* \"#utility.yul\":7844:7869   */\n  swap3\n  pop\n    /* \"#utility.yul\":7904:7905   */\n  dup3\n    /* \"#utility.yul\":7901:7902   */\n  dup3\n    /* \"#utility.yul\":7897:7906   */\n  mul\n    /* \"#utility.yul\":7926:7956   */\n  tag_131\n    /* \"#utility.yul\":7944:7955   */\n  dup2\n    /* \"#utility.yul\":7926:7956   */\n  tag_20\n  jump\t// in\ntag_131:\n    /* \"#utility.yul\":7915:7956   */\n  swap2\n  pop\n    /* \"#utility.yul\":8105:8106   */\n  dup3\n    /* \"#utility.yul\":8096:8103   */\n  dup3\n    /* \"#utility.yul\":8092:8107   */\n  div\n    /* \"#utility.yul\":8089:8090   */\n  dup5\n    /* \"#utility.yul\":8086:8108   */\n  eq\n    /* \"#utility.yul\":8066:8067   */\n  dup4\n    /* \"#utility.yul\":8059:8068   */\n  iszero\n    /* \"#utility.yul\":8039:8122   */\n  or\n    /* \"#utility.yul\":8016:8155   */\n  tag_132\n  jumpi\n    /* \"#utility.yul\":8135:8153   */\n  tag_133\n  tag_32\n  jump\t// in\ntag_133:\n    /* \"#utility.yul\":8016:8155   */\ntag_132:\n    /* \"#utility.yul\":7800:8162   */\n  pop\n    /* \"#utility.yul\":7752:8162   */\n  swap3\n  swap2\n  pop\n  pop\n  jump\t// out\n    /* \"study_way/src/9day_thridToken.sol\":274:4059  contract ExtendERC20Two {... */\ntag_11:\n  dataSize(sub_0)\n  dup1\n  dataOffset(sub_0)\n  0x00\n  codecopy\n  0x00\n  return\nstop\n\nsub_0: assembly {\n        /* \"study_way/src/9day_thridToken.sol\":274:4059  contract ExtendERC20Two {... */\n      mstore(0x40, 0x80)\n      callvalue\n      dup1\n      iszero\n      tag_1\n      jumpi\n      0x00\n      dup1\n      revert\n    tag_1:\n      pop\n      jumpi(tag_2, lt(calldatasize, 0x04))\n      shr(0xe0, calldataload(0x00))\n      dup1\n      0x2535f762\n      gt\n      tag_14\n      jumpi\n      dup1\n      0x2535f762\n      eq\n      tag_8\n      jumpi\n      dup1\n      0x313ce567\n      eq\n      tag_9\n      jumpi\n      dup1\n      0x70a08231\n      eq\n      tag_10\n      jumpi\n      dup1\n      0x95d89b41\n      eq\n      tag_11\n      jumpi\n      dup1\n      0xa9059cbb\n      eq\n      tag_12\n      jumpi\n      dup1\n      0xdd62ed3e\n      eq\n      tag_13\n      jumpi\n      jump(tag_2)\n    tag_14:\n      dup1\n      0x06fdde03\n      eq\n      tag_3\n      jumpi\n      dup1\n      0x095ea7b3\n      eq\n      tag_4\n      jumpi\n      dup1\n      0x18160ddd\n      eq\n      tag_5\n      jumpi\n      dup1\n      0x1a825b75\n      eq\n      tag_6\n      jumpi\n      dup1\n      0x23b872dd\n      eq\n      tag_7\n      jumpi\n    tag_2:\n      0x00\n      dup1\n      revert\n        /* \"study_way/src/9day_thridToken.sol\":342:360  string public name */\n    tag_3:\n      tag_15\n      tag_16\n      jump\t// in\n    tag_15:\n      mload(0x40)\n      tag_17\n      swap2\n      swap1\n      tag_18\n      jump\t// in\n    tag_17:\n      mload(0x40)\n      dup1\n      swap2\n      sub\n      swap1\n      return\n        /* \"study_way/src/9day_thridToken.sol\":3684:3901  function approve(address _spender, uint256 _value) public returns (bool success) {... */\n    tag_4:\n      tag_19\n      0x04\n      dup1\n      calldatasize\n      sub\n      dup2\n      add\n      swap1\n      tag_20\n      swap2\n      swap1\n      tag_21\n      jump\t// in\n    tag_20:\n      tag_22\n      jump\t// in\n    tag_19:\n      mload(0x40)\n      tag_23\n      swap2\n      swap1\n      tag_24\n      jump\t// in\n    tag_23:\n      mload(0x40)\n      dup1\n      swap2\n      sub\n      swap1\n      return\n        /* \"study_way/src/9day_thridToken.sol\":424:450  uint256 public totalSupply */\n    tag_5:\n      tag_25\n      tag_26\n      jump\t// in\n    tag_25:\n      mload(0x40)\n      tag_27\n      swap2\n      swap1\n      tag_28\n      jump\t// in\n    tag_27:\n      mload(0x40)\n      dup1\n      swap2\n      sub\n      swap1\n      return\n        /* \"study_way/src/9day_thridToken.sol\":2096:2829  function transferWithCallback(address _to, uint256 _value) public returns (bool) {... */\n    tag_6:\n      tag_29\n      0x04\n      dup1\n      calldatasize\n      sub\n      dup2\n      add\n      swap1\n      tag_30\n      swap2\n      swap1\n      tag_21\n      jump\t// in\n    tag_30:\n      tag_31\n      jump\t// in\n    tag_29:\n      mload(0x40)\n      tag_32\n      swap2\n      swap1\n      tag_24\n      jump\t// in\n    tag_32:\n      mload(0x40)\n      dup1\n      swap2\n      sub\n      swap1\n      return\n        /* \"study_way/src/9day_thridToken.sol\":1473:2045  function transferFrom(... */\n    tag_7:\n      tag_33\n      0x04\n      dup1\n      calldatasize\n      sub\n      dup2\n      add\n      swap1\n      tag_34\n      swap2\n      swap1\n      tag_35\n      jump\t// in\n    tag_34:\n      tag_36\n      jump\t// in\n    tag_33:\n      mload(0x40)\n      tag_37\n      swap2\n      swap1\n      tag_24\n      jump\t// in\n    tag_37:\n      mload(0x40)\n      dup1\n      swap2\n      sub\n      swap1\n      return\n        /* \"study_way/src/9day_thridToken.sol\":2888:3676  function transferWithData(... */\n    tag_8:\n      tag_38\n      0x04\n      dup1\n      calldatasize\n      sub\n      dup2\n      add\n      swap1\n      tag_39\n      swap2\n      swap1\n      tag_40\n      jump\t// in\n    tag_39:\n      tag_41\n      jump\t// in\n    tag_38:\n      mload(0x40)\n      tag_42\n      swap2\n      swap1\n      tag_24\n      jump\t// in\n    tag_42:\n      mload(0x40)\n      dup1\n      swap2\n      sub\n      swap1\n      return\n        /* \"study_way/src/9day_thridToken.sol\":394:415  uint8 public decimals */\n    tag_9:\n      tag_43\n      tag_44\n      jump\t// in\n    tag_43:\n      mload(0x40)\n      tag_45\n      swap2\n      swap1\n      tag_46\n      jump\t// in\n    tag_45:\n      mload(0x40)\n      dup1\n      swap2\n      sub\n      swap1\n      return\n        /* \"study_way/src/9day_thridToken.sol\":953:1068  function balanceOf(address _owner) public view returns (uint256 balance) {... */\n    tag_10:\n      tag_47\n      0x04\n      dup1\n      calldatasize\n      sub\n      dup2\n      add\n      swap1\n      tag_48\n      swap2\n      swap1\n      tag_49\n      jump\t// in\n    tag_48:\n      tag_50\n      jump\t// in\n    tag_47:\n      mload(0x40)\n      tag_51\n      swap2\n      swap1\n      tag_28\n      jump\t// in\n    tag_51:\n      mload(0x40)\n      dup1\n      swap2\n      sub\n      swap1\n      return\n        /* \"study_way/src/9day_thridToken.sol\":367:387  string public symbol */\n    tag_11:\n      tag_52\n      tag_53\n      jump\t// in\n    tag_52:\n      mload(0x40)\n      tag_54\n      swap2\n      swap1\n      tag_18\n      jump\t// in\n    tag_54:\n      mload(0x40)\n      dup1\n      swap2\n      sub\n      swap1\n      return\n        /* \"study_way/src/9day_thridToken.sol\":1076:1465  function transfer(address _to, uint256 _value) public returns (bool success) {... */\n    tag_12:\n      tag_55\n      0x04\n      dup1\n      calldatasize\n      sub\n      dup2\n      add\n      swap1\n      tag_56\n      swap2\n      swap1\n      tag_21\n      jump\t// in\n    tag_56:\n      tag_57\n      jump\t// in\n    tag_55:\n      mload(0x40)\n      tag_58\n      swap2\n      swap1\n      tag_24\n      jump\t// in\n    tag_58:\n      mload(0x40)\n      dup1\n      swap2\n      sub\n      swap1\n      return\n        /* \"study_way/src/9day_thridToken.sol\":3909:4056  function allowance(address _owner, address _spender) public view returns (uint256 remaining) {... */\n    tag_13:\n      tag_59\n      0x04\n      dup1\n      calldatasize\n      sub\n      dup2\n      add\n      swap1\n      tag_60\n      swap2\n      swap1\n      tag_61\n      jump\t// in\n    tag_60:\n      tag_62\n      jump\t// in\n    tag_59:\n      mload(0x40)\n      tag_63\n      swap2\n      swap1\n      tag_28\n      jump\t// in\n    tag_63:\n      mload(0x40)\n      dup1\n      swap2\n      sub\n      swap1\n      return\n        /* \"study_way/src/9day_thridToken.sol\":342:360  string public name */\n    tag_16:\n      0x00\n      dup1\n      sload\n      tag_64\n      swap1\n      tag_65\n      jump\t// in\n    tag_64:\n      dup1\n      0x1f\n      add\n      0x20\n      dup1\n      swap2\n      div\n      mul\n      0x20\n      add\n      mload(0x40)\n      swap1\n      dup2\n      add\n      0x40\n      mstore\n      dup1\n      swap3\n      swap2\n      swap1\n      dup2\n      dup2\n      mstore\n      0x20\n      add\n      dup3\n      dup1\n      sload\n      tag_66\n      swap1\n      tag_65\n      jump\t// in\n    tag_66:\n      dup1\n      iszero\n      tag_67\n      jumpi\n      dup1\n      0x1f\n      lt\n      tag_68\n      jumpi\n      0x0100\n      dup1\n      dup4\n      sload\n      div\n      mul\n      dup4\n      mstore\n      swap2\n      0x20\n      add\n      swap2\n      jump(tag_67)\n    tag_68:\n      dup3\n      add\n      swap2\n      swap1\n      0x00\n      mstore\n      keccak256(0x00, 0x20)\n      swap1\n    tag_69:\n      dup2\n      sload\n      dup2\n      mstore\n      swap1\n      0x01\n      add\n      swap1\n      0x20\n      add\n      dup1\n      dup4\n      gt\n      tag_69\n      jumpi\n      dup3\n      swap1\n      sub\n      0x1f\n      and\n      dup3\n      add\n      swap2\n    tag_67:\n      pop\n      pop\n      pop\n      pop\n      pop\n      dup2\n      jump\t// out\n        /* \"study_way/src/9day_thridToken.sol\":3684:3901  function approve(address _spender, uint256 _value) public returns (bool success) {... */\n    tag_22:\n        /* \"study_way/src/9day_thridToken.sol\":3751:3763  bool success */\n      0x00\n        /* \"study_way/src/9day_thridToken.sol\":3811:3817  _value */\n      dup2\n        /* \"study_way/src/9day_thridToken.sol\":3776:3786  allowances */\n      0x05\n        /* \"study_way/src/9day_thridToken.sol\":3776:3798  allowances[msg.sender] */\n      0x00\n        /* \"study_way/src/9day_thridToken.sol\":3787:3797  msg.sender */\n      caller\n        /* \"study_way/src/9day_thridToken.sol\":3776:3798  allowances[msg.sender] */\n      0xffffffffffffffffffffffffffffffffffffffff\n      and\n      0xffffffffffffffffffffffffffffffffffffffff\n      and\n      dup2\n      mstore\n      0x20\n      add\n      swap1\n      dup2\n      mstore\n      0x20\n      add\n      0x00\n      keccak256\n        /* \"study_way/src/9day_thridToken.sol\":3776:3808  allowances[msg.sender][_spender] */\n      0x00\n        /* \"study_way/src/9day_thridToken.sol\":3799:3807  _spender */\n      dup6\n        /* \"study_way/src/9day_thridToken.sol\":3776:3808  allowances[msg.sender][_spender] */\n      0xffffffffffffffffffffffffffffffffffffffff\n      and\n      0xffffffffffffffffffffffffffffffffffffffff\n      and\n      dup2\n      mstore\n      0x20\n      add\n      swap1\n      dup2\n      mstore\n      0x20\n      add\n      0x00\n      keccak256\n        /* \"study_way/src/9day_thridToken.sol\":3776:3817  allowances[msg.sender][_spender] = _value */\n      dup2\n      swap1\n      sstore\n      pop\n        /* \"study_way/src/9day_thridToken.sol\":3854:3862  _spender */\n      dup3\n        /* \"study_way/src/9day_thridToken.sol\":3833:3871  Approval(msg.sender, _spender, _value) */\n      0xffffffffffffffffffffffffffffffffffffffff\n      and\n        /* \"study_way/src/9day_thridToken.sol\":3842:3852  msg.sender */\n      caller\n        /* \"study_way/src/9day_thridToken.sol\":3833:3871  Approval(msg.sender, _spender, _value) */\n      0xffffffffffffffffffffffffffffffffffffffff\n      and\n      0x8c5be1e5ebec7d5bd14f71427d1e84f3dd0314c0f7b2291e5b200ac8c7c3b925\n        /* \"study_way/src/9day_thridToken.sol\":3864:3870  _value */\n      dup5\n        /* \"study_way/src/9day_thridToken.sol\":3833:3871  Approval(msg.sender, _spender, _value) */\n      mload(0x40)\n      tag_71\n      swap2\n      swap1\n      tag_28\n      jump\t// in\n    tag_71:\n      mload(0x40)\n      dup1\n      swap2\n      sub\n      swap1\n      log3\n        /* \"study_way/src/9day_thridToken.sol\":3889:3893  true */\n      0x01\n        /* \"study_way/src/9day_thridToken.sol\":3882:3893  return true */\n      swap1\n      pop\n        /* \"study_way/src/9day_thridToken.sol\":3684:3901  function approve(address _spender, uint256 _value) public returns (bool success) {... */\n      swap3\n      swap2\n      pop\n      pop\n      jump\t// out\n        /* \"study_way/src/9day_thridToken.sol\":424:450  uint256 public totalSupply */\n    tag_26:\n      sload(0x03)\n      dup2\n      jump\t// out\n        /* \"study_way/src/9day_thridToken.sol\":2096:2829  function transferWithCallback(address _to, uint256 _value) public returns (bool) {... */\n    tag_31:\n        /* \"study_way/src/9day_thridToken.sol\":2171:2175  bool */\n      0x00\n        /* \"study_way/src/9day_thridToken.sol\":2211:2212  0 */\n      dup1\n        /* \"study_way/src/9day_thridToken.sol\":2196:2213  _to != address(0) */\n      0xffffffffffffffffffffffffffffffffffffffff\n      and\n        /* \"study_way/src/9day_thridToken.sol\":2196:2199  _to */\n      dup4\n        /* \"study_way/src/9day_thridToken.sol\":2196:2213  _to != address(0) */\n      0xffffffffffffffffffffffffffffffffffffffff\n      and\n      sub\n        /* \"study_way/src/9day_thridToken.sol\":2188:2233  require(_to != address(0), \"Invalid Address\") */\n      tag_73\n      jumpi\n      mload(0x40)\n      0x08c379a000000000000000000000000000000000000000000000000000000000\n      dup2\n      mstore\n      0x04\n      add\n      tag_74\n      swap1\n      tag_75\n      jump\t// in\n    tag_74:\n      mload(0x40)\n      dup1\n      swap2\n      sub\n      swap1\n      revert\n    tag_73:\n        /* \"study_way/src/9day_thridToken.sol\":2276:2282  _value */\n      dup2\n        /* \"study_way/src/9day_thridToken.sol\":2252:2260  balances */\n      0x04\n        /* \"study_way/src/9day_thridToken.sol\":2252:2272  balances[msg.sender] */\n      0x00\n        /* \"study_way/src/9day_thridToken.sol\":2261:2271  msg.sender */\n      caller\n        /* \"study_way/src/9day_thridToken.sol\":2252:2272  balances[msg.sender] */\n      0xffffffffffffffffffffffffffffffffffffffff\n      and\n      0xffffffffffffffffffffffffffffffffffffffff\n      and\n      dup2\n      mstore\n      0x20\n      add\n      swap1\n      dup2\n      mstore\n      0x20\n      add\n      0x00\n      keccak256\n      sload\n        /* \"study_way/src/9day_thridToken.sol\":2252:2282  balances[msg.sender] >= _value */\n      lt\n      iszero\n        /* \"study_way/src/9day_thridToken.sol\":2244:2325  require(balances[msg.sender] >= _value, \"ERC20: transfer amount exceeds balance\") */\n      tag_76\n      jumpi\n      mload(0x40)\n      0x08c379a000000000000000000000000000000000000000000000000000000000\n      dup2\n      mstore\n      0x04\n      add\n      tag_77\n      swap1\n      tag_78\n      jump\t// in\n    tag_77:\n      mload(0x40)\n      dup1\n      swap2\n      sub\n      swap1\n      revert\n    tag_76:\n        /* \"study_way/src/9day_thridToken.sol\":2362:2368  _value */\n      dup2\n        /* \"study_way/src/9day_thridToken.sol\":2338:2346  balances */\n      0x04\n        /* \"study_way/src/9day_thridToken.sol\":2338:2358  balances[msg.sender] */\n      0x00\n        /* \"study_way/src/9day_thridToken.sol\":2347:2357  msg.sender */\n      caller\n        /* \"study_way/src/9day_thridToken.sol\":2338:2358  balances[msg.sender] */\n      0xffffffffffffffffffffffffffffffffffffffff\n      and\n      0xffffffffffffffffffffffffffffffffffffffff\n      and\n      dup2\n      mstore\n      0x20\n      add\n      swap1\n      dup2\n      mstore\n      0x20\n      add\n      0x00\n      keccak256\n      0x00\n        /* \"study_way/src/9day_thridToken.sol\":2338:2368  balances[msg.sender] -= _value */\n      dup3\n      dup3\n      sload\n      tag_79\n      swap2\n      swap1\n      tag_80\n      jump\t// in\n    tag_79:\n      swap3\n      pop\n      pop\n      dup2\n      swap1\n      sstore\n      pop\n        /* \"study_way/src/9day_thridToken.sol\":2396:2402  _value */\n      dup2\n        /* \"study_way/src/9day_thridToken.sol\":2379:2387  balances */\n      0x04\n        /* \"study_way/src/9day_thridToken.sol\":2379:2392  balances[_to] */\n      0x00\n        /* \"study_way/src/9day_thridToken.sol\":2388:2391  _to */\n      dup6\n        /* \"study_way/src/9day_thridToken.sol\":2379:2392  balances[_to] */\n      0xffffffffffffffffffffffffffffffffffffffff\n      and\n      0xffffffffffffffffffffffffffffffffffffffff\n      and\n      dup2\n      mstore\n      0x20\n      add\n      swap1\n      dup2\n      mstore\n      0x20\n      add\n      0x00\n      keccak256\n      0x00\n        /* \"study_way/src/9day_thridToken.sol\":2379:2402  balances[_to] += _value */\n      dup3\n      dup3\n      sload\n      tag_81\n      swap2\n      swap1\n      tag_82\n      jump\t// in\n    tag_81:\n      swap3\n      pop\n      pop\n      dup2\n      swap1\n      sstore\n      pop\n        /* \"study_way/src/9day_thridToken.sol\":2439:2442  _to */\n      dup3\n        /* \"study_way/src/9day_thridToken.sol\":2418:2451  Transfer(msg.sender, _to, _value) */\n      0xffffffffffffffffffffffffffffffffffffffff\n      and\n        /* \"study_way/src/9day_thridToken.sol\":2427:2437  msg.sender */\n      caller\n        /* \"study_way/src/9day_thridToken.sol\":2418:2451  Transfer(msg.sender, _to, _value) */\n      0xffffffffffffffffffffffffffffffffffffffff\n      and\n      0xddf252ad1be2c89b69c2b068fc378daa952ba7f163c4a11628f55a4df523b3ef\n        /* \"study_way/src/9day_thridToken.sol\":2444:2450  _value */\n      dup5\n        /* \"study_way/src/9day_thridToken.sol\":2418:2451  Transfer(msg.sender, _to, _value) */\n      mload(0x40)\n      tag_83\n      swap2\n      swap1\n      tag_28\n      jump\t// in\n    tag_83:\n      mload(0x40)\n      dup1\n      swap2\n      sub\n      swap1\n      log3\n        /* \"study_way/src/9day_thridToken.sol\":2468:2484  _to.isContract() */\n      tag_84\n        /* \"study_way/src/9day_thridToken.sol\":2468:2471  _to */\n      dup4\n        /* \"study_way/src/9day_thridToken.sol\":2468:2482  _to.isContract */\n      0xffffffffffffffffffffffffffffffffffffffff\n      and\n      tag_85\n        /* \"study_way/src/9day_thridToken.sol\":2468:2484  _to.isContract() */\n      jump\t// in\n    tag_84:\n        /* \"study_way/src/9day_thridToken.sol\":2464:2800  if (_to.isContract()) {... */\n      iszero\n      tag_86\n      jumpi\n        /* \"study_way/src/9day_thridToken.sol\":2520:2523  _to */\n      dup3\n        /* \"study_way/src/9day_thridToken.sol\":2505:2539  IERC20Receiver(_to).tokensReceived */\n      0xffffffffffffffffffffffffffffffffffffffff\n      and\n      0xd0314263\n        /* \"study_way/src/9day_thridToken.sol\":2540:2550  msg.sender */\n      caller\n        /* \"study_way/src/9day_thridToken.sol\":2552:2558  _value */\n      dup5\n        /* \"study_way/src/9day_thridToken.sol\":2505:2563  IERC20Receiver(_to).tokensReceived(msg.sender, _value, \"\") */\n      mload(0x40)\n      dup4\n      0xffffffff\n      and\n      0xe0\n      shl\n      dup2\n      mstore\n      0x04\n      add\n      tag_87\n      swap3\n      swap2\n      swap1\n      tag_88\n      jump\t// in\n    tag_87:\n      0x20\n      mload(0x40)\n      dup1\n      dup4\n      sub\n      dup2\n      0x00\n      dup8\n      gas\n      call\n      swap3\n      pop\n      pop\n      pop\n      dup1\n      iszero\n      tag_89\n      jumpi\n      pop\n      mload(0x40)\n      returndatasize\n      not(0x1f)\n      0x1f\n      dup3\n      add\n      and\n      dup3\n      add\n      dup1\n      0x40\n      mstore\n      pop\n      dup2\n      add\n      swap1\n      tag_90\n      swap2\n      swap1\n      tag_91\n      jump\t// in\n    tag_90:\n      0x01\n    tag_89:\n        /* \"study_way/src/9day_thridToken.sol\":2501:2789  try IERC20Receiver(_to).tokensReceived(msg.sender, _value, \"\") returns (bytes4 retval) {... */\n      tag_92\n      jumpi\n        /* \"study_way/src/9day_thridToken.sol\":2726:2773  revert(\"ERC20: tokensReceived callback failed\") */\n      mload(0x40)\n      0x08c379a000000000000000000000000000000000000000000000000000000000\n      dup2\n      mstore\n      0x04\n      add\n      tag_96\n      swap1\n      tag_97\n      jump\t// in\n    tag_96:\n      mload(0x40)\n      dup1\n      swap2\n      sub\n      swap1\n      revert\n        /* \"study_way/src/9day_thridToken.sol\":2501:2789  try IERC20Receiver(_to).tokensReceived(msg.sender, _value, \"\") returns (bytes4 retval) {... */\n    tag_92:\n        /* \"study_way/src/9day_thridToken.sol\":2625:2663  IERC20Receiver.tokensReceived.selector */\n      shl(0xe0, 0xd0314263)\n        /* \"study_way/src/9day_thridToken.sol\":2615:2663  retval == IERC20Receiver.tokensReceived.selector */\n      not(0xffffffffffffffffffffffffffffffffffffffffffffffffffffffff)\n      and\n        /* \"study_way/src/9day_thridToken.sol\":2615:2621  retval */\n      dup2\n        /* \"study_way/src/9day_thridToken.sol\":2615:2663  retval == IERC20Receiver.tokensReceived.selector */\n      not(0xffffffffffffffffffffffffffffffffffffffffffffffffffffffff)\n      and\n      eq\n        /* \"study_way/src/9day_thridToken.sol\":2607:2684  require(retval == IERC20Receiver.tokensReceived.selector, \"Invalid callback\") */\n      tag_99\n      jumpi\n      mload(0x40)\n      0x08c379a000000000000000000000000000000000000000000000000000000000\n      dup2\n      mstore\n      0x04\n      add\n      tag_100\n      swap1\n      tag_101\n      jump\t// in\n    tag_100:\n      mload(0x40)\n      dup1\n      swap2\n      sub\n      swap1\n      revert\n    tag_99:\n        /* \"study_way/src/9day_thridToken.sol\":2564:2700  returns (bytes4 retval) {... */\n      pop\n        /* \"study_way/src/9day_thridToken.sol\":2464:2800  if (_to.isContract()) {... */\n    tag_86:\n        /* \"study_way/src/9day_thridToken.sol\":2817:2821  true */\n      0x01\n        /* \"study_way/src/9day_thridToken.sol\":2810:2821  return true */\n      swap1\n      pop\n        /* \"study_way/src/9day_thridToken.sol\":2096:2829  function transferWithCallback(address _to, uint256 _value) public returns (bool) {... */\n      swap3\n      swap2\n      pop\n      pop\n      jump\t// out\n        /* \"study_way/src/9day_thridToken.sol\":1473:2045  function transferFrom(... */\n    tag_36:\n        /* \"study_way/src/9day_thridToken.sol\":1589:1601  bool success */\n      0x00\n        /* \"study_way/src/9day_thridToken.sol\":1637:1638  0 */\n      dup1\n        /* \"study_way/src/9day_thridToken.sol\":1622:1639  _to != address(0) */\n      0xffffffffffffffffffffffffffffffffffffffff\n      and\n        /* \"study_way/src/9day_thridToken.sol\":1622:1625  _to */\n      dup4\n        /* \"study_way/src/9day_thridToken.sol\":1622:1639  _to != address(0) */\n      0xffffffffffffffffffffffffffffffffffffffff\n      and\n      sub\n        /* \"study_way/src/9day_thridToken.sol\":1614:1659  require(_to != address(0), \"Invalid Address\") */\n      tag_103\n      jumpi\n      mload(0x40)\n      0x08c379a000000000000000000000000000000000000000000000000000000000\n      dup2\n      mstore\n      0x04\n      add\n      tag_104\n      swap1\n      tag_75\n      jump\t// in\n    tag_104:\n      mload(0x40)\n      dup1\n      swap2\n      sub\n      swap1\n      revert\n    tag_103:\n        /* \"study_way/src/9day_thridToken.sol\":1697:1703  _value */\n      dup2\n        /* \"study_way/src/9day_thridToken.sol\":1678:1686  balances */\n      0x04\n        /* \"study_way/src/9day_thridToken.sol\":1678:1693  balances[_from] */\n      0x00\n        /* \"study_way/src/9day_thridToken.sol\":1687:1692  _from */\n      dup7\n        /* \"study_way/src/9day_thridToken.sol\":1678:1693  balances[_from] */\n      0xffffffffffffffffffffffffffffffffffffffff\n      and\n      0xffffffffffffffffffffffffffffffffffffffff\n      and\n      dup2\n      mstore\n      0x20\n      add\n      swap1\n      dup2\n      mstore\n      0x20\n      add\n      0x00\n      keccak256\n      sload\n        /* \"study_way/src/9day_thridToken.sol\":1678:1703  balances[_from] >= _value */\n      lt\n      iszero\n        /* \"study_way/src/9day_thridToken.sol\":1670:1746  require(balances[_from] >= _value, \"ERC20: transfer amount exceeds balance\") */\n      tag_105\n      jumpi\n      mload(0x40)\n      0x08c379a000000000000000000000000000000000000000000000000000000000\n      dup2\n      mstore\n      0x04\n      add\n      tag_106\n      swap1\n      tag_78\n      jump\t// in\n    tag_106:\n      mload(0x40)\n      dup1\n      swap2\n      sub\n      swap1\n      revert\n    tag_105:\n        /* \"study_way/src/9day_thridToken.sol\":1798:1804  _value */\n      dup2\n        /* \"study_way/src/9day_thridToken.sol\":1765:1775  allowances */\n      0x05\n        /* \"study_way/src/9day_thridToken.sol\":1765:1782  allowances[_from] */\n      0x00\n        /* \"study_way/src/9day_thridToken.sol\":1776:1781  _from */\n      dup7\n        /* \"study_way/src/9day_thridToken.sol\":1765:1782  allowances[_from] */\n      0xffffffffffffffffffffffffffffffffffffffff\n      and\n      0xffffffffffffffffffffffffffffffffffffffff\n      and\n      dup2\n      mstore\n      0x20\n      add\n      swap1\n      dup2\n      mstore\n      0x20\n      add\n      0x00\n      keccak256\n        /* \"study_way/src/9day_thridToken.sol\":1765:1794  allowances[_from][msg.sender] */\n      0x00\n        /* \"study_way/src/9day_thridToken.sol\":1783:1793  msg.sender */\n      caller\n        /* \"study_way/src/9day_thridToken.sol\":1765:1794  allowances[_from][msg.sender] */\n      0xffffffffffffffffffffffffffffffffffffffff\n      and\n      0xffffffffffffffffffffffffffffffffffffffff\n      and\n      dup2\n      mstore\n      0x20\n      add\n      swap1\n      dup2\n      mstore\n      0x20\n      add\n      0x00\n      keccak256\n      sload\n        /* \"study_way/src/9day_thridToken.sol\":1765:1804  allowances[_from][msg.sender] >= _value */\n      lt\n      iszero\n        /* \"study_way/src/9day_thridToken.sol\":1757:1849  require(allowances[_from][msg.sender] >= _value, \"ERC20: transfer amount exceeds allowance\") */\n      tag_107\n      jumpi\n      mload(0x40)\n      0x08c379a000000000000000000000000000000000000000000000000000000000\n      dup2\n      mstore\n      0x04\n      add\n      tag_108\n      swap1\n      tag_109\n      jump\t// in\n    tag_108:\n      mload(0x40)\n      dup1\n      swap2\n      sub\n      swap1\n      revert\n    tag_107:\n        /* \"study_way/src/9day_thridToken.sol\":1881:1887  _value */\n      dup2\n        /* \"study_way/src/9day_thridToken.sol\":1862:1870  balances */\n      0x04\n        /* \"study_way/src/9day_thridToken.sol\":1862:1877  balances[_from] */\n      0x00\n        /* \"study_way/src/9day_thridToken.sol\":1871:1876  _from */\n      dup7\n        /* \"study_way/src/9day_thridToken.sol\":1862:1877  balances[_from] */\n      0xffffffffffffffffffffffffffffffffffffffff\n      and\n      0xffffffffffffffffffffffffffffffffffffffff\n      and\n      dup2\n      mstore\n      0x20\n      add\n      swap1\n      dup2\n      mstore\n      0x20\n      add\n      0x00\n      keccak256\n      0x00\n        /* \"study_way/src/9day_thridToken.sol\":1862:1887  balances[_from] -= _value */\n      dup3\n      dup3\n      sload\n      tag_110\n      swap2\n      swap1\n      tag_80\n      jump\t// in\n    tag_110:\n      swap3\n      pop\n      pop\n      dup2\n      swap1\n      sstore\n      pop\n        /* \"study_way/src/9day_thridToken.sol\":1915:1921  _value */\n      dup2\n        /* \"study_way/src/9day_thridToken.sol\":1898:1906  balances */\n      0x04\n        /* \"study_way/src/9day_thridToken.sol\":1898:1911  balances[_to] */\n      0x00\n        /* \"study_way/src/9day_thridToken.sol\":1907:1910  _to */\n      dup6\n        /* \"study_way/src/9day_thridToken.sol\":1898:1911  balances[_to] */\n      0xffffffffffffffffffffffffffffffffffffffff\n      and\n      0xffffffffffffffffffffffffffffffffffffffff\n      and\n      dup2\n      mstore\n      0x20\n      add\n      swap1\n      dup2\n      mstore\n      0x20\n      add\n      0x00\n      keccak256\n      0x00\n        /* \"study_way/src/9day_thridToken.sol\":1898:1921  balances[_to] += _value */\n      dup3\n      dup3\n      sload\n      tag_111\n      swap2\n      swap1\n      tag_82\n      jump\t// in\n    tag_111:\n      swap3\n      pop\n      pop\n      dup2\n      swap1\n      sstore\n      pop\n        /* \"study_way/src/9day_thridToken.sol\":1965:1971  _value */\n      dup2\n        /* \"study_way/src/9day_thridToken.sol\":1932:1942  allowances */\n      0x05\n        /* \"study_way/src/9day_thridToken.sol\":1932:1949  allowances[_from] */\n      0x00\n        /* \"study_way/src/9day_thridToken.sol\":1943:1948  _from */\n      dup7\n        /* \"study_way/src/9day_thridToken.sol\":1932:1949  allowances[_from] */\n      0xffffffffffffffffffffffffffffffffffffffff\n      and\n      0xffffffffffffffffffffffffffffffffffffffff\n      and\n      dup2\n      mstore\n      0x20\n      add\n      swap1\n      dup2\n      mstore\n      0x20\n      add\n      0x00\n      keccak256\n        /* \"study_way/src/9day_thridToken.sol\":1932:1961  allowances[_from][msg.sender] */\n      0x00\n        /* \"study_way/src/9day_thridToken.sol\":1950:1960  msg.sender */\n      caller\n        /* \"study_way/src/9day_thridToken.sol\":1932:1961  allowances[_from][msg.sender] */\n      0xffffffffffffffffffffffffffffffffffffffff\n      and\n      0xffffffffffffffffffffffffffffffffffffffff\n      and\n      dup2\n      mstore\n      0x20\n      add\n      swap1\n      dup2\n      mstore\n      0x20\n      add\n      0x00\n      keccak256\n      0x00\n        /* \"study_way/src/9day_thridToken.sol\":1932:1971  allowances[_from][msg.sender] -= _value */\n      dup3\n      dup3\n      sload\n      tag_112\n      swap2\n      swap1\n      tag_80\n      jump\t// in\n    tag_112:\n      swap3\n      pop\n      pop\n      dup2\n      swap1\n      sstore\n      pop\n        /* \"study_way/src/9day_thridToken.sol\":2003:2006  _to */\n      dup3\n        /* \"study_way/src/9day_thridToken.sol\":1987:2015  Transfer(_from, _to, _value) */\n      0xffffffffffffffffffffffffffffffffffffffff\n      and\n        /* \"study_way/src/9day_thridToken.sol\":1996:2001  _from */\n      dup5\n        /* \"study_way/src/9day_thridToken.sol\":1987:2015  Transfer(_from, _to, _value) */\n      0xffffffffffffffffffffffffffffffffffffffff\n      and\n      0xddf252ad1be2c89b69c2b068fc378daa952ba7f163c4a11628f55a4df523b3ef\n        /* \"study_way/src/9day_thridToken.sol\":2008:2014  _value */\n      dup5\n        /* \"study_way/src/9day_thridToken.sol\":1987:2015  Transfer(_from, _to, _value) */\n      mload(0x40)\n      tag_113\n      swap2\n      swap1\n      tag_28\n      jump\t// in\n    tag_113:\n      mload(0x40)\n      dup1\n      swap2\n      sub\n      swap1\n      log3\n        /* \"study_way/src/9day_thridToken.sol\":2033:2037  true */\n      0x01\n        /* \"study_way/src/9day_thridToken.sol\":2026:2037  return true */\n      swap1\n      pop\n        /* \"study_way/src/9day_thridToken.sol\":1473:2045  function transferFrom(... */\n      swap4\n      swap3\n      pop\n      pop\n      pop\n      jump\t// out\n        /* \"study_way/src/9day_thridToken.sol\":2888:3676  function transferWithData(... */\n    tag_41:\n        /* \"study_way/src/9day_thridToken.sol\":3015:3019  bool */\n      0x00\n        /* \"study_way/src/9day_thridToken.sol\":3055:3056  0 */\n      dup1\n        /* \"study_way/src/9day_thridToken.sol\":3040:3057  _to != address(0) */\n      0xffffffffffffffffffffffffffffffffffffffff\n      and\n        /* \"study_way/src/9day_thridToken.sol\":3040:3043  _to */\n      dup6\n        /* \"study_way/src/9day_thridToken.sol\":3040:3057  _to != address(0) */\n      0xffffffffffffffffffffffffffffffffffffffff\n      and\n      sub\n        /* \"study_way/src/9day_thridToken.sol\":3032:3077  require(_to != address(0), \"Invalid Address\") */\n      tag_115\n      jumpi\n      mload(0x40)\n      0x08c379a000000000000000000000000000000000000000000000000000000000\n      dup2\n      mstore\n      0x04\n      add\n      tag_116\n      swap1\n      tag_75\n      jump\t// in\n    tag_116:\n      mload(0x40)\n      dup1\n      swap2\n      sub\n      swap1\n      revert\n    tag_115:\n        /* \"study_way/src/9day_thridToken.sol\":3120:3126  _value */\n      dup4\n        /* \"study_way/src/9day_thridToken.sol\":3096:3104  balances */\n      0x04\n        /* \"study_way/src/9day_thridToken.sol\":3096:3116  balances[msg.sender] */\n      0x00\n        /* \"study_way/src/9day_thridToken.sol\":3105:3115  msg.sender */\n      caller\n        /* \"study_way/src/9day_thridToken.sol\":3096:3116  balances[msg.sender] */\n      0xffffffffffffffffffffffffffffffffffffffff\n      and\n      0xffffffffffffffffffffffffffffffffffffffff\n      and\n      dup2\n      mstore\n      0x20\n      add\n      swap1\n      dup2\n      mstore\n      0x20\n      add\n      0x00\n      keccak256\n      sload\n        /* \"study_way/src/9day_thridToken.sol\":3096:3126  balances[msg.sender] >= _value */\n      lt\n      iszero\n        /* \"study_way/src/9day_thridToken.sol\":3088:3169  require(balances[msg.sender] >= _value, \"ERC20: transfer amount exceeds balance\") */\n      tag_117\n      jumpi\n      mload(0x40)\n      0x08c379a000000000000000000000000000000000000000000000000000000000\n      dup2\n      mstore\n      0x04\n      add\n      tag_118\n      swap1\n      tag_78\n      jump\t// in\n    tag_118:\n      mload(0x40)\n      dup1\n      swap2\n      sub\n      swap1\n      revert\n    tag_117:\n        /* \"study_way/src/9day_thridToken.sol\":3206:3212  _value */\n      dup4\n        /* \"study_way/src/9day_thridToken.sol\":3182:3190  balances */\n      0x04\n        /* \"study_way/src/9day_thridToken.sol\":3182:3202  balances[msg.sender] */\n      0x00\n        /* \"study_way/src/9day_thridToken.sol\":3191:3201  msg.sender */\n      caller\n        /* \"study_way/src/9day_thridToken.sol\":3182:3202  balances[msg.sender] */\n      0xffffffffffffffffffffffffffffffffffffffff\n      and\n      0xffffffffffffffffffffffffffffffffffffffff\n      and\n      dup2\n      mstore\n      0x20\n      add\n      swap1\n      dup2\n      mstore\n      0x20\n      add\n      0x00\n      keccak256\n      0x00\n        /* \"study_way/src/9day_thridToken.sol\":3182:3212  balances[msg.sender] -= _value */\n      dup3\n      dup3\n      sload\n      tag_119\n      swap2\n      swap1\n      tag_80\n      jump\t// in\n    tag_119:\n      swap3\n      pop\n      pop\n      dup2\n      swap1\n      sstore\n      pop\n        /* \"study_way/src/9day_thridToken.sol\":3240:3246  _value */\n      dup4\n        /* \"study_way/src/9day_thridToken.sol\":3223:3231  balances */\n      0x04\n        /* \"study_way/src/9day_thridToken.sol\":3223:3236  balances[_to] */\n      0x00\n        /* \"study_way/src/9day_thridToken.sol\":3232:3235  _to */\n      dup8\n        /* \"study_way/src/9day_thridToken.sol\":3223:3236  balances[_to] */\n      0xffffffffffffffffffffffffffffffffffffffff\n      and\n      0xffffffffffffffffffffffffffffffffffffffff\n      and\n      dup2\n      mstore\n      0x20\n      add\n      swap1\n      dup2\n      mstore\n      0x20\n      add\n      0x00\n      keccak256\n      0x00\n        /* \"study_way/src/9day_thridToken.sol\":3223:3246  balances[_to] += _value */\n      dup3\n      dup3\n      sload\n      tag_120\n      swap2\n      swap1\n      tag_82\n      jump\t// in\n    tag_120:\n      swap3\n      pop\n      pop\n      dup2\n      swap1\n      sstore\n      pop\n        /* \"study_way/src/9day_thridToken.sol\":3283:3286  _to */\n      dup5\n        /* \"study_way/src/9day_thridToken.sol\":3262:3295  Transfer(msg.sender, _to, _value) */\n      0xffffffffffffffffffffffffffffffffffffffff\n      and\n        /* \"study_way/src/9day_thridToken.sol\":3271:3281  msg.sender */\n      caller\n        /* \"study_way/src/9day_thridToken.sol\":3262:3295  Transfer(msg.sender, _to, _value) */\n      0xffffffffffffffffffffffffffffffffffffffff\n      and\n      0xddf252ad1be2c89b69c2b068fc378daa952ba7f163c4a11628f55a4df523b3ef\n        /* \"study_way/src/9day_thridToken.sol\":3288:3294  _value */\n      dup7\n        /* \"study_way/src/9day_thridToken.sol\":3262:3295  Transfer(msg.sender, _to, _value) */\n      mload(0x40)\n      tag_121\n      swap2\n      swap1\n      tag_28\n      jump\t// in\n    tag_121:\n      mload(0x40)\n      dup1\n      swap2\n      sub\n      swap1\n      log3\n        /* \"study_way/src/9day_thridToken.sol\":3312:3328  _to.isContract() */\n      tag_122\n        /* \"study_way/src/9day_thridToken.sol\":3312:3315  _to */\n      dup6\n        /* \"study_way/src/9day_thridToken.sol\":3312:3326  _to.isContract */\n      0xffffffffffffffffffffffffffffffffffffffff\n      and\n      tag_85\n        /* \"study_way/src/9day_thridToken.sol\":3312:3328  _to.isContract() */\n      jump\t// in\n    tag_122:\n        /* \"study_way/src/9day_thridToken.sol\":3308:3647  if (_to.isContract()) {... */\n      iszero\n      tag_123\n      jumpi\n        /* \"study_way/src/9day_thridToken.sol\":3364:3367  _to */\n      dup5\n        /* \"study_way/src/9day_thridToken.sol\":3349:3383  IERC20Receiver(_to).tokensReceived */\n      0xffffffffffffffffffffffffffffffffffffffff\n      and\n      0xd0314263\n        /* \"study_way/src/9day_thridToken.sol\":3384:3394  msg.sender */\n      caller\n        /* \"study_way/src/9day_thridToken.sol\":3396:3402  _value */\n      dup7\n        /* \"study_way/src/9day_thridToken.sol\":3404:3409  _data */\n      dup7\n      dup7\n        /* \"study_way/src/9day_thridToken.sol\":3349:3410  IERC20Receiver(_to).tokensReceived(msg.sender, _value, _data) */\n      mload(0x40)\n      dup6\n      0xffffffff\n      and\n      0xe0\n      shl\n      dup2\n      mstore\n      0x04\n      add\n      tag_124\n      swap5\n      swap4\n      swap3\n      swap2\n      swap1\n      tag_125\n      jump\t// in\n    tag_124:\n      0x20\n      mload(0x40)\n      dup1\n      dup4\n      sub\n      dup2\n      0x00\n      dup8\n      gas\n      call\n      swap3\n      pop\n      pop\n      pop\n      dup1\n      iszero\n      tag_126\n      jumpi\n      pop\n      mload(0x40)\n      returndatasize\n      not(0x1f)\n      0x1f\n      dup3\n      add\n      and\n      dup3\n      add\n      dup1\n      0x40\n      mstore\n      pop\n      dup2\n      add\n      swap1\n      tag_127\n      swap2\n      swap1\n      tag_91\n      jump\t// in\n    tag_127:\n      0x01\n    tag_126:\n        /* \"study_way/src/9day_thridToken.sol\":3345:3636  try IERC20Receiver(_to).tokensReceived(msg.sender, _value, _data) returns (bytes4 retval) {... */\n      tag_128\n      jumpi\n        /* \"study_way/src/9day_thridToken.sol\":3573:3620  revert(\"ERC20: tokensReceived callback failed\") */\n      mload(0x40)\n      0x08c379a000000000000000000000000000000000000000000000000000000000\n      dup2\n      mstore\n      0x04\n      add\n      tag_132\n      swap1\n      tag_97\n      jump\t// in\n    tag_132:\n      mload(0x40)\n      dup1\n      swap2\n      sub\n      swap1\n      revert\n        /* \"study_way/src/9day_thridToken.sol\":3345:3636  try IERC20Receiver(_to).tokensReceived(msg.sender, _value, _data) returns (bytes4 retval) {... */\n    tag_128:\n        /* \"study_way/src/9day_thridToken.sol\":3472:3510  IERC20Receiver.tokensReceived.selector */\n      shl(0xe0, 0xd0314263)\n        /* \"study_way/src/9day_thridToken.sol\":3462:3510  retval == IERC20Receiver.tokensReceived.selector */\n      not(0xffffffffffffffffffffffffffffffffffffffffffffffffffffffff)\n      and\n        /* \"study_way/src/9day_thridToken.sol\":3462:3468  retval */\n      dup2\n        /* \"study_way/src/9day_thridToken.sol\":3462:3510  retval == IERC20Receiver.tokensReceived.selector */\n      not(0xffffffffffffffffffffffffffffffffffffffffffffffffffffffff)\n      and\n      eq\n        /* \"study_way/src/9day_thridToken.sol\":3454:3531  require(retval == IERC20Receiver.tokensReceived.selector, \"Invalid callback\") */\n      tag_134\n      jumpi\n      mload(0x40)\n      0x08c379a000000000000000000000000000000000000000000000000000000000\n      dup2\n      mstore\n      0x04\n      add\n      tag_135\n      swap1\n      tag_101\n      jump\t// in\n    tag_135:\n      mload(0x40)\n      dup1\n      swap2\n      sub\n      swap1\n      revert\n    tag_134:\n        /* \"study_way/src/9day_thridToken.sol\":3411:3547  returns (bytes4 retval) {... */\n      pop\n        /* \"study_way/src/9day_thridToken.sol\":3308:3647  if (_to.isContract()) {... */\n    tag_123:\n        /* \"study_way/src/9day_thridToken.sol\":3664:3668  true */\n      0x01\n        /* \"study_way/src/9day_thridToken.sol\":3657:3668  return true */\n      swap1\n      pop\n        /* \"study_way/src/9day_thridToken.sol\":2888:3676  function transferWithData(... */\n      swap5\n      swap4\n      pop\n      pop\n      pop\n      pop\n      jump\t// out\n        /* \"study_way/src/9day_thridToken.sol\":394:415  uint8 public decimals */\n    tag_44:\n      0x02\n      0x00\n      swap1\n      sload\n      swap1\n      0x0100\n      exp\n      swap1\n      div\n      0xff\n      and\n      dup2\n      jump\t// out\n        /* \"study_way/src/9day_thridToken.sol\":953:1068  function balanceOf(address _owner) public view returns (uint256 balance) {... */\n    tag_50:\n        /* \"study_way/src/9day_thridToken.sol\":1009:1024  uint256 balance */\n      0x00\n        /* \"study_way/src/9day_thridToken.sol\":1044:1052  balances */\n      0x04\n        /* \"study_way/src/9day_thridToken.sol\":1044:1060  balances[_owner] */\n      0x00\n        /* \"study_way/src/9day_thridToken.sol\":1053:1059  _owner */\n      dup4\n        /* \"study_way/src/9day_thridToken.sol\":1044:1060  balances[_owner] */\n      0xffffffffffffffffffffffffffffffffffffffff\n      and\n      0xffffffffffffffffffffffffffffffffffffffff\n      and\n      dup2\n      mstore\n      0x20\n      add\n      swap1\n      dup2\n      mstore\n      0x20\n      add\n      0x00\n      keccak256\n      sload\n        /* \"study_way/src/9day_thridToken.sol\":1037:1060  return balances[_owner] */\n      swap1\n      pop\n        /* \"study_way/src/9day_thridToken.sol\":953:1068  function balanceOf(address _owner) public view returns (uint256 balance) {... */\n      swap2\n      swap1\n      pop\n      jump\t// out\n        /* \"study_way/src/9day_thridToken.sol\":367:387  string public symbol */\n    tag_53:\n      0x01\n      dup1\n      sload\n      tag_137\n      swap1\n      tag_65\n      jump\t// in\n    tag_137:\n      dup1\n      0x1f\n      add\n      0x20\n      dup1\n      swap2\n      div\n      mul\n      0x20\n      add\n      mload(0x40)\n      swap1\n      dup2\n      add\n      0x40\n      mstore\n      dup1\n      swap3\n      swap2\n      swap1\n      dup2\n      dup2\n      mstore\n      0x20\n      add\n      dup3\n      dup1\n      sload\n      tag_138\n      swap1\n      tag_65\n      jump\t// in\n    tag_138:\n      dup1\n      iszero\n      tag_139\n      jumpi\n      dup1\n      0x1f\n      lt\n      tag_140\n      jumpi\n      0x0100\n      dup1\n      dup4\n      sload\n      div\n      mul\n      dup4\n      mstore\n      swap2\n      0x20\n      add\n      swap2\n      jump(tag_139)\n    tag_140:\n      dup3\n      add\n      swap2\n      swap1\n      0x00\n      mstore\n      keccak256(0x00, 0x20)\n      swap1\n    tag_141:\n      dup2\n      sload\n      dup2\n      mstore\n      swap1\n      0x01\n      add\n      swap1\n      0x20\n      add\n      dup1\n      dup4\n      gt\n      tag_141\n      jumpi\n      dup3\n      swap1\n      sub\n      0x1f\n      and\n      dup3\n      add\n      swap2\n    tag_139:\n      pop\n      pop\n      pop\n      pop\n      pop\n      dup2\n      jump\t// out\n        /* \"study_way/src/9day_thridToken.sol\":1076:1465  function transfer(address _to, uint256 _value) public returns (bool success) {... */\n    tag_57:\n        /* \"study_way/src/9day_thridToken.sol\":1139:1151  bool success */\n      0x00\n        /* \"study_way/src/9day_thridToken.sol\":1187:1188  0 */\n      dup1\n        /* \"study_way/src/9day_thridToken.sol\":1172:1189  _to != address(0) */\n      0xffffffffffffffffffffffffffffffffffffffff\n      and\n        /* \"study_way/src/9day_thridToken.sol\":1172:1175  _to */\n      dup4\n        /* \"study_way/src/9day_thridToken.sol\":1172:1189  _to != address(0) */\n      0xffffffffffffffffffffffffffffffffffffffff\n      and\n      sub\n        /* \"study_way/src/9day_thridToken.sol\":1164:1209  require(_to != address(0), \"Invalid Address\") */\n      tag_143\n      jumpi\n      mload(0x40)\n      0x08c379a000000000000000000000000000000000000000000000000000000000\n      dup2\n      mstore\n      0x04\n      add\n      tag_144\n      swap1\n      tag_75\n      jump\t// in\n    tag_144:\n      mload(0x40)\n      dup1\n      swap2\n      sub\n      swap1\n      revert\n    tag_143:\n        /* \"study_way/src/9day_thridToken.sol\":1252:1258  _value */\n      dup2\n        /* \"study_way/src/9day_thridToken.sol\":1228:1236  balances */\n      0x04\n        /* \"study_way/src/9day_thridToken.sol\":1228:1248  balances[msg.sender] */\n      0x00\n        /* \"study_way/src/9day_thridToken.sol\":1237:1247  msg.sender */\n      caller\n        /* \"study_way/src/9day_thridToken.sol\":1228:1248  balances[msg.sender] */\n      0xffffffffffffffffffffffffffffffffffffffff\n      and\n      0xffffffffffffffffffffffffffffffffffffffff\n      and\n      dup2\n      mstore\n      0x20\n      add\n      swap1\n      dup2\n      mstore\n      0x20\n      add\n      0x00\n      keccak256\n      sload\n        /* \"study_way/src/9day_thridToken.sol\":1228:1258  balances[msg.sender] >= _value */\n      lt\n      iszero\n        /* \"study_way/src/9day_thridToken.sol\":1220:1301  require(balances[msg.sender] >= _value, \"ERC20: transfer amount exceeds balance\") */\n      tag_145\n      jumpi\n      mload(0x40)\n      0x08c379a000000000000000000000000000000000000000000000000000000000\n      dup2\n      mstore\n      0x04\n      add\n      tag_146\n      swap1\n      tag_78\n      jump\t// in\n    tag_146:\n      mload(0x40)\n      dup1\n      swap2\n      sub\n      swap1\n      revert\n    tag_145:\n        /* \"study_way/src/9day_thridToken.sol\":1346:1352  _value */\n      dup2\n        /* \"study_way/src/9day_thridToken.sol\":1322:1330  balances */\n      0x04\n        /* \"study_way/src/9day_thridToken.sol\":1322:1342  balances[msg.sender] */\n      0x00\n        /* \"study_way/src/9day_thridToken.sol\":1331:1341  msg.sender */\n      caller\n        /* \"study_way/src/9day_thridToken.sol\":1322:1342  balances[msg.sender] */\n      0xffffffffffffffffffffffffffffffffffffffff\n      and\n      0xffffffffffffffffffffffffffffffffffffffff\n      and\n      dup2\n      mstore\n      0x20\n      add\n      swap1\n      dup2\n      mstore\n      0x20\n      add\n      0x00\n      keccak256\n      0x00\n        /* \"study_way/src/9day_thridToken.sol\":1322:1352  balances[msg.sender] -= _value */\n      dup3\n      dup3\n      sload\n      tag_147\n      swap2\n      swap1\n      tag_80\n      jump\t// in\n    tag_147:\n      swap3\n      pop\n      pop\n      dup2\n      swap1\n      sstore\n      pop\n        /* \"study_way/src/9day_thridToken.sol\":1380:1386  _value */\n      dup2\n        /* \"study_way/src/9day_thridToken.sol\":1363:1371  balances */\n      0x04\n        /* \"study_way/src/9day_thridToken.sol\":1363:1376  balances[_to] */\n      0x00\n        /* \"study_way/src/9day_thridToken.sol\":1372:1375  _to */\n      dup6\n        /* \"study_way/src/9day_thridToken.sol\":1363:1376  balances[_to] */\n      0xffffffffffffffffffffffffffffffffffffffff\n      and\n      0xffffffffffffffffffffffffffffffffffffffff\n      and\n      dup2\n      mstore\n      0x20\n      add\n      swap1\n      dup2\n      mstore\n      0x20\n      add\n      0x00\n      keccak256\n      0x00\n        /* \"study_way/src/9day_thridToken.sol\":1363:1386  balances[_to] += _value */\n      dup3\n      dup3\n      sload\n      tag_148\n      swap2\n      swap1\n      tag_82\n      jump\t// in\n    tag_148:\n      swap3\n      pop\n      pop\n      dup2\n      swap1\n      sstore\n      pop\n        /* \"study_way/src/9day_thridToken.sol\":1423:1426  _to */\n      dup3\n        /* \"study_way/src/9day_thridToken.sol\":1402:1435  Transfer(msg.sender, _to, _value) */\n      0xffffffffffffffffffffffffffffffffffffffff\n      and\n        /* \"study_way/src/9day_thridToken.sol\":1411:1421  msg.sender */\n      caller\n        /* \"study_way/src/9day_thridToken.sol\":1402:1435  Transfer(msg.sender, _to, _value) */\n      0xffffffffffffffffffffffffffffffffffffffff\n      and\n      0xddf252ad1be2c89b69c2b068fc378daa952ba7f163c4a11628f55a4df523b3ef\n        /* \"study_way/src/9day_thridToken.sol\":1428:1434  _value */\n      dup5\n        /* \"study_way/src/9day_thridToken.sol\":1402:1435  Transfer(msg.sender, _to, _value) */\n      mload(0x40)\n      tag_149\n      swap2\n      swap1\n      tag_28\n      jump\t// in\n    tag_149:\n      mload(0x40)\n      dup1\n      swap2\n      sub\n      swap1\n      log3\n        /* \"study_way/src/9day_thridToken.sol\":1453:1457  true */\n      0x01\n        /* \"study_way/src/9day_thridToken.sol\":1446:1457  return true */\n      swap1\n      pop\n        /* \"study_way/src/9day_thridToken.sol\":1076:1465  function transfer(address _to, uint256 _value) public returns (bool success) {... */\n      swap3\n      swap2\n      pop\n      pop\n      jump\t// out\n        /* \"study_way/src/9day_thridToken.sol\":3909:4056  function allowance(address _owner, address _spender) public view returns (uint256 remaining) {... */\n    tag_62:\n        /* \"study_way/src/9day_thridToken.sol\":3983:4000  uint256 remaining */\n      0x00\n        /* \"study_way/src/9day_thridToken.sol\":4020:4030  allowances */\n      0x05\n        /* \"study_way/src/9day_thridToken.sol\":4020:4038  allowances[_owner] */\n      0x00\n        /* \"study_way/src/9day_thridToken.sol\":4031:4037  _owner */\n      dup5\n        /* \"study_way/src/9day_thridToken.sol\":4020:4038  allowances[_owner] */\n      0xffffffffffffffffffffffffffffffffffffffff\n      and\n      0xffffffffffffffffffffffffffffffffffffffff\n      and\n      dup2\n      mstore\n      0x20\n      add\n      swap1\n      dup2\n      mstore\n      0x20\n      add\n      0x00\n      keccak256\n        /* \"study_way/src/9day_thridToken.sol\":4020:4048  allowances[_owner][_spender] */\n      0x00\n        /* \"study_way/src/9day_thridToken.sol\":4039:4047  _spender */\n      dup4\n        /* \"study_way/src/9day_thridToken.sol\":4020:4048  allowances[_owner][_spender] */\n      0xffffffffffffffffffffffffffffffffffffffff\n      and\n      0xffffffffffffffffffffffffffffffffffffffff\n      and\n      dup2\n      mstore\n      0x20\n      add\n      swap1\n      dup2\n      mstore\n      0x20\n      add\n      0x00\n      keccak256\n      sload\n        /* \"study_way/src/9day_thridToken.sol\":4013:4048  return allowances[_owner][_spender] */\n      swap1\n      pop\n        /* \"study_way/src/9day_thridToken.sol\":3909:4056  function allowance(address _owner, address _spender) public view returns (uint256 remaining) {... */\n      swap3\n      swap2\n      pop\n      pop\n      jump\t// out\n        /* \"study_way/src/utils/checkAddress.sol\":119:508  function isContract(address _addr) internal view returns (bool) {... */\n    tag_85:\n        /* \"study_way/src/utils/checkAddress.sol\":177:181  bool */\n      0x00\n        /* \"study_way/src/utils/checkAddress.sol\":194:205  uint32 size */\n      dup1\n        /* \"study_way/src/utils/checkAddress.sol\":369:374  _addr */\n      dup3\n        /* \"study_way/src/utils/checkAddress.sol\":357:375  extcodesize(_addr) */\n      extcodesize\n        /* \"study_way/src/utils/checkAddress.sol\":349:375  size := extcodesize(_addr) */\n      swap1\n      pop\n        /* \"study_way/src/utils/checkAddress.sol\":498:499  0 */\n      0x00\n        /* \"study_way/src/utils/checkAddress.sol\":491:495  size */\n      dup2\n        /* \"study_way/src/utils/checkAddress.sol\":491:499  size > 0 */\n      0xffffffff\n      and\n      gt\n        /* \"study_way/src/utils/checkAddress.sol\":483:500  return (size > 0) */\n      swap2\n      pop\n      pop\n        /* \"study_way/src/utils/checkAddress.sol\":119:508  function isContract(address _addr) internal view returns (bool) {... */\n      swap2\n      swap1\n      pop\n      jump\t// out\n        /* \"#utility.yul\":7:106   */\n    tag_152:\n        /* \"#utility.yul\":59:65   */\n      0x00\n        /* \"#utility.yul\":93:98   */\n      dup2\n        /* \"#utility.yul\":87:99   */\n      mload\n        /* \"#utility.yul\":77:99   */\n      swap1\n      pop\n        /* \"#utility.yul\":7:106   */\n      swap2\n      swap1\n      pop\n      jump\t// out\n        /* \"#utility.yul\":112:281   */\n    tag_153:\n        /* \"#utility.yul\":196:207   */\n      0x00\n        /* \"#utility.yul\":230:236   */\n      dup3\n        /* \"#utility.yul\":225:228   */\n      dup3\n        /* \"#utility.yul\":218:237   */\n      mstore\n        /* \"#utility.yul\":270:274   */\n      0x20\n        /* \"#utility.yul\":265:268   */\n      dup3\n        /* \"#utility.yul\":261:275   */\n      add\n        /* \"#utility.yul\":246:275   */\n      swap1\n      pop\n        /* \"#utility.yul\":112:281   */\n      swap3\n      swap2\n      pop\n      pop\n      jump\t// out\n        /* \"#utility.yul\":287:426   */\n    tag_154:\n        /* \"#utility.yul\":376:382   */\n      dup3\n        /* \"#utility.yul\":371:374   */\n      dup2\n        /* \"#utility.yul\":366:369   */\n      dup4\n        /* \"#utility.yul\":360:383   */\n      mcopy\n        /* \"#utility.yul\":417:418   */\n      0x00\n        /* \"#utility.yul\":408:414   */\n      dup4\n        /* \"#utility.yul\":403:406   */\n      dup4\n        /* \"#utility.yul\":399:415   */\n      add\n        /* \"#utility.yul\":392:419   */\n      mstore\n        /* \"#utility.yul\":287:426   */\n      pop\n      pop\n      pop\n      jump\t// out\n        /* \"#utility.yul\":432:534   */\n    tag_155:\n        /* \"#utility.yul\":473:479   */\n      0x00\n        /* \"#utility.yul\":524:526   */\n      0x1f\n        /* \"#utility.yul\":520:527   */\n      not\n        /* \"#utility.yul\":515:517   */\n      0x1f\n        /* \"#utility.yul\":508:513   */\n      dup4\n        /* \"#utility.yul\":504:518   */\n      add\n        /* \"#utility.yul\":500:528   */\n      and\n        /* \"#utility.yul\":490:528   */\n      swap1\n      pop\n        /* \"#utility.yul\":432:534   */\n      swap2\n      swap1\n      pop\n      jump\t// out\n        /* \"#utility.yul\":540:917   */\n    tag_156:\n        /* \"#utility.yul\":628:631   */\n      0x00\n        /* \"#utility.yul\":656:695   */\n      tag_203\n        /* \"#utility.yul\":689:694   */\n      dup3\n        /* \"#utility.yul\":656:695   */\n      tag_152\n      jump\t// in\n    tag_203:\n        /* \"#utility.yul\":711:782   */\n      tag_204\n        /* \"#utility.yul\":775:781   */\n      dup2\n        /* \"#utility.yul\":770:773   */\n      dup6\n        /* \"#utility.yul\":711:782   */\n      tag_153\n      jump\t// in\n    tag_204:\n        /* \"#utility.yul\":704:782   */\n      swap4\n      pop\n        /* \"#utility.yul\":791:856   */\n      tag_205\n        /* \"#utility.yul\":849:855   */\n      dup2\n        /* \"#utility.yul\":844:847   */\n      dup6\n        /* \"#utility.yul\":837:841   */\n      0x20\n        /* \"#utility.yul\":830:835   */\n      dup7\n        /* \"#utility.yul\":826:842   */\n      add\n        /* \"#utility.yul\":791:856   */\n      tag_154\n      jump\t// in\n    tag_205:\n        /* \"#utility.yul\":881:910   */\n      tag_206\n        /* \"#utility.yul\":903:909   */\n      dup2\n        /* \"#utility.yul\":881:910   */\n      tag_155\n      jump\t// in\n    tag_206:\n        /* \"#utility.yul\":876:879   */\n      dup5\n        /* \"#utility.yul\":872:911   */\n      add\n        /* \"#utility.yul\":865:911   */\n      swap2\n      pop\n        /* \"#utility.yul\":632:917   */\n      pop\n        /* \"#utility.yul\":540:917   */\n      swap3\n      swap2\n      pop\n      pop\n      jump\t// out\n        /* \"#utility.yul\":923:1236   */\n    tag_18:\n        /* \"#utility.yul\":1036:1040   */\n      0x00\n        /* \"#utility.yul\":1074:1076   */\n      0x20\n        /* \"#utility.yul\":1063:1072   */\n      dup3\n        /* \"#utility.yul\":1059:1077   */\n      add\n        /* \"#utility.yul\":1051:1077   */\n      swap1\n      pop\n        /* \"#utility.yul\":1123:1132   */\n      dup2\n        /* \"#utility.yul\":1117:1121   */\n      dup2\n        /* \"#utility.yul\":1113:1133   */\n      sub\n        /* \"#utility.yul\":1109:1110   */\n      0x00\n        /* \"#utility.yul\":1098:1107   */\n      dup4\n        /* \"#utility.yul\":1094:1111   */\n      add\n        /* \"#utility.yul\":1087:1134   */\n      mstore\n        /* \"#utility.yul\":1151:1229   */\n      tag_208\n        /* \"#utility.yul\":1224:1228   */\n      dup2\n        /* \"#utility.yul\":1215:1221   */\n      dup5\n        /* \"#utility.yul\":1151:1229   */\n      tag_156\n      jump\t// in\n    tag_208:\n        /* \"#utility.yul\":1143:1229   */\n      swap1\n      pop\n        /* \"#utility.yul\":923:1236   */\n      swap3\n      swap2\n      pop\n      pop\n      jump\t// out\n        /* \"#utility.yul\":1323:1440   */\n    tag_158:\n        /* \"#utility.yul\":1432:1433   */\n      0x00\n        /* \"#utility.yul\":1429:1430   */\n      dup1\n        /* \"#utility.yul\":1422:1434   */\n      revert\n        /* \"#utility.yul\":1446:1563   */\n    tag_159:\n        /* \"#utility.yul\":1555:1556   */\n      0x00\n        /* \"#utility.yul\":1552:1553   */\n      dup1\n        /* \"#utility.yul\":1545:1557   */\n      revert\n        /* \"#utility.yul\":1569:1695   */\n    tag_160:\n        /* \"#utility.yul\":1606:1613   */\n      0x00\n        /* \"#utility.yul\":1646:1688   */\n      0xffffffffffffffffffffffffffffffffffffffff\n        /* \"#utility.yul\":1639:1644   */\n      dup3\n        /* \"#utility.yul\":1635:1689   */\n      and\n        /* \"#utility.yul\":1624:1689   */\n      swap1\n      pop\n        /* \"#utility.yul\":1569:1695   */\n      swap2\n      swap1\n      pop\n      jump\t// out\n        /* \"#utility.yul\":1701:1797   */\n    tag_161:\n        /* \"#utility.yul\":1738:1745   */\n      0x00\n        /* \"#utility.yul\":1767:1791   */\n      tag_214\n        /* \"#utility.yul\":1785:1790   */\n      dup3\n        /* \"#utility.yul\":1767:1791   */\n      tag_160\n      jump\t// in\n    tag_214:\n        /* \"#utility.yul\":1756:1791   */\n      swap1\n      pop\n        /* \"#utility.yul\":1701:1797   */\n      swap2\n      swap1\n      pop\n      jump\t// out\n        /* \"#utility.yul\":1803:1925   */\n    tag_162:\n        /* \"#utility.yul\":1876:1900   */\n      tag_216\n        /* \"#utility.yul\":1894:1899   */\n      dup2\n        /* \"#utility.yul\":1876:1900   */\n      tag_161\n      jump\t// in\n    tag_216:\n        /* \"#utility.yul\":1869:1874   */\n      dup2\n        /* \"#utility.yul\":1866:1901   */\n      eq\n        /* \"#utility.yul\":1856:1919   */\n      tag_217\n      jumpi\n        /* \"#utility.yul\":1915:1916   */\n      0x00\n        /* \"#utility.yul\":1912:1913   */\n      dup1\n        /* \"#utility.yul\":1905:1917   */\n      revert\n        /* \"#utility.yul\":1856:1919   */\n    tag_217:\n        /* \"#utility.yul\":1803:1925   */\n      pop\n      jump\t// out\n        /* \"#utility.yul\":1931:2070   */\n    tag_163:\n        /* \"#utility.yul\":1977:1982   */\n      0x00\n        /* \"#utility.yul\":2015:2021   */\n      dup2\n        /* \"#utility.yul\":2002:2022   */\n      calldataload\n        /* \"#utility.yul\":1993:2022   */\n      swap1\n      pop\n        /* \"#utility.yul\":2031:2064   */\n      tag_219\n        /* \"#utility.yul\":2058:2063   */\n      dup2\n        /* \"#utility.yul\":2031:2064   */\n      tag_162\n      jump\t// in\n    tag_219:\n        /* \"#utility.yul\":1931:2070   */\n      swap3\n      swap2\n      pop\n      pop\n      jump\t// out\n        /* \"#utility.yul\":2076:2153   */\n    tag_164:\n        /* \"#utility.yul\":2113:2120   */\n      0x00\n        /* \"#utility.yul\":2142:2147   */\n      dup2\n        /* \"#utility.yul\":2131:2147   */\n      swap1\n      pop\n        /* \"#utility.yul\":2076:2153   */\n      swap2\n      swap1\n      pop\n      jump\t// out\n        /* \"#utility.yul\":2159:2281   */\n    tag_165:\n        /* \"#utility.yul\":2232:2256   */\n      tag_222\n        /* \"#utility.yul\":2250:2255   */\n      dup2\n        /* \"#utility.yul\":2232:2256   */\n      tag_164\n      jump\t// in\n    tag_222:\n        /* \"#utility.yul\":2225:2230   */\n      dup2\n        /* \"#utility.yul\":2222:2257   */\n      eq\n        /* \"#utility.yul\":2212:2275   */\n      tag_223\n      jumpi\n        /* \"#utility.yul\":2271:2272   */\n      0x00\n        /* \"#utility.yul\":2268:2269   */\n      dup1\n        /* \"#utility.yul\":2261:2273   */\n      revert\n        /* \"#utility.yul\":2212:2275   */\n    tag_223:\n        /* \"#utility.yul\":2159:2281   */\n      pop\n      jump\t// out\n        /* \"#utility.yul\":2287:2426   */\n    tag_166:\n        /* \"#utility.yul\":2333:2338   */\n      0x00\n        /* \"#utility.yul\":2371:2377   */\n      dup2\n        /* \"#utility.yul\":2358:2378   */\n      calldataload\n        /* \"#utility.yul\":2349:2378   */\n      swap1\n      pop\n        /* \"#utility.yul\":2387:2420   */\n      tag_225\n        /* \"#utility.yul\":2414:2419   */\n      dup2\n        /* \"#utility.yul\":2387:2420   */\n      tag_165\n      jump\t// in\n    tag_225:\n        /* \"#utility.yul\":2287:2426   */\n      swap3\n      swap2\n      pop\n      pop\n      jump\t// out\n        /* \"#utility.yul\":2432:2906   */\n    tag_21:\n        /* \"#utility.yul\":2500:2506   */\n      0x00\n        /* \"#utility.yul\":2508:2514   */\n      dup1\n        /* \"#utility.yul\":2557:2559   */\n      0x40\n        /* \"#utility.yul\":2545:2554   */\n      dup4\n        /* \"#utility.yul\":2536:2543   */\n      dup6\n        /* \"#utility.yul\":2532:2555   */\n      sub\n        /* \"#utility.yul\":2528:2560   */\n      slt\n        /* \"#utility.yul\":2525:2644   */\n      iszero\n      tag_227\n      jumpi\n        /* \"#utility.yul\":2563:2642   */\n      tag_228\n      tag_158\n      jump\t// in\n    tag_228:\n        /* \"#utility.yul\":2525:2644   */\n    tag_227:\n        /* \"#utility.yul\":2683:2684   */\n      0x00\n        /* \"#utility.yul\":2708:2761   */\n      tag_229\n        /* \"#utility.yul\":2753:2760   */\n      dup6\n        /* \"#utility.yul\":2744:2750   */\n      dup3\n        /* \"#utility.yul\":2733:2742   */\n      dup7\n        /* \"#utility.yul\":2729:2751   */\n      add\n        /* \"#utility.yul\":2708:2761   */\n      tag_163\n      jump\t// in\n    tag_229:\n        /* \"#utility.yul\":2698:2761   */\n      swap3\n      pop\n        /* \"#utility.yul\":2654:2771   */\n      pop\n        /* \"#utility.yul\":2810:2812   */\n      0x20\n        /* \"#utility.yul\":2836:2889   */\n      tag_230\n        /* \"#utility.yul\":2881:2888   */\n      dup6\n        /* \"#utility.yul\":2872:2878   */\n      dup3\n        /* \"#utility.yul\":2861:2870   */\n      dup7\n        /* \"#utility.yul\":2857:2879   */\n      add\n        /* \"#utility.yul\":2836:2889   */\n      tag_166\n      jump\t// in\n    tag_230:\n        /* \"#utility.yul\":2826:2889   */\n      swap2\n      pop\n        /* \"#utility.yul\":2781:2899   */\n      pop\n        /* \"#utility.yul\":2432:2906   */\n      swap3\n      pop\n      swap3\n      swap1\n      pop\n      jump\t// out\n        /* \"#utility.yul\":2912:3002   */\n    tag_167:\n        /* \"#utility.yul\":2946:2953   */\n      0x00\n        /* \"#utility.yul\":2989:2994   */\n      dup2\n        /* \"#utility.yul\":2982:2995   */\n      iszero\n        /* \"#utility.yul\":2975:2996   */\n      iszero\n        /* \"#utility.yul\":2964:2996   */\n      swap1\n      pop\n        /* \"#utility.yul\":2912:3002   */\n      swap2\n      swap1\n      pop\n      jump\t// out\n        /* \"#utility.yul\":3008:3117   */\n    tag_168:\n        /* \"#utility.yul\":3089:3110   */\n      tag_233\n        /* \"#utility.yul\":3104:3109   */\n      dup2\n        /* \"#utility.yul\":3089:3110   */\n      tag_167\n      jump\t// in\n    tag_233:\n        /* \"#utility.yul\":3084:3087   */\n      dup3\n        /* \"#utility.yul\":3077:3111   */\n      mstore\n        /* \"#utility.yul\":3008:3117   */\n      pop\n      pop\n      jump\t// out\n        /* \"#utility.yul\":3123:3333   */\n    tag_24:\n        /* \"#utility.yul\":3210:3214   */\n      0x00\n        /* \"#utility.yul\":3248:3250   */\n      0x20\n        /* \"#utility.yul\":3237:3246   */\n      dup3\n        /* \"#utility.yul\":3233:3251   */\n      add\n        /* \"#utility.yul\":3225:3251   */\n      swap1\n      pop\n        /* \"#utility.yul\":3261:3326   */\n      tag_235\n        /* \"#utility.yul\":3323:3324   */\n      0x00\n        /* \"#utility.yul\":3312:3321   */\n      dup4\n        /* \"#utility.yul\":3308:3325   */\n      add\n        /* \"#utility.yul\":3299:3305   */\n      dup5\n        /* \"#utility.yul\":3261:3326   */\n      tag_168\n      jump\t// in\n    tag_235:\n        /* \"#utility.yul\":3123:3333   */\n      swap3\n      swap2\n      pop\n      pop\n      jump\t// out\n        /* \"#utility.yul\":3339:3457   */\n    tag_169:\n        /* \"#utility.yul\":3426:3450   */\n      tag_237\n        /* \"#utility.yul\":3444:3449   */\n      dup2\n        /* \"#utility.yul\":3426:3450   */\n      tag_164\n      jump\t// in\n    tag_237:\n        /* \"#utility.yul\":3421:3424   */\n      dup3\n        /* \"#utility.yul\":3414:3451   */\n      mstore\n        /* \"#utility.yul\":3339:3457   */\n      pop\n      pop\n      jump\t// out\n        /* \"#utility.yul\":3463:3685   */\n    tag_28:\n        /* \"#utility.yul\":3556:3560   */\n      0x00\n        /* \"#utility.yul\":3594:3596   */\n      0x20\n        /* \"#utility.yul\":3583:3592   */\n      dup3\n        /* \"#utility.yul\":3579:3597   */\n      add\n        /* \"#utility.yul\":3571:3597   */\n      swap1\n      pop\n        /* \"#utility.yul\":3607:3678   */\n      tag_239\n        /* \"#utility.yul\":3675:3676   */\n      0x00\n        /* \"#utility.yul\":3664:3673   */\n      dup4\n        /* \"#utility.yul\":3660:3677   */\n      add\n        /* \"#utility.yul\":3651:3657   */\n      dup5\n        /* \"#utility.yul\":3607:3678   */\n      tag_169\n      jump\t// in\n    tag_239:\n        /* \"#utility.yul\":3463:3685   */\n      swap3\n      swap2\n      pop\n      pop\n      jump\t// out\n        /* \"#utility.yul\":3691:4310   */\n    tag_35:\n        /* \"#utility.yul\":3768:3774   */\n      0x00\n        /* \"#utility.yul\":3776:3782   */\n      dup1\n        /* \"#utility.yul\":3784:3790   */\n      0x00\n        /* \"#utility.yul\":3833:3835   */\n      0x60\n        /* \"#utility.yul\":3821:3830   */\n      dup5\n        /* \"#utility.yul\":3812:3819   */\n      dup7\n        /* \"#utility.yul\":3808:3831   */\n      sub\n        /* \"#utility.yul\":3804:3836   */\n      slt\n        /* \"#utility.yul\":3801:3920   */\n      iszero\n      tag_241\n      jumpi\n        /* \"#utility.yul\":3839:3918   */\n      tag_242\n      tag_158\n      jump\t// in\n    tag_242:\n        /* \"#utility.yul\":3801:3920   */\n    tag_241:\n        /* \"#utility.yul\":3959:3960   */\n      0x00\n        /* \"#utility.yul\":3984:4037   */\n      tag_243\n        /* \"#utility.yul\":4029:4036   */\n      dup7\n        /* \"#utility.yul\":4020:4026   */\n      dup3\n        /* \"#utility.yul\":4009:4018   */\n      dup8\n        /* \"#utility.yul\":4005:4027   */\n      add\n        /* \"#utility.yul\":3984:4037   */\n      tag_163\n      jump\t// in\n    tag_243:\n        /* \"#utility.yul\":3974:4037   */\n      swap4\n      pop\n        /* \"#utility.yul\":3930:4047   */\n      pop\n        /* \"#utility.yul\":4086:4088   */\n      0x20\n        /* \"#utility.yul\":4112:4165   */\n      tag_244\n        /* \"#utility.yul\":4157:4164   */\n      dup7\n        /* \"#utility.yul\":4148:4154   */\n      dup3\n        /* \"#utility.yul\":4137:4146   */\n      dup8\n        /* \"#utility.yul\":4133:4155   */\n      add\n        /* \"#utility.yul\":4112:4165   */\n      tag_163\n      jump\t// in\n    tag_244:\n        /* \"#utility.yul\":4102:4165   */\n      swap3\n      pop\n        /* \"#utility.yul\":4057:4175   */\n      pop\n        /* \"#utility.yul\":4214:4216   */\n      0x40\n        /* \"#utility.yul\":4240:4293   */\n      tag_245\n        /* \"#utility.yul\":4285:4292   */\n      dup7\n        /* \"#utility.yul\":4276:4282   */\n      dup3\n        /* \"#utility.yul\":4265:4274   */\n      dup8\n        /* \"#utility.yul\":4261:4283   */\n      add\n        /* \"#utility.yul\":4240:4293   */\n      tag_166\n      jump\t// in\n    tag_245:\n        /* \"#utility.yul\":4230:4293   */\n      swap2\n      pop\n        /* \"#utility.yul\":4185:4303   */\n      pop\n        /* \"#utility.yul\":3691:4310   */\n      swap3\n      pop\n      swap3\n      pop\n      swap3\n      jump\t// out\n        /* \"#utility.yul\":4316:4433   */\n    tag_170:\n        /* \"#utility.yul\":4425:4426   */\n      0x00\n        /* \"#utility.yul\":4422:4423   */\n      dup1\n        /* \"#utility.yul\":4415:4427   */\n      revert\n        /* \"#utility.yul\":4439:4556   */\n    tag_171:\n        /* \"#utility.yul\":4548:4549   */\n      0x00\n        /* \"#utility.yul\":4545:4546   */\n      dup1\n        /* \"#utility.yul\":4538:4550   */\n      revert\n        /* \"#utility.yul\":4562:4679   */\n    tag_172:\n        /* \"#utility.yul\":4671:4672   */\n      0x00\n        /* \"#utility.yul\":4668:4669   */\n      dup1\n        /* \"#utility.yul\":4661:4673   */\n      revert\n        /* \"#utility.yul\":4698:5250   */\n    tag_173:\n        /* \"#utility.yul\":4755:4763   */\n      0x00\n        /* \"#utility.yul\":4765:4771   */\n      dup1\n        /* \"#utility.yul\":4815:4818   */\n      dup4\n        /* \"#utility.yul\":4808:4812   */\n      0x1f\n        /* \"#utility.yul\":4800:4806   */\n      dup5\n        /* \"#utility.yul\":4796:4813   */\n      add\n        /* \"#utility.yul\":4792:4819   */\n      slt\n        /* \"#utility.yul\":4782:4904   */\n      tag_250\n      jumpi\n        /* \"#utility.yul\":4823:4902   */\n      tag_251\n      tag_170\n      jump\t// in\n    tag_251:\n        /* \"#utility.yul\":4782:4904   */\n    tag_250:\n        /* \"#utility.yul\":4936:4942   */\n      dup3\n        /* \"#utility.yul\":4923:4943   */\n      calldataload\n        /* \"#utility.yul\":4913:4943   */\n      swap1\n      pop\n        /* \"#utility.yul\":4966:4984   */\n      0xffffffffffffffff\n        /* \"#utility.yul\":4958:4964   */\n      dup2\n        /* \"#utility.yul\":4955:4985   */\n      gt\n        /* \"#utility.yul\":4952:5069   */\n      iszero\n      tag_252\n      jumpi\n        /* \"#utility.yul\":4988:5067   */\n      tag_253\n      tag_171\n      jump\t// in\n    tag_253:\n        /* \"#utility.yul\":4952:5069   */\n    tag_252:\n        /* \"#utility.yul\":5102:5106   */\n      0x20\n        /* \"#utility.yul\":5094:5100   */\n      dup4\n        /* \"#utility.yul\":5090:5107   */\n      add\n        /* \"#utility.yul\":5078:5107   */\n      swap2\n      pop\n        /* \"#utility.yul\":5156:5159   */\n      dup4\n        /* \"#utility.yul\":5148:5152   */\n      0x01\n        /* \"#utility.yul\":5140:5146   */\n      dup3\n        /* \"#utility.yul\":5136:5153   */\n      mul\n        /* \"#utility.yul\":5126:5134   */\n      dup4\n        /* \"#utility.yul\":5122:5154   */\n      add\n        /* \"#utility.yul\":5119:5160   */\n      gt\n        /* \"#utility.yul\":5116:5244   */\n      iszero\n      tag_254\n      jumpi\n        /* \"#utility.yul\":5163:5242   */\n      tag_255\n      tag_172\n      jump\t// in\n    tag_255:\n        /* \"#utility.yul\":5116:5244   */\n    tag_254:\n        /* \"#utility.yul\":4698:5250   */\n      swap3\n      pop\n      swap3\n      swap1\n      pop\n      jump\t// out\n        /* \"#utility.yul\":5256:6073   */\n    tag_40:\n        /* \"#utility.yul\":5344:5350   */\n      0x00\n        /* \"#utility.yul\":5352:5358   */\n      dup1\n        /* \"#utility.yul\":5360:5366   */\n      0x00\n        /* \"#utility.yul\":5368:5374   */\n      dup1\n        /* \"#utility.yul\":5417:5419   */\n      0x60\n        /* \"#utility.yul\":5405:5414   */\n      dup6\n        /* \"#utility.yul\":5396:5403   */\n      dup8\n        /* \"#utility.yul\":5392:5415   */\n      sub\n        /* \"#utility.yul\":5388:5420   */\n      slt\n        /* \"#utility.yul\":5385:5504   */\n      iszero\n      tag_257\n      jumpi\n        /* \"#utility.yul\":5423:5502   */\n      tag_258\n      tag_158\n      jump\t// in\n    tag_258:\n        /* \"#utility.yul\":5385:5504   */\n    tag_257:\n        /* \"#utility.yul\":5543:5544   */\n      0x00\n        /* \"#utility.yul\":5568:5621   */\n      tag_259\n        /* \"#utility.yul\":5613:5620   */\n      dup8\n        /* \"#utility.yul\":5604:5610   */\n      dup3\n        /* \"#utility.yul\":5593:5602   */\n      dup9\n        /* \"#utility.yul\":5589:5611   */\n      add\n        /* \"#utility.yul\":5568:5621   */\n      tag_163\n      jump\t// in\n    tag_259:\n        /* \"#utility.yul\":5558:5621   */\n      swap5\n      pop\n        /* \"#utility.yul\":5514:5631   */\n      pop\n        /* \"#utility.yul\":5670:5672   */\n      0x20\n        /* \"#utility.yul\":5696:5749   */\n      tag_260\n        /* \"#utility.yul\":5741:5748   */\n      dup8\n        /* \"#utility.yul\":5732:5738   */\n      dup3\n        /* \"#utility.yul\":5721:5730   */\n      dup9\n        /* \"#utility.yul\":5717:5739   */\n      add\n        /* \"#utility.yul\":5696:5749   */\n      tag_166\n      jump\t// in\n    tag_260:\n        /* \"#utility.yul\":5686:5749   */\n      swap4\n      pop\n        /* \"#utility.yul\":5641:5759   */\n      pop\n        /* \"#utility.yul\":5826:5828   */\n      0x40\n        /* \"#utility.yul\":5815:5824   */\n      dup6\n        /* \"#utility.yul\":5811:5829   */\n      add\n        /* \"#utility.yul\":5798:5830   */\n      calldataload\n        /* \"#utility.yul\":5857:5875   */\n      0xffffffffffffffff\n        /* \"#utility.yul\":5849:5855   */\n      dup2\n        /* \"#utility.yul\":5846:5876   */\n      gt\n        /* \"#utility.yul\":5843:5960   */\n      iszero\n      tag_261\n      jumpi\n        /* \"#utility.yul\":5879:5958   */\n      tag_262\n      tag_159\n      jump\t// in\n    tag_262:\n        /* \"#utility.yul\":5843:5960   */\n    tag_261:\n        /* \"#utility.yul\":5992:6056   */\n      tag_263\n        /* \"#utility.yul\":6048:6055   */\n      dup8\n        /* \"#utility.yul\":6039:6045   */\n      dup3\n        /* \"#utility.yul\":6028:6037   */\n      dup9\n        /* \"#utility.yul\":6024:6046   */\n      add\n        /* \"#utility.yul\":5992:6056   */\n      tag_173\n      jump\t// in\n    tag_263:\n        /* \"#utility.yul\":5974:6056   */\n      swap3\n      pop\n      swap3\n      pop\n        /* \"#utility.yul\":5769:6066   */\n      pop\n        /* \"#utility.yul\":5256:6073   */\n      swap3\n      swap6\n      swap2\n      swap5\n      pop\n      swap3\n      pop\n      jump\t// out\n        /* \"#utility.yul\":6079:6165   */\n    tag_174:\n        /* \"#utility.yul\":6114:6121   */\n      0x00\n        /* \"#utility.yul\":6154:6158   */\n      0xff\n        /* \"#utility.yul\":6147:6152   */\n      dup3\n        /* \"#utility.yul\":6143:6159   */\n      and\n        /* \"#utility.yul\":6132:6159   */\n      swap1\n      pop\n        /* \"#utility.yul\":6079:6165   */\n      swap2\n      swap1\n      pop\n      jump\t// out\n        /* \"#utility.yul\":6171:6283   */\n    tag_175:\n        /* \"#utility.yul\":6254:6276   */\n      tag_266\n        /* \"#utility.yul\":6270:6275   */\n      dup2\n        /* \"#utility.yul\":6254:6276   */\n      tag_174\n      jump\t// in\n    tag_266:\n        /* \"#utility.yul\":6249:6252   */\n      dup3\n        /* \"#utility.yul\":6242:6277   */\n      mstore\n        /* \"#utility.yul\":6171:6283   */\n      pop\n      pop\n      jump\t// out\n        /* \"#utility.yul\":6289:6503   */\n    tag_46:\n        /* \"#utility.yul\":6378:6382   */\n      0x00\n        /* \"#utility.yul\":6416:6418   */\n      0x20\n        /* \"#utility.yul\":6405:6414   */\n      dup3\n        /* \"#utility.yul\":6401:6419   */\n      add\n        /* \"#utility.yul\":6393:6419   */\n      swap1\n      pop\n        /* \"#utility.yul\":6429:6496   */\n      tag_268\n        /* \"#utility.yul\":6493:6494   */\n      0x00\n        /* \"#utility.yul\":6482:6491   */\n      dup4\n        /* \"#utility.yul\":6478:6495   */\n      add\n        /* \"#utility.yul\":6469:6475   */\n      dup5\n        /* \"#utility.yul\":6429:6496   */\n      tag_175\n      jump\t// in\n    tag_268:\n        /* \"#utility.yul\":6289:6503   */\n      swap3\n      swap2\n      pop\n      pop\n      jump\t// out\n        /* \"#utility.yul\":6509:6838   */\n    tag_49:\n        /* \"#utility.yul\":6568:6574   */\n      0x00\n        /* \"#utility.yul\":6617:6619   */\n      0x20\n        /* \"#utility.yul\":6605:6614   */\n      dup3\n        /* \"#utility.yul\":6596:6603   */\n      dup5\n        /* \"#utility.yul\":6592:6615   */\n      sub\n        /* \"#utility.yul\":6588:6620   */\n      slt\n        /* \"#utility.yul\":6585:6704   */\n      iszero\n      tag_270\n      jumpi\n        /* \"#utility.yul\":6623:6702   */\n      tag_271\n      tag_158\n      jump\t// in\n    tag_271:\n        /* \"#utility.yul\":6585:6704   */\n    tag_270:\n        /* \"#utility.yul\":6743:6744   */\n      0x00\n        /* \"#utility.yul\":6768:6821   */\n      tag_272\n        /* \"#utility.yul\":6813:6820   */\n      dup5\n        /* \"#utility.yul\":6804:6810   */\n      dup3\n        /* \"#utility.yul\":6793:6802   */\n      dup6\n        /* \"#utility.yul\":6789:6811   */\n      add\n        /* \"#utility.yul\":6768:6821   */\n      tag_163\n      jump\t// in\n    tag_272:\n        /* \"#utility.yul\":6758:6821   */\n      swap2\n      pop\n        /* \"#utility.yul\":6714:6831   */\n      pop\n        /* \"#utility.yul\":6509:6838   */\n      swap3\n      swap2\n      pop\n      pop\n      jump\t// out\n        /* \"#utility.yul\":6844:7318   */\n    tag_61:\n        /* \"#utility.yul\":6912:6918   */\n      0x00\n        /* \"#utility.yul\":6920:6926   */\n      dup1\n        /* \"#utility.yul\":6969:6971   */\n      0x40\n        /* \"#utility.yul\":6957:6966   */\n      dup4\n        /* \"#utility.yul\":6948:6955   */\n      dup6\n        /* \"#utility.yul\":6944:6967   */\n      sub\n        /* \"#utility.yul\":6940:6972   */\n      slt\n        /* \"#utility.yul\":6937:7056   */\n      iszero\n      tag_274\n      jumpi\n        /* \"#utility.yul\":6975:7054   */\n      tag_275\n      tag_158\n      jump\t// in\n    tag_275:\n        /* \"#utility.yul\":6937:7056   */\n    tag_274:\n        /* \"#utility.yul\":7095:7096   */\n      0x00\n        /* \"#utility.yul\":7120:7173   */\n      tag_276\n        /* \"#utility.yul\":7165:7172   */\n      dup6\n        /* \"#utility.yul\":7156:7162   */\n      dup3\n        /* \"#utility.yul\":7145:7154   */\n      dup7\n        /* \"#utility.yul\":7141:7163   */\n      add\n        /* \"#utility.yul\":7120:7173   */\n      tag_163\n      jump\t// in\n    tag_276:\n        /* \"#utility.yul\":7110:7173   */\n      swap3\n      pop\n        /* \"#utility.yul\":7066:7183   */\n      pop\n        /* \"#utility.yul\":7222:7224   */\n      0x20\n        /* \"#utility.yul\":7248:7301   */\n      tag_277\n        /* \"#utility.yul\":7293:7300   */\n      dup6\n        /* \"#utility.yul\":7284:7290   */\n      dup3\n        /* \"#utility.yul\":7273:7282   */\n      dup7\n        /* \"#utility.yul\":7269:7291   */\n      add\n        /* \"#utility.yul\":7248:7301   */\n      tag_163\n      jump\t// in\n    tag_277:\n        /* \"#utility.yul\":7238:7301   */\n      swap2\n      pop\n        /* \"#utility.yul\":7193:7311   */\n      pop\n        /* \"#utility.yul\":6844:7318   */\n      swap3\n      pop\n      swap3\n      swap1\n      pop\n      jump\t// out\n        /* \"#utility.yul\":7324:7504   */\n    tag_176:\n        /* \"#utility.yul\":7372:7449   */\n      0x4e487b7100000000000000000000000000000000000000000000000000000000\n        /* \"#utility.yul\":7369:7370   */\n      0x00\n        /* \"#utility.yul\":7362:7450   */\n      mstore\n        /* \"#utility.yul\":7469:7473   */\n      0x22\n        /* \"#utility.yul\":7466:7467   */\n      0x04\n        /* \"#utility.yul\":7459:7474   */\n      mstore\n        /* \"#utility.yul\":7493:7497   */\n      0x24\n        /* \"#utility.yul\":7490:7491   */\n      0x00\n        /* \"#utility.yul\":7483:7498   */\n      revert\n        /* \"#utility.yul\":7510:7830   */\n    tag_65:\n        /* \"#utility.yul\":7554:7560   */\n      0x00\n        /* \"#utility.yul\":7591:7592   */\n      0x02\n        /* \"#utility.yul\":7585:7589   */\n      dup3\n        /* \"#utility.yul\":7581:7593   */\n      div\n        /* \"#utility.yul\":7571:7593   */\n      swap1\n      pop\n        /* \"#utility.yul\":7638:7639   */\n      0x01\n        /* \"#utility.yul\":7632:7636   */\n      dup3\n        /* \"#utility.yul\":7628:7640   */\n      and\n        /* \"#utility.yul\":7659:7677   */\n      dup1\n        /* \"#utility.yul\":7649:7730   */\n      tag_280\n      jumpi\n        /* \"#utility.yul\":7715:7719   */\n      0x7f\n        /* \"#utility.yul\":7707:7713   */\n      dup3\n        /* \"#utility.yul\":7703:7720   */\n      and\n        /* \"#utility.yul\":7693:7720   */\n      swap2\n      pop\n        /* \"#utility.yul\":7649:7730   */\n    tag_280:\n        /* \"#utility.yul\":7777:7779   */\n      0x20\n        /* \"#utility.yul\":7769:7775   */\n      dup3\n        /* \"#utility.yul\":7766:7780   */\n      lt\n        /* \"#utility.yul\":7746:7764   */\n      dup2\n        /* \"#utility.yul\":7743:7781   */\n      sub\n        /* \"#utility.yul\":7740:7824   */\n      tag_281\n      jumpi\n        /* \"#utility.yul\":7796:7814   */\n      tag_282\n      tag_176\n      jump\t// in\n    tag_282:\n        /* \"#utility.yul\":7740:7824   */\n    tag_281:\n        /* \"#utility.yul\":7561:7830   */\n      pop\n        /* \"#utility.yul\":7510:7830   */\n      swap2\n      swap1\n      pop\n      jump\t// out\n        /* \"#utility.yul\":7836:8001   */\n    tag_177:\n        /* \"#utility.yul\":7976:7993   */\n      0x496e76616c696420416464726573730000000000000000000000000000000000\n        /* \"#utility.yul\":7972:7973   */\n      0x00\n        /* \"#utility.yul\":7964:7970   */\n      dup3\n        /* \"#utility.yul\":7960:7974   */\n      add\n        /* \"#utility.yul\":7953:7994   */\n      mstore\n        /* \"#utility.yul\":7836:8001   */\n      pop\n      jump\t// out\n        /* \"#utility.yul\":8007:8373   */\n    tag_178:\n        /* \"#utility.yul\":8149:8152   */\n      0x00\n        /* \"#utility.yul\":8170:8237   */\n      tag_285\n        /* \"#utility.yul\":8234:8236   */\n      0x0f\n        /* \"#utility.yul\":8229:8232   */\n      dup4\n        /* \"#utility.yul\":8170:8237   */\n      tag_153\n      jump\t// in\n    tag_285:\n        /* \"#utility.yul\":8163:8237   */\n      swap2\n      pop\n        /* \"#utility.yul\":8246:8339   */\n      tag_286\n        /* \"#utility.yul\":8335:8338   */\n      dup3\n        /* \"#utility.yul\":8246:8339   */\n      tag_177\n      jump\t// in\n    tag_286:\n        /* \"#utility.yul\":8364:8366   */\n      0x20\n        /* \"#utility.yul\":8359:8362   */\n      dup3\n        /* \"#utility.yul\":8355:8367   */\n      add\n        /* \"#utility.yul\":8348:8367   */\n      swap1\n      pop\n        /* \"#utility.yul\":8007:8373   */\n      swap2\n      swap1\n      pop\n      jump\t// out\n        /* \"#utility.yul\":8379:8798   */\n    tag_75:\n        /* \"#utility.yul\":8545:8549   */\n      0x00\n        /* \"#utility.yul\":8583:8585   */\n      0x20\n        /* \"#utility.yul\":8572:8581   */\n      dup3\n        /* \"#utility.yul\":8568:8586   */\n      add\n        /* \"#utility.yul\":8560:8586   */\n      swap1\n      pop\n        /* \"#utility.yul\":8632:8641   */\n      dup2\n        /* \"#utility.yul\":8626:8630   */\n      dup2\n        /* \"#utility.yul\":8622:8642   */\n      sub\n        /* \"#utility.yul\":8618:8619   */\n      0x00\n        /* \"#utility.yul\":8607:8616   */\n      dup4\n        /* \"#utility.yul\":8603:8620   */\n      add\n        /* \"#utility.yul\":8596:8643   */\n      mstore\n        /* \"#utility.yul\":8660:8791   */\n      tag_288\n        /* \"#utility.yul\":8786:8790   */\n      dup2\n        /* \"#utility.yul\":8660:8791   */\n      tag_178\n      jump\t// in\n    tag_288:\n        /* \"#utility.yul\":8652:8791   */\n      swap1\n      pop\n        /* \"#utility.yul\":8379:8798   */\n      swap2\n      swap1\n      pop\n      jump\t// out\n        /* \"#utility.yul\":8804:9029   */\n    tag_179:\n        /* \"#utility.yul\":8944:8978   */\n      0x45524332303a207472616e7366657220616d6f756e7420657863656564732062\n        /* \"#utility.yul\":8940:8941   */\n      0x00\n        /* \"#utility.yul\":8932:8938   */\n      dup3\n        /* \"#utility.yul\":8928:8942   */\n      add\n        /* \"#utility.yul\":8921:8979   */\n      mstore\n        /* \"#utility.yul\":9013:9021   */\n      0x616c616e63650000000000000000000000000000000000000000000000000000\n        /* \"#utility.yul\":9008:9010   */\n      0x20\n        /* \"#utility.yul\":9000:9006   */\n      dup3\n        /* \"#utility.yul\":8996:9011   */\n      add\n        /* \"#utility.yul\":8989:9022   */\n      mstore\n        /* \"#utility.yul\":8804:9029   */\n      pop\n      jump\t// out\n        /* \"#utility.yul\":9035:9401   */\n    tag_180:\n        /* \"#utility.yul\":9177:9180   */\n      0x00\n        /* \"#utility.yul\":9198:9265   */\n      tag_291\n        /* \"#utility.yul\":9262:9264   */\n      0x26\n        /* \"#utility.yul\":9257:9260   */\n      dup4\n        /* \"#utility.yul\":9198:9265   */\n      tag_153\n      jump\t// in\n    tag_291:\n        /* \"#utility.yul\":9191:9265   */\n      swap2\n      pop\n        /* \"#utility.yul\":9274:9367   */\n      tag_292\n        /* \"#utility.yul\":9363:9366   */\n      dup3\n        /* \"#utility.yul\":9274:9367   */\n      tag_179\n      jump\t// in\n    tag_292:\n        /* \"#utility.yul\":9392:9394   */\n      0x40\n        /* \"#utility.yul\":9387:9390   */\n      dup3\n        /* \"#utility.yul\":9383:9395   */\n      add\n        /* \"#utility.yul\":9376:9395   */\n      swap1\n      pop\n        /* \"#utility.yul\":9035:9401   */\n      swap2\n      swap1\n      pop\n      jump\t// out\n        /* \"#utility.yul\":9407:9826   */\n    tag_78:\n        /* \"#utility.yul\":9573:9577   */\n      0x00\n        /* \"#utility.yul\":9611:9613   */\n      0x20\n        /* \"#utility.yul\":9600:9609   */\n      dup3\n        /* \"#utility.yul\":9596:9614   */\n      add\n        /* \"#utility.yul\":9588:9614   */\n      swap1\n      pop\n        /* \"#utility.yul\":9660:9669   */\n      dup2\n        /* \"#utility.yul\":9654:9658   */\n      dup2\n        /* \"#utility.yul\":9650:9670   */\n      sub\n        /* \"#utility.yul\":9646:9647   */\n      0x00\n        /* \"#utility.yul\":9635:9644   */\n      dup4\n        /* \"#utility.yul\":9631:9648   */\n      add\n        /* \"#utility.yul\":9624:9671   */\n      mstore\n        /* \"#utility.yul\":9688:9819   */\n      tag_294\n        /* \"#utility.yul\":9814:9818   */\n      dup2\n        /* \"#utility.yul\":9688:9819   */\n      tag_180\n      jump\t// in\n    tag_294:\n        /* \"#utility.yul\":9680:9819   */\n      swap1\n      pop\n        /* \"#utility.yul\":9407:9826   */\n      swap2\n      swap1\n      pop\n      jump\t// out\n        /* \"#utility.yul\":9832:10012   */\n    tag_181:\n        /* \"#utility.yul\":9880:9957   */\n      0x4e487b7100000000000000000000000000000000000000000000000000000000\n        /* \"#utility.yul\":9877:9878   */\n      0x00\n        /* \"#utility.yul\":9870:9958   */\n      mstore\n        /* \"#utility.yul\":9977:9981   */\n      0x11\n        /* \"#utility.yul\":9974:9975   */\n      0x04\n        /* \"#utility.yul\":9967:9982   */\n      mstore\n        /* \"#utility.yul\":10001:10005   */\n      0x24\n        /* \"#utility.yul\":9998:9999   */\n      0x00\n        /* \"#utility.yul\":9991:10006   */\n      revert\n        /* \"#utility.yul\":10018:10212   */\n    tag_80:\n        /* \"#utility.yul\":10058:10062   */\n      0x00\n        /* \"#utility.yul\":10078:10098   */\n      tag_297\n        /* \"#utility.yul\":10096:10097   */\n      dup3\n        /* \"#utility.yul\":10078:10098   */\n      tag_164\n      jump\t// in\n    tag_297:\n        /* \"#utility.yul\":10073:10098   */\n      swap2\n      pop\n        /* \"#utility.yul\":10112:10132   */\n      tag_298\n        /* \"#utility.yul\":10130:10131   */\n      dup4\n        /* \"#utility.yul\":10112:10132   */\n      tag_164\n      jump\t// in\n    tag_298:\n        /* \"#utility.yul\":10107:10132   */\n      swap3\n      pop\n        /* \"#utility.yul\":10156:10157   */\n      dup3\n        /* \"#utility.yul\":10153:10154   */\n      dup3\n        /* \"#utility.yul\":10149:10158   */\n      sub\n        /* \"#utility.yul\":10141:10158   */\n      swap1\n      pop\n        /* \"#utility.yul\":10180:10181   */\n      dup2\n        /* \"#utility.yul\":10174:10178   */\n      dup2\n        /* \"#utility.yul\":10171:10182   */\n      gt\n        /* \"#utility.yul\":10168:10205   */\n      iszero\n      tag_299\n      jumpi\n        /* \"#utility.yul\":10185:10203   */\n      tag_300\n      tag_181\n      jump\t// in\n    tag_300:\n        /* \"#utility.yul\":10168:10205   */\n    tag_299:\n        /* \"#utility.yul\":10018:10212   */\n      swap3\n      swap2\n      pop\n      pop\n      jump\t// out\n        /* \"#utility.yul\":10218:10409   */\n    tag_82:\n        /* \"#utility.yul\":10258:10261   */\n      0x00\n        /* \"#utility.yul\":10277:10297   */\n      tag_302\n        /* \"#utility.yul\":10295:10296   */\n      dup3\n        /* \"#utility.yul\":10277:10297   */\n      tag_164\n      jump\t// in\n    tag_302:\n        /* \"#utility.yul\":10272:10297   */\n      swap2\n      pop\n        /* \"#utility.yul\":10311:10331   */\n      tag_303\n        /* \"#utility.yul\":10329:10330   */\n      dup4\n        /* \"#utility.yul\":10311:10331   */\n      tag_164\n      jump\t// in\n    tag_303:\n        /* \"#utility.yul\":10306:10331   */\n      swap3\n      pop\n        /* \"#utility.yul\":10354:10355   */\n      dup3\n        /* \"#utility.yul\":10351:10352   */\n      dup3\n        /* \"#utility.yul\":10347:10356   */\n      add\n        /* \"#utility.yul\":10340:10356   */\n      swap1\n      pop\n        /* \"#utility.yul\":10375:10378   */\n      dup1\n        /* \"#utility.yul\":10372:10373   */\n      dup3\n        /* \"#utility.yul\":10369:10379   */\n      gt\n        /* \"#utility.yul\":10366:10402   */\n      iszero\n      tag_304\n      jumpi\n        /* \"#utility.yul\":10382:10400   */\n      tag_305\n      tag_181\n      jump\t// in\n    tag_305:\n        /* \"#utility.yul\":10366:10402   */\n    tag_304:\n        /* \"#utility.yul\":10218:10409   */\n      swap3\n      swap2\n      pop\n      pop\n      jump\t// out\n        /* \"#utility.yul\":10415:10533   */\n    tag_182:\n        /* \"#utility.yul\":10502:10526   */\n      tag_307\n        /* \"#utility.yul\":10520:10525   */\n      dup2\n        /* \"#utility.yul\":10502:10526   */\n      tag_161\n      jump\t// in\n    tag_307:\n        /* \"#utility.yul\":10497:10500   */\n      dup3\n        /* \"#utility.yul\":10490:10527   */\n      mstore\n        /* \"#utility.yul\":10415:10533   */\n      pop\n      pop\n      jump\t// out\n        /* \"#utility.yul\":10539:10707   */\n    tag_183:\n        /* \"#utility.yul\":10622:10633   */\n      0x00\n        /* \"#utility.yul\":10656:10662   */\n      dup3\n        /* \"#utility.yul\":10651:10654   */\n      dup3\n        /* \"#utility.yul\":10644:10663   */\n      mstore\n        /* \"#utility.yul\":10696:10700   */\n      0x20\n        /* \"#utility.yul\":10691:10694   */\n      dup3\n        /* \"#utility.yul\":10687:10701   */\n      add\n        /* \"#utility.yul\":10672:10701   */\n      swap1\n      pop\n        /* \"#utility.yul\":10539:10707   */\n      swap3\n      swap2\n      pop\n      pop\n      jump\t// out\n        /* \"#utility.yul\":10713:10827   */\n    tag_184:\n      pop\n      jump\t// out\n        /* \"#utility.yul\":10833:11195   */\n    tag_185:\n        /* \"#utility.yul\":10974:10977   */\n      0x00\n        /* \"#utility.yul\":10995:11060   */\n      tag_311\n        /* \"#utility.yul\":11058:11059   */\n      0x00\n        /* \"#utility.yul\":11053:11056   */\n      dup4\n        /* \"#utility.yul\":10995:11060   */\n      tag_183\n      jump\t// in\n    tag_311:\n        /* \"#utility.yul\":10988:11060   */\n      swap2\n      pop\n        /* \"#utility.yul\":11069:11162   */\n      tag_312\n        /* \"#utility.yul\":11158:11161   */\n      dup3\n        /* \"#utility.yul\":11069:11162   */\n      tag_184\n      jump\t// in\n    tag_312:\n        /* \"#utility.yul\":11187:11188   */\n      0x00\n        /* \"#utility.yul\":11182:11185   */\n      dup3\n        /* \"#utility.yul\":11178:11189   */\n      add\n        /* \"#utility.yul\":11171:11189   */\n      swap1\n      pop\n        /* \"#utility.yul\":10833:11195   */\n      swap2\n      swap1\n      pop\n      jump\t// out\n        /* \"#utility.yul\":11201:11838   */\n    tag_88:\n        /* \"#utility.yul\":11422:11426   */\n      0x00\n        /* \"#utility.yul\":11460:11462   */\n      0x60\n        /* \"#utility.yul\":11449:11458   */\n      dup3\n        /* \"#utility.yul\":11445:11463   */\n      add\n        /* \"#utility.yul\":11437:11463   */\n      swap1\n      pop\n        /* \"#utility.yul\":11473:11544   */\n      tag_314\n        /* \"#utility.yul\":11541:11542   */\n      0x00\n        /* \"#utility.yul\":11530:11539   */\n      dup4\n        /* \"#utility.yul\":11526:11543   */\n      add\n        /* \"#utility.yul\":11517:11523   */\n      dup6\n        /* \"#utility.yul\":11473:11544   */\n      tag_182\n      jump\t// in\n    tag_314:\n        /* \"#utility.yul\":11554:11626   */\n      tag_315\n        /* \"#utility.yul\":11622:11624   */\n      0x20\n        /* \"#utility.yul\":11611:11620   */\n      dup4\n        /* \"#utility.yul\":11607:11625   */\n      add\n        /* \"#utility.yul\":11598:11604   */\n      dup5\n        /* \"#utility.yul\":11554:11626   */\n      tag_169\n      jump\t// in\n    tag_315:\n        /* \"#utility.yul\":11673:11682   */\n      dup2\n        /* \"#utility.yul\":11667:11671   */\n      dup2\n        /* \"#utility.yul\":11663:11683   */\n      sub\n        /* \"#utility.yul\":11658:11660   */\n      0x40\n        /* \"#utility.yul\":11647:11656   */\n      dup4\n        /* \"#utility.yul\":11643:11661   */\n      add\n        /* \"#utility.yul\":11636:11684   */\n      mstore\n        /* \"#utility.yul\":11701:11831   */\n      tag_316\n        /* \"#utility.yul\":11826:11830   */\n      dup2\n        /* \"#utility.yul\":11701:11831   */\n      tag_185\n      jump\t// in\n    tag_316:\n        /* \"#utility.yul\":11693:11831   */\n      swap1\n      pop\n        /* \"#utility.yul\":11201:11838   */\n      swap4\n      swap3\n      pop\n      pop\n      pop\n      jump\t// out\n        /* \"#utility.yul\":11844:11993   */\n    tag_186:\n        /* \"#utility.yul\":11880:11887   */\n      0x00\n        /* \"#utility.yul\":11920:11986   */\n      0xffffffff00000000000000000000000000000000000000000000000000000000\n        /* \"#utility.yul\":11913:11918   */\n      dup3\n        /* \"#utility.yul\":11909:11987   */\n      and\n        /* \"#utility.yul\":11898:11987   */\n      swap1\n      pop\n        /* \"#utility.yul\":11844:11993   */\n      swap2\n      swap1\n      pop\n      jump\t// out\n        /* \"#utility.yul\":11999:12119   */\n    tag_187:\n        /* \"#utility.yul\":12071:12094   */\n      tag_319\n        /* \"#utility.yul\":12088:12093   */\n      dup2\n        /* \"#utility.yul\":12071:12094   */\n      tag_186\n      jump\t// in\n    tag_319:\n        /* \"#utility.yul\":12064:12069   */\n      dup2\n        /* \"#utility.yul\":12061:12095   */\n      eq\n        /* \"#utility.yul\":12051:12113   */\n      tag_320\n      jumpi\n        /* \"#utility.yul\":12109:12110   */\n      0x00\n        /* \"#utility.yul\":12106:12107   */\n      dup1\n        /* \"#utility.yul\":12099:12111   */\n      revert\n        /* \"#utility.yul\":12051:12113   */\n    tag_320:\n        /* \"#utility.yul\":11999:12119   */\n      pop\n      jump\t// out\n        /* \"#utility.yul\":12125:12266   */\n    tag_188:\n        /* \"#utility.yul\":12181:12186   */\n      0x00\n        /* \"#utility.yul\":12212:12218   */\n      dup2\n        /* \"#utility.yul\":12206:12219   */\n      mload\n        /* \"#utility.yul\":12197:12219   */\n      swap1\n      pop\n        /* \"#utility.yul\":12228:12260   */\n      tag_322\n        /* \"#utility.yul\":12254:12259   */\n      dup2\n        /* \"#utility.yul\":12228:12260   */\n      tag_187\n      jump\t// in\n    tag_322:\n        /* \"#utility.yul\":12125:12266   */\n      swap3\n      swap2\n      pop\n      pop\n      jump\t// out\n        /* \"#utility.yul\":12272:12621   */\n    tag_91:\n        /* \"#utility.yul\":12341:12347   */\n      0x00\n        /* \"#utility.yul\":12390:12392   */\n      0x20\n        /* \"#utility.yul\":12378:12387   */\n      dup3\n        /* \"#utility.yul\":12369:12376   */\n      dup5\n        /* \"#utility.yul\":12365:12388   */\n      sub\n        /* \"#utility.yul\":12361:12393   */\n      slt\n        /* \"#utility.yul\":12358:12477   */\n      iszero\n      tag_324\n      jumpi\n        /* \"#utility.yul\":12396:12475   */\n      tag_325\n      tag_158\n      jump\t// in\n    tag_325:\n        /* \"#utility.yul\":12358:12477   */\n    tag_324:\n        /* \"#utility.yul\":12516:12517   */\n      0x00\n        /* \"#utility.yul\":12541:12604   */\n      tag_326\n        /* \"#utility.yul\":12596:12603   */\n      dup5\n        /* \"#utility.yul\":12587:12593   */\n      dup3\n        /* \"#utility.yul\":12576:12585   */\n      dup6\n        /* \"#utility.yul\":12572:12594   */\n      add\n        /* \"#utility.yul\":12541:12604   */\n      tag_188\n      jump\t// in\n    tag_326:\n        /* \"#utility.yul\":12531:12604   */\n      swap2\n      pop\n        /* \"#utility.yul\":12487:12614   */\n      pop\n        /* \"#utility.yul\":12272:12621   */\n      swap3\n      swap2\n      pop\n      pop\n      jump\t// out\n        /* \"#utility.yul\":12627:12851   */\n    tag_189:\n        /* \"#utility.yul\":12767:12801   */\n      0x45524332303a20746f6b656e7352656365697665642063616c6c6261636b2066\n        /* \"#utility.yul\":12763:12764   */\n      0x00\n        /* \"#utility.yul\":12755:12761   */\n      dup3\n        /* \"#utility.yul\":12751:12765   */\n      add\n        /* \"#utility.yul\":12744:12802   */\n      mstore\n        /* \"#utility.yul\":12836:12843   */\n      0x61696c6564000000000000000000000000000000000000000000000000000000\n        /* \"#utility.yul\":12831:12833   */\n      0x20\n        /* \"#utility.yul\":12823:12829   */\n      dup3\n        /* \"#utility.yul\":12819:12834   */\n      add\n        /* \"#utility.yul\":12812:12844   */\n      mstore\n        /* \"#utility.yul\":12627:12851   */\n      pop\n      jump\t// out\n        /* \"#utility.yul\":12857:13223   */\n    tag_190:\n        /* \"#utility.yul\":12999:13002   */\n      0x00\n        /* \"#utility.yul\":13020:13087   */\n      tag_329\n        /* \"#utility.yul\":13084:13086   */\n      0x25\n        /* \"#utility.yul\":13079:13082   */\n      dup4\n        /* \"#utility.yul\":13020:13087   */\n      tag_153\n      jump\t// in\n    tag_329:\n        /* \"#utility.yul\":13013:13087   */\n      swap2\n      pop\n        /* \"#utility.yul\":13096:13189   */\n      tag_330\n        /* \"#utility.yul\":13185:13188   */\n      dup3\n        /* \"#utility.yul\":13096:13189   */\n      tag_189\n      jump\t// in\n    tag_330:\n        /* \"#utility.yul\":13214:13216   */\n      0x40\n        /* \"#utility.yul\":13209:13212   */\n      dup3\n        /* \"#utility.yul\":13205:13217   */\n      add\n        /* \"#utility.yul\":13198:13217   */\n      swap1\n      pop\n        /* \"#utility.yul\":12857:13223   */\n      swap2\n      swap1\n      pop\n      jump\t// out\n        /* \"#utility.yul\":13229:13648   */\n    tag_97:\n        /* \"#utility.yul\":13395:13399   */\n      0x00\n        /* \"#utility.yul\":13433:13435   */\n      0x20\n        /* \"#utility.yul\":13422:13431   */\n      dup3\n        /* \"#utility.yul\":13418:13436   */\n      add\n        /* \"#utility.yul\":13410:13436   */\n      swap1\n      pop\n        /* \"#utility.yul\":13482:13491   */\n      dup2\n        /* \"#utility.yul\":13476:13480   */\n      dup2\n        /* \"#utility.yul\":13472:13492   */\n      sub\n        /* \"#utility.yul\":13468:13469   */\n      0x00\n        /* \"#utility.yul\":13457:13466   */\n      dup4\n        /* \"#utility.yul\":13453:13470   */\n      add\n        /* \"#utility.yul\":13446:13493   */\n      mstore\n        /* \"#utility.yul\":13510:13641   */\n      tag_332\n        /* \"#utility.yul\":13636:13640   */\n      dup2\n        /* \"#utility.yul\":13510:13641   */\n      tag_190\n      jump\t// in\n    tag_332:\n        /* \"#utility.yul\":13502:13641   */\n      swap1\n      pop\n        /* \"#utility.yul\":13229:13648   */\n      swap2\n      swap1\n      pop\n      jump\t// out\n        /* \"#utility.yul\":13654:13820   */\n    tag_191:\n        /* \"#utility.yul\":13794:13812   */\n      0x496e76616c69642063616c6c6261636b00000000000000000000000000000000\n        /* \"#utility.yul\":13790:13791   */\n      0x00\n        /* \"#utility.yul\":13782:13788   */\n      dup3\n        /* \"#utility.yul\":13778:13792   */\n      add\n        /* \"#utility.yul\":13771:13813   */\n      mstore\n        /* \"#utility.yul\":13654:13820   */\n      pop\n      jump\t// out\n        /* \"#utility.yul\":13826:14192   */\n    tag_192:\n        /* \"#utility.yul\":13968:13971   */\n      0x00\n        /* \"#utility.yul\":13989:14056   */\n      tag_335\n        /* \"#utility.yul\":14053:14055   */\n      0x10\n        /* \"#utility.yul\":14048:14051   */\n      dup4\n        /* \"#utility.yul\":13989:14056   */\n      tag_153\n      jump\t// in\n    tag_335:\n        /* \"#utility.yul\":13982:14056   */\n      swap2\n      pop\n        /* \"#utility.yul\":14065:14158   */\n      tag_336\n        /* \"#utility.yul\":14154:14157   */\n      dup3\n        /* \"#utility.yul\":14065:14158   */\n      tag_191\n      jump\t// in\n    tag_336:\n        /* \"#utility.yul\":14183:14185   */\n      0x20\n        /* \"#utility.yul\":14178:14181   */\n      dup3\n        /* \"#utility.yul\":14174:14186   */\n      add\n        /* \"#utility.yul\":14167:14186   */\n      swap1\n      pop\n        /* \"#utility.yul\":13826:14192   */\n      swap2\n      swap1\n      pop\n      jump\t// out\n        /* \"#utility.yul\":14198:14617   */\n    tag_101:\n        /* \"#utility.yul\":14364:14368   */\n      0x00\n        /* \"#utility.yul\":14402:14404   */\n      0x20\n        /* \"#utility.yul\":14391:14400   */\n      dup3\n        /* \"#utility.yul\":14387:14405   */\n      add\n        /* \"#utility.yul\":14379:14405   */\n      swap1\n      pop\n        /* \"#utility.yul\":14451:14460   */\n      dup2\n        /* \"#utility.yul\":14445:14449   */\n      dup2\n        /* \"#utility.yul\":14441:14461   */\n      sub\n        /* \"#utility.yul\":14437:14438   */\n      0x00\n        /* \"#utility.yul\":14426:14435   */\n      dup4\n        /* \"#utility.yul\":14422:14439   */\n      add\n        /* \"#utility.yul\":14415:14462   */\n      mstore\n        /* \"#utility.yul\":14479:14610   */\n      tag_338\n        /* \"#utility.yul\":14605:14609   */\n      dup2\n        /* \"#utility.yul\":14479:14610   */\n      tag_192\n      jump\t// in\n    tag_338:\n        /* \"#utility.yul\":14471:14610   */\n      swap1\n      pop\n        /* \"#utility.yul\":14198:14617   */\n      swap2\n      swap1\n      pop\n      jump\t// out\n        /* \"#utility.yul\":14623:14850   */\n    tag_193:\n        /* \"#utility.yul\":14763:14797   */\n      0x45524332303a207472616e7366657220616d6f756e7420657863656564732061\n        /* \"#utility.yul\":14759:14760   */\n      0x00\n        /* \"#utility.yul\":14751:14757   */\n      dup3\n        /* \"#utility.yul\":14747:14761   */\n      add\n        /* \"#utility.yul\":14740:14798   */\n      mstore\n        /* \"#utility.yul\":14832:14842   */\n      0x6c6c6f77616e6365000000000000000000000000000000000000000000000000\n        /* \"#utility.yul\":14827:14829   */\n      0x20\n        /* \"#utility.yul\":14819:14825   */\n      dup3\n        /* \"#utility.yul\":14815:14830   */\n      add\n        /* \"#utility.yul\":14808:14843   */\n      mstore\n        /* \"#utility.yul\":14623:14850   */\n      pop\n      jump\t// out\n        /* \"#utility.yul\":14856:15222   */\n    tag_194:\n        /* \"#utility.yul\":14998:15001   */\n      0x00\n        /* \"#utility.yul\":15019:15086   */\n      tag_341\n        /* \"#utility.yul\":15083:15085   */\n      0x28\n        /* \"#utility.yul\":15078:15081   */\n      dup4\n        /* \"#utility.yul\":15019:15086   */\n      tag_153\n      jump\t// in\n    tag_341:\n        /* \"#utility.yul\":15012:15086   */\n      swap2\n      pop\n        /* \"#utility.yul\":15095:15188   */\n      tag_342\n        /* \"#utility.yul\":15184:15187   */\n      dup3\n        /* \"#utility.yul\":15095:15188   */\n      tag_193\n      jump\t// in\n    tag_342:\n        /* \"#utility.yul\":15213:15215   */\n      0x40\n        /* \"#utility.yul\":15208:15211   */\n      dup3\n        /* \"#utility.yul\":15204:15216   */\n      add\n        /* \"#utility.yul\":15197:15216   */\n      swap1\n      pop\n        /* \"#utility.yul\":14856:15222   */\n      swap2\n      swap1\n      pop\n      jump\t// out\n        /* \"#utility.yul\":15228:15647   */\n    tag_109:\n        /* \"#utility.yul\":15394:15398   */\n      0x00\n        /* \"#utility.yul\":15432:15434   */\n      0x20\n        /* \"#utility.yul\":15421:15430   */\n      dup3\n        /* \"#utility.yul\":15417:15435   */\n      add\n        /* \"#utility.yul\":15409:15435   */\n      swap1\n      pop\n        /* \"#utility.yul\":15481:15490   */\n      dup2\n        /* \"#utility.yul\":15475:15479   */\n      dup2\n        /* \"#utility.yul\":15471:15491   */\n      sub\n        /* \"#utility.yul\":15467:15468   */\n      0x00\n        /* \"#utility.yul\":15456:15465   */\n      dup4\n        /* \"#utility.yul\":15452:15469   */\n      add\n        /* \"#utility.yul\":15445:15492   */\n      mstore\n        /* \"#utility.yul\":15509:15640   */\n      tag_344\n        /* \"#utility.yul\":15635:15639   */\n      dup2\n        /* \"#utility.yul\":15509:15640   */\n      tag_194\n      jump\t// in\n    tag_344:\n        /* \"#utility.yul\":15501:15640   */\n      swap1\n      pop\n        /* \"#utility.yul\":15228:15647   */\n      swap2\n      swap1\n      pop\n      jump\t// out\n        /* \"#utility.yul\":15653:15801   */\n    tag_195:\n        /* \"#utility.yul\":15751:15757   */\n      dup3\n        /* \"#utility.yul\":15746:15749   */\n      dup2\n        /* \"#utility.yul\":15741:15744   */\n      dup4\n        /* \"#utility.yul\":15728:15758   */\n      calldatacopy\n        /* \"#utility.yul\":15792:15793   */\n      0x00\n        /* \"#utility.yul\":15783:15789   */\n      dup4\n        /* \"#utility.yul\":15778:15781   */\n      dup4\n        /* \"#utility.yul\":15774:15790   */\n      add\n        /* \"#utility.yul\":15767:15794   */\n      mstore\n        /* \"#utility.yul\":15653:15801   */\n      pop\n      pop\n      pop\n      jump\t// out\n        /* \"#utility.yul\":15829:16143   */\n    tag_196:\n        /* \"#utility.yul\":15925:15928   */\n      0x00\n        /* \"#utility.yul\":15946:16016   */\n      tag_347\n        /* \"#utility.yul\":16009:16015   */\n      dup4\n        /* \"#utility.yul\":16004:16007   */\n      dup6\n        /* \"#utility.yul\":15946:16016   */\n      tag_183\n      jump\t// in\n    tag_347:\n        /* \"#utility.yul\":15939:16016   */\n      swap4\n      pop\n        /* \"#utility.yul\":16026:16082   */\n      tag_348\n        /* \"#utility.yul\":16075:16081   */\n      dup4\n        /* \"#utility.yul\":16070:16073   */\n      dup6\n        /* \"#utility.yul\":16063:16068   */\n      dup5\n        /* \"#utility.yul\":16026:16082   */\n      tag_195\n      jump\t// in\n    tag_348:\n        /* \"#utility.yul\":16107:16136   */\n      tag_349\n        /* \"#utility.yul\":16129:16135   */\n      dup4\n        /* \"#utility.yul\":16107:16136   */\n      tag_155\n      jump\t// in\n    tag_349:\n        /* \"#utility.yul\":16102:16105   */\n      dup5\n        /* \"#utility.yul\":16098:16137   */\n      add\n        /* \"#utility.yul\":16091:16137   */\n      swap1\n      pop\n        /* \"#utility.yul\":15829:16143   */\n      swap4\n      swap3\n      pop\n      pop\n      pop\n      jump\t// out\n        /* \"#utility.yul\":16149:16698   */\n    tag_125:\n        /* \"#utility.yul\":16326:16330   */\n      0x00\n        /* \"#utility.yul\":16364:16366   */\n      0x60\n        /* \"#utility.yul\":16353:16362   */\n      dup3\n        /* \"#utility.yul\":16349:16367   */\n      add\n        /* \"#utility.yul\":16341:16367   */\n      swap1\n      pop\n        /* \"#utility.yul\":16377:16448   */\n      tag_351\n        /* \"#utility.yul\":16445:16446   */\n      0x00\n        /* \"#utility.yul\":16434:16443   */\n      dup4\n        /* \"#utility.yul\":16430:16447   */\n      add\n        /* \"#utility.yul\":16421:16427   */\n      dup8\n        /* \"#utility.yul\":16377:16448   */\n      tag_182\n      jump\t// in\n    tag_351:\n        /* \"#utility.yul\":16458:16530   */\n      tag_352\n        /* \"#utility.yul\":16526:16528   */\n      0x20\n        /* \"#utility.yul\":16515:16524   */\n      dup4\n        /* \"#utility.yul\":16511:16529   */\n      add\n        /* \"#utility.yul\":16502:16508   */\n      dup7\n        /* \"#utility.yul\":16458:16530   */\n      tag_169\n      jump\t// in\n    tag_352:\n        /* \"#utility.yul\":16577:16586   */\n      dup2\n        /* \"#utility.yul\":16571:16575   */\n      dup2\n        /* \"#utility.yul\":16567:16587   */\n      sub\n        /* \"#utility.yul\":16562:16564   */\n      0x40\n        /* \"#utility.yul\":16551:16560   */\n      dup4\n        /* \"#utility.yul\":16547:16565   */\n      add\n        /* \"#utility.yul\":16540:16588   */\n      mstore\n        /* \"#utility.yul\":16605:16691   */\n      tag_353\n        /* \"#utility.yul\":16686:16690   */\n      dup2\n        /* \"#utility.yul\":16677:16683   */\n      dup5\n        /* \"#utility.yul\":16669:16675   */\n      dup7\n        /* \"#utility.yul\":16605:16691   */\n      tag_196\n      jump\t// in\n    tag_353:\n        /* \"#utility.yul\":16597:16691   */\n      swap1\n      pop\n        /* \"#utility.yul\":16149:16698   */\n      swap6\n      swap5\n      pop\n      pop\n      pop\n      pop\n      pop\n      jump\t// out\n\n    auxdata: 0xa264697066735822122000a40bff34c4d0c0257b97737b9200b1f8b917eae215a1e3fea4a0164ee4fc1064736f6c634300081a0033\n}\n",
				"bytecode": {
					"linkReferences": {},
					"object": "608060405234801561000f575f80fd5b506040518060400160405280600e81526020017f457874656e64455243323054776f0000000000000000000000000000000000008152505f9081610053919061036a565b506040518060400160405280600781526020017f455845524332300000000000000000000000000000000000000000000000000081525060019081610098919061036a565b50601260025f6101000a81548160ff021916908360ff16021790555060025f9054906101000a900460ff1660ff16600a6100d29190610595565b6305f5e1006100e191906105df565b60038190555060035460045f3373ffffffffffffffffffffffffffffffffffffffff1673ffffffffffffffffffffffffffffffffffffffff1681526020019081526020015f2081905550610620565b5f81519050919050565b7f4e487b71000000000000000000000000000000000000000000000000000000005f52604160045260245ffd5b7f4e487b71000000000000000000000000000000000000000000000000000000005f52602260045260245ffd5b5f60028204905060018216806101ab57607f821691505b6020821081036101be576101bd610167565b5b50919050565b5f819050815f5260205f209050919050565b5f6020601f8301049050919050565b5f82821b905092915050565b5f600883026102207fffffffffffffffffffffffffffffffffffffffffffffffffffffffffffffffff826101e5565b61022a86836101e5565b95508019841693508086168417925050509392505050565b5f819050919050565b5f819050919050565b5f61026e61026961026484610242565b61024b565b610242565b9050919050565b5f819050919050565b61028783610254565b61029b61029382610275565b8484546101f1565b825550505050565b5f90565b6102af6102a3565b6102ba81848461027e565b505050565b5b818110156102dd576102d25f826102a7565b6001810190506102c0565b5050565b601f821115610322576102f3816101c4565b6102fc846101d6565b8101602085101561030b578190505b61031f610317856101d6565b8301826102bf565b50505b505050565b5f82821c905092915050565b5f6103425f1984600802610327565b1980831691505092915050565b5f61035a8383610333565b9150826002028217905092915050565b61037382610130565b67ffffffffffffffff81111561038c5761038b61013a565b5b6103968254610194565b6103a18282856102e1565b5f60209050601f8311600181146103d2575f84156103c0578287015190505b6103ca858261034f565b865550610431565b601f1984166103e0866101c4565b5f5b82811015610407578489015182556001820191506020850194506020810190506103e2565b868310156104245784890151610420601f891682610333565b8355505b6001600288020188555050505b505050505050565b7f4e487b71000000000000000000000000000000000000000000000000000000005f52601160045260245ffd5b5f8160011c9050919050565b5f808291508390505b60018511156104bb5780860481111561049757610496610439565b5b60018516156104a65780820291505b80810290506104b485610466565b945061047b565b94509492505050565b5f826104d3576001905061058e565b816104e0575f905061058e565b81600181146104f657600281146105005761052f565b600191505061058e565b60ff84111561051257610511610439565b5b8360020a91508482111561052957610528610439565b5b5061058e565b5060208310610133831016604e8410600b84101617156105645782820a90508381111561055f5761055e610439565b5b61058e565b6105718484846001610472565b9250905081840481111561058857610587610439565b5b81810290505b9392505050565b5f61059f82610242565b91506105aa83610242565b92506105d77fffffffffffffffffffffffffffffffffffffffffffffffffffffffffffffffff84846104c4565b905092915050565b5f6105e982610242565b91506105f483610242565b925082820261060281610242565b9150828204841483151761061957610618610439565b5b5092915050565b611a238061062d5f395ff3fe608060405234801561000f575f80fd5b50600436106100a7575f3560e01c80632535f7621161006f5780632535f76214610177578063313ce567146101a757806370a08231146101c557806395d89b41146101f5578063a9059cbb14610213578063dd62ed3e14610243576100a7565b806306fdde03146100ab578063095ea7b3146100c957806318160ddd146100f95780631a825b751461011757806323b872dd14610147575b5f80fd5b6100b3610273565b6040516100c09190611202565b60405180910390f35b6100e360048036038101906100de91906112b7565b6102fe565b6040516100f0919061130f565b60405180910390f35b6101016103eb565b60405161010e9190611337565b60405180910390f35b610131600480360381019061012c91906112b7565b6103f1565b60405161013e919061130f565b60405180910390f35b610161600480360381019061015c9190611350565b610757565b60405161016e919061130f565b60405180910390f35b610191600480360381019061018c9190611401565b610aa5565b60405161019e919061130f565b60405180910390f35b6101af610e11565b6040516101bc919061148d565b60405180910390f35b6101df60048036038101906101da91906114a6565b610e23565b6040516101ec9190611337565b60405180910390f35b6101fd610e69565b60405161020a9190611202565b60405180910390f35b61022d600480360381019061022891906112b7565b610ef5565b60405161023a919061130f565b60405180910390f35b61025d600480360381019061025891906114d1565b6110f9565b60405161026a9190611337565b60405180910390f35b5f805461027f9061153c565b80601f01602080910402602001604051908101604052809291908181526020018280546102ab9061153c565b80156102f65780601f106102cd576101008083540402835291602001916102f6565b820191905f5260205f20905b8154815290600101906020018083116102d957829003601f168201915b505050505081565b5f8160055f3373ffffffffffffffffffffffffffffffffffffffff1673ffffffffffffffffffffffffffffffffffffffff1681526020019081526020015f205f8573ffffffffffffffffffffffffffffffffffffffff1673ffffffffffffffffffffffffffffffffffffffff1681526020019081526020015f20819055508273ffffffffffffffffffffffffffffffffffffffff163373ffffffffffffffffffffffffffffffffffffffff167f8c5be1e5ebec7d5bd14f71427d1e84f3dd0314c0f7b2291e5b200ac8c7c3b925846040516103d99190611337565b60405180910390a36001905092915050565b60035481565b5f8073ffffffffffffffffffffffffffffffffffffffff168373ffffffffffffffffffffffffffffffffffffffff1603610460576040517f08c379a0000000000000000000000000000000000000000000000000000000008152600401610457906115b6565b60405180910390fd5b8160045f3373ffffffffffffffffffffffffffffffffffffffff1673ffffffffffffffffffffffffffffffffffffffff1681526020019081526020015f205410156104e0576040517f08c379a00000000000000000000000000000000000000000000000000000000081526004016104d790611644565b60405180910390fd5b8160045f3373ffffffffffffffffffffffffffffffffffffffff1673ffffffffffffffffffffffffffffffffffffffff1681526020019081526020015f205f82825461052c919061168f565b925050819055508160045f8573ffffffffffffffffffffffffffffffffffffffff1673ffffffffffffffffffffffffffffffffffffffff1681526020019081526020015f205f82825461057f91906116c2565b925050819055508273ffffffffffffffffffffffffffffffffffffffff163373ffffffffffffffffffffffffffffffffffffffff167fddf252ad1be2c89b69c2b068fc378daa952ba7f163c4a11628f55a4df523b3ef846040516105e39190611337565b60405180910390a361060a8373ffffffffffffffffffffffffffffffffffffffff1661117b565b1561074d578273ffffffffffffffffffffffffffffffffffffffff1663d031426333846040518363ffffffff1660e01b815260040161064a929190611737565b6020604051808303815f875af192505050801561068557506040513d601f19601f8201168201806040525081019061068291906117c6565b60015b6106c4576040517f08c379a00000000000000000000000000000000000000000000000000000000081526004016106bb90611861565b60405180910390fd5b63d031426360e01b7bffffffffffffffffffffffffffffffffffffffffffffffffffffffff1916817bffffffffffffffffffffffffffffffffffffffffffffffffffffffff19161461074b576040517f08c379a0000000000000000000000000000000000000000000000000000000008152600401610742906118c9565b60405180910390fd5b505b6001905092915050565b5f8073ffffffffffffffffffffffffffffffffffffffff168373ffffffffffffffffffffffffffffffffffffffff16036107c6576040517f08c379a00000000000000000000000000000000000000000000000000000000081526004016107bd906115b6565b60405180910390fd5b8160045f8673ffffffffffffffffffffffffffffffffffffffff1673ffffffffffffffffffffffffffffffffffffffff1681526020019081526020015f20541015610846576040517f08c379a000000000000000000000000000000000000000000000000000000000815260040161083d90611644565b60405180910390fd5b8160055f8673ffffffffffffffffffffffffffffffffffffffff1673ffffffffffffffffffffffffffffffffffffffff1681526020019081526020015f205f3373ffffffffffffffffffffffffffffffffffffffff1673ffffffffffffffffffffffffffffffffffffffff1681526020019081526020015f20541015610901576040517f08c379a00000000000000000000000000000000000000000000000000000000081526004016108f890611957565b60405180910390fd5b8160045f8673ffffffffffffffffffffffffffffffffffffffff1673ffffffffffffffffffffffffffffffffffffffff1681526020019081526020015f205f82825461094d919061168f565b925050819055508160045f8573ffffffffffffffffffffffffffffffffffffffff1673ffffffffffffffffffffffffffffffffffffffff1681526020019081526020015f205f8282546109a091906116c2565b925050819055508160055f8673ffffffffffffffffffffffffffffffffffffffff1673ffffffffffffffffffffffffffffffffffffffff1681526020019081526020015f205f3373ffffffffffffffffffffffffffffffffffffffff1673ffffffffffffffffffffffffffffffffffffffff1681526020019081526020015f205f828254610a2e919061168f565b925050819055508273ffffffffffffffffffffffffffffffffffffffff168473ffffffffffffffffffffffffffffffffffffffff167fddf252ad1be2c89b69c2b068fc378daa952ba7f163c4a11628f55a4df523b3ef84604051610a929190611337565b60405180910390a3600190509392505050565b5f8073ffffffffffffffffffffffffffffffffffffffff168573ffffffffffffffffffffffffffffffffffffffff1603610b14576040517f08c379a0000000000000000000000000000000000000000000000000000000008152600401610b0b906115b6565b60405180910390fd5b8360045f3373ffffffffffffffffffffffffffffffffffffffff1673ffffffffffffffffffffffffffffffffffffffff1681526020019081526020015f20541015610b94576040517f08c379a0000000000000000000000000000000000000000000000000000000008152600401610b8b90611644565b60405180910390fd5b8360045f3373ffffffffffffffffffffffffffffffffffffffff1673ffffffffffffffffffffffffffffffffffffffff1681526020019081526020015f205f828254610be0919061168f565b925050819055508360045f8773ffffffffffffffffffffffffffffffffffffffff1673ffffffffffffffffffffffffffffffffffffffff1681526020019081526020015f205f828254610c3391906116c2565b925050819055508473ffffffffffffffffffffffffffffffffffffffff163373ffffffffffffffffffffffffffffffffffffffff167fddf252ad1be2c89b69c2b068fc378daa952ba7f163c4a11628f55a4df523b3ef86604051610c979190611337565b60405180910390a3610cbe8573ffffffffffffffffffffffffffffffffffffffff1661117b565b15610e05578473ffffffffffffffffffffffffffffffffffffffff1663d0314263338686866040518563ffffffff1660e01b8152600401610d0294939291906119af565b6020604051808303815f875af1925050508015610d3d57506040513d601f19601f82011682018060405250810190610d3a91906117c6565b60015b610d7c576040517f08c379a0000000000000000000000000000000000000000000000000000000008152600401610d7390611861565b60405180910390fd5b63d031426360e01b7bffffffffffffffffffffffffffffffffffffffffffffffffffffffff1916817bffffffffffffffffffffffffffffffffffffffffffffffffffffffff191614610e03576040517f08c379a0000000000000000000000000000000000000000000000000000000008152600401610dfa906118c9565b60405180910390fd5b505b60019050949350505050565b60025f9054906101000a900460ff1681565b5f60045f8373ffffffffffffffffffffffffffffffffffffffff1673ffffffffffffffffffffffffffffffffffffffff1681526020019081526020015f20549050919050565b60018054610e769061153c565b80601f0160208091040260200160405190810160405280929190818152602001828054610ea29061153c565b8015610eed5780601f10610ec457610100808354040283529160200191610eed565b820191905f5260205f20905b815481529060010190602001808311610ed057829003601f168201915b505050505081565b5f8073ffffffffffffffffffffffffffffffffffffffff168373ffffffffffffffffffffffffffffffffffffffff1603610f64576040517f08c379a0000000000000000000000000000000000000000000000000000000008152600401610f5b906115b6565b60405180910390fd5b8160045f3373ffffffffffffffffffffffffffffffffffffffff1673ffffffffffffffffffffffffffffffffffffffff1681526020019081526020015f20541015610fe4576040517f08c379a0000000000000000000000000000000000000000000000000000000008152600401610fdb90611644565b60405180910390fd5b8160045f3373ffffffffffffffffffffffffffffffffffffffff1673ffffffffffffffffffffffffffffffffffffffff1681526020019081526020015f205f828254611030919061168f565b925050819055508160045f8573ffffffffffffffffffffffffffffffffffffffff1673ffffffffffffffffffffffffffffffffffffffff1681526020019081526020015f205f82825461108391906116c2565b925050819055508273ffffffffffffffffffffffffffffffffffffffff163373ffffffffffffffffffffffffffffffffffffffff167fddf252ad1be2c89b69c2b068fc378daa952ba7f163c4a11628f55a4df523b3ef846040516110e79190611337565b60405180910390a36001905092915050565b5f60055f8473ffffffffffffffffffffffffffffffffffffffff1673ffffffffffffffffffffffffffffffffffffffff1681526020019081526020015f205f8373ffffffffffffffffffffffffffffffffffffffff1673ffffffffffffffffffffffffffffffffffffffff1681526020019081526020015f2054905092915050565b5f80823b90505f8163ffffffff1611915050919050565b5f81519050919050565b5f82825260208201905092915050565b8281835e5f83830152505050565b5f601f19601f8301169050919050565b5f6111d482611192565b6111de818561119c565b93506111ee8185602086016111ac565b6111f7816111ba565b840191505092915050565b5f6020820190508181035f83015261121a81846111ca565b905092915050565b5f80fd5b5f80fd5b5f73ffffffffffffffffffffffffffffffffffffffff82169050919050565b5f6112538261122a565b9050919050565b61126381611249565b811461126d575f80fd5b50565b5f8135905061127e8161125a565b92915050565b5f819050919050565b61129681611284565b81146112a0575f80fd5b50565b5f813590506112b18161128d565b92915050565b5f80604083850312156112cd576112cc611222565b5b5f6112da85828601611270565b92505060206112eb858286016112a3565b9150509250929050565b5f8115159050919050565b611309816112f5565b82525050565b5f6020820190506113225f830184611300565b92915050565b61133181611284565b82525050565b5f60208201905061134a5f830184611328565b92915050565b5f805f6060848603121561136757611366611222565b5b5f61137486828701611270565b935050602061138586828701611270565b9250506040611396868287016112a3565b9150509250925092565b5f80fd5b5f80fd5b5f80fd5b5f8083601f8401126113c1576113c06113a0565b5b8235905067ffffffffffffffff8111156113de576113dd6113a4565b5b6020830191508360018202830111156113fa576113f96113a8565b5b9250929050565b5f805f806060858703121561141957611418611222565b5b5f61142687828801611270565b9450506020611437878288016112a3565b935050604085013567ffffffffffffffff81111561145857611457611226565b5b611464878288016113ac565b925092505092959194509250565b5f60ff82169050919050565b61148781611472565b82525050565b5f6020820190506114a05f83018461147e565b92915050565b5f602082840312156114bb576114ba611222565b5b5f6114c884828501611270565b91505092915050565b5f80604083850312156114e7576114e6611222565b5b5f6114f485828601611270565b925050602061150585828601611270565b9150509250929050565b7f4e487b71000000000000000000000000000000000000000000000000000000005f52602260045260245ffd5b5f600282049050600182168061155357607f821691505b6020821081036115665761156561150f565b5b50919050565b7f496e76616c6964204164647265737300000000000000000000000000000000005f82015250565b5f6115a0600f8361119c565b91506115ab8261156c565b602082019050919050565b5f6020820190508181035f8301526115cd81611594565b9050919050565b7f45524332303a207472616e7366657220616d6f756e74206578636565647320625f8201527f616c616e63650000000000000000000000000000000000000000000000000000602082015250565b5f61162e60268361119c565b9150611639826115d4565b604082019050919050565b5f6020820190508181035f83015261165b81611622565b9050919050565b7f4e487b71000000000000000000000000000000000000000000000000000000005f52601160045260245ffd5b5f61169982611284565b91506116a483611284565b92508282039050818111156116bc576116bb611662565b5b92915050565b5f6116cc82611284565b91506116d783611284565b92508282019050808211156116ef576116ee611662565b5b92915050565b6116fe81611249565b82525050565b5f82825260208201905092915050565b50565b5f6117225f83611704565b915061172d82611714565b5f82019050919050565b5f60608201905061174a5f8301856116f5565b6117576020830184611328565b818103604083015261176881611717565b90509392505050565b5f7fffffffff0000000000000000000000000000000000000000000000000000000082169050919050565b6117a581611771565b81146117af575f80fd5b50565b5f815190506117c08161179c565b92915050565b5f602082840312156117db576117da611222565b5b5f6117e8848285016117b2565b91505092915050565b7f45524332303a20746f6b656e7352656365697665642063616c6c6261636b20665f8201527f61696c6564000000000000000000000000000000000000000000000000000000602082015250565b5f61184b60258361119c565b9150611856826117f1565b604082019050919050565b5f6020820190508181035f8301526118788161183f565b9050919050565b7f496e76616c69642063616c6c6261636b000000000000000000000000000000005f82015250565b5f6118b360108361119c565b91506118be8261187f565b602082019050919050565b5f6020820190508181035f8301526118e0816118a7565b9050919050565b7f45524332303a207472616e7366657220616d6f756e74206578636565647320615f8201527f6c6c6f77616e6365000000000000000000000000000000000000000000000000602082015250565b5f61194160288361119c565b915061194c826118e7565b604082019050919050565b5f6020820190508181035f83015261196e81611935565b9050919050565b828183375f83830152505050565b5f61198e8385611704565b935061199b838584611975565b6119a4836111ba565b840190509392505050565b5f6060820190506119c25f8301876116f5565b6119cf6020830186611328565b81810360408301526119e2818486611983565b90509594505050505056fea264697066735822122000a40bff34c4d0c0257b97737b9200b1f8b917eae215a1e3fea4a0164ee4fc1064736f6c634300081a0033",
					"opcodes": "PUSH1 0x80 PUSH1 0x40 MSTORE CALLVALUE DUP1 ISZERO PUSH2 0xF JUMPI PUSH0 DUP1 REVERT JUMPDEST POP PUSH1 0x40 MLOAD DUP1 PUSH1 0x40 ADD PUSH1 0x40 MSTORE DUP1 PUSH1 0xE DUP2 MSTORE PUSH1 0x20 ADD PUSH32 0x457874656E64455243323054776F000000000000000000000000000000000000 DUP2 MSTORE POP PUSH0 SWAP1 DUP2 PUSH2 0x53 SWAP2 SWAP1 PUSH2 0x36A JUMP JUMPDEST POP PUSH1 0x40 MLOAD DUP1 PUSH1 0x40 ADD PUSH1 0x40 MSTORE DUP1 PUSH1 0x7 DUP2 MSTORE PUSH1 0x20 ADD PUSH32 0x4558455243323000000000000000000000000000000000000000000000000000 DUP2 MSTORE POP PUSH1 0x1 SWAP1 DUP2 PUSH2 0x98 SWAP2 SWAP1 PUSH2 0x36A JUMP JUMPDEST POP PUSH1 0x12 PUSH1 0x2 PUSH0 PUSH2 0x100 EXP DUP2 SLOAD DUP2 PUSH1 0xFF MUL NOT AND SWAP1 DUP4 PUSH1 0xFF AND MUL OR SWAP1 SSTORE POP PUSH1 0x2 PUSH0 SWAP1 SLOAD SWAP1 PUSH2 0x100 EXP SWAP1 DIV PUSH1 0xFF AND PUSH1 0xFF AND PUSH1 0xA PUSH2 0xD2 SWAP2 SWAP1 PUSH2 0x595 JUMP JUMPDEST PUSH4 0x5F5E100 PUSH2 0xE1 SWAP2 SWAP1 PUSH2 0x5DF JUMP JUMPDEST PUSH1 0x3 DUP2 SWAP1 SSTORE POP PUSH1 0x3 SLOAD PUSH1 0x4 PUSH0 CALLER PUSH20 0xFFFFFFFFFFFFFFFFFFFFFFFFFFFFFFFFFFFFFFFF AND PUSH20 0xFFFFFFFFFFFFFFFFFFFFFFFFFFFFFFFFFFFFFFFF AND DUP2 MSTORE PUSH1 0x20 ADD SWAP1 DUP2 MSTORE PUSH1 0x20 ADD PUSH0 KECCAK256 DUP2 SWAP1 SSTORE POP PUSH2 0x620 JUMP JUMPDEST PUSH0 DUP2 MLOAD SWAP1 POP SWAP2 SWAP1 POP JUMP JUMPDEST PUSH32 0x4E487B7100000000000000000000000000000000000000000000000000000000 PUSH0 MSTORE PUSH1 0x41 PUSH1 0x4 MSTORE PUSH1 0x24 PUSH0 REVERT JUMPDEST PUSH32 0x4E487B7100000000000000000000000000000000000000000000000000000000 PUSH0 MSTORE PUSH1 0x22 PUSH1 0x4 MSTORE PUSH1 0x24 PUSH0 REVERT JUMPDEST PUSH0 PUSH1 0x2 DUP3 DIV SWAP1 POP PUSH1 0x1 DUP3 AND DUP1 PUSH2 0x1AB JUMPI PUSH1 0x7F DUP3 AND SWAP2 POP JUMPDEST PUSH1 0x20 DUP3 LT DUP2 SUB PUSH2 0x1BE JUMPI PUSH2 0x1BD PUSH2 0x167 JUMP JUMPDEST JUMPDEST POP SWAP2 SWAP1 POP JUMP JUMPDEST PUSH0 DUP2 SWAP1 POP DUP2 PUSH0 MSTORE PUSH1 0x20 PUSH0 KECCAK256 SWAP1 POP SWAP2 SWAP1 POP JUMP JUMPDEST PUSH0 PUSH1 0x20 PUSH1 0x1F DUP4 ADD DIV SWAP1 POP SWAP2 SWAP1 POP JUMP JUMPDEST PUSH0 DUP3 DUP3 SHL SWAP1 POP SWAP3 SWAP2 POP POP JUMP JUMPDEST PUSH0 PUSH1 0x8 DUP4 MUL PUSH2 0x220 PUSH32 0xFFFFFFFFFFFFFFFFFFFFFFFFFFFFFFFFFFFFFFFFFFFFFFFFFFFFFFFFFFFFFFFF DUP3 PUSH2 0x1E5 JUMP JUMPDEST PUSH2 0x22A DUP7 DUP4 PUSH2 0x1E5 JUMP JUMPDEST SWAP6 POP DUP1 NOT DUP5 AND SWAP4 POP DUP1 DUP7 AND DUP5 OR SWAP3 POP POP POP SWAP4 SWAP3 POP POP POP JUMP JUMPDEST PUSH0 DUP2 SWAP1 POP SWAP2 SWAP1 POP JUMP JUMPDEST PUSH0 DUP2 SWAP1 POP SWAP2 SWAP1 POP JUMP JUMPDEST PUSH0 PUSH2 0x26E PUSH2 0x269 PUSH2 0x264 DUP5 PUSH2 0x242 JUMP JUMPDEST PUSH2 0x24B JUMP JUMPDEST PUSH2 0x242 JUMP JUMPDEST SWAP1 POP SWAP2 SWAP1 POP JUMP JUMPDEST PUSH0 DUP2 SWAP1 POP SWAP2 SWAP1 POP JUMP JUMPDEST PUSH2 0x287 DUP4 PUSH2 0x254 JUMP JUMPDEST PUSH2 0x29B PUSH2 0x293 DUP3 PUSH2 0x275 JUMP JUMPDEST DUP5 DUP5 SLOAD PUSH2 0x1F1 JUMP JUMPDEST DUP3 SSTORE POP POP POP POP JUMP JUMPDEST PUSH0 SWAP1 JUMP JUMPDEST PUSH2 0x2AF PUSH2 0x2A3 JUMP JUMPDEST PUSH2 0x2BA DUP2 DUP5 DUP5 PUSH2 0x27E JUMP JUMPDEST POP POP POP JUMP JUMPDEST JUMPDEST DUP2 DUP2 LT ISZERO PUSH2 0x2DD JUMPI PUSH2 0x2D2 PUSH0 DUP3 PUSH2 0x2A7 JUMP JUMPDEST PUSH1 0x1 DUP2 ADD SWAP1 POP PUSH2 0x2C0 JUMP JUMPDEST POP POP JUMP JUMPDEST PUSH1 0x1F DUP3 GT ISZERO PUSH2 0x322 JUMPI PUSH2 0x2F3 DUP2 PUSH2 0x1C4 JUMP JUMPDEST PUSH2 0x2FC DUP5 PUSH2 0x1D6 JUMP JUMPDEST DUP2 ADD PUSH1 0x20 DUP6 LT ISZERO PUSH2 0x30B JUMPI DUP2 SWAP1 POP JUMPDEST PUSH2 0x31F PUSH2 0x317 DUP6 PUSH2 0x1D6 JUMP JUMPDEST DUP4 ADD DUP3 PUSH2 0x2BF JUMP JUMPDEST POP POP JUMPDEST POP POP POP JUMP JUMPDEST PUSH0 DUP3 DUP3 SHR SWAP1 POP SWAP3 SWAP2 POP POP JUMP JUMPDEST PUSH0 PUSH2 0x342 PUSH0 NOT DUP5 PUSH1 0x8 MUL PUSH2 0x327 JUMP JUMPDEST NOT DUP1 DUP4 AND SWAP2 POP POP SWAP3 SWAP2 POP POP JUMP JUMPDEST PUSH0 PUSH2 0x35A DUP4 DUP4 PUSH2 0x333 JUMP JUMPDEST SWAP2 POP DUP3 PUSH1 0x2 MUL DUP3 OR SWAP1 POP SWAP3 SWAP2 POP POP JUMP JUMPDEST PUSH2 0x373 DUP3 PUSH2 0x130 JUMP JUMPDEST PUSH8 0xFFFFFFFFFFFFFFFF DUP2 GT ISZERO PUSH2 0x38C JUMPI PUSH2 0x38B PUSH2 0x13A JUMP JUMPDEST JUMPDEST PUSH2 0x396 DUP3 SLOAD PUSH2 0x194 JUMP JUMPDEST PUSH2 0x3A1 DUP3 DUP3 DUP6 PUSH2 0x2E1 JUMP JUMPDEST PUSH0 PUSH1 0x20 SWAP1 POP PUSH1 0x1F DUP4 GT PUSH1 0x1 DUP2 EQ PUSH2 0x3D2 JUMPI PUSH0 DUP5 ISZERO PUSH2 0x3C0 JUMPI DUP3 DUP8 ADD MLOAD SWAP1 POP JUMPDEST PUSH2 0x3CA DUP6 DUP3 PUSH2 0x34F JUMP JUMPDEST DUP7 SSTORE POP PUSH2 0x431 JUMP JUMPDEST PUSH1 0x1F NOT DUP5 AND PUSH2 0x3E0 DUP7 PUSH2 0x1C4 JUMP JUMPDEST PUSH0 JUMPDEST DUP3 DUP2 LT ISZERO PUSH2 0x407 JUMPI DUP5 DUP10 ADD MLOAD DUP3 SSTORE PUSH1 0x1 DUP3 ADD SWAP2 POP PUSH1 0x20 DUP6 ADD SWAP5 POP PUSH1 0x20 DUP2 ADD SWAP1 POP PUSH2 0x3E2 JUMP JUMPDEST DUP7 DUP4 LT ISZERO PUSH2 0x424 JUMPI DUP5 DUP10 ADD MLOAD PUSH2 0x420 PUSH1 0x1F DUP10 AND DUP3 PUSH2 0x333 JUMP JUMPDEST DUP4 SSTORE POP JUMPDEST PUSH1 0x1 PUSH1 0x2 DUP9 MUL ADD DUP9 SSTORE POP POP POP JUMPDEST POP POP POP POP POP POP JUMP JUMPDEST PUSH32 0x4E487B7100000000000000000000000000000000000000000000000000000000 PUSH0 MSTORE PUSH1 0x11 PUSH1 0x4 MSTORE PUSH1 0x24 PUSH0 REVERT JUMPDEST PUSH0 DUP2 PUSH1 0x1 SHR SWAP1 POP SWAP2 SWAP1 POP JUMP JUMPDEST PUSH0 DUP1 DUP3 SWAP2 POP DUP4 SWAP1 POP JUMPDEST PUSH1 0x1 DUP6 GT ISZERO PUSH2 0x4BB JUMPI DUP1 DUP7 DIV DUP2 GT ISZERO PUSH2 0x497 JUMPI PUSH2 0x496 PUSH2 0x439 JUMP JUMPDEST JUMPDEST PUSH1 0x1 DUP6 AND ISZERO PUSH2 0x4A6 JUMPI DUP1 DUP3 MUL SWAP2 POP JUMPDEST DUP1 DUP2 MUL SWAP1 POP PUSH2 0x4B4 DUP6 PUSH2 0x466 JUMP JUMPDEST SWAP5 POP PUSH2 0x47B JUMP JUMPDEST SWAP5 POP SWAP5 SWAP3 POP POP POP JUMP JUMPDEST PUSH0 DUP3 PUSH2 0x4D3 JUMPI PUSH1 0x1 SWAP1 POP PUSH2 0x58E JUMP JUMPDEST DUP2 PUSH2 0x4E0 JUMPI PUSH0 SWAP1 POP PUSH2 0x58E JUMP JUMPDEST DUP2 PUSH1 0x1 DUP2 EQ PUSH2 0x4F6 JUMPI PUSH1 0x2 DUP2 EQ PUSH2 0x500 JUMPI PUSH2 0x52F JUMP JUMPDEST PUSH1 0x1 SWAP2 POP POP PUSH2 0x58E JUMP JUMPDEST PUSH1 0xFF DUP5 GT ISZERO PUSH2 0x512 JUMPI PUSH2 0x511 PUSH2 0x439 JUMP JUMPDEST JUMPDEST DUP4 PUSH1 0x2 EXP SWAP2 POP DUP5 DUP3 GT ISZERO PUSH2 0x529 JUMPI PUSH2 0x528 PUSH2 0x439 JUMP JUMPDEST JUMPDEST POP PUSH2 0x58E JUMP JUMPDEST POP PUSH1 0x20 DUP4 LT PUSH2 0x133 DUP4 LT AND PUSH1 0x4E DUP5 LT PUSH1 0xB DUP5 LT AND OR ISZERO PUSH2 0x564 JUMPI DUP3 DUP3 EXP SWAP1 POP DUP4 DUP2 GT ISZERO PUSH2 0x55F JUMPI PUSH2 0x55E PUSH2 0x439 JUMP JUMPDEST JUMPDEST PUSH2 0x58E JUMP JUMPDEST PUSH2 0x571 DUP5 DUP5 DUP5 PUSH1 0x1 PUSH2 0x472 JUMP JUMPDEST SWAP3 POP SWAP1 POP DUP2 DUP5 DIV DUP2 GT ISZERO PUSH2 0x588 JUMPI PUSH2 0x587 PUSH2 0x439 JUMP JUMPDEST JUMPDEST DUP2 DUP2 MUL SWAP1 POP JUMPDEST SWAP4 SWAP3 POP POP POP JUMP JUMPDEST PUSH0 PUSH2 0x59F DUP3 PUSH2 0x242 JUMP JUMPDEST SWAP2 POP PUSH2 0x5AA DUP4 PUSH2 0x242 JUMP JUMPDEST SWAP3 POP PUSH2 0x5D7 PUSH32 0xFFFFFFFFFFFFFFFFFFFFFFFFFFFFFFFFFFFFFFFFFFFFFFFFFFFFFFFFFFFFFFFF DUP5 DUP5 PUSH2 0x4C4 JUMP JUMPDEST SWAP1 POP SWAP3 SWAP2 POP POP JUMP JUMPDEST PUSH0 PUSH2 0x5E9 DUP3 PUSH2 0x242 JUMP JUMPDEST SWAP2 POP PUSH2 0x5F4 DUP4 PUSH2 0x242 JUMP JUMPDEST SWAP3 POP DUP3 DUP3 MUL PUSH2 0x602 DUP2 PUSH2 0x242 JUMP JUMPDEST SWAP2 POP DUP3 DUP3 DIV DUP5 EQ DUP4 ISZERO OR PUSH2 0x619 JUMPI PUSH2 0x618 PUSH2 0x439 JUMP JUMPDEST JUMPDEST POP SWAP3 SWAP2 POP POP JUMP JUMPDEST PUSH2 0x1A23 DUP1 PUSH2 0x62D PUSH0 CODECOPY PUSH0 RETURN INVALID PUSH1 0x80 PUSH1 0x40 MSTORE CALLVALUE DUP1 ISZERO PUSH2 0xF JUMPI PUSH0 DUP1 REVERT JUMPDEST POP PUSH1 0x4 CALLDATASIZE LT PUSH2 0xA7 JUMPI PUSH0 CALLDATALOAD PUSH1 0xE0 SHR DUP1 PUSH4 0x2535F762 GT PUSH2 0x6F JUMPI DUP1 PUSH4 0x2535F762 EQ PUSH2 0x177 JUMPI DUP1 PUSH4 0x313CE567 EQ PUSH2 0x1A7 JUMPI DUP1 PUSH4 0x70A08231 EQ PUSH2 0x1C5 JUMPI DUP1 PUSH4 0x95D89B41 EQ PUSH2 0x1F5 JUMPI DUP1 PUSH4 0xA9059CBB EQ PUSH2 0x213 JUMPI DUP1 PUSH4 0xDD62ED3E EQ PUSH2 0x243 JUMPI PUSH2 0xA7 JUMP JUMPDEST DUP1 PUSH4 0x6FDDE03 EQ PUSH2 0xAB JUMPI DUP1 PUSH4 0x95EA7B3 EQ PUSH2 0xC9 JUMPI DUP1 PUSH4 0x18160DDD EQ PUSH2 0xF9 JUMPI DUP1 PUSH4 0x1A825B75 EQ PUSH2 0x117 JUMPI DUP1 PUSH4 0x23B872DD EQ PUSH2 0x147 JUMPI JUMPDEST PUSH0 DUP1 REVERT JUMPDEST PUSH2 0xB3 PUSH2 0x273 JUMP JUMPDEST PUSH1 0x40 MLOAD PUSH2 0xC0 SWAP2 SWAP1 PUSH2 0x1202 JUMP JUMPDEST PUSH1 0x40 MLOAD DUP1 SWAP2 SUB SWAP1 RETURN JUMPDEST PUSH2 0xE3 PUSH1 0x4 DUP1 CALLDATASIZE SUB DUP2 ADD SWAP1 PUSH2 0xDE SWAP2 SWAP1 PUSH2 0x12B7 JUMP JUMPDEST PUSH2 0x2FE JUMP JUMPDEST PUSH1 0x40 MLOAD PUSH2 0xF0 SWAP2 SWAP1 PUSH2 0x130F JUMP JUMPDEST PUSH1 0x40 MLOAD DUP1 SWAP2 SUB SWAP1 RETURN JUMPDEST PUSH2 0x101 PUSH2 0x3EB JUMP JUMPDEST PUSH1 0x40 MLOAD PUSH2 0x10E SWAP2 SWAP1 PUSH2 0x1337 JUMP JUMPDEST PUSH1 0x40 MLOAD DUP1 SWAP2 SUB SWAP1 RETURN JUMPDEST PUSH2 0x131 PUSH1 0x4 DUP1 CALLDATASIZE SUB DUP2 ADD SWAP1 PUSH2 0x12C SWAP2 SWAP1 PUSH2 0x12B7 JUMP JUMPDEST PUSH2 0x3F1 JUMP JUMPDEST PUSH1 0x40 MLOAD PUSH2 0x13E SWAP2 SWAP1 PUSH2 0x130F JUMP JUMPDEST PUSH1 0x40 MLOAD DUP1 SWAP2 SUB SWAP1 RETURN JUMPDEST PUSH2 0x161 PUSH1 0x4 DUP1 CALLDATASIZE SUB DUP2 ADD SWAP1 PUSH2 0x15C SWAP2 SWAP1 PUSH2 0x1350 JUMP JUMPDEST PUSH2 0x757 JUMP JUMPDEST PUSH1 0x40 MLOAD PUSH2 0x16E SWAP2 SWAP1 PUSH2 0x130F JUMP JUMPDEST PUSH1 0x40 MLOAD DUP1 SWAP2 SUB SWAP1 RETURN JUMPDEST PUSH2 0x191 PUSH1 0x4 DUP1 CALLDATASIZE SUB DUP2 ADD SWAP1 PUSH2 0x18C SWAP2 SWAP1 PUSH2 0x1401 JUMP JUMPDEST PUSH2 0xAA5 JUMP JUMPDEST PUSH1 0x40 MLOAD PUSH2 0x19E SWAP2 SWAP1 PUSH2 0x130F JUMP JUMPDEST PUSH1 0x40 MLOAD DUP1 SWAP2 SUB SWAP1 RETURN JUMPDEST PUSH2 0x1AF PUSH2 0xE11 JUMP JUMPDEST PUSH1 0x40 MLOAD PUSH2 0x1BC SWAP2 SWAP1 PUSH2 0x148D JUMP JUMPDEST PUSH1 0x40 MLOAD DUP1 SWAP2 SUB SWAP1 RETURN JUMPDEST PUSH2 0x1DF PUSH1 0x4 DUP1 CALLDATASIZE SUB DUP2 ADD SWAP1 PUSH2 0x1DA SWAP2 SWAP1 PUSH2 0x14A6 JUMP JUMPDEST PUSH2 0xE23 JUMP JUMPDEST PUSH1 0x40 MLOAD PUSH2 0x1EC SWAP2 SWAP1 PUSH2 0x1337 JUMP JUMPDEST PUSH1 0x40 MLOAD DUP1 SWAP2 SUB SWAP1 RETURN JUMPDEST PUSH2 0x1FD PUSH2 0xE69 JUMP JUMPDEST PUSH1 0x40 MLOAD PUSH2 0x20A SWAP2 SWAP1 PUSH2 0x1202 JUMP JUMPDEST PUSH1 0x40 MLOAD DUP1 SWAP2 SUB SWAP1 RETURN JUMPDEST PUSH2 0x22D PUSH1 0x4 DUP1 CALLDATASIZE SUB DUP2 ADD SWAP1 PUSH2 0x228 SWAP2 SWAP1 PUSH2 0x12B7 JUMP JUMPDEST PUSH2 0xEF5 JUMP JUMPDEST PUSH1 0x40 MLOAD PUSH2 0x23A SWAP2 SWAP1 PUSH2 0x130F JUMP JUMPDEST PUSH1 0x40 MLOAD DUP1 SWAP2 SUB SWAP1 RETURN JUMPDEST PUSH2 0x25D PUSH1 0x4 DUP1 CALLDATASIZE SUB DUP2 ADD SWAP1 PUSH2 0x258 SWAP2 SWAP1 PUSH2 0x14D1 JUMP JUMPDEST PUSH2 0x10F9 JUMP JUMPDEST PUSH1 0x40 MLOAD PUSH2 0x26A SWAP2 SWAP1 PUSH2 0x1337 JUMP JUMPDEST PUSH1 0x40 MLOAD DUP1 SWAP2 SUB SWAP1 RETURN JUMPDEST PUSH0 DUP1 SLOAD PUSH2 0x27F SWAP1 PUSH2 0x153C JUMP JUMPDEST DUP1 PUSH1 0x1F ADD PUSH1 0x20 DUP1 SWAP2 DIV MUL PUSH1 0x20 ADD PUSH1 0x40 MLOAD SWAP1 DUP2 ADD PUSH1 0x40 MSTORE DUP1 SWAP3 SWAP2 SWAP1 DUP2 DUP2 MSTORE PUSH1 0x20 ADD DUP3 DUP1 SLOAD PUSH2 0x2AB SWAP1 PUSH2 0x153C JUMP JUMPDEST DUP1 ISZERO PUSH2 0x2F6 JUMPI DUP1 PUSH1 0x1F LT PUSH2 0x2CD JUMPI PUSH2 0x100 DUP1 DUP4 SLOAD DIV MUL DUP4 MSTORE SWAP2 PUSH1 0x20 ADD SWAP2 PUSH2 0x2F6 JUMP JUMPDEST DUP3 ADD SWAP2 SWAP1 PUSH0 MSTORE PUSH1 0x20 PUSH0 KECCAK256 SWAP1 JUMPDEST DUP2 SLOAD DUP2 MSTORE SWAP1 PUSH1 0x1 ADD SWAP1 PUSH1 0x20 ADD DUP1 DUP4 GT PUSH2 0x2D9 JUMPI DUP3 SWAP1 SUB PUSH1 0x1F AND DUP3 ADD SWAP2 JUMPDEST POP POP POP POP POP DUP2 JUMP JUMPDEST PUSH0 DUP2 PUSH1 0x5 PUSH0 CALLER PUSH20 0xFFFFFFFFFFFFFFFFFFFFFFFFFFFFFFFFFFFFFFFF AND PUSH20 0xFFFFFFFFFFFFFFFFFFFFFFFFFFFFFFFFFFFFFFFF AND DUP2 MSTORE PUSH1 0x20 ADD SWAP1 DUP2 MSTORE PUSH1 0x20 ADD PUSH0 KECCAK256 PUSH0 DUP6 PUSH20 0xFFFFFFFFFFFFFFFFFFFFFFFFFFFFFFFFFFFFFFFF AND PUSH20 0xFFFFFFFFFFFFFFFFFFFFFFFFFFFFFFFFFFFFFFFF AND DUP2 MSTORE PUSH1 0x20 ADD SWAP1 DUP2 MSTORE PUSH1 0x20 ADD PUSH0 KECCAK256 DUP2 SWAP1 SSTORE POP DUP3 PUSH20 0xFFFFFFFFFFFFFFFFFFFFFFFFFFFFFFFFFFFFFFFF AND CALLER PUSH20 0xFFFFFFFFFFFFFFFFFFFFFFFFFFFFFFFFFFFFFFFF AND PUSH32 0x8C5BE1E5EBEC7D5BD14F71427D1E84F3DD0314C0F7B2291E5B200AC8C7C3B925 DUP5 PUSH1 0x40 MLOAD PUSH2 0x3D9 SWAP2 SWAP1 PUSH2 0x1337 JUMP JUMPDEST PUSH1 0x40 MLOAD DUP1 SWAP2 SUB SWAP1 LOG3 PUSH1 0x1 SWAP1 POP SWAP3 SWAP2 POP POP JUMP JUMPDEST PUSH1 0x3 SLOAD DUP2 JUMP JUMPDEST PUSH0 DUP1 PUSH20 0xFFFFFFFFFFFFFFFFFFFFFFFFFFFFFFFFFFFFFFFF AND DUP4 PUSH20 0xFFFFFFFFFFFFFFFFFFFFFFFFFFFFFFFFFFFFFFFF AND SUB PUSH2 0x460 JUMPI PUSH1 0x40 MLOAD PUSH32 0x8C379A000000000000000000000000000000000000000000000000000000000 DUP2 MSTORE PUSH1 0x4 ADD PUSH2 0x457 SWAP1 PUSH2 0x15B6 JUMP JUMPDEST PUSH1 0x40 MLOAD DUP1 SWAP2 SUB SWAP1 REVERT JUMPDEST DUP2 PUSH1 0x4 PUSH0 CALLER PUSH20 0xFFFFFFFFFFFFFFFFFFFFFFFFFFFFFFFFFFFFFFFF AND PUSH20 0xFFFFFFFFFFFFFFFFFFFFFFFFFFFFFFFFFFFFFFFF AND DUP2 MSTORE PUSH1 0x20 ADD SWAP1 DUP2 MSTORE PUSH1 0x20 ADD PUSH0 KECCAK256 SLOAD LT ISZERO PUSH2 0x4E0 JUMPI PUSH1 0x40 MLOAD PUSH32 0x8C379A000000000000000000000000000000000000000000000000000000000 DUP2 MSTORE PUSH1 0x4 ADD PUSH2 0x4D7 SWAP1 PUSH2 0x1644 JUMP JUMPDEST PUSH1 0x40 MLOAD DUP1 SWAP2 SUB SWAP1 REVERT JUMPDEST DUP2 PUSH1 0x4 PUSH0 CALLER PUSH20 0xFFFFFFFFFFFFFFFFFFFFFFFFFFFFFFFFFFFFFFFF AND PUSH20 0xFFFFFFFFFFFFFFFFFFFFFFFFFFFFFFFFFFFFFFFF AND DUP2 MSTORE PUSH1 0x20 ADD SWAP1 DUP2 MSTORE PUSH1 0x20 ADD PUSH0 KECCAK256 PUSH0 DUP3 DUP3 SLOAD PUSH2 0x52C SWAP2 SWAP1 PUSH2 0x168F JUMP JUMPDEST SWAP3 POP POP DUP2 SWAP1 SSTORE POP DUP2 PUSH1 0x4 PUSH0 DUP6 PUSH20 0xFFFFFFFFFFFFFFFFFFFFFFFFFFFFFFFFFFFFFFFF AND PUSH20 0xFFFFFFFFFFFFFFFFFFFFFFFFFFFFFFFFFFFFFFFF AND DUP2 MSTORE PUSH1 0x20 ADD SWAP1 DUP2 MSTORE PUSH1 0x20 ADD PUSH0 KECCAK256 PUSH0 DUP3 DUP3 SLOAD PUSH2 0x57F SWAP2 SWAP1 PUSH2 0x16C2 JUMP JUMPDEST SWAP3 POP POP DUP2 SWAP1 SSTORE POP DUP3 PUSH20 0xFFFFFFFFFFFFFFFFFFFFFFFFFFFFFFFFFFFFFFFF AND CALLER PUSH20 0xFFFFFFFFFFFFFFFFFFFFFFFFFFFFFFFFFFFFFFFF AND PUSH32 0xDDF252AD1BE2C89B69C2B068FC378DAA952BA7F163C4A11628F55A4DF523B3EF DUP5 PUSH1 0x40 MLOAD PUSH2 0x5E3 SWAP2 SWAP1 PUSH2 0x1337 JUMP JUMPDEST PUSH1 0x40 MLOAD DUP1 SWAP2 SUB SWAP1 LOG3 PUSH2 0x60A DUP4 PUSH20 0xFFFFFFFFFFFFFFFFFFFFFFFFFFFFFFFFFFFFFFFF AND PUSH2 0x117B JUMP JUMPDEST ISZERO PUSH2 0x74D JUMPI DUP3 PUSH20 0xFFFFFFFFFFFFFFFFFFFFFFFFFFFFFFFFFFFFFFFF AND PUSH4 0xD0314263 CALLER DUP5 PUSH1 0x40 MLOAD DUP4 PUSH4 0xFFFFFFFF AND PUSH1 0xE0 SHL DUP2 MSTORE PUSH1 0x4 ADD PUSH2 0x64A SWAP3 SWAP2 SWAP1 PUSH2 0x1737 JUMP JUMPDEST PUSH1 0x20 PUSH1 0x40 MLOAD DUP1 DUP4 SUB DUP2 PUSH0 DUP8 GAS CALL SWAP3 POP POP POP DUP1 ISZERO PUSH2 0x685 JUMPI POP PUSH1 0x40 MLOAD RETURNDATASIZE PUSH1 0x1F NOT PUSH1 0x1F DUP3 ADD AND DUP3 ADD DUP1 PUSH1 0x40 MSTORE POP DUP2 ADD SWAP1 PUSH2 0x682 SWAP2 SWAP1 PUSH2 0x17C6 JUMP JUMPDEST PUSH1 0x1 JUMPDEST PUSH2 0x6C4 JUMPI PUSH1 0x40 MLOAD PUSH32 0x8C379A000000000000000000000000000000000000000000000000000000000 DUP2 MSTORE PUSH1 0x4 ADD PUSH2 0x6BB SWAP1 PUSH2 0x1861 JUMP JUMPDEST PUSH1 0x40 MLOAD DUP1 SWAP2 SUB SWAP1 REVERT JUMPDEST PUSH4 0xD0314263 PUSH1 0xE0 SHL PUSH28 0xFFFFFFFFFFFFFFFFFFFFFFFFFFFFFFFFFFFFFFFFFFFFFFFFFFFFFFFF NOT AND DUP2 PUSH28 0xFFFFFFFFFFFFFFFFFFFFFFFFFFFFFFFFFFFFFFFFFFFFFFFFFFFFFFFF NOT AND EQ PUSH2 0x74B JUMPI PUSH1 0x40 MLOAD PUSH32 0x8C379A000000000000000000000000000000000000000000000000000000000 DUP2 MSTORE PUSH1 0x4 ADD PUSH2 0x742 SWAP1 PUSH2 0x18C9 JUMP JUMPDEST PUSH1 0x40 MLOAD DUP1 SWAP2 SUB SWAP1 REVERT JUMPDEST POP JUMPDEST PUSH1 0x1 SWAP1 POP SWAP3 SWAP2 POP POP JUMP JUMPDEST PUSH0 DUP1 PUSH20 0xFFFFFFFFFFFFFFFFFFFFFFFFFFFFFFFFFFFFFFFF AND DUP4 PUSH20 0xFFFFFFFFFFFFFFFFFFFFFFFFFFFFFFFFFFFFFFFF AND SUB PUSH2 0x7C6 JUMPI PUSH1 0x40 MLOAD PUSH32 0x8C379A000000000000000000000000000000000000000000000000000000000 DUP2 MSTORE PUSH1 0x4 ADD PUSH2 0x7BD SWAP1 PUSH2 0x15B6 JUMP JUMPDEST PUSH1 0x40 MLOAD DUP1 SWAP2 SUB SWAP1 REVERT JUMPDEST DUP2 PUSH1 0x4 PUSH0 DUP7 PUSH20 0xFFFFFFFFFFFFFFFFFFFFFFFFFFFFFFFFFFFFFFFF AND PUSH20 0xFFFFFFFFFFFFFFFFFFFFFFFFFFFFFFFFFFFFFFFF AND DUP2 MSTORE PUSH1 0x20 ADD SWAP1 DUP2 MSTORE PUSH1 0x20 ADD PUSH0 KECCAK256 SLOAD LT ISZERO PUSH2 0x846 JUMPI PUSH1 0x40 MLOAD PUSH32 0x8C379A000000000000000000000000000000000000000000000000000000000 DUP2 MSTORE PUSH1 0x4 ADD PUSH2 0x83D SWAP1 PUSH2 0x1644 JUMP JUMPDEST PUSH1 0x40 MLOAD DUP1 SWAP2 SUB SWAP1 REVERT JUMPDEST DUP2 PUSH1 0x5 PUSH0 DUP7 PUSH20 0xFFFFFFFFFFFFFFFFFFFFFFFFFFFFFFFFFFFFFFFF AND PUSH20 0xFFFFFFFFFFFFFFFFFFFFFFFFFFFFFFFFFFFFFFFF AND DUP2 MSTORE PUSH1 0x20 ADD SWAP1 DUP2 MSTORE PUSH1 0x20 ADD PUSH0 KECCAK256 PUSH0 CALLER PUSH20 0xFFFFFFFFFFFFFFFFFFFFFFFFFFFFFFFFFFFFFFFF AND PUSH20 0xFFFFFFFFFFFFFFFFFFFFFFFFFFFFFFFFFFFFFFFF AND DUP2 MSTORE PUSH1 0x20 ADD SWAP1 DUP2 MSTORE PUSH1 0x20 ADD PUSH0 KECCAK256 SLOAD LT ISZERO PUSH2 0x901 JUMPI PUSH1 0x40 MLOAD PUSH32 0x8C379A000000000000000000000000000000000000000000000000000000000 DUP2 MSTORE PUSH1 0x4 ADD PUSH2 0x8F8 SWAP1 PUSH2 0x1957 JUMP JUMPDEST PUSH1 0x40 MLOAD DUP1 SWAP2 SUB SWAP1 REVERT JUMPDEST DUP2 PUSH1 0x4 PUSH0 DUP7 PUSH20 0xFFFFFFFFFFFFFFFFFFFFFFFFFFFFFFFFFFFFFFFF AND PUSH20 0xFFFFFFFFFFFFFFFFFFFFFFFFFFFFFFFFFFFFFFFF AND DUP2 MSTORE PUSH1 0x20 ADD SWAP1 DUP2 MSTORE PUSH1 0x20 ADD PUSH0 KECCAK256 PUSH0 DUP3 DUP3 SLOAD PUSH2 0x94D SWAP2 SWAP1 PUSH2 0x168F JUMP JUMPDEST SWAP3 POP POP DUP2 SWAP1 SSTORE POP DUP2 PUSH1 0x4 PUSH0 DUP6 PUSH20 0xFFFFFFFFFFFFFFFFFFFFFFFFFFFFFFFFFFFFFFFF AND PUSH20 0xFFFFFFFFFFFFFFFFFFFFFFFFFFFFFFFFFFFFFFFF AND DUP2 MSTORE PUSH1 0x20 ADD SWAP1 DUP2 MSTORE PUSH1 0x20 ADD PUSH0 KECCAK256 PUSH0 DUP3 DUP3 SLOAD PUSH2 0x9A0 SWAP2 SWAP1 PUSH2 0x16C2 JUMP JUMPDEST SWAP3 POP POP DUP2 SWAP1 SSTORE POP DUP2 PUSH1 0x5 PUSH0 DUP7 PUSH20 0xFFFFFFFFFFFFFFFFFFFFFFFFFFFFFFFFFFFFFFFF AND PUSH20 0xFFFFFFFFFFFFFFFFFFFFFFFFFFFFFFFFFFFFFFFF AND DUP2 MSTORE PUSH1 0x20 ADD SWAP1 DUP2 MSTORE PUSH1 0x20 ADD PUSH0 KECCAK256 PUSH0 CALLER PUSH20 0xFFFFFFFFFFFFFFFFFFFFFFFFFFFFFFFFFFFFFFFF AND PUSH20 0xFFFFFFFFFFFFFFFFFFFFFFFFFFFFFFFFFFFFFFFF AND DUP2 MSTORE PUSH1 0x20 ADD SWAP1 DUP2 MSTORE PUSH1 0x20 ADD PUSH0 KECCAK256 PUSH0 DUP3 DUP3 SLOAD PUSH2 0xA2E SWAP2 SWAP1 PUSH2 0x168F JUMP JUMPDEST SWAP3 POP POP DUP2 SWAP1 SSTORE POP DUP3 PUSH20 0xFFFFFFFFFFFFFFFFFFFFFFFFFFFFFFFFFFFFFFFF AND DUP5 PUSH20 0xFFFFFFFFFFFFFFFFFFFFFFFFFFFFFFFFFFFFFFFF AND PUSH32 0xDDF252AD1BE2C89B69C2B068FC378DAA952BA7F163C4A11628F55A4DF523B3EF DUP5 PUSH1 0x40 MLOAD PUSH2 0xA92 SWAP2 SWAP1 PUSH2 0x1337 JUMP JUMPDEST PUSH1 0x40 MLOAD DUP1 SWAP2 SUB SWAP1 LOG3 PUSH1 0x1 SWAP1 POP SWAP4 SWAP3 POP POP POP JUMP JUMPDEST PUSH0 DUP1 PUSH20 0xFFFFFFFFFFFFFFFFFFFFFFFFFFFFFFFFFFFFFFFF AND DUP6 PUSH20 0xFFFFFFFFFFFFFFFFFFFFFFFFFFFFFFFFFFFFFFFF AND SUB PUSH2 0xB14 JUMPI PUSH1 0x40 MLOAD PUSH32 0x8C379A000000000000000000000000000000000000000000000000000000000 DUP2 MSTORE PUSH1 0x4 ADD PUSH2 0xB0B SWAP1 PUSH2 0x15B6 JUMP JUMPDEST PUSH1 0x40 MLOAD DUP1 SWAP2 SUB SWAP1 REVERT JUMPDEST DUP4 PUSH1 0x4 PUSH0 CALLER PUSH20 0xFFFFFFFFFFFFFFFFFFFFFFFFFFFFFFFFFFFFFFFF AND PUSH20 0xFFFFFFFFFFFFFFFFFFFFFFFFFFFFFFFFFFFFFFFF AND DUP2 MSTORE PUSH1 0x20 ADD SWAP1 DUP2 MSTORE PUSH1 0x20 ADD PUSH0 KECCAK256 SLOAD LT ISZERO PUSH2 0xB94 JUMPI PUSH1 0x40 MLOAD PUSH32 0x8C379A000000000000000000000000000000000000000000000000000000000 DUP2 MSTORE PUSH1 0x4 ADD PUSH2 0xB8B SWAP1 PUSH2 0x1644 JUMP JUMPDEST PUSH1 0x40 MLOAD DUP1 SWAP2 SUB SWAP1 REVERT JUMPDEST DUP4 PUSH1 0x4 PUSH0 CALLER PUSH20 0xFFFFFFFFFFFFFFFFFFFFFFFFFFFFFFFFFFFFFFFF AND PUSH20 0xFFFFFFFFFFFFFFFFFFFFFFFFFFFFFFFFFFFFFFFF AND DUP2 MSTORE PUSH1 0x20 ADD SWAP1 DUP2 MSTORE PUSH1 0x20 ADD PUSH0 KECCAK256 PUSH0 DUP3 DUP3 SLOAD PUSH2 0xBE0 SWAP2 SWAP1 PUSH2 0x168F JUMP JUMPDEST SWAP3 POP POP DUP2 SWAP1 SSTORE POP DUP4 PUSH1 0x4 PUSH0 DUP8 PUSH20 0xFFFFFFFFFFFFFFFFFFFFFFFFFFFFFFFFFFFFFFFF AND PUSH20 0xFFFFFFFFFFFFFFFFFFFFFFFFFFFFFFFFFFFFFFFF AND DUP2 MSTORE PUSH1 0x20 ADD SWAP1 DUP2 MSTORE PUSH1 0x20 ADD PUSH0 KECCAK256 PUSH0 DUP3 DUP3 SLOAD PUSH2 0xC33 SWAP2 SWAP1 PUSH2 0x16C2 JUMP JUMPDEST SWAP3 POP POP DUP2 SWAP1 SSTORE POP DUP5 PUSH20 0xFFFFFFFFFFFFFFFFFFFFFFFFFFFFFFFFFFFFFFFF AND CALLER PUSH20 0xFFFFFFFFFFFFFFFFFFFFFFFFFFFFFFFFFFFFFFFF AND PUSH32 0xDDF252AD1BE2C89B69C2B068FC378DAA952BA7F163C4A11628F55A4DF523B3EF DUP7 PUSH1 0x40 MLOAD PUSH2 0xC97 SWAP2 SWAP1 PUSH2 0x1337 JUMP JUMPDEST PUSH1 0x40 MLOAD DUP1 SWAP2 SUB SWAP1 LOG3 PUSH2 0xCBE DUP6 PUSH20 0xFFFFFFFFFFFFFFFFFFFFFFFFFFFFFFFFFFFFFFFF AND PUSH2 0x117B JUMP JUMPDEST ISZERO PUSH2 0xE05 JUMPI DUP5 PUSH20 0xFFFFFFFFFFFFFFFFFFFFFFFFFFFFFFFFFFFFFFFF AND PUSH4 0xD0314263 CALLER DUP7 DUP7 DUP7 PUSH1 0x40 MLOAD DUP6 PUSH4 0xFFFFFFFF AND PUSH1 0xE0 SHL DUP2 MSTORE PUSH1 0x4 ADD PUSH2 0xD02 SWAP5 SWAP4 SWAP3 SWAP2 SWAP1 PUSH2 0x19AF JUMP JUMPDEST PUSH1 0x20 PUSH1 0x40 MLOAD DUP1 DUP4 SUB DUP2 PUSH0 DUP8 GAS CALL SWAP3 POP POP POP DUP1 ISZERO PUSH2 0xD3D JUMPI POP PUSH1 0x40 MLOAD RETURNDATASIZE PUSH1 0x1F NOT PUSH1 0x1F DUP3 ADD AND DUP3 ADD DUP1 PUSH1 0x40 MSTORE POP DUP2 ADD SWAP1 PUSH2 0xD3A SWAP2 SWAP1 PUSH2 0x17C6 JUMP JUMPDEST PUSH1 0x1 JUMPDEST PUSH2 0xD7C JUMPI PUSH1 0x40 MLOAD PUSH32 0x8C379A000000000000000000000000000000000000000000000000000000000 DUP2 MSTORE PUSH1 0x4 ADD PUSH2 0xD73 SWAP1 PUSH2 0x1861 JUMP JUMPDEST PUSH1 0x40 MLOAD DUP1 SWAP2 SUB SWAP1 REVERT JUMPDEST PUSH4 0xD0314263 PUSH1 0xE0 SHL PUSH28 0xFFFFFFFFFFFFFFFFFFFFFFFFFFFFFFFFFFFFFFFFFFFFFFFFFFFFFFFF NOT AND DUP2 PUSH28 0xFFFFFFFFFFFFFFFFFFFFFFFFFFFFFFFFFFFFFFFFFFFFFFFFFFFFFFFF NOT AND EQ PUSH2 0xE03 JUMPI PUSH1 0x40 MLOAD PUSH32 0x8C379A000000000000000000000000000000000000000000000000000000000 DUP2 MSTORE PUSH1 0x4 ADD PUSH2 0xDFA SWAP1 PUSH2 0x18C9 JUMP JUMPDEST PUSH1 0x40 MLOAD DUP1 SWAP2 SUB SWAP1 REVERT JUMPDEST POP JUMPDEST PUSH1 0x1 SWAP1 POP SWAP5 SWAP4 POP POP POP POP JUMP JUMPDEST PUSH1 0x2 PUSH0 SWAP1 SLOAD SWAP1 PUSH2 0x100 EXP SWAP1 DIV PUSH1 0xFF AND DUP2 JUMP JUMPDEST PUSH0 PUSH1 0x4 PUSH0 DUP4 PUSH20 0xFFFFFFFFFFFFFFFFFFFFFFFFFFFFFFFFFFFFFFFF AND PUSH20 0xFFFFFFFFFFFFFFFFFFFFFFFFFFFFFFFFFFFFFFFF AND DUP2 MSTORE PUSH1 0x20 ADD SWAP1 DUP2 MSTORE PUSH1 0x20 ADD PUSH0 KECCAK256 SLOAD SWAP1 POP SWAP2 SWAP1 POP JUMP JUMPDEST PUSH1 0x1 DUP1 SLOAD PUSH2 0xE76 SWAP1 PUSH2 0x153C JUMP JUMPDEST DUP1 PUSH1 0x1F ADD PUSH1 0x20 DUP1 SWAP2 DIV MUL PUSH1 0x20 ADD PUSH1 0x40 MLOAD SWAP1 DUP2 ADD PUSH1 0x40 MSTORE DUP1 SWAP3 SWAP2 SWAP1 DUP2 DUP2 MSTORE PUSH1 0x20 ADD DUP3 DUP1 SLOAD PUSH2 0xEA2 SWAP1 PUSH2 0x153C JUMP JUMPDEST DUP1 ISZERO PUSH2 0xEED JUMPI DUP1 PUSH1 0x1F LT PUSH2 0xEC4 JUMPI PUSH2 0x100 DUP1 DUP4 SLOAD DIV MUL DUP4 MSTORE SWAP2 PUSH1 0x20 ADD SWAP2 PUSH2 0xEED JUMP JUMPDEST DUP3 ADD SWAP2 SWAP1 PUSH0 MSTORE PUSH1 0x20 PUSH0 KECCAK256 SWAP1 JUMPDEST DUP2 SLOAD DUP2 MSTORE SWAP1 PUSH1 0x1 ADD SWAP1 PUSH1 0x20 ADD DUP1 DUP4 GT PUSH2 0xED0 JUMPI DUP3 SWAP1 SUB PUSH1 0x1F AND DUP3 ADD SWAP2 JUMPDEST POP POP POP POP POP DUP2 JUMP JUMPDEST PUSH0 DUP1 PUSH20 0xFFFFFFFFFFFFFFFFFFFFFFFFFFFFFFFFFFFFFFFF AND DUP4 PUSH20 0xFFFFFFFFFFFFFFFFFFFFFFFFFFFFFFFFFFFFFFFF AND SUB PUSH2 0xF64 JUMPI PUSH1 0x40 MLOAD PUSH32 0x8C379A000000000000000000000000000000000000000000000000000000000 DUP2 MSTORE PUSH1 0x4 ADD PUSH2 0xF5B SWAP1 PUSH2 0x15B6 JUMP JUMPDEST PUSH1 0x40 MLOAD DUP1 SWAP2 SUB SWAP1 REVERT JUMPDEST DUP2 PUSH1 0x4 PUSH0 CALLER PUSH20 0xFFFFFFFFFFFFFFFFFFFFFFFFFFFFFFFFFFFFFFFF AND PUSH20 0xFFFFFFFFFFFFFFFFFFFFFFFFFFFFFFFFFFFFFFFF AND DUP2 MSTORE PUSH1 0x20 ADD SWAP1 DUP2 MSTORE PUSH1 0x20 ADD PUSH0 KECCAK256 SLOAD LT ISZERO PUSH2 0xFE4 JUMPI PUSH1 0x40 MLOAD PUSH32 0x8C379A000000000000000000000000000000000000000000000000000000000 DUP2 MSTORE PUSH1 0x4 ADD PUSH2 0xFDB SWAP1 PUSH2 0x1644 JUMP JUMPDEST PUSH1 0x40 MLOAD DUP1 SWAP2 SUB SWAP1 REVERT JUMPDEST DUP2 PUSH1 0x4 PUSH0 CALLER PUSH20 0xFFFFFFFFFFFFFFFFFFFFFFFFFFFFFFFFFFFFFFFF AND PUSH20 0xFFFFFFFFFFFFFFFFFFFFFFFFFFFFFFFFFFFFFFFF AND DUP2 MSTORE PUSH1 0x20 ADD SWAP1 DUP2 MSTORE PUSH1 0x20 ADD PUSH0 KECCAK256 PUSH0 DUP3 DUP3 SLOAD PUSH2 0x1030 SWAP2 SWAP1 PUSH2 0x168F JUMP JUMPDEST SWAP3 POP POP DUP2 SWAP1 SSTORE POP DUP2 PUSH1 0x4 PUSH0 DUP6 PUSH20 0xFFFFFFFFFFFFFFFFFFFFFFFFFFFFFFFFFFFFFFFF AND PUSH20 0xFFFFFFFFFFFFFFFFFFFFFFFFFFFFFFFFFFFFFFFF AND DUP2 MSTORE PUSH1 0x20 ADD SWAP1 DUP2 MSTORE PUSH1 0x20 ADD PUSH0 KECCAK256 PUSH0 DUP3 DUP3 SLOAD PUSH2 0x1083 SWAP2 SWAP1 PUSH2 0x16C2 JUMP JUMPDEST SWAP3 POP POP DUP2 SWAP1 SSTORE POP DUP3 PUSH20 0xFFFFFFFFFFFFFFFFFFFFFFFFFFFFFFFFFFFFFFFF AND CALLER PUSH20 0xFFFFFFFFFFFFFFFFFFFFFFFFFFFFFFFFFFFFFFFF AND PUSH32 0xDDF252AD1BE2C89B69C2B068FC378DAA952BA7F163C4A11628F55A4DF523B3EF DUP5 PUSH1 0x40 MLOAD PUSH2 0x10E7 SWAP2 SWAP1 PUSH2 0x1337 JUMP JUMPDEST PUSH1 0x40 MLOAD DUP1 SWAP2 SUB SWAP1 LOG3 PUSH1 0x1 SWAP1 POP SWAP3 SWAP2 POP POP JUMP JUMPDEST PUSH0 PUSH1 0x5 PUSH0 DUP5 PUSH20 0xFFFFFFFFFFFFFFFFFFFFFFFFFFFFFFFFFFFFFFFF AND PUSH20 0xFFFFFFFFFFFFFFFFFFFFFFFFFFFFFFFFFFFFFFFF AND DUP2 MSTORE PUSH1 0x20 ADD SWAP1 DUP2 MSTORE PUSH1 0x20 ADD PUSH0 KECCAK256 PUSH0 DUP4 PUSH20 0xFFFFFFFFFFFFFFFFFFFFFFFFFFFFFFFFFFFFFFFF AND PUSH20 0xFFFFFFFFFFFFFFFFFFFFFFFFFFFFFFFFFFFFFFFF AND DUP2 MSTORE PUSH1 0x20 ADD SWAP1 DUP2 MSTORE PUSH1 0x20 ADD PUSH0 KECCAK256 SLOAD SWAP1 POP SWAP3 SWAP2 POP POP JUMP JUMPDEST PUSH0 DUP1 DUP3 EXTCODESIZE SWAP1 POP PUSH0 DUP2 PUSH4 0xFFFFFFFF AND GT SWAP2 POP POP SWAP2 SWAP1 POP JUMP JUMPDEST PUSH0 DUP2 MLOAD SWAP1 POP SWAP2 SWAP1 POP JUMP JUMPDEST PUSH0 DUP3 DUP3 MSTORE PUSH1 0x20 DUP3 ADD SWAP1 POP SWAP3 SWAP2 POP POP JUMP JUMPDEST DUP3 DUP2 DUP4 MCOPY PUSH0 DUP4 DUP4 ADD MSTORE POP POP POP JUMP JUMPDEST PUSH0 PUSH1 0x1F NOT PUSH1 0x1F DUP4 ADD AND SWAP1 POP SWAP2 SWAP1 POP JUMP JUMPDEST PUSH0 PUSH2 0x11D4 DUP3 PUSH2 0x1192 JUMP JUMPDEST PUSH2 0x11DE DUP2 DUP6 PUSH2 0x119C JUMP JUMPDEST SWAP4 POP PUSH2 0x11EE DUP2 DUP6 PUSH1 0x20 DUP7 ADD PUSH2 0x11AC JUMP JUMPDEST PUSH2 0x11F7 DUP2 PUSH2 0x11BA JUMP JUMPDEST DUP5 ADD SWAP2 POP POP SWAP3 SWAP2 POP POP JUMP JUMPDEST PUSH0 PUSH1 0x20 DUP3 ADD SWAP1 POP DUP2 DUP2 SUB PUSH0 DUP4 ADD MSTORE PUSH2 0x121A DUP2 DUP5 PUSH2 0x11CA JUMP JUMPDEST SWAP1 POP SWAP3 SWAP2 POP POP JUMP JUMPDEST PUSH0 DUP1 REVERT JUMPDEST PUSH0 DUP1 REVERT JUMPDEST PUSH0 PUSH20 0xFFFFFFFFFFFFFFFFFFFFFFFFFFFFFFFFFFFFFFFF DUP3 AND SWAP1 POP SWAP2 SWAP1 POP JUMP JUMPDEST PUSH0 PUSH2 0x1253 DUP3 PUSH2 0x122A JUMP JUMPDEST SWAP1 POP SWAP2 SWAP1 POP JUMP JUMPDEST PUSH2 0x1263 DUP2 PUSH2 0x1249 JUMP JUMPDEST DUP2 EQ PUSH2 0x126D JUMPI PUSH0 DUP1 REVERT JUMPDEST POP JUMP JUMPDEST PUSH0 DUP2 CALLDATALOAD SWAP1 POP PUSH2 0x127E DUP2 PUSH2 0x125A JUMP JUMPDEST SWAP3 SWAP2 POP POP JUMP JUMPDEST PUSH0 DUP2 SWAP1 POP SWAP2 SWAP1 POP JUMP JUMPDEST PUSH2 0x1296 DUP2 PUSH2 0x1284 JUMP JUMPDEST DUP2 EQ PUSH2 0x12A0 JUMPI PUSH0 DUP1 REVERT JUMPDEST POP JUMP JUMPDEST PUSH0 DUP2 CALLDATALOAD SWAP1 POP PUSH2 0x12B1 DUP2 PUSH2 0x128D JUMP JUMPDEST SWAP3 SWAP2 POP POP JUMP JUMPDEST PUSH0 DUP1 PUSH1 0x40 DUP4 DUP6 SUB SLT ISZERO PUSH2 0x12CD JUMPI PUSH2 0x12CC PUSH2 0x1222 JUMP JUMPDEST JUMPDEST PUSH0 PUSH2 0x12DA DUP6 DUP3 DUP7 ADD PUSH2 0x1270 JUMP JUMPDEST SWAP3 POP POP PUSH1 0x20 PUSH2 0x12EB DUP6 DUP3 DUP7 ADD PUSH2 0x12A3 JUMP JUMPDEST SWAP2 POP POP SWAP3 POP SWAP3 SWAP1 POP JUMP JUMPDEST PUSH0 DUP2 ISZERO ISZERO SWAP1 POP SWAP2 SWAP1 POP JUMP JUMPDEST PUSH2 0x1309 DUP2 PUSH2 0x12F5 JUMP JUMPDEST DUP3 MSTORE POP POP JUMP JUMPDEST PUSH0 PUSH1 0x20 DUP3 ADD SWAP1 POP PUSH2 0x1322 PUSH0 DUP4 ADD DUP5 PUSH2 0x1300 JUMP JUMPDEST SWAP3 SWAP2 POP POP JUMP JUMPDEST PUSH2 0x1331 DUP2 PUSH2 0x1284 JUMP JUMPDEST DUP3 MSTORE POP POP JUMP JUMPDEST PUSH0 PUSH1 0x20 DUP3 ADD SWAP1 POP PUSH2 0x134A PUSH0 DUP4 ADD DUP5 PUSH2 0x1328 JUMP JUMPDEST SWAP3 SWAP2 POP POP JUMP JUMPDEST PUSH0 DUP1 PUSH0 PUSH1 0x60 DUP5 DUP7 SUB SLT ISZERO PUSH2 0x1367 JUMPI PUSH2 0x1366 PUSH2 0x1222 JUMP JUMPDEST JUMPDEST PUSH0 PUSH2 0x1374 DUP7 DUP3 DUP8 ADD PUSH2 0x1270 JUMP JUMPDEST SWAP4 POP POP PUSH1 0x20 PUSH2 0x1385 DUP7 DUP3 DUP8 ADD PUSH2 0x1270 JUMP JUMPDEST SWAP3 POP POP PUSH1 0x40 PUSH2 0x1396 DUP7 DUP3 DUP8 ADD PUSH2 0x12A3 JUMP JUMPDEST SWAP2 POP POP SWAP3 POP SWAP3 POP SWAP3 JUMP JUMPDEST PUSH0 DUP1 REVERT JUMPDEST PUSH0 DUP1 REVERT JUMPDEST PUSH0 DUP1 REVERT JUMPDEST PUSH0 DUP1 DUP4 PUSH1 0x1F DUP5 ADD SLT PUSH2 0x13C1 JUMPI PUSH2 0x13C0 PUSH2 0x13A0 JUMP JUMPDEST JUMPDEST DUP3 CALLDATALOAD SWAP1 POP PUSH8 0xFFFFFFFFFFFFFFFF DUP2 GT ISZERO PUSH2 0x13DE JUMPI PUSH2 0x13DD PUSH2 0x13A4 JUMP JUMPDEST JUMPDEST PUSH1 0x20 DUP4 ADD SWAP2 POP DUP4 PUSH1 0x1 DUP3 MUL DUP4 ADD GT ISZERO PUSH2 0x13FA JUMPI PUSH2 0x13F9 PUSH2 0x13A8 JUMP JUMPDEST JUMPDEST SWAP3 POP SWAP3 SWAP1 POP JUMP JUMPDEST PUSH0 DUP1 PUSH0 DUP1 PUSH1 0x60 DUP6 DUP8 SUB SLT ISZERO PUSH2 0x1419 JUMPI PUSH2 0x1418 PUSH2 0x1222 JUMP JUMPDEST JUMPDEST PUSH0 PUSH2 0x1426 DUP8 DUP3 DUP9 ADD PUSH2 0x1270 JUMP JUMPDEST SWAP5 POP POP PUSH1 0x20 PUSH2 0x1437 DUP8 DUP3 DUP9 ADD PUSH2 0x12A3 JUMP JUMPDEST SWAP4 POP POP PUSH1 0x40 DUP6 ADD CALLDATALOAD PUSH8 0xFFFFFFFFFFFFFFFF DUP2 GT ISZERO PUSH2 0x1458 JUMPI PUSH2 0x1457 PUSH2 0x1226 JUMP JUMPDEST JUMPDEST PUSH2 0x1464 DUP8 DUP3 DUP9 ADD PUSH2 0x13AC JUMP JUMPDEST SWAP3 POP SWAP3 POP POP SWAP3 SWAP6 SWAP2 SWAP5 POP SWAP3 POP JUMP JUMPDEST PUSH0 PUSH1 0xFF DUP3 AND SWAP1 POP SWAP2 SWAP1 POP JUMP JUMPDEST PUSH2 0x1487 DUP2 PUSH2 0x1472 JUMP JUMPDEST DUP3 MSTORE POP POP JUMP JUMPDEST PUSH0 PUSH1 0x20 DUP3 ADD SWAP1 POP PUSH2 0x14A0 PUSH0 DUP4 ADD DUP5 PUSH2 0x147E JUMP JUMPDEST SWAP3 SWAP2 POP POP JUMP JUMPDEST PUSH0 PUSH1 0x20 DUP3 DUP5 SUB SLT ISZERO PUSH2 0x14BB JUMPI PUSH2 0x14BA PUSH2 0x1222 JUMP JUMPDEST JUMPDEST PUSH0 PUSH2 0x14C8 DUP5 DUP3 DUP6 ADD PUSH2 0x1270 JUMP JUMPDEST SWAP2 POP POP SWAP3 SWAP2 POP POP JUMP JUMPDEST PUSH0 DUP1 PUSH1 0x40 DUP4 DUP6 SUB SLT ISZERO PUSH2 0x14E7 JUMPI PUSH2 0x14E6 PUSH2 0x1222 JUMP JUMPDEST JUMPDEST PUSH0 PUSH2 0x14F4 DUP6 DUP3 DUP7 ADD PUSH2 0x1270 JUMP JUMPDEST SWAP3 POP POP PUSH1 0x20 PUSH2 0x1505 DUP6 DUP3 DUP7 ADD PUSH2 0x1270 JUMP JUMPDEST SWAP2 POP POP SWAP3 POP SWAP3 SWAP1 POP JUMP JUMPDEST PUSH32 0x4E487B7100000000000000000000000000000000000000000000000000000000 PUSH0 MSTORE PUSH1 0x22 PUSH1 0x4 MSTORE PUSH1 0x24 PUSH0 REVERT JUMPDEST PUSH0 PUSH1 0x2 DUP3 DIV SWAP1 POP PUSH1 0x1 DUP3 AND DUP1 PUSH2 0x1553 JUMPI PUSH1 0x7F DUP3 AND SWAP2 POP JUMPDEST PUSH1 0x20 DUP3 LT DUP2 SUB PUSH2 0x1566 JUMPI PUSH2 0x1565 PUSH2 0x150F JUMP JUMPDEST JUMPDEST POP SWAP2 SWAP1 POP JUMP JUMPDEST PUSH32 0x496E76616C696420416464726573730000000000000000000000000000000000 PUSH0 DUP3 ADD MSTORE POP JUMP JUMPDEST PUSH0 PUSH2 0x15A0 PUSH1 0xF DUP4 PUSH2 0x119C JUMP JUMPDEST SWAP2 POP PUSH2 0x15AB DUP3 PUSH2 0x156C JUMP JUMPDEST PUSH1 0x20 DUP3 ADD SWAP1 POP SWAP2 SWAP1 POP JUMP JUMPDEST PUSH0 PUSH1 0x20 DUP3 ADD SWAP1 POP DUP2 DUP2 SUB PUSH0 DUP4 ADD MSTORE PUSH2 0x15CD DUP2 PUSH2 0x1594 JUMP JUMPDEST SWAP1 POP SWAP2 SWAP1 POP JUMP JUMPDEST PUSH32 0x45524332303A207472616E7366657220616D6F756E7420657863656564732062 PUSH0 DUP3 ADD MSTORE PUSH32 0x616C616E63650000000000000000000000000000000000000000000000000000 PUSH1 0x20 DUP3 ADD MSTORE POP JUMP JUMPDEST PUSH0 PUSH2 0x162E PUSH1 0x26 DUP4 PUSH2 0x119C JUMP JUMPDEST SWAP2 POP PUSH2 0x1639 DUP3 PUSH2 0x15D4 JUMP JUMPDEST PUSH1 0x40 DUP3 ADD SWAP1 POP SWAP2 SWAP1 POP JUMP JUMPDEST PUSH0 PUSH1 0x20 DUP3 ADD SWAP1 POP DUP2 DUP2 SUB PUSH0 DUP4 ADD MSTORE PUSH2 0x165B DUP2 PUSH2 0x1622 JUMP JUMPDEST SWAP1 POP SWAP2 SWAP1 POP JUMP JUMPDEST PUSH32 0x4E487B7100000000000000000000000000000000000000000000000000000000 PUSH0 MSTORE PUSH1 0x11 PUSH1 0x4 MSTORE PUSH1 0x24 PUSH0 REVERT JUMPDEST PUSH0 PUSH2 0x1699 DUP3 PUSH2 0x1284 JUMP JUMPDEST SWAP2 POP PUSH2 0x16A4 DUP4 PUSH2 0x1284 JUMP JUMPDEST SWAP3 POP DUP3 DUP3 SUB SWAP1 POP DUP2 DUP2 GT ISZERO PUSH2 0x16BC JUMPI PUSH2 0x16BB PUSH2 0x1662 JUMP JUMPDEST JUMPDEST SWAP3 SWAP2 POP POP JUMP JUMPDEST PUSH0 PUSH2 0x16CC DUP3 PUSH2 0x1284 JUMP JUMPDEST SWAP2 POP PUSH2 0x16D7 DUP4 PUSH2 0x1284 JUMP JUMPDEST SWAP3 POP DUP3 DUP3 ADD SWAP1 POP DUP1 DUP3 GT ISZERO PUSH2 0x16EF JUMPI PUSH2 0x16EE PUSH2 0x1662 JUMP JUMPDEST JUMPDEST SWAP3 SWAP2 POP POP JUMP JUMPDEST PUSH2 0x16FE DUP2 PUSH2 0x1249 JUMP JUMPDEST DUP3 MSTORE POP POP JUMP JUMPDEST PUSH0 DUP3 DUP3 MSTORE PUSH1 0x20 DUP3 ADD SWAP1 POP SWAP3 SWAP2 POP POP JUMP JUMPDEST POP JUMP JUMPDEST PUSH0 PUSH2 0x1722 PUSH0 DUP4 PUSH2 0x1704 JUMP JUMPDEST SWAP2 POP PUSH2 0x172D DUP3 PUSH2 0x1714 JUMP JUMPDEST PUSH0 DUP3 ADD SWAP1 POP SWAP2 SWAP1 POP JUMP JUMPDEST PUSH0 PUSH1 0x60 DUP3 ADD SWAP1 POP PUSH2 0x174A PUSH0 DUP4 ADD DUP6 PUSH2 0x16F5 JUMP JUMPDEST PUSH2 0x1757 PUSH1 0x20 DUP4 ADD DUP5 PUSH2 0x1328 JUMP JUMPDEST DUP2 DUP2 SUB PUSH1 0x40 DUP4 ADD MSTORE PUSH2 0x1768 DUP2 PUSH2 0x1717 JUMP JUMPDEST SWAP1 POP SWAP4 SWAP3 POP POP POP JUMP JUMPDEST PUSH0 PUSH32 0xFFFFFFFF00000000000000000000000000000000000000000000000000000000 DUP3 AND SWAP1 POP SWAP2 SWAP1 POP JUMP JUMPDEST PUSH2 0x17A5 DUP2 PUSH2 0x1771 JUMP JUMPDEST DUP2 EQ PUSH2 0x17AF JUMPI PUSH0 DUP1 REVERT JUMPDEST POP JUMP JUMPDEST PUSH0 DUP2 MLOAD SWAP1 POP PUSH2 0x17C0 DUP2 PUSH2 0x179C JUMP JUMPDEST SWAP3 SWAP2 POP POP JUMP JUMPDEST PUSH0 PUSH1 0x20 DUP3 DUP5 SUB SLT ISZERO PUSH2 0x17DB JUMPI PUSH2 0x17DA PUSH2 0x1222 JUMP JUMPDEST JUMPDEST PUSH0 PUSH2 0x17E8 DUP5 DUP3 DUP6 ADD PUSH2 0x17B2 JUMP JUMPDEST SWAP2 POP POP SWAP3 SWAP2 POP POP JUMP JUMPDEST PUSH32 0x45524332303A20746F6B656E7352656365697665642063616C6C6261636B2066 PUSH0 DUP3 ADD MSTORE PUSH32 0x61696C6564000000000000000000000000000000000000000000000000000000 PUSH1 0x20 DUP3 ADD MSTORE POP JUMP JUMPDEST PUSH0 PUSH2 0x184B PUSH1 0x25 DUP4 PUSH2 0x119C JUMP JUMPDEST SWAP2 POP PUSH2 0x1856 DUP3 PUSH2 0x17F1 JUMP JUMPDEST PUSH1 0x40 DUP3 ADD SWAP1 POP SWAP2 SWAP1 POP JUMP JUMPDEST PUSH0 PUSH1 0x20 DUP3 ADD SWAP1 POP DUP2 DUP2 SUB PUSH0 DUP4 ADD MSTORE PUSH2 0x1878 DUP2 PUSH2 0x183F JUMP JUMPDEST SWAP1 POP SWAP2 SWAP1 POP JUMP JUMPDEST PUSH32 0x496E76616C69642063616C6C6261636B00000000000000000000000000000000 PUSH0 DUP3 ADD MSTORE POP JUMP JUMPDEST PUSH0 PUSH2 0x18B3 PUSH1 0x10 DUP4 PUSH2 0x119C JUMP JUMPDEST SWAP2 POP PUSH2 0x18BE DUP3 PUSH2 0x187F JUMP JUMPDEST PUSH1 0x20 DUP3 ADD SWAP1 POP SWAP2 SWAP1 POP JUMP JUMPDEST PUSH0 PUSH1 0x20 DUP3 ADD SWAP1 POP DUP2 DUP2 SUB PUSH0 DUP4 ADD MSTORE PUSH2 0x18E0 DUP2 PUSH2 0x18A7 JUMP JUMPDEST SWAP1 POP SWAP2 SWAP1 POP JUMP JUMPDEST PUSH32 0x45524332303A207472616E7366657220616D6F756E7420657863656564732061 PUSH0 DUP3 ADD MSTORE PUSH32 0x6C6C6F77616E6365000000000000000000000000000000000000000000000000 PUSH1 0x20 DUP3 ADD MSTORE POP JUMP JUMPDEST PUSH0 PUSH2 0x1941 PUSH1 0x28 DUP4 PUSH2 0x119C JUMP JUMPDEST SWAP2 POP PUSH2 0x194C DUP3 PUSH2 0x18E7 JUMP JUMPDEST PUSH1 0x40 DUP3 ADD SWAP1 POP SWAP2 SWAP1 POP JUMP JUMPDEST PUSH0 PUSH1 0x20 DUP3 ADD SWAP1 POP DUP2 DUP2 SUB PUSH0 DUP4 ADD MSTORE PUSH2 0x196E DUP2 PUSH2 0x1935 JUMP JUMPDEST SWAP1 POP SWAP2 SWAP1 POP JUMP JUMPDEST DUP3 DUP2 DUP4 CALLDATACOPY PUSH0 DUP4 DUP4 ADD MSTORE POP POP POP JUMP JUMPDEST PUSH0 PUSH2 0x198E DUP4 DUP6 PUSH2 0x1704 JUMP JUMPDEST SWAP4 POP PUSH2 0x199B DUP4 DUP6 DUP5 PUSH2 0x1975 JUMP JUMPDEST PUSH2 0x19A4 DUP4 PUSH2 0x11BA JUMP JUMPDEST DUP5 ADD SWAP1 POP SWAP4 SWAP3 POP POP POP JUMP JUMPDEST PUSH0 PUSH1 0x60 DUP3 ADD SWAP1 POP PUSH2 0x19C2 PUSH0 DUP4 ADD DUP8 PUSH2 0x16F5 JUMP JUMPDEST PUSH2 0x19CF PUSH1 0x20 DUP4 ADD DUP7 PUSH2 0x1328 JUMP JUMPDEST DUP2 DUP2 SUB PUSH1 0x40 DUP4 ADD MSTORE PUSH2 0x19E2 DUP2 DUP5 DUP7 PUSH2 0x1983 JUMP JUMPDEST SWAP1 POP SWAP6 SWAP5 POP POP POP POP POP JUMP INVALID LOG2 PUSH5 0x6970667358 0x22 SLT KECCAK256 STOP LOG4 SIGNEXTEND SELFDESTRUCT CALLVALUE 0xC4 0xD0 0xC0 0x25 PUSH28 0x97737B9200B1F8B917EAE215A1E3FEA4A0164EE4FC1064736F6C6343 STOP ADDMOD BYTE STOP CALLER "
				},
				"gasEstimates": {
					"creation": {
						"codeDepositCost": "1338200",
						"executionCost": "infinite",
						"totalCost": "infinite"
					},
					"external": {
						"allowance(address,address)": "infinite",
						"approve(address,uint256)": "infinite",
						"balanceOf(address)": "2873",
						"decimals()": "2488",
						"name()": "infinite",
						"symbol()": "infinite",
						"totalSupply()": "2470",
						"transfer(address,uint256)": "infinite",
						"transferFrom(address,address,uint256)": "infinite",
						"transferWithCallback(address,uint256)": "infinite",
						"transferWithData(address,uint256,bytes)": "infinite"
					}
				},
				"methodIdentifiers": {
					"allowance(address,address)": "dd62ed3e",
					"approve(address,uint256)": "095ea7b3",
					"balanceOf(address)": "70a08231",
					"decimals()": "313ce567",
					"name()": "06fdde03",
					"symbol()": "95d89b41",
					"totalSupply()": "18160ddd",
					"transfer(address,uint256)": "a9059cbb",
					"transferFrom(address,address,uint256)": "23b872dd",
					"transferWithCallback(address,uint256)": "1a825b75",
					"transferWithData(address,uint256,bytes)": "2535f762"
				}
			},
			"storageLayout": {
				"storage": [
					{
						"astId": 19,
						"contract": "study_way/src/9day_thridToken.sol:ExtendERC20Two",
						"label": "name",
						"offset": 0,
						"slot": "0",
						"type": "t_string_storage"
					},
					{
						"astId": 21,
						"contract": "study_way/src/9day_thridToken.sol:ExtendERC20Two",
						"label": "symbol",
						"offset": 0,
						"slot": "1",
						"type": "t_string_storage"
					},
					{
						"astId": 23,
						"contract": "study_way/src/9day_thridToken.sol:ExtendERC20Two",
						"label": "decimals",
						"offset": 0,
						"slot": "2",
						"type": "t_uint8"
					},
					{
						"astId": 25,
						"contract": "study_way/src/9day_thridToken.sol:ExtendERC20Two",
						"label": "totalSupply",
						"offset": 0,
						"slot": "3",
						"type": "t_uint256"
					},
					{
						"astId": 29,
						"contract": "study_way/src/9day_thridToken.sol:ExtendERC20Two",
						"label": "balances",
						"offset": 0,
						"slot": "4",
						"type": "t_mapping(t_address,t_uint256)"
					},
					{
						"astId": 35,
						"contract": "study_way/src/9day_thridToken.sol:ExtendERC20Two",
						"label": "allowances",
						"offset": 0,
						"slot": "5",
						"type": "t_mapping(t_address,t_mapping(t_address,t_uint256))"
					}
				],
				"types": {
					"t_address": {
						"encoding": "inplace",
						"label": "address",
						"numberOfBytes": "20"
					},
					"t_mapping(t_address,t_mapping(t_address,t_uint256))": {
						"encoding": "mapping",
						"key": "t_address",
						"label": "mapping(address => mapping(address => uint256))",
						"numberOfBytes": "32",
						"value": "t_mapping(t_address,t_uint256)"
					},
					"t_mapping(t_address,t_uint256)": {
						"encoding": "mapping",
						"key": "t_address",
						"label": "mapping(address => uint256)",
						"numberOfBytes": "32",
						"value": "t_uint256"
					},
					"t_string_storage": {
						"encoding": "bytes",
						"label": "string",
						"numberOfBytes": "32"
					},
					"t_uint256": {
						"encoding": "inplace",
						"label": "uint256",
						"numberOfBytes": "32"
					},
					"t_uint8": {
						"encoding": "inplace",
						"label": "uint8",
						"numberOfBytes": "1"
					}
				}
			},
			"userdoc": {
				"kind": "user",
				"methods": {},
				"version": 1
			}
		}
	}
}