{
	"study_way/src/5day_call&delegatecall.sol": {
		"Counter": {
			"abi": [
				{
					"anonymous": false,
					"inputs": [
						{
							"indexed": true,
							"internalType": "address",
							"name": "sender",
							"type": "address"
						},
						{
							"indexed": false,
							"internalType": "bytes",
							"name": "data",
							"type": "bytes"
						}
					],
					"name": "FallbackCalled",
					"type": "event"
				},
				{
					"stateMutability": "payable",
					"type": "fallback"
				},
				{
					"inputs": [],
					"name": "count",
					"outputs": [],
					"stateMutability": "nonpayable",
					"type": "function"
				},
				{
					"inputs": [],
					"name": "counter",
					"outputs": [
						{
							"internalType": "uint256",
							"name": "",
							"type": "uint256"
						}
					],
					"stateMutability": "view",
					"type": "function"
				},
				{
					"inputs": [],
					"name": "sender",
					"outputs": [
						{
							"internalType": "address",
							"name": "",
							"type": "address"
						}
					],
					"stateMutability": "view",
					"type": "function"
				},
				{
					"stateMutability": "payable",
					"type": "receive"
				}
			],
			"devdoc": {
				"kind": "dev",
				"methods": {},
				"version": 1
			},
			"evm": {
				"assembly": "    /* \"study_way/src/5day_call&delegatecall.sol\":60:603  contract Counter {... */\n  mstore(0x40, 0x80)\n  callvalue\n  dup1\n  iszero\n  tag_1\n  jumpi\n  0x00\n  dup1\n  revert\ntag_1:\n  pop\n  dataSize(sub_0)\n  dup1\n  dataOffset(sub_0)\n  0x00\n  codecopy\n  0x00\n  return\nstop\n\nsub_0: assembly {\n        /* \"study_way/src/5day_call&delegatecall.sol\":60:603  contract Counter {... */\n      mstore(0x40, 0x80)\n      jumpi(tag_1, lt(calldatasize, 0x04))\n      shr(0xe0, calldataload(0x00))\n      dup1\n      0x06661abd\n      eq\n      tag_3\n      jumpi\n      dup1\n      0x61bc221a\n      eq\n      tag_4\n      jumpi\n      dup1\n      0x67e404ce\n      eq\n      tag_5\n      jumpi\n      jump(tag_2)\n    tag_1:\n      jumpi(tag_2, calldatasize)\n      stop\n    tag_2:\n        /* \"study_way/src/5day_call&delegatecall.sol\":571:581  msg.sender */\n      caller\n        /* \"study_way/src/5day_call&delegatecall.sol\":556:592  FallbackCalled(msg.sender, msg.data) */\n      0xffffffffffffffffffffffffffffffffffffffff\n      and\n      0x8ba712f8985270f97f6103d3de3e9840253fddbcb8f7e2014c1e6ea7bee2a2a3\n        /* \"study_way/src/5day_call&delegatecall.sol\":583:591  msg.data */\n      0x00\n      calldatasize\n        /* \"study_way/src/5day_call&delegatecall.sol\":556:592  FallbackCalled(msg.sender, msg.data) */\n      mload(0x40)\n      tag_10\n      swap3\n      swap2\n      swap1\n      tag_11\n      jump\t// in\n    tag_10:\n      mload(0x40)\n      dup1\n      swap2\n      sub\n      swap1\n      log2\n        /* \"study_way/src/5day_call&delegatecall.sol\":60:603  contract Counter {... */\n      stop\n        /* \"study_way/src/5day_call&delegatecall.sol\":253:338  function count() public {... */\n    tag_3:\n      callvalue\n      dup1\n      iszero\n      tag_12\n      jumpi\n      0x00\n      dup1\n      revert\n    tag_12:\n      pop\n      tag_13\n      tag_14\n      jump\t// in\n    tag_13:\n      stop\n        /* \"study_way/src/5day_call&delegatecall.sol\":84:103  uint public counter */\n    tag_4:\n      callvalue\n      dup1\n      iszero\n      tag_15\n      jumpi\n      0x00\n      dup1\n      revert\n    tag_15:\n      pop\n      tag_16\n      tag_17\n      jump\t// in\n    tag_16:\n      mload(0x40)\n      tag_18\n      swap2\n      swap1\n      tag_19\n      jump\t// in\n    tag_18:\n      mload(0x40)\n      dup1\n      swap2\n      sub\n      swap1\n      return\n        /* \"study_way/src/5day_call&delegatecall.sol\":110:131  address public sender */\n    tag_5:\n      callvalue\n      dup1\n      iszero\n      tag_20\n      jumpi\n      0x00\n      dup1\n      revert\n    tag_20:\n      pop\n      tag_21\n      tag_22\n      jump\t// in\n    tag_21:\n      mload(0x40)\n      tag_23\n      swap2\n      swap1\n      tag_24\n      jump\t// in\n    tag_23:\n      mload(0x40)\n      dup1\n      swap2\n      sub\n      swap1\n      return\n        /* \"study_way/src/5day_call&delegatecall.sol\":253:338  function count() public {... */\n    tag_14:\n        /* \"study_way/src/5day_call&delegatecall.sol\":299:300  1 */\n      0x01\n        /* \"study_way/src/5day_call&delegatecall.sol\":288:295  counter */\n      0x00\n      dup1\n        /* \"study_way/src/5day_call&delegatecall.sol\":288:300  counter += 1 */\n      dup3\n      dup3\n      sload\n      tag_26\n      swap2\n      swap1\n      tag_27\n      jump\t// in\n    tag_26:\n      swap3\n      pop\n      pop\n      dup2\n      swap1\n      sstore\n      pop\n        /* \"study_way/src/5day_call&delegatecall.sol\":320:330  msg.sender */\n      caller\n        /* \"study_way/src/5day_call&delegatecall.sol\":311:317  sender */\n      0x01\n      0x00\n        /* \"study_way/src/5day_call&delegatecall.sol\":311:330  sender = msg.sender */\n      0x0100\n      exp\n      dup2\n      sload\n      dup2\n      0xffffffffffffffffffffffffffffffffffffffff\n      mul\n      not\n      and\n      swap1\n      dup4\n      0xffffffffffffffffffffffffffffffffffffffff\n      and\n      mul\n      or\n      swap1\n      sstore\n      pop\n        /* \"study_way/src/5day_call&delegatecall.sol\":253:338  function count() public {... */\n      jump\t// out\n        /* \"study_way/src/5day_call&delegatecall.sol\":84:103  uint public counter */\n    tag_17:\n      sload(0x00)\n      dup2\n      jump\t// out\n        /* \"study_way/src/5day_call&delegatecall.sol\":110:131  address public sender */\n    tag_22:\n      0x01\n      0x00\n      swap1\n      sload\n      swap1\n      0x0100\n      exp\n      swap1\n      div\n      0xffffffffffffffffffffffffffffffffffffffff\n      and\n      dup2\n      jump\t// out\n        /* \"#utility.yul\":7:175   */\n    tag_28:\n        /* \"#utility.yul\":90:101   */\n      0x00\n        /* \"#utility.yul\":124:130   */\n      dup3\n        /* \"#utility.yul\":119:122   */\n      dup3\n        /* \"#utility.yul\":112:131   */\n      mstore\n        /* \"#utility.yul\":164:168   */\n      0x20\n        /* \"#utility.yul\":159:162   */\n      dup3\n        /* \"#utility.yul\":155:169   */\n      add\n        /* \"#utility.yul\":140:169   */\n      swap1\n      pop\n        /* \"#utility.yul\":7:175   */\n      swap3\n      swap2\n      pop\n      pop\n      jump\t// out\n        /* \"#utility.yul\":181:329   */\n    tag_29:\n        /* \"#utility.yul\":279:285   */\n      dup3\n        /* \"#utility.yul\":274:277   */\n      dup2\n        /* \"#utility.yul\":269:272   */\n      dup4\n        /* \"#utility.yul\":256:286   */\n      calldatacopy\n        /* \"#utility.yul\":320:321   */\n      0x00\n        /* \"#utility.yul\":311:317   */\n      dup4\n        /* \"#utility.yul\":306:309   */\n      dup4\n        /* \"#utility.yul\":302:318   */\n      add\n        /* \"#utility.yul\":295:322   */\n      mstore\n        /* \"#utility.yul\":181:329   */\n      pop\n      pop\n      pop\n      jump\t// out\n        /* \"#utility.yul\":335:437   */\n    tag_30:\n        /* \"#utility.yul\":376:382   */\n      0x00\n        /* \"#utility.yul\":427:429   */\n      0x1f\n        /* \"#utility.yul\":423:430   */\n      not\n        /* \"#utility.yul\":418:420   */\n      0x1f\n        /* \"#utility.yul\":411:416   */\n      dup4\n        /* \"#utility.yul\":407:421   */\n      add\n        /* \"#utility.yul\":403:431   */\n      and\n        /* \"#utility.yul\":393:431   */\n      swap1\n      pop\n        /* \"#utility.yul\":335:437   */\n      swap2\n      swap1\n      pop\n      jump\t// out\n        /* \"#utility.yul\":465:779   */\n    tag_31:\n        /* \"#utility.yul\":561:564   */\n      0x00\n        /* \"#utility.yul\":582:652   */\n      tag_43\n        /* \"#utility.yul\":645:651   */\n      dup4\n        /* \"#utility.yul\":640:643   */\n      dup6\n        /* \"#utility.yul\":582:652   */\n      tag_28\n      jump\t// in\n    tag_43:\n        /* \"#utility.yul\":575:652   */\n      swap4\n      pop\n        /* \"#utility.yul\":662:718   */\n      tag_44\n        /* \"#utility.yul\":711:717   */\n      dup4\n        /* \"#utility.yul\":706:709   */\n      dup6\n        /* \"#utility.yul\":699:704   */\n      dup5\n        /* \"#utility.yul\":662:718   */\n      tag_29\n      jump\t// in\n    tag_44:\n        /* \"#utility.yul\":743:772   */\n      tag_45\n        /* \"#utility.yul\":765:771   */\n      dup4\n        /* \"#utility.yul\":743:772   */\n      tag_30\n      jump\t// in\n    tag_45:\n        /* \"#utility.yul\":738:741   */\n      dup5\n        /* \"#utility.yul\":734:773   */\n      add\n        /* \"#utility.yul\":727:773   */\n      swap1\n      pop\n        /* \"#utility.yul\":465:779   */\n      swap4\n      swap3\n      pop\n      pop\n      pop\n      jump\t// out\n        /* \"#utility.yul\":785:1114   */\n    tag_11:\n        /* \"#utility.yul\":906:910   */\n      0x00\n        /* \"#utility.yul\":944:946   */\n      0x20\n        /* \"#utility.yul\":933:942   */\n      dup3\n        /* \"#utility.yul\":929:947   */\n      add\n        /* \"#utility.yul\":921:947   */\n      swap1\n      pop\n        /* \"#utility.yul\":993:1002   */\n      dup2\n        /* \"#utility.yul\":987:991   */\n      dup2\n        /* \"#utility.yul\":983:1003   */\n      sub\n        /* \"#utility.yul\":979:980   */\n      0x00\n        /* \"#utility.yul\":968:977   */\n      dup4\n        /* \"#utility.yul\":964:981   */\n      add\n        /* \"#utility.yul\":957:1004   */\n      mstore\n        /* \"#utility.yul\":1021:1107   */\n      tag_47\n        /* \"#utility.yul\":1102:1106   */\n      dup2\n        /* \"#utility.yul\":1093:1099   */\n      dup5\n        /* \"#utility.yul\":1085:1091   */\n      dup7\n        /* \"#utility.yul\":1021:1107   */\n      tag_31\n      jump\t// in\n    tag_47:\n        /* \"#utility.yul\":1013:1107   */\n      swap1\n      pop\n        /* \"#utility.yul\":785:1114   */\n      swap4\n      swap3\n      pop\n      pop\n      pop\n      jump\t// out\n        /* \"#utility.yul\":1120:1197   */\n    tag_32:\n        /* \"#utility.yul\":1157:1164   */\n      0x00\n        /* \"#utility.yul\":1186:1191   */\n      dup2\n        /* \"#utility.yul\":1175:1191   */\n      swap1\n      pop\n        /* \"#utility.yul\":1120:1197   */\n      swap2\n      swap1\n      pop\n      jump\t// out\n        /* \"#utility.yul\":1203:1321   */\n    tag_33:\n        /* \"#utility.yul\":1290:1314   */\n      tag_50\n        /* \"#utility.yul\":1308:1313   */\n      dup2\n        /* \"#utility.yul\":1290:1314   */\n      tag_32\n      jump\t// in\n    tag_50:\n        /* \"#utility.yul\":1285:1288   */\n      dup3\n        /* \"#utility.yul\":1278:1315   */\n      mstore\n        /* \"#utility.yul\":1203:1321   */\n      pop\n      pop\n      jump\t// out\n        /* \"#utility.yul\":1327:1549   */\n    tag_19:\n        /* \"#utility.yul\":1420:1424   */\n      0x00\n        /* \"#utility.yul\":1458:1460   */\n      0x20\n        /* \"#utility.yul\":1447:1456   */\n      dup3\n        /* \"#utility.yul\":1443:1461   */\n      add\n        /* \"#utility.yul\":1435:1461   */\n      swap1\n      pop\n        /* \"#utility.yul\":1471:1542   */\n      tag_52\n        /* \"#utility.yul\":1539:1540   */\n      0x00\n        /* \"#utility.yul\":1528:1537   */\n      dup4\n        /* \"#utility.yul\":1524:1541   */\n      add\n        /* \"#utility.yul\":1515:1521   */\n      dup5\n        /* \"#utility.yul\":1471:1542   */\n      tag_33\n      jump\t// in\n    tag_52:\n        /* \"#utility.yul\":1327:1549   */\n      swap3\n      swap2\n      pop\n      pop\n      jump\t// out\n        /* \"#utility.yul\":1555:1681   */\n    tag_34:\n        /* \"#utility.yul\":1592:1599   */\n      0x00\n        /* \"#utility.yul\":1632:1674   */\n      0xffffffffffffffffffffffffffffffffffffffff\n        /* \"#utility.yul\":1625:1630   */\n      dup3\n        /* \"#utility.yul\":1621:1675   */\n      and\n        /* \"#utility.yul\":1610:1675   */\n      swap1\n      pop\n        /* \"#utility.yul\":1555:1681   */\n      swap2\n      swap1\n      pop\n      jump\t// out\n        /* \"#utility.yul\":1687:1783   */\n    tag_35:\n        /* \"#utility.yul\":1724:1731   */\n      0x00\n        /* \"#utility.yul\":1753:1777   */\n      tag_55\n        /* \"#utility.yul\":1771:1776   */\n      dup3\n        /* \"#utility.yul\":1753:1777   */\n      tag_34\n      jump\t// in\n    tag_55:\n        /* \"#utility.yul\":1742:1777   */\n      swap1\n      pop\n        /* \"#utility.yul\":1687:1783   */\n      swap2\n      swap1\n      pop\n      jump\t// out\n        /* \"#utility.yul\":1789:1907   */\n    tag_36:\n        /* \"#utility.yul\":1876:1900   */\n      tag_57\n        /* \"#utility.yul\":1894:1899   */\n      dup2\n        /* \"#utility.yul\":1876:1900   */\n      tag_35\n      jump\t// in\n    tag_57:\n        /* \"#utility.yul\":1871:1874   */\n      dup3\n        /* \"#utility.yul\":1864:1901   */\n      mstore\n        /* \"#utility.yul\":1789:1907   */\n      pop\n      pop\n      jump\t// out\n        /* \"#utility.yul\":1913:2135   */\n    tag_24:\n        /* \"#utility.yul\":2006:2010   */\n      0x00\n        /* \"#utility.yul\":2044:2046   */\n      0x20\n        /* \"#utility.yul\":2033:2042   */\n      dup3\n        /* \"#utility.yul\":2029:2047   */\n      add\n        /* \"#utility.yul\":2021:2047   */\n      swap1\n      pop\n        /* \"#utility.yul\":2057:2128   */\n      tag_59\n        /* \"#utility.yul\":2125:2126   */\n      0x00\n        /* \"#utility.yul\":2114:2123   */\n      dup4\n        /* \"#utility.yul\":2110:2127   */\n      add\n        /* \"#utility.yul\":2101:2107   */\n      dup5\n        /* \"#utility.yul\":2057:2128   */\n      tag_36\n      jump\t// in\n    tag_59:\n        /* \"#utility.yul\":1913:2135   */\n      swap3\n      swap2\n      pop\n      pop\n      jump\t// out\n        /* \"#utility.yul\":2141:2321   */\n    tag_37:\n        /* \"#utility.yul\":2189:2266   */\n      0x4e487b7100000000000000000000000000000000000000000000000000000000\n        /* \"#utility.yul\":2186:2187   */\n      0x00\n        /* \"#utility.yul\":2179:2267   */\n      mstore\n        /* \"#utility.yul\":2286:2290   */\n      0x11\n        /* \"#utility.yul\":2283:2284   */\n      0x04\n        /* \"#utility.yul\":2276:2291   */\n      mstore\n        /* \"#utility.yul\":2310:2314   */\n      0x24\n        /* \"#utility.yul\":2307:2308   */\n      0x00\n        /* \"#utility.yul\":2300:2315   */\n      revert\n        /* \"#utility.yul\":2327:2518   */\n    tag_27:\n        /* \"#utility.yul\":2367:2370   */\n      0x00\n        /* \"#utility.yul\":2386:2406   */\n      tag_62\n        /* \"#utility.yul\":2404:2405   */\n      dup3\n        /* \"#utility.yul\":2386:2406   */\n      tag_32\n      jump\t// in\n    tag_62:\n        /* \"#utility.yul\":2381:2406   */\n      swap2\n      pop\n        /* \"#utility.yul\":2420:2440   */\n      tag_63\n        /* \"#utility.yul\":2438:2439   */\n      dup4\n        /* \"#utility.yul\":2420:2440   */\n      tag_32\n      jump\t// in\n    tag_63:\n        /* \"#utility.yul\":2415:2440   */\n      swap3\n      pop\n        /* \"#utility.yul\":2463:2464   */\n      dup3\n        /* \"#utility.yul\":2460:2461   */\n      dup3\n        /* \"#utility.yul\":2456:2465   */\n      add\n        /* \"#utility.yul\":2449:2465   */\n      swap1\n      pop\n        /* \"#utility.yul\":2484:2487   */\n      dup1\n        /* \"#utility.yul\":2481:2482   */\n      dup3\n        /* \"#utility.yul\":2478:2488   */\n      gt\n        /* \"#utility.yul\":2475:2511   */\n      iszero\n      tag_64\n      jumpi\n        /* \"#utility.yul\":2491:2509   */\n      tag_65\n      tag_37\n      jump\t// in\n    tag_65:\n        /* \"#utility.yul\":2475:2511   */\n    tag_64:\n        /* \"#utility.yul\":2327:2518   */\n      swap3\n      swap2\n      pop\n      pop\n      jump\t// out\n\n    auxdata: 0xa2646970667358221220ad00dc0c75de00e4f9d39ee2779a765ae22049e23f13a8141177c5eeb18ad33664736f6c634300081a0033\n}\n",
				"bytecode": {
					"linkReferences": {},
					"object": "6080604052348015600e575f80fd5b506103198061001c5f395ff3fe608060405260043610610037575f3560e01c806306661abd1461009057806361bc221a146100a657806367e404ce146100d05761003e565b3661003e57005b3373ffffffffffffffffffffffffffffffffffffffff167f8ba712f8985270f97f6103d3de3e9840253fddbcb8f7e2014c1e6ea7bee2a2a35f366040516100869291906101d8565b60405180910390a2005b34801561009b575f80fd5b506100a46100fa565b005b3480156100b1575f80fd5b506100ba610154565b6040516100c79190610212565b60405180910390f35b3480156100db575f80fd5b506100e4610159565b6040516100f1919061026a565b60405180910390f35b60015f8082825461010b91906102b0565b925050819055503360015f6101000a81548173ffffffffffffffffffffffffffffffffffffffff021916908373ffffffffffffffffffffffffffffffffffffffff160217905550565b5f5481565b60015f9054906101000a900473ffffffffffffffffffffffffffffffffffffffff1681565b5f82825260208201905092915050565b828183375f83830152505050565b5f601f19601f8301169050919050565b5f6101b7838561017e565b93506101c483858461018e565b6101cd8361019c565b840190509392505050565b5f6020820190508181035f8301526101f18184866101ac565b90509392505050565b5f819050919050565b61020c816101fa565b82525050565b5f6020820190506102255f830184610203565b92915050565b5f73ffffffffffffffffffffffffffffffffffffffff82169050919050565b5f6102548261022b565b9050919050565b6102648161024a565b82525050565b5f60208201905061027d5f83018461025b565b92915050565b7f4e487b71000000000000000000000000000000000000000000000000000000005f52601160045260245ffd5b5f6102ba826101fa565b91506102c5836101fa565b92508282019050808211156102dd576102dc610283565b5b9291505056fea2646970667358221220ad00dc0c75de00e4f9d39ee2779a765ae22049e23f13a8141177c5eeb18ad33664736f6c634300081a0033",
					"opcodes": "PUSH1 0x80 PUSH1 0x40 MSTORE CALLVALUE DUP1 ISZERO PUSH1 0xE JUMPI PUSH0 DUP1 REVERT JUMPDEST POP PUSH2 0x319 DUP1 PUSH2 0x1C PUSH0 CODECOPY PUSH0 RETURN INVALID PUSH1 0x80 PUSH1 0x40 MSTORE PUSH1 0x4 CALLDATASIZE LT PUSH2 0x37 JUMPI PUSH0 CALLDATALOAD PUSH1 0xE0 SHR DUP1 PUSH4 0x6661ABD EQ PUSH2 0x90 JUMPI DUP1 PUSH4 0x61BC221A EQ PUSH2 0xA6 JUMPI DUP1 PUSH4 0x67E404CE EQ PUSH2 0xD0 JUMPI PUSH2 0x3E JUMP JUMPDEST CALLDATASIZE PUSH2 0x3E JUMPI STOP JUMPDEST CALLER PUSH20 0xFFFFFFFFFFFFFFFFFFFFFFFFFFFFFFFFFFFFFFFF AND PUSH32 0x8BA712F8985270F97F6103D3DE3E9840253FDDBCB8F7E2014C1E6EA7BEE2A2A3 PUSH0 CALLDATASIZE PUSH1 0x40 MLOAD PUSH2 0x86 SWAP3 SWAP2 SWAP1 PUSH2 0x1D8 JUMP JUMPDEST PUSH1 0x40 MLOAD DUP1 SWAP2 SUB SWAP1 LOG2 STOP JUMPDEST CALLVALUE DUP1 ISZERO PUSH2 0x9B JUMPI PUSH0 DUP1 REVERT JUMPDEST POP PUSH2 0xA4 PUSH2 0xFA JUMP JUMPDEST STOP JUMPDEST CALLVALUE DUP1 ISZERO PUSH2 0xB1 JUMPI PUSH0 DUP1 REVERT JUMPDEST POP PUSH2 0xBA PUSH2 0x154 JUMP JUMPDEST PUSH1 0x40 MLOAD PUSH2 0xC7 SWAP2 SWAP1 PUSH2 0x212 JUMP JUMPDEST PUSH1 0x40 MLOAD DUP1 SWAP2 SUB SWAP1 RETURN JUMPDEST CALLVALUE DUP1 ISZERO PUSH2 0xDB JUMPI PUSH0 DUP1 REVERT JUMPDEST POP PUSH2 0xE4 PUSH2 0x159 JUMP JUMPDEST PUSH1 0x40 MLOAD PUSH2 0xF1 SWAP2 SWAP1 PUSH2 0x26A JUMP JUMPDEST PUSH1 0x40 MLOAD DUP1 SWAP2 SUB SWAP1 RETURN JUMPDEST PUSH1 0x1 PUSH0 DUP1 DUP3 DUP3 SLOAD PUSH2 0x10B SWAP2 SWAP1 PUSH2 0x2B0 JUMP JUMPDEST SWAP3 POP POP DUP2 SWAP1 SSTORE POP CALLER PUSH1 0x1 PUSH0 PUSH2 0x100 EXP DUP2 SLOAD DUP2 PUSH20 0xFFFFFFFFFFFFFFFFFFFFFFFFFFFFFFFFFFFFFFFF MUL NOT AND SWAP1 DUP4 PUSH20 0xFFFFFFFFFFFFFFFFFFFFFFFFFFFFFFFFFFFFFFFF AND MUL OR SWAP1 SSTORE POP JUMP JUMPDEST PUSH0 SLOAD DUP2 JUMP JUMPDEST PUSH1 0x1 PUSH0 SWAP1 SLOAD SWAP1 PUSH2 0x100 EXP SWAP1 DIV PUSH20 0xFFFFFFFFFFFFFFFFFFFFFFFFFFFFFFFFFFFFFFFF AND DUP2 JUMP JUMPDEST PUSH0 DUP3 DUP3 MSTORE PUSH1 0x20 DUP3 ADD SWAP1 POP SWAP3 SWAP2 POP POP JUMP JUMPDEST DUP3 DUP2 DUP4 CALLDATACOPY PUSH0 DUP4 DUP4 ADD MSTORE POP POP POP JUMP JUMPDEST PUSH0 PUSH1 0x1F NOT PUSH1 0x1F DUP4 ADD AND SWAP1 POP SWAP2 SWAP1 POP JUMP JUMPDEST PUSH0 PUSH2 0x1B7 DUP4 DUP6 PUSH2 0x17E JUMP JUMPDEST SWAP4 POP PUSH2 0x1C4 DUP4 DUP6 DUP5 PUSH2 0x18E JUMP JUMPDEST PUSH2 0x1CD DUP4 PUSH2 0x19C JUMP JUMPDEST DUP5 ADD SWAP1 POP SWAP4 SWAP3 POP POP POP JUMP JUMPDEST PUSH0 PUSH1 0x20 DUP3 ADD SWAP1 POP DUP2 DUP2 SUB PUSH0 DUP4 ADD MSTORE PUSH2 0x1F1 DUP2 DUP5 DUP7 PUSH2 0x1AC JUMP JUMPDEST SWAP1 POP SWAP4 SWAP3 POP POP POP JUMP JUMPDEST PUSH0 DUP2 SWAP1 POP SWAP2 SWAP1 POP JUMP JUMPDEST PUSH2 0x20C DUP2 PUSH2 0x1FA JUMP JUMPDEST DUP3 MSTORE POP POP JUMP JUMPDEST PUSH0 PUSH1 0x20 DUP3 ADD SWAP1 POP PUSH2 0x225 PUSH0 DUP4 ADD DUP5 PUSH2 0x203 JUMP JUMPDEST SWAP3 SWAP2 POP POP JUMP JUMPDEST PUSH0 PUSH20 0xFFFFFFFFFFFFFFFFFFFFFFFFFFFFFFFFFFFFFFFF DUP3 AND SWAP1 POP SWAP2 SWAP1 POP JUMP JUMPDEST PUSH0 PUSH2 0x254 DUP3 PUSH2 0x22B JUMP JUMPDEST SWAP1 POP SWAP2 SWAP1 POP JUMP JUMPDEST PUSH2 0x264 DUP2 PUSH2 0x24A JUMP JUMPDEST DUP3 MSTORE POP POP JUMP JUMPDEST PUSH0 PUSH1 0x20 DUP3 ADD SWAP1 POP PUSH2 0x27D PUSH0 DUP4 ADD DUP5 PUSH2 0x25B JUMP JUMPDEST SWAP3 SWAP2 POP POP JUMP JUMPDEST PUSH32 0x4E487B7100000000000000000000000000000000000000000000000000000000 PUSH0 MSTORE PUSH1 0x11 PUSH1 0x4 MSTORE PUSH1 0x24 PUSH0 REVERT JUMPDEST PUSH0 PUSH2 0x2BA DUP3 PUSH2 0x1FA JUMP JUMPDEST SWAP2 POP PUSH2 0x2C5 DUP4 PUSH2 0x1FA JUMP JUMPDEST SWAP3 POP DUP3 DUP3 ADD SWAP1 POP DUP1 DUP3 GT ISZERO PUSH2 0x2DD JUMPI PUSH2 0x2DC PUSH2 0x283 JUMP JUMPDEST JUMPDEST SWAP3 SWAP2 POP POP JUMP INVALID LOG2 PUSH5 0x6970667358 0x22 SLT KECCAK256 0xAD STOP 0xDC 0xC PUSH22 0xDE00E4F9D39EE2779A765AE22049E23F13A8141177C5 0xEE 0xB1 DUP11 0xD3 CALLDATASIZE PUSH5 0x736F6C6343 STOP ADDMOD BYTE STOP CALLER "
				},
				"gasEstimates": {
					"creation": {
						"codeDepositCost": "158600",
						"executionCost": "200",
						"totalCost": "158800"
					},
					"external": {
						"": "infinite",
						"count()": "infinite",
						"counter()": "2424",
						"sender()": "2530"
					}
				},
				"methodIdentifiers": {
					"count()": "06661abd",
					"counter()": "61bc221a",
					"sender()": "67e404ce"
				}
			},
			"storageLayout": {
				"storage": [
					{
						"astId": 3,
						"contract": "study_way/src/5day_call&delegatecall.sol:Counter",
						"label": "counter",
						"offset": 0,
						"slot": "0",
						"type": "t_uint256"
					},
					{
						"astId": 5,
						"contract": "study_way/src/5day_call&delegatecall.sol:Counter",
						"label": "sender",
						"offset": 0,
						"slot": "1",
						"type": "t_address"
					}
				],
				"types": {
					"t_address": {
						"encoding": "inplace",
						"label": "address",
						"numberOfBytes": "20"
					},
					"t_uint256": {
						"encoding": "inplace",
						"label": "uint256",
						"numberOfBytes": "32"
					}
				}
			},
			"userdoc": {
				"kind": "user",
				"methods": {},
				"version": 1
			}
		}
	}
}