{
	"study_way/src/5day_call&delegatecall.sol": {
		"CallTest": {
			"abi": [
				{
					"inputs": [
						{
							"internalType": "contract Counter",
							"name": "c",
							"type": "address"
						}
					],
					"name": "callCount",
					"outputs": [],
					"stateMutability": "nonpayable",
					"type": "function"
				},
				{
					"inputs": [],
					"name": "counter",
					"outputs": [
						{
							"internalType": "uint256",
							"name": "",
							"type": "uint256"
						}
					],
					"stateMutability": "view",
					"type": "function"
				},
				{
					"inputs": [
						{
							"internalType": "address",
							"name": "addr",
							"type": "address"
						}
					],
					"name": "lowCallCount",
					"outputs": [],
					"stateMutability": "nonpayable",
					"type": "function"
				},
				{
					"inputs": [
						{
							"internalType": "address",
							"name": "addr",
							"type": "address"
						}
					],
					"name": "lowDelegatecallCount",
					"outputs": [],
					"stateMutability": "nonpayable",
					"type": "function"
				},
				{
					"inputs": [],
					"name": "sender",
					"outputs": [
						{
							"internalType": "address",
							"name": "",
							"type": "address"
						}
					],
					"stateMutability": "view",
					"type": "function"
				}
			],
			"devdoc": {
				"kind": "dev",
				"methods": {},
				"version": 1
			},
			"evm": {
				"assembly": "    /* \"study_way/src/5day_call&delegatecall.sol\":282:1873  contract CallTest {... */\n  mstore(0x40, 0x80)\n  callvalue\n  dup1\n  iszero\n  tag_1\n  jumpi\n  0x00\n  dup1\n  revert\ntag_1:\n  pop\n  dataSize(sub_0)\n  dup1\n  dataOffset(sub_0)\n  0x00\n  codecopy\n  0x00\n  return\nstop\n\nsub_0: assembly {\n        /* \"study_way/src/5day_call&delegatecall.sol\":282:1873  contract CallTest {... */\n      mstore(0x40, 0x80)\n      callvalue\n      dup1\n      iszero\n      tag_1\n      jumpi\n      0x00\n      dup1\n      revert\n    tag_1:\n      pop\n      jumpi(tag_2, lt(calldatasize, 0x04))\n      shr(0xe0, calldataload(0x00))\n      dup1\n      0x61bc221a\n      eq\n      tag_3\n      jumpi\n      dup1\n      0x67e404ce\n      eq\n      tag_4\n      jumpi\n      dup1\n      0x759502ce\n      eq\n      tag_5\n      jumpi\n      dup1\n      0x9c018209\n      eq\n      tag_6\n      jumpi\n      dup1\n      0xe22f8b68\n      eq\n      tag_7\n      jumpi\n    tag_2:\n      0x00\n      dup1\n      revert\n        /* \"study_way/src/5day_call&delegatecall.sol\":307:326  uint public counter */\n    tag_3:\n      tag_8\n      tag_9\n      jump\t// in\n    tag_8:\n      mload(0x40)\n      tag_10\n      swap2\n      swap1\n      tag_11\n      jump\t// in\n    tag_10:\n      mload(0x40)\n      dup1\n      swap2\n      sub\n      swap1\n      return\n        /* \"study_way/src/5day_call&delegatecall.sol\":333:354  address public sender */\n    tag_4:\n      tag_12\n      tag_13\n      jump\t// in\n    tag_12:\n      mload(0x40)\n      tag_14\n      swap2\n      swap1\n      tag_15\n      jump\t// in\n    tag_14:\n      mload(0x40)\n      dup1\n      swap2\n      sub\n      swap1\n      return\n        /* \"study_way/src/5day_call&delegatecall.sol\":1373:1700  function lowCallCount(address addr) public {... */\n    tag_5:\n      tag_16\n      0x04\n      dup1\n      calldatasize\n      sub\n      dup2\n      add\n      swap1\n      tag_17\n      swap2\n      swap1\n      tag_18\n      jump\t// in\n    tag_17:\n      tag_19\n      jump\t// in\n    tag_16:\n      stop\n        /* \"study_way/src/5day_call&delegatecall.sol\":517:582  function callCount(Counter c) public {... */\n    tag_6:\n      tag_20\n      0x04\n      dup1\n      calldatasize\n      sub\n      dup2\n      add\n      swap1\n      tag_21\n      swap2\n      swap1\n      tag_22\n      jump\t// in\n    tag_21:\n      tag_23\n      jump\t// in\n    tag_20:\n      stop\n        /* \"study_way/src/5day_call&delegatecall.sol\":757:1211  function lowDelegatecallCount(address  addr) public {... */\n    tag_7:\n      tag_24\n      0x04\n      dup1\n      calldatasize\n      sub\n      dup2\n      add\n      swap1\n      tag_25\n      swap2\n      swap1\n      tag_18\n      jump\t// in\n    tag_25:\n      tag_26\n      jump\t// in\n    tag_24:\n      stop\n        /* \"study_way/src/5day_call&delegatecall.sol\":307:326  uint public counter */\n    tag_9:\n      sload(0x00)\n      dup2\n      jump\t// out\n        /* \"study_way/src/5day_call&delegatecall.sol\":333:354  address public sender */\n    tag_13:\n      0x01\n      0x00\n      swap1\n      sload\n      swap1\n      0x0100\n      exp\n      swap1\n      div\n      0xffffffffffffffffffffffffffffffffffffffff\n      and\n      dup2\n      jump\t// out\n        /* \"study_way/src/5day_call&delegatecall.sol\":1373:1700  function lowCallCount(address addr) public {... */\n    tag_19:\n        /* \"study_way/src/5day_call&delegatecall.sol\":1427:1450  bytes memory methodData */\n      0x00\n        /* \"study_way/src/5day_call&delegatecall.sol\":1452:1486  abi.encodeWithSignature(\"count()\") */\n      add(0x24, mload(0x40))\n      mload(0x40)\n      0x20\n      dup2\n      dup4\n      sub\n      sub\n      dup2\n      mstore\n      swap1\n      0x40\n      mstore\n      and(not(0xffffffffffffffffffffffffffffffffffffffffffffffffffffffff), 0x06661abd00000000000000000000000000000000000000000000000000000000)\n      0x20\n      dup3\n      add\n      dup1\n      mload\n      0xffffffffffffffffffffffffffffffffffffffffffffffffffffffff\n      dup4\n      dup2\n      dup4\n      and\n      or\n      dup4\n      mstore\n      pop\n      pop\n      pop\n      pop\n        /* \"study_way/src/5day_call&delegatecall.sol\":1427:1486  bytes memory methodData =abi.encodeWithSignature(\"count()\") */\n      swap1\n      pop\n        /* \"study_way/src/5day_call&delegatecall.sol\":1498:1510  bool success */\n      0x00\n        /* \"study_way/src/5day_call&delegatecall.sol\":1515:1519  addr */\n      dup3\n        /* \"study_way/src/5day_call&delegatecall.sol\":1515:1524  addr.call */\n      0xffffffffffffffffffffffffffffffffffffffff\n      and\n        /* \"study_way/src/5day_call&delegatecall.sol\":1525:1535  methodData */\n      dup3\n        /* \"study_way/src/5day_call&delegatecall.sol\":1515:1536  addr.call(methodData) */\n      mload(0x40)\n      tag_28\n      swap2\n      swap1\n      tag_29\n      jump\t// in\n    tag_28:\n      0x00\n      mload(0x40)\n      dup1\n      dup4\n      sub\n      dup2\n      0x00\n      dup7\n      gas\n      call\n      swap2\n      pop\n      pop\n      returndatasize\n      dup1\n      0x00\n      dup2\n      eq\n      tag_32\n      jumpi\n      mload(0x40)\n      swap2\n      pop\n      and(add(returndatasize, 0x3f), not(0x1f))\n      dup3\n      add\n      0x40\n      mstore\n      returndatasize\n      dup3\n      mstore\n      returndatasize\n      0x00\n      0x20\n      dup5\n      add\n      returndatacopy\n      jump(tag_31)\n    tag_32:\n      0x60\n      swap2\n      pop\n    tag_31:\n      pop\n        /* \"study_way/src/5day_call&delegatecall.sol\":1497:1536  (bool success, ) =addr.call(methodData) */\n      pop\n      swap1\n      pop\n        /* \"study_way/src/5day_call&delegatecall.sol\":1555:1562  success */\n      dup1\n        /* \"study_way/src/5day_call&delegatecall.sol\":1547:1586  require(success, \"Delegatecall failed\") */\n      tag_33\n      jumpi\n      mload(0x40)\n      0x08c379a000000000000000000000000000000000000000000000000000000000\n      dup2\n      mstore\n      0x04\n      add\n      tag_34\n      swap1\n      tag_35\n      jump\t// in\n    tag_34:\n      mload(0x40)\n      dup1\n      swap2\n      sub\n      swap1\n      revert\n    tag_33:\n        /* \"study_way/src/5day_call&delegatecall.sol\":1416:1700  {... */\n      pop\n      pop\n        /* \"study_way/src/5day_call&delegatecall.sol\":1373:1700  function lowCallCount(address addr) public {... */\n      pop\n      jump\t// out\n        /* \"study_way/src/5day_call&delegatecall.sol\":517:582  function callCount(Counter c) public {... */\n    tag_23:\n        /* \"study_way/src/5day_call&delegatecall.sol\":565:566  c */\n      dup1\n        /* \"study_way/src/5day_call&delegatecall.sol\":565:572  c.count */\n      0xffffffffffffffffffffffffffffffffffffffff\n      and\n      0x06661abd\n        /* \"study_way/src/5day_call&delegatecall.sol\":565:574  c.count() */\n      mload(0x40)\n      dup2\n      0xffffffff\n      and\n      0xe0\n      shl\n      dup2\n      mstore\n      0x04\n      add\n      0x00\n      mload(0x40)\n      dup1\n      dup4\n      sub\n      dup2\n      0x00\n      dup8\n      dup1\n      extcodesize\n      iszero\n      dup1\n      iszero\n      tag_37\n      jumpi\n      0x00\n      dup1\n      revert\n    tag_37:\n      pop\n      gas\n      call\n      iszero\n      dup1\n      iszero\n      tag_39\n      jumpi\n      returndatasize\n      0x00\n      dup1\n      returndatacopy\n      revert(0x00, returndatasize)\n    tag_39:\n      pop\n      pop\n      pop\n      pop\n        /* \"study_way/src/5day_call&delegatecall.sol\":517:582  function callCount(Counter c) public {... */\n      pop\n      jump\t// out\n        /* \"study_way/src/5day_call&delegatecall.sol\":757:1211  function lowDelegatecallCount(address  addr) public {... */\n    tag_26:\n        /* \"study_way/src/5day_call&delegatecall.sol\":941:964  bytes memory methodData */\n      0x00\n        /* \"study_way/src/5day_call&delegatecall.sol\":967:1001  abi.encodeWithSignature(\"count()\") */\n      add(0x24, mload(0x40))\n      mload(0x40)\n      0x20\n      dup2\n      dup4\n      sub\n      sub\n      dup2\n      mstore\n      swap1\n      0x40\n      mstore\n      and(not(0xffffffffffffffffffffffffffffffffffffffffffffffffffffffff), 0x06661abd00000000000000000000000000000000000000000000000000000000)\n      0x20\n      dup3\n      add\n      dup1\n      mload\n      0xffffffffffffffffffffffffffffffffffffffffffffffffffffffff\n      dup4\n      dup2\n      dup4\n      and\n      or\n      dup4\n      mstore\n      pop\n      pop\n      pop\n      pop\n        /* \"study_way/src/5day_call&delegatecall.sol\":941:1001  bytes memory methodData = abi.encodeWithSignature(\"count()\") */\n      swap1\n      pop\n        /* \"study_way/src/5day_call&delegatecall.sol\":1076:1088  bool success */\n      0x00\n        /* \"study_way/src/5day_call&delegatecall.sol\":1093:1097  addr */\n      dup3\n        /* \"study_way/src/5day_call&delegatecall.sol\":1093:1110  addr.delegatecall */\n      0xffffffffffffffffffffffffffffffffffffffff\n      and\n        /* \"study_way/src/5day_call&delegatecall.sol\":1111:1121  methodData */\n      dup3\n        /* \"study_way/src/5day_call&delegatecall.sol\":1093:1122  addr.delegatecall(methodData) */\n      mload(0x40)\n      tag_41\n      swap2\n      swap1\n      tag_29\n      jump\t// in\n    tag_41:\n      0x00\n      mload(0x40)\n      dup1\n      dup4\n      sub\n      dup2\n      dup6\n      gas\n      delegatecall\n      swap2\n      pop\n      pop\n      returndatasize\n      dup1\n      0x00\n      dup2\n      eq\n      tag_44\n      jumpi\n      mload(0x40)\n      swap2\n      pop\n      and(add(returndatasize, 0x3f), not(0x1f))\n      dup3\n      add\n      0x40\n      mstore\n      returndatasize\n      dup3\n      mstore\n      returndatasize\n      0x00\n      0x20\n      dup5\n      add\n      returndatacopy\n      jump(tag_43)\n    tag_44:\n      0x60\n      swap2\n      pop\n    tag_43:\n      pop\n        /* \"study_way/src/5day_call&delegatecall.sol\":1075:1122  (bool success, ) =addr.delegatecall(methodData) */\n      pop\n      swap1\n      pop\n        /* \"study_way/src/5day_call&delegatecall.sol\":1141:1148  success */\n      dup1\n        /* \"study_way/src/5day_call&delegatecall.sol\":1133:1172  require(success, \"Delegatecall failed\") */\n      tag_45\n      jumpi\n      mload(0x40)\n      0x08c379a000000000000000000000000000000000000000000000000000000000\n      dup2\n      mstore\n      0x04\n      add\n      tag_46\n      swap1\n      tag_35\n      jump\t// in\n    tag_46:\n      mload(0x40)\n      dup1\n      swap2\n      sub\n      swap1\n      revert\n    tag_45:\n        /* \"study_way/src/5day_call&delegatecall.sol\":809:1211  {... */\n      pop\n      pop\n        /* \"study_way/src/5day_call&delegatecall.sol\":757:1211  function lowDelegatecallCount(address  addr) public {... */\n      pop\n      jump\t// out\n        /* \"#utility.yul\":7:84   */\n    tag_47:\n        /* \"#utility.yul\":44:51   */\n      0x00\n        /* \"#utility.yul\":73:78   */\n      dup2\n        /* \"#utility.yul\":62:78   */\n      swap1\n      pop\n        /* \"#utility.yul\":7:84   */\n      swap2\n      swap1\n      pop\n      jump\t// out\n        /* \"#utility.yul\":90:208   */\n    tag_48:\n        /* \"#utility.yul\":177:201   */\n      tag_70\n        /* \"#utility.yul\":195:200   */\n      dup2\n        /* \"#utility.yul\":177:201   */\n      tag_47\n      jump\t// in\n    tag_70:\n        /* \"#utility.yul\":172:175   */\n      dup3\n        /* \"#utility.yul\":165:202   */\n      mstore\n        /* \"#utility.yul\":90:208   */\n      pop\n      pop\n      jump\t// out\n        /* \"#utility.yul\":214:436   */\n    tag_11:\n        /* \"#utility.yul\":307:311   */\n      0x00\n        /* \"#utility.yul\":345:347   */\n      0x20\n        /* \"#utility.yul\":334:343   */\n      dup3\n        /* \"#utility.yul\":330:348   */\n      add\n        /* \"#utility.yul\":322:348   */\n      swap1\n      pop\n        /* \"#utility.yul\":358:429   */\n      tag_72\n        /* \"#utility.yul\":426:427   */\n      0x00\n        /* \"#utility.yul\":415:424   */\n      dup4\n        /* \"#utility.yul\":411:428   */\n      add\n        /* \"#utility.yul\":402:408   */\n      dup5\n        /* \"#utility.yul\":358:429   */\n      tag_48\n      jump\t// in\n    tag_72:\n        /* \"#utility.yul\":214:436   */\n      swap3\n      swap2\n      pop\n      pop\n      jump\t// out\n        /* \"#utility.yul\":442:568   */\n    tag_49:\n        /* \"#utility.yul\":479:486   */\n      0x00\n        /* \"#utility.yul\":519:561   */\n      0xffffffffffffffffffffffffffffffffffffffff\n        /* \"#utility.yul\":512:517   */\n      dup3\n        /* \"#utility.yul\":508:562   */\n      and\n        /* \"#utility.yul\":497:562   */\n      swap1\n      pop\n        /* \"#utility.yul\":442:568   */\n      swap2\n      swap1\n      pop\n      jump\t// out\n        /* \"#utility.yul\":574:670   */\n    tag_50:\n        /* \"#utility.yul\":611:618   */\n      0x00\n        /* \"#utility.yul\":640:664   */\n      tag_75\n        /* \"#utility.yul\":658:663   */\n      dup3\n        /* \"#utility.yul\":640:664   */\n      tag_49\n      jump\t// in\n    tag_75:\n        /* \"#utility.yul\":629:664   */\n      swap1\n      pop\n        /* \"#utility.yul\":574:670   */\n      swap2\n      swap1\n      pop\n      jump\t// out\n        /* \"#utility.yul\":676:794   */\n    tag_51:\n        /* \"#utility.yul\":763:787   */\n      tag_77\n        /* \"#utility.yul\":781:786   */\n      dup2\n        /* \"#utility.yul\":763:787   */\n      tag_50\n      jump\t// in\n    tag_77:\n        /* \"#utility.yul\":758:761   */\n      dup3\n        /* \"#utility.yul\":751:788   */\n      mstore\n        /* \"#utility.yul\":676:794   */\n      pop\n      pop\n      jump\t// out\n        /* \"#utility.yul\":800:1022   */\n    tag_15:\n        /* \"#utility.yul\":893:897   */\n      0x00\n        /* \"#utility.yul\":931:933   */\n      0x20\n        /* \"#utility.yul\":920:929   */\n      dup3\n        /* \"#utility.yul\":916:934   */\n      add\n        /* \"#utility.yul\":908:934   */\n      swap1\n      pop\n        /* \"#utility.yul\":944:1015   */\n      tag_79\n        /* \"#utility.yul\":1012:1013   */\n      0x00\n        /* \"#utility.yul\":1001:1010   */\n      dup4\n        /* \"#utility.yul\":997:1014   */\n      add\n        /* \"#utility.yul\":988:994   */\n      dup5\n        /* \"#utility.yul\":944:1015   */\n      tag_51\n      jump\t// in\n    tag_79:\n        /* \"#utility.yul\":800:1022   */\n      swap3\n      swap2\n      pop\n      pop\n      jump\t// out\n        /* \"#utility.yul\":1109:1226   */\n    tag_53:\n        /* \"#utility.yul\":1218:1219   */\n      0x00\n        /* \"#utility.yul\":1215:1216   */\n      dup1\n        /* \"#utility.yul\":1208:1220   */\n      revert\n        /* \"#utility.yul\":1355:1477   */\n    tag_55:\n        /* \"#utility.yul\":1428:1452   */\n      tag_84\n        /* \"#utility.yul\":1446:1451   */\n      dup2\n        /* \"#utility.yul\":1428:1452   */\n      tag_50\n      jump\t// in\n    tag_84:\n        /* \"#utility.yul\":1421:1426   */\n      dup2\n        /* \"#utility.yul\":1418:1453   */\n      eq\n        /* \"#utility.yul\":1408:1471   */\n      tag_85\n      jumpi\n        /* \"#utility.yul\":1467:1468   */\n      0x00\n        /* \"#utility.yul\":1464:1465   */\n      dup1\n        /* \"#utility.yul\":1457:1469   */\n      revert\n        /* \"#utility.yul\":1408:1471   */\n    tag_85:\n        /* \"#utility.yul\":1355:1477   */\n      pop\n      jump\t// out\n        /* \"#utility.yul\":1483:1622   */\n    tag_56:\n        /* \"#utility.yul\":1529:1534   */\n      0x00\n        /* \"#utility.yul\":1567:1573   */\n      dup2\n        /* \"#utility.yul\":1554:1574   */\n      calldataload\n        /* \"#utility.yul\":1545:1574   */\n      swap1\n      pop\n        /* \"#utility.yul\":1583:1616   */\n      tag_87\n        /* \"#utility.yul\":1610:1615   */\n      dup2\n        /* \"#utility.yul\":1583:1616   */\n      tag_55\n      jump\t// in\n    tag_87:\n        /* \"#utility.yul\":1483:1622   */\n      swap3\n      swap2\n      pop\n      pop\n      jump\t// out\n        /* \"#utility.yul\":1628:1957   */\n    tag_18:\n        /* \"#utility.yul\":1687:1693   */\n      0x00\n        /* \"#utility.yul\":1736:1738   */\n      0x20\n        /* \"#utility.yul\":1724:1733   */\n      dup3\n        /* \"#utility.yul\":1715:1722   */\n      dup5\n        /* \"#utility.yul\":1711:1734   */\n      sub\n        /* \"#utility.yul\":1707:1739   */\n      slt\n        /* \"#utility.yul\":1704:1823   */\n      iszero\n      tag_89\n      jumpi\n        /* \"#utility.yul\":1742:1821   */\n      tag_90\n      tag_53\n      jump\t// in\n    tag_90:\n        /* \"#utility.yul\":1704:1823   */\n    tag_89:\n        /* \"#utility.yul\":1862:1863   */\n      0x00\n        /* \"#utility.yul\":1887:1940   */\n      tag_91\n        /* \"#utility.yul\":1932:1939   */\n      dup5\n        /* \"#utility.yul\":1923:1929   */\n      dup3\n        /* \"#utility.yul\":1912:1921   */\n      dup6\n        /* \"#utility.yul\":1908:1930   */\n      add\n        /* \"#utility.yul\":1887:1940   */\n      tag_56\n      jump\t// in\n    tag_91:\n        /* \"#utility.yul\":1877:1940   */\n      swap2\n      pop\n        /* \"#utility.yul\":1833:1950   */\n      pop\n        /* \"#utility.yul\":1628:1957   */\n      swap3\n      swap2\n      pop\n      pop\n      jump\t// out\n        /* \"#utility.yul\":1963:2073   */\n    tag_57:\n        /* \"#utility.yul\":2014:2021   */\n      0x00\n        /* \"#utility.yul\":2043:2067   */\n      tag_93\n        /* \"#utility.yul\":2061:2066   */\n      dup3\n        /* \"#utility.yul\":2043:2067   */\n      tag_50\n      jump\t// in\n    tag_93:\n        /* \"#utility.yul\":2032:2067   */\n      swap1\n      pop\n        /* \"#utility.yul\":1963:2073   */\n      swap2\n      swap1\n      pop\n      jump\t// out\n        /* \"#utility.yul\":2079:2229   */\n    tag_58:\n        /* \"#utility.yul\":2166:2204   */\n      tag_95\n        /* \"#utility.yul\":2198:2203   */\n      dup2\n        /* \"#utility.yul\":2166:2204   */\n      tag_57\n      jump\t// in\n    tag_95:\n        /* \"#utility.yul\":2159:2164   */\n      dup2\n        /* \"#utility.yul\":2156:2205   */\n      eq\n        /* \"#utility.yul\":2146:2223   */\n      tag_96\n      jumpi\n        /* \"#utility.yul\":2219:2220   */\n      0x00\n        /* \"#utility.yul\":2216:2217   */\n      dup1\n        /* \"#utility.yul\":2209:2221   */\n      revert\n        /* \"#utility.yul\":2146:2223   */\n    tag_96:\n        /* \"#utility.yul\":2079:2229   */\n      pop\n      jump\t// out\n        /* \"#utility.yul\":2235:2402   */\n    tag_59:\n        /* \"#utility.yul\":2295:2300   */\n      0x00\n        /* \"#utility.yul\":2333:2339   */\n      dup2\n        /* \"#utility.yul\":2320:2340   */\n      calldataload\n        /* \"#utility.yul\":2311:2340   */\n      swap1\n      pop\n        /* \"#utility.yul\":2349:2396   */\n      tag_98\n        /* \"#utility.yul\":2390:2395   */\n      dup2\n        /* \"#utility.yul\":2349:2396   */\n      tag_58\n      jump\t// in\n    tag_98:\n        /* \"#utility.yul\":2235:2402   */\n      swap3\n      swap2\n      pop\n      pop\n      jump\t// out\n        /* \"#utility.yul\":2408:2765   */\n    tag_22:\n        /* \"#utility.yul\":2481:2487   */\n      0x00\n        /* \"#utility.yul\":2530:2532   */\n      0x20\n        /* \"#utility.yul\":2518:2527   */\n      dup3\n        /* \"#utility.yul\":2509:2516   */\n      dup5\n        /* \"#utility.yul\":2505:2528   */\n      sub\n        /* \"#utility.yul\":2501:2533   */\n      slt\n        /* \"#utility.yul\":2498:2617   */\n      iszero\n      tag_100\n      jumpi\n        /* \"#utility.yul\":2536:2615   */\n      tag_101\n      tag_53\n      jump\t// in\n    tag_101:\n        /* \"#utility.yul\":2498:2617   */\n    tag_100:\n        /* \"#utility.yul\":2656:2657   */\n      0x00\n        /* \"#utility.yul\":2681:2748   */\n      tag_102\n        /* \"#utility.yul\":2740:2747   */\n      dup5\n        /* \"#utility.yul\":2731:2737   */\n      dup3\n        /* \"#utility.yul\":2720:2729   */\n      dup6\n        /* \"#utility.yul\":2716:2738   */\n      add\n        /* \"#utility.yul\":2681:2748   */\n      tag_59\n      jump\t// in\n    tag_102:\n        /* \"#utility.yul\":2671:2748   */\n      swap2\n      pop\n        /* \"#utility.yul\":2627:2758   */\n      pop\n        /* \"#utility.yul\":2408:2765   */\n      swap3\n      swap2\n      pop\n      pop\n      jump\t// out\n        /* \"#utility.yul\":2771:2869   */\n    tag_60:\n        /* \"#utility.yul\":2822:2828   */\n      0x00\n        /* \"#utility.yul\":2856:2861   */\n      dup2\n        /* \"#utility.yul\":2850:2862   */\n      mload\n        /* \"#utility.yul\":2840:2862   */\n      swap1\n      pop\n        /* \"#utility.yul\":2771:2869   */\n      swap2\n      swap1\n      pop\n      jump\t// out\n        /* \"#utility.yul\":2875:3022   */\n    tag_61:\n        /* \"#utility.yul\":2976:2987   */\n      0x00\n        /* \"#utility.yul\":3013:3016   */\n      dup2\n        /* \"#utility.yul\":2998:3016   */\n      swap1\n      pop\n        /* \"#utility.yul\":2875:3022   */\n      swap3\n      swap2\n      pop\n      pop\n      jump\t// out\n        /* \"#utility.yul\":3028:3167   */\n    tag_62:\n        /* \"#utility.yul\":3117:3123   */\n      dup3\n        /* \"#utility.yul\":3112:3115   */\n      dup2\n        /* \"#utility.yul\":3107:3110   */\n      dup4\n        /* \"#utility.yul\":3101:3124   */\n      mcopy\n        /* \"#utility.yul\":3158:3159   */\n      0x00\n        /* \"#utility.yul\":3149:3155   */\n      dup4\n        /* \"#utility.yul\":3144:3147   */\n      dup4\n        /* \"#utility.yul\":3140:3156   */\n      add\n        /* \"#utility.yul\":3133:3160   */\n      mstore\n        /* \"#utility.yul\":3028:3167   */\n      pop\n      pop\n      pop\n      jump\t// out\n        /* \"#utility.yul\":3173:3559   */\n    tag_63:\n        /* \"#utility.yul\":3277:3280   */\n      0x00\n        /* \"#utility.yul\":3305:3343   */\n      tag_107\n        /* \"#utility.yul\":3337:3342   */\n      dup3\n        /* \"#utility.yul\":3305:3343   */\n      tag_60\n      jump\t// in\n    tag_107:\n        /* \"#utility.yul\":3359:3447   */\n      tag_108\n        /* \"#utility.yul\":3440:3446   */\n      dup2\n        /* \"#utility.yul\":3435:3438   */\n      dup6\n        /* \"#utility.yul\":3359:3447   */\n      tag_61\n      jump\t// in\n    tag_108:\n        /* \"#utility.yul\":3352:3447   */\n      swap4\n      pop\n        /* \"#utility.yul\":3456:3521   */\n      tag_109\n        /* \"#utility.yul\":3514:3520   */\n      dup2\n        /* \"#utility.yul\":3509:3512   */\n      dup6\n        /* \"#utility.yul\":3502:3506   */\n      0x20\n        /* \"#utility.yul\":3495:3500   */\n      dup7\n        /* \"#utility.yul\":3491:3507   */\n      add\n        /* \"#utility.yul\":3456:3521   */\n      tag_62\n      jump\t// in\n    tag_109:\n        /* \"#utility.yul\":3546:3552   */\n      dup1\n        /* \"#utility.yul\":3541:3544   */\n      dup5\n        /* \"#utility.yul\":3537:3553   */\n      add\n        /* \"#utility.yul\":3530:3553   */\n      swap2\n      pop\n        /* \"#utility.yul\":3281:3559   */\n      pop\n        /* \"#utility.yul\":3173:3559   */\n      swap3\n      swap2\n      pop\n      pop\n      jump\t// out\n        /* \"#utility.yul\":3565:3836   */\n    tag_29:\n        /* \"#utility.yul\":3695:3698   */\n      0x00\n        /* \"#utility.yul\":3717:3810   */\n      tag_111\n        /* \"#utility.yul\":3806:3809   */\n      dup3\n        /* \"#utility.yul\":3797:3803   */\n      dup5\n        /* \"#utility.yul\":3717:3810   */\n      tag_63\n      jump\t// in\n    tag_111:\n        /* \"#utility.yul\":3710:3810   */\n      swap2\n      pop\n        /* \"#utility.yul\":3827:3830   */\n      dup2\n        /* \"#utility.yul\":3820:3830   */\n      swap1\n      pop\n        /* \"#utility.yul\":3565:3836   */\n      swap3\n      swap2\n      pop\n      pop\n      jump\t// out\n        /* \"#utility.yul\":3842:4011   */\n    tag_64:\n        /* \"#utility.yul\":3926:3937   */\n      0x00\n        /* \"#utility.yul\":3960:3966   */\n      dup3\n        /* \"#utility.yul\":3955:3958   */\n      dup3\n        /* \"#utility.yul\":3948:3967   */\n      mstore\n        /* \"#utility.yul\":4000:4004   */\n      0x20\n        /* \"#utility.yul\":3995:3998   */\n      dup3\n        /* \"#utility.yul\":3991:4005   */\n      add\n        /* \"#utility.yul\":3976:4005   */\n      swap1\n      pop\n        /* \"#utility.yul\":3842:4011   */\n      swap3\n      swap2\n      pop\n      pop\n      jump\t// out\n        /* \"#utility.yul\":4017:4186   */\n    tag_65:\n        /* \"#utility.yul\":4157:4178   */\n      0x44656c656761746563616c6c206661696c656400000000000000000000000000\n        /* \"#utility.yul\":4153:4154   */\n      0x00\n        /* \"#utility.yul\":4145:4151   */\n      dup3\n        /* \"#utility.yul\":4141:4155   */\n      add\n        /* \"#utility.yul\":4134:4179   */\n      mstore\n        /* \"#utility.yul\":4017:4186   */\n      pop\n      jump\t// out\n        /* \"#utility.yul\":4192:4558   */\n    tag_66:\n        /* \"#utility.yul\":4334:4337   */\n      0x00\n        /* \"#utility.yul\":4355:4422   */\n      tag_115\n        /* \"#utility.yul\":4419:4421   */\n      0x13\n        /* \"#utility.yul\":4414:4417   */\n      dup4\n        /* \"#utility.yul\":4355:4422   */\n      tag_64\n      jump\t// in\n    tag_115:\n        /* \"#utility.yul\":4348:4422   */\n      swap2\n      pop\n        /* \"#utility.yul\":4431:4524   */\n      tag_116\n        /* \"#utility.yul\":4520:4523   */\n      dup3\n        /* \"#utility.yul\":4431:4524   */\n      tag_65\n      jump\t// in\n    tag_116:\n        /* \"#utility.yul\":4549:4551   */\n      0x20\n        /* \"#utility.yul\":4544:4547   */\n      dup3\n        /* \"#utility.yul\":4540:4552   */\n      add\n        /* \"#utility.yul\":4533:4552   */\n      swap1\n      pop\n        /* \"#utility.yul\":4192:4558   */\n      swap2\n      swap1\n      pop\n      jump\t// out\n        /* \"#utility.yul\":4564:4983   */\n    tag_35:\n        /* \"#utility.yul\":4730:4734   */\n      0x00\n        /* \"#utility.yul\":4768:4770   */\n      0x20\n        /* \"#utility.yul\":4757:4766   */\n      dup3\n        /* \"#utility.yul\":4753:4771   */\n      add\n        /* \"#utility.yul\":4745:4771   */\n      swap1\n      pop\n        /* \"#utility.yul\":4817:4826   */\n      dup2\n        /* \"#utility.yul\":4811:4815   */\n      dup2\n        /* \"#utility.yul\":4807:4827   */\n      sub\n        /* \"#utility.yul\":4803:4804   */\n      0x00\n        /* \"#utility.yul\":4792:4801   */\n      dup4\n        /* \"#utility.yul\":4788:4805   */\n      add\n        /* \"#utility.yul\":4781:4828   */\n      mstore\n        /* \"#utility.yul\":4845:4976   */\n      tag_118\n        /* \"#utility.yul\":4971:4975   */\n      dup2\n        /* \"#utility.yul\":4845:4976   */\n      tag_66\n      jump\t// in\n    tag_118:\n        /* \"#utility.yul\":4837:4976   */\n      swap1\n      pop\n        /* \"#utility.yul\":4564:4983   */\n      swap2\n      swap1\n      pop\n      jump\t// out\n\n    auxdata: 0xa2646970667358221220b505da53ed537167def19b9b089ca041c0c5b27d0ec326b2352e7822ce52d25a64736f6c634300081a0033\n}\n",
				"bytecode": {
					"linkReferences": {},
					"object": "6080604052348015600e575f80fd5b506106348061001c5f395ff3fe608060405234801561000f575f80fd5b5060043610610055575f3560e01c806361bc221a1461005957806367e404ce14610077578063759502ce146100955780639c018209146100b1578063e22f8b68146100cd575b5f80fd5b6100616100e9565b60405161006e91906103ee565b60405180910390f35b61007f6100ee565b60405161008c9190610446565b60405180910390f35b6100af60048036038101906100aa919061048d565b610113565b005b6100cb60048036038101906100c691906104f3565b610246565b005b6100e760048036038101906100e2919061048d565b6102a4565b005b5f5481565b60015f9054906101000a900473ffffffffffffffffffffffffffffffffffffffff1681565b5f6040516024016040516020818303038152906040527f06661abd000000000000000000000000000000000000000000000000000000007bffffffffffffffffffffffffffffffffffffffffffffffffffffffff19166020820180517bffffffffffffffffffffffffffffffffffffffffffffffffffffffff838183161783525050505090505f8273ffffffffffffffffffffffffffffffffffffffff16826040516101bf9190610570565b5f604051808303815f865af19150503d805f81146101f8576040519150601f19603f3d011682016040523d82523d5f602084013e6101fd565b606091505b5050905080610241576040517f08c379a0000000000000000000000000000000000000000000000000000000008152600401610238906105e0565b60405180910390fd5b505050565b8073ffffffffffffffffffffffffffffffffffffffff166306661abd6040518163ffffffff1660e01b81526004015f604051808303815f87803b15801561028b575f80fd5b505af115801561029d573d5f803e3d5ffd5b5050505050565b5f6040516024016040516020818303038152906040527f06661abd000000000000000000000000000000000000000000000000000000007bffffffffffffffffffffffffffffffffffffffffffffffffffffffff19166020820180517bffffffffffffffffffffffffffffffffffffffffffffffffffffffff838183161783525050505090505f8273ffffffffffffffffffffffffffffffffffffffff16826040516103509190610570565b5f60405180830381855af49150503d805f8114610388576040519150601f19603f3d011682016040523d82523d5f602084013e61038d565b606091505b50509050806103d1576040517f08c379a00000000000000000000000000000000000000000000000000000000081526004016103c8906105e0565b60405180910390fd5b505050565b5f819050919050565b6103e8816103d6565b82525050565b5f6020820190506104015f8301846103df565b92915050565b5f73ffffffffffffffffffffffffffffffffffffffff82169050919050565b5f61043082610407565b9050919050565b61044081610426565b82525050565b5f6020820190506104595f830184610437565b92915050565b5f80fd5b61046c81610426565b8114610476575f80fd5b50565b5f8135905061048781610463565b92915050565b5f602082840312156104a2576104a161045f565b5b5f6104af84828501610479565b91505092915050565b5f6104c282610426565b9050919050565b6104d2816104b8565b81146104dc575f80fd5b50565b5f813590506104ed816104c9565b92915050565b5f602082840312156105085761050761045f565b5b5f610515848285016104df565b91505092915050565b5f81519050919050565b5f81905092915050565b8281835e5f83830152505050565b5f61054a8261051e565b6105548185610528565b9350610564818560208601610532565b80840191505092915050565b5f61057b8284610540565b915081905092915050565b5f82825260208201905092915050565b7f44656c656761746563616c6c206661696c6564000000000000000000000000005f82015250565b5f6105ca601383610586565b91506105d582610596565b602082019050919050565b5f6020820190508181035f8301526105f7816105be565b905091905056fea2646970667358221220b505da53ed537167def19b9b089ca041c0c5b27d0ec326b2352e7822ce52d25a64736f6c634300081a0033",
					"opcodes": "PUSH1 0x80 PUSH1 0x40 MSTORE CALLVALUE DUP1 ISZERO PUSH1 0xE JUMPI PUSH0 DUP1 REVERT JUMPDEST POP PUSH2 0x634 DUP1 PUSH2 0x1C PUSH0 CODECOPY PUSH0 RETURN INVALID PUSH1 0x80 PUSH1 0x40 MSTORE CALLVALUE DUP1 ISZERO PUSH2 0xF JUMPI PUSH0 DUP1 REVERT JUMPDEST POP PUSH1 0x4 CALLDATASIZE LT PUSH2 0x55 JUMPI PUSH0 CALLDATALOAD PUSH1 0xE0 SHR DUP1 PUSH4 0x61BC221A EQ PUSH2 0x59 JUMPI DUP1 PUSH4 0x67E404CE EQ PUSH2 0x77 JUMPI DUP1 PUSH4 0x759502CE EQ PUSH2 0x95 JUMPI DUP1 PUSH4 0x9C018209 EQ PUSH2 0xB1 JUMPI DUP1 PUSH4 0xE22F8B68 EQ PUSH2 0xCD JUMPI JUMPDEST PUSH0 DUP1 REVERT JUMPDEST PUSH2 0x61 PUSH2 0xE9 JUMP JUMPDEST PUSH1 0x40 MLOAD PUSH2 0x6E SWAP2 SWAP1 PUSH2 0x3EE JUMP JUMPDEST PUSH1 0x40 MLOAD DUP1 SWAP2 SUB SWAP1 RETURN JUMPDEST PUSH2 0x7F PUSH2 0xEE JUMP JUMPDEST PUSH1 0x40 MLOAD PUSH2 0x8C SWAP2 SWAP1 PUSH2 0x446 JUMP JUMPDEST PUSH1 0x40 MLOAD DUP1 SWAP2 SUB SWAP1 RETURN JUMPDEST PUSH2 0xAF PUSH1 0x4 DUP1 CALLDATASIZE SUB DUP2 ADD SWAP1 PUSH2 0xAA SWAP2 SWAP1 PUSH2 0x48D JUMP JUMPDEST PUSH2 0x113 JUMP JUMPDEST STOP JUMPDEST PUSH2 0xCB PUSH1 0x4 DUP1 CALLDATASIZE SUB DUP2 ADD SWAP1 PUSH2 0xC6 SWAP2 SWAP1 PUSH2 0x4F3 JUMP JUMPDEST PUSH2 0x246 JUMP JUMPDEST STOP JUMPDEST PUSH2 0xE7 PUSH1 0x4 DUP1 CALLDATASIZE SUB DUP2 ADD SWAP1 PUSH2 0xE2 SWAP2 SWAP1 PUSH2 0x48D JUMP JUMPDEST PUSH2 0x2A4 JUMP JUMPDEST STOP JUMPDEST PUSH0 SLOAD DUP2 JUMP JUMPDEST PUSH1 0x1 PUSH0 SWAP1 SLOAD SWAP1 PUSH2 0x100 EXP SWAP1 DIV PUSH20 0xFFFFFFFFFFFFFFFFFFFFFFFFFFFFFFFFFFFFFFFF AND DUP2 JUMP JUMPDEST PUSH0 PUSH1 0x40 MLOAD PUSH1 0x24 ADD PUSH1 0x40 MLOAD PUSH1 0x20 DUP2 DUP4 SUB SUB DUP2 MSTORE SWAP1 PUSH1 0x40 MSTORE PUSH32 0x6661ABD00000000000000000000000000000000000000000000000000000000 PUSH28 0xFFFFFFFFFFFFFFFFFFFFFFFFFFFFFFFFFFFFFFFFFFFFFFFFFFFFFFFF NOT AND PUSH1 0x20 DUP3 ADD DUP1 MLOAD PUSH28 0xFFFFFFFFFFFFFFFFFFFFFFFFFFFFFFFFFFFFFFFFFFFFFFFFFFFFFFFF DUP4 DUP2 DUP4 AND OR DUP4 MSTORE POP POP POP POP SWAP1 POP PUSH0 DUP3 PUSH20 0xFFFFFFFFFFFFFFFFFFFFFFFFFFFFFFFFFFFFFFFF AND DUP3 PUSH1 0x40 MLOAD PUSH2 0x1BF SWAP2 SWAP1 PUSH2 0x570 JUMP JUMPDEST PUSH0 PUSH1 0x40 MLOAD DUP1 DUP4 SUB DUP2 PUSH0 DUP7 GAS CALL SWAP2 POP POP RETURNDATASIZE DUP1 PUSH0 DUP2 EQ PUSH2 0x1F8 JUMPI PUSH1 0x40 MLOAD SWAP2 POP PUSH1 0x1F NOT PUSH1 0x3F RETURNDATASIZE ADD AND DUP3 ADD PUSH1 0x40 MSTORE RETURNDATASIZE DUP3 MSTORE RETURNDATASIZE PUSH0 PUSH1 0x20 DUP5 ADD RETURNDATACOPY PUSH2 0x1FD JUMP JUMPDEST PUSH1 0x60 SWAP2 POP JUMPDEST POP POP SWAP1 POP DUP1 PUSH2 0x241 JUMPI PUSH1 0x40 MLOAD PUSH32 0x8C379A000000000000000000000000000000000000000000000000000000000 DUP2 MSTORE PUSH1 0x4 ADD PUSH2 0x238 SWAP1 PUSH2 0x5E0 JUMP JUMPDEST PUSH1 0x40 MLOAD DUP1 SWAP2 SUB SWAP1 REVERT JUMPDEST POP POP POP JUMP JUMPDEST DUP1 PUSH20 0xFFFFFFFFFFFFFFFFFFFFFFFFFFFFFFFFFFFFFFFF AND PUSH4 0x6661ABD PUSH1 0x40 MLOAD DUP2 PUSH4 0xFFFFFFFF AND PUSH1 0xE0 SHL DUP2 MSTORE PUSH1 0x4 ADD PUSH0 PUSH1 0x40 MLOAD DUP1 DUP4 SUB DUP2 PUSH0 DUP8 DUP1 EXTCODESIZE ISZERO DUP1 ISZERO PUSH2 0x28B JUMPI PUSH0 DUP1 REVERT JUMPDEST POP GAS CALL ISZERO DUP1 ISZERO PUSH2 0x29D JUMPI RETURNDATASIZE PUSH0 DUP1 RETURNDATACOPY RETURNDATASIZE PUSH0 REVERT JUMPDEST POP POP POP POP POP JUMP JUMPDEST PUSH0 PUSH1 0x40 MLOAD PUSH1 0x24 ADD PUSH1 0x40 MLOAD PUSH1 0x20 DUP2 DUP4 SUB SUB DUP2 MSTORE SWAP1 PUSH1 0x40 MSTORE PUSH32 0x6661ABD00000000000000000000000000000000000000000000000000000000 PUSH28 0xFFFFFFFFFFFFFFFFFFFFFFFFFFFFFFFFFFFFFFFFFFFFFFFFFFFFFFFF NOT AND PUSH1 0x20 DUP3 ADD DUP1 MLOAD PUSH28 0xFFFFFFFFFFFFFFFFFFFFFFFFFFFFFFFFFFFFFFFFFFFFFFFFFFFFFFFF DUP4 DUP2 DUP4 AND OR DUP4 MSTORE POP POP POP POP SWAP1 POP PUSH0 DUP3 PUSH20 0xFFFFFFFFFFFFFFFFFFFFFFFFFFFFFFFFFFFFFFFF AND DUP3 PUSH1 0x40 MLOAD PUSH2 0x350 SWAP2 SWAP1 PUSH2 0x570 JUMP JUMPDEST PUSH0 PUSH1 0x40 MLOAD DUP1 DUP4 SUB DUP2 DUP6 GAS DELEGATECALL SWAP2 POP POP RETURNDATASIZE DUP1 PUSH0 DUP2 EQ PUSH2 0x388 JUMPI PUSH1 0x40 MLOAD SWAP2 POP PUSH1 0x1F NOT PUSH1 0x3F RETURNDATASIZE ADD AND DUP3 ADD PUSH1 0x40 MSTORE RETURNDATASIZE DUP3 MSTORE RETURNDATASIZE PUSH0 PUSH1 0x20 DUP5 ADD RETURNDATACOPY PUSH2 0x38D JUMP JUMPDEST PUSH1 0x60 SWAP2 POP JUMPDEST POP POP SWAP1 POP DUP1 PUSH2 0x3D1 JUMPI PUSH1 0x40 MLOAD PUSH32 0x8C379A000000000000000000000000000000000000000000000000000000000 DUP2 MSTORE PUSH1 0x4 ADD PUSH2 0x3C8 SWAP1 PUSH2 0x5E0 JUMP JUMPDEST PUSH1 0x40 MLOAD DUP1 SWAP2 SUB SWAP1 REVERT JUMPDEST POP POP POP JUMP JUMPDEST PUSH0 DUP2 SWAP1 POP SWAP2 SWAP1 POP JUMP JUMPDEST PUSH2 0x3E8 DUP2 PUSH2 0x3D6 JUMP JUMPDEST DUP3 MSTORE POP POP JUMP JUMPDEST PUSH0 PUSH1 0x20 DUP3 ADD SWAP1 POP PUSH2 0x401 PUSH0 DUP4 ADD DUP5 PUSH2 0x3DF JUMP JUMPDEST SWAP3 SWAP2 POP POP JUMP JUMPDEST PUSH0 PUSH20 0xFFFFFFFFFFFFFFFFFFFFFFFFFFFFFFFFFFFFFFFF DUP3 AND SWAP1 POP SWAP2 SWAP1 POP JUMP JUMPDEST PUSH0 PUSH2 0x430 DUP3 PUSH2 0x407 JUMP JUMPDEST SWAP1 POP SWAP2 SWAP1 POP JUMP JUMPDEST PUSH2 0x440 DUP2 PUSH2 0x426 JUMP JUMPDEST DUP3 MSTORE POP POP JUMP JUMPDEST PUSH0 PUSH1 0x20 DUP3 ADD SWAP1 POP PUSH2 0x459 PUSH0 DUP4 ADD DUP5 PUSH2 0x437 JUMP JUMPDEST SWAP3 SWAP2 POP POP JUMP JUMPDEST PUSH0 DUP1 REVERT JUMPDEST PUSH2 0x46C DUP2 PUSH2 0x426 JUMP JUMPDEST DUP2 EQ PUSH2 0x476 JUMPI PUSH0 DUP1 REVERT JUMPDEST POP JUMP JUMPDEST PUSH0 DUP2 CALLDATALOAD SWAP1 POP PUSH2 0x487 DUP2 PUSH2 0x463 JUMP JUMPDEST SWAP3 SWAP2 POP POP JUMP JUMPDEST PUSH0 PUSH1 0x20 DUP3 DUP5 SUB SLT ISZERO PUSH2 0x4A2 JUMPI PUSH2 0x4A1 PUSH2 0x45F JUMP JUMPDEST JUMPDEST PUSH0 PUSH2 0x4AF DUP5 DUP3 DUP6 ADD PUSH2 0x479 JUMP JUMPDEST SWAP2 POP POP SWAP3 SWAP2 POP POP JUMP JUMPDEST PUSH0 PUSH2 0x4C2 DUP3 PUSH2 0x426 JUMP JUMPDEST SWAP1 POP SWAP2 SWAP1 POP JUMP JUMPDEST PUSH2 0x4D2 DUP2 PUSH2 0x4B8 JUMP JUMPDEST DUP2 EQ PUSH2 0x4DC JUMPI PUSH0 DUP1 REVERT JUMPDEST POP JUMP JUMPDEST PUSH0 DUP2 CALLDATALOAD SWAP1 POP PUSH2 0x4ED DUP2 PUSH2 0x4C9 JUMP JUMPDEST SWAP3 SWAP2 POP POP JUMP JUMPDEST PUSH0 PUSH1 0x20 DUP3 DUP5 SUB SLT ISZERO PUSH2 0x508 JUMPI PUSH2 0x507 PUSH2 0x45F JUMP JUMPDEST JUMPDEST PUSH0 PUSH2 0x515 DUP5 DUP3 DUP6 ADD PUSH2 0x4DF JUMP JUMPDEST SWAP2 POP POP SWAP3 SWAP2 POP POP JUMP JUMPDEST PUSH0 DUP2 MLOAD SWAP1 POP SWAP2 SWAP1 POP JUMP JUMPDEST PUSH0 DUP2 SWAP1 POP SWAP3 SWAP2 POP POP JUMP JUMPDEST DUP3 DUP2 DUP4 MCOPY PUSH0 DUP4 DUP4 ADD MSTORE POP POP POP JUMP JUMPDEST PUSH0 PUSH2 0x54A DUP3 PUSH2 0x51E JUMP JUMPDEST PUSH2 0x554 DUP2 DUP6 PUSH2 0x528 JUMP JUMPDEST SWAP4 POP PUSH2 0x564 DUP2 DUP6 PUSH1 0x20 DUP7 ADD PUSH2 0x532 JUMP JUMPDEST DUP1 DUP5 ADD SWAP2 POP POP SWAP3 SWAP2 POP POP JUMP JUMPDEST PUSH0 PUSH2 0x57B DUP3 DUP5 PUSH2 0x540 JUMP JUMPDEST SWAP2 POP DUP2 SWAP1 POP SWAP3 SWAP2 POP POP JUMP JUMPDEST PUSH0 DUP3 DUP3 MSTORE PUSH1 0x20 DUP3 ADD SWAP1 POP SWAP3 SWAP2 POP POP JUMP JUMPDEST PUSH32 0x44656C656761746563616C6C206661696C656400000000000000000000000000 PUSH0 DUP3 ADD MSTORE POP JUMP JUMPDEST PUSH0 PUSH2 0x5CA PUSH1 0x13 DUP4 PUSH2 0x586 JUMP JUMPDEST SWAP2 POP PUSH2 0x5D5 DUP3 PUSH2 0x596 JUMP JUMPDEST PUSH1 0x20 DUP3 ADD SWAP1 POP SWAP2 SWAP1 POP JUMP JUMPDEST PUSH0 PUSH1 0x20 DUP3 ADD SWAP1 POP DUP2 DUP2 SUB PUSH0 DUP4 ADD MSTORE PUSH2 0x5F7 DUP2 PUSH2 0x5BE JUMP JUMPDEST SWAP1 POP SWAP2 SWAP1 POP JUMP INVALID LOG2 PUSH5 0x6970667358 0x22 SLT KECCAK256 0xB5 SDIV 0xDA MSTORE8 0xED MSTORE8 PUSH18 0x67DEF19B9B089CA041C0C5B27D0EC326B235 0x2E PUSH25 0x22CE52D25A64736F6C634300081A0033000000000000000000 "
				},
				"gasEstimates": {
					"creation": {
						"codeDepositCost": "317600",
						"executionCost": "353",
						"totalCost": "317953"
					},
					"external": {
						"callCount(address)": "infinite",
						"counter()": "2402",
						"lowCallCount(address)": "infinite",
						"lowDelegatecallCount(address)": "infinite",
						"sender()": "2508"
					}
				},
				"methodIdentifiers": {
					"callCount(address)": "9c018209",
					"counter()": "61bc221a",
					"lowCallCount(address)": "759502ce",
					"lowDelegatecallCount(address)": "e22f8b68",
					"sender()": "67e404ce"
				}
			},
			"storageLayout": {
				"storage": [
					{
						"astId": 21,
						"contract": "study_way/src/5day_call&delegatecall.sol:CallTest",
						"label": "counter",
						"offset": 0,
						"slot": "0",
						"type": "t_uint256"
					},
					{
						"astId": 23,
						"contract": "study_way/src/5day_call&delegatecall.sol:CallTest",
						"label": "sender",
						"offset": 0,
						"slot": "1",
						"type": "t_address"
					}
				],
				"types": {
					"t_address": {
						"encoding": "inplace",
						"label": "address",
						"numberOfBytes": "20"
					},
					"t_uint256": {
						"encoding": "inplace",
						"label": "uint256",
						"numberOfBytes": "32"
					}
				}
			},
			"userdoc": {
				"kind": "user",
				"methods": {},
				"version": 1
			}
		}
	}
}