{
	"study_way/src/6day_tokenBank.sol": {
		"TokenBank": {
			"abi": [
				{
					"inputs": [
						{
							"internalType": "address",
							"name": "_token",
							"type": "address"
						}
					],
					"stateMutability": "nonpayable",
					"type": "constructor"
				},
				{
					"anonymous": false,
					"inputs": [
						{
							"indexed": true,
							"internalType": "address",
							"name": "user",
							"type": "address"
						},
						{
							"indexed": true,
							"internalType": "address",
							"name": "to",
							"type": "address"
						},
						{
							"indexed": false,
							"internalType": "uint256",
							"name": "amount",
							"type": "uint256"
						}
					],
					"name": "Deposited",
					"type": "event"
				},
				{
					"anonymous": false,
					"inputs": [
						{
							"indexed": true,
							"internalType": "address",
							"name": "user",
							"type": "address"
						},
						{
							"indexed": false,
							"internalType": "uint256",
							"name": "amount",
							"type": "uint256"
						}
					],
					"name": "UserWithdrawn",
					"type": "event"
				},
				{
					"anonymous": false,
					"inputs": [
						{
							"indexed": true,
							"internalType": "address",
							"name": "admin",
							"type": "address"
						},
						{
							"indexed": false,
							"internalType": "uint256",
							"name": "amount",
							"type": "uint256"
						}
					],
					"name": "Withdrawn",
					"type": "event"
				},
				{
					"inputs": [],
					"name": "admin",
					"outputs": [
						{
							"internalType": "address",
							"name": "",
							"type": "address"
						}
					],
					"stateMutability": "view",
					"type": "function"
				},
				{
					"inputs": [
						{
							"internalType": "address",
							"name": "",
							"type": "address"
						}
					],
					"name": "balances",
					"outputs": [
						{
							"internalType": "uint256",
							"name": "",
							"type": "uint256"
						}
					],
					"stateMutability": "view",
					"type": "function"
				},
				{
					"inputs": [
						{
							"internalType": "uint256",
							"name": "amount",
							"type": "uint256"
						}
					],
					"name": "deposit",
					"outputs": [],
					"stateMutability": "nonpayable",
					"type": "function"
				},
				{
					"inputs": [],
					"name": "getBankBalance",
					"outputs": [
						{
							"internalType": "uint256",
							"name": "",
							"type": "uint256"
						}
					],
					"stateMutability": "view",
					"type": "function"
				},
				{
					"inputs": [
						{
							"internalType": "address",
							"name": "user",
							"type": "address"
						}
					],
					"name": "getDepositRecord",
					"outputs": [
						{
							"internalType": "uint256",
							"name": "",
							"type": "uint256"
						}
					],
					"stateMutability": "view",
					"type": "function"
				},
				{
					"inputs": [],
					"name": "token",
					"outputs": [
						{
							"internalType": "contract BaseERC20",
							"name": "",
							"type": "address"
						}
					],
					"stateMutability": "view",
					"type": "function"
				},
				{
					"inputs": [
						{
							"internalType": "uint256",
							"name": "amount",
							"type": "uint256"
						}
					],
					"name": "userWithdraw",
					"outputs": [],
					"stateMutability": "nonpayable",
					"type": "function"
				},
				{
					"inputs": [],
					"name": "withdraw",
					"outputs": [],
					"stateMutability": "nonpayable",
					"type": "function"
				}
			],
			"devdoc": {
				"kind": "dev",
				"methods": {},
				"version": 1
			},
			"evm": {
				"assembly": "    /* \"study_way/src/6day_tokenBank.sol\":251:3101  contract TokenBank {... */\n  mstore(0x40, 0x80)\n    /* \"study_way/src/6day_tokenBank.sol\":801:984  constructor(address _token) {... */\n  callvalue\n  dup1\n  iszero\n  tag_1\n  jumpi\n  0x00\n  dup1\n  revert\ntag_1:\n  pop\n  mload(0x40)\n  sub(codesize, bytecodeSize)\n  dup1\n  bytecodeSize\n  dup4\n  codecopy\n  dup2\n  dup2\n  add\n  0x40\n  mstore\n  dup2\n  add\n  swap1\n  tag_2\n  swap2\n  swap1\n  tag_3\n  jump\t// in\ntag_2:\n    /* \"study_way/src/6day_tokenBank.sol\":857:863  _token */\n  dup1\n    /* \"study_way/src/6day_tokenBank.sol\":839:844  token */\n  0x00\n  dup1\n    /* \"study_way/src/6day_tokenBank.sol\":839:864  token = BaseERC20(_token) */\n  0x0100\n  exp\n  dup2\n  sload\n  dup2\n  0xffffffffffffffffffffffffffffffffffffffff\n  mul\n  not\n  and\n  swap1\n  dup4\n  0xffffffffffffffffffffffffffffffffffffffff\n  and\n  mul\n  or\n  swap1\n  sstore\n  pop\n    /* \"study_way/src/6day_tokenBank.sol\":933:943  msg.sender */\n  caller\n    /* \"study_way/src/6day_tokenBank.sol\":925:930  admin */\n  0x01\n  0x00\n    /* \"study_way/src/6day_tokenBank.sol\":925:943  admin = msg.sender */\n  0x0100\n  exp\n  dup2\n  sload\n  dup2\n  0xffffffffffffffffffffffffffffffffffffffff\n  mul\n  not\n  and\n  swap1\n  dup4\n  0xffffffffffffffffffffffffffffffffffffffff\n  and\n  mul\n  or\n  swap1\n  sstore\n  pop\n    /* \"study_way/src/6day_tokenBank.sol\":801:984  constructor(address _token) {... */\n  pop\n    /* \"study_way/src/6day_tokenBank.sol\":251:3101  contract TokenBank {... */\n  jump(tag_6)\n    /* \"#utility.yul\":88:205   */\ntag_8:\n    /* \"#utility.yul\":197:198   */\n  0x00\n    /* \"#utility.yul\":194:195   */\n  dup1\n    /* \"#utility.yul\":187:199   */\n  revert\n    /* \"#utility.yul\":334:460   */\ntag_10:\n    /* \"#utility.yul\":371:378   */\n  0x00\n    /* \"#utility.yul\":411:453   */\n  0xffffffffffffffffffffffffffffffffffffffff\n    /* \"#utility.yul\":404:409   */\n  dup3\n    /* \"#utility.yul\":400:454   */\n  and\n    /* \"#utility.yul\":389:454   */\n  swap1\n  pop\n    /* \"#utility.yul\":334:460   */\n  swap2\n  swap1\n  pop\n  jump\t// out\n    /* \"#utility.yul\":466:562   */\ntag_11:\n    /* \"#utility.yul\":503:510   */\n  0x00\n    /* \"#utility.yul\":532:556   */\n  tag_20\n    /* \"#utility.yul\":550:555   */\n  dup3\n    /* \"#utility.yul\":532:556   */\n  tag_10\n  jump\t// in\ntag_20:\n    /* \"#utility.yul\":521:556   */\n  swap1\n  pop\n    /* \"#utility.yul\":466:562   */\n  swap2\n  swap1\n  pop\n  jump\t// out\n    /* \"#utility.yul\":568:690   */\ntag_12:\n    /* \"#utility.yul\":641:665   */\n  tag_22\n    /* \"#utility.yul\":659:664   */\n  dup2\n    /* \"#utility.yul\":641:665   */\n  tag_11\n  jump\t// in\ntag_22:\n    /* \"#utility.yul\":634:639   */\n  dup2\n    /* \"#utility.yul\":631:666   */\n  eq\n    /* \"#utility.yul\":621:684   */\n  tag_23\n  jumpi\n    /* \"#utility.yul\":680:681   */\n  0x00\n    /* \"#utility.yul\":677:678   */\n  dup1\n    /* \"#utility.yul\":670:682   */\n  revert\n    /* \"#utility.yul\":621:684   */\ntag_23:\n    /* \"#utility.yul\":568:690   */\n  pop\n  jump\t// out\n    /* \"#utility.yul\":696:839   */\ntag_13:\n    /* \"#utility.yul\":753:758   */\n  0x00\n    /* \"#utility.yul\":784:790   */\n  dup2\n    /* \"#utility.yul\":778:791   */\n  mload\n    /* \"#utility.yul\":769:791   */\n  swap1\n  pop\n    /* \"#utility.yul\":800:833   */\n  tag_25\n    /* \"#utility.yul\":827:832   */\n  dup2\n    /* \"#utility.yul\":800:833   */\n  tag_12\n  jump\t// in\ntag_25:\n    /* \"#utility.yul\":696:839   */\n  swap3\n  swap2\n  pop\n  pop\n  jump\t// out\n    /* \"#utility.yul\":845:1196   */\ntag_3:\n    /* \"#utility.yul\":915:921   */\n  0x00\n    /* \"#utility.yul\":964:966   */\n  0x20\n    /* \"#utility.yul\":952:961   */\n  dup3\n    /* \"#utility.yul\":943:950   */\n  dup5\n    /* \"#utility.yul\":939:962   */\n  sub\n    /* \"#utility.yul\":935:967   */\n  slt\n    /* \"#utility.yul\":932:1051   */\n  iszero\n  tag_27\n  jumpi\n    /* \"#utility.yul\":970:1049   */\n  tag_28\n  tag_8\n  jump\t// in\ntag_28:\n    /* \"#utility.yul\":932:1051   */\ntag_27:\n    /* \"#utility.yul\":1090:1091   */\n  0x00\n    /* \"#utility.yul\":1115:1179   */\n  tag_29\n    /* \"#utility.yul\":1171:1178   */\n  dup5\n    /* \"#utility.yul\":1162:1168   */\n  dup3\n    /* \"#utility.yul\":1151:1160   */\n  dup6\n    /* \"#utility.yul\":1147:1169   */\n  add\n    /* \"#utility.yul\":1115:1179   */\n  tag_13\n  jump\t// in\ntag_29:\n    /* \"#utility.yul\":1105:1179   */\n  swap2\n  pop\n    /* \"#utility.yul\":1061:1189   */\n  pop\n    /* \"#utility.yul\":845:1196   */\n  swap3\n  swap2\n  pop\n  pop\n  jump\t// out\n    /* \"study_way/src/6day_tokenBank.sol\":251:3101  contract TokenBank {... */\ntag_6:\n  dataSize(sub_0)\n  dup1\n  dataOffset(sub_0)\n  0x00\n  codecopy\n  0x00\n  return\nstop\n\nsub_0: assembly {\n        /* \"study_way/src/6day_tokenBank.sol\":251:3101  contract TokenBank {... */\n      mstore(0x40, 0x80)\n      callvalue\n      dup1\n      iszero\n      tag_1\n      jumpi\n      0x00\n      dup1\n      revert\n    tag_1:\n      pop\n      jumpi(tag_2, lt(calldatasize, 0x04))\n      shr(0xe0, calldataload(0x00))\n      dup1\n      0x7b83b50b\n      gt\n      tag_11\n      jumpi\n      dup1\n      0x7b83b50b\n      eq\n      tag_7\n      jumpi\n      dup1\n      0xb6b55f25\n      eq\n      tag_8\n      jumpi\n      dup1\n      0xf851a440\n      eq\n      tag_9\n      jumpi\n      dup1\n      0xfc0c546a\n      eq\n      tag_10\n      jumpi\n      jump(tag_2)\n    tag_11:\n      dup1\n      0x27e235e3\n      eq\n      tag_3\n      jumpi\n      dup1\n      0x3b9056bf\n      eq\n      tag_4\n      jumpi\n      dup1\n      0x3ccfd60b\n      eq\n      tag_5\n      jumpi\n      dup1\n      0x3dc58149\n      eq\n      tag_6\n      jumpi\n    tag_2:\n      0x00\n      dup1\n      revert\n        /* \"study_way/src/6day_tokenBank.sol\":440:483  mapping(address => uint256) public balances */\n    tag_3:\n      tag_12\n      0x04\n      dup1\n      calldatasize\n      sub\n      dup2\n      add\n      swap1\n      tag_13\n      swap2\n      swap1\n      tag_14\n      jump\t// in\n    tag_13:\n      tag_15\n      jump\t// in\n    tag_12:\n      mload(0x40)\n      tag_16\n      swap2\n      swap1\n      tag_17\n      jump\t// in\n    tag_16:\n      mload(0x40)\n      dup1\n      swap2\n      sub\n      swap1\n      return\n        /* \"study_way/src/6day_tokenBank.sol\":1830:2259  function userWithdraw(uint256 amount) external {... */\n    tag_4:\n      tag_18\n      0x04\n      dup1\n      calldatasize\n      sub\n      dup2\n      add\n      swap1\n      tag_19\n      swap2\n      swap1\n      tag_20\n      jump\t// in\n    tag_19:\n      tag_21\n      jump\t// in\n    tag_18:\n      stop\n        /* \"study_way/src/6day_tokenBank.sol\":2300:2771  function withdraw() external {... */\n    tag_5:\n      tag_22\n      tag_23\n      jump\t// in\n    tag_22:\n      stop\n        /* \"study_way/src/6day_tokenBank.sol\":2988:3098  function getDepositRecord(address user) external view returns (uint256) {... */\n    tag_6:\n      tag_24\n      0x04\n      dup1\n      calldatasize\n      sub\n      dup2\n      add\n      swap1\n      tag_25\n      swap2\n      swap1\n      tag_14\n      jump\t// in\n    tag_25:\n      tag_26\n      jump\t// in\n    tag_24:\n      mload(0x40)\n      tag_27\n      swap2\n      swap1\n      tag_17\n      jump\t// in\n    tag_27:\n      mload(0x40)\n      dup1\n      swap2\n      sub\n      swap1\n      return\n        /* \"study_way/src/6day_tokenBank.sol\":2824:2936  function getBankBalance() external view returns (uint256) {... */\n    tag_7:\n      tag_28\n      tag_29\n      jump\t// in\n    tag_28:\n      mload(0x40)\n      tag_30\n      swap2\n      swap1\n      tag_17\n      jump\t// in\n    tag_30:\n      mload(0x40)\n      dup1\n      swap2\n      sub\n      swap1\n      return\n        /* \"study_way/src/6day_tokenBank.sol\":1144:1792  function deposit(uint256 amount) external {... */\n    tag_8:\n      tag_31\n      0x04\n      dup1\n      calldatasize\n      sub\n      dup2\n      add\n      swap1\n      tag_32\n      swap2\n      swap1\n      tag_20\n      jump\t// in\n    tag_32:\n      tag_33\n      jump\t// in\n    tag_31:\n      stop\n        /* \"study_way/src/6day_tokenBank.sol\":354:374  address public admin */\n    tag_9:\n      tag_34\n      tag_35\n      jump\t// in\n    tag_34:\n      mload(0x40)\n      tag_36\n      swap2\n      swap1\n      tag_37\n      jump\t// in\n    tag_36:\n      mload(0x40)\n      dup1\n      swap2\n      sub\n      swap1\n      return\n        /* \"study_way/src/6day_tokenBank.sol\":302:324  BaseERC20 public token */\n    tag_10:\n      tag_38\n      tag_39\n      jump\t// in\n    tag_38:\n      mload(0x40)\n      tag_40\n      swap2\n      swap1\n      tag_41\n      jump\t// in\n    tag_40:\n      mload(0x40)\n      dup1\n      swap2\n      sub\n      swap1\n      return\n        /* \"study_way/src/6day_tokenBank.sol\":440:483  mapping(address => uint256) public balances */\n    tag_15:\n      mstore(0x20, 0x02)\n      dup1\n      0x00\n      mstore\n      keccak256(0x00, 0x40)\n      0x00\n      swap2\n      pop\n      swap1\n      pop\n      sload\n      dup2\n      jump\t// out\n        /* \"study_way/src/6day_tokenBank.sol\":1830:2259  function userWithdraw(uint256 amount) external {... */\n    tag_21:\n        /* \"study_way/src/6day_tokenBank.sol\":1904:1905  0 */\n      0x00\n        /* \"study_way/src/6day_tokenBank.sol\":1895:1901  amount */\n      dup2\n        /* \"study_way/src/6day_tokenBank.sol\":1895:1905  amount > 0 */\n      gt\n        /* \"study_way/src/6day_tokenBank.sol\":1887:1939  require(amount > 0, \"Amount must be greater than 0\") */\n      tag_43\n      jumpi\n      mload(0x40)\n      0x08c379a000000000000000000000000000000000000000000000000000000000\n      dup2\n      mstore\n      0x04\n      add\n      tag_44\n      swap1\n      tag_45\n      jump\t// in\n    tag_44:\n      mload(0x40)\n      dup1\n      swap2\n      sub\n      swap1\n      revert\n    tag_43:\n        /* \"study_way/src/6day_tokenBank.sol\":1981:1987  amount */\n      dup1\n        /* \"study_way/src/6day_tokenBank.sol\":1957:1965  balances */\n      0x02\n        /* \"study_way/src/6day_tokenBank.sol\":1957:1977  balances[msg.sender] */\n      0x00\n        /* \"study_way/src/6day_tokenBank.sol\":1966:1976  msg.sender */\n      caller\n        /* \"study_way/src/6day_tokenBank.sol\":1957:1977  balances[msg.sender] */\n      0xffffffffffffffffffffffffffffffffffffffff\n      and\n      0xffffffffffffffffffffffffffffffffffffffff\n      and\n      dup2\n      mstore\n      0x20\n      add\n      swap1\n      dup2\n      mstore\n      0x20\n      add\n      0x00\n      keccak256\n      sload\n        /* \"study_way/src/6day_tokenBank.sol\":1957:1987  balances[msg.sender] >= amount */\n      lt\n      iszero\n        /* \"study_way/src/6day_tokenBank.sol\":1949:2012  require(balances[msg.sender] >= amount, \"Insufficient balance\") */\n      tag_46\n      jumpi\n      mload(0x40)\n      0x08c379a000000000000000000000000000000000000000000000000000000000\n      dup2\n      mstore\n      0x04\n      add\n      tag_47\n      swap1\n      tag_48\n      jump\t// in\n    tag_47:\n      mload(0x40)\n      dup1\n      swap2\n      sub\n      swap1\n      revert\n    tag_46:\n        /* \"study_way/src/6day_tokenBank.sol\":2092:2098  amount */\n      dup1\n        /* \"study_way/src/6day_tokenBank.sol\":2068:2076  balances */\n      0x02\n        /* \"study_way/src/6day_tokenBank.sol\":2068:2088  balances[msg.sender] */\n      0x00\n        /* \"study_way/src/6day_tokenBank.sol\":2077:2087  msg.sender */\n      caller\n        /* \"study_way/src/6day_tokenBank.sol\":2068:2088  balances[msg.sender] */\n      0xffffffffffffffffffffffffffffffffffffffff\n      and\n      0xffffffffffffffffffffffffffffffffffffffff\n      and\n      dup2\n      mstore\n      0x20\n      add\n      swap1\n      dup2\n      mstore\n      0x20\n      add\n      0x00\n      keccak256\n      0x00\n        /* \"study_way/src/6day_tokenBank.sol\":2068:2098  balances[msg.sender] -= amount */\n      dup3\n      dup3\n      sload\n      tag_49\n      swap2\n      swap1\n      tag_50\n      jump\t// in\n    tag_49:\n      swap3\n      pop\n      pop\n      dup2\n      swap1\n      sstore\n      pop\n        /* \"study_way/src/6day_tokenBank.sol\":2109:2121  bool success */\n      0x00\n        /* \"study_way/src/6day_tokenBank.sol\":2124:2129  token */\n      dup1\n      0x00\n      swap1\n      sload\n      swap1\n      0x0100\n      exp\n      swap1\n      div\n      0xffffffffffffffffffffffffffffffffffffffff\n      and\n        /* \"study_way/src/6day_tokenBank.sol\":2124:2138  token.transfer */\n      0xffffffffffffffffffffffffffffffffffffffff\n      and\n      0xa9059cbb\n        /* \"study_way/src/6day_tokenBank.sol\":2139:2149  msg.sender */\n      caller\n        /* \"study_way/src/6day_tokenBank.sol\":2151:2157  amount */\n      dup5\n        /* \"study_way/src/6day_tokenBank.sol\":2124:2158  token.transfer(msg.sender, amount) */\n      mload(0x40)\n      dup4\n      0xffffffff\n      and\n      0xe0\n      shl\n      dup2\n      mstore\n      0x04\n      add\n      tag_51\n      swap3\n      swap2\n      swap1\n      tag_52\n      jump\t// in\n    tag_51:\n      0x20\n      mload(0x40)\n      dup1\n      dup4\n      sub\n      dup2\n      0x00\n      dup8\n      gas\n      call\n      iszero\n      dup1\n      iszero\n      tag_54\n      jumpi\n      returndatasize\n      0x00\n      dup1\n      returndatacopy\n      revert(0x00, returndatasize)\n    tag_54:\n      pop\n      pop\n      pop\n      pop\n      mload(0x40)\n      returndatasize\n      not(0x1f)\n      0x1f\n      dup3\n      add\n      and\n      dup3\n      add\n      dup1\n      0x40\n      mstore\n      pop\n      dup2\n      add\n      swap1\n      tag_55\n      swap2\n      swap1\n      tag_56\n      jump\t// in\n    tag_55:\n        /* \"study_way/src/6day_tokenBank.sol\":2109:2158  bool success = token.transfer(msg.sender, amount) */\n      swap1\n      pop\n        /* \"study_way/src/6day_tokenBank.sol\":2176:2183  success */\n      dup1\n        /* \"study_way/src/6day_tokenBank.sol\":2168:2203  require(success, \"Transfer failed\") */\n      tag_57\n      jumpi\n      mload(0x40)\n      0x08c379a000000000000000000000000000000000000000000000000000000000\n      dup2\n      mstore\n      0x04\n      add\n      tag_58\n      swap1\n      tag_59\n      jump\t// in\n    tag_58:\n      mload(0x40)\n      dup1\n      swap2\n      sub\n      swap1\n      revert\n    tag_57:\n        /* \"study_way/src/6day_tokenBank.sol\":2233:2243  msg.sender */\n      caller\n        /* \"study_way/src/6day_tokenBank.sol\":2219:2252  UserWithdrawn(msg.sender, amount) */\n      0xffffffffffffffffffffffffffffffffffffffff\n      and\n      0xe6b386172074b393dc04ed6cb1a352475ffad5dd8cebc76231a3b683141ea6fb\n        /* \"study_way/src/6day_tokenBank.sol\":2245:2251  amount */\n      dup4\n        /* \"study_way/src/6day_tokenBank.sol\":2219:2252  UserWithdrawn(msg.sender, amount) */\n      mload(0x40)\n      tag_60\n      swap2\n      swap1\n      tag_17\n      jump\t// in\n    tag_60:\n      mload(0x40)\n      dup1\n      swap2\n      sub\n      swap1\n      log2\n        /* \"study_way/src/6day_tokenBank.sol\":1877:2259  {... */\n      pop\n        /* \"study_way/src/6day_tokenBank.sol\":1830:2259  function userWithdraw(uint256 amount) external {... */\n      pop\n      jump\t// out\n        /* \"study_way/src/6day_tokenBank.sol\":2300:2771  function withdraw() external {... */\n    tag_23:\n        /* \"study_way/src/6day_tokenBank.sol\":2361:2366  admin */\n      0x01\n      0x00\n      swap1\n      sload\n      swap1\n      0x0100\n      exp\n      swap1\n      div\n      0xffffffffffffffffffffffffffffffffffffffff\n      and\n        /* \"study_way/src/6day_tokenBank.sol\":2347:2366  msg.sender == admin */\n      0xffffffffffffffffffffffffffffffffffffffff\n      and\n        /* \"study_way/src/6day_tokenBank.sol\":2347:2357  msg.sender */\n      caller\n        /* \"study_way/src/6day_tokenBank.sol\":2347:2366  msg.sender == admin */\n      0xffffffffffffffffffffffffffffffffffffffff\n      and\n      eq\n        /* \"study_way/src/6day_tokenBank.sol\":2339:2394  require(msg.sender == admin, \"Only admin can withdraw\") */\n      tag_62\n      jumpi\n      mload(0x40)\n      0x08c379a000000000000000000000000000000000000000000000000000000000\n      dup2\n      mstore\n      0x04\n      add\n      tag_63\n      swap1\n      tag_64\n      jump\t// in\n    tag_63:\n      mload(0x40)\n      dup1\n      swap2\n      sub\n      swap1\n      revert\n    tag_62:\n        /* \"study_way/src/6day_tokenBank.sol\":2440:2460  uint256 totalBalance */\n      0x00\n        /* \"study_way/src/6day_tokenBank.sol\":2463:2468  token */\n      dup1\n      0x00\n      swap1\n      sload\n      swap1\n      0x0100\n      exp\n      swap1\n      div\n      0xffffffffffffffffffffffffffffffffffffffff\n      and\n        /* \"study_way/src/6day_tokenBank.sol\":2463:2478  token.balanceOf */\n      0xffffffffffffffffffffffffffffffffffffffff\n      and\n      0x70a08231\n        /* \"study_way/src/6day_tokenBank.sol\":2487:2491  this */\n      address\n        /* \"study_way/src/6day_tokenBank.sol\":2463:2493  token.balanceOf(address(this)) */\n      mload(0x40)\n      dup3\n      0xffffffff\n      and\n      0xe0\n      shl\n      dup2\n      mstore\n      0x04\n      add\n      tag_65\n      swap2\n      swap1\n      tag_37\n      jump\t// in\n    tag_65:\n      0x20\n      mload(0x40)\n      dup1\n      dup4\n      sub\n      dup2\n      dup7\n      gas\n      staticcall\n      iszero\n      dup1\n      iszero\n      tag_67\n      jumpi\n      returndatasize\n      0x00\n      dup1\n      returndatacopy\n      revert(0x00, returndatasize)\n    tag_67:\n      pop\n      pop\n      pop\n      pop\n      mload(0x40)\n      returndatasize\n      not(0x1f)\n      0x1f\n      dup3\n      add\n      and\n      dup3\n      add\n      dup1\n      0x40\n      mstore\n      pop\n      dup2\n      add\n      swap1\n      tag_68\n      swap2\n      swap1\n      tag_69\n      jump\t// in\n    tag_68:\n        /* \"study_way/src/6day_tokenBank.sol\":2440:2493  uint256 totalBalance = token.balanceOf(address(this)) */\n      swap1\n      pop\n        /* \"study_way/src/6day_tokenBank.sol\":2526:2527  0 */\n      0x00\n        /* \"study_way/src/6day_tokenBank.sol\":2511:2523  totalBalance */\n      dup2\n        /* \"study_way/src/6day_tokenBank.sol\":2511:2527  totalBalance > 0 */\n      gt\n        /* \"study_way/src/6day_tokenBank.sol\":2503:2553  require(totalBalance > 0, \"No tokens to withdraw\") */\n      tag_70\n      jumpi\n      mload(0x40)\n      0x08c379a000000000000000000000000000000000000000000000000000000000\n      dup2\n      mstore\n      0x04\n      add\n      tag_71\n      swap1\n      tag_72\n      jump\t// in\n    tag_71:\n      mload(0x40)\n      dup1\n      swap2\n      sub\n      swap1\n      revert\n    tag_70:\n        /* \"study_way/src/6day_tokenBank.sol\":2621:2633  bool success */\n      0x00\n        /* \"study_way/src/6day_tokenBank.sol\":2636:2641  token */\n      dup1\n      0x00\n      swap1\n      sload\n      swap1\n      0x0100\n      exp\n      swap1\n      div\n      0xffffffffffffffffffffffffffffffffffffffff\n      and\n        /* \"study_way/src/6day_tokenBank.sol\":2636:2650  token.transfer */\n      0xffffffffffffffffffffffffffffffffffffffff\n      and\n      0xa9059cbb\n        /* \"study_way/src/6day_tokenBank.sol\":2651:2656  admin */\n      0x01\n      0x00\n      swap1\n      sload\n      swap1\n      0x0100\n      exp\n      swap1\n      div\n      0xffffffffffffffffffffffffffffffffffffffff\n      and\n        /* \"study_way/src/6day_tokenBank.sol\":2658:2670  totalBalance */\n      dup5\n        /* \"study_way/src/6day_tokenBank.sol\":2636:2671  token.transfer(admin, totalBalance) */\n      mload(0x40)\n      dup4\n      0xffffffff\n      and\n      0xe0\n      shl\n      dup2\n      mstore\n      0x04\n      add\n      tag_73\n      swap3\n      swap2\n      swap1\n      tag_52\n      jump\t// in\n    tag_73:\n      0x20\n      mload(0x40)\n      dup1\n      dup4\n      sub\n      dup2\n      0x00\n      dup8\n      gas\n      call\n      iszero\n      dup1\n      iszero\n      tag_75\n      jumpi\n      returndatasize\n      0x00\n      dup1\n      returndatacopy\n      revert(0x00, returndatasize)\n    tag_75:\n      pop\n      pop\n      pop\n      pop\n      mload(0x40)\n      returndatasize\n      not(0x1f)\n      0x1f\n      dup3\n      add\n      and\n      dup3\n      add\n      dup1\n      0x40\n      mstore\n      pop\n      dup2\n      add\n      swap1\n      tag_76\n      swap2\n      swap1\n      tag_56\n      jump\t// in\n    tag_76:\n        /* \"study_way/src/6day_tokenBank.sol\":2621:2671  bool success = token.transfer(admin, totalBalance) */\n      swap1\n      pop\n        /* \"study_way/src/6day_tokenBank.sol\":2689:2696  success */\n      dup1\n        /* \"study_way/src/6day_tokenBank.sol\":2681:2718  require(success, \"Withdrawal failed\") */\n      tag_77\n      jumpi\n      mload(0x40)\n      0x08c379a000000000000000000000000000000000000000000000000000000000\n      dup2\n      mstore\n      0x04\n      add\n      tag_78\n      swap1\n      tag_79\n      jump\t// in\n    tag_78:\n      mload(0x40)\n      dup1\n      swap2\n      sub\n      swap1\n      revert\n    tag_77:\n        /* \"study_way/src/6day_tokenBank.sol\":2744:2749  admin */\n      0x01\n      0x00\n      swap1\n      sload\n      swap1\n      0x0100\n      exp\n      swap1\n      div\n      0xffffffffffffffffffffffffffffffffffffffff\n      and\n        /* \"study_way/src/6day_tokenBank.sol\":2734:2764  Withdrawn(admin, totalBalance) */\n      0xffffffffffffffffffffffffffffffffffffffff\n      and\n      0x7084f5476618d8e60b11ef0d7d3f06914655adb8793e28ff7f018d4c76d505d5\n        /* \"study_way/src/6day_tokenBank.sol\":2751:2763  totalBalance */\n      dup4\n        /* \"study_way/src/6day_tokenBank.sol\":2734:2764  Withdrawn(admin, totalBalance) */\n      mload(0x40)\n      tag_80\n      swap2\n      swap1\n      tag_17\n      jump\t// in\n    tag_80:\n      mload(0x40)\n      dup1\n      swap2\n      sub\n      swap1\n      log2\n        /* \"study_way/src/6day_tokenBank.sol\":2329:2771  {... */\n      pop\n      pop\n        /* \"study_way/src/6day_tokenBank.sol\":2300:2771  function withdraw() external {... */\n      jump\t// out\n        /* \"study_way/src/6day_tokenBank.sol\":2988:3098  function getDepositRecord(address user) external view returns (uint256) {... */\n    tag_26:\n        /* \"study_way/src/6day_tokenBank.sol\":3051:3058  uint256 */\n      0x00\n        /* \"study_way/src/6day_tokenBank.sol\":3077:3085  balances */\n      0x02\n        /* \"study_way/src/6day_tokenBank.sol\":3077:3091  balances[user] */\n      0x00\n        /* \"study_way/src/6day_tokenBank.sol\":3086:3090  user */\n      dup4\n        /* \"study_way/src/6day_tokenBank.sol\":3077:3091  balances[user] */\n      0xffffffffffffffffffffffffffffffffffffffff\n      and\n      0xffffffffffffffffffffffffffffffffffffffff\n      and\n      dup2\n      mstore\n      0x20\n      add\n      swap1\n      dup2\n      mstore\n      0x20\n      add\n      0x00\n      keccak256\n      sload\n        /* \"study_way/src/6day_tokenBank.sol\":3070:3091  return balances[user] */\n      swap1\n      pop\n        /* \"study_way/src/6day_tokenBank.sol\":2988:3098  function getDepositRecord(address user) external view returns (uint256) {... */\n      swap2\n      swap1\n      pop\n      jump\t// out\n        /* \"study_way/src/6day_tokenBank.sol\":2824:2936  function getBankBalance() external view returns (uint256) {... */\n    tag_29:\n        /* \"study_way/src/6day_tokenBank.sol\":2873:2880  uint256 */\n      0x00\n        /* \"study_way/src/6day_tokenBank.sol\":2899:2904  token */\n      dup1\n      0x00\n      swap1\n      sload\n      swap1\n      0x0100\n      exp\n      swap1\n      div\n      0xffffffffffffffffffffffffffffffffffffffff\n      and\n        /* \"study_way/src/6day_tokenBank.sol\":2899:2914  token.balanceOf */\n      0xffffffffffffffffffffffffffffffffffffffff\n      and\n      0x70a08231\n        /* \"study_way/src/6day_tokenBank.sol\":2923:2927  this */\n      address\n        /* \"study_way/src/6day_tokenBank.sol\":2899:2929  token.balanceOf(address(this)) */\n      mload(0x40)\n      dup3\n      0xffffffff\n      and\n      0xe0\n      shl\n      dup2\n      mstore\n      0x04\n      add\n      tag_83\n      swap2\n      swap1\n      tag_37\n      jump\t// in\n    tag_83:\n      0x20\n      mload(0x40)\n      dup1\n      dup4\n      sub\n      dup2\n      dup7\n      gas\n      staticcall\n      iszero\n      dup1\n      iszero\n      tag_85\n      jumpi\n      returndatasize\n      0x00\n      dup1\n      returndatacopy\n      revert(0x00, returndatasize)\n    tag_85:\n      pop\n      pop\n      pop\n      pop\n      mload(0x40)\n      returndatasize\n      not(0x1f)\n      0x1f\n      dup3\n      add\n      and\n      dup3\n      add\n      dup1\n      0x40\n      mstore\n      pop\n      dup2\n      add\n      swap1\n      tag_86\n      swap2\n      swap1\n      tag_69\n      jump\t// in\n    tag_86:\n        /* \"study_way/src/6day_tokenBank.sol\":2892:2929  return token.balanceOf(address(this)) */\n      swap1\n      pop\n        /* \"study_way/src/6day_tokenBank.sol\":2824:2936  function getBankBalance() external view returns (uint256) {... */\n      swap1\n      jump\t// out\n        /* \"study_way/src/6day_tokenBank.sol\":1144:1792  function deposit(uint256 amount) external {... */\n    tag_33:\n        /* \"study_way/src/6day_tokenBank.sol\":1527:1539  bool success */\n      0x00\n        /* \"study_way/src/6day_tokenBank.sol\":1542:1547  token */\n      dup1\n      0x00\n      swap1\n      sload\n      swap1\n      0x0100\n      exp\n      swap1\n      div\n      0xffffffffffffffffffffffffffffffffffffffff\n      and\n        /* \"study_way/src/6day_tokenBank.sol\":1542:1560  token.transferFrom */\n      0xffffffffffffffffffffffffffffffffffffffff\n      and\n      0x23b872dd\n        /* \"study_way/src/6day_tokenBank.sol\":1561:1571  msg.sender */\n      caller\n        /* \"study_way/src/6day_tokenBank.sol\":1581:1585  this */\n      address\n        /* \"study_way/src/6day_tokenBank.sol\":1588:1594  amount */\n      dup6\n        /* \"study_way/src/6day_tokenBank.sol\":1542:1595  token.transferFrom(msg.sender, address(this), amount) */\n      mload(0x40)\n      dup5\n      0xffffffff\n      and\n      0xe0\n      shl\n      dup2\n      mstore\n      0x04\n      add\n      tag_88\n      swap4\n      swap3\n      swap2\n      swap1\n      tag_89\n      jump\t// in\n    tag_88:\n      0x20\n      mload(0x40)\n      dup1\n      dup4\n      sub\n      dup2\n      0x00\n      dup8\n      gas\n      call\n      iszero\n      dup1\n      iszero\n      tag_91\n      jumpi\n      returndatasize\n      0x00\n      dup1\n      returndatacopy\n      revert(0x00, returndatasize)\n    tag_91:\n      pop\n      pop\n      pop\n      pop\n      mload(0x40)\n      returndatasize\n      not(0x1f)\n      0x1f\n      dup3\n      add\n      and\n      dup3\n      add\n      dup1\n      0x40\n      mstore\n      pop\n      dup2\n      add\n      swap1\n      tag_92\n      swap2\n      swap1\n      tag_56\n      jump\t// in\n    tag_92:\n        /* \"study_way/src/6day_tokenBank.sol\":1527:1595  bool success = token.transferFrom(msg.sender, address(this), amount) */\n      swap1\n      pop\n        /* \"study_way/src/6day_tokenBank.sol\":1613:1620  success */\n      dup1\n        /* \"study_way/src/6day_tokenBank.sol\":1605:1640  require(success, \"Transfer failed\") */\n      tag_93\n      jumpi\n      mload(0x40)\n      0x08c379a000000000000000000000000000000000000000000000000000000000\n      dup2\n      mstore\n      0x04\n      add\n      tag_94\n      swap1\n      tag_59\n      jump\t// in\n    tag_94:\n      mload(0x40)\n      dup1\n      swap2\n      sub\n      swap1\n      revert\n    tag_93:\n        /* \"study_way/src/6day_tokenBank.sol\":1719:1725  amount */\n      dup2\n        /* \"study_way/src/6day_tokenBank.sol\":1695:1703  balances */\n      0x02\n        /* \"study_way/src/6day_tokenBank.sol\":1695:1715  balances[msg.sender] */\n      0x00\n        /* \"study_way/src/6day_tokenBank.sol\":1704:1714  msg.sender */\n      caller\n        /* \"study_way/src/6day_tokenBank.sol\":1695:1715  balances[msg.sender] */\n      0xffffffffffffffffffffffffffffffffffffffff\n      and\n      0xffffffffffffffffffffffffffffffffffffffff\n      and\n      dup2\n      mstore\n      0x20\n      add\n      swap1\n      dup2\n      mstore\n      0x20\n      add\n      0x00\n      keccak256\n      0x00\n        /* \"study_way/src/6day_tokenBank.sol\":1695:1725  balances[msg.sender] += amount */\n      dup3\n      dup3\n      sload\n      tag_95\n      swap2\n      swap1\n      tag_96\n      jump\t// in\n    tag_95:\n      swap3\n      pop\n      pop\n      dup2\n      swap1\n      sstore\n      pop\n        /* \"study_way/src/6day_tokenBank.sol\":1771:1775  this */\n      address\n        /* \"study_way/src/6day_tokenBank.sol\":1741:1785  Deposited(msg.sender, address(this), amount) */\n      0xffffffffffffffffffffffffffffffffffffffff\n      and\n        /* \"study_way/src/6day_tokenBank.sol\":1751:1761  msg.sender */\n      caller\n        /* \"study_way/src/6day_tokenBank.sol\":1741:1785  Deposited(msg.sender, address(this), amount) */\n      0xffffffffffffffffffffffffffffffffffffffff\n      and\n      0x8752a472e571a816aea92eec8dae9baf628e840f4929fbcc2d155e6233ff68a7\n        /* \"study_way/src/6day_tokenBank.sol\":1778:1784  amount */\n      dup5\n        /* \"study_way/src/6day_tokenBank.sol\":1741:1785  Deposited(msg.sender, address(this), amount) */\n      mload(0x40)\n      tag_97\n      swap2\n      swap1\n      tag_17\n      jump\t// in\n    tag_97:\n      mload(0x40)\n      dup1\n      swap2\n      sub\n      swap1\n      log3\n        /* \"study_way/src/6day_tokenBank.sol\":1186:1792  {... */\n      pop\n        /* \"study_way/src/6day_tokenBank.sol\":1144:1792  function deposit(uint256 amount) external {... */\n      pop\n      jump\t// out\n        /* \"study_way/src/6day_tokenBank.sol\":354:374  address public admin */\n    tag_35:\n      0x01\n      0x00\n      swap1\n      sload\n      swap1\n      0x0100\n      exp\n      swap1\n      div\n      0xffffffffffffffffffffffffffffffffffffffff\n      and\n      dup2\n      jump\t// out\n        /* \"study_way/src/6day_tokenBank.sol\":302:324  BaseERC20 public token */\n    tag_39:\n      0x00\n      dup1\n      sload\n      swap1\n      0x0100\n      exp\n      swap1\n      div\n      0xffffffffffffffffffffffffffffffffffffffff\n      and\n      dup2\n      jump\t// out\n        /* \"#utility.yul\":88:205   */\n    tag_99:\n        /* \"#utility.yul\":197:198   */\n      0x00\n        /* \"#utility.yul\":194:195   */\n      dup1\n        /* \"#utility.yul\":187:199   */\n      revert\n        /* \"#utility.yul\":334:460   */\n    tag_101:\n        /* \"#utility.yul\":371:378   */\n      0x00\n        /* \"#utility.yul\":411:453   */\n      0xffffffffffffffffffffffffffffffffffffffff\n        /* \"#utility.yul\":404:409   */\n      dup3\n        /* \"#utility.yul\":400:454   */\n      and\n        /* \"#utility.yul\":389:454   */\n      swap1\n      pop\n        /* \"#utility.yul\":334:460   */\n      swap2\n      swap1\n      pop\n      jump\t// out\n        /* \"#utility.yul\":466:562   */\n    tag_102:\n        /* \"#utility.yul\":503:510   */\n      0x00\n        /* \"#utility.yul\":532:556   */\n      tag_139\n        /* \"#utility.yul\":550:555   */\n      dup3\n        /* \"#utility.yul\":532:556   */\n      tag_101\n      jump\t// in\n    tag_139:\n        /* \"#utility.yul\":521:556   */\n      swap1\n      pop\n        /* \"#utility.yul\":466:562   */\n      swap2\n      swap1\n      pop\n      jump\t// out\n        /* \"#utility.yul\":568:690   */\n    tag_103:\n        /* \"#utility.yul\":641:665   */\n      tag_141\n        /* \"#utility.yul\":659:664   */\n      dup2\n        /* \"#utility.yul\":641:665   */\n      tag_102\n      jump\t// in\n    tag_141:\n        /* \"#utility.yul\":634:639   */\n      dup2\n        /* \"#utility.yul\":631:666   */\n      eq\n        /* \"#utility.yul\":621:684   */\n      tag_142\n      jumpi\n        /* \"#utility.yul\":680:681   */\n      0x00\n        /* \"#utility.yul\":677:678   */\n      dup1\n        /* \"#utility.yul\":670:682   */\n      revert\n        /* \"#utility.yul\":621:684   */\n    tag_142:\n        /* \"#utility.yul\":568:690   */\n      pop\n      jump\t// out\n        /* \"#utility.yul\":696:835   */\n    tag_104:\n        /* \"#utility.yul\":742:747   */\n      0x00\n        /* \"#utility.yul\":780:786   */\n      dup2\n        /* \"#utility.yul\":767:787   */\n      calldataload\n        /* \"#utility.yul\":758:787   */\n      swap1\n      pop\n        /* \"#utility.yul\":796:829   */\n      tag_144\n        /* \"#utility.yul\":823:828   */\n      dup2\n        /* \"#utility.yul\":796:829   */\n      tag_103\n      jump\t// in\n    tag_144:\n        /* \"#utility.yul\":696:835   */\n      swap3\n      swap2\n      pop\n      pop\n      jump\t// out\n        /* \"#utility.yul\":841:1170   */\n    tag_14:\n        /* \"#utility.yul\":900:906   */\n      0x00\n        /* \"#utility.yul\":949:951   */\n      0x20\n        /* \"#utility.yul\":937:946   */\n      dup3\n        /* \"#utility.yul\":928:935   */\n      dup5\n        /* \"#utility.yul\":924:947   */\n      sub\n        /* \"#utility.yul\":920:952   */\n      slt\n        /* \"#utility.yul\":917:1036   */\n      iszero\n      tag_146\n      jumpi\n        /* \"#utility.yul\":955:1034   */\n      tag_147\n      tag_99\n      jump\t// in\n    tag_147:\n        /* \"#utility.yul\":917:1036   */\n    tag_146:\n        /* \"#utility.yul\":1075:1076   */\n      0x00\n        /* \"#utility.yul\":1100:1153   */\n      tag_148\n        /* \"#utility.yul\":1145:1152   */\n      dup5\n        /* \"#utility.yul\":1136:1142   */\n      dup3\n        /* \"#utility.yul\":1125:1134   */\n      dup6\n        /* \"#utility.yul\":1121:1143   */\n      add\n        /* \"#utility.yul\":1100:1153   */\n      tag_104\n      jump\t// in\n    tag_148:\n        /* \"#utility.yul\":1090:1153   */\n      swap2\n      pop\n        /* \"#utility.yul\":1046:1163   */\n      pop\n        /* \"#utility.yul\":841:1170   */\n      swap3\n      swap2\n      pop\n      pop\n      jump\t// out\n        /* \"#utility.yul\":1176:1253   */\n    tag_105:\n        /* \"#utility.yul\":1213:1220   */\n      0x00\n        /* \"#utility.yul\":1242:1247   */\n      dup2\n        /* \"#utility.yul\":1231:1247   */\n      swap1\n      pop\n        /* \"#utility.yul\":1176:1253   */\n      swap2\n      swap1\n      pop\n      jump\t// out\n        /* \"#utility.yul\":1259:1377   */\n    tag_106:\n        /* \"#utility.yul\":1346:1370   */\n      tag_151\n        /* \"#utility.yul\":1364:1369   */\n      dup2\n        /* \"#utility.yul\":1346:1370   */\n      tag_105\n      jump\t// in\n    tag_151:\n        /* \"#utility.yul\":1341:1344   */\n      dup3\n        /* \"#utility.yul\":1334:1371   */\n      mstore\n        /* \"#utility.yul\":1259:1377   */\n      pop\n      pop\n      jump\t// out\n        /* \"#utility.yul\":1383:1605   */\n    tag_17:\n        /* \"#utility.yul\":1476:1480   */\n      0x00\n        /* \"#utility.yul\":1514:1516   */\n      0x20\n        /* \"#utility.yul\":1503:1512   */\n      dup3\n        /* \"#utility.yul\":1499:1517   */\n      add\n        /* \"#utility.yul\":1491:1517   */\n      swap1\n      pop\n        /* \"#utility.yul\":1527:1598   */\n      tag_153\n        /* \"#utility.yul\":1595:1596   */\n      0x00\n        /* \"#utility.yul\":1584:1593   */\n      dup4\n        /* \"#utility.yul\":1580:1597   */\n      add\n        /* \"#utility.yul\":1571:1577   */\n      dup5\n        /* \"#utility.yul\":1527:1598   */\n      tag_106\n      jump\t// in\n    tag_153:\n        /* \"#utility.yul\":1383:1605   */\n      swap3\n      swap2\n      pop\n      pop\n      jump\t// out\n        /* \"#utility.yul\":1611:1733   */\n    tag_107:\n        /* \"#utility.yul\":1684:1708   */\n      tag_155\n        /* \"#utility.yul\":1702:1707   */\n      dup2\n        /* \"#utility.yul\":1684:1708   */\n      tag_105\n      jump\t// in\n    tag_155:\n        /* \"#utility.yul\":1677:1682   */\n      dup2\n        /* \"#utility.yul\":1674:1709   */\n      eq\n        /* \"#utility.yul\":1664:1727   */\n      tag_156\n      jumpi\n        /* \"#utility.yul\":1723:1724   */\n      0x00\n        /* \"#utility.yul\":1720:1721   */\n      dup1\n        /* \"#utility.yul\":1713:1725   */\n      revert\n        /* \"#utility.yul\":1664:1727   */\n    tag_156:\n        /* \"#utility.yul\":1611:1733   */\n      pop\n      jump\t// out\n        /* \"#utility.yul\":1739:1878   */\n    tag_108:\n        /* \"#utility.yul\":1785:1790   */\n      0x00\n        /* \"#utility.yul\":1823:1829   */\n      dup2\n        /* \"#utility.yul\":1810:1830   */\n      calldataload\n        /* \"#utility.yul\":1801:1830   */\n      swap1\n      pop\n        /* \"#utility.yul\":1839:1872   */\n      tag_158\n        /* \"#utility.yul\":1866:1871   */\n      dup2\n        /* \"#utility.yul\":1839:1872   */\n      tag_107\n      jump\t// in\n    tag_158:\n        /* \"#utility.yul\":1739:1878   */\n      swap3\n      swap2\n      pop\n      pop\n      jump\t// out\n        /* \"#utility.yul\":1884:2213   */\n    tag_20:\n        /* \"#utility.yul\":1943:1949   */\n      0x00\n        /* \"#utility.yul\":1992:1994   */\n      0x20\n        /* \"#utility.yul\":1980:1989   */\n      dup3\n        /* \"#utility.yul\":1971:1978   */\n      dup5\n        /* \"#utility.yul\":1967:1990   */\n      sub\n        /* \"#utility.yul\":1963:1995   */\n      slt\n        /* \"#utility.yul\":1960:2079   */\n      iszero\n      tag_160\n      jumpi\n        /* \"#utility.yul\":1998:2077   */\n      tag_161\n      tag_99\n      jump\t// in\n    tag_161:\n        /* \"#utility.yul\":1960:2079   */\n    tag_160:\n        /* \"#utility.yul\":2118:2119   */\n      0x00\n        /* \"#utility.yul\":2143:2196   */\n      tag_162\n        /* \"#utility.yul\":2188:2195   */\n      dup5\n        /* \"#utility.yul\":2179:2185   */\n      dup3\n        /* \"#utility.yul\":2168:2177   */\n      dup6\n        /* \"#utility.yul\":2164:2186   */\n      add\n        /* \"#utility.yul\":2143:2196   */\n      tag_108\n      jump\t// in\n    tag_162:\n        /* \"#utility.yul\":2133:2196   */\n      swap2\n      pop\n        /* \"#utility.yul\":2089:2206   */\n      pop\n        /* \"#utility.yul\":1884:2213   */\n      swap3\n      swap2\n      pop\n      pop\n      jump\t// out\n        /* \"#utility.yul\":2219:2337   */\n    tag_109:\n        /* \"#utility.yul\":2306:2330   */\n      tag_164\n        /* \"#utility.yul\":2324:2329   */\n      dup2\n        /* \"#utility.yul\":2306:2330   */\n      tag_102\n      jump\t// in\n    tag_164:\n        /* \"#utility.yul\":2301:2304   */\n      dup3\n        /* \"#utility.yul\":2294:2331   */\n      mstore\n        /* \"#utility.yul\":2219:2337   */\n      pop\n      pop\n      jump\t// out\n        /* \"#utility.yul\":2343:2565   */\n    tag_37:\n        /* \"#utility.yul\":2436:2440   */\n      0x00\n        /* \"#utility.yul\":2474:2476   */\n      0x20\n        /* \"#utility.yul\":2463:2472   */\n      dup3\n        /* \"#utility.yul\":2459:2477   */\n      add\n        /* \"#utility.yul\":2451:2477   */\n      swap1\n      pop\n        /* \"#utility.yul\":2487:2558   */\n      tag_166\n        /* \"#utility.yul\":2555:2556   */\n      0x00\n        /* \"#utility.yul\":2544:2553   */\n      dup4\n        /* \"#utility.yul\":2540:2557   */\n      add\n        /* \"#utility.yul\":2531:2537   */\n      dup5\n        /* \"#utility.yul\":2487:2558   */\n      tag_109\n      jump\t// in\n    tag_166:\n        /* \"#utility.yul\":2343:2565   */\n      swap3\n      swap2\n      pop\n      pop\n      jump\t// out\n        /* \"#utility.yul\":2571:2631   */\n    tag_110:\n        /* \"#utility.yul\":2599:2602   */\n      0x00\n        /* \"#utility.yul\":2620:2625   */\n      dup2\n        /* \"#utility.yul\":2613:2625   */\n      swap1\n      pop\n        /* \"#utility.yul\":2571:2631   */\n      swap2\n      swap1\n      pop\n      jump\t// out\n        /* \"#utility.yul\":2637:2779   */\n    tag_111:\n        /* \"#utility.yul\":2687:2696   */\n      0x00\n        /* \"#utility.yul\":2720:2773   */\n      tag_169\n        /* \"#utility.yul\":2738:2772   */\n      tag_170\n        /* \"#utility.yul\":2747:2771   */\n      tag_171\n        /* \"#utility.yul\":2765:2770   */\n      dup5\n        /* \"#utility.yul\":2747:2771   */\n      tag_101\n      jump\t// in\n    tag_171:\n        /* \"#utility.yul\":2738:2772   */\n      tag_110\n      jump\t// in\n    tag_170:\n        /* \"#utility.yul\":2720:2773   */\n      tag_101\n      jump\t// in\n    tag_169:\n        /* \"#utility.yul\":2707:2773   */\n      swap1\n      pop\n        /* \"#utility.yul\":2637:2779   */\n      swap2\n      swap1\n      pop\n      jump\t// out\n        /* \"#utility.yul\":2785:2911   */\n    tag_112:\n        /* \"#utility.yul\":2835:2844   */\n      0x00\n        /* \"#utility.yul\":2868:2905   */\n      tag_173\n        /* \"#utility.yul\":2899:2904   */\n      dup3\n        /* \"#utility.yul\":2868:2905   */\n      tag_111\n      jump\t// in\n    tag_173:\n        /* \"#utility.yul\":2855:2905   */\n      swap1\n      pop\n        /* \"#utility.yul\":2785:2911   */\n      swap2\n      swap1\n      pop\n      jump\t// out\n        /* \"#utility.yul\":2917:3060   */\n    tag_113:\n        /* \"#utility.yul\":2984:2993   */\n      0x00\n        /* \"#utility.yul\":3017:3054   */\n      tag_175\n        /* \"#utility.yul\":3048:3053   */\n      dup3\n        /* \"#utility.yul\":3017:3054   */\n      tag_112\n      jump\t// in\n    tag_175:\n        /* \"#utility.yul\":3004:3054   */\n      swap1\n      pop\n        /* \"#utility.yul\":2917:3060   */\n      swap2\n      swap1\n      pop\n      jump\t// out\n        /* \"#utility.yul\":3066:3231   */\n    tag_114:\n        /* \"#utility.yul\":3170:3224   */\n      tag_177\n        /* \"#utility.yul\":3218:3223   */\n      dup2\n        /* \"#utility.yul\":3170:3224   */\n      tag_113\n      jump\t// in\n    tag_177:\n        /* \"#utility.yul\":3165:3168   */\n      dup3\n        /* \"#utility.yul\":3158:3225   */\n      mstore\n        /* \"#utility.yul\":3066:3231   */\n      pop\n      pop\n      jump\t// out\n        /* \"#utility.yul\":3237:3493   */\n    tag_41:\n        /* \"#utility.yul\":3347:3351   */\n      0x00\n        /* \"#utility.yul\":3385:3387   */\n      0x20\n        /* \"#utility.yul\":3374:3383   */\n      dup3\n        /* \"#utility.yul\":3370:3388   */\n      add\n        /* \"#utility.yul\":3362:3388   */\n      swap1\n      pop\n        /* \"#utility.yul\":3398:3486   */\n      tag_179\n        /* \"#utility.yul\":3483:3484   */\n      0x00\n        /* \"#utility.yul\":3472:3481   */\n      dup4\n        /* \"#utility.yul\":3468:3485   */\n      add\n        /* \"#utility.yul\":3459:3465   */\n      dup5\n        /* \"#utility.yul\":3398:3486   */\n      tag_114\n      jump\t// in\n    tag_179:\n        /* \"#utility.yul\":3237:3493   */\n      swap3\n      swap2\n      pop\n      pop\n      jump\t// out\n        /* \"#utility.yul\":3499:3668   */\n    tag_115:\n        /* \"#utility.yul\":3583:3594   */\n      0x00\n        /* \"#utility.yul\":3617:3623   */\n      dup3\n        /* \"#utility.yul\":3612:3615   */\n      dup3\n        /* \"#utility.yul\":3605:3624   */\n      mstore\n        /* \"#utility.yul\":3657:3661   */\n      0x20\n        /* \"#utility.yul\":3652:3655   */\n      dup3\n        /* \"#utility.yul\":3648:3662   */\n      add\n        /* \"#utility.yul\":3633:3662   */\n      swap1\n      pop\n        /* \"#utility.yul\":3499:3668   */\n      swap3\n      swap2\n      pop\n      pop\n      jump\t// out\n        /* \"#utility.yul\":3674:3853   */\n    tag_116:\n        /* \"#utility.yul\":3814:3845   */\n      0x416d6f756e74206d7573742062652067726561746572207468616e2030000000\n        /* \"#utility.yul\":3810:3811   */\n      0x00\n        /* \"#utility.yul\":3802:3808   */\n      dup3\n        /* \"#utility.yul\":3798:3812   */\n      add\n        /* \"#utility.yul\":3791:3846   */\n      mstore\n        /* \"#utility.yul\":3674:3853   */\n      pop\n      jump\t// out\n        /* \"#utility.yul\":3859:4225   */\n    tag_117:\n        /* \"#utility.yul\":4001:4004   */\n      0x00\n        /* \"#utility.yul\":4022:4089   */\n      tag_183\n        /* \"#utility.yul\":4086:4088   */\n      0x1d\n        /* \"#utility.yul\":4081:4084   */\n      dup4\n        /* \"#utility.yul\":4022:4089   */\n      tag_115\n      jump\t// in\n    tag_183:\n        /* \"#utility.yul\":4015:4089   */\n      swap2\n      pop\n        /* \"#utility.yul\":4098:4191   */\n      tag_184\n        /* \"#utility.yul\":4187:4190   */\n      dup3\n        /* \"#utility.yul\":4098:4191   */\n      tag_116\n      jump\t// in\n    tag_184:\n        /* \"#utility.yul\":4216:4218   */\n      0x20\n        /* \"#utility.yul\":4211:4214   */\n      dup3\n        /* \"#utility.yul\":4207:4219   */\n      add\n        /* \"#utility.yul\":4200:4219   */\n      swap1\n      pop\n        /* \"#utility.yul\":3859:4225   */\n      swap2\n      swap1\n      pop\n      jump\t// out\n        /* \"#utility.yul\":4231:4650   */\n    tag_45:\n        /* \"#utility.yul\":4397:4401   */\n      0x00\n        /* \"#utility.yul\":4435:4437   */\n      0x20\n        /* \"#utility.yul\":4424:4433   */\n      dup3\n        /* \"#utility.yul\":4420:4438   */\n      add\n        /* \"#utility.yul\":4412:4438   */\n      swap1\n      pop\n        /* \"#utility.yul\":4484:4493   */\n      dup2\n        /* \"#utility.yul\":4478:4482   */\n      dup2\n        /* \"#utility.yul\":4474:4494   */\n      sub\n        /* \"#utility.yul\":4470:4471   */\n      0x00\n        /* \"#utility.yul\":4459:4468   */\n      dup4\n        /* \"#utility.yul\":4455:4472   */\n      add\n        /* \"#utility.yul\":4448:4495   */\n      mstore\n        /* \"#utility.yul\":4512:4643   */\n      tag_186\n        /* \"#utility.yul\":4638:4642   */\n      dup2\n        /* \"#utility.yul\":4512:4643   */\n      tag_117\n      jump\t// in\n    tag_186:\n        /* \"#utility.yul\":4504:4643   */\n      swap1\n      pop\n        /* \"#utility.yul\":4231:4650   */\n      swap2\n      swap1\n      pop\n      jump\t// out\n        /* \"#utility.yul\":4656:4826   */\n    tag_118:\n        /* \"#utility.yul\":4796:4818   */\n      0x496e73756666696369656e742062616c616e6365000000000000000000000000\n        /* \"#utility.yul\":4792:4793   */\n      0x00\n        /* \"#utility.yul\":4784:4790   */\n      dup3\n        /* \"#utility.yul\":4780:4794   */\n      add\n        /* \"#utility.yul\":4773:4819   */\n      mstore\n        /* \"#utility.yul\":4656:4826   */\n      pop\n      jump\t// out\n        /* \"#utility.yul\":4832:5198   */\n    tag_119:\n        /* \"#utility.yul\":4974:4977   */\n      0x00\n        /* \"#utility.yul\":4995:5062   */\n      tag_189\n        /* \"#utility.yul\":5059:5061   */\n      0x14\n        /* \"#utility.yul\":5054:5057   */\n      dup4\n        /* \"#utility.yul\":4995:5062   */\n      tag_115\n      jump\t// in\n    tag_189:\n        /* \"#utility.yul\":4988:5062   */\n      swap2\n      pop\n        /* \"#utility.yul\":5071:5164   */\n      tag_190\n        /* \"#utility.yul\":5160:5163   */\n      dup3\n        /* \"#utility.yul\":5071:5164   */\n      tag_118\n      jump\t// in\n    tag_190:\n        /* \"#utility.yul\":5189:5191   */\n      0x20\n        /* \"#utility.yul\":5184:5187   */\n      dup3\n        /* \"#utility.yul\":5180:5192   */\n      add\n        /* \"#utility.yul\":5173:5192   */\n      swap1\n      pop\n        /* \"#utility.yul\":4832:5198   */\n      swap2\n      swap1\n      pop\n      jump\t// out\n        /* \"#utility.yul\":5204:5623   */\n    tag_48:\n        /* \"#utility.yul\":5370:5374   */\n      0x00\n        /* \"#utility.yul\":5408:5410   */\n      0x20\n        /* \"#utility.yul\":5397:5406   */\n      dup3\n        /* \"#utility.yul\":5393:5411   */\n      add\n        /* \"#utility.yul\":5385:5411   */\n      swap1\n      pop\n        /* \"#utility.yul\":5457:5466   */\n      dup2\n        /* \"#utility.yul\":5451:5455   */\n      dup2\n        /* \"#utility.yul\":5447:5467   */\n      sub\n        /* \"#utility.yul\":5443:5444   */\n      0x00\n        /* \"#utility.yul\":5432:5441   */\n      dup4\n        /* \"#utility.yul\":5428:5445   */\n      add\n        /* \"#utility.yul\":5421:5468   */\n      mstore\n        /* \"#utility.yul\":5485:5616   */\n      tag_192\n        /* \"#utility.yul\":5611:5615   */\n      dup2\n        /* \"#utility.yul\":5485:5616   */\n      tag_119\n      jump\t// in\n    tag_192:\n        /* \"#utility.yul\":5477:5616   */\n      swap1\n      pop\n        /* \"#utility.yul\":5204:5623   */\n      swap2\n      swap1\n      pop\n      jump\t// out\n        /* \"#utility.yul\":5629:5809   */\n    tag_120:\n        /* \"#utility.yul\":5677:5754   */\n      0x4e487b7100000000000000000000000000000000000000000000000000000000\n        /* \"#utility.yul\":5674:5675   */\n      0x00\n        /* \"#utility.yul\":5667:5755   */\n      mstore\n        /* \"#utility.yul\":5774:5778   */\n      0x11\n        /* \"#utility.yul\":5771:5772   */\n      0x04\n        /* \"#utility.yul\":5764:5779   */\n      mstore\n        /* \"#utility.yul\":5798:5802   */\n      0x24\n        /* \"#utility.yul\":5795:5796   */\n      0x00\n        /* \"#utility.yul\":5788:5803   */\n      revert\n        /* \"#utility.yul\":5815:6009   */\n    tag_50:\n        /* \"#utility.yul\":5855:5859   */\n      0x00\n        /* \"#utility.yul\":5875:5895   */\n      tag_195\n        /* \"#utility.yul\":5893:5894   */\n      dup3\n        /* \"#utility.yul\":5875:5895   */\n      tag_105\n      jump\t// in\n    tag_195:\n        /* \"#utility.yul\":5870:5895   */\n      swap2\n      pop\n        /* \"#utility.yul\":5909:5929   */\n      tag_196\n        /* \"#utility.yul\":5927:5928   */\n      dup4\n        /* \"#utility.yul\":5909:5929   */\n      tag_105\n      jump\t// in\n    tag_196:\n        /* \"#utility.yul\":5904:5929   */\n      swap3\n      pop\n        /* \"#utility.yul\":5953:5954   */\n      dup3\n        /* \"#utility.yul\":5950:5951   */\n      dup3\n        /* \"#utility.yul\":5946:5955   */\n      sub\n        /* \"#utility.yul\":5938:5955   */\n      swap1\n      pop\n        /* \"#utility.yul\":5977:5978   */\n      dup2\n        /* \"#utility.yul\":5971:5975   */\n      dup2\n        /* \"#utility.yul\":5968:5979   */\n      gt\n        /* \"#utility.yul\":5965:6002   */\n      iszero\n      tag_197\n      jumpi\n        /* \"#utility.yul\":5982:6000   */\n      tag_198\n      tag_120\n      jump\t// in\n    tag_198:\n        /* \"#utility.yul\":5965:6002   */\n    tag_197:\n        /* \"#utility.yul\":5815:6009   */\n      swap3\n      swap2\n      pop\n      pop\n      jump\t// out\n        /* \"#utility.yul\":6015:6347   */\n    tag_52:\n        /* \"#utility.yul\":6136:6140   */\n      0x00\n        /* \"#utility.yul\":6174:6176   */\n      0x40\n        /* \"#utility.yul\":6163:6172   */\n      dup3\n        /* \"#utility.yul\":6159:6177   */\n      add\n        /* \"#utility.yul\":6151:6177   */\n      swap1\n      pop\n        /* \"#utility.yul\":6187:6258   */\n      tag_200\n        /* \"#utility.yul\":6255:6256   */\n      0x00\n        /* \"#utility.yul\":6244:6253   */\n      dup4\n        /* \"#utility.yul\":6240:6257   */\n      add\n        /* \"#utility.yul\":6231:6237   */\n      dup6\n        /* \"#utility.yul\":6187:6258   */\n      tag_109\n      jump\t// in\n    tag_200:\n        /* \"#utility.yul\":6268:6340   */\n      tag_201\n        /* \"#utility.yul\":6336:6338   */\n      0x20\n        /* \"#utility.yul\":6325:6334   */\n      dup4\n        /* \"#utility.yul\":6321:6339   */\n      add\n        /* \"#utility.yul\":6312:6318   */\n      dup5\n        /* \"#utility.yul\":6268:6340   */\n      tag_106\n      jump\t// in\n    tag_201:\n        /* \"#utility.yul\":6015:6347   */\n      swap4\n      swap3\n      pop\n      pop\n      pop\n      jump\t// out\n        /* \"#utility.yul\":6353:6443   */\n    tag_121:\n        /* \"#utility.yul\":6387:6394   */\n      0x00\n        /* \"#utility.yul\":6430:6435   */\n      dup2\n        /* \"#utility.yul\":6423:6436   */\n      iszero\n        /* \"#utility.yul\":6416:6437   */\n      iszero\n        /* \"#utility.yul\":6405:6437   */\n      swap1\n      pop\n        /* \"#utility.yul\":6353:6443   */\n      swap2\n      swap1\n      pop\n      jump\t// out\n        /* \"#utility.yul\":6449:6565   */\n    tag_122:\n        /* \"#utility.yul\":6519:6540   */\n      tag_204\n        /* \"#utility.yul\":6534:6539   */\n      dup2\n        /* \"#utility.yul\":6519:6540   */\n      tag_121\n      jump\t// in\n    tag_204:\n        /* \"#utility.yul\":6512:6517   */\n      dup2\n        /* \"#utility.yul\":6509:6541   */\n      eq\n        /* \"#utility.yul\":6499:6559   */\n      tag_205\n      jumpi\n        /* \"#utility.yul\":6555:6556   */\n      0x00\n        /* \"#utility.yul\":6552:6553   */\n      dup1\n        /* \"#utility.yul\":6545:6557   */\n      revert\n        /* \"#utility.yul\":6499:6559   */\n    tag_205:\n        /* \"#utility.yul\":6449:6565   */\n      pop\n      jump\t// out\n        /* \"#utility.yul\":6571:6708   */\n    tag_123:\n        /* \"#utility.yul\":6625:6630   */\n      0x00\n        /* \"#utility.yul\":6656:6662   */\n      dup2\n        /* \"#utility.yul\":6650:6663   */\n      mload\n        /* \"#utility.yul\":6641:6663   */\n      swap1\n      pop\n        /* \"#utility.yul\":6672:6702   */\n      tag_207\n        /* \"#utility.yul\":6696:6701   */\n      dup2\n        /* \"#utility.yul\":6672:6702   */\n      tag_122\n      jump\t// in\n    tag_207:\n        /* \"#utility.yul\":6571:6708   */\n      swap3\n      swap2\n      pop\n      pop\n      jump\t// out\n        /* \"#utility.yul\":6714:7059   */\n    tag_56:\n        /* \"#utility.yul\":6781:6787   */\n      0x00\n        /* \"#utility.yul\":6830:6832   */\n      0x20\n        /* \"#utility.yul\":6818:6827   */\n      dup3\n        /* \"#utility.yul\":6809:6816   */\n      dup5\n        /* \"#utility.yul\":6805:6828   */\n      sub\n        /* \"#utility.yul\":6801:6833   */\n      slt\n        /* \"#utility.yul\":6798:6917   */\n      iszero\n      tag_209\n      jumpi\n        /* \"#utility.yul\":6836:6915   */\n      tag_210\n      tag_99\n      jump\t// in\n    tag_210:\n        /* \"#utility.yul\":6798:6917   */\n    tag_209:\n        /* \"#utility.yul\":6956:6957   */\n      0x00\n        /* \"#utility.yul\":6981:7042   */\n      tag_211\n        /* \"#utility.yul\":7034:7041   */\n      dup5\n        /* \"#utility.yul\":7025:7031   */\n      dup3\n        /* \"#utility.yul\":7014:7023   */\n      dup6\n        /* \"#utility.yul\":7010:7032   */\n      add\n        /* \"#utility.yul\":6981:7042   */\n      tag_123\n      jump\t// in\n    tag_211:\n        /* \"#utility.yul\":6971:7042   */\n      swap2\n      pop\n        /* \"#utility.yul\":6927:7052   */\n      pop\n        /* \"#utility.yul\":6714:7059   */\n      swap3\n      swap2\n      pop\n      pop\n      jump\t// out\n        /* \"#utility.yul\":7065:7230   */\n    tag_124:\n        /* \"#utility.yul\":7205:7222   */\n      0x5472616e73666572206661696c65640000000000000000000000000000000000\n        /* \"#utility.yul\":7201:7202   */\n      0x00\n        /* \"#utility.yul\":7193:7199   */\n      dup3\n        /* \"#utility.yul\":7189:7203   */\n      add\n        /* \"#utility.yul\":7182:7223   */\n      mstore\n        /* \"#utility.yul\":7065:7230   */\n      pop\n      jump\t// out\n        /* \"#utility.yul\":7236:7602   */\n    tag_125:\n        /* \"#utility.yul\":7378:7381   */\n      0x00\n        /* \"#utility.yul\":7399:7466   */\n      tag_214\n        /* \"#utility.yul\":7463:7465   */\n      0x0f\n        /* \"#utility.yul\":7458:7461   */\n      dup4\n        /* \"#utility.yul\":7399:7466   */\n      tag_115\n      jump\t// in\n    tag_214:\n        /* \"#utility.yul\":7392:7466   */\n      swap2\n      pop\n        /* \"#utility.yul\":7475:7568   */\n      tag_215\n        /* \"#utility.yul\":7564:7567   */\n      dup3\n        /* \"#utility.yul\":7475:7568   */\n      tag_124\n      jump\t// in\n    tag_215:\n        /* \"#utility.yul\":7593:7595   */\n      0x20\n        /* \"#utility.yul\":7588:7591   */\n      dup3\n        /* \"#utility.yul\":7584:7596   */\n      add\n        /* \"#utility.yul\":7577:7596   */\n      swap1\n      pop\n        /* \"#utility.yul\":7236:7602   */\n      swap2\n      swap1\n      pop\n      jump\t// out\n        /* \"#utility.yul\":7608:8027   */\n    tag_59:\n        /* \"#utility.yul\":7774:7778   */\n      0x00\n        /* \"#utility.yul\":7812:7814   */\n      0x20\n        /* \"#utility.yul\":7801:7810   */\n      dup3\n        /* \"#utility.yul\":7797:7815   */\n      add\n        /* \"#utility.yul\":7789:7815   */\n      swap1\n      pop\n        /* \"#utility.yul\":7861:7870   */\n      dup2\n        /* \"#utility.yul\":7855:7859   */\n      dup2\n        /* \"#utility.yul\":7851:7871   */\n      sub\n        /* \"#utility.yul\":7847:7848   */\n      0x00\n        /* \"#utility.yul\":7836:7845   */\n      dup4\n        /* \"#utility.yul\":7832:7849   */\n      add\n        /* \"#utility.yul\":7825:7872   */\n      mstore\n        /* \"#utility.yul\":7889:8020   */\n      tag_217\n        /* \"#utility.yul\":8015:8019   */\n      dup2\n        /* \"#utility.yul\":7889:8020   */\n      tag_125\n      jump\t// in\n    tag_217:\n        /* \"#utility.yul\":7881:8020   */\n      swap1\n      pop\n        /* \"#utility.yul\":7608:8027   */\n      swap2\n      swap1\n      pop\n      jump\t// out\n        /* \"#utility.yul\":8033:8206   */\n    tag_126:\n        /* \"#utility.yul\":8173:8198   */\n      0x4f6e6c792061646d696e2063616e207769746864726177000000000000000000\n        /* \"#utility.yul\":8169:8170   */\n      0x00\n        /* \"#utility.yul\":8161:8167   */\n      dup3\n        /* \"#utility.yul\":8157:8171   */\n      add\n        /* \"#utility.yul\":8150:8199   */\n      mstore\n        /* \"#utility.yul\":8033:8206   */\n      pop\n      jump\t// out\n        /* \"#utility.yul\":8212:8578   */\n    tag_127:\n        /* \"#utility.yul\":8354:8357   */\n      0x00\n        /* \"#utility.yul\":8375:8442   */\n      tag_220\n        /* \"#utility.yul\":8439:8441   */\n      0x17\n        /* \"#utility.yul\":8434:8437   */\n      dup4\n        /* \"#utility.yul\":8375:8442   */\n      tag_115\n      jump\t// in\n    tag_220:\n        /* \"#utility.yul\":8368:8442   */\n      swap2\n      pop\n        /* \"#utility.yul\":8451:8544   */\n      tag_221\n        /* \"#utility.yul\":8540:8543   */\n      dup3\n        /* \"#utility.yul\":8451:8544   */\n      tag_126\n      jump\t// in\n    tag_221:\n        /* \"#utility.yul\":8569:8571   */\n      0x20\n        /* \"#utility.yul\":8564:8567   */\n      dup3\n        /* \"#utility.yul\":8560:8572   */\n      add\n        /* \"#utility.yul\":8553:8572   */\n      swap1\n      pop\n        /* \"#utility.yul\":8212:8578   */\n      swap2\n      swap1\n      pop\n      jump\t// out\n        /* \"#utility.yul\":8584:9003   */\n    tag_64:\n        /* \"#utility.yul\":8750:8754   */\n      0x00\n        /* \"#utility.yul\":8788:8790   */\n      0x20\n        /* \"#utility.yul\":8777:8786   */\n      dup3\n        /* \"#utility.yul\":8773:8791   */\n      add\n        /* \"#utility.yul\":8765:8791   */\n      swap1\n      pop\n        /* \"#utility.yul\":8837:8846   */\n      dup2\n        /* \"#utility.yul\":8831:8835   */\n      dup2\n        /* \"#utility.yul\":8827:8847   */\n      sub\n        /* \"#utility.yul\":8823:8824   */\n      0x00\n        /* \"#utility.yul\":8812:8821   */\n      dup4\n        /* \"#utility.yul\":8808:8825   */\n      add\n        /* \"#utility.yul\":8801:8848   */\n      mstore\n        /* \"#utility.yul\":8865:8996   */\n      tag_223\n        /* \"#utility.yul\":8991:8995   */\n      dup2\n        /* \"#utility.yul\":8865:8996   */\n      tag_127\n      jump\t// in\n    tag_223:\n        /* \"#utility.yul\":8857:8996   */\n      swap1\n      pop\n        /* \"#utility.yul\":8584:9003   */\n      swap2\n      swap1\n      pop\n      jump\t// out\n        /* \"#utility.yul\":9009:9152   */\n    tag_128:\n        /* \"#utility.yul\":9066:9071   */\n      0x00\n        /* \"#utility.yul\":9097:9103   */\n      dup2\n        /* \"#utility.yul\":9091:9104   */\n      mload\n        /* \"#utility.yul\":9082:9104   */\n      swap1\n      pop\n        /* \"#utility.yul\":9113:9146   */\n      tag_225\n        /* \"#utility.yul\":9140:9145   */\n      dup2\n        /* \"#utility.yul\":9113:9146   */\n      tag_107\n      jump\t// in\n    tag_225:\n        /* \"#utility.yul\":9009:9152   */\n      swap3\n      swap2\n      pop\n      pop\n      jump\t// out\n        /* \"#utility.yul\":9158:9509   */\n    tag_69:\n        /* \"#utility.yul\":9228:9234   */\n      0x00\n        /* \"#utility.yul\":9277:9279   */\n      0x20\n        /* \"#utility.yul\":9265:9274   */\n      dup3\n        /* \"#utility.yul\":9256:9263   */\n      dup5\n        /* \"#utility.yul\":9252:9275   */\n      sub\n        /* \"#utility.yul\":9248:9280   */\n      slt\n        /* \"#utility.yul\":9245:9364   */\n      iszero\n      tag_227\n      jumpi\n        /* \"#utility.yul\":9283:9362   */\n      tag_228\n      tag_99\n      jump\t// in\n    tag_228:\n        /* \"#utility.yul\":9245:9364   */\n    tag_227:\n        /* \"#utility.yul\":9403:9404   */\n      0x00\n        /* \"#utility.yul\":9428:9492   */\n      tag_229\n        /* \"#utility.yul\":9484:9491   */\n      dup5\n        /* \"#utility.yul\":9475:9481   */\n      dup3\n        /* \"#utility.yul\":9464:9473   */\n      dup6\n        /* \"#utility.yul\":9460:9482   */\n      add\n        /* \"#utility.yul\":9428:9492   */\n      tag_128\n      jump\t// in\n    tag_229:\n        /* \"#utility.yul\":9418:9492   */\n      swap2\n      pop\n        /* \"#utility.yul\":9374:9502   */\n      pop\n        /* \"#utility.yul\":9158:9509   */\n      swap3\n      swap2\n      pop\n      pop\n      jump\t// out\n        /* \"#utility.yul\":9515:9686   */\n    tag_129:\n        /* \"#utility.yul\":9655:9678   */\n      0x4e6f20746f6b656e7320746f2077697468647261770000000000000000000000\n        /* \"#utility.yul\":9651:9652   */\n      0x00\n        /* \"#utility.yul\":9643:9649   */\n      dup3\n        /* \"#utility.yul\":9639:9653   */\n      add\n        /* \"#utility.yul\":9632:9679   */\n      mstore\n        /* \"#utility.yul\":9515:9686   */\n      pop\n      jump\t// out\n        /* \"#utility.yul\":9692:10058   */\n    tag_130:\n        /* \"#utility.yul\":9834:9837   */\n      0x00\n        /* \"#utility.yul\":9855:9922   */\n      tag_232\n        /* \"#utility.yul\":9919:9921   */\n      0x15\n        /* \"#utility.yul\":9914:9917   */\n      dup4\n        /* \"#utility.yul\":9855:9922   */\n      tag_115\n      jump\t// in\n    tag_232:\n        /* \"#utility.yul\":9848:9922   */\n      swap2\n      pop\n        /* \"#utility.yul\":9931:10024   */\n      tag_233\n        /* \"#utility.yul\":10020:10023   */\n      dup3\n        /* \"#utility.yul\":9931:10024   */\n      tag_129\n      jump\t// in\n    tag_233:\n        /* \"#utility.yul\":10049:10051   */\n      0x20\n        /* \"#utility.yul\":10044:10047   */\n      dup3\n        /* \"#utility.yul\":10040:10052   */\n      add\n        /* \"#utility.yul\":10033:10052   */\n      swap1\n      pop\n        /* \"#utility.yul\":9692:10058   */\n      swap2\n      swap1\n      pop\n      jump\t// out\n        /* \"#utility.yul\":10064:10483   */\n    tag_72:\n        /* \"#utility.yul\":10230:10234   */\n      0x00\n        /* \"#utility.yul\":10268:10270   */\n      0x20\n        /* \"#utility.yul\":10257:10266   */\n      dup3\n        /* \"#utility.yul\":10253:10271   */\n      add\n        /* \"#utility.yul\":10245:10271   */\n      swap1\n      pop\n        /* \"#utility.yul\":10317:10326   */\n      dup2\n        /* \"#utility.yul\":10311:10315   */\n      dup2\n        /* \"#utility.yul\":10307:10327   */\n      sub\n        /* \"#utility.yul\":10303:10304   */\n      0x00\n        /* \"#utility.yul\":10292:10301   */\n      dup4\n        /* \"#utility.yul\":10288:10305   */\n      add\n        /* \"#utility.yul\":10281:10328   */\n      mstore\n        /* \"#utility.yul\":10345:10476   */\n      tag_235\n        /* \"#utility.yul\":10471:10475   */\n      dup2\n        /* \"#utility.yul\":10345:10476   */\n      tag_130\n      jump\t// in\n    tag_235:\n        /* \"#utility.yul\":10337:10476   */\n      swap1\n      pop\n        /* \"#utility.yul\":10064:10483   */\n      swap2\n      swap1\n      pop\n      jump\t// out\n        /* \"#utility.yul\":10489:10656   */\n    tag_131:\n        /* \"#utility.yul\":10629:10648   */\n      0x5769746864726177616c206661696c6564000000000000000000000000000000\n        /* \"#utility.yul\":10625:10626   */\n      0x00\n        /* \"#utility.yul\":10617:10623   */\n      dup3\n        /* \"#utility.yul\":10613:10627   */\n      add\n        /* \"#utility.yul\":10606:10649   */\n      mstore\n        /* \"#utility.yul\":10489:10656   */\n      pop\n      jump\t// out\n        /* \"#utility.yul\":10662:11028   */\n    tag_132:\n        /* \"#utility.yul\":10804:10807   */\n      0x00\n        /* \"#utility.yul\":10825:10892   */\n      tag_238\n        /* \"#utility.yul\":10889:10891   */\n      0x11\n        /* \"#utility.yul\":10884:10887   */\n      dup4\n        /* \"#utility.yul\":10825:10892   */\n      tag_115\n      jump\t// in\n    tag_238:\n        /* \"#utility.yul\":10818:10892   */\n      swap2\n      pop\n        /* \"#utility.yul\":10901:10994   */\n      tag_239\n        /* \"#utility.yul\":10990:10993   */\n      dup3\n        /* \"#utility.yul\":10901:10994   */\n      tag_131\n      jump\t// in\n    tag_239:\n        /* \"#utility.yul\":11019:11021   */\n      0x20\n        /* \"#utility.yul\":11014:11017   */\n      dup3\n        /* \"#utility.yul\":11010:11022   */\n      add\n        /* \"#utility.yul\":11003:11022   */\n      swap1\n      pop\n        /* \"#utility.yul\":10662:11028   */\n      swap2\n      swap1\n      pop\n      jump\t// out\n        /* \"#utility.yul\":11034:11453   */\n    tag_79:\n        /* \"#utility.yul\":11200:11204   */\n      0x00\n        /* \"#utility.yul\":11238:11240   */\n      0x20\n        /* \"#utility.yul\":11227:11236   */\n      dup3\n        /* \"#utility.yul\":11223:11241   */\n      add\n        /* \"#utility.yul\":11215:11241   */\n      swap1\n      pop\n        /* \"#utility.yul\":11287:11296   */\n      dup2\n        /* \"#utility.yul\":11281:11285   */\n      dup2\n        /* \"#utility.yul\":11277:11297   */\n      sub\n        /* \"#utility.yul\":11273:11274   */\n      0x00\n        /* \"#utility.yul\":11262:11271   */\n      dup4\n        /* \"#utility.yul\":11258:11275   */\n      add\n        /* \"#utility.yul\":11251:11298   */\n      mstore\n        /* \"#utility.yul\":11315:11446   */\n      tag_241\n        /* \"#utility.yul\":11441:11445   */\n      dup2\n        /* \"#utility.yul\":11315:11446   */\n      tag_132\n      jump\t// in\n    tag_241:\n        /* \"#utility.yul\":11307:11446   */\n      swap1\n      pop\n        /* \"#utility.yul\":11034:11453   */\n      swap2\n      swap1\n      pop\n      jump\t// out\n        /* \"#utility.yul\":11459:11901   */\n    tag_89:\n        /* \"#utility.yul\":11608:11612   */\n      0x00\n        /* \"#utility.yul\":11646:11648   */\n      0x60\n        /* \"#utility.yul\":11635:11644   */\n      dup3\n        /* \"#utility.yul\":11631:11649   */\n      add\n        /* \"#utility.yul\":11623:11649   */\n      swap1\n      pop\n        /* \"#utility.yul\":11659:11730   */\n      tag_243\n        /* \"#utility.yul\":11727:11728   */\n      0x00\n        /* \"#utility.yul\":11716:11725   */\n      dup4\n        /* \"#utility.yul\":11712:11729   */\n      add\n        /* \"#utility.yul\":11703:11709   */\n      dup7\n        /* \"#utility.yul\":11659:11730   */\n      tag_109\n      jump\t// in\n    tag_243:\n        /* \"#utility.yul\":11740:11812   */\n      tag_244\n        /* \"#utility.yul\":11808:11810   */\n      0x20\n        /* \"#utility.yul\":11797:11806   */\n      dup4\n        /* \"#utility.yul\":11793:11811   */\n      add\n        /* \"#utility.yul\":11784:11790   */\n      dup6\n        /* \"#utility.yul\":11740:11812   */\n      tag_109\n      jump\t// in\n    tag_244:\n        /* \"#utility.yul\":11822:11894   */\n      tag_245\n        /* \"#utility.yul\":11890:11892   */\n      0x40\n        /* \"#utility.yul\":11879:11888   */\n      dup4\n        /* \"#utility.yul\":11875:11893   */\n      add\n        /* \"#utility.yul\":11866:11872   */\n      dup5\n        /* \"#utility.yul\":11822:11894   */\n      tag_106\n      jump\t// in\n    tag_245:\n        /* \"#utility.yul\":11459:11901   */\n      swap5\n      swap4\n      pop\n      pop\n      pop\n      pop\n      jump\t// out\n        /* \"#utility.yul\":11907:12098   */\n    tag_96:\n        /* \"#utility.yul\":11947:11950   */\n      0x00\n        /* \"#utility.yul\":11966:11986   */\n      tag_247\n        /* \"#utility.yul\":11984:11985   */\n      dup3\n        /* \"#utility.yul\":11966:11986   */\n      tag_105\n      jump\t// in\n    tag_247:\n        /* \"#utility.yul\":11961:11986   */\n      swap2\n      pop\n        /* \"#utility.yul\":12000:12020   */\n      tag_248\n        /* \"#utility.yul\":12018:12019   */\n      dup4\n        /* \"#utility.yul\":12000:12020   */\n      tag_105\n      jump\t// in\n    tag_248:\n        /* \"#utility.yul\":11995:12020   */\n      swap3\n      pop\n        /* \"#utility.yul\":12043:12044   */\n      dup3\n        /* \"#utility.yul\":12040:12041   */\n      dup3\n        /* \"#utility.yul\":12036:12045   */\n      add\n        /* \"#utility.yul\":12029:12045   */\n      swap1\n      pop\n        /* \"#utility.yul\":12064:12067   */\n      dup1\n        /* \"#utility.yul\":12061:12062   */\n      dup3\n        /* \"#utility.yul\":12058:12068   */\n      gt\n        /* \"#utility.yul\":12055:12091   */\n      iszero\n      tag_249\n      jumpi\n        /* \"#utility.yul\":12071:12089   */\n      tag_250\n      tag_120\n      jump\t// in\n    tag_250:\n        /* \"#utility.yul\":12055:12091   */\n    tag_249:\n        /* \"#utility.yul\":11907:12098   */\n      swap3\n      swap2\n      pop\n      pop\n      jump\t// out\n\n    auxdata: 0xa264697066735822122038bb53404f7fb972c5f1242ebec1b6d563da7b91fb9c7446c8bcff230ec6ca5164736f6c634300081a0033\n}\n",
				"bytecode": {
					"linkReferences": {},
					"object": "608060405234801561000f575f80fd5b506040516110c13803806110c183398181016040528101906100319190610114565b805f806101000a81548173ffffffffffffffffffffffffffffffffffffffff021916908373ffffffffffffffffffffffffffffffffffffffff1602179055503360015f6101000a81548173ffffffffffffffffffffffffffffffffffffffff021916908373ffffffffffffffffffffffffffffffffffffffff1602179055505061013f565b5f80fd5b5f73ffffffffffffffffffffffffffffffffffffffff82169050919050565b5f6100e3826100ba565b9050919050565b6100f3816100d9565b81146100fd575f80fd5b50565b5f8151905061010e816100ea565b92915050565b5f60208284031215610129576101286100b6565b5b5f61013684828501610100565b91505092915050565b610f758061014c5f395ff3fe608060405234801561000f575f80fd5b5060043610610086575f3560e01c80637b83b50b116100595780637b83b50b14610110578063b6b55f251461012e578063f851a4401461014a578063fc0c546a1461016857610086565b806327e235e31461008a5780633b9056bf146100ba5780633ccfd60b146100d65780633dc58149146100e0575b5f80fd5b6100a4600480360381019061009f91906109e4565b610186565b6040516100b19190610a27565b60405180910390f35b6100d460048036038101906100cf9190610a6a565b61019b565b005b6100de6103e0565b005b6100fa60048036038101906100f591906109e4565b6106be565b6040516101079190610a27565b60405180910390f35b610118610704565b6040516101259190610a27565b60405180910390f35b61014860048036038101906101439190610a6a565b6107a2565b005b61015261093e565b60405161015f9190610aa4565b60405180910390f35b610170610963565b60405161017d9190610b18565b60405180910390f35b6002602052805f5260405f205f915090505481565b5f81116101dd576040517f08c379a00000000000000000000000000000000000000000000000000000000081526004016101d490610b8b565b60405180910390fd5b8060025f3373ffffffffffffffffffffffffffffffffffffffff1673ffffffffffffffffffffffffffffffffffffffff1681526020019081526020015f2054101561025d576040517f08c379a000000000000000000000000000000000000000000000000000000000815260040161025490610bf3565b60405180910390fd5b8060025f3373ffffffffffffffffffffffffffffffffffffffff1673ffffffffffffffffffffffffffffffffffffffff1681526020019081526020015f205f8282546102a99190610c3e565b925050819055505f805f9054906101000a900473ffffffffffffffffffffffffffffffffffffffff1673ffffffffffffffffffffffffffffffffffffffff1663a9059cbb33846040518363ffffffff1660e01b815260040161030c929190610c71565b6020604051808303815f875af1158015610328573d5f803e3d5ffd5b505050506040513d601f19601f8201168201806040525081019061034c9190610ccd565b90508061038e576040517f08c379a000000000000000000000000000000000000000000000000000000000815260040161038590610d42565b60405180910390fd5b3373ffffffffffffffffffffffffffffffffffffffff167fe6b386172074b393dc04ed6cb1a352475ffad5dd8cebc76231a3b683141ea6fb836040516103d49190610a27565b60405180910390a25050565b60015f9054906101000a900473ffffffffffffffffffffffffffffffffffffffff1673ffffffffffffffffffffffffffffffffffffffff163373ffffffffffffffffffffffffffffffffffffffff161461046f576040517f08c379a000000000000000000000000000000000000000000000000000000000815260040161046690610daa565b60405180910390fd5b5f805f9054906101000a900473ffffffffffffffffffffffffffffffffffffffff1673ffffffffffffffffffffffffffffffffffffffff166370a08231306040518263ffffffff1660e01b81526004016104c99190610aa4565b602060405180830381865afa1580156104e4573d5f803e3d5ffd5b505050506040513d601f19601f820116820180604052508101906105089190610ddc565b90505f811161054c576040517f08c379a000000000000000000000000000000000000000000000000000000000815260040161054390610e51565b60405180910390fd5b5f805f9054906101000a900473ffffffffffffffffffffffffffffffffffffffff1673ffffffffffffffffffffffffffffffffffffffff1663a9059cbb60015f9054906101000a900473ffffffffffffffffffffffffffffffffffffffff16846040518363ffffffff1660e01b81526004016105c9929190610c71565b6020604051808303815f875af11580156105e5573d5f803e3d5ffd5b505050506040513d601f19601f820116820180604052508101906106099190610ccd565b90508061064b576040517f08c379a000000000000000000000000000000000000000000000000000000000815260040161064290610eb9565b60405180910390fd5b60015f9054906101000a900473ffffffffffffffffffffffffffffffffffffffff1673ffffffffffffffffffffffffffffffffffffffff167f7084f5476618d8e60b11ef0d7d3f06914655adb8793e28ff7f018d4c76d505d5836040516106b29190610a27565b60405180910390a25050565b5f60025f8373ffffffffffffffffffffffffffffffffffffffff1673ffffffffffffffffffffffffffffffffffffffff1681526020019081526020015f20549050919050565b5f805f9054906101000a900473ffffffffffffffffffffffffffffffffffffffff1673ffffffffffffffffffffffffffffffffffffffff166370a08231306040518263ffffffff1660e01b815260040161075e9190610aa4565b602060405180830381865afa158015610779573d5f803e3d5ffd5b505050506040513d601f19601f8201168201806040525081019061079d9190610ddc565b905090565b5f805f9054906101000a900473ffffffffffffffffffffffffffffffffffffffff1673ffffffffffffffffffffffffffffffffffffffff166323b872dd3330856040518463ffffffff1660e01b815260040161080093929190610ed7565b6020604051808303815f875af115801561081c573d5f803e3d5ffd5b505050506040513d601f19601f820116820180604052508101906108409190610ccd565b905080610882576040517f08c379a000000000000000000000000000000000000000000000000000000000815260040161087990610d42565b60405180910390fd5b8160025f3373ffffffffffffffffffffffffffffffffffffffff1673ffffffffffffffffffffffffffffffffffffffff1681526020019081526020015f205f8282546108ce9190610f0c565b925050819055503073ffffffffffffffffffffffffffffffffffffffff163373ffffffffffffffffffffffffffffffffffffffff167f8752a472e571a816aea92eec8dae9baf628e840f4929fbcc2d155e6233ff68a7846040516109329190610a27565b60405180910390a35050565b60015f9054906101000a900473ffffffffffffffffffffffffffffffffffffffff1681565b5f8054906101000a900473ffffffffffffffffffffffffffffffffffffffff1681565b5f80fd5b5f73ffffffffffffffffffffffffffffffffffffffff82169050919050565b5f6109b38261098a565b9050919050565b6109c3816109a9565b81146109cd575f80fd5b50565b5f813590506109de816109ba565b92915050565b5f602082840312156109f9576109f8610986565b5b5f610a06848285016109d0565b91505092915050565b5f819050919050565b610a2181610a0f565b82525050565b5f602082019050610a3a5f830184610a18565b92915050565b610a4981610a0f565b8114610a53575f80fd5b50565b5f81359050610a6481610a40565b92915050565b5f60208284031215610a7f57610a7e610986565b5b5f610a8c84828501610a56565b91505092915050565b610a9e816109a9565b82525050565b5f602082019050610ab75f830184610a95565b92915050565b5f819050919050565b5f610ae0610adb610ad68461098a565b610abd565b61098a565b9050919050565b5f610af182610ac6565b9050919050565b5f610b0282610ae7565b9050919050565b610b1281610af8565b82525050565b5f602082019050610b2b5f830184610b09565b92915050565b5f82825260208201905092915050565b7f416d6f756e74206d7573742062652067726561746572207468616e20300000005f82015250565b5f610b75601d83610b31565b9150610b8082610b41565b602082019050919050565b5f6020820190508181035f830152610ba281610b69565b9050919050565b7f496e73756666696369656e742062616c616e63650000000000000000000000005f82015250565b5f610bdd601483610b31565b9150610be882610ba9565b602082019050919050565b5f6020820190508181035f830152610c0a81610bd1565b9050919050565b7f4e487b71000000000000000000000000000000000000000000000000000000005f52601160045260245ffd5b5f610c4882610a0f565b9150610c5383610a0f565b9250828203905081811115610c6b57610c6a610c11565b5b92915050565b5f604082019050610c845f830185610a95565b610c916020830184610a18565b9392505050565b5f8115159050919050565b610cac81610c98565b8114610cb6575f80fd5b50565b5f81519050610cc781610ca3565b92915050565b5f60208284031215610ce257610ce1610986565b5b5f610cef84828501610cb9565b91505092915050565b7f5472616e73666572206661696c656400000000000000000000000000000000005f82015250565b5f610d2c600f83610b31565b9150610d3782610cf8565b602082019050919050565b5f6020820190508181035f830152610d5981610d20565b9050919050565b7f4f6e6c792061646d696e2063616e2077697468647261770000000000000000005f82015250565b5f610d94601783610b31565b9150610d9f82610d60565b602082019050919050565b5f6020820190508181035f830152610dc181610d88565b9050919050565b5f81519050610dd681610a40565b92915050565b5f60208284031215610df157610df0610986565b5b5f610dfe84828501610dc8565b91505092915050565b7f4e6f20746f6b656e7320746f20776974686472617700000000000000000000005f82015250565b5f610e3b601583610b31565b9150610e4682610e07565b602082019050919050565b5f6020820190508181035f830152610e6881610e2f565b9050919050565b7f5769746864726177616c206661696c65640000000000000000000000000000005f82015250565b5f610ea3601183610b31565b9150610eae82610e6f565b602082019050919050565b5f6020820190508181035f830152610ed081610e97565b9050919050565b5f606082019050610eea5f830186610a95565b610ef76020830185610a95565b610f046040830184610a18565b949350505050565b5f610f1682610a0f565b9150610f2183610a0f565b9250828201905080821115610f3957610f38610c11565b5b9291505056fea264697066735822122038bb53404f7fb972c5f1242ebec1b6d563da7b91fb9c7446c8bcff230ec6ca5164736f6c634300081a0033",
					"opcodes": "PUSH1 0x80 PUSH1 0x40 MSTORE CALLVALUE DUP1 ISZERO PUSH2 0xF JUMPI PUSH0 DUP1 REVERT JUMPDEST POP PUSH1 0x40 MLOAD PUSH2 0x10C1 CODESIZE SUB DUP1 PUSH2 0x10C1 DUP4 CODECOPY DUP2 DUP2 ADD PUSH1 0x40 MSTORE DUP2 ADD SWAP1 PUSH2 0x31 SWAP2 SWAP1 PUSH2 0x114 JUMP JUMPDEST DUP1 PUSH0 DUP1 PUSH2 0x100 EXP DUP2 SLOAD DUP2 PUSH20 0xFFFFFFFFFFFFFFFFFFFFFFFFFFFFFFFFFFFFFFFF MUL NOT AND SWAP1 DUP4 PUSH20 0xFFFFFFFFFFFFFFFFFFFFFFFFFFFFFFFFFFFFFFFF AND MUL OR SWAP1 SSTORE POP CALLER PUSH1 0x1 PUSH0 PUSH2 0x100 EXP DUP2 SLOAD DUP2 PUSH20 0xFFFFFFFFFFFFFFFFFFFFFFFFFFFFFFFFFFFFFFFF MUL NOT AND SWAP1 DUP4 PUSH20 0xFFFFFFFFFFFFFFFFFFFFFFFFFFFFFFFFFFFFFFFF AND MUL OR SWAP1 SSTORE POP POP PUSH2 0x13F JUMP JUMPDEST PUSH0 DUP1 REVERT JUMPDEST PUSH0 PUSH20 0xFFFFFFFFFFFFFFFFFFFFFFFFFFFFFFFFFFFFFFFF DUP3 AND SWAP1 POP SWAP2 SWAP1 POP JUMP JUMPDEST PUSH0 PUSH2 0xE3 DUP3 PUSH2 0xBA JUMP JUMPDEST SWAP1 POP SWAP2 SWAP1 POP JUMP JUMPDEST PUSH2 0xF3 DUP2 PUSH2 0xD9 JUMP JUMPDEST DUP2 EQ PUSH2 0xFD JUMPI PUSH0 DUP1 REVERT JUMPDEST POP JUMP JUMPDEST PUSH0 DUP2 MLOAD SWAP1 POP PUSH2 0x10E DUP2 PUSH2 0xEA JUMP JUMPDEST SWAP3 SWAP2 POP POP JUMP JUMPDEST PUSH0 PUSH1 0x20 DUP3 DUP5 SUB SLT ISZERO PUSH2 0x129 JUMPI PUSH2 0x128 PUSH2 0xB6 JUMP JUMPDEST JUMPDEST PUSH0 PUSH2 0x136 DUP5 DUP3 DUP6 ADD PUSH2 0x100 JUMP JUMPDEST SWAP2 POP POP SWAP3 SWAP2 POP POP JUMP JUMPDEST PUSH2 0xF75 DUP1 PUSH2 0x14C PUSH0 CODECOPY PUSH0 RETURN INVALID PUSH1 0x80 PUSH1 0x40 MSTORE CALLVALUE DUP1 ISZERO PUSH2 0xF JUMPI PUSH0 DUP1 REVERT JUMPDEST POP PUSH1 0x4 CALLDATASIZE LT PUSH2 0x86 JUMPI PUSH0 CALLDATALOAD PUSH1 0xE0 SHR DUP1 PUSH4 0x7B83B50B GT PUSH2 0x59 JUMPI DUP1 PUSH4 0x7B83B50B EQ PUSH2 0x110 JUMPI DUP1 PUSH4 0xB6B55F25 EQ PUSH2 0x12E JUMPI DUP1 PUSH4 0xF851A440 EQ PUSH2 0x14A JUMPI DUP1 PUSH4 0xFC0C546A EQ PUSH2 0x168 JUMPI PUSH2 0x86 JUMP JUMPDEST DUP1 PUSH4 0x27E235E3 EQ PUSH2 0x8A JUMPI DUP1 PUSH4 0x3B9056BF EQ PUSH2 0xBA JUMPI DUP1 PUSH4 0x3CCFD60B EQ PUSH2 0xD6 JUMPI DUP1 PUSH4 0x3DC58149 EQ PUSH2 0xE0 JUMPI JUMPDEST PUSH0 DUP1 REVERT JUMPDEST PUSH2 0xA4 PUSH1 0x4 DUP1 CALLDATASIZE SUB DUP2 ADD SWAP1 PUSH2 0x9F SWAP2 SWAP1 PUSH2 0x9E4 JUMP JUMPDEST PUSH2 0x186 JUMP JUMPDEST PUSH1 0x40 MLOAD PUSH2 0xB1 SWAP2 SWAP1 PUSH2 0xA27 JUMP JUMPDEST PUSH1 0x40 MLOAD DUP1 SWAP2 SUB SWAP1 RETURN JUMPDEST PUSH2 0xD4 PUSH1 0x4 DUP1 CALLDATASIZE SUB DUP2 ADD SWAP1 PUSH2 0xCF SWAP2 SWAP1 PUSH2 0xA6A JUMP JUMPDEST PUSH2 0x19B JUMP JUMPDEST STOP JUMPDEST PUSH2 0xDE PUSH2 0x3E0 JUMP JUMPDEST STOP JUMPDEST PUSH2 0xFA PUSH1 0x4 DUP1 CALLDATASIZE SUB DUP2 ADD SWAP1 PUSH2 0xF5 SWAP2 SWAP1 PUSH2 0x9E4 JUMP JUMPDEST PUSH2 0x6BE JUMP JUMPDEST PUSH1 0x40 MLOAD PUSH2 0x107 SWAP2 SWAP1 PUSH2 0xA27 JUMP JUMPDEST PUSH1 0x40 MLOAD DUP1 SWAP2 SUB SWAP1 RETURN JUMPDEST PUSH2 0x118 PUSH2 0x704 JUMP JUMPDEST PUSH1 0x40 MLOAD PUSH2 0x125 SWAP2 SWAP1 PUSH2 0xA27 JUMP JUMPDEST PUSH1 0x40 MLOAD DUP1 SWAP2 SUB SWAP1 RETURN JUMPDEST PUSH2 0x148 PUSH1 0x4 DUP1 CALLDATASIZE SUB DUP2 ADD SWAP1 PUSH2 0x143 SWAP2 SWAP1 PUSH2 0xA6A JUMP JUMPDEST PUSH2 0x7A2 JUMP JUMPDEST STOP JUMPDEST PUSH2 0x152 PUSH2 0x93E JUMP JUMPDEST PUSH1 0x40 MLOAD PUSH2 0x15F SWAP2 SWAP1 PUSH2 0xAA4 JUMP JUMPDEST PUSH1 0x40 MLOAD DUP1 SWAP2 SUB SWAP1 RETURN JUMPDEST PUSH2 0x170 PUSH2 0x963 JUMP JUMPDEST PUSH1 0x40 MLOAD PUSH2 0x17D SWAP2 SWAP1 PUSH2 0xB18 JUMP JUMPDEST PUSH1 0x40 MLOAD DUP1 SWAP2 SUB SWAP1 RETURN JUMPDEST PUSH1 0x2 PUSH1 0x20 MSTORE DUP1 PUSH0 MSTORE PUSH1 0x40 PUSH0 KECCAK256 PUSH0 SWAP2 POP SWAP1 POP SLOAD DUP2 JUMP JUMPDEST PUSH0 DUP2 GT PUSH2 0x1DD JUMPI PUSH1 0x40 MLOAD PUSH32 0x8C379A000000000000000000000000000000000000000000000000000000000 DUP2 MSTORE PUSH1 0x4 ADD PUSH2 0x1D4 SWAP1 PUSH2 0xB8B JUMP JUMPDEST PUSH1 0x40 MLOAD DUP1 SWAP2 SUB SWAP1 REVERT JUMPDEST DUP1 PUSH1 0x2 PUSH0 CALLER PUSH20 0xFFFFFFFFFFFFFFFFFFFFFFFFFFFFFFFFFFFFFFFF AND PUSH20 0xFFFFFFFFFFFFFFFFFFFFFFFFFFFFFFFFFFFFFFFF AND DUP2 MSTORE PUSH1 0x20 ADD SWAP1 DUP2 MSTORE PUSH1 0x20 ADD PUSH0 KECCAK256 SLOAD LT ISZERO PUSH2 0x25D JUMPI PUSH1 0x40 MLOAD PUSH32 0x8C379A000000000000000000000000000000000000000000000000000000000 DUP2 MSTORE PUSH1 0x4 ADD PUSH2 0x254 SWAP1 PUSH2 0xBF3 JUMP JUMPDEST PUSH1 0x40 MLOAD DUP1 SWAP2 SUB SWAP1 REVERT JUMPDEST DUP1 PUSH1 0x2 PUSH0 CALLER PUSH20 0xFFFFFFFFFFFFFFFFFFFFFFFFFFFFFFFFFFFFFFFF AND PUSH20 0xFFFFFFFFFFFFFFFFFFFFFFFFFFFFFFFFFFFFFFFF AND DUP2 MSTORE PUSH1 0x20 ADD SWAP1 DUP2 MSTORE PUSH1 0x20 ADD PUSH0 KECCAK256 PUSH0 DUP3 DUP3 SLOAD PUSH2 0x2A9 SWAP2 SWAP1 PUSH2 0xC3E JUMP JUMPDEST SWAP3 POP POP DUP2 SWAP1 SSTORE POP PUSH0 DUP1 PUSH0 SWAP1 SLOAD SWAP1 PUSH2 0x100 EXP SWAP1 DIV PUSH20 0xFFFFFFFFFFFFFFFFFFFFFFFFFFFFFFFFFFFFFFFF AND PUSH20 0xFFFFFFFFFFFFFFFFFFFFFFFFFFFFFFFFFFFFFFFF AND PUSH4 0xA9059CBB CALLER DUP5 PUSH1 0x40 MLOAD DUP4 PUSH4 0xFFFFFFFF AND PUSH1 0xE0 SHL DUP2 MSTORE PUSH1 0x4 ADD PUSH2 0x30C SWAP3 SWAP2 SWAP1 PUSH2 0xC71 JUMP JUMPDEST PUSH1 0x20 PUSH1 0x40 MLOAD DUP1 DUP4 SUB DUP2 PUSH0 DUP8 GAS CALL ISZERO DUP1 ISZERO PUSH2 0x328 JUMPI RETURNDATASIZE PUSH0 DUP1 RETURNDATACOPY RETURNDATASIZE PUSH0 REVERT JUMPDEST POP POP POP POP PUSH1 0x40 MLOAD RETURNDATASIZE PUSH1 0x1F NOT PUSH1 0x1F DUP3 ADD AND DUP3 ADD DUP1 PUSH1 0x40 MSTORE POP DUP2 ADD SWAP1 PUSH2 0x34C SWAP2 SWAP1 PUSH2 0xCCD JUMP JUMPDEST SWAP1 POP DUP1 PUSH2 0x38E JUMPI PUSH1 0x40 MLOAD PUSH32 0x8C379A000000000000000000000000000000000000000000000000000000000 DUP2 MSTORE PUSH1 0x4 ADD PUSH2 0x385 SWAP1 PUSH2 0xD42 JUMP JUMPDEST PUSH1 0x40 MLOAD DUP1 SWAP2 SUB SWAP1 REVERT JUMPDEST CALLER PUSH20 0xFFFFFFFFFFFFFFFFFFFFFFFFFFFFFFFFFFFFFFFF AND PUSH32 0xE6B386172074B393DC04ED6CB1A352475FFAD5DD8CEBC76231A3B683141EA6FB DUP4 PUSH1 0x40 MLOAD PUSH2 0x3D4 SWAP2 SWAP1 PUSH2 0xA27 JUMP JUMPDEST PUSH1 0x40 MLOAD DUP1 SWAP2 SUB SWAP1 LOG2 POP POP JUMP JUMPDEST PUSH1 0x1 PUSH0 SWAP1 SLOAD SWAP1 PUSH2 0x100 EXP SWAP1 DIV PUSH20 0xFFFFFFFFFFFFFFFFFFFFFFFFFFFFFFFFFFFFFFFF AND PUSH20 0xFFFFFFFFFFFFFFFFFFFFFFFFFFFFFFFFFFFFFFFF AND CALLER PUSH20 0xFFFFFFFFFFFFFFFFFFFFFFFFFFFFFFFFFFFFFFFF AND EQ PUSH2 0x46F JUMPI PUSH1 0x40 MLOAD PUSH32 0x8C379A000000000000000000000000000000000000000000000000000000000 DUP2 MSTORE PUSH1 0x4 ADD PUSH2 0x466 SWAP1 PUSH2 0xDAA JUMP JUMPDEST PUSH1 0x40 MLOAD DUP1 SWAP2 SUB SWAP1 REVERT JUMPDEST PUSH0 DUP1 PUSH0 SWAP1 SLOAD SWAP1 PUSH2 0x100 EXP SWAP1 DIV PUSH20 0xFFFFFFFFFFFFFFFFFFFFFFFFFFFFFFFFFFFFFFFF AND PUSH20 0xFFFFFFFFFFFFFFFFFFFFFFFFFFFFFFFFFFFFFFFF AND PUSH4 0x70A08231 ADDRESS PUSH1 0x40 MLOAD DUP3 PUSH4 0xFFFFFFFF AND PUSH1 0xE0 SHL DUP2 MSTORE PUSH1 0x4 ADD PUSH2 0x4C9 SWAP2 SWAP1 PUSH2 0xAA4 JUMP JUMPDEST PUSH1 0x20 PUSH1 0x40 MLOAD DUP1 DUP4 SUB DUP2 DUP7 GAS STATICCALL ISZERO DUP1 ISZERO PUSH2 0x4E4 JUMPI RETURNDATASIZE PUSH0 DUP1 RETURNDATACOPY RETURNDATASIZE PUSH0 REVERT JUMPDEST POP POP POP POP PUSH1 0x40 MLOAD RETURNDATASIZE PUSH1 0x1F NOT PUSH1 0x1F DUP3 ADD AND DUP3 ADD DUP1 PUSH1 0x40 MSTORE POP DUP2 ADD SWAP1 PUSH2 0x508 SWAP2 SWAP1 PUSH2 0xDDC JUMP JUMPDEST SWAP1 POP PUSH0 DUP2 GT PUSH2 0x54C JUMPI PUSH1 0x40 MLOAD PUSH32 0x8C379A000000000000000000000000000000000000000000000000000000000 DUP2 MSTORE PUSH1 0x4 ADD PUSH2 0x543 SWAP1 PUSH2 0xE51 JUMP JUMPDEST PUSH1 0x40 MLOAD DUP1 SWAP2 SUB SWAP1 REVERT JUMPDEST PUSH0 DUP1 PUSH0 SWAP1 SLOAD SWAP1 PUSH2 0x100 EXP SWAP1 DIV PUSH20 0xFFFFFFFFFFFFFFFFFFFFFFFFFFFFFFFFFFFFFFFF AND PUSH20 0xFFFFFFFFFFFFFFFFFFFFFFFFFFFFFFFFFFFFFFFF AND PUSH4 0xA9059CBB PUSH1 0x1 PUSH0 SWAP1 SLOAD SWAP1 PUSH2 0x100 EXP SWAP1 DIV PUSH20 0xFFFFFFFFFFFFFFFFFFFFFFFFFFFFFFFFFFFFFFFF AND DUP5 PUSH1 0x40 MLOAD DUP4 PUSH4 0xFFFFFFFF AND PUSH1 0xE0 SHL DUP2 MSTORE PUSH1 0x4 ADD PUSH2 0x5C9 SWAP3 SWAP2 SWAP1 PUSH2 0xC71 JUMP JUMPDEST PUSH1 0x20 PUSH1 0x40 MLOAD DUP1 DUP4 SUB DUP2 PUSH0 DUP8 GAS CALL ISZERO DUP1 ISZERO PUSH2 0x5E5 JUMPI RETURNDATASIZE PUSH0 DUP1 RETURNDATACOPY RETURNDATASIZE PUSH0 REVERT JUMPDEST POP POP POP POP PUSH1 0x40 MLOAD RETURNDATASIZE PUSH1 0x1F NOT PUSH1 0x1F DUP3 ADD AND DUP3 ADD DUP1 PUSH1 0x40 MSTORE POP DUP2 ADD SWAP1 PUSH2 0x609 SWAP2 SWAP1 PUSH2 0xCCD JUMP JUMPDEST SWAP1 POP DUP1 PUSH2 0x64B JUMPI PUSH1 0x40 MLOAD PUSH32 0x8C379A000000000000000000000000000000000000000000000000000000000 DUP2 MSTORE PUSH1 0x4 ADD PUSH2 0x642 SWAP1 PUSH2 0xEB9 JUMP JUMPDEST PUSH1 0x40 MLOAD DUP1 SWAP2 SUB SWAP1 REVERT JUMPDEST PUSH1 0x1 PUSH0 SWAP1 SLOAD SWAP1 PUSH2 0x100 EXP SWAP1 DIV PUSH20 0xFFFFFFFFFFFFFFFFFFFFFFFFFFFFFFFFFFFFFFFF AND PUSH20 0xFFFFFFFFFFFFFFFFFFFFFFFFFFFFFFFFFFFFFFFF AND PUSH32 0x7084F5476618D8E60B11EF0D7D3F06914655ADB8793E28FF7F018D4C76D505D5 DUP4 PUSH1 0x40 MLOAD PUSH2 0x6B2 SWAP2 SWAP1 PUSH2 0xA27 JUMP JUMPDEST PUSH1 0x40 MLOAD DUP1 SWAP2 SUB SWAP1 LOG2 POP POP JUMP JUMPDEST PUSH0 PUSH1 0x2 PUSH0 DUP4 PUSH20 0xFFFFFFFFFFFFFFFFFFFFFFFFFFFFFFFFFFFFFFFF AND PUSH20 0xFFFFFFFFFFFFFFFFFFFFFFFFFFFFFFFFFFFFFFFF AND DUP2 MSTORE PUSH1 0x20 ADD SWAP1 DUP2 MSTORE PUSH1 0x20 ADD PUSH0 KECCAK256 SLOAD SWAP1 POP SWAP2 SWAP1 POP JUMP JUMPDEST PUSH0 DUP1 PUSH0 SWAP1 SLOAD SWAP1 PUSH2 0x100 EXP SWAP1 DIV PUSH20 0xFFFFFFFFFFFFFFFFFFFFFFFFFFFFFFFFFFFFFFFF AND PUSH20 0xFFFFFFFFFFFFFFFFFFFFFFFFFFFFFFFFFFFFFFFF AND PUSH4 0x70A08231 ADDRESS PUSH1 0x40 MLOAD DUP3 PUSH4 0xFFFFFFFF AND PUSH1 0xE0 SHL DUP2 MSTORE PUSH1 0x4 ADD PUSH2 0x75E SWAP2 SWAP1 PUSH2 0xAA4 JUMP JUMPDEST PUSH1 0x20 PUSH1 0x40 MLOAD DUP1 DUP4 SUB DUP2 DUP7 GAS STATICCALL ISZERO DUP1 ISZERO PUSH2 0x779 JUMPI RETURNDATASIZE PUSH0 DUP1 RETURNDATACOPY RETURNDATASIZE PUSH0 REVERT JUMPDEST POP POP POP POP PUSH1 0x40 MLOAD RETURNDATASIZE PUSH1 0x1F NOT PUSH1 0x1F DUP3 ADD AND DUP3 ADD DUP1 PUSH1 0x40 MSTORE POP DUP2 ADD SWAP1 PUSH2 0x79D SWAP2 SWAP1 PUSH2 0xDDC JUMP JUMPDEST SWAP1 POP SWAP1 JUMP JUMPDEST PUSH0 DUP1 PUSH0 SWAP1 SLOAD SWAP1 PUSH2 0x100 EXP SWAP1 DIV PUSH20 0xFFFFFFFFFFFFFFFFFFFFFFFFFFFFFFFFFFFFFFFF AND PUSH20 0xFFFFFFFFFFFFFFFFFFFFFFFFFFFFFFFFFFFFFFFF AND PUSH4 0x23B872DD CALLER ADDRESS DUP6 PUSH1 0x40 MLOAD DUP5 PUSH4 0xFFFFFFFF AND PUSH1 0xE0 SHL DUP2 MSTORE PUSH1 0x4 ADD PUSH2 0x800 SWAP4 SWAP3 SWAP2 SWAP1 PUSH2 0xED7 JUMP JUMPDEST PUSH1 0x20 PUSH1 0x40 MLOAD DUP1 DUP4 SUB DUP2 PUSH0 DUP8 GAS CALL ISZERO DUP1 ISZERO PUSH2 0x81C JUMPI RETURNDATASIZE PUSH0 DUP1 RETURNDATACOPY RETURNDATASIZE PUSH0 REVERT JUMPDEST POP POP POP POP PUSH1 0x40 MLOAD RETURNDATASIZE PUSH1 0x1F NOT PUSH1 0x1F DUP3 ADD AND DUP3 ADD DUP1 PUSH1 0x40 MSTORE POP DUP2 ADD SWAP1 PUSH2 0x840 SWAP2 SWAP1 PUSH2 0xCCD JUMP JUMPDEST SWAP1 POP DUP1 PUSH2 0x882 JUMPI PUSH1 0x40 MLOAD PUSH32 0x8C379A000000000000000000000000000000000000000000000000000000000 DUP2 MSTORE PUSH1 0x4 ADD PUSH2 0x879 SWAP1 PUSH2 0xD42 JUMP JUMPDEST PUSH1 0x40 MLOAD DUP1 SWAP2 SUB SWAP1 REVERT JUMPDEST DUP2 PUSH1 0x2 PUSH0 CALLER PUSH20 0xFFFFFFFFFFFFFFFFFFFFFFFFFFFFFFFFFFFFFFFF AND PUSH20 0xFFFFFFFFFFFFFFFFFFFFFFFFFFFFFFFFFFFFFFFF AND DUP2 MSTORE PUSH1 0x20 ADD SWAP1 DUP2 MSTORE PUSH1 0x20 ADD PUSH0 KECCAK256 PUSH0 DUP3 DUP3 SLOAD PUSH2 0x8CE SWAP2 SWAP1 PUSH2 0xF0C JUMP JUMPDEST SWAP3 POP POP DUP2 SWAP1 SSTORE POP ADDRESS PUSH20 0xFFFFFFFFFFFFFFFFFFFFFFFFFFFFFFFFFFFFFFFF AND CALLER PUSH20 0xFFFFFFFFFFFFFFFFFFFFFFFFFFFFFFFFFFFFFFFF AND PUSH32 0x8752A472E571A816AEA92EEC8DAE9BAF628E840F4929FBCC2D155E6233FF68A7 DUP5 PUSH1 0x40 MLOAD PUSH2 0x932 SWAP2 SWAP1 PUSH2 0xA27 JUMP JUMPDEST PUSH1 0x40 MLOAD DUP1 SWAP2 SUB SWAP1 LOG3 POP POP JUMP JUMPDEST PUSH1 0x1 PUSH0 SWAP1 SLOAD SWAP1 PUSH2 0x100 EXP SWAP1 DIV PUSH20 0xFFFFFFFFFFFFFFFFFFFFFFFFFFFFFFFFFFFFFFFF AND DUP2 JUMP JUMPDEST PUSH0 DUP1 SLOAD SWAP1 PUSH2 0x100 EXP SWAP1 DIV PUSH20 0xFFFFFFFFFFFFFFFFFFFFFFFFFFFFFFFFFFFFFFFF AND DUP2 JUMP JUMPDEST PUSH0 DUP1 REVERT JUMPDEST PUSH0 PUSH20 0xFFFFFFFFFFFFFFFFFFFFFFFFFFFFFFFFFFFFFFFF DUP3 AND SWAP1 POP SWAP2 SWAP1 POP JUMP JUMPDEST PUSH0 PUSH2 0x9B3 DUP3 PUSH2 0x98A JUMP JUMPDEST SWAP1 POP SWAP2 SWAP1 POP JUMP JUMPDEST PUSH2 0x9C3 DUP2 PUSH2 0x9A9 JUMP JUMPDEST DUP2 EQ PUSH2 0x9CD JUMPI PUSH0 DUP1 REVERT JUMPDEST POP JUMP JUMPDEST PUSH0 DUP2 CALLDATALOAD SWAP1 POP PUSH2 0x9DE DUP2 PUSH2 0x9BA JUMP JUMPDEST SWAP3 SWAP2 POP POP JUMP JUMPDEST PUSH0 PUSH1 0x20 DUP3 DUP5 SUB SLT ISZERO PUSH2 0x9F9 JUMPI PUSH2 0x9F8 PUSH2 0x986 JUMP JUMPDEST JUMPDEST PUSH0 PUSH2 0xA06 DUP5 DUP3 DUP6 ADD PUSH2 0x9D0 JUMP JUMPDEST SWAP2 POP POP SWAP3 SWAP2 POP POP JUMP JUMPDEST PUSH0 DUP2 SWAP1 POP SWAP2 SWAP1 POP JUMP JUMPDEST PUSH2 0xA21 DUP2 PUSH2 0xA0F JUMP JUMPDEST DUP3 MSTORE POP POP JUMP JUMPDEST PUSH0 PUSH1 0x20 DUP3 ADD SWAP1 POP PUSH2 0xA3A PUSH0 DUP4 ADD DUP5 PUSH2 0xA18 JUMP JUMPDEST SWAP3 SWAP2 POP POP JUMP JUMPDEST PUSH2 0xA49 DUP2 PUSH2 0xA0F JUMP JUMPDEST DUP2 EQ PUSH2 0xA53 JUMPI PUSH0 DUP1 REVERT JUMPDEST POP JUMP JUMPDEST PUSH0 DUP2 CALLDATALOAD SWAP1 POP PUSH2 0xA64 DUP2 PUSH2 0xA40 JUMP JUMPDEST SWAP3 SWAP2 POP POP JUMP JUMPDEST PUSH0 PUSH1 0x20 DUP3 DUP5 SUB SLT ISZERO PUSH2 0xA7F JUMPI PUSH2 0xA7E PUSH2 0x986 JUMP JUMPDEST JUMPDEST PUSH0 PUSH2 0xA8C DUP5 DUP3 DUP6 ADD PUSH2 0xA56 JUMP JUMPDEST SWAP2 POP POP SWAP3 SWAP2 POP POP JUMP JUMPDEST PUSH2 0xA9E DUP2 PUSH2 0x9A9 JUMP JUMPDEST DUP3 MSTORE POP POP JUMP JUMPDEST PUSH0 PUSH1 0x20 DUP3 ADD SWAP1 POP PUSH2 0xAB7 PUSH0 DUP4 ADD DUP5 PUSH2 0xA95 JUMP JUMPDEST SWAP3 SWAP2 POP POP JUMP JUMPDEST PUSH0 DUP2 SWAP1 POP SWAP2 SWAP1 POP JUMP JUMPDEST PUSH0 PUSH2 0xAE0 PUSH2 0xADB PUSH2 0xAD6 DUP5 PUSH2 0x98A JUMP JUMPDEST PUSH2 0xABD JUMP JUMPDEST PUSH2 0x98A JUMP JUMPDEST SWAP1 POP SWAP2 SWAP1 POP JUMP JUMPDEST PUSH0 PUSH2 0xAF1 DUP3 PUSH2 0xAC6 JUMP JUMPDEST SWAP1 POP SWAP2 SWAP1 POP JUMP JUMPDEST PUSH0 PUSH2 0xB02 DUP3 PUSH2 0xAE7 JUMP JUMPDEST SWAP1 POP SWAP2 SWAP1 POP JUMP JUMPDEST PUSH2 0xB12 DUP2 PUSH2 0xAF8 JUMP JUMPDEST DUP3 MSTORE POP POP JUMP JUMPDEST PUSH0 PUSH1 0x20 DUP3 ADD SWAP1 POP PUSH2 0xB2B PUSH0 DUP4 ADD DUP5 PUSH2 0xB09 JUMP JUMPDEST SWAP3 SWAP2 POP POP JUMP JUMPDEST PUSH0 DUP3 DUP3 MSTORE PUSH1 0x20 DUP3 ADD SWAP1 POP SWAP3 SWAP2 POP POP JUMP JUMPDEST PUSH32 0x416D6F756E74206D7573742062652067726561746572207468616E2030000000 PUSH0 DUP3 ADD MSTORE POP JUMP JUMPDEST PUSH0 PUSH2 0xB75 PUSH1 0x1D DUP4 PUSH2 0xB31 JUMP JUMPDEST SWAP2 POP PUSH2 0xB80 DUP3 PUSH2 0xB41 JUMP JUMPDEST PUSH1 0x20 DUP3 ADD SWAP1 POP SWAP2 SWAP1 POP JUMP JUMPDEST PUSH0 PUSH1 0x20 DUP3 ADD SWAP1 POP DUP2 DUP2 SUB PUSH0 DUP4 ADD MSTORE PUSH2 0xBA2 DUP2 PUSH2 0xB69 JUMP JUMPDEST SWAP1 POP SWAP2 SWAP1 POP JUMP JUMPDEST PUSH32 0x496E73756666696369656E742062616C616E6365000000000000000000000000 PUSH0 DUP3 ADD MSTORE POP JUMP JUMPDEST PUSH0 PUSH2 0xBDD PUSH1 0x14 DUP4 PUSH2 0xB31 JUMP JUMPDEST SWAP2 POP PUSH2 0xBE8 DUP3 PUSH2 0xBA9 JUMP JUMPDEST PUSH1 0x20 DUP3 ADD SWAP1 POP SWAP2 SWAP1 POP JUMP JUMPDEST PUSH0 PUSH1 0x20 DUP3 ADD SWAP1 POP DUP2 DUP2 SUB PUSH0 DUP4 ADD MSTORE PUSH2 0xC0A DUP2 PUSH2 0xBD1 JUMP JUMPDEST SWAP1 POP SWAP2 SWAP1 POP JUMP JUMPDEST PUSH32 0x4E487B7100000000000000000000000000000000000000000000000000000000 PUSH0 MSTORE PUSH1 0x11 PUSH1 0x4 MSTORE PUSH1 0x24 PUSH0 REVERT JUMPDEST PUSH0 PUSH2 0xC48 DUP3 PUSH2 0xA0F JUMP JUMPDEST SWAP2 POP PUSH2 0xC53 DUP4 PUSH2 0xA0F JUMP JUMPDEST SWAP3 POP DUP3 DUP3 SUB SWAP1 POP DUP2 DUP2 GT ISZERO PUSH2 0xC6B JUMPI PUSH2 0xC6A PUSH2 0xC11 JUMP JUMPDEST JUMPDEST SWAP3 SWAP2 POP POP JUMP JUMPDEST PUSH0 PUSH1 0x40 DUP3 ADD SWAP1 POP PUSH2 0xC84 PUSH0 DUP4 ADD DUP6 PUSH2 0xA95 JUMP JUMPDEST PUSH2 0xC91 PUSH1 0x20 DUP4 ADD DUP5 PUSH2 0xA18 JUMP JUMPDEST SWAP4 SWAP3 POP POP POP JUMP JUMPDEST PUSH0 DUP2 ISZERO ISZERO SWAP1 POP SWAP2 SWAP1 POP JUMP JUMPDEST PUSH2 0xCAC DUP2 PUSH2 0xC98 JUMP JUMPDEST DUP2 EQ PUSH2 0xCB6 JUMPI PUSH0 DUP1 REVERT JUMPDEST POP JUMP JUMPDEST PUSH0 DUP2 MLOAD SWAP1 POP PUSH2 0xCC7 DUP2 PUSH2 0xCA3 JUMP JUMPDEST SWAP3 SWAP2 POP POP JUMP JUMPDEST PUSH0 PUSH1 0x20 DUP3 DUP5 SUB SLT ISZERO PUSH2 0xCE2 JUMPI PUSH2 0xCE1 PUSH2 0x986 JUMP JUMPDEST JUMPDEST PUSH0 PUSH2 0xCEF DUP5 DUP3 DUP6 ADD PUSH2 0xCB9 JUMP JUMPDEST SWAP2 POP POP SWAP3 SWAP2 POP POP JUMP JUMPDEST PUSH32 0x5472616E73666572206661696C65640000000000000000000000000000000000 PUSH0 DUP3 ADD MSTORE POP JUMP JUMPDEST PUSH0 PUSH2 0xD2C PUSH1 0xF DUP4 PUSH2 0xB31 JUMP JUMPDEST SWAP2 POP PUSH2 0xD37 DUP3 PUSH2 0xCF8 JUMP JUMPDEST PUSH1 0x20 DUP3 ADD SWAP1 POP SWAP2 SWAP1 POP JUMP JUMPDEST PUSH0 PUSH1 0x20 DUP3 ADD SWAP1 POP DUP2 DUP2 SUB PUSH0 DUP4 ADD MSTORE PUSH2 0xD59 DUP2 PUSH2 0xD20 JUMP JUMPDEST SWAP1 POP SWAP2 SWAP1 POP JUMP JUMPDEST PUSH32 0x4F6E6C792061646D696E2063616E207769746864726177000000000000000000 PUSH0 DUP3 ADD MSTORE POP JUMP JUMPDEST PUSH0 PUSH2 0xD94 PUSH1 0x17 DUP4 PUSH2 0xB31 JUMP JUMPDEST SWAP2 POP PUSH2 0xD9F DUP3 PUSH2 0xD60 JUMP JUMPDEST PUSH1 0x20 DUP3 ADD SWAP1 POP SWAP2 SWAP1 POP JUMP JUMPDEST PUSH0 PUSH1 0x20 DUP3 ADD SWAP1 POP DUP2 DUP2 SUB PUSH0 DUP4 ADD MSTORE PUSH2 0xDC1 DUP2 PUSH2 0xD88 JUMP JUMPDEST SWAP1 POP SWAP2 SWAP1 POP JUMP JUMPDEST PUSH0 DUP2 MLOAD SWAP1 POP PUSH2 0xDD6 DUP2 PUSH2 0xA40 JUMP JUMPDEST SWAP3 SWAP2 POP POP JUMP JUMPDEST PUSH0 PUSH1 0x20 DUP3 DUP5 SUB SLT ISZERO PUSH2 0xDF1 JUMPI PUSH2 0xDF0 PUSH2 0x986 JUMP JUMPDEST JUMPDEST PUSH0 PUSH2 0xDFE DUP5 DUP3 DUP6 ADD PUSH2 0xDC8 JUMP JUMPDEST SWAP2 POP POP SWAP3 SWAP2 POP POP JUMP JUMPDEST PUSH32 0x4E6F20746F6B656E7320746F2077697468647261770000000000000000000000 PUSH0 DUP3 ADD MSTORE POP JUMP JUMPDEST PUSH0 PUSH2 0xE3B PUSH1 0x15 DUP4 PUSH2 0xB31 JUMP JUMPDEST SWAP2 POP PUSH2 0xE46 DUP3 PUSH2 0xE07 JUMP JUMPDEST PUSH1 0x20 DUP3 ADD SWAP1 POP SWAP2 SWAP1 POP JUMP JUMPDEST PUSH0 PUSH1 0x20 DUP3 ADD SWAP1 POP DUP2 DUP2 SUB PUSH0 DUP4 ADD MSTORE PUSH2 0xE68 DUP2 PUSH2 0xE2F JUMP JUMPDEST SWAP1 POP SWAP2 SWAP1 POP JUMP JUMPDEST PUSH32 0x5769746864726177616C206661696C6564000000000000000000000000000000 PUSH0 DUP3 ADD MSTORE POP JUMP JUMPDEST PUSH0 PUSH2 0xEA3 PUSH1 0x11 DUP4 PUSH2 0xB31 JUMP JUMPDEST SWAP2 POP PUSH2 0xEAE DUP3 PUSH2 0xE6F JUMP JUMPDEST PUSH1 0x20 DUP3 ADD SWAP1 POP SWAP2 SWAP1 POP JUMP JUMPDEST PUSH0 PUSH1 0x20 DUP3 ADD SWAP1 POP DUP2 DUP2 SUB PUSH0 DUP4 ADD MSTORE PUSH2 0xED0 DUP2 PUSH2 0xE97 JUMP JUMPDEST SWAP1 POP SWAP2 SWAP1 POP JUMP JUMPDEST PUSH0 PUSH1 0x60 DUP3 ADD SWAP1 POP PUSH2 0xEEA PUSH0 DUP4 ADD DUP7 PUSH2 0xA95 JUMP JUMPDEST PUSH2 0xEF7 PUSH1 0x20 DUP4 ADD DUP6 PUSH2 0xA95 JUMP JUMPDEST PUSH2 0xF04 PUSH1 0x40 DUP4 ADD DUP5 PUSH2 0xA18 JUMP JUMPDEST SWAP5 SWAP4 POP POP POP POP JUMP JUMPDEST PUSH0 PUSH2 0xF16 DUP3 PUSH2 0xA0F JUMP JUMPDEST SWAP2 POP PUSH2 0xF21 DUP4 PUSH2 0xA0F JUMP JUMPDEST SWAP3 POP DUP3 DUP3 ADD SWAP1 POP DUP1 DUP3 GT ISZERO PUSH2 0xF39 JUMPI PUSH2 0xF38 PUSH2 0xC11 JUMP JUMPDEST JUMPDEST SWAP3 SWAP2 POP POP JUMP INVALID LOG2 PUSH5 0x6970667358 0x22 SLT KECCAK256 CODESIZE 0xBB MSTORE8 BLOCKHASH 0x4F PUSH32 0xB972C5F1242EBEC1B6D563DA7B91FB9C7446C8BCFF230EC6CA5164736F6C6343 STOP ADDMOD BYTE STOP CALLER "
				},
				"gasEstimates": {
					"creation": {
						"codeDepositCost": "791400",
						"executionCost": "infinite",
						"totalCost": "infinite"
					},
					"external": {
						"admin()": "2552",
						"balances(address)": "2803",
						"deposit(uint256)": "infinite",
						"getBankBalance()": "infinite",
						"getDepositRecord(address)": "2896",
						"token()": "infinite",
						"userWithdraw(uint256)": "infinite",
						"withdraw()": "infinite"
					}
				},
				"methodIdentifiers": {
					"admin()": "f851a440",
					"balances(address)": "27e235e3",
					"deposit(uint256)": "b6b55f25",
					"getBankBalance()": "7b83b50b",
					"getDepositRecord(address)": "3dc58149",
					"token()": "fc0c546a",
					"userWithdraw(uint256)": "3b9056bf",
					"withdraw()": "3ccfd60b"
				}
			},
			"storageLayout": {
				"storage": [
					{
						"astId": 257,
						"contract": "study_way/src/6day_tokenBank.sol:TokenBank",
						"label": "token",
						"offset": 0,
						"slot": "0",
						"type": "t_contract(BaseERC20)251"
					},
					{
						"astId": 259,
						"contract": "study_way/src/6day_tokenBank.sol:TokenBank",
						"label": "admin",
						"offset": 0,
						"slot": "1",
						"type": "t_address"
					},
					{
						"astId": 263,
						"contract": "study_way/src/6day_tokenBank.sol:TokenBank",
						"label": "balances",
						"offset": 0,
						"slot": "2",
						"type": "t_mapping(t_address,t_uint256)"
					}
				],
				"types": {
					"t_address": {
						"encoding": "inplace",
						"label": "address",
						"numberOfBytes": "20"
					},
					"t_contract(BaseERC20)251": {
						"encoding": "inplace",
						"label": "contract BaseERC20",
						"numberOfBytes": "20"
					},
					"t_mapping(t_address,t_uint256)": {
						"encoding": "mapping",
						"key": "t_address",
						"label": "mapping(address => uint256)",
						"numberOfBytes": "32",
						"value": "t_uint256"
					},
					"t_uint256": {
						"encoding": "inplace",
						"label": "uint256",
						"numberOfBytes": "32"
					}
				}
			},
			"userdoc": {
				"kind": "user",
				"methods": {},
				"version": 1
			}
		}
	}
}