{
	"study_way/src/9day_tokenBANKV2.sol": {
		"TokenBankV2": {
			"abi": [
				{
					"inputs": [
						{
							"internalType": "address",
							"name": "_token",
							"type": "address"
						}
					],
					"stateMutability": "nonpayable",
					"type": "constructor"
				},
				{
					"anonymous": false,
					"inputs": [
						{
							"indexed": true,
							"internalType": "address",
							"name": "user",
							"type": "address"
						},
						{
							"indexed": true,
							"internalType": "address",
							"name": "to",
							"type": "address"
						},
						{
							"indexed": false,
							"internalType": "uint256",
							"name": "amount",
							"type": "uint256"
						}
					],
					"name": "Deposited",
					"type": "event"
				},
				{
					"anonymous": false,
					"inputs": [
						{
							"indexed": true,
							"internalType": "address",
							"name": "user",
							"type": "address"
						},
						{
							"indexed": false,
							"internalType": "uint256",
							"name": "amount",
							"type": "uint256"
						}
					],
					"name": "DepositedWithCallback",
					"type": "event"
				},
				{
					"anonymous": false,
					"inputs": [
						{
							"indexed": true,
							"internalType": "address",
							"name": "user",
							"type": "address"
						},
						{
							"indexed": false,
							"internalType": "uint256",
							"name": "amount",
							"type": "uint256"
						}
					],
					"name": "UserWithdrawn",
					"type": "event"
				},
				{
					"anonymous": false,
					"inputs": [
						{
							"indexed": true,
							"internalType": "address",
							"name": "admin",
							"type": "address"
						},
						{
							"indexed": false,
							"internalType": "uint256",
							"name": "amount",
							"type": "uint256"
						}
					],
					"name": "Withdrawn",
					"type": "event"
				},
				{
					"inputs": [],
					"name": "admin",
					"outputs": [
						{
							"internalType": "address",
							"name": "",
							"type": "address"
						}
					],
					"stateMutability": "view",
					"type": "function"
				},
				{
					"inputs": [
						{
							"internalType": "address",
							"name": "",
							"type": "address"
						}
					],
					"name": "balances",
					"outputs": [
						{
							"internalType": "uint256",
							"name": "",
							"type": "uint256"
						}
					],
					"stateMutability": "view",
					"type": "function"
				},
				{
					"inputs": [
						{
							"internalType": "uint256",
							"name": "amount",
							"type": "uint256"
						}
					],
					"name": "deposit",
					"outputs": [],
					"stateMutability": "nonpayable",
					"type": "function"
				},
				{
					"inputs": [],
					"name": "getBankBalance",
					"outputs": [
						{
							"internalType": "uint256",
							"name": "",
							"type": "uint256"
						}
					],
					"stateMutability": "view",
					"type": "function"
				},
				{
					"inputs": [
						{
							"internalType": "address",
							"name": "user",
							"type": "address"
						}
					],
					"name": "getDepositRecord",
					"outputs": [
						{
							"internalType": "uint256",
							"name": "",
							"type": "uint256"
						}
					],
					"stateMutability": "view",
					"type": "function"
				},
				{
					"inputs": [],
					"name": "token",
					"outputs": [
						{
							"internalType": "contract BaseERC20",
							"name": "",
							"type": "address"
						}
					],
					"stateMutability": "view",
					"type": "function"
				},
				{
					"inputs": [
						{
							"internalType": "address",
							"name": "from",
							"type": "address"
						},
						{
							"internalType": "uint256",
							"name": "amount",
							"type": "uint256"
						}
					],
					"name": "tokensReceived",
					"outputs": [
						{
							"internalType": "bytes4",
							"name": "",
							"type": "bytes4"
						}
					],
					"stateMutability": "nonpayable",
					"type": "function"
				},
				{
					"inputs": [
						{
							"internalType": "uint256",
							"name": "amount",
							"type": "uint256"
						}
					],
					"name": "userWithdraw",
					"outputs": [],
					"stateMutability": "nonpayable",
					"type": "function"
				},
				{
					"inputs": [],
					"name": "withdraw",
					"outputs": [],
					"stateMutability": "nonpayable",
					"type": "function"
				}
			],
			"devdoc": {
				"kind": "dev",
				"methods": {},
				"version": 1
			},
			"evm": {
				"assembly": "    /* \"study_way/src/9day_tokenBANKV2.sol\":163:1100  contract TokenBankV2 is TokenBank, IERC20Receiver{... */\n  mstore(0x40, 0x80)\n    /* \"study_way/src/9day_tokenBANKV2.sol\":347:395  constructor(address _token) TokenBank(_token) {} */\n  callvalue\n  dup1\n  iszero\n  tag_1\n  jumpi\n  0x00\n  dup1\n  revert\ntag_1:\n  pop\n  mload(0x40)\n  sub(codesize, bytecodeSize)\n  dup1\n  bytecodeSize\n  dup4\n  codecopy\n  dup2\n  dup2\n  add\n  0x40\n  mstore\n  dup2\n  add\n  swap1\n  tag_2\n  swap2\n  swap1\n  tag_3\n  jump\t// in\ntag_2:\n    /* \"study_way/src/9day_tokenBANKV2.sol\":385:391  _token */\n  dup1\n    /* \"study_way/src/6day_tokenBank.sol\":857:863  _token */\n  dup1\n    /* \"study_way/src/6day_tokenBank.sol\":839:844  token */\n  0x00\n  dup1\n    /* \"study_way/src/6day_tokenBank.sol\":839:864  token = BaseERC20(_token) */\n  0x0100\n  exp\n  dup2\n  sload\n  dup2\n  0xffffffffffffffffffffffffffffffffffffffff\n  mul\n  not\n  and\n  swap1\n  dup4\n  0xffffffffffffffffffffffffffffffffffffffff\n  and\n  mul\n  or\n  swap1\n  sstore\n  pop\n    /* \"study_way/src/6day_tokenBank.sol\":933:943  msg.sender */\n  caller\n    /* \"study_way/src/6day_tokenBank.sol\":925:930  admin */\n  0x01\n  0x00\n    /* \"study_way/src/6day_tokenBank.sol\":925:943  admin = msg.sender */\n  0x0100\n  exp\n  dup2\n  sload\n  dup2\n  0xffffffffffffffffffffffffffffffffffffffff\n  mul\n  not\n  and\n  swap1\n  dup4\n  0xffffffffffffffffffffffffffffffffffffffff\n  and\n  mul\n  or\n  swap1\n  sstore\n  pop\n    /* \"study_way/src/6day_tokenBank.sol\":801:984  constructor(address _token) {... */\n  pop\n    /* \"study_way/src/9day_tokenBANKV2.sol\":347:395  constructor(address _token) TokenBank(_token) {} */\n  pop\n    /* \"study_way/src/9day_tokenBANKV2.sol\":163:1100  contract TokenBankV2 is TokenBank, IERC20Receiver{... */\n  jump(tag_8)\n    /* \"#utility.yul\":88:205   */\ntag_10:\n    /* \"#utility.yul\":197:198   */\n  0x00\n    /* \"#utility.yul\":194:195   */\n  dup1\n    /* \"#utility.yul\":187:199   */\n  revert\n    /* \"#utility.yul\":334:460   */\ntag_12:\n    /* \"#utility.yul\":371:378   */\n  0x00\n    /* \"#utility.yul\":411:453   */\n  0xffffffffffffffffffffffffffffffffffffffff\n    /* \"#utility.yul\":404:409   */\n  dup3\n    /* \"#utility.yul\":400:454   */\n  and\n    /* \"#utility.yul\":389:454   */\n  swap1\n  pop\n    /* \"#utility.yul\":334:460   */\n  swap2\n  swap1\n  pop\n  jump\t// out\n    /* \"#utility.yul\":466:562   */\ntag_13:\n    /* \"#utility.yul\":503:510   */\n  0x00\n    /* \"#utility.yul\":532:556   */\n  tag_22\n    /* \"#utility.yul\":550:555   */\n  dup3\n    /* \"#utility.yul\":532:556   */\n  tag_12\n  jump\t// in\ntag_22:\n    /* \"#utility.yul\":521:556   */\n  swap1\n  pop\n    /* \"#utility.yul\":466:562   */\n  swap2\n  swap1\n  pop\n  jump\t// out\n    /* \"#utility.yul\":568:690   */\ntag_14:\n    /* \"#utility.yul\":641:665   */\n  tag_24\n    /* \"#utility.yul\":659:664   */\n  dup2\n    /* \"#utility.yul\":641:665   */\n  tag_13\n  jump\t// in\ntag_24:\n    /* \"#utility.yul\":634:639   */\n  dup2\n    /* \"#utility.yul\":631:666   */\n  eq\n    /* \"#utility.yul\":621:684   */\n  tag_25\n  jumpi\n    /* \"#utility.yul\":680:681   */\n  0x00\n    /* \"#utility.yul\":677:678   */\n  dup1\n    /* \"#utility.yul\":670:682   */\n  revert\n    /* \"#utility.yul\":621:684   */\ntag_25:\n    /* \"#utility.yul\":568:690   */\n  pop\n  jump\t// out\n    /* \"#utility.yul\":696:839   */\ntag_15:\n    /* \"#utility.yul\":753:758   */\n  0x00\n    /* \"#utility.yul\":784:790   */\n  dup2\n    /* \"#utility.yul\":778:791   */\n  mload\n    /* \"#utility.yul\":769:791   */\n  swap1\n  pop\n    /* \"#utility.yul\":800:833   */\n  tag_27\n    /* \"#utility.yul\":827:832   */\n  dup2\n    /* \"#utility.yul\":800:833   */\n  tag_14\n  jump\t// in\ntag_27:\n    /* \"#utility.yul\":696:839   */\n  swap3\n  swap2\n  pop\n  pop\n  jump\t// out\n    /* \"#utility.yul\":845:1196   */\ntag_3:\n    /* \"#utility.yul\":915:921   */\n  0x00\n    /* \"#utility.yul\":964:966   */\n  0x20\n    /* \"#utility.yul\":952:961   */\n  dup3\n    /* \"#utility.yul\":943:950   */\n  dup5\n    /* \"#utility.yul\":939:962   */\n  sub\n    /* \"#utility.yul\":935:967   */\n  slt\n    /* \"#utility.yul\":932:1051   */\n  iszero\n  tag_29\n  jumpi\n    /* \"#utility.yul\":970:1049   */\n  tag_30\n  tag_10\n  jump\t// in\ntag_30:\n    /* \"#utility.yul\":932:1051   */\ntag_29:\n    /* \"#utility.yul\":1090:1091   */\n  0x00\n    /* \"#utility.yul\":1115:1179   */\n  tag_31\n    /* \"#utility.yul\":1171:1178   */\n  dup5\n    /* \"#utility.yul\":1162:1168   */\n  dup3\n    /* \"#utility.yul\":1151:1160   */\n  dup6\n    /* \"#utility.yul\":1147:1169   */\n  add\n    /* \"#utility.yul\":1115:1179   */\n  tag_15\n  jump\t// in\ntag_31:\n    /* \"#utility.yul\":1105:1179   */\n  swap2\n  pop\n    /* \"#utility.yul\":1061:1189   */\n  pop\n    /* \"#utility.yul\":845:1196   */\n  swap3\n  swap2\n  pop\n  pop\n  jump\t// out\n    /* \"study_way/src/9day_tokenBANKV2.sol\":163:1100  contract TokenBankV2 is TokenBank, IERC20Receiver{... */\ntag_8:\n  dataSize(sub_0)\n  dup1\n  dataOffset(sub_0)\n  0x00\n  codecopy\n  0x00\n  return\nstop\n\nsub_0: assembly {\n        /* \"study_way/src/9day_tokenBANKV2.sol\":163:1100  contract TokenBankV2 is TokenBank, IERC20Receiver{... */\n      mstore(0x40, 0x80)\n      callvalue\n      dup1\n      iszero\n      tag_1\n      jumpi\n      0x00\n      dup1\n      revert\n    tag_1:\n      pop\n      jumpi(tag_2, lt(calldatasize, 0x04))\n      shr(0xe0, calldataload(0x00))\n      dup1\n      0x3dc58149\n      gt\n      tag_12\n      jumpi\n      dup1\n      0x3dc58149\n      eq\n      tag_7\n      jumpi\n      dup1\n      0x7b83b50b\n      eq\n      tag_8\n      jumpi\n      dup1\n      0xb6b55f25\n      eq\n      tag_9\n      jumpi\n      dup1\n      0xf851a440\n      eq\n      tag_10\n      jumpi\n      dup1\n      0xfc0c546a\n      eq\n      tag_11\n      jumpi\n      jump(tag_2)\n    tag_12:\n      dup1\n      0x24a756d1\n      eq\n      tag_3\n      jumpi\n      dup1\n      0x27e235e3\n      eq\n      tag_4\n      jumpi\n      dup1\n      0x3b9056bf\n      eq\n      tag_5\n      jumpi\n      dup1\n      0x3ccfd60b\n      eq\n      tag_6\n      jumpi\n    tag_2:\n      0x00\n      dup1\n      revert\n        /* \"study_way/src/9day_tokenBANKV2.sol\":760:1097  function tokensReceived(address from, uint256 amount) external override returns (bytes4) {... */\n    tag_3:\n      tag_13\n      0x04\n      dup1\n      calldatasize\n      sub\n      dup2\n      add\n      swap1\n      tag_14\n      swap2\n      swap1\n      tag_15\n      jump\t// in\n    tag_14:\n      tag_16\n      jump\t// in\n    tag_13:\n      mload(0x40)\n      tag_17\n      swap2\n      swap1\n      tag_18\n      jump\t// in\n    tag_17:\n      mload(0x40)\n      dup1\n      swap2\n      sub\n      swap1\n      return\n        /* \"study_way/src/6day_tokenBank.sol\":440:483  mapping(address => uint256) public balances */\n    tag_4:\n      tag_19\n      0x04\n      dup1\n      calldatasize\n      sub\n      dup2\n      add\n      swap1\n      tag_20\n      swap2\n      swap1\n      tag_21\n      jump\t// in\n    tag_20:\n      tag_22\n      jump\t// in\n    tag_19:\n      mload(0x40)\n      tag_23\n      swap2\n      swap1\n      tag_24\n      jump\t// in\n    tag_23:\n      mload(0x40)\n      dup1\n      swap2\n      sub\n      swap1\n      return\n        /* \"study_way/src/6day_tokenBank.sol\":1830:2259  function userWithdraw(uint256 amount) external {... */\n    tag_5:\n      tag_25\n      0x04\n      dup1\n      calldatasize\n      sub\n      dup2\n      add\n      swap1\n      tag_26\n      swap2\n      swap1\n      tag_27\n      jump\t// in\n    tag_26:\n      tag_28\n      jump\t// in\n    tag_25:\n      stop\n        /* \"study_way/src/6day_tokenBank.sol\":2300:2771  function withdraw() external {... */\n    tag_6:\n      tag_29\n      tag_30\n      jump\t// in\n    tag_29:\n      stop\n        /* \"study_way/src/6day_tokenBank.sol\":2988:3098  function getDepositRecord(address user) external view returns (uint256) {... */\n    tag_7:\n      tag_31\n      0x04\n      dup1\n      calldatasize\n      sub\n      dup2\n      add\n      swap1\n      tag_32\n      swap2\n      swap1\n      tag_21\n      jump\t// in\n    tag_32:\n      tag_33\n      jump\t// in\n    tag_31:\n      mload(0x40)\n      tag_34\n      swap2\n      swap1\n      tag_24\n      jump\t// in\n    tag_34:\n      mload(0x40)\n      dup1\n      swap2\n      sub\n      swap1\n      return\n        /* \"study_way/src/6day_tokenBank.sol\":2824:2936  function getBankBalance() external view returns (uint256) {... */\n    tag_8:\n      tag_35\n      tag_36\n      jump\t// in\n    tag_35:\n      mload(0x40)\n      tag_37\n      swap2\n      swap1\n      tag_24\n      jump\t// in\n    tag_37:\n      mload(0x40)\n      dup1\n      swap2\n      sub\n      swap1\n      return\n        /* \"study_way/src/6day_tokenBank.sol\":1144:1792  function deposit(uint256 amount) external {... */\n    tag_9:\n      tag_38\n      0x04\n      dup1\n      calldatasize\n      sub\n      dup2\n      add\n      swap1\n      tag_39\n      swap2\n      swap1\n      tag_27\n      jump\t// in\n    tag_39:\n      tag_40\n      jump\t// in\n    tag_38:\n      stop\n        /* \"study_way/src/6day_tokenBank.sol\":354:374  address public admin */\n    tag_10:\n      tag_41\n      tag_42\n      jump\t// in\n    tag_41:\n      mload(0x40)\n      tag_43\n      swap2\n      swap1\n      tag_44\n      jump\t// in\n    tag_43:\n      mload(0x40)\n      dup1\n      swap2\n      sub\n      swap1\n      return\n        /* \"study_way/src/6day_tokenBank.sol\":302:324  BaseERC20 public token */\n    tag_11:\n      tag_45\n      tag_46\n      jump\t// in\n    tag_45:\n      mload(0x40)\n      tag_47\n      swap2\n      swap1\n      tag_48\n      jump\t// in\n    tag_47:\n      mload(0x40)\n      dup1\n      swap2\n      sub\n      swap1\n      return\n        /* \"study_way/src/9day_tokenBANKV2.sol\":760:1097  function tokensReceived(address from, uint256 amount) external override returns (bytes4) {... */\n    tag_16:\n        /* \"study_way/src/9day_tokenBANKV2.sol\":841:847  bytes4 */\n      0x00\n        /* \"study_way/src/9day_tokenBANKV2.sol\":890:895  token */\n      dup1\n      0x00\n      swap1\n      sload\n      swap1\n      0x0100\n      exp\n      swap1\n      div\n      0xffffffffffffffffffffffffffffffffffffffff\n      and\n        /* \"study_way/src/9day_tokenBANKV2.sol\":868:896  msg.sender == address(token) */\n      0xffffffffffffffffffffffffffffffffffffffff\n      and\n        /* \"study_way/src/9day_tokenBANKV2.sol\":868:878  msg.sender */\n      caller\n        /* \"study_way/src/9day_tokenBANKV2.sol\":868:896  msg.sender == address(token) */\n      0xffffffffffffffffffffffffffffffffffffffff\n      and\n      eq\n        /* \"study_way/src/9day_tokenBANKV2.sol\":860:929  require(msg.sender == address(token), \"Only token contract can call\") */\n      tag_50\n      jumpi\n      mload(0x40)\n      0x08c379a000000000000000000000000000000000000000000000000000000000\n      dup2\n      mstore\n      0x04\n      add\n      tag_51\n      swap1\n      tag_52\n      jump\t// in\n    tag_51:\n      mload(0x40)\n      dup1\n      swap2\n      sub\n      swap1\n      revert\n    tag_50:\n        /* \"study_way/src/9day_tokenBANKV2.sol\":958:964  amount */\n      dup2\n        /* \"study_way/src/9day_tokenBANKV2.sol\":940:948  balances */\n      0x02\n        /* \"study_way/src/9day_tokenBANKV2.sol\":940:954  balances[from] */\n      0x00\n        /* \"study_way/src/9day_tokenBANKV2.sol\":949:953  from */\n      dup6\n        /* \"study_way/src/9day_tokenBANKV2.sol\":940:954  balances[from] */\n      0xffffffffffffffffffffffffffffffffffffffff\n      and\n      0xffffffffffffffffffffffffffffffffffffffff\n      and\n      dup2\n      mstore\n      0x20\n      add\n      swap1\n      dup2\n      mstore\n      0x20\n      add\n      0x00\n      keccak256\n      0x00\n        /* \"study_way/src/9day_tokenBANKV2.sol\":940:964  balances[from] += amount */\n      dup3\n      dup3\n      sload\n      tag_53\n      swap2\n      swap1\n      tag_54\n      jump\t// in\n    tag_53:\n      swap3\n      pop\n      pop\n      dup2\n      swap1\n      sstore\n      pop\n        /* \"study_way/src/9day_tokenBANKV2.sol\":1004:1008  this */\n      address\n        /* \"study_way/src/9day_tokenBANKV2.sol\":980:1018  Deposited(from, address(this), amount) */\n      0xffffffffffffffffffffffffffffffffffffffff\n      and\n        /* \"study_way/src/9day_tokenBANKV2.sol\":990:994  from */\n      dup4\n        /* \"study_way/src/9day_tokenBANKV2.sol\":980:1018  Deposited(from, address(this), amount) */\n      0xffffffffffffffffffffffffffffffffffffffff\n      and\n      0x8752a472e571a816aea92eec8dae9baf628e840f4929fbcc2d155e6233ff68a7\n        /* \"study_way/src/9day_tokenBANKV2.sol\":1011:1017  amount */\n      dup5\n        /* \"study_way/src/9day_tokenBANKV2.sol\":980:1018  Deposited(from, address(this), amount) */\n      mload(0x40)\n      tag_55\n      swap2\n      swap1\n      tag_24\n      jump\t// in\n    tag_55:\n      mload(0x40)\n      dup1\n      swap2\n      sub\n      swap1\n      log3\n        /* \"study_way/src/9day_tokenBANKV2.sol\":1036:1064  this.tokensReceived.selector */\n      shl(0xe0, 0x24a756d1)\n        /* \"study_way/src/9day_tokenBANKV2.sol\":1029:1064  return this.tokensReceived.selector */\n      swap1\n      pop\n        /* \"study_way/src/9day_tokenBANKV2.sol\":760:1097  function tokensReceived(address from, uint256 amount) external override returns (bytes4) {... */\n      swap3\n      swap2\n      pop\n      pop\n      jump\t// out\n        /* \"study_way/src/6day_tokenBank.sol\":440:483  mapping(address => uint256) public balances */\n    tag_22:\n      mstore(0x20, 0x02)\n      dup1\n      0x00\n      mstore\n      keccak256(0x00, 0x40)\n      0x00\n      swap2\n      pop\n      swap1\n      pop\n      sload\n      dup2\n      jump\t// out\n        /* \"study_way/src/6day_tokenBank.sol\":1830:2259  function userWithdraw(uint256 amount) external {... */\n    tag_28:\n        /* \"study_way/src/6day_tokenBank.sol\":1904:1905  0 */\n      0x00\n        /* \"study_way/src/6day_tokenBank.sol\":1895:1901  amount */\n      dup2\n        /* \"study_way/src/6day_tokenBank.sol\":1895:1905  amount > 0 */\n      gt\n        /* \"study_way/src/6day_tokenBank.sol\":1887:1939  require(amount > 0, \"Amount must be greater than 0\") */\n      tag_57\n      jumpi\n      mload(0x40)\n      0x08c379a000000000000000000000000000000000000000000000000000000000\n      dup2\n      mstore\n      0x04\n      add\n      tag_58\n      swap1\n      tag_59\n      jump\t// in\n    tag_58:\n      mload(0x40)\n      dup1\n      swap2\n      sub\n      swap1\n      revert\n    tag_57:\n        /* \"study_way/src/6day_tokenBank.sol\":1981:1987  amount */\n      dup1\n        /* \"study_way/src/6day_tokenBank.sol\":1957:1965  balances */\n      0x02\n        /* \"study_way/src/6day_tokenBank.sol\":1957:1977  balances[msg.sender] */\n      0x00\n        /* \"study_way/src/6day_tokenBank.sol\":1966:1976  msg.sender */\n      caller\n        /* \"study_way/src/6day_tokenBank.sol\":1957:1977  balances[msg.sender] */\n      0xffffffffffffffffffffffffffffffffffffffff\n      and\n      0xffffffffffffffffffffffffffffffffffffffff\n      and\n      dup2\n      mstore\n      0x20\n      add\n      swap1\n      dup2\n      mstore\n      0x20\n      add\n      0x00\n      keccak256\n      sload\n        /* \"study_way/src/6day_tokenBank.sol\":1957:1987  balances[msg.sender] >= amount */\n      lt\n      iszero\n        /* \"study_way/src/6day_tokenBank.sol\":1949:2012  require(balances[msg.sender] >= amount, \"Insufficient balance\") */\n      tag_60\n      jumpi\n      mload(0x40)\n      0x08c379a000000000000000000000000000000000000000000000000000000000\n      dup2\n      mstore\n      0x04\n      add\n      tag_61\n      swap1\n      tag_62\n      jump\t// in\n    tag_61:\n      mload(0x40)\n      dup1\n      swap2\n      sub\n      swap1\n      revert\n    tag_60:\n        /* \"study_way/src/6day_tokenBank.sol\":2092:2098  amount */\n      dup1\n        /* \"study_way/src/6day_tokenBank.sol\":2068:2076  balances */\n      0x02\n        /* \"study_way/src/6day_tokenBank.sol\":2068:2088  balances[msg.sender] */\n      0x00\n        /* \"study_way/src/6day_tokenBank.sol\":2077:2087  msg.sender */\n      caller\n        /* \"study_way/src/6day_tokenBank.sol\":2068:2088  balances[msg.sender] */\n      0xffffffffffffffffffffffffffffffffffffffff\n      and\n      0xffffffffffffffffffffffffffffffffffffffff\n      and\n      dup2\n      mstore\n      0x20\n      add\n      swap1\n      dup2\n      mstore\n      0x20\n      add\n      0x00\n      keccak256\n      0x00\n        /* \"study_way/src/6day_tokenBank.sol\":2068:2098  balances[msg.sender] -= amount */\n      dup3\n      dup3\n      sload\n      tag_63\n      swap2\n      swap1\n      tag_64\n      jump\t// in\n    tag_63:\n      swap3\n      pop\n      pop\n      dup2\n      swap1\n      sstore\n      pop\n        /* \"study_way/src/6day_tokenBank.sol\":2109:2121  bool success */\n      0x00\n        /* \"study_way/src/6day_tokenBank.sol\":2124:2129  token */\n      dup1\n      0x00\n      swap1\n      sload\n      swap1\n      0x0100\n      exp\n      swap1\n      div\n      0xffffffffffffffffffffffffffffffffffffffff\n      and\n        /* \"study_way/src/6day_tokenBank.sol\":2124:2138  token.transfer */\n      0xffffffffffffffffffffffffffffffffffffffff\n      and\n      0xa9059cbb\n        /* \"study_way/src/6day_tokenBank.sol\":2139:2149  msg.sender */\n      caller\n        /* \"study_way/src/6day_tokenBank.sol\":2151:2157  amount */\n      dup5\n        /* \"study_way/src/6day_tokenBank.sol\":2124:2158  token.transfer(msg.sender, amount) */\n      mload(0x40)\n      dup4\n      0xffffffff\n      and\n      0xe0\n      shl\n      dup2\n      mstore\n      0x04\n      add\n      tag_65\n      swap3\n      swap2\n      swap1\n      tag_66\n      jump\t// in\n    tag_65:\n      0x20\n      mload(0x40)\n      dup1\n      dup4\n      sub\n      dup2\n      0x00\n      dup8\n      gas\n      call\n      iszero\n      dup1\n      iszero\n      tag_68\n      jumpi\n      returndatasize\n      0x00\n      dup1\n      returndatacopy\n      revert(0x00, returndatasize)\n    tag_68:\n      pop\n      pop\n      pop\n      pop\n      mload(0x40)\n      returndatasize\n      not(0x1f)\n      0x1f\n      dup3\n      add\n      and\n      dup3\n      add\n      dup1\n      0x40\n      mstore\n      pop\n      dup2\n      add\n      swap1\n      tag_69\n      swap2\n      swap1\n      tag_70\n      jump\t// in\n    tag_69:\n        /* \"study_way/src/6day_tokenBank.sol\":2109:2158  bool success = token.transfer(msg.sender, amount) */\n      swap1\n      pop\n        /* \"study_way/src/6day_tokenBank.sol\":2176:2183  success */\n      dup1\n        /* \"study_way/src/6day_tokenBank.sol\":2168:2203  require(success, \"Transfer failed\") */\n      tag_71\n      jumpi\n      mload(0x40)\n      0x08c379a000000000000000000000000000000000000000000000000000000000\n      dup2\n      mstore\n      0x04\n      add\n      tag_72\n      swap1\n      tag_73\n      jump\t// in\n    tag_72:\n      mload(0x40)\n      dup1\n      swap2\n      sub\n      swap1\n      revert\n    tag_71:\n        /* \"study_way/src/6day_tokenBank.sol\":2233:2243  msg.sender */\n      caller\n        /* \"study_way/src/6day_tokenBank.sol\":2219:2252  UserWithdrawn(msg.sender, amount) */\n      0xffffffffffffffffffffffffffffffffffffffff\n      and\n      0xe6b386172074b393dc04ed6cb1a352475ffad5dd8cebc76231a3b683141ea6fb\n        /* \"study_way/src/6day_tokenBank.sol\":2245:2251  amount */\n      dup4\n        /* \"study_way/src/6day_tokenBank.sol\":2219:2252  UserWithdrawn(msg.sender, amount) */\n      mload(0x40)\n      tag_74\n      swap2\n      swap1\n      tag_24\n      jump\t// in\n    tag_74:\n      mload(0x40)\n      dup1\n      swap2\n      sub\n      swap1\n      log2\n        /* \"study_way/src/6day_tokenBank.sol\":1877:2259  {... */\n      pop\n        /* \"study_way/src/6day_tokenBank.sol\":1830:2259  function userWithdraw(uint256 amount) external {... */\n      pop\n      jump\t// out\n        /* \"study_way/src/6day_tokenBank.sol\":2300:2771  function withdraw() external {... */\n    tag_30:\n        /* \"study_way/src/6day_tokenBank.sol\":2361:2366  admin */\n      0x01\n      0x00\n      swap1\n      sload\n      swap1\n      0x0100\n      exp\n      swap1\n      div\n      0xffffffffffffffffffffffffffffffffffffffff\n      and\n        /* \"study_way/src/6day_tokenBank.sol\":2347:2366  msg.sender == admin */\n      0xffffffffffffffffffffffffffffffffffffffff\n      and\n        /* \"study_way/src/6day_tokenBank.sol\":2347:2357  msg.sender */\n      caller\n        /* \"study_way/src/6day_tokenBank.sol\":2347:2366  msg.sender == admin */\n      0xffffffffffffffffffffffffffffffffffffffff\n      and\n      eq\n        /* \"study_way/src/6day_tokenBank.sol\":2339:2394  require(msg.sender == admin, \"Only admin can withdraw\") */\n      tag_76\n      jumpi\n      mload(0x40)\n      0x08c379a000000000000000000000000000000000000000000000000000000000\n      dup2\n      mstore\n      0x04\n      add\n      tag_77\n      swap1\n      tag_78\n      jump\t// in\n    tag_77:\n      mload(0x40)\n      dup1\n      swap2\n      sub\n      swap1\n      revert\n    tag_76:\n        /* \"study_way/src/6day_tokenBank.sol\":2440:2460  uint256 totalBalance */\n      0x00\n        /* \"study_way/src/6day_tokenBank.sol\":2463:2468  token */\n      dup1\n      0x00\n      swap1\n      sload\n      swap1\n      0x0100\n      exp\n      swap1\n      div\n      0xffffffffffffffffffffffffffffffffffffffff\n      and\n        /* \"study_way/src/6day_tokenBank.sol\":2463:2478  token.balanceOf */\n      0xffffffffffffffffffffffffffffffffffffffff\n      and\n      0x70a08231\n        /* \"study_way/src/6day_tokenBank.sol\":2487:2491  this */\n      address\n        /* \"study_way/src/6day_tokenBank.sol\":2463:2493  token.balanceOf(address(this)) */\n      mload(0x40)\n      dup3\n      0xffffffff\n      and\n      0xe0\n      shl\n      dup2\n      mstore\n      0x04\n      add\n      tag_79\n      swap2\n      swap1\n      tag_44\n      jump\t// in\n    tag_79:\n      0x20\n      mload(0x40)\n      dup1\n      dup4\n      sub\n      dup2\n      dup7\n      gas\n      staticcall\n      iszero\n      dup1\n      iszero\n      tag_81\n      jumpi\n      returndatasize\n      0x00\n      dup1\n      returndatacopy\n      revert(0x00, returndatasize)\n    tag_81:\n      pop\n      pop\n      pop\n      pop\n      mload(0x40)\n      returndatasize\n      not(0x1f)\n      0x1f\n      dup3\n      add\n      and\n      dup3\n      add\n      dup1\n      0x40\n      mstore\n      pop\n      dup2\n      add\n      swap1\n      tag_82\n      swap2\n      swap1\n      tag_83\n      jump\t// in\n    tag_82:\n        /* \"study_way/src/6day_tokenBank.sol\":2440:2493  uint256 totalBalance = token.balanceOf(address(this)) */\n      swap1\n      pop\n        /* \"study_way/src/6day_tokenBank.sol\":2526:2527  0 */\n      0x00\n        /* \"study_way/src/6day_tokenBank.sol\":2511:2523  totalBalance */\n      dup2\n        /* \"study_way/src/6day_tokenBank.sol\":2511:2527  totalBalance > 0 */\n      gt\n        /* \"study_way/src/6day_tokenBank.sol\":2503:2553  require(totalBalance > 0, \"No tokens to withdraw\") */\n      tag_84\n      jumpi\n      mload(0x40)\n      0x08c379a000000000000000000000000000000000000000000000000000000000\n      dup2\n      mstore\n      0x04\n      add\n      tag_85\n      swap1\n      tag_86\n      jump\t// in\n    tag_85:\n      mload(0x40)\n      dup1\n      swap2\n      sub\n      swap1\n      revert\n    tag_84:\n        /* \"study_way/src/6day_tokenBank.sol\":2621:2633  bool success */\n      0x00\n        /* \"study_way/src/6day_tokenBank.sol\":2636:2641  token */\n      dup1\n      0x00\n      swap1\n      sload\n      swap1\n      0x0100\n      exp\n      swap1\n      div\n      0xffffffffffffffffffffffffffffffffffffffff\n      and\n        /* \"study_way/src/6day_tokenBank.sol\":2636:2650  token.transfer */\n      0xffffffffffffffffffffffffffffffffffffffff\n      and\n      0xa9059cbb\n        /* \"study_way/src/6day_tokenBank.sol\":2651:2656  admin */\n      0x01\n      0x00\n      swap1\n      sload\n      swap1\n      0x0100\n      exp\n      swap1\n      div\n      0xffffffffffffffffffffffffffffffffffffffff\n      and\n        /* \"study_way/src/6day_tokenBank.sol\":2658:2670  totalBalance */\n      dup5\n        /* \"study_way/src/6day_tokenBank.sol\":2636:2671  token.transfer(admin, totalBalance) */\n      mload(0x40)\n      dup4\n      0xffffffff\n      and\n      0xe0\n      shl\n      dup2\n      mstore\n      0x04\n      add\n      tag_87\n      swap3\n      swap2\n      swap1\n      tag_66\n      jump\t// in\n    tag_87:\n      0x20\n      mload(0x40)\n      dup1\n      dup4\n      sub\n      dup2\n      0x00\n      dup8\n      gas\n      call\n      iszero\n      dup1\n      iszero\n      tag_89\n      jumpi\n      returndatasize\n      0x00\n      dup1\n      returndatacopy\n      revert(0x00, returndatasize)\n    tag_89:\n      pop\n      pop\n      pop\n      pop\n      mload(0x40)\n      returndatasize\n      not(0x1f)\n      0x1f\n      dup3\n      add\n      and\n      dup3\n      add\n      dup1\n      0x40\n      mstore\n      pop\n      dup2\n      add\n      swap1\n      tag_90\n      swap2\n      swap1\n      tag_70\n      jump\t// in\n    tag_90:\n        /* \"study_way/src/6day_tokenBank.sol\":2621:2671  bool success = token.transfer(admin, totalBalance) */\n      swap1\n      pop\n        /* \"study_way/src/6day_tokenBank.sol\":2689:2696  success */\n      dup1\n        /* \"study_way/src/6day_tokenBank.sol\":2681:2718  require(success, \"Withdrawal failed\") */\n      tag_91\n      jumpi\n      mload(0x40)\n      0x08c379a000000000000000000000000000000000000000000000000000000000\n      dup2\n      mstore\n      0x04\n      add\n      tag_92\n      swap1\n      tag_93\n      jump\t// in\n    tag_92:\n      mload(0x40)\n      dup1\n      swap2\n      sub\n      swap1\n      revert\n    tag_91:\n        /* \"study_way/src/6day_tokenBank.sol\":2744:2749  admin */\n      0x01\n      0x00\n      swap1\n      sload\n      swap1\n      0x0100\n      exp\n      swap1\n      div\n      0xffffffffffffffffffffffffffffffffffffffff\n      and\n        /* \"study_way/src/6day_tokenBank.sol\":2734:2764  Withdrawn(admin, totalBalance) */\n      0xffffffffffffffffffffffffffffffffffffffff\n      and\n      0x7084f5476618d8e60b11ef0d7d3f06914655adb8793e28ff7f018d4c76d505d5\n        /* \"study_way/src/6day_tokenBank.sol\":2751:2763  totalBalance */\n      dup4\n        /* \"study_way/src/6day_tokenBank.sol\":2734:2764  Withdrawn(admin, totalBalance) */\n      mload(0x40)\n      tag_94\n      swap2\n      swap1\n      tag_24\n      jump\t// in\n    tag_94:\n      mload(0x40)\n      dup1\n      swap2\n      sub\n      swap1\n      log2\n        /* \"study_way/src/6day_tokenBank.sol\":2329:2771  {... */\n      pop\n      pop\n        /* \"study_way/src/6day_tokenBank.sol\":2300:2771  function withdraw() external {... */\n      jump\t// out\n        /* \"study_way/src/6day_tokenBank.sol\":2988:3098  function getDepositRecord(address user) external view returns (uint256) {... */\n    tag_33:\n        /* \"study_way/src/6day_tokenBank.sol\":3051:3058  uint256 */\n      0x00\n        /* \"study_way/src/6day_tokenBank.sol\":3077:3085  balances */\n      0x02\n        /* \"study_way/src/6day_tokenBank.sol\":3077:3091  balances[user] */\n      0x00\n        /* \"study_way/src/6day_tokenBank.sol\":3086:3090  user */\n      dup4\n        /* \"study_way/src/6day_tokenBank.sol\":3077:3091  balances[user] */\n      0xffffffffffffffffffffffffffffffffffffffff\n      and\n      0xffffffffffffffffffffffffffffffffffffffff\n      and\n      dup2\n      mstore\n      0x20\n      add\n      swap1\n      dup2\n      mstore\n      0x20\n      add\n      0x00\n      keccak256\n      sload\n        /* \"study_way/src/6day_tokenBank.sol\":3070:3091  return balances[user] */\n      swap1\n      pop\n        /* \"study_way/src/6day_tokenBank.sol\":2988:3098  function getDepositRecord(address user) external view returns (uint256) {... */\n      swap2\n      swap1\n      pop\n      jump\t// out\n        /* \"study_way/src/6day_tokenBank.sol\":2824:2936  function getBankBalance() external view returns (uint256) {... */\n    tag_36:\n        /* \"study_way/src/6day_tokenBank.sol\":2873:2880  uint256 */\n      0x00\n        /* \"study_way/src/6day_tokenBank.sol\":2899:2904  token */\n      dup1\n      0x00\n      swap1\n      sload\n      swap1\n      0x0100\n      exp\n      swap1\n      div\n      0xffffffffffffffffffffffffffffffffffffffff\n      and\n        /* \"study_way/src/6day_tokenBank.sol\":2899:2914  token.balanceOf */\n      0xffffffffffffffffffffffffffffffffffffffff\n      and\n      0x70a08231\n        /* \"study_way/src/6day_tokenBank.sol\":2923:2927  this */\n      address\n        /* \"study_way/src/6day_tokenBank.sol\":2899:2929  token.balanceOf(address(this)) */\n      mload(0x40)\n      dup3\n      0xffffffff\n      and\n      0xe0\n      shl\n      dup2\n      mstore\n      0x04\n      add\n      tag_97\n      swap2\n      swap1\n      tag_44\n      jump\t// in\n    tag_97:\n      0x20\n      mload(0x40)\n      dup1\n      dup4\n      sub\n      dup2\n      dup7\n      gas\n      staticcall\n      iszero\n      dup1\n      iszero\n      tag_99\n      jumpi\n      returndatasize\n      0x00\n      dup1\n      returndatacopy\n      revert(0x00, returndatasize)\n    tag_99:\n      pop\n      pop\n      pop\n      pop\n      mload(0x40)\n      returndatasize\n      not(0x1f)\n      0x1f\n      dup3\n      add\n      and\n      dup3\n      add\n      dup1\n      0x40\n      mstore\n      pop\n      dup2\n      add\n      swap1\n      tag_100\n      swap2\n      swap1\n      tag_83\n      jump\t// in\n    tag_100:\n        /* \"study_way/src/6day_tokenBank.sol\":2892:2929  return token.balanceOf(address(this)) */\n      swap1\n      pop\n        /* \"study_way/src/6day_tokenBank.sol\":2824:2936  function getBankBalance() external view returns (uint256) {... */\n      swap1\n      jump\t// out\n        /* \"study_way/src/6day_tokenBank.sol\":1144:1792  function deposit(uint256 amount) external {... */\n    tag_40:\n        /* \"study_way/src/6day_tokenBank.sol\":1527:1539  bool success */\n      0x00\n        /* \"study_way/src/6day_tokenBank.sol\":1542:1547  token */\n      dup1\n      0x00\n      swap1\n      sload\n      swap1\n      0x0100\n      exp\n      swap1\n      div\n      0xffffffffffffffffffffffffffffffffffffffff\n      and\n        /* \"study_way/src/6day_tokenBank.sol\":1542:1560  token.transferFrom */\n      0xffffffffffffffffffffffffffffffffffffffff\n      and\n      0x23b872dd\n        /* \"study_way/src/6day_tokenBank.sol\":1561:1571  msg.sender */\n      caller\n        /* \"study_way/src/6day_tokenBank.sol\":1581:1585  this */\n      address\n        /* \"study_way/src/6day_tokenBank.sol\":1588:1594  amount */\n      dup6\n        /* \"study_way/src/6day_tokenBank.sol\":1542:1595  token.transferFrom(msg.sender, address(this), amount) */\n      mload(0x40)\n      dup5\n      0xffffffff\n      and\n      0xe0\n      shl\n      dup2\n      mstore\n      0x04\n      add\n      tag_102\n      swap4\n      swap3\n      swap2\n      swap1\n      tag_103\n      jump\t// in\n    tag_102:\n      0x20\n      mload(0x40)\n      dup1\n      dup4\n      sub\n      dup2\n      0x00\n      dup8\n      gas\n      call\n      iszero\n      dup1\n      iszero\n      tag_105\n      jumpi\n      returndatasize\n      0x00\n      dup1\n      returndatacopy\n      revert(0x00, returndatasize)\n    tag_105:\n      pop\n      pop\n      pop\n      pop\n      mload(0x40)\n      returndatasize\n      not(0x1f)\n      0x1f\n      dup3\n      add\n      and\n      dup3\n      add\n      dup1\n      0x40\n      mstore\n      pop\n      dup2\n      add\n      swap1\n      tag_106\n      swap2\n      swap1\n      tag_70\n      jump\t// in\n    tag_106:\n        /* \"study_way/src/6day_tokenBank.sol\":1527:1595  bool success = token.transferFrom(msg.sender, address(this), amount) */\n      swap1\n      pop\n        /* \"study_way/src/6day_tokenBank.sol\":1613:1620  success */\n      dup1\n        /* \"study_way/src/6day_tokenBank.sol\":1605:1640  require(success, \"Transfer failed\") */\n      tag_107\n      jumpi\n      mload(0x40)\n      0x08c379a000000000000000000000000000000000000000000000000000000000\n      dup2\n      mstore\n      0x04\n      add\n      tag_108\n      swap1\n      tag_73\n      jump\t// in\n    tag_108:\n      mload(0x40)\n      dup1\n      swap2\n      sub\n      swap1\n      revert\n    tag_107:\n        /* \"study_way/src/6day_tokenBank.sol\":1719:1725  amount */\n      dup2\n        /* \"study_way/src/6day_tokenBank.sol\":1695:1703  balances */\n      0x02\n        /* \"study_way/src/6day_tokenBank.sol\":1695:1715  balances[msg.sender] */\n      0x00\n        /* \"study_way/src/6day_tokenBank.sol\":1704:1714  msg.sender */\n      caller\n        /* \"study_way/src/6day_tokenBank.sol\":1695:1715  balances[msg.sender] */\n      0xffffffffffffffffffffffffffffffffffffffff\n      and\n      0xffffffffffffffffffffffffffffffffffffffff\n      and\n      dup2\n      mstore\n      0x20\n      add\n      swap1\n      dup2\n      mstore\n      0x20\n      add\n      0x00\n      keccak256\n      0x00\n        /* \"study_way/src/6day_tokenBank.sol\":1695:1725  balances[msg.sender] += amount */\n      dup3\n      dup3\n      sload\n      tag_109\n      swap2\n      swap1\n      tag_54\n      jump\t// in\n    tag_109:\n      swap3\n      pop\n      pop\n      dup2\n      swap1\n      sstore\n      pop\n        /* \"study_way/src/6day_tokenBank.sol\":1771:1775  this */\n      address\n        /* \"study_way/src/6day_tokenBank.sol\":1741:1785  Deposited(msg.sender, address(this), amount) */\n      0xffffffffffffffffffffffffffffffffffffffff\n      and\n        /* \"study_way/src/6day_tokenBank.sol\":1751:1761  msg.sender */\n      caller\n        /* \"study_way/src/6day_tokenBank.sol\":1741:1785  Deposited(msg.sender, address(this), amount) */\n      0xffffffffffffffffffffffffffffffffffffffff\n      and\n      0x8752a472e571a816aea92eec8dae9baf628e840f4929fbcc2d155e6233ff68a7\n        /* \"study_way/src/6day_tokenBank.sol\":1778:1784  amount */\n      dup5\n        /* \"study_way/src/6day_tokenBank.sol\":1741:1785  Deposited(msg.sender, address(this), amount) */\n      mload(0x40)\n      tag_110\n      swap2\n      swap1\n      tag_24\n      jump\t// in\n    tag_110:\n      mload(0x40)\n      dup1\n      swap2\n      sub\n      swap1\n      log3\n        /* \"study_way/src/6day_tokenBank.sol\":1186:1792  {... */\n      pop\n        /* \"study_way/src/6day_tokenBank.sol\":1144:1792  function deposit(uint256 amount) external {... */\n      pop\n      jump\t// out\n        /* \"study_way/src/6day_tokenBank.sol\":354:374  address public admin */\n    tag_42:\n      0x01\n      0x00\n      swap1\n      sload\n      swap1\n      0x0100\n      exp\n      swap1\n      div\n      0xffffffffffffffffffffffffffffffffffffffff\n      and\n      dup2\n      jump\t// out\n        /* \"study_way/src/6day_tokenBank.sol\":302:324  BaseERC20 public token */\n    tag_46:\n      0x00\n      dup1\n      sload\n      swap1\n      0x0100\n      exp\n      swap1\n      div\n      0xffffffffffffffffffffffffffffffffffffffff\n      and\n      dup2\n      jump\t// out\n        /* \"#utility.yul\":88:205   */\n    tag_112:\n        /* \"#utility.yul\":197:198   */\n      0x00\n        /* \"#utility.yul\":194:195   */\n      dup1\n        /* \"#utility.yul\":187:199   */\n      revert\n        /* \"#utility.yul\":334:460   */\n    tag_114:\n        /* \"#utility.yul\":371:378   */\n      0x00\n        /* \"#utility.yul\":411:453   */\n      0xffffffffffffffffffffffffffffffffffffffff\n        /* \"#utility.yul\":404:409   */\n      dup3\n        /* \"#utility.yul\":400:454   */\n      and\n        /* \"#utility.yul\":389:454   */\n      swap1\n      pop\n        /* \"#utility.yul\":334:460   */\n      swap2\n      swap1\n      pop\n      jump\t// out\n        /* \"#utility.yul\":466:562   */\n    tag_115:\n        /* \"#utility.yul\":503:510   */\n      0x00\n        /* \"#utility.yul\":532:556   */\n      tag_156\n        /* \"#utility.yul\":550:555   */\n      dup3\n        /* \"#utility.yul\":532:556   */\n      tag_114\n      jump\t// in\n    tag_156:\n        /* \"#utility.yul\":521:556   */\n      swap1\n      pop\n        /* \"#utility.yul\":466:562   */\n      swap2\n      swap1\n      pop\n      jump\t// out\n        /* \"#utility.yul\":568:690   */\n    tag_116:\n        /* \"#utility.yul\":641:665   */\n      tag_158\n        /* \"#utility.yul\":659:664   */\n      dup2\n        /* \"#utility.yul\":641:665   */\n      tag_115\n      jump\t// in\n    tag_158:\n        /* \"#utility.yul\":634:639   */\n      dup2\n        /* \"#utility.yul\":631:666   */\n      eq\n        /* \"#utility.yul\":621:684   */\n      tag_159\n      jumpi\n        /* \"#utility.yul\":680:681   */\n      0x00\n        /* \"#utility.yul\":677:678   */\n      dup1\n        /* \"#utility.yul\":670:682   */\n      revert\n        /* \"#utility.yul\":621:684   */\n    tag_159:\n        /* \"#utility.yul\":568:690   */\n      pop\n      jump\t// out\n        /* \"#utility.yul\":696:835   */\n    tag_117:\n        /* \"#utility.yul\":742:747   */\n      0x00\n        /* \"#utility.yul\":780:786   */\n      dup2\n        /* \"#utility.yul\":767:787   */\n      calldataload\n        /* \"#utility.yul\":758:787   */\n      swap1\n      pop\n        /* \"#utility.yul\":796:829   */\n      tag_161\n        /* \"#utility.yul\":823:828   */\n      dup2\n        /* \"#utility.yul\":796:829   */\n      tag_116\n      jump\t// in\n    tag_161:\n        /* \"#utility.yul\":696:835   */\n      swap3\n      swap2\n      pop\n      pop\n      jump\t// out\n        /* \"#utility.yul\":841:918   */\n    tag_118:\n        /* \"#utility.yul\":878:885   */\n      0x00\n        /* \"#utility.yul\":907:912   */\n      dup2\n        /* \"#utility.yul\":896:912   */\n      swap1\n      pop\n        /* \"#utility.yul\":841:918   */\n      swap2\n      swap1\n      pop\n      jump\t// out\n        /* \"#utility.yul\":924:1046   */\n    tag_119:\n        /* \"#utility.yul\":997:1021   */\n      tag_164\n        /* \"#utility.yul\":1015:1020   */\n      dup2\n        /* \"#utility.yul\":997:1021   */\n      tag_118\n      jump\t// in\n    tag_164:\n        /* \"#utility.yul\":990:995   */\n      dup2\n        /* \"#utility.yul\":987:1022   */\n      eq\n        /* \"#utility.yul\":977:1040   */\n      tag_165\n      jumpi\n        /* \"#utility.yul\":1036:1037   */\n      0x00\n        /* \"#utility.yul\":1033:1034   */\n      dup1\n        /* \"#utility.yul\":1026:1038   */\n      revert\n        /* \"#utility.yul\":977:1040   */\n    tag_165:\n        /* \"#utility.yul\":924:1046   */\n      pop\n      jump\t// out\n        /* \"#utility.yul\":1052:1191   */\n    tag_120:\n        /* \"#utility.yul\":1098:1103   */\n      0x00\n        /* \"#utility.yul\":1136:1142   */\n      dup2\n        /* \"#utility.yul\":1123:1143   */\n      calldataload\n        /* \"#utility.yul\":1114:1143   */\n      swap1\n      pop\n        /* \"#utility.yul\":1152:1185   */\n      tag_167\n        /* \"#utility.yul\":1179:1184   */\n      dup2\n        /* \"#utility.yul\":1152:1185   */\n      tag_119\n      jump\t// in\n    tag_167:\n        /* \"#utility.yul\":1052:1191   */\n      swap3\n      swap2\n      pop\n      pop\n      jump\t// out\n        /* \"#utility.yul\":1197:1671   */\n    tag_15:\n        /* \"#utility.yul\":1265:1271   */\n      0x00\n        /* \"#utility.yul\":1273:1279   */\n      dup1\n        /* \"#utility.yul\":1322:1324   */\n      0x40\n        /* \"#utility.yul\":1310:1319   */\n      dup4\n        /* \"#utility.yul\":1301:1308   */\n      dup6\n        /* \"#utility.yul\":1297:1320   */\n      sub\n        /* \"#utility.yul\":1293:1325   */\n      slt\n        /* \"#utility.yul\":1290:1409   */\n      iszero\n      tag_169\n      jumpi\n        /* \"#utility.yul\":1328:1407   */\n      tag_170\n      tag_112\n      jump\t// in\n    tag_170:\n        /* \"#utility.yul\":1290:1409   */\n    tag_169:\n        /* \"#utility.yul\":1448:1449   */\n      0x00\n        /* \"#utility.yul\":1473:1526   */\n      tag_171\n        /* \"#utility.yul\":1518:1525   */\n      dup6\n        /* \"#utility.yul\":1509:1515   */\n      dup3\n        /* \"#utility.yul\":1498:1507   */\n      dup7\n        /* \"#utility.yul\":1494:1516   */\n      add\n        /* \"#utility.yul\":1473:1526   */\n      tag_117\n      jump\t// in\n    tag_171:\n        /* \"#utility.yul\":1463:1526   */\n      swap3\n      pop\n        /* \"#utility.yul\":1419:1536   */\n      pop\n        /* \"#utility.yul\":1575:1577   */\n      0x20\n        /* \"#utility.yul\":1601:1654   */\n      tag_172\n        /* \"#utility.yul\":1646:1653   */\n      dup6\n        /* \"#utility.yul\":1637:1643   */\n      dup3\n        /* \"#utility.yul\":1626:1635   */\n      dup7\n        /* \"#utility.yul\":1622:1644   */\n      add\n        /* \"#utility.yul\":1601:1654   */\n      tag_120\n      jump\t// in\n    tag_172:\n        /* \"#utility.yul\":1591:1654   */\n      swap2\n      pop\n        /* \"#utility.yul\":1546:1664   */\n      pop\n        /* \"#utility.yul\":1197:1671   */\n      swap3\n      pop\n      swap3\n      swap1\n      pop\n      jump\t// out\n        /* \"#utility.yul\":1677:1826   */\n    tag_121:\n        /* \"#utility.yul\":1713:1720   */\n      0x00\n        /* \"#utility.yul\":1753:1819   */\n      0xffffffff00000000000000000000000000000000000000000000000000000000\n        /* \"#utility.yul\":1746:1751   */\n      dup3\n        /* \"#utility.yul\":1742:1820   */\n      and\n        /* \"#utility.yul\":1731:1820   */\n      swap1\n      pop\n        /* \"#utility.yul\":1677:1826   */\n      swap2\n      swap1\n      pop\n      jump\t// out\n        /* \"#utility.yul\":1832:1947   */\n    tag_122:\n        /* \"#utility.yul\":1917:1940   */\n      tag_175\n        /* \"#utility.yul\":1934:1939   */\n      dup2\n        /* \"#utility.yul\":1917:1940   */\n      tag_121\n      jump\t// in\n    tag_175:\n        /* \"#utility.yul\":1912:1915   */\n      dup3\n        /* \"#utility.yul\":1905:1941   */\n      mstore\n        /* \"#utility.yul\":1832:1947   */\n      pop\n      pop\n      jump\t// out\n        /* \"#utility.yul\":1953:2171   */\n    tag_18:\n        /* \"#utility.yul\":2044:2048   */\n      0x00\n        /* \"#utility.yul\":2082:2084   */\n      0x20\n        /* \"#utility.yul\":2071:2080   */\n      dup3\n        /* \"#utility.yul\":2067:2085   */\n      add\n        /* \"#utility.yul\":2059:2085   */\n      swap1\n      pop\n        /* \"#utility.yul\":2095:2164   */\n      tag_177\n        /* \"#utility.yul\":2161:2162   */\n      0x00\n        /* \"#utility.yul\":2150:2159   */\n      dup4\n        /* \"#utility.yul\":2146:2163   */\n      add\n        /* \"#utility.yul\":2137:2143   */\n      dup5\n        /* \"#utility.yul\":2095:2164   */\n      tag_122\n      jump\t// in\n    tag_177:\n        /* \"#utility.yul\":1953:2171   */\n      swap3\n      swap2\n      pop\n      pop\n      jump\t// out\n        /* \"#utility.yul\":2177:2506   */\n    tag_21:\n        /* \"#utility.yul\":2236:2242   */\n      0x00\n        /* \"#utility.yul\":2285:2287   */\n      0x20\n        /* \"#utility.yul\":2273:2282   */\n      dup3\n        /* \"#utility.yul\":2264:2271   */\n      dup5\n        /* \"#utility.yul\":2260:2283   */\n      sub\n        /* \"#utility.yul\":2256:2288   */\n      slt\n        /* \"#utility.yul\":2253:2372   */\n      iszero\n      tag_179\n      jumpi\n        /* \"#utility.yul\":2291:2370   */\n      tag_180\n      tag_112\n      jump\t// in\n    tag_180:\n        /* \"#utility.yul\":2253:2372   */\n    tag_179:\n        /* \"#utility.yul\":2411:2412   */\n      0x00\n        /* \"#utility.yul\":2436:2489   */\n      tag_181\n        /* \"#utility.yul\":2481:2488   */\n      dup5\n        /* \"#utility.yul\":2472:2478   */\n      dup3\n        /* \"#utility.yul\":2461:2470   */\n      dup6\n        /* \"#utility.yul\":2457:2479   */\n      add\n        /* \"#utility.yul\":2436:2489   */\n      tag_117\n      jump\t// in\n    tag_181:\n        /* \"#utility.yul\":2426:2489   */\n      swap2\n      pop\n        /* \"#utility.yul\":2382:2499   */\n      pop\n        /* \"#utility.yul\":2177:2506   */\n      swap3\n      swap2\n      pop\n      pop\n      jump\t// out\n        /* \"#utility.yul\":2512:2630   */\n    tag_123:\n        /* \"#utility.yul\":2599:2623   */\n      tag_183\n        /* \"#utility.yul\":2617:2622   */\n      dup2\n        /* \"#utility.yul\":2599:2623   */\n      tag_118\n      jump\t// in\n    tag_183:\n        /* \"#utility.yul\":2594:2597   */\n      dup3\n        /* \"#utility.yul\":2587:2624   */\n      mstore\n        /* \"#utility.yul\":2512:2630   */\n      pop\n      pop\n      jump\t// out\n        /* \"#utility.yul\":2636:2858   */\n    tag_24:\n        /* \"#utility.yul\":2729:2733   */\n      0x00\n        /* \"#utility.yul\":2767:2769   */\n      0x20\n        /* \"#utility.yul\":2756:2765   */\n      dup3\n        /* \"#utility.yul\":2752:2770   */\n      add\n        /* \"#utility.yul\":2744:2770   */\n      swap1\n      pop\n        /* \"#utility.yul\":2780:2851   */\n      tag_185\n        /* \"#utility.yul\":2848:2849   */\n      0x00\n        /* \"#utility.yul\":2837:2846   */\n      dup4\n        /* \"#utility.yul\":2833:2850   */\n      add\n        /* \"#utility.yul\":2824:2830   */\n      dup5\n        /* \"#utility.yul\":2780:2851   */\n      tag_123\n      jump\t// in\n    tag_185:\n        /* \"#utility.yul\":2636:2858   */\n      swap3\n      swap2\n      pop\n      pop\n      jump\t// out\n        /* \"#utility.yul\":2864:3193   */\n    tag_27:\n        /* \"#utility.yul\":2923:2929   */\n      0x00\n        /* \"#utility.yul\":2972:2974   */\n      0x20\n        /* \"#utility.yul\":2960:2969   */\n      dup3\n        /* \"#utility.yul\":2951:2958   */\n      dup5\n        /* \"#utility.yul\":2947:2970   */\n      sub\n        /* \"#utility.yul\":2943:2975   */\n      slt\n        /* \"#utility.yul\":2940:3059   */\n      iszero\n      tag_187\n      jumpi\n        /* \"#utility.yul\":2978:3057   */\n      tag_188\n      tag_112\n      jump\t// in\n    tag_188:\n        /* \"#utility.yul\":2940:3059   */\n    tag_187:\n        /* \"#utility.yul\":3098:3099   */\n      0x00\n        /* \"#utility.yul\":3123:3176   */\n      tag_189\n        /* \"#utility.yul\":3168:3175   */\n      dup5\n        /* \"#utility.yul\":3159:3165   */\n      dup3\n        /* \"#utility.yul\":3148:3157   */\n      dup6\n        /* \"#utility.yul\":3144:3166   */\n      add\n        /* \"#utility.yul\":3123:3176   */\n      tag_120\n      jump\t// in\n    tag_189:\n        /* \"#utility.yul\":3113:3176   */\n      swap2\n      pop\n        /* \"#utility.yul\":3069:3186   */\n      pop\n        /* \"#utility.yul\":2864:3193   */\n      swap3\n      swap2\n      pop\n      pop\n      jump\t// out\n        /* \"#utility.yul\":3199:3317   */\n    tag_124:\n        /* \"#utility.yul\":3286:3310   */\n      tag_191\n        /* \"#utility.yul\":3304:3309   */\n      dup2\n        /* \"#utility.yul\":3286:3310   */\n      tag_115\n      jump\t// in\n    tag_191:\n        /* \"#utility.yul\":3281:3284   */\n      dup3\n        /* \"#utility.yul\":3274:3311   */\n      mstore\n        /* \"#utility.yul\":3199:3317   */\n      pop\n      pop\n      jump\t// out\n        /* \"#utility.yul\":3323:3545   */\n    tag_44:\n        /* \"#utility.yul\":3416:3420   */\n      0x00\n        /* \"#utility.yul\":3454:3456   */\n      0x20\n        /* \"#utility.yul\":3443:3452   */\n      dup3\n        /* \"#utility.yul\":3439:3457   */\n      add\n        /* \"#utility.yul\":3431:3457   */\n      swap1\n      pop\n        /* \"#utility.yul\":3467:3538   */\n      tag_193\n        /* \"#utility.yul\":3535:3536   */\n      0x00\n        /* \"#utility.yul\":3524:3533   */\n      dup4\n        /* \"#utility.yul\":3520:3537   */\n      add\n        /* \"#utility.yul\":3511:3517   */\n      dup5\n        /* \"#utility.yul\":3467:3538   */\n      tag_124\n      jump\t// in\n    tag_193:\n        /* \"#utility.yul\":3323:3545   */\n      swap3\n      swap2\n      pop\n      pop\n      jump\t// out\n        /* \"#utility.yul\":3551:3611   */\n    tag_125:\n        /* \"#utility.yul\":3579:3582   */\n      0x00\n        /* \"#utility.yul\":3600:3605   */\n      dup2\n        /* \"#utility.yul\":3593:3605   */\n      swap1\n      pop\n        /* \"#utility.yul\":3551:3611   */\n      swap2\n      swap1\n      pop\n      jump\t// out\n        /* \"#utility.yul\":3617:3759   */\n    tag_126:\n        /* \"#utility.yul\":3667:3676   */\n      0x00\n        /* \"#utility.yul\":3700:3753   */\n      tag_196\n        /* \"#utility.yul\":3718:3752   */\n      tag_197\n        /* \"#utility.yul\":3727:3751   */\n      tag_198\n        /* \"#utility.yul\":3745:3750   */\n      dup5\n        /* \"#utility.yul\":3727:3751   */\n      tag_114\n      jump\t// in\n    tag_198:\n        /* \"#utility.yul\":3718:3752   */\n      tag_125\n      jump\t// in\n    tag_197:\n        /* \"#utility.yul\":3700:3753   */\n      tag_114\n      jump\t// in\n    tag_196:\n        /* \"#utility.yul\":3687:3753   */\n      swap1\n      pop\n        /* \"#utility.yul\":3617:3759   */\n      swap2\n      swap1\n      pop\n      jump\t// out\n        /* \"#utility.yul\":3765:3891   */\n    tag_127:\n        /* \"#utility.yul\":3815:3824   */\n      0x00\n        /* \"#utility.yul\":3848:3885   */\n      tag_200\n        /* \"#utility.yul\":3879:3884   */\n      dup3\n        /* \"#utility.yul\":3848:3885   */\n      tag_126\n      jump\t// in\n    tag_200:\n        /* \"#utility.yul\":3835:3885   */\n      swap1\n      pop\n        /* \"#utility.yul\":3765:3891   */\n      swap2\n      swap1\n      pop\n      jump\t// out\n        /* \"#utility.yul\":3897:4040   */\n    tag_128:\n        /* \"#utility.yul\":3964:3973   */\n      0x00\n        /* \"#utility.yul\":3997:4034   */\n      tag_202\n        /* \"#utility.yul\":4028:4033   */\n      dup3\n        /* \"#utility.yul\":3997:4034   */\n      tag_127\n      jump\t// in\n    tag_202:\n        /* \"#utility.yul\":3984:4034   */\n      swap1\n      pop\n        /* \"#utility.yul\":3897:4040   */\n      swap2\n      swap1\n      pop\n      jump\t// out\n        /* \"#utility.yul\":4046:4211   */\n    tag_129:\n        /* \"#utility.yul\":4150:4204   */\n      tag_204\n        /* \"#utility.yul\":4198:4203   */\n      dup2\n        /* \"#utility.yul\":4150:4204   */\n      tag_128\n      jump\t// in\n    tag_204:\n        /* \"#utility.yul\":4145:4148   */\n      dup3\n        /* \"#utility.yul\":4138:4205   */\n      mstore\n        /* \"#utility.yul\":4046:4211   */\n      pop\n      pop\n      jump\t// out\n        /* \"#utility.yul\":4217:4473   */\n    tag_48:\n        /* \"#utility.yul\":4327:4331   */\n      0x00\n        /* \"#utility.yul\":4365:4367   */\n      0x20\n        /* \"#utility.yul\":4354:4363   */\n      dup3\n        /* \"#utility.yul\":4350:4368   */\n      add\n        /* \"#utility.yul\":4342:4368   */\n      swap1\n      pop\n        /* \"#utility.yul\":4378:4466   */\n      tag_206\n        /* \"#utility.yul\":4463:4464   */\n      0x00\n        /* \"#utility.yul\":4452:4461   */\n      dup4\n        /* \"#utility.yul\":4448:4465   */\n      add\n        /* \"#utility.yul\":4439:4445   */\n      dup5\n        /* \"#utility.yul\":4378:4466   */\n      tag_129\n      jump\t// in\n    tag_206:\n        /* \"#utility.yul\":4217:4473   */\n      swap3\n      swap2\n      pop\n      pop\n      jump\t// out\n        /* \"#utility.yul\":4479:4648   */\n    tag_130:\n        /* \"#utility.yul\":4563:4574   */\n      0x00\n        /* \"#utility.yul\":4597:4603   */\n      dup3\n        /* \"#utility.yul\":4592:4595   */\n      dup3\n        /* \"#utility.yul\":4585:4604   */\n      mstore\n        /* \"#utility.yul\":4637:4641   */\n      0x20\n        /* \"#utility.yul\":4632:4635   */\n      dup3\n        /* \"#utility.yul\":4628:4642   */\n      add\n        /* \"#utility.yul\":4613:4642   */\n      swap1\n      pop\n        /* \"#utility.yul\":4479:4648   */\n      swap3\n      swap2\n      pop\n      pop\n      jump\t// out\n        /* \"#utility.yul\":4654:4832   */\n    tag_131:\n        /* \"#utility.yul\":4794:4824   */\n      0x4f6e6c7920746f6b656e20636f6e74726163742063616e2063616c6c00000000\n        /* \"#utility.yul\":4790:4791   */\n      0x00\n        /* \"#utility.yul\":4782:4788   */\n      dup3\n        /* \"#utility.yul\":4778:4792   */\n      add\n        /* \"#utility.yul\":4771:4825   */\n      mstore\n        /* \"#utility.yul\":4654:4832   */\n      pop\n      jump\t// out\n        /* \"#utility.yul\":4838:5204   */\n    tag_132:\n        /* \"#utility.yul\":4980:4983   */\n      0x00\n        /* \"#utility.yul\":5001:5068   */\n      tag_210\n        /* \"#utility.yul\":5065:5067   */\n      0x1c\n        /* \"#utility.yul\":5060:5063   */\n      dup4\n        /* \"#utility.yul\":5001:5068   */\n      tag_130\n      jump\t// in\n    tag_210:\n        /* \"#utility.yul\":4994:5068   */\n      swap2\n      pop\n        /* \"#utility.yul\":5077:5170   */\n      tag_211\n        /* \"#utility.yul\":5166:5169   */\n      dup3\n        /* \"#utility.yul\":5077:5170   */\n      tag_131\n      jump\t// in\n    tag_211:\n        /* \"#utility.yul\":5195:5197   */\n      0x20\n        /* \"#utility.yul\":5190:5193   */\n      dup3\n        /* \"#utility.yul\":5186:5198   */\n      add\n        /* \"#utility.yul\":5179:5198   */\n      swap1\n      pop\n        /* \"#utility.yul\":4838:5204   */\n      swap2\n      swap1\n      pop\n      jump\t// out\n        /* \"#utility.yul\":5210:5629   */\n    tag_52:\n        /* \"#utility.yul\":5376:5380   */\n      0x00\n        /* \"#utility.yul\":5414:5416   */\n      0x20\n        /* \"#utility.yul\":5403:5412   */\n      dup3\n        /* \"#utility.yul\":5399:5417   */\n      add\n        /* \"#utility.yul\":5391:5417   */\n      swap1\n      pop\n        /* \"#utility.yul\":5463:5472   */\n      dup2\n        /* \"#utility.yul\":5457:5461   */\n      dup2\n        /* \"#utility.yul\":5453:5473   */\n      sub\n        /* \"#utility.yul\":5449:5450   */\n      0x00\n        /* \"#utility.yul\":5438:5447   */\n      dup4\n        /* \"#utility.yul\":5434:5451   */\n      add\n        /* \"#utility.yul\":5427:5474   */\n      mstore\n        /* \"#utility.yul\":5491:5622   */\n      tag_213\n        /* \"#utility.yul\":5617:5621   */\n      dup2\n        /* \"#utility.yul\":5491:5622   */\n      tag_132\n      jump\t// in\n    tag_213:\n        /* \"#utility.yul\":5483:5622   */\n      swap1\n      pop\n        /* \"#utility.yul\":5210:5629   */\n      swap2\n      swap1\n      pop\n      jump\t// out\n        /* \"#utility.yul\":5635:5815   */\n    tag_133:\n        /* \"#utility.yul\":5683:5760   */\n      0x4e487b7100000000000000000000000000000000000000000000000000000000\n        /* \"#utility.yul\":5680:5681   */\n      0x00\n        /* \"#utility.yul\":5673:5761   */\n      mstore\n        /* \"#utility.yul\":5780:5784   */\n      0x11\n        /* \"#utility.yul\":5777:5778   */\n      0x04\n        /* \"#utility.yul\":5770:5785   */\n      mstore\n        /* \"#utility.yul\":5804:5808   */\n      0x24\n        /* \"#utility.yul\":5801:5802   */\n      0x00\n        /* \"#utility.yul\":5794:5809   */\n      revert\n        /* \"#utility.yul\":5821:6012   */\n    tag_54:\n        /* \"#utility.yul\":5861:5864   */\n      0x00\n        /* \"#utility.yul\":5880:5900   */\n      tag_216\n        /* \"#utility.yul\":5898:5899   */\n      dup3\n        /* \"#utility.yul\":5880:5900   */\n      tag_118\n      jump\t// in\n    tag_216:\n        /* \"#utility.yul\":5875:5900   */\n      swap2\n      pop\n        /* \"#utility.yul\":5914:5934   */\n      tag_217\n        /* \"#utility.yul\":5932:5933   */\n      dup4\n        /* \"#utility.yul\":5914:5934   */\n      tag_118\n      jump\t// in\n    tag_217:\n        /* \"#utility.yul\":5909:5934   */\n      swap3\n      pop\n        /* \"#utility.yul\":5957:5958   */\n      dup3\n        /* \"#utility.yul\":5954:5955   */\n      dup3\n        /* \"#utility.yul\":5950:5959   */\n      add\n        /* \"#utility.yul\":5943:5959   */\n      swap1\n      pop\n        /* \"#utility.yul\":5978:5981   */\n      dup1\n        /* \"#utility.yul\":5975:5976   */\n      dup3\n        /* \"#utility.yul\":5972:5982   */\n      gt\n        /* \"#utility.yul\":5969:6005   */\n      iszero\n      tag_218\n      jumpi\n        /* \"#utility.yul\":5985:6003   */\n      tag_219\n      tag_133\n      jump\t// in\n    tag_219:\n        /* \"#utility.yul\":5969:6005   */\n    tag_218:\n        /* \"#utility.yul\":5821:6012   */\n      swap3\n      swap2\n      pop\n      pop\n      jump\t// out\n        /* \"#utility.yul\":6018:6197   */\n    tag_134:\n        /* \"#utility.yul\":6158:6189   */\n      0x416d6f756e74206d7573742062652067726561746572207468616e2030000000\n        /* \"#utility.yul\":6154:6155   */\n      0x00\n        /* \"#utility.yul\":6146:6152   */\n      dup3\n        /* \"#utility.yul\":6142:6156   */\n      add\n        /* \"#utility.yul\":6135:6190   */\n      mstore\n        /* \"#utility.yul\":6018:6197   */\n      pop\n      jump\t// out\n        /* \"#utility.yul\":6203:6569   */\n    tag_135:\n        /* \"#utility.yul\":6345:6348   */\n      0x00\n        /* \"#utility.yul\":6366:6433   */\n      tag_222\n        /* \"#utility.yul\":6430:6432   */\n      0x1d\n        /* \"#utility.yul\":6425:6428   */\n      dup4\n        /* \"#utility.yul\":6366:6433   */\n      tag_130\n      jump\t// in\n    tag_222:\n        /* \"#utility.yul\":6359:6433   */\n      swap2\n      pop\n        /* \"#utility.yul\":6442:6535   */\n      tag_223\n        /* \"#utility.yul\":6531:6534   */\n      dup3\n        /* \"#utility.yul\":6442:6535   */\n      tag_134\n      jump\t// in\n    tag_223:\n        /* \"#utility.yul\":6560:6562   */\n      0x20\n        /* \"#utility.yul\":6555:6558   */\n      dup3\n        /* \"#utility.yul\":6551:6563   */\n      add\n        /* \"#utility.yul\":6544:6563   */\n      swap1\n      pop\n        /* \"#utility.yul\":6203:6569   */\n      swap2\n      swap1\n      pop\n      jump\t// out\n        /* \"#utility.yul\":6575:6994   */\n    tag_59:\n        /* \"#utility.yul\":6741:6745   */\n      0x00\n        /* \"#utility.yul\":6779:6781   */\n      0x20\n        /* \"#utility.yul\":6768:6777   */\n      dup3\n        /* \"#utility.yul\":6764:6782   */\n      add\n        /* \"#utility.yul\":6756:6782   */\n      swap1\n      pop\n        /* \"#utility.yul\":6828:6837   */\n      dup2\n        /* \"#utility.yul\":6822:6826   */\n      dup2\n        /* \"#utility.yul\":6818:6838   */\n      sub\n        /* \"#utility.yul\":6814:6815   */\n      0x00\n        /* \"#utility.yul\":6803:6812   */\n      dup4\n        /* \"#utility.yul\":6799:6816   */\n      add\n        /* \"#utility.yul\":6792:6839   */\n      mstore\n        /* \"#utility.yul\":6856:6987   */\n      tag_225\n        /* \"#utility.yul\":6982:6986   */\n      dup2\n        /* \"#utility.yul\":6856:6987   */\n      tag_135\n      jump\t// in\n    tag_225:\n        /* \"#utility.yul\":6848:6987   */\n      swap1\n      pop\n        /* \"#utility.yul\":6575:6994   */\n      swap2\n      swap1\n      pop\n      jump\t// out\n        /* \"#utility.yul\":7000:7170   */\n    tag_136:\n        /* \"#utility.yul\":7140:7162   */\n      0x496e73756666696369656e742062616c616e6365000000000000000000000000\n        /* \"#utility.yul\":7136:7137   */\n      0x00\n        /* \"#utility.yul\":7128:7134   */\n      dup3\n        /* \"#utility.yul\":7124:7138   */\n      add\n        /* \"#utility.yul\":7117:7163   */\n      mstore\n        /* \"#utility.yul\":7000:7170   */\n      pop\n      jump\t// out\n        /* \"#utility.yul\":7176:7542   */\n    tag_137:\n        /* \"#utility.yul\":7318:7321   */\n      0x00\n        /* \"#utility.yul\":7339:7406   */\n      tag_228\n        /* \"#utility.yul\":7403:7405   */\n      0x14\n        /* \"#utility.yul\":7398:7401   */\n      dup4\n        /* \"#utility.yul\":7339:7406   */\n      tag_130\n      jump\t// in\n    tag_228:\n        /* \"#utility.yul\":7332:7406   */\n      swap2\n      pop\n        /* \"#utility.yul\":7415:7508   */\n      tag_229\n        /* \"#utility.yul\":7504:7507   */\n      dup3\n        /* \"#utility.yul\":7415:7508   */\n      tag_136\n      jump\t// in\n    tag_229:\n        /* \"#utility.yul\":7533:7535   */\n      0x20\n        /* \"#utility.yul\":7528:7531   */\n      dup3\n        /* \"#utility.yul\":7524:7536   */\n      add\n        /* \"#utility.yul\":7517:7536   */\n      swap1\n      pop\n        /* \"#utility.yul\":7176:7542   */\n      swap2\n      swap1\n      pop\n      jump\t// out\n        /* \"#utility.yul\":7548:7967   */\n    tag_62:\n        /* \"#utility.yul\":7714:7718   */\n      0x00\n        /* \"#utility.yul\":7752:7754   */\n      0x20\n        /* \"#utility.yul\":7741:7750   */\n      dup3\n        /* \"#utility.yul\":7737:7755   */\n      add\n        /* \"#utility.yul\":7729:7755   */\n      swap1\n      pop\n        /* \"#utility.yul\":7801:7810   */\n      dup2\n        /* \"#utility.yul\":7795:7799   */\n      dup2\n        /* \"#utility.yul\":7791:7811   */\n      sub\n        /* \"#utility.yul\":7787:7788   */\n      0x00\n        /* \"#utility.yul\":7776:7785   */\n      dup4\n        /* \"#utility.yul\":7772:7789   */\n      add\n        /* \"#utility.yul\":7765:7812   */\n      mstore\n        /* \"#utility.yul\":7829:7960   */\n      tag_231\n        /* \"#utility.yul\":7955:7959   */\n      dup2\n        /* \"#utility.yul\":7829:7960   */\n      tag_137\n      jump\t// in\n    tag_231:\n        /* \"#utility.yul\":7821:7960   */\n      swap1\n      pop\n        /* \"#utility.yul\":7548:7967   */\n      swap2\n      swap1\n      pop\n      jump\t// out\n        /* \"#utility.yul\":7973:8167   */\n    tag_64:\n        /* \"#utility.yul\":8013:8017   */\n      0x00\n        /* \"#utility.yul\":8033:8053   */\n      tag_233\n        /* \"#utility.yul\":8051:8052   */\n      dup3\n        /* \"#utility.yul\":8033:8053   */\n      tag_118\n      jump\t// in\n    tag_233:\n        /* \"#utility.yul\":8028:8053   */\n      swap2\n      pop\n        /* \"#utility.yul\":8067:8087   */\n      tag_234\n        /* \"#utility.yul\":8085:8086   */\n      dup4\n        /* \"#utility.yul\":8067:8087   */\n      tag_118\n      jump\t// in\n    tag_234:\n        /* \"#utility.yul\":8062:8087   */\n      swap3\n      pop\n        /* \"#utility.yul\":8111:8112   */\n      dup3\n        /* \"#utility.yul\":8108:8109   */\n      dup3\n        /* \"#utility.yul\":8104:8113   */\n      sub\n        /* \"#utility.yul\":8096:8113   */\n      swap1\n      pop\n        /* \"#utility.yul\":8135:8136   */\n      dup2\n        /* \"#utility.yul\":8129:8133   */\n      dup2\n        /* \"#utility.yul\":8126:8137   */\n      gt\n        /* \"#utility.yul\":8123:8160   */\n      iszero\n      tag_235\n      jumpi\n        /* \"#utility.yul\":8140:8158   */\n      tag_236\n      tag_133\n      jump\t// in\n    tag_236:\n        /* \"#utility.yul\":8123:8160   */\n    tag_235:\n        /* \"#utility.yul\":7973:8167   */\n      swap3\n      swap2\n      pop\n      pop\n      jump\t// out\n        /* \"#utility.yul\":8173:8505   */\n    tag_66:\n        /* \"#utility.yul\":8294:8298   */\n      0x00\n        /* \"#utility.yul\":8332:8334   */\n      0x40\n        /* \"#utility.yul\":8321:8330   */\n      dup3\n        /* \"#utility.yul\":8317:8335   */\n      add\n        /* \"#utility.yul\":8309:8335   */\n      swap1\n      pop\n        /* \"#utility.yul\":8345:8416   */\n      tag_238\n        /* \"#utility.yul\":8413:8414   */\n      0x00\n        /* \"#utility.yul\":8402:8411   */\n      dup4\n        /* \"#utility.yul\":8398:8415   */\n      add\n        /* \"#utility.yul\":8389:8395   */\n      dup6\n        /* \"#utility.yul\":8345:8416   */\n      tag_124\n      jump\t// in\n    tag_238:\n        /* \"#utility.yul\":8426:8498   */\n      tag_239\n        /* \"#utility.yul\":8494:8496   */\n      0x20\n        /* \"#utility.yul\":8483:8492   */\n      dup4\n        /* \"#utility.yul\":8479:8497   */\n      add\n        /* \"#utility.yul\":8470:8476   */\n      dup5\n        /* \"#utility.yul\":8426:8498   */\n      tag_123\n      jump\t// in\n    tag_239:\n        /* \"#utility.yul\":8173:8505   */\n      swap4\n      swap3\n      pop\n      pop\n      pop\n      jump\t// out\n        /* \"#utility.yul\":8511:8601   */\n    tag_138:\n        /* \"#utility.yul\":8545:8552   */\n      0x00\n        /* \"#utility.yul\":8588:8593   */\n      dup2\n        /* \"#utility.yul\":8581:8594   */\n      iszero\n        /* \"#utility.yul\":8574:8595   */\n      iszero\n        /* \"#utility.yul\":8563:8595   */\n      swap1\n      pop\n        /* \"#utility.yul\":8511:8601   */\n      swap2\n      swap1\n      pop\n      jump\t// out\n        /* \"#utility.yul\":8607:8723   */\n    tag_139:\n        /* \"#utility.yul\":8677:8698   */\n      tag_242\n        /* \"#utility.yul\":8692:8697   */\n      dup2\n        /* \"#utility.yul\":8677:8698   */\n      tag_138\n      jump\t// in\n    tag_242:\n        /* \"#utility.yul\":8670:8675   */\n      dup2\n        /* \"#utility.yul\":8667:8699   */\n      eq\n        /* \"#utility.yul\":8657:8717   */\n      tag_243\n      jumpi\n        /* \"#utility.yul\":8713:8714   */\n      0x00\n        /* \"#utility.yul\":8710:8711   */\n      dup1\n        /* \"#utility.yul\":8703:8715   */\n      revert\n        /* \"#utility.yul\":8657:8717   */\n    tag_243:\n        /* \"#utility.yul\":8607:8723   */\n      pop\n      jump\t// out\n        /* \"#utility.yul\":8729:8866   */\n    tag_140:\n        /* \"#utility.yul\":8783:8788   */\n      0x00\n        /* \"#utility.yul\":8814:8820   */\n      dup2\n        /* \"#utility.yul\":8808:8821   */\n      mload\n        /* \"#utility.yul\":8799:8821   */\n      swap1\n      pop\n        /* \"#utility.yul\":8830:8860   */\n      tag_245\n        /* \"#utility.yul\":8854:8859   */\n      dup2\n        /* \"#utility.yul\":8830:8860   */\n      tag_139\n      jump\t// in\n    tag_245:\n        /* \"#utility.yul\":8729:8866   */\n      swap3\n      swap2\n      pop\n      pop\n      jump\t// out\n        /* \"#utility.yul\":8872:9217   */\n    tag_70:\n        /* \"#utility.yul\":8939:8945   */\n      0x00\n        /* \"#utility.yul\":8988:8990   */\n      0x20\n        /* \"#utility.yul\":8976:8985   */\n      dup3\n        /* \"#utility.yul\":8967:8974   */\n      dup5\n        /* \"#utility.yul\":8963:8986   */\n      sub\n        /* \"#utility.yul\":8959:8991   */\n      slt\n        /* \"#utility.yul\":8956:9075   */\n      iszero\n      tag_247\n      jumpi\n        /* \"#utility.yul\":8994:9073   */\n      tag_248\n      tag_112\n      jump\t// in\n    tag_248:\n        /* \"#utility.yul\":8956:9075   */\n    tag_247:\n        /* \"#utility.yul\":9114:9115   */\n      0x00\n        /* \"#utility.yul\":9139:9200   */\n      tag_249\n        /* \"#utility.yul\":9192:9199   */\n      dup5\n        /* \"#utility.yul\":9183:9189   */\n      dup3\n        /* \"#utility.yul\":9172:9181   */\n      dup6\n        /* \"#utility.yul\":9168:9190   */\n      add\n        /* \"#utility.yul\":9139:9200   */\n      tag_140\n      jump\t// in\n    tag_249:\n        /* \"#utility.yul\":9129:9200   */\n      swap2\n      pop\n        /* \"#utility.yul\":9085:9210   */\n      pop\n        /* \"#utility.yul\":8872:9217   */\n      swap3\n      swap2\n      pop\n      pop\n      jump\t// out\n        /* \"#utility.yul\":9223:9388   */\n    tag_141:\n        /* \"#utility.yul\":9363:9380   */\n      0x5472616e73666572206661696c65640000000000000000000000000000000000\n        /* \"#utility.yul\":9359:9360   */\n      0x00\n        /* \"#utility.yul\":9351:9357   */\n      dup3\n        /* \"#utility.yul\":9347:9361   */\n      add\n        /* \"#utility.yul\":9340:9381   */\n      mstore\n        /* \"#utility.yul\":9223:9388   */\n      pop\n      jump\t// out\n        /* \"#utility.yul\":9394:9760   */\n    tag_142:\n        /* \"#utility.yul\":9536:9539   */\n      0x00\n        /* \"#utility.yul\":9557:9624   */\n      tag_252\n        /* \"#utility.yul\":9621:9623   */\n      0x0f\n        /* \"#utility.yul\":9616:9619   */\n      dup4\n        /* \"#utility.yul\":9557:9624   */\n      tag_130\n      jump\t// in\n    tag_252:\n        /* \"#utility.yul\":9550:9624   */\n      swap2\n      pop\n        /* \"#utility.yul\":9633:9726   */\n      tag_253\n        /* \"#utility.yul\":9722:9725   */\n      dup3\n        /* \"#utility.yul\":9633:9726   */\n      tag_141\n      jump\t// in\n    tag_253:\n        /* \"#utility.yul\":9751:9753   */\n      0x20\n        /* \"#utility.yul\":9746:9749   */\n      dup3\n        /* \"#utility.yul\":9742:9754   */\n      add\n        /* \"#utility.yul\":9735:9754   */\n      swap1\n      pop\n        /* \"#utility.yul\":9394:9760   */\n      swap2\n      swap1\n      pop\n      jump\t// out\n        /* \"#utility.yul\":9766:10185   */\n    tag_73:\n        /* \"#utility.yul\":9932:9936   */\n      0x00\n        /* \"#utility.yul\":9970:9972   */\n      0x20\n        /* \"#utility.yul\":9959:9968   */\n      dup3\n        /* \"#utility.yul\":9955:9973   */\n      add\n        /* \"#utility.yul\":9947:9973   */\n      swap1\n      pop\n        /* \"#utility.yul\":10019:10028   */\n      dup2\n        /* \"#utility.yul\":10013:10017   */\n      dup2\n        /* \"#utility.yul\":10009:10029   */\n      sub\n        /* \"#utility.yul\":10005:10006   */\n      0x00\n        /* \"#utility.yul\":9994:10003   */\n      dup4\n        /* \"#utility.yul\":9990:10007   */\n      add\n        /* \"#utility.yul\":9983:10030   */\n      mstore\n        /* \"#utility.yul\":10047:10178   */\n      tag_255\n        /* \"#utility.yul\":10173:10177   */\n      dup2\n        /* \"#utility.yul\":10047:10178   */\n      tag_142\n      jump\t// in\n    tag_255:\n        /* \"#utility.yul\":10039:10178   */\n      swap1\n      pop\n        /* \"#utility.yul\":9766:10185   */\n      swap2\n      swap1\n      pop\n      jump\t// out\n        /* \"#utility.yul\":10191:10364   */\n    tag_143:\n        /* \"#utility.yul\":10331:10356   */\n      0x4f6e6c792061646d696e2063616e207769746864726177000000000000000000\n        /* \"#utility.yul\":10327:10328   */\n      0x00\n        /* \"#utility.yul\":10319:10325   */\n      dup3\n        /* \"#utility.yul\":10315:10329   */\n      add\n        /* \"#utility.yul\":10308:10357   */\n      mstore\n        /* \"#utility.yul\":10191:10364   */\n      pop\n      jump\t// out\n        /* \"#utility.yul\":10370:10736   */\n    tag_144:\n        /* \"#utility.yul\":10512:10515   */\n      0x00\n        /* \"#utility.yul\":10533:10600   */\n      tag_258\n        /* \"#utility.yul\":10597:10599   */\n      0x17\n        /* \"#utility.yul\":10592:10595   */\n      dup4\n        /* \"#utility.yul\":10533:10600   */\n      tag_130\n      jump\t// in\n    tag_258:\n        /* \"#utility.yul\":10526:10600   */\n      swap2\n      pop\n        /* \"#utility.yul\":10609:10702   */\n      tag_259\n        /* \"#utility.yul\":10698:10701   */\n      dup3\n        /* \"#utility.yul\":10609:10702   */\n      tag_143\n      jump\t// in\n    tag_259:\n        /* \"#utility.yul\":10727:10729   */\n      0x20\n        /* \"#utility.yul\":10722:10725   */\n      dup3\n        /* \"#utility.yul\":10718:10730   */\n      add\n        /* \"#utility.yul\":10711:10730   */\n      swap1\n      pop\n        /* \"#utility.yul\":10370:10736   */\n      swap2\n      swap1\n      pop\n      jump\t// out\n        /* \"#utility.yul\":10742:11161   */\n    tag_78:\n        /* \"#utility.yul\":10908:10912   */\n      0x00\n        /* \"#utility.yul\":10946:10948   */\n      0x20\n        /* \"#utility.yul\":10935:10944   */\n      dup3\n        /* \"#utility.yul\":10931:10949   */\n      add\n        /* \"#utility.yul\":10923:10949   */\n      swap1\n      pop\n        /* \"#utility.yul\":10995:11004   */\n      dup2\n        /* \"#utility.yul\":10989:10993   */\n      dup2\n        /* \"#utility.yul\":10985:11005   */\n      sub\n        /* \"#utility.yul\":10981:10982   */\n      0x00\n        /* \"#utility.yul\":10970:10979   */\n      dup4\n        /* \"#utility.yul\":10966:10983   */\n      add\n        /* \"#utility.yul\":10959:11006   */\n      mstore\n        /* \"#utility.yul\":11023:11154   */\n      tag_261\n        /* \"#utility.yul\":11149:11153   */\n      dup2\n        /* \"#utility.yul\":11023:11154   */\n      tag_144\n      jump\t// in\n    tag_261:\n        /* \"#utility.yul\":11015:11154   */\n      swap1\n      pop\n        /* \"#utility.yul\":10742:11161   */\n      swap2\n      swap1\n      pop\n      jump\t// out\n        /* \"#utility.yul\":11167:11310   */\n    tag_145:\n        /* \"#utility.yul\":11224:11229   */\n      0x00\n        /* \"#utility.yul\":11255:11261   */\n      dup2\n        /* \"#utility.yul\":11249:11262   */\n      mload\n        /* \"#utility.yul\":11240:11262   */\n      swap1\n      pop\n        /* \"#utility.yul\":11271:11304   */\n      tag_263\n        /* \"#utility.yul\":11298:11303   */\n      dup2\n        /* \"#utility.yul\":11271:11304   */\n      tag_119\n      jump\t// in\n    tag_263:\n        /* \"#utility.yul\":11167:11310   */\n      swap3\n      swap2\n      pop\n      pop\n      jump\t// out\n        /* \"#utility.yul\":11316:11667   */\n    tag_83:\n        /* \"#utility.yul\":11386:11392   */\n      0x00\n        /* \"#utility.yul\":11435:11437   */\n      0x20\n        /* \"#utility.yul\":11423:11432   */\n      dup3\n        /* \"#utility.yul\":11414:11421   */\n      dup5\n        /* \"#utility.yul\":11410:11433   */\n      sub\n        /* \"#utility.yul\":11406:11438   */\n      slt\n        /* \"#utility.yul\":11403:11522   */\n      iszero\n      tag_265\n      jumpi\n        /* \"#utility.yul\":11441:11520   */\n      tag_266\n      tag_112\n      jump\t// in\n    tag_266:\n        /* \"#utility.yul\":11403:11522   */\n    tag_265:\n        /* \"#utility.yul\":11561:11562   */\n      0x00\n        /* \"#utility.yul\":11586:11650   */\n      tag_267\n        /* \"#utility.yul\":11642:11649   */\n      dup5\n        /* \"#utility.yul\":11633:11639   */\n      dup3\n        /* \"#utility.yul\":11622:11631   */\n      dup6\n        /* \"#utility.yul\":11618:11640   */\n      add\n        /* \"#utility.yul\":11586:11650   */\n      tag_145\n      jump\t// in\n    tag_267:\n        /* \"#utility.yul\":11576:11650   */\n      swap2\n      pop\n        /* \"#utility.yul\":11532:11660   */\n      pop\n        /* \"#utility.yul\":11316:11667   */\n      swap3\n      swap2\n      pop\n      pop\n      jump\t// out\n        /* \"#utility.yul\":11673:11844   */\n    tag_146:\n        /* \"#utility.yul\":11813:11836   */\n      0x4e6f20746f6b656e7320746f2077697468647261770000000000000000000000\n        /* \"#utility.yul\":11809:11810   */\n      0x00\n        /* \"#utility.yul\":11801:11807   */\n      dup3\n        /* \"#utility.yul\":11797:11811   */\n      add\n        /* \"#utility.yul\":11790:11837   */\n      mstore\n        /* \"#utility.yul\":11673:11844   */\n      pop\n      jump\t// out\n        /* \"#utility.yul\":11850:12216   */\n    tag_147:\n        /* \"#utility.yul\":11992:11995   */\n      0x00\n        /* \"#utility.yul\":12013:12080   */\n      tag_270\n        /* \"#utility.yul\":12077:12079   */\n      0x15\n        /* \"#utility.yul\":12072:12075   */\n      dup4\n        /* \"#utility.yul\":12013:12080   */\n      tag_130\n      jump\t// in\n    tag_270:\n        /* \"#utility.yul\":12006:12080   */\n      swap2\n      pop\n        /* \"#utility.yul\":12089:12182   */\n      tag_271\n        /* \"#utility.yul\":12178:12181   */\n      dup3\n        /* \"#utility.yul\":12089:12182   */\n      tag_146\n      jump\t// in\n    tag_271:\n        /* \"#utility.yul\":12207:12209   */\n      0x20\n        /* \"#utility.yul\":12202:12205   */\n      dup3\n        /* \"#utility.yul\":12198:12210   */\n      add\n        /* \"#utility.yul\":12191:12210   */\n      swap1\n      pop\n        /* \"#utility.yul\":11850:12216   */\n      swap2\n      swap1\n      pop\n      jump\t// out\n        /* \"#utility.yul\":12222:12641   */\n    tag_86:\n        /* \"#utility.yul\":12388:12392   */\n      0x00\n        /* \"#utility.yul\":12426:12428   */\n      0x20\n        /* \"#utility.yul\":12415:12424   */\n      dup3\n        /* \"#utility.yul\":12411:12429   */\n      add\n        /* \"#utility.yul\":12403:12429   */\n      swap1\n      pop\n        /* \"#utility.yul\":12475:12484   */\n      dup2\n        /* \"#utility.yul\":12469:12473   */\n      dup2\n        /* \"#utility.yul\":12465:12485   */\n      sub\n        /* \"#utility.yul\":12461:12462   */\n      0x00\n        /* \"#utility.yul\":12450:12459   */\n      dup4\n        /* \"#utility.yul\":12446:12463   */\n      add\n        /* \"#utility.yul\":12439:12486   */\n      mstore\n        /* \"#utility.yul\":12503:12634   */\n      tag_273\n        /* \"#utility.yul\":12629:12633   */\n      dup2\n        /* \"#utility.yul\":12503:12634   */\n      tag_147\n      jump\t// in\n    tag_273:\n        /* \"#utility.yul\":12495:12634   */\n      swap1\n      pop\n        /* \"#utility.yul\":12222:12641   */\n      swap2\n      swap1\n      pop\n      jump\t// out\n        /* \"#utility.yul\":12647:12814   */\n    tag_148:\n        /* \"#utility.yul\":12787:12806   */\n      0x5769746864726177616c206661696c6564000000000000000000000000000000\n        /* \"#utility.yul\":12783:12784   */\n      0x00\n        /* \"#utility.yul\":12775:12781   */\n      dup3\n        /* \"#utility.yul\":12771:12785   */\n      add\n        /* \"#utility.yul\":12764:12807   */\n      mstore\n        /* \"#utility.yul\":12647:12814   */\n      pop\n      jump\t// out\n        /* \"#utility.yul\":12820:13186   */\n    tag_149:\n        /* \"#utility.yul\":12962:12965   */\n      0x00\n        /* \"#utility.yul\":12983:13050   */\n      tag_276\n        /* \"#utility.yul\":13047:13049   */\n      0x11\n        /* \"#utility.yul\":13042:13045   */\n      dup4\n        /* \"#utility.yul\":12983:13050   */\n      tag_130\n      jump\t// in\n    tag_276:\n        /* \"#utility.yul\":12976:13050   */\n      swap2\n      pop\n        /* \"#utility.yul\":13059:13152   */\n      tag_277\n        /* \"#utility.yul\":13148:13151   */\n      dup3\n        /* \"#utility.yul\":13059:13152   */\n      tag_148\n      jump\t// in\n    tag_277:\n        /* \"#utility.yul\":13177:13179   */\n      0x20\n        /* \"#utility.yul\":13172:13175   */\n      dup3\n        /* \"#utility.yul\":13168:13180   */\n      add\n        /* \"#utility.yul\":13161:13180   */\n      swap1\n      pop\n        /* \"#utility.yul\":12820:13186   */\n      swap2\n      swap1\n      pop\n      jump\t// out\n        /* \"#utility.yul\":13192:13611   */\n    tag_93:\n        /* \"#utility.yul\":13358:13362   */\n      0x00\n        /* \"#utility.yul\":13396:13398   */\n      0x20\n        /* \"#utility.yul\":13385:13394   */\n      dup3\n        /* \"#utility.yul\":13381:13399   */\n      add\n        /* \"#utility.yul\":13373:13399   */\n      swap1\n      pop\n        /* \"#utility.yul\":13445:13454   */\n      dup2\n        /* \"#utility.yul\":13439:13443   */\n      dup2\n        /* \"#utility.yul\":13435:13455   */\n      sub\n        /* \"#utility.yul\":13431:13432   */\n      0x00\n        /* \"#utility.yul\":13420:13429   */\n      dup4\n        /* \"#utility.yul\":13416:13433   */\n      add\n        /* \"#utility.yul\":13409:13456   */\n      mstore\n        /* \"#utility.yul\":13473:13604   */\n      tag_279\n        /* \"#utility.yul\":13599:13603   */\n      dup2\n        /* \"#utility.yul\":13473:13604   */\n      tag_149\n      jump\t// in\n    tag_279:\n        /* \"#utility.yul\":13465:13604   */\n      swap1\n      pop\n        /* \"#utility.yul\":13192:13611   */\n      swap2\n      swap1\n      pop\n      jump\t// out\n        /* \"#utility.yul\":13617:14059   */\n    tag_103:\n        /* \"#utility.yul\":13766:13770   */\n      0x00\n        /* \"#utility.yul\":13804:13806   */\n      0x60\n        /* \"#utility.yul\":13793:13802   */\n      dup3\n        /* \"#utility.yul\":13789:13807   */\n      add\n        /* \"#utility.yul\":13781:13807   */\n      swap1\n      pop\n        /* \"#utility.yul\":13817:13888   */\n      tag_281\n        /* \"#utility.yul\":13885:13886   */\n      0x00\n        /* \"#utility.yul\":13874:13883   */\n      dup4\n        /* \"#utility.yul\":13870:13887   */\n      add\n        /* \"#utility.yul\":13861:13867   */\n      dup7\n        /* \"#utility.yul\":13817:13888   */\n      tag_124\n      jump\t// in\n    tag_281:\n        /* \"#utility.yul\":13898:13970   */\n      tag_282\n        /* \"#utility.yul\":13966:13968   */\n      0x20\n        /* \"#utility.yul\":13955:13964   */\n      dup4\n        /* \"#utility.yul\":13951:13969   */\n      add\n        /* \"#utility.yul\":13942:13948   */\n      dup6\n        /* \"#utility.yul\":13898:13970   */\n      tag_124\n      jump\t// in\n    tag_282:\n        /* \"#utility.yul\":13980:14052   */\n      tag_283\n        /* \"#utility.yul\":14048:14050   */\n      0x40\n        /* \"#utility.yul\":14037:14046   */\n      dup4\n        /* \"#utility.yul\":14033:14051   */\n      add\n        /* \"#utility.yul\":14024:14030   */\n      dup5\n        /* \"#utility.yul\":13980:14052   */\n      tag_123\n      jump\t// in\n    tag_283:\n        /* \"#utility.yul\":13617:14059   */\n      swap5\n      swap4\n      pop\n      pop\n      pop\n      pop\n      jump\t// out\n\n    auxdata: 0xa2646970667358221220d5f416067cd5f7e3e616a23d4d1eb3a23a91354c47bac768a68305b0907e67ba64736f6c634300081a0033\n}\n",
				"bytecode": {
					"linkReferences": {},
					"object": "608060405234801561000f575f80fd5b5060405161134e38038061134e83398181016040528101906100319190610116565b80805f806101000a81548173ffffffffffffffffffffffffffffffffffffffff021916908373ffffffffffffffffffffffffffffffffffffffff1602179055503360015f6101000a81548173ffffffffffffffffffffffffffffffffffffffff021916908373ffffffffffffffffffffffffffffffffffffffff1602179055505050610141565b5f80fd5b5f73ffffffffffffffffffffffffffffffffffffffff82169050919050565b5f6100e5826100bc565b9050919050565b6100f5816100db565b81146100ff575f80fd5b50565b5f81519050610110816100ec565b92915050565b5f6020828403121561012b5761012a6100b8565b5b5f61013884828501610102565b91505092915050565b6112008061014e5f395ff3fe608060405234801561000f575f80fd5b5060043610610091575f3560e01c80633dc58149116100645780633dc581491461011b5780637b83b50b1461014b578063b6b55f2514610169578063f851a44014610185578063fc0c546a146101a357610091565b806324a756d11461009557806327e235e3146100c55780633b9056bf146100f55780633ccfd60b14610111575b5f80fd5b6100af60048036038101906100aa9190610ba9565b6101c1565b6040516100bc9190610c21565b60405180910390f35b6100df60048036038101906100da9190610c3a565b610318565b6040516100ec9190610c74565b60405180910390f35b61010f600480360381019061010a9190610c8d565b61032d565b005b610119610572565b005b61013560048036038101906101309190610c3a565b610850565b6040516101429190610c74565b60405180910390f35b610153610896565b6040516101609190610c74565b60405180910390f35b610183600480360381019061017e9190610c8d565b610934565b005b61018d610ad0565b60405161019a9190610cc7565b60405180910390f35b6101ab610af5565b6040516101b89190610d3b565b60405180910390f35b5f805f9054906101000a900473ffffffffffffffffffffffffffffffffffffffff1673ffffffffffffffffffffffffffffffffffffffff163373ffffffffffffffffffffffffffffffffffffffff1614610250576040517f08c379a000000000000000000000000000000000000000000000000000000000815260040161024790610dae565b60405180910390fd5b8160025f8573ffffffffffffffffffffffffffffffffffffffff1673ffffffffffffffffffffffffffffffffffffffff1681526020019081526020015f205f82825461029c9190610df9565b925050819055503073ffffffffffffffffffffffffffffffffffffffff168373ffffffffffffffffffffffffffffffffffffffff167f8752a472e571a816aea92eec8dae9baf628e840f4929fbcc2d155e6233ff68a7846040516103009190610c74565b60405180910390a36324a756d160e01b905092915050565b6002602052805f5260405f205f915090505481565b5f811161036f576040517f08c379a000000000000000000000000000000000000000000000000000000000815260040161036690610e76565b60405180910390fd5b8060025f3373ffffffffffffffffffffffffffffffffffffffff1673ffffffffffffffffffffffffffffffffffffffff1681526020019081526020015f205410156103ef576040517f08c379a00000000000000000000000000000000000000000000000000000000081526004016103e690610ede565b60405180910390fd5b8060025f3373ffffffffffffffffffffffffffffffffffffffff1673ffffffffffffffffffffffffffffffffffffffff1681526020019081526020015f205f82825461043b9190610efc565b925050819055505f805f9054906101000a900473ffffffffffffffffffffffffffffffffffffffff1673ffffffffffffffffffffffffffffffffffffffff1663a9059cbb33846040518363ffffffff1660e01b815260040161049e929190610f2f565b6020604051808303815f875af11580156104ba573d5f803e3d5ffd5b505050506040513d601f19601f820116820180604052508101906104de9190610f8b565b905080610520576040517f08c379a000000000000000000000000000000000000000000000000000000000815260040161051790611000565b60405180910390fd5b3373ffffffffffffffffffffffffffffffffffffffff167fe6b386172074b393dc04ed6cb1a352475ffad5dd8cebc76231a3b683141ea6fb836040516105669190610c74565b60405180910390a25050565b60015f9054906101000a900473ffffffffffffffffffffffffffffffffffffffff1673ffffffffffffffffffffffffffffffffffffffff163373ffffffffffffffffffffffffffffffffffffffff1614610601576040517f08c379a00000000000000000000000000000000000000000000000000000000081526004016105f890611068565b60405180910390fd5b5f805f9054906101000a900473ffffffffffffffffffffffffffffffffffffffff1673ffffffffffffffffffffffffffffffffffffffff166370a08231306040518263ffffffff1660e01b815260040161065b9190610cc7565b602060405180830381865afa158015610676573d5f803e3d5ffd5b505050506040513d601f19601f8201168201806040525081019061069a919061109a565b90505f81116106de576040517f08c379a00000000000000000000000000000000000000000000000000000000081526004016106d59061110f565b60405180910390fd5b5f805f9054906101000a900473ffffffffffffffffffffffffffffffffffffffff1673ffffffffffffffffffffffffffffffffffffffff1663a9059cbb60015f9054906101000a900473ffffffffffffffffffffffffffffffffffffffff16846040518363ffffffff1660e01b815260040161075b929190610f2f565b6020604051808303815f875af1158015610777573d5f803e3d5ffd5b505050506040513d601f19601f8201168201806040525081019061079b9190610f8b565b9050806107dd576040517f08c379a00000000000000000000000000000000000000000000000000000000081526004016107d490611177565b60405180910390fd5b60015f9054906101000a900473ffffffffffffffffffffffffffffffffffffffff1673ffffffffffffffffffffffffffffffffffffffff167f7084f5476618d8e60b11ef0d7d3f06914655adb8793e28ff7f018d4c76d505d5836040516108449190610c74565b60405180910390a25050565b5f60025f8373ffffffffffffffffffffffffffffffffffffffff1673ffffffffffffffffffffffffffffffffffffffff1681526020019081526020015f20549050919050565b5f805f9054906101000a900473ffffffffffffffffffffffffffffffffffffffff1673ffffffffffffffffffffffffffffffffffffffff166370a08231306040518263ffffffff1660e01b81526004016108f09190610cc7565b602060405180830381865afa15801561090b573d5f803e3d5ffd5b505050506040513d601f19601f8201168201806040525081019061092f919061109a565b905090565b5f805f9054906101000a900473ffffffffffffffffffffffffffffffffffffffff1673ffffffffffffffffffffffffffffffffffffffff166323b872dd3330856040518463ffffffff1660e01b815260040161099293929190611195565b6020604051808303815f875af11580156109ae573d5f803e3d5ffd5b505050506040513d601f19601f820116820180604052508101906109d29190610f8b565b905080610a14576040517f08c379a0000000000000000000000000000000000000000000000000000000008152600401610a0b90611000565b60405180910390fd5b8160025f3373ffffffffffffffffffffffffffffffffffffffff1673ffffffffffffffffffffffffffffffffffffffff1681526020019081526020015f205f828254610a609190610df9565b925050819055503073ffffffffffffffffffffffffffffffffffffffff163373ffffffffffffffffffffffffffffffffffffffff167f8752a472e571a816aea92eec8dae9baf628e840f4929fbcc2d155e6233ff68a784604051610ac49190610c74565b60405180910390a35050565b60015f9054906101000a900473ffffffffffffffffffffffffffffffffffffffff1681565b5f8054906101000a900473ffffffffffffffffffffffffffffffffffffffff1681565b5f80fd5b5f73ffffffffffffffffffffffffffffffffffffffff82169050919050565b5f610b4582610b1c565b9050919050565b610b5581610b3b565b8114610b5f575f80fd5b50565b5f81359050610b7081610b4c565b92915050565b5f819050919050565b610b8881610b76565b8114610b92575f80fd5b50565b5f81359050610ba381610b7f565b92915050565b5f8060408385031215610bbf57610bbe610b18565b5b5f610bcc85828601610b62565b9250506020610bdd85828601610b95565b9150509250929050565b5f7fffffffff0000000000000000000000000000000000000000000000000000000082169050919050565b610c1b81610be7565b82525050565b5f602082019050610c345f830184610c12565b92915050565b5f60208284031215610c4f57610c4e610b18565b5b5f610c5c84828501610b62565b91505092915050565b610c6e81610b76565b82525050565b5f602082019050610c875f830184610c65565b92915050565b5f60208284031215610ca257610ca1610b18565b5b5f610caf84828501610b95565b91505092915050565b610cc181610b3b565b82525050565b5f602082019050610cda5f830184610cb8565b92915050565b5f819050919050565b5f610d03610cfe610cf984610b1c565b610ce0565b610b1c565b9050919050565b5f610d1482610ce9565b9050919050565b5f610d2582610d0a565b9050919050565b610d3581610d1b565b82525050565b5f602082019050610d4e5f830184610d2c565b92915050565b5f82825260208201905092915050565b7f4f6e6c7920746f6b656e20636f6e74726163742063616e2063616c6c000000005f82015250565b5f610d98601c83610d54565b9150610da382610d64565b602082019050919050565b5f6020820190508181035f830152610dc581610d8c565b9050919050565b7f4e487b71000000000000000000000000000000000000000000000000000000005f52601160045260245ffd5b5f610e0382610b76565b9150610e0e83610b76565b9250828201905080821115610e2657610e25610dcc565b5b92915050565b7f416d6f756e74206d7573742062652067726561746572207468616e20300000005f82015250565b5f610e60601d83610d54565b9150610e6b82610e2c565b602082019050919050565b5f6020820190508181035f830152610e8d81610e54565b9050919050565b7f496e73756666696369656e742062616c616e63650000000000000000000000005f82015250565b5f610ec8601483610d54565b9150610ed382610e94565b602082019050919050565b5f6020820190508181035f830152610ef581610ebc565b9050919050565b5f610f0682610b76565b9150610f1183610b76565b9250828203905081811115610f2957610f28610dcc565b5b92915050565b5f604082019050610f425f830185610cb8565b610f4f6020830184610c65565b9392505050565b5f8115159050919050565b610f6a81610f56565b8114610f74575f80fd5b50565b5f81519050610f8581610f61565b92915050565b5f60208284031215610fa057610f9f610b18565b5b5f610fad84828501610f77565b91505092915050565b7f5472616e73666572206661696c656400000000000000000000000000000000005f82015250565b5f610fea600f83610d54565b9150610ff582610fb6565b602082019050919050565b5f6020820190508181035f83015261101781610fde565b9050919050565b7f4f6e6c792061646d696e2063616e2077697468647261770000000000000000005f82015250565b5f611052601783610d54565b915061105d8261101e565b602082019050919050565b5f6020820190508181035f83015261107f81611046565b9050919050565b5f8151905061109481610b7f565b92915050565b5f602082840312156110af576110ae610b18565b5b5f6110bc84828501611086565b91505092915050565b7f4e6f20746f6b656e7320746f20776974686472617700000000000000000000005f82015250565b5f6110f9601583610d54565b9150611104826110c5565b602082019050919050565b5f6020820190508181035f830152611126816110ed565b9050919050565b7f5769746864726177616c206661696c65640000000000000000000000000000005f82015250565b5f611161601183610d54565b915061116c8261112d565b602082019050919050565b5f6020820190508181035f83015261118e81611155565b9050919050565b5f6060820190506111a85f830186610cb8565b6111b56020830185610cb8565b6111c26040830184610c65565b94935050505056fea2646970667358221220d5f416067cd5f7e3e616a23d4d1eb3a23a91354c47bac768a68305b0907e67ba64736f6c634300081a0033",
					"opcodes": "PUSH1 0x80 PUSH1 0x40 MSTORE CALLVALUE DUP1 ISZERO PUSH2 0xF JUMPI PUSH0 DUP1 REVERT JUMPDEST POP PUSH1 0x40 MLOAD PUSH2 0x134E CODESIZE SUB DUP1 PUSH2 0x134E DUP4 CODECOPY DUP2 DUP2 ADD PUSH1 0x40 MSTORE DUP2 ADD SWAP1 PUSH2 0x31 SWAP2 SWAP1 PUSH2 0x116 JUMP JUMPDEST DUP1 DUP1 PUSH0 DUP1 PUSH2 0x100 EXP DUP2 SLOAD DUP2 PUSH20 0xFFFFFFFFFFFFFFFFFFFFFFFFFFFFFFFFFFFFFFFF MUL NOT AND SWAP1 DUP4 PUSH20 0xFFFFFFFFFFFFFFFFFFFFFFFFFFFFFFFFFFFFFFFF AND MUL OR SWAP1 SSTORE POP CALLER PUSH1 0x1 PUSH0 PUSH2 0x100 EXP DUP2 SLOAD DUP2 PUSH20 0xFFFFFFFFFFFFFFFFFFFFFFFFFFFFFFFFFFFFFFFF MUL NOT AND SWAP1 DUP4 PUSH20 0xFFFFFFFFFFFFFFFFFFFFFFFFFFFFFFFFFFFFFFFF AND MUL OR SWAP1 SSTORE POP POP POP PUSH2 0x141 JUMP JUMPDEST PUSH0 DUP1 REVERT JUMPDEST PUSH0 PUSH20 0xFFFFFFFFFFFFFFFFFFFFFFFFFFFFFFFFFFFFFFFF DUP3 AND SWAP1 POP SWAP2 SWAP1 POP JUMP JUMPDEST PUSH0 PUSH2 0xE5 DUP3 PUSH2 0xBC JUMP JUMPDEST SWAP1 POP SWAP2 SWAP1 POP JUMP JUMPDEST PUSH2 0xF5 DUP2 PUSH2 0xDB JUMP JUMPDEST DUP2 EQ PUSH2 0xFF JUMPI PUSH0 DUP1 REVERT JUMPDEST POP JUMP JUMPDEST PUSH0 DUP2 MLOAD SWAP1 POP PUSH2 0x110 DUP2 PUSH2 0xEC JUMP JUMPDEST SWAP3 SWAP2 POP POP JUMP JUMPDEST PUSH0 PUSH1 0x20 DUP3 DUP5 SUB SLT ISZERO PUSH2 0x12B JUMPI PUSH2 0x12A PUSH2 0xB8 JUMP JUMPDEST JUMPDEST PUSH0 PUSH2 0x138 DUP5 DUP3 DUP6 ADD PUSH2 0x102 JUMP JUMPDEST SWAP2 POP POP SWAP3 SWAP2 POP POP JUMP JUMPDEST PUSH2 0x1200 DUP1 PUSH2 0x14E PUSH0 CODECOPY PUSH0 RETURN INVALID PUSH1 0x80 PUSH1 0x40 MSTORE CALLVALUE DUP1 ISZERO PUSH2 0xF JUMPI PUSH0 DUP1 REVERT JUMPDEST POP PUSH1 0x4 CALLDATASIZE LT PUSH2 0x91 JUMPI PUSH0 CALLDATALOAD PUSH1 0xE0 SHR DUP1 PUSH4 0x3DC58149 GT PUSH2 0x64 JUMPI DUP1 PUSH4 0x3DC58149 EQ PUSH2 0x11B JUMPI DUP1 PUSH4 0x7B83B50B EQ PUSH2 0x14B JUMPI DUP1 PUSH4 0xB6B55F25 EQ PUSH2 0x169 JUMPI DUP1 PUSH4 0xF851A440 EQ PUSH2 0x185 JUMPI DUP1 PUSH4 0xFC0C546A EQ PUSH2 0x1A3 JUMPI PUSH2 0x91 JUMP JUMPDEST DUP1 PUSH4 0x24A756D1 EQ PUSH2 0x95 JUMPI DUP1 PUSH4 0x27E235E3 EQ PUSH2 0xC5 JUMPI DUP1 PUSH4 0x3B9056BF EQ PUSH2 0xF5 JUMPI DUP1 PUSH4 0x3CCFD60B EQ PUSH2 0x111 JUMPI JUMPDEST PUSH0 DUP1 REVERT JUMPDEST PUSH2 0xAF PUSH1 0x4 DUP1 CALLDATASIZE SUB DUP2 ADD SWAP1 PUSH2 0xAA SWAP2 SWAP1 PUSH2 0xBA9 JUMP JUMPDEST PUSH2 0x1C1 JUMP JUMPDEST PUSH1 0x40 MLOAD PUSH2 0xBC SWAP2 SWAP1 PUSH2 0xC21 JUMP JUMPDEST PUSH1 0x40 MLOAD DUP1 SWAP2 SUB SWAP1 RETURN JUMPDEST PUSH2 0xDF PUSH1 0x4 DUP1 CALLDATASIZE SUB DUP2 ADD SWAP1 PUSH2 0xDA SWAP2 SWAP1 PUSH2 0xC3A JUMP JUMPDEST PUSH2 0x318 JUMP JUMPDEST PUSH1 0x40 MLOAD PUSH2 0xEC SWAP2 SWAP1 PUSH2 0xC74 JUMP JUMPDEST PUSH1 0x40 MLOAD DUP1 SWAP2 SUB SWAP1 RETURN JUMPDEST PUSH2 0x10F PUSH1 0x4 DUP1 CALLDATASIZE SUB DUP2 ADD SWAP1 PUSH2 0x10A SWAP2 SWAP1 PUSH2 0xC8D JUMP JUMPDEST PUSH2 0x32D JUMP JUMPDEST STOP JUMPDEST PUSH2 0x119 PUSH2 0x572 JUMP JUMPDEST STOP JUMPDEST PUSH2 0x135 PUSH1 0x4 DUP1 CALLDATASIZE SUB DUP2 ADD SWAP1 PUSH2 0x130 SWAP2 SWAP1 PUSH2 0xC3A JUMP JUMPDEST PUSH2 0x850 JUMP JUMPDEST PUSH1 0x40 MLOAD PUSH2 0x142 SWAP2 SWAP1 PUSH2 0xC74 JUMP JUMPDEST PUSH1 0x40 MLOAD DUP1 SWAP2 SUB SWAP1 RETURN JUMPDEST PUSH2 0x153 PUSH2 0x896 JUMP JUMPDEST PUSH1 0x40 MLOAD PUSH2 0x160 SWAP2 SWAP1 PUSH2 0xC74 JUMP JUMPDEST PUSH1 0x40 MLOAD DUP1 SWAP2 SUB SWAP1 RETURN JUMPDEST PUSH2 0x183 PUSH1 0x4 DUP1 CALLDATASIZE SUB DUP2 ADD SWAP1 PUSH2 0x17E SWAP2 SWAP1 PUSH2 0xC8D JUMP JUMPDEST PUSH2 0x934 JUMP JUMPDEST STOP JUMPDEST PUSH2 0x18D PUSH2 0xAD0 JUMP JUMPDEST PUSH1 0x40 MLOAD PUSH2 0x19A SWAP2 SWAP1 PUSH2 0xCC7 JUMP JUMPDEST PUSH1 0x40 MLOAD DUP1 SWAP2 SUB SWAP1 RETURN JUMPDEST PUSH2 0x1AB PUSH2 0xAF5 JUMP JUMPDEST PUSH1 0x40 MLOAD PUSH2 0x1B8 SWAP2 SWAP1 PUSH2 0xD3B JUMP JUMPDEST PUSH1 0x40 MLOAD DUP1 SWAP2 SUB SWAP1 RETURN JUMPDEST PUSH0 DUP1 PUSH0 SWAP1 SLOAD SWAP1 PUSH2 0x100 EXP SWAP1 DIV PUSH20 0xFFFFFFFFFFFFFFFFFFFFFFFFFFFFFFFFFFFFFFFF AND PUSH20 0xFFFFFFFFFFFFFFFFFFFFFFFFFFFFFFFFFFFFFFFF AND CALLER PUSH20 0xFFFFFFFFFFFFFFFFFFFFFFFFFFFFFFFFFFFFFFFF AND EQ PUSH2 0x250 JUMPI PUSH1 0x40 MLOAD PUSH32 0x8C379A000000000000000000000000000000000000000000000000000000000 DUP2 MSTORE PUSH1 0x4 ADD PUSH2 0x247 SWAP1 PUSH2 0xDAE JUMP JUMPDEST PUSH1 0x40 MLOAD DUP1 SWAP2 SUB SWAP1 REVERT JUMPDEST DUP2 PUSH1 0x2 PUSH0 DUP6 PUSH20 0xFFFFFFFFFFFFFFFFFFFFFFFFFFFFFFFFFFFFFFFF AND PUSH20 0xFFFFFFFFFFFFFFFFFFFFFFFFFFFFFFFFFFFFFFFF AND DUP2 MSTORE PUSH1 0x20 ADD SWAP1 DUP2 MSTORE PUSH1 0x20 ADD PUSH0 KECCAK256 PUSH0 DUP3 DUP3 SLOAD PUSH2 0x29C SWAP2 SWAP1 PUSH2 0xDF9 JUMP JUMPDEST SWAP3 POP POP DUP2 SWAP1 SSTORE POP ADDRESS PUSH20 0xFFFFFFFFFFFFFFFFFFFFFFFFFFFFFFFFFFFFFFFF AND DUP4 PUSH20 0xFFFFFFFFFFFFFFFFFFFFFFFFFFFFFFFFFFFFFFFF AND PUSH32 0x8752A472E571A816AEA92EEC8DAE9BAF628E840F4929FBCC2D155E6233FF68A7 DUP5 PUSH1 0x40 MLOAD PUSH2 0x300 SWAP2 SWAP1 PUSH2 0xC74 JUMP JUMPDEST PUSH1 0x40 MLOAD DUP1 SWAP2 SUB SWAP1 LOG3 PUSH4 0x24A756D1 PUSH1 0xE0 SHL SWAP1 POP SWAP3 SWAP2 POP POP JUMP JUMPDEST PUSH1 0x2 PUSH1 0x20 MSTORE DUP1 PUSH0 MSTORE PUSH1 0x40 PUSH0 KECCAK256 PUSH0 SWAP2 POP SWAP1 POP SLOAD DUP2 JUMP JUMPDEST PUSH0 DUP2 GT PUSH2 0x36F JUMPI PUSH1 0x40 MLOAD PUSH32 0x8C379A000000000000000000000000000000000000000000000000000000000 DUP2 MSTORE PUSH1 0x4 ADD PUSH2 0x366 SWAP1 PUSH2 0xE76 JUMP JUMPDEST PUSH1 0x40 MLOAD DUP1 SWAP2 SUB SWAP1 REVERT JUMPDEST DUP1 PUSH1 0x2 PUSH0 CALLER PUSH20 0xFFFFFFFFFFFFFFFFFFFFFFFFFFFFFFFFFFFFFFFF AND PUSH20 0xFFFFFFFFFFFFFFFFFFFFFFFFFFFFFFFFFFFFFFFF AND DUP2 MSTORE PUSH1 0x20 ADD SWAP1 DUP2 MSTORE PUSH1 0x20 ADD PUSH0 KECCAK256 SLOAD LT ISZERO PUSH2 0x3EF JUMPI PUSH1 0x40 MLOAD PUSH32 0x8C379A000000000000000000000000000000000000000000000000000000000 DUP2 MSTORE PUSH1 0x4 ADD PUSH2 0x3E6 SWAP1 PUSH2 0xEDE JUMP JUMPDEST PUSH1 0x40 MLOAD DUP1 SWAP2 SUB SWAP1 REVERT JUMPDEST DUP1 PUSH1 0x2 PUSH0 CALLER PUSH20 0xFFFFFFFFFFFFFFFFFFFFFFFFFFFFFFFFFFFFFFFF AND PUSH20 0xFFFFFFFFFFFFFFFFFFFFFFFFFFFFFFFFFFFFFFFF AND DUP2 MSTORE PUSH1 0x20 ADD SWAP1 DUP2 MSTORE PUSH1 0x20 ADD PUSH0 KECCAK256 PUSH0 DUP3 DUP3 SLOAD PUSH2 0x43B SWAP2 SWAP1 PUSH2 0xEFC JUMP JUMPDEST SWAP3 POP POP DUP2 SWAP1 SSTORE POP PUSH0 DUP1 PUSH0 SWAP1 SLOAD SWAP1 PUSH2 0x100 EXP SWAP1 DIV PUSH20 0xFFFFFFFFFFFFFFFFFFFFFFFFFFFFFFFFFFFFFFFF AND PUSH20 0xFFFFFFFFFFFFFFFFFFFFFFFFFFFFFFFFFFFFFFFF AND PUSH4 0xA9059CBB CALLER DUP5 PUSH1 0x40 MLOAD DUP4 PUSH4 0xFFFFFFFF AND PUSH1 0xE0 SHL DUP2 MSTORE PUSH1 0x4 ADD PUSH2 0x49E SWAP3 SWAP2 SWAP1 PUSH2 0xF2F JUMP JUMPDEST PUSH1 0x20 PUSH1 0x40 MLOAD DUP1 DUP4 SUB DUP2 PUSH0 DUP8 GAS CALL ISZERO DUP1 ISZERO PUSH2 0x4BA JUMPI RETURNDATASIZE PUSH0 DUP1 RETURNDATACOPY RETURNDATASIZE PUSH0 REVERT JUMPDEST POP POP POP POP PUSH1 0x40 MLOAD RETURNDATASIZE PUSH1 0x1F NOT PUSH1 0x1F DUP3 ADD AND DUP3 ADD DUP1 PUSH1 0x40 MSTORE POP DUP2 ADD SWAP1 PUSH2 0x4DE SWAP2 SWAP1 PUSH2 0xF8B JUMP JUMPDEST SWAP1 POP DUP1 PUSH2 0x520 JUMPI PUSH1 0x40 MLOAD PUSH32 0x8C379A000000000000000000000000000000000000000000000000000000000 DUP2 MSTORE PUSH1 0x4 ADD PUSH2 0x517 SWAP1 PUSH2 0x1000 JUMP JUMPDEST PUSH1 0x40 MLOAD DUP1 SWAP2 SUB SWAP1 REVERT JUMPDEST CALLER PUSH20 0xFFFFFFFFFFFFFFFFFFFFFFFFFFFFFFFFFFFFFFFF AND PUSH32 0xE6B386172074B393DC04ED6CB1A352475FFAD5DD8CEBC76231A3B683141EA6FB DUP4 PUSH1 0x40 MLOAD PUSH2 0x566 SWAP2 SWAP1 PUSH2 0xC74 JUMP JUMPDEST PUSH1 0x40 MLOAD DUP1 SWAP2 SUB SWAP1 LOG2 POP POP JUMP JUMPDEST PUSH1 0x1 PUSH0 SWAP1 SLOAD SWAP1 PUSH2 0x100 EXP SWAP1 DIV PUSH20 0xFFFFFFFFFFFFFFFFFFFFFFFFFFFFFFFFFFFFFFFF AND PUSH20 0xFFFFFFFFFFFFFFFFFFFFFFFFFFFFFFFFFFFFFFFF AND CALLER PUSH20 0xFFFFFFFFFFFFFFFFFFFFFFFFFFFFFFFFFFFFFFFF AND EQ PUSH2 0x601 JUMPI PUSH1 0x40 MLOAD PUSH32 0x8C379A000000000000000000000000000000000000000000000000000000000 DUP2 MSTORE PUSH1 0x4 ADD PUSH2 0x5F8 SWAP1 PUSH2 0x1068 JUMP JUMPDEST PUSH1 0x40 MLOAD DUP1 SWAP2 SUB SWAP1 REVERT JUMPDEST PUSH0 DUP1 PUSH0 SWAP1 SLOAD SWAP1 PUSH2 0x100 EXP SWAP1 DIV PUSH20 0xFFFFFFFFFFFFFFFFFFFFFFFFFFFFFFFFFFFFFFFF AND PUSH20 0xFFFFFFFFFFFFFFFFFFFFFFFFFFFFFFFFFFFFFFFF AND PUSH4 0x70A08231 ADDRESS PUSH1 0x40 MLOAD DUP3 PUSH4 0xFFFFFFFF AND PUSH1 0xE0 SHL DUP2 MSTORE PUSH1 0x4 ADD PUSH2 0x65B SWAP2 SWAP1 PUSH2 0xCC7 JUMP JUMPDEST PUSH1 0x20 PUSH1 0x40 MLOAD DUP1 DUP4 SUB DUP2 DUP7 GAS STATICCALL ISZERO DUP1 ISZERO PUSH2 0x676 JUMPI RETURNDATASIZE PUSH0 DUP1 RETURNDATACOPY RETURNDATASIZE PUSH0 REVERT JUMPDEST POP POP POP POP PUSH1 0x40 MLOAD RETURNDATASIZE PUSH1 0x1F NOT PUSH1 0x1F DUP3 ADD AND DUP3 ADD DUP1 PUSH1 0x40 MSTORE POP DUP2 ADD SWAP1 PUSH2 0x69A SWAP2 SWAP1 PUSH2 0x109A JUMP JUMPDEST SWAP1 POP PUSH0 DUP2 GT PUSH2 0x6DE JUMPI PUSH1 0x40 MLOAD PUSH32 0x8C379A000000000000000000000000000000000000000000000000000000000 DUP2 MSTORE PUSH1 0x4 ADD PUSH2 0x6D5 SWAP1 PUSH2 0x110F JUMP JUMPDEST PUSH1 0x40 MLOAD DUP1 SWAP2 SUB SWAP1 REVERT JUMPDEST PUSH0 DUP1 PUSH0 SWAP1 SLOAD SWAP1 PUSH2 0x100 EXP SWAP1 DIV PUSH20 0xFFFFFFFFFFFFFFFFFFFFFFFFFFFFFFFFFFFFFFFF AND PUSH20 0xFFFFFFFFFFFFFFFFFFFFFFFFFFFFFFFFFFFFFFFF AND PUSH4 0xA9059CBB PUSH1 0x1 PUSH0 SWAP1 SLOAD SWAP1 PUSH2 0x100 EXP SWAP1 DIV PUSH20 0xFFFFFFFFFFFFFFFFFFFFFFFFFFFFFFFFFFFFFFFF AND DUP5 PUSH1 0x40 MLOAD DUP4 PUSH4 0xFFFFFFFF AND PUSH1 0xE0 SHL DUP2 MSTORE PUSH1 0x4 ADD PUSH2 0x75B SWAP3 SWAP2 SWAP1 PUSH2 0xF2F JUMP JUMPDEST PUSH1 0x20 PUSH1 0x40 MLOAD DUP1 DUP4 SUB DUP2 PUSH0 DUP8 GAS CALL ISZERO DUP1 ISZERO PUSH2 0x777 JUMPI RETURNDATASIZE PUSH0 DUP1 RETURNDATACOPY RETURNDATASIZE PUSH0 REVERT JUMPDEST POP POP POP POP PUSH1 0x40 MLOAD RETURNDATASIZE PUSH1 0x1F NOT PUSH1 0x1F DUP3 ADD AND DUP3 ADD DUP1 PUSH1 0x40 MSTORE POP DUP2 ADD SWAP1 PUSH2 0x79B SWAP2 SWAP1 PUSH2 0xF8B JUMP JUMPDEST SWAP1 POP DUP1 PUSH2 0x7DD JUMPI PUSH1 0x40 MLOAD PUSH32 0x8C379A000000000000000000000000000000000000000000000000000000000 DUP2 MSTORE PUSH1 0x4 ADD PUSH2 0x7D4 SWAP1 PUSH2 0x1177 JUMP JUMPDEST PUSH1 0x40 MLOAD DUP1 SWAP2 SUB SWAP1 REVERT JUMPDEST PUSH1 0x1 PUSH0 SWAP1 SLOAD SWAP1 PUSH2 0x100 EXP SWAP1 DIV PUSH20 0xFFFFFFFFFFFFFFFFFFFFFFFFFFFFFFFFFFFFFFFF AND PUSH20 0xFFFFFFFFFFFFFFFFFFFFFFFFFFFFFFFFFFFFFFFF AND PUSH32 0x7084F5476618D8E60B11EF0D7D3F06914655ADB8793E28FF7F018D4C76D505D5 DUP4 PUSH1 0x40 MLOAD PUSH2 0x844 SWAP2 SWAP1 PUSH2 0xC74 JUMP JUMPDEST PUSH1 0x40 MLOAD DUP1 SWAP2 SUB SWAP1 LOG2 POP POP JUMP JUMPDEST PUSH0 PUSH1 0x2 PUSH0 DUP4 PUSH20 0xFFFFFFFFFFFFFFFFFFFFFFFFFFFFFFFFFFFFFFFF AND PUSH20 0xFFFFFFFFFFFFFFFFFFFFFFFFFFFFFFFFFFFFFFFF AND DUP2 MSTORE PUSH1 0x20 ADD SWAP1 DUP2 MSTORE PUSH1 0x20 ADD PUSH0 KECCAK256 SLOAD SWAP1 POP SWAP2 SWAP1 POP JUMP JUMPDEST PUSH0 DUP1 PUSH0 SWAP1 SLOAD SWAP1 PUSH2 0x100 EXP SWAP1 DIV PUSH20 0xFFFFFFFFFFFFFFFFFFFFFFFFFFFFFFFFFFFFFFFF AND PUSH20 0xFFFFFFFFFFFFFFFFFFFFFFFFFFFFFFFFFFFFFFFF AND PUSH4 0x70A08231 ADDRESS PUSH1 0x40 MLOAD DUP3 PUSH4 0xFFFFFFFF AND PUSH1 0xE0 SHL DUP2 MSTORE PUSH1 0x4 ADD PUSH2 0x8F0 SWAP2 SWAP1 PUSH2 0xCC7 JUMP JUMPDEST PUSH1 0x20 PUSH1 0x40 MLOAD DUP1 DUP4 SUB DUP2 DUP7 GAS STATICCALL ISZERO DUP1 ISZERO PUSH2 0x90B JUMPI RETURNDATASIZE PUSH0 DUP1 RETURNDATACOPY RETURNDATASIZE PUSH0 REVERT JUMPDEST POP POP POP POP PUSH1 0x40 MLOAD RETURNDATASIZE PUSH1 0x1F NOT PUSH1 0x1F DUP3 ADD AND DUP3 ADD DUP1 PUSH1 0x40 MSTORE POP DUP2 ADD SWAP1 PUSH2 0x92F SWAP2 SWAP1 PUSH2 0x109A JUMP JUMPDEST SWAP1 POP SWAP1 JUMP JUMPDEST PUSH0 DUP1 PUSH0 SWAP1 SLOAD SWAP1 PUSH2 0x100 EXP SWAP1 DIV PUSH20 0xFFFFFFFFFFFFFFFFFFFFFFFFFFFFFFFFFFFFFFFF AND PUSH20 0xFFFFFFFFFFFFFFFFFFFFFFFFFFFFFFFFFFFFFFFF AND PUSH4 0x23B872DD CALLER ADDRESS DUP6 PUSH1 0x40 MLOAD DUP5 PUSH4 0xFFFFFFFF AND PUSH1 0xE0 SHL DUP2 MSTORE PUSH1 0x4 ADD PUSH2 0x992 SWAP4 SWAP3 SWAP2 SWAP1 PUSH2 0x1195 JUMP JUMPDEST PUSH1 0x20 PUSH1 0x40 MLOAD DUP1 DUP4 SUB DUP2 PUSH0 DUP8 GAS CALL ISZERO DUP1 ISZERO PUSH2 0x9AE JUMPI RETURNDATASIZE PUSH0 DUP1 RETURNDATACOPY RETURNDATASIZE PUSH0 REVERT JUMPDEST POP POP POP POP PUSH1 0x40 MLOAD RETURNDATASIZE PUSH1 0x1F NOT PUSH1 0x1F DUP3 ADD AND DUP3 ADD DUP1 PUSH1 0x40 MSTORE POP DUP2 ADD SWAP1 PUSH2 0x9D2 SWAP2 SWAP1 PUSH2 0xF8B JUMP JUMPDEST SWAP1 POP DUP1 PUSH2 0xA14 JUMPI PUSH1 0x40 MLOAD PUSH32 0x8C379A000000000000000000000000000000000000000000000000000000000 DUP2 MSTORE PUSH1 0x4 ADD PUSH2 0xA0B SWAP1 PUSH2 0x1000 JUMP JUMPDEST PUSH1 0x40 MLOAD DUP1 SWAP2 SUB SWAP1 REVERT JUMPDEST DUP2 PUSH1 0x2 PUSH0 CALLER PUSH20 0xFFFFFFFFFFFFFFFFFFFFFFFFFFFFFFFFFFFFFFFF AND PUSH20 0xFFFFFFFFFFFFFFFFFFFFFFFFFFFFFFFFFFFFFFFF AND DUP2 MSTORE PUSH1 0x20 ADD SWAP1 DUP2 MSTORE PUSH1 0x20 ADD PUSH0 KECCAK256 PUSH0 DUP3 DUP3 SLOAD PUSH2 0xA60 SWAP2 SWAP1 PUSH2 0xDF9 JUMP JUMPDEST SWAP3 POP POP DUP2 SWAP1 SSTORE POP ADDRESS PUSH20 0xFFFFFFFFFFFFFFFFFFFFFFFFFFFFFFFFFFFFFFFF AND CALLER PUSH20 0xFFFFFFFFFFFFFFFFFFFFFFFFFFFFFFFFFFFFFFFF AND PUSH32 0x8752A472E571A816AEA92EEC8DAE9BAF628E840F4929FBCC2D155E6233FF68A7 DUP5 PUSH1 0x40 MLOAD PUSH2 0xAC4 SWAP2 SWAP1 PUSH2 0xC74 JUMP JUMPDEST PUSH1 0x40 MLOAD DUP1 SWAP2 SUB SWAP1 LOG3 POP POP JUMP JUMPDEST PUSH1 0x1 PUSH0 SWAP1 SLOAD SWAP1 PUSH2 0x100 EXP SWAP1 DIV PUSH20 0xFFFFFFFFFFFFFFFFFFFFFFFFFFFFFFFFFFFFFFFF AND DUP2 JUMP JUMPDEST PUSH0 DUP1 SLOAD SWAP1 PUSH2 0x100 EXP SWAP1 DIV PUSH20 0xFFFFFFFFFFFFFFFFFFFFFFFFFFFFFFFFFFFFFFFF AND DUP2 JUMP JUMPDEST PUSH0 DUP1 REVERT JUMPDEST PUSH0 PUSH20 0xFFFFFFFFFFFFFFFFFFFFFFFFFFFFFFFFFFFFFFFF DUP3 AND SWAP1 POP SWAP2 SWAP1 POP JUMP JUMPDEST PUSH0 PUSH2 0xB45 DUP3 PUSH2 0xB1C JUMP JUMPDEST SWAP1 POP SWAP2 SWAP1 POP JUMP JUMPDEST PUSH2 0xB55 DUP2 PUSH2 0xB3B JUMP JUMPDEST DUP2 EQ PUSH2 0xB5F JUMPI PUSH0 DUP1 REVERT JUMPDEST POP JUMP JUMPDEST PUSH0 DUP2 CALLDATALOAD SWAP1 POP PUSH2 0xB70 DUP2 PUSH2 0xB4C JUMP JUMPDEST SWAP3 SWAP2 POP POP JUMP JUMPDEST PUSH0 DUP2 SWAP1 POP SWAP2 SWAP1 POP JUMP JUMPDEST PUSH2 0xB88 DUP2 PUSH2 0xB76 JUMP JUMPDEST DUP2 EQ PUSH2 0xB92 JUMPI PUSH0 DUP1 REVERT JUMPDEST POP JUMP JUMPDEST PUSH0 DUP2 CALLDATALOAD SWAP1 POP PUSH2 0xBA3 DUP2 PUSH2 0xB7F JUMP JUMPDEST SWAP3 SWAP2 POP POP JUMP JUMPDEST PUSH0 DUP1 PUSH1 0x40 DUP4 DUP6 SUB SLT ISZERO PUSH2 0xBBF JUMPI PUSH2 0xBBE PUSH2 0xB18 JUMP JUMPDEST JUMPDEST PUSH0 PUSH2 0xBCC DUP6 DUP3 DUP7 ADD PUSH2 0xB62 JUMP JUMPDEST SWAP3 POP POP PUSH1 0x20 PUSH2 0xBDD DUP6 DUP3 DUP7 ADD PUSH2 0xB95 JUMP JUMPDEST SWAP2 POP POP SWAP3 POP SWAP3 SWAP1 POP JUMP JUMPDEST PUSH0 PUSH32 0xFFFFFFFF00000000000000000000000000000000000000000000000000000000 DUP3 AND SWAP1 POP SWAP2 SWAP1 POP JUMP JUMPDEST PUSH2 0xC1B DUP2 PUSH2 0xBE7 JUMP JUMPDEST DUP3 MSTORE POP POP JUMP JUMPDEST PUSH0 PUSH1 0x20 DUP3 ADD SWAP1 POP PUSH2 0xC34 PUSH0 DUP4 ADD DUP5 PUSH2 0xC12 JUMP JUMPDEST SWAP3 SWAP2 POP POP JUMP JUMPDEST PUSH0 PUSH1 0x20 DUP3 DUP5 SUB SLT ISZERO PUSH2 0xC4F JUMPI PUSH2 0xC4E PUSH2 0xB18 JUMP JUMPDEST JUMPDEST PUSH0 PUSH2 0xC5C DUP5 DUP3 DUP6 ADD PUSH2 0xB62 JUMP JUMPDEST SWAP2 POP POP SWAP3 SWAP2 POP POP JUMP JUMPDEST PUSH2 0xC6E DUP2 PUSH2 0xB76 JUMP JUMPDEST DUP3 MSTORE POP POP JUMP JUMPDEST PUSH0 PUSH1 0x20 DUP3 ADD SWAP1 POP PUSH2 0xC87 PUSH0 DUP4 ADD DUP5 PUSH2 0xC65 JUMP JUMPDEST SWAP3 SWAP2 POP POP JUMP JUMPDEST PUSH0 PUSH1 0x20 DUP3 DUP5 SUB SLT ISZERO PUSH2 0xCA2 JUMPI PUSH2 0xCA1 PUSH2 0xB18 JUMP JUMPDEST JUMPDEST PUSH0 PUSH2 0xCAF DUP5 DUP3 DUP6 ADD PUSH2 0xB95 JUMP JUMPDEST SWAP2 POP POP SWAP3 SWAP2 POP POP JUMP JUMPDEST PUSH2 0xCC1 DUP2 PUSH2 0xB3B JUMP JUMPDEST DUP3 MSTORE POP POP JUMP JUMPDEST PUSH0 PUSH1 0x20 DUP3 ADD SWAP1 POP PUSH2 0xCDA PUSH0 DUP4 ADD DUP5 PUSH2 0xCB8 JUMP JUMPDEST SWAP3 SWAP2 POP POP JUMP JUMPDEST PUSH0 DUP2 SWAP1 POP SWAP2 SWAP1 POP JUMP JUMPDEST PUSH0 PUSH2 0xD03 PUSH2 0xCFE PUSH2 0xCF9 DUP5 PUSH2 0xB1C JUMP JUMPDEST PUSH2 0xCE0 JUMP JUMPDEST PUSH2 0xB1C JUMP JUMPDEST SWAP1 POP SWAP2 SWAP1 POP JUMP JUMPDEST PUSH0 PUSH2 0xD14 DUP3 PUSH2 0xCE9 JUMP JUMPDEST SWAP1 POP SWAP2 SWAP1 POP JUMP JUMPDEST PUSH0 PUSH2 0xD25 DUP3 PUSH2 0xD0A JUMP JUMPDEST SWAP1 POP SWAP2 SWAP1 POP JUMP JUMPDEST PUSH2 0xD35 DUP2 PUSH2 0xD1B JUMP JUMPDEST DUP3 MSTORE POP POP JUMP JUMPDEST PUSH0 PUSH1 0x20 DUP3 ADD SWAP1 POP PUSH2 0xD4E PUSH0 DUP4 ADD DUP5 PUSH2 0xD2C JUMP JUMPDEST SWAP3 SWAP2 POP POP JUMP JUMPDEST PUSH0 DUP3 DUP3 MSTORE PUSH1 0x20 DUP3 ADD SWAP1 POP SWAP3 SWAP2 POP POP JUMP JUMPDEST PUSH32 0x4F6E6C7920746F6B656E20636F6E74726163742063616E2063616C6C00000000 PUSH0 DUP3 ADD MSTORE POP JUMP JUMPDEST PUSH0 PUSH2 0xD98 PUSH1 0x1C DUP4 PUSH2 0xD54 JUMP JUMPDEST SWAP2 POP PUSH2 0xDA3 DUP3 PUSH2 0xD64 JUMP JUMPDEST PUSH1 0x20 DUP3 ADD SWAP1 POP SWAP2 SWAP1 POP JUMP JUMPDEST PUSH0 PUSH1 0x20 DUP3 ADD SWAP1 POP DUP2 DUP2 SUB PUSH0 DUP4 ADD MSTORE PUSH2 0xDC5 DUP2 PUSH2 0xD8C JUMP JUMPDEST SWAP1 POP SWAP2 SWAP1 POP JUMP JUMPDEST PUSH32 0x4E487B7100000000000000000000000000000000000000000000000000000000 PUSH0 MSTORE PUSH1 0x11 PUSH1 0x4 MSTORE PUSH1 0x24 PUSH0 REVERT JUMPDEST PUSH0 PUSH2 0xE03 DUP3 PUSH2 0xB76 JUMP JUMPDEST SWAP2 POP PUSH2 0xE0E DUP4 PUSH2 0xB76 JUMP JUMPDEST SWAP3 POP DUP3 DUP3 ADD SWAP1 POP DUP1 DUP3 GT ISZERO PUSH2 0xE26 JUMPI PUSH2 0xE25 PUSH2 0xDCC JUMP JUMPDEST JUMPDEST SWAP3 SWAP2 POP POP JUMP JUMPDEST PUSH32 0x416D6F756E74206D7573742062652067726561746572207468616E2030000000 PUSH0 DUP3 ADD MSTORE POP JUMP JUMPDEST PUSH0 PUSH2 0xE60 PUSH1 0x1D DUP4 PUSH2 0xD54 JUMP JUMPDEST SWAP2 POP PUSH2 0xE6B DUP3 PUSH2 0xE2C JUMP JUMPDEST PUSH1 0x20 DUP3 ADD SWAP1 POP SWAP2 SWAP1 POP JUMP JUMPDEST PUSH0 PUSH1 0x20 DUP3 ADD SWAP1 POP DUP2 DUP2 SUB PUSH0 DUP4 ADD MSTORE PUSH2 0xE8D DUP2 PUSH2 0xE54 JUMP JUMPDEST SWAP1 POP SWAP2 SWAP1 POP JUMP JUMPDEST PUSH32 0x496E73756666696369656E742062616C616E6365000000000000000000000000 PUSH0 DUP3 ADD MSTORE POP JUMP JUMPDEST PUSH0 PUSH2 0xEC8 PUSH1 0x14 DUP4 PUSH2 0xD54 JUMP JUMPDEST SWAP2 POP PUSH2 0xED3 DUP3 PUSH2 0xE94 JUMP JUMPDEST PUSH1 0x20 DUP3 ADD SWAP1 POP SWAP2 SWAP1 POP JUMP JUMPDEST PUSH0 PUSH1 0x20 DUP3 ADD SWAP1 POP DUP2 DUP2 SUB PUSH0 DUP4 ADD MSTORE PUSH2 0xEF5 DUP2 PUSH2 0xEBC JUMP JUMPDEST SWAP1 POP SWAP2 SWAP1 POP JUMP JUMPDEST PUSH0 PUSH2 0xF06 DUP3 PUSH2 0xB76 JUMP JUMPDEST SWAP2 POP PUSH2 0xF11 DUP4 PUSH2 0xB76 JUMP JUMPDEST SWAP3 POP DUP3 DUP3 SUB SWAP1 POP DUP2 DUP2 GT ISZERO PUSH2 0xF29 JUMPI PUSH2 0xF28 PUSH2 0xDCC JUMP JUMPDEST JUMPDEST SWAP3 SWAP2 POP POP JUMP JUMPDEST PUSH0 PUSH1 0x40 DUP3 ADD SWAP1 POP PUSH2 0xF42 PUSH0 DUP4 ADD DUP6 PUSH2 0xCB8 JUMP JUMPDEST PUSH2 0xF4F PUSH1 0x20 DUP4 ADD DUP5 PUSH2 0xC65 JUMP JUMPDEST SWAP4 SWAP3 POP POP POP JUMP JUMPDEST PUSH0 DUP2 ISZERO ISZERO SWAP1 POP SWAP2 SWAP1 POP JUMP JUMPDEST PUSH2 0xF6A DUP2 PUSH2 0xF56 JUMP JUMPDEST DUP2 EQ PUSH2 0xF74 JUMPI PUSH0 DUP1 REVERT JUMPDEST POP JUMP JUMPDEST PUSH0 DUP2 MLOAD SWAP1 POP PUSH2 0xF85 DUP2 PUSH2 0xF61 JUMP JUMPDEST SWAP3 SWAP2 POP POP JUMP JUMPDEST PUSH0 PUSH1 0x20 DUP3 DUP5 SUB SLT ISZERO PUSH2 0xFA0 JUMPI PUSH2 0xF9F PUSH2 0xB18 JUMP JUMPDEST JUMPDEST PUSH0 PUSH2 0xFAD DUP5 DUP3 DUP6 ADD PUSH2 0xF77 JUMP JUMPDEST SWAP2 POP POP SWAP3 SWAP2 POP POP JUMP JUMPDEST PUSH32 0x5472616E73666572206661696C65640000000000000000000000000000000000 PUSH0 DUP3 ADD MSTORE POP JUMP JUMPDEST PUSH0 PUSH2 0xFEA PUSH1 0xF DUP4 PUSH2 0xD54 JUMP JUMPDEST SWAP2 POP PUSH2 0xFF5 DUP3 PUSH2 0xFB6 JUMP JUMPDEST PUSH1 0x20 DUP3 ADD SWAP1 POP SWAP2 SWAP1 POP JUMP JUMPDEST PUSH0 PUSH1 0x20 DUP3 ADD SWAP1 POP DUP2 DUP2 SUB PUSH0 DUP4 ADD MSTORE PUSH2 0x1017 DUP2 PUSH2 0xFDE JUMP JUMPDEST SWAP1 POP SWAP2 SWAP1 POP JUMP JUMPDEST PUSH32 0x4F6E6C792061646D696E2063616E207769746864726177000000000000000000 PUSH0 DUP3 ADD MSTORE POP JUMP JUMPDEST PUSH0 PUSH2 0x1052 PUSH1 0x17 DUP4 PUSH2 0xD54 JUMP JUMPDEST SWAP2 POP PUSH2 0x105D DUP3 PUSH2 0x101E JUMP JUMPDEST PUSH1 0x20 DUP3 ADD SWAP1 POP SWAP2 SWAP1 POP JUMP JUMPDEST PUSH0 PUSH1 0x20 DUP3 ADD SWAP1 POP DUP2 DUP2 SUB PUSH0 DUP4 ADD MSTORE PUSH2 0x107F DUP2 PUSH2 0x1046 JUMP JUMPDEST SWAP1 POP SWAP2 SWAP1 POP JUMP JUMPDEST PUSH0 DUP2 MLOAD SWAP1 POP PUSH2 0x1094 DUP2 PUSH2 0xB7F JUMP JUMPDEST SWAP3 SWAP2 POP POP JUMP JUMPDEST PUSH0 PUSH1 0x20 DUP3 DUP5 SUB SLT ISZERO PUSH2 0x10AF JUMPI PUSH2 0x10AE PUSH2 0xB18 JUMP JUMPDEST JUMPDEST PUSH0 PUSH2 0x10BC DUP5 DUP3 DUP6 ADD PUSH2 0x1086 JUMP JUMPDEST SWAP2 POP POP SWAP3 SWAP2 POP POP JUMP JUMPDEST PUSH32 0x4E6F20746F6B656E7320746F2077697468647261770000000000000000000000 PUSH0 DUP3 ADD MSTORE POP JUMP JUMPDEST PUSH0 PUSH2 0x10F9 PUSH1 0x15 DUP4 PUSH2 0xD54 JUMP JUMPDEST SWAP2 POP PUSH2 0x1104 DUP3 PUSH2 0x10C5 JUMP JUMPDEST PUSH1 0x20 DUP3 ADD SWAP1 POP SWAP2 SWAP1 POP JUMP JUMPDEST PUSH0 PUSH1 0x20 DUP3 ADD SWAP1 POP DUP2 DUP2 SUB PUSH0 DUP4 ADD MSTORE PUSH2 0x1126 DUP2 PUSH2 0x10ED JUMP JUMPDEST SWAP1 POP SWAP2 SWAP1 POP JUMP JUMPDEST PUSH32 0x5769746864726177616C206661696C6564000000000000000000000000000000 PUSH0 DUP3 ADD MSTORE POP JUMP JUMPDEST PUSH0 PUSH2 0x1161 PUSH1 0x11 DUP4 PUSH2 0xD54 JUMP JUMPDEST SWAP2 POP PUSH2 0x116C DUP3 PUSH2 0x112D JUMP JUMPDEST PUSH1 0x20 DUP3 ADD SWAP1 POP SWAP2 SWAP1 POP JUMP JUMPDEST PUSH0 PUSH1 0x20 DUP3 ADD SWAP1 POP DUP2 DUP2 SUB PUSH0 DUP4 ADD MSTORE PUSH2 0x118E DUP2 PUSH2 0x1155 JUMP JUMPDEST SWAP1 POP SWAP2 SWAP1 POP JUMP JUMPDEST PUSH0 PUSH1 0x60 DUP3 ADD SWAP1 POP PUSH2 0x11A8 PUSH0 DUP4 ADD DUP7 PUSH2 0xCB8 JUMP JUMPDEST PUSH2 0x11B5 PUSH1 0x20 DUP4 ADD DUP6 PUSH2 0xCB8 JUMP JUMPDEST PUSH2 0x11C2 PUSH1 0x40 DUP4 ADD DUP5 PUSH2 0xC65 JUMP JUMPDEST SWAP5 SWAP4 POP POP POP POP JUMP INVALID LOG2 PUSH5 0x6970667358 0x22 SLT KECCAK256 0xD5 DELEGATECALL AND MOD PUSH29 0xD5F7E3E616A23D4D1EB3A23A91354C47BAC768A68305B0907E67BA6473 PUSH16 0x6C634300081A00330000000000000000 "
				},
				"gasEstimates": {
					"creation": {
						"codeDepositCost": "921600",
						"executionCost": "infinite",
						"totalCost": "infinite"
					},
					"external": {
						"admin()": "2574",
						"balances(address)": "2825",
						"deposit(uint256)": "infinite",
						"getBankBalance()": "infinite",
						"getDepositRecord(address)": "2829",
						"token()": "infinite",
						"tokensReceived(address,uint256)": "infinite",
						"userWithdraw(uint256)": "infinite",
						"withdraw()": "infinite"
					}
				},
				"methodIdentifiers": {
					"admin()": "f851a440",
					"balances(address)": "27e235e3",
					"deposit(uint256)": "b6b55f25",
					"getBankBalance()": "7b83b50b",
					"getDepositRecord(address)": "3dc58149",
					"token()": "fc0c546a",
					"tokensReceived(address,uint256)": "24a756d1",
					"userWithdraw(uint256)": "3b9056bf",
					"withdraw()": "3ccfd60b"
				}
			},
			"storageLayout": {
				"storage": [
					{
						"astId": 257,
						"contract": "study_way/src/9day_tokenBANKV2.sol:TokenBankV2",
						"label": "token",
						"offset": 0,
						"slot": "0",
						"type": "t_contract(BaseERC20)251"
					},
					{
						"astId": 259,
						"contract": "study_way/src/9day_tokenBANKV2.sol:TokenBankV2",
						"label": "admin",
						"offset": 0,
						"slot": "1",
						"type": "t_address"
					},
					{
						"astId": 263,
						"contract": "study_way/src/9day_tokenBANKV2.sol:TokenBankV2",
						"label": "balances",
						"offset": 0,
						"slot": "2",
						"type": "t_mapping(t_address,t_uint256)"
					}
				],
				"types": {
					"t_address": {
						"encoding": "inplace",
						"label": "address",
						"numberOfBytes": "20"
					},
					"t_contract(BaseERC20)251": {
						"encoding": "inplace",
						"label": "contract BaseERC20",
						"numberOfBytes": "20"
					},
					"t_mapping(t_address,t_uint256)": {
						"encoding": "mapping",
						"key": "t_address",
						"label": "mapping(address => uint256)",
						"numberOfBytes": "32",
						"value": "t_uint256"
					},
					"t_uint256": {
						"encoding": "inplace",
						"label": "uint256",
						"numberOfBytes": "32"
					}
				}
			},
			"userdoc": {
				"kind": "user",
				"methods": {},
				"version": 1
			}
		}
	}
}