{
	"study_way/src/4day_bankConstractExtend.sol": {
		"BigBank": {
			"abi": [
				{
					"anonymous": false,
					"inputs": [
						{
							"indexed": true,
							"internalType": "address",
							"name": "from",
							"type": "address"
						},
						{
							"indexed": true,
							"internalType": "address",
							"name": "to",
							"type": "address"
						},
						{
							"indexed": false,
							"internalType": "uint256",
							"name": "amount",
							"type": "uint256"
						}
					],
					"name": "Deposit",
					"type": "event"
				},
				{
					"anonymous": false,
					"inputs": [
						{
							"indexed": true,
							"internalType": "address",
							"name": "user",
							"type": "address"
						},
						{
							"indexed": false,
							"internalType": "uint256",
							"name": "amount",
							"type": "uint256"
						}
					],
					"name": "TopUserUpdated",
					"type": "event"
				},
				{
					"anonymous": false,
					"inputs": [
						{
							"indexed": true,
							"internalType": "address",
							"name": "admin",
							"type": "address"
						},
						{
							"indexed": false,
							"internalType": "uint256",
							"name": "amount",
							"type": "uint256"
						}
					],
					"name": "Withdraw",
					"type": "event"
				},
				{
					"stateMutability": "payable",
					"type": "fallback"
				},
				{
					"inputs": [],
					"name": "admin",
					"outputs": [
						{
							"internalType": "address",
							"name": "",
							"type": "address"
						}
					],
					"stateMutability": "view",
					"type": "function"
				},
				{
					"inputs": [
						{
							"internalType": "address",
							"name": "",
							"type": "address"
						}
					],
					"name": "balances",
					"outputs": [
						{
							"internalType": "uint256",
							"name": "",
							"type": "uint256"
						}
					],
					"stateMutability": "view",
					"type": "function"
				},
				{
					"inputs": [],
					"name": "deposit",
					"outputs": [],
					"stateMutability": "payable",
					"type": "function"
				},
				{
					"inputs": [],
					"name": "getContractBalance",
					"outputs": [
						{
							"internalType": "uint256",
							"name": "",
							"type": "uint256"
						}
					],
					"stateMutability": "view",
					"type": "function"
				},
				{
					"inputs": [],
					"name": "getTopUsers",
					"outputs": [
						{
							"internalType": "address[]",
							"name": "",
							"type": "address[]"
						},
						{
							"internalType": "uint256[]",
							"name": "",
							"type": "uint256[]"
						}
					],
					"stateMutability": "view",
					"type": "function"
				},
				{
					"inputs": [
						{
							"internalType": "address",
							"name": "user",
							"type": "address"
						}
					],
					"name": "getUserBalance",
					"outputs": [
						{
							"internalType": "uint256",
							"name": "",
							"type": "uint256"
						}
					],
					"stateMutability": "view",
					"type": "function"
				},
				{
					"inputs": [
						{
							"internalType": "uint256",
							"name": "",
							"type": "uint256"
						}
					],
					"name": "topDeposits",
					"outputs": [
						{
							"internalType": "uint256",
							"name": "",
							"type": "uint256"
						}
					],
					"stateMutability": "view",
					"type": "function"
				},
				{
					"inputs": [
						{
							"internalType": "uint256",
							"name": "",
							"type": "uint256"
						}
					],
					"name": "topUsers",
					"outputs": [
						{
							"internalType": "address",
							"name": "",
							"type": "address"
						}
					],
					"stateMutability": "view",
					"type": "function"
				},
				{
					"inputs": [
						{
							"internalType": "address",
							"name": "newAdmin",
							"type": "address"
						}
					],
					"name": "transferAdmin",
					"outputs": [],
					"stateMutability": "nonpayable",
					"type": "function"
				},
				{
					"inputs": [
						{
							"internalType": "uint256",
							"name": "",
							"type": "uint256"
						}
					],
					"name": "users",
					"outputs": [
						{
							"internalType": "address",
							"name": "",
							"type": "address"
						}
					],
					"stateMutability": "view",
					"type": "function"
				},
				{
					"inputs": [],
					"name": "withdraw",
					"outputs": [],
					"stateMutability": "nonpayable",
					"type": "function"
				},
				{
					"stateMutability": "payable",
					"type": "receive"
				}
			],
			"devdoc": {
				"kind": "dev",
				"methods": {},
				"version": 1
			},
			"evm": {
				"assembly": "    /* \"study_way/src/4day_bankConstractExtend.sol\":6719:7612  contract BigBank is Bank {... */\n  mstore(0x40, 0x80)\n  callvalue\n  dup1\n  iszero\n  tag_1\n  jumpi\n  0x00\n  dup1\n  revert\ntag_1:\n  pop\n    /* \"study_way/src/4day_bankConstractExtend.sol\":1713:1723  msg.sender */\n  caller\n    /* \"study_way/src/4day_bankConstractExtend.sol\":1705:1710  admin */\n  0x00\n  dup1\n    /* \"study_way/src/4day_bankConstractExtend.sol\":1705:1723  admin = msg.sender */\n  0x0100\n  exp\n  dup2\n  sload\n  dup2\n  0xffffffffffffffffffffffffffffffffffffffff\n  mul\n  not\n  and\n  swap1\n  dup4\n  0xffffffffffffffffffffffffffffffffffffffff\n  and\n  mul\n  or\n  swap1\n  sstore\n  pop\n    /* \"study_way/src/4day_bankConstractExtend.sol\":6719:7612  contract BigBank is Bank {... */\n  dataSize(sub_0)\n  dup1\n  dataOffset(sub_0)\n  0x00\n  codecopy\n  0x00\n  return\nstop\n\nsub_0: assembly {\n        /* \"study_way/src/4day_bankConstractExtend.sol\":6719:7612  contract BigBank is Bank {... */\n      mstore(0x40, 0x80)\n      jumpi(tag_1, lt(calldatasize, 0x04))\n      shr(0xe0, calldataload(0x00))\n      dup1\n      0x6f9fb98a\n      gt\n      tag_14\n      jumpi\n      dup1\n      0x6f9fb98a\n      eq\n      tag_8\n      jumpi\n      dup1\n      0x75829def\n      eq\n      tag_9\n      jumpi\n      dup1\n      0x91c1aae6\n      eq\n      tag_10\n      jumpi\n      dup1\n      0xd0e30db0\n      eq\n      tag_11\n      jumpi\n      dup1\n      0xf39dfb17\n      eq\n      tag_12\n      jumpi\n      dup1\n      0xf851a440\n      eq\n      tag_13\n      jumpi\n      jump(tag_2)\n    tag_14:\n      dup1\n      0x27e235e3\n      eq\n      tag_3\n      jumpi\n      dup1\n      0x365b98b2\n      eq\n      tag_4\n      jumpi\n      dup1\n      0x3ccfd60b\n      eq\n      tag_5\n      jumpi\n      dup1\n      0x47734892\n      eq\n      tag_6\n      jumpi\n      dup1\n      0x689dbf4e\n      eq\n      tag_7\n      jumpi\n      jump(tag_2)\n    tag_1:\n      jumpi(tag_2, calldatasize)\n        /* \"study_way/src/4day_bankConstractExtend.sol\":6819:6830  0.001 ether */\n      0x038d7ea4c68000\n        /* \"study_way/src/4day_bankConstractExtend.sol\":6807:6816  msg.value */\n      callvalue\n        /* \"study_way/src/4day_bankConstractExtend.sol\":6807:6830  msg.value > 0.001 ether */\n      gt\n        /* \"study_way/src/4day_bankConstractExtend.sol\":6786:6896  require(... */\n      tag_17\n      jumpi\n      mload(0x40)\n      0x08c379a000000000000000000000000000000000000000000000000000000000\n      dup2\n      mstore\n      0x04\n      add\n      tag_18\n      swap1\n      tag_19\n      jump\t// in\n    tag_18:\n      mload(0x40)\n      dup1\n      swap2\n      sub\n      swap1\n      revert\n    tag_17:\n        /* \"study_way/src/4day_bankConstractExtend.sol\":7454:7491  _handleDeposit(msg.sender, msg.value) */\n      tag_21\n        /* \"study_way/src/4day_bankConstractExtend.sol\":7469:7479  msg.sender */\n      caller\n        /* \"study_way/src/4day_bankConstractExtend.sol\":7481:7490  msg.value */\n      callvalue\n        /* \"study_way/src/4day_bankConstractExtend.sol\":7454:7468  _handleDeposit */\n      tag_22\n        /* \"study_way/src/4day_bankConstractExtend.sol\":7454:7491  _handleDeposit(msg.sender, msg.value) */\n      jump\t// in\n    tag_21:\n        /* \"study_way/src/4day_bankConstractExtend.sol\":6719:7612  contract BigBank is Bank {... */\n      stop\n    tag_2:\n        /* \"study_way/src/4day_bankConstractExtend.sol\":6819:6830  0.001 ether */\n      0x038d7ea4c68000\n        /* \"study_way/src/4day_bankConstractExtend.sol\":6807:6816  msg.value */\n      callvalue\n        /* \"study_way/src/4day_bankConstractExtend.sol\":6807:6830  msg.value > 0.001 ether */\n      gt\n        /* \"study_way/src/4day_bankConstractExtend.sol\":6786:6896  require(... */\n      tag_25\n      jumpi\n      mload(0x40)\n      0x08c379a000000000000000000000000000000000000000000000000000000000\n      dup2\n      mstore\n      0x04\n      add\n      tag_26\n      swap1\n      tag_19\n      jump\t// in\n    tag_26:\n      mload(0x40)\n      dup1\n      swap2\n      sub\n      swap1\n      revert\n    tag_25:\n        /* \"study_way/src/4day_bankConstractExtend.sol\":7566:7603  _handleDeposit(msg.sender, msg.value) */\n      tag_28\n        /* \"study_way/src/4day_bankConstractExtend.sol\":7581:7591  msg.sender */\n      caller\n        /* \"study_way/src/4day_bankConstractExtend.sol\":7593:7602  msg.value */\n      callvalue\n        /* \"study_way/src/4day_bankConstractExtend.sol\":7566:7580  _handleDeposit */\n      tag_22\n        /* \"study_way/src/4day_bankConstractExtend.sol\":7566:7603  _handleDeposit(msg.sender, msg.value) */\n      jump\t// in\n    tag_28:\n        /* \"study_way/src/4day_bankConstractExtend.sol\":6719:7612  contract BigBank is Bank {... */\n      stop\n        /* \"study_way/src/4day_bankConstractExtend.sol\":631:674  mapping(address => uint256) public balances */\n    tag_3:\n      callvalue\n      dup1\n      iszero\n      tag_29\n      jumpi\n      0x00\n      dup1\n      revert\n    tag_29:\n      pop\n      tag_30\n      0x04\n      dup1\n      calldatasize\n      sub\n      dup2\n      add\n      swap1\n      tag_31\n      swap2\n      swap1\n      tag_32\n      jump\t// in\n    tag_31:\n      tag_33\n      jump\t// in\n    tag_30:\n      mload(0x40)\n      tag_34\n      swap2\n      swap1\n      tag_35\n      jump\t// in\n    tag_34:\n      mload(0x40)\n      dup1\n      swap2\n      sub\n      swap1\n      return\n        /* \"study_way/src/4day_bankConstractExtend.sol\":751:773  address[] public users */\n    tag_4:\n      callvalue\n      dup1\n      iszero\n      tag_36\n      jumpi\n      0x00\n      dup1\n      revert\n    tag_36:\n      pop\n      tag_37\n      0x04\n      dup1\n      calldatasize\n      sub\n      dup2\n      add\n      swap1\n      tag_38\n      swap2\n      swap1\n      tag_39\n      jump\t// in\n    tag_38:\n      tag_40\n      jump\t// in\n    tag_37:\n      mload(0x40)\n      tag_41\n      swap2\n      swap1\n      tag_42\n      jump\t// in\n    tag_41:\n      mload(0x40)\n      dup1\n      swap2\n      sub\n      swap1\n      return\n        /* \"study_way/src/4day_bankConstractExtend.sol\":2057:2326  function withdraw() external virtual onlyAdmin {... */\n    tag_5:\n      callvalue\n      dup1\n      iszero\n      tag_43\n      jumpi\n      0x00\n      dup1\n      revert\n    tag_43:\n      pop\n      tag_44\n      tag_45\n      jump\t// in\n    tag_44:\n      stop\n        /* \"study_way/src/4day_bankConstractExtend.sol\":5410:5518  function getUserBalance(address user) external view returns (uint256) {... */\n    tag_6:\n      callvalue\n      dup1\n      iszero\n      tag_46\n      jumpi\n      0x00\n      dup1\n      revert\n    tag_46:\n      pop\n      tag_47\n      0x04\n      dup1\n      calldatasize\n      sub\n      dup2\n      add\n      swap1\n      tag_48\n      swap2\n      swap1\n      tag_32\n      jump\t// in\n    tag_48:\n      tag_49\n      jump\t// in\n    tag_47:\n      mload(0x40)\n      tag_50\n      swap2\n      swap1\n      tag_35\n      jump\t// in\n    tag_50:\n      mload(0x40)\n      dup1\n      swap2\n      sub\n      swap1\n      return\n        /* \"study_way/src/4day_bankConstractExtend.sol\":975:1000  address[] public topUsers */\n    tag_7:\n      callvalue\n      dup1\n      iszero\n      tag_51\n      jumpi\n      0x00\n      dup1\n      revert\n    tag_51:\n      pop\n      tag_52\n      0x04\n      dup1\n      calldatasize\n      sub\n      dup2\n      add\n      swap1\n      tag_53\n      swap2\n      swap1\n      tag_39\n      jump\t// in\n    tag_53:\n      tag_54\n      jump\t// in\n    tag_52:\n      mload(0x40)\n      tag_55\n      swap2\n      swap1\n      tag_42\n      jump\t// in\n    tag_55:\n      mload(0x40)\n      dup1\n      swap2\n      sub\n      swap1\n      return\n        /* \"study_way/src/4day_bankConstractExtend.sol\":5571:5678  function getContractBalance() external view returns (uint256) {... */\n    tag_8:\n      callvalue\n      dup1\n      iszero\n      tag_56\n      jumpi\n      0x00\n      dup1\n      revert\n    tag_56:\n      pop\n      tag_57\n      tag_58\n      jump\t// in\n    tag_57:\n      mload(0x40)\n      tag_59\n      swap2\n      swap1\n      tag_35\n      jump\t// in\n    tag_59:\n      mload(0x40)\n      dup1\n      swap2\n      sub\n      swap1\n      return\n        /* \"study_way/src/4day_bankConstractExtend.sol\":7153:7323  function transferAdmin(address newAdmin) external onlyAdmin {... */\n    tag_9:\n      callvalue\n      dup1\n      iszero\n      tag_60\n      jumpi\n      0x00\n      dup1\n      revert\n    tag_60:\n      pop\n      tag_61\n      0x04\n      dup1\n      calldatasize\n      sub\n      dup2\n      add\n      swap1\n      tag_62\n      swap2\n      swap1\n      tag_32\n      jump\t// in\n    tag_62:\n      tag_63\n      jump\t// in\n    tag_61:\n      stop\n        /* \"study_way/src/4day_bankConstractExtend.sol\":860:888  uint256[] public topDeposits */\n    tag_10:\n      callvalue\n      dup1\n      iszero\n      tag_64\n      jumpi\n      0x00\n      dup1\n      revert\n    tag_64:\n      pop\n      tag_65\n      0x04\n      dup1\n      calldatasize\n      sub\n      dup2\n      add\n      swap1\n      tag_66\n      swap2\n      swap1\n      tag_39\n      jump\t// in\n    tag_66:\n      tag_67\n      jump\t// in\n    tag_65:\n      mload(0x40)\n      tag_68\n      swap2\n      swap1\n      tag_35\n      jump\t// in\n    tag_68:\n      mload(0x40)\n      dup1\n      swap2\n      sub\n      swap1\n      return\n        /* \"study_way/src/4day_bankConstractExtend.sol\":6992:7106  function deposit() external payable override minimumDeposit {... */\n    tag_11:\n      tag_69\n      tag_70\n      jump\t// in\n    tag_69:\n      stop\n        /* \"study_way/src/4day_bankConstractExtend.sol\":5179:5336  function getTopUsers()... */\n    tag_12:\n      callvalue\n      dup1\n      iszero\n      tag_71\n      jumpi\n      0x00\n      dup1\n      revert\n    tag_71:\n      pop\n      tag_72\n      tag_73\n      jump\t// in\n    tag_72:\n      mload(0x40)\n      tag_74\n      swap3\n      swap2\n      swap1\n      tag_75\n      jump\t// in\n    tag_74:\n      mload(0x40)\n      dup1\n      swap2\n      sub\n      swap1\n      return\n        /* \"study_way/src/4day_bankConstractExtend.sol\":549:569  address public admin */\n    tag_13:\n      callvalue\n      dup1\n      iszero\n      tag_76\n      jumpi\n      0x00\n      dup1\n      revert\n    tag_76:\n      pop\n      tag_77\n      tag_78\n      jump\t// in\n    tag_77:\n      mload(0x40)\n      tag_79\n      swap2\n      swap1\n      tag_42\n      jump\t// in\n    tag_79:\n      mload(0x40)\n      dup1\n      swap2\n      sub\n      swap1\n      return\n        /* \"study_way/src/4day_bankConstractExtend.sol\":5725:6231  function _handleDeposit(address user, uint256 amount) internal {... */\n    tag_22:\n        /* \"study_way/src/4day_bankConstractExtend.sol\":5913:5914  0 */\n      0x00\n        /* \"study_way/src/4day_bankConstractExtend.sol\":5895:5903  balances */\n      0x01\n        /* \"study_way/src/4day_bankConstractExtend.sol\":5895:5909  balances[user] */\n      0x00\n        /* \"study_way/src/4day_bankConstractExtend.sol\":5904:5908  user */\n      dup5\n        /* \"study_way/src/4day_bankConstractExtend.sol\":5895:5909  balances[user] */\n      0xffffffffffffffffffffffffffffffffffffffff\n      and\n      0xffffffffffffffffffffffffffffffffffffffff\n      and\n      dup2\n      mstore\n      0x20\n      add\n      swap1\n      dup2\n      mstore\n      0x20\n      add\n      0x00\n      keccak256\n      sload\n        /* \"study_way/src/4day_bankConstractExtend.sol\":5895:5914  balances[user] == 0 */\n      sub\n        /* \"study_way/src/4day_bankConstractExtend.sol\":5891:5957  if (balances[user] == 0) {... */\n      tag_81\n      jumpi\n        /* \"study_way/src/4day_bankConstractExtend.sol\":5930:5935  users */\n      0x02\n        /* \"study_way/src/4day_bankConstractExtend.sol\":5941:5945  user */\n      dup3\n        /* \"study_way/src/4day_bankConstractExtend.sol\":5930:5946  users.push(user) */\n      swap1\n      dup1\n      0x01\n      dup2\n      sload\n      add\n      dup1\n      dup3\n      sstore\n      dup1\n      swap2\n      pop\n      pop\n      0x01\n      swap1\n      sub\n      swap1\n      0x00\n      mstore\n      keccak256(0x00, 0x20)\n      add\n      0x00\n      swap1\n      swap2\n      swap1\n      swap2\n      swap1\n      swap2\n      0x0100\n      exp\n      dup2\n      sload\n      dup2\n      0xffffffffffffffffffffffffffffffffffffffff\n      mul\n      not\n      and\n      swap1\n      dup4\n      0xffffffffffffffffffffffffffffffffffffffff\n      and\n      mul\n      or\n      swap1\n      sstore\n      pop\n        /* \"study_way/src/4day_bankConstractExtend.sol\":5891:5957  if (balances[user] == 0) {... */\n    tag_81:\n        /* \"study_way/src/4day_bankConstractExtend.sol\":6054:6060  amount */\n      dup1\n        /* \"study_way/src/4day_bankConstractExtend.sol\":6036:6044  balances */\n      0x01\n        /* \"study_way/src/4day_bankConstractExtend.sol\":6036:6050  balances[user] */\n      0x00\n        /* \"study_way/src/4day_bankConstractExtend.sol\":6045:6049  user */\n      dup5\n        /* \"study_way/src/4day_bankConstractExtend.sol\":6036:6050  balances[user] */\n      0xffffffffffffffffffffffffffffffffffffffff\n      and\n      0xffffffffffffffffffffffffffffffffffffffff\n      and\n      dup2\n      mstore\n      0x20\n      add\n      swap1\n      dup2\n      mstore\n      0x20\n      add\n      0x00\n      keccak256\n      0x00\n        /* \"study_way/src/4day_bankConstractExtend.sol\":6036:6060  balances[user] += amount */\n      dup3\n      dup3\n      sload\n      tag_83\n      swap2\n      swap1\n      tag_84\n      jump\t// in\n    tag_83:\n      swap3\n      pop\n      pop\n      dup2\n      swap1\n      sstore\n      pop\n        /* \"study_way/src/4day_bankConstractExtend.sol\":6131:6135  this */\n      address\n        /* \"study_way/src/4day_bankConstractExtend.sol\":6109:6145  Deposit(user, address(this), amount) */\n      0xffffffffffffffffffffffffffffffffffffffff\n      and\n        /* \"study_way/src/4day_bankConstractExtend.sol\":6117:6121  user */\n      dup3\n        /* \"study_way/src/4day_bankConstractExtend.sol\":6109:6145  Deposit(user, address(this), amount) */\n      0xffffffffffffffffffffffffffffffffffffffff\n      and\n      0x5548c837ab068cf56a2c2479df0882a4922fd203edb7517321831d95078c5f62\n        /* \"study_way/src/4day_bankConstractExtend.sol\":6138:6144  amount */\n      dup4\n        /* \"study_way/src/4day_bankConstractExtend.sol\":6109:6145  Deposit(user, address(this), amount) */\n      mload(0x40)\n      tag_85\n      swap2\n      swap1\n      tag_35\n      jump\t// in\n    tag_85:\n      mload(0x40)\n      dup1\n      swap2\n      sub\n      swap1\n      log3\n        /* \"study_way/src/4day_bankConstractExtend.sol\":6196:6224  updateTopUsers(user, amount) */\n      tag_86\n        /* \"study_way/src/4day_bankConstractExtend.sol\":6211:6215  user */\n      dup3\n        /* \"study_way/src/4day_bankConstractExtend.sol\":6217:6223  amount */\n      dup3\n        /* \"study_way/src/4day_bankConstractExtend.sol\":6196:6210  updateTopUsers */\n      tag_87\n        /* \"study_way/src/4day_bankConstractExtend.sol\":6196:6224  updateTopUsers(user, amount) */\n      jump\t// in\n    tag_86:\n        /* \"study_way/src/4day_bankConstractExtend.sol\":5725:6231  function _handleDeposit(address user, uint256 amount) internal {... */\n      pop\n      pop\n      jump\t// out\n        /* \"study_way/src/4day_bankConstractExtend.sol\":631:674  mapping(address => uint256) public balances */\n    tag_33:\n      mstore(0x20, 0x01)\n      dup1\n      0x00\n      mstore\n      keccak256(0x00, 0x40)\n      0x00\n      swap2\n      pop\n      swap1\n      pop\n      sload\n      dup2\n      jump\t// out\n        /* \"study_way/src/4day_bankConstractExtend.sol\":751:773  address[] public users */\n    tag_40:\n      0x02\n      dup2\n      dup2\n      sload\n      dup2\n      lt\n      tag_88\n      jumpi\n      0x00\n      dup1\n      revert\n    tag_88:\n      swap1\n      0x00\n      mstore\n      keccak256(0x00, 0x20)\n      add\n      0x00\n      swap2\n      pop\n      sload\n      swap1\n      0x0100\n      exp\n      swap1\n      div\n      0xffffffffffffffffffffffffffffffffffffffff\n      and\n      dup2\n      jump\t// out\n        /* \"study_way/src/4day_bankConstractExtend.sol\":2057:2326  function withdraw() external virtual onlyAdmin {... */\n    tag_45:\n        /* \"study_way/src/4day_bankConstractExtend.sol\":1439:1444  admin */\n      0x00\n      dup1\n      sload\n      swap1\n      0x0100\n      exp\n      swap1\n      div\n      0xffffffffffffffffffffffffffffffffffffffff\n      and\n        /* \"study_way/src/4day_bankConstractExtend.sol\":1425:1444  msg.sender == admin */\n      0xffffffffffffffffffffffffffffffffffffffff\n      and\n        /* \"study_way/src/4day_bankConstractExtend.sol\":1425:1435  msg.sender */\n      caller\n        /* \"study_way/src/4day_bankConstractExtend.sol\":1425:1444  msg.sender == admin */\n      0xffffffffffffffffffffffffffffffffffffffff\n      and\n      eq\n        /* \"study_way/src/4day_bankConstractExtend.sol\":1417:1486  require(msg.sender == admin, \"Only admin can perform this operation\") */\n      tag_91\n      jumpi\n      mload(0x40)\n      0x08c379a000000000000000000000000000000000000000000000000000000000\n      dup2\n      mstore\n      0x04\n      add\n      tag_92\n      swap1\n      tag_93\n      jump\t// in\n    tag_92:\n      mload(0x40)\n      dup1\n      swap2\n      sub\n      swap1\n      revert\n    tag_91:\n        /* \"study_way/src/4day_bankConstractExtend.sol\":2114:2128  uint256 amount */\n      0x00\n        /* \"study_way/src/4day_bankConstractExtend.sol\":2131:2152  address(this).balance */\n      selfbalance\n        /* \"study_way/src/4day_bankConstractExtend.sol\":2114:2152  uint256 amount = address(this).balance */\n      swap1\n      pop\n        /* \"study_way/src/4day_bankConstractExtend.sol\":2179:2180  0 */\n      0x00\n        /* \"study_way/src/4day_bankConstractExtend.sol\":2170:2176  amount */\n      dup2\n        /* \"study_way/src/4day_bankConstractExtend.sol\":2170:2180  amount > 0 */\n      gt\n        /* \"study_way/src/4day_bankConstractExtend.sol\":2162:2205  require(amount > 0, \"No funds to withdraw\") */\n      tag_95\n      jumpi\n      mload(0x40)\n      0x08c379a000000000000000000000000000000000000000000000000000000000\n      dup2\n      mstore\n      0x04\n      add\n      tag_96\n      swap1\n      tag_97\n      jump\t// in\n    tag_96:\n      mload(0x40)\n      dup1\n      swap2\n      sub\n      swap1\n      revert\n    tag_95:\n        /* \"study_way/src/4day_bankConstractExtend.sol\":2296:2301  admin */\n      0x00\n      dup1\n      sload\n      swap1\n      0x0100\n      exp\n      swap1\n      div\n      0xffffffffffffffffffffffffffffffffffffffff\n      and\n        /* \"study_way/src/4day_bankConstractExtend.sol\":2288:2311  payable(admin).transfer */\n      0xffffffffffffffffffffffffffffffffffffffff\n      and\n        /* \"study_way/src/4day_bankConstractExtend.sol\":2288:2319  payable(admin).transfer(amount) */\n      0x08fc\n        /* \"study_way/src/4day_bankConstractExtend.sol\":2312:2318  amount */\n      dup3\n        /* \"study_way/src/4day_bankConstractExtend.sol\":2288:2319  payable(admin).transfer(amount) */\n      swap1\n      dup2\n      iszero\n      mul\n      swap1\n      mload(0x40)\n      0x00\n      mload(0x40)\n      dup1\n      dup4\n      sub\n      dup2\n      dup6\n      dup9\n      dup9\n      call\n      swap4\n      pop\n      pop\n      pop\n      pop\n      iszero\n      dup1\n      iszero\n      tag_99\n      jumpi\n      returndatasize\n      0x00\n      dup1\n      returndatacopy\n      revert(0x00, returndatasize)\n    tag_99:\n      pop\n        /* \"study_way/src/4day_bankConstractExtend.sol\":2104:2326  {... */\n      pop\n        /* \"study_way/src/4day_bankConstractExtend.sol\":2057:2326  function withdraw() external virtual onlyAdmin {... */\n      jump\t// out\n        /* \"study_way/src/4day_bankConstractExtend.sol\":5410:5518  function getUserBalance(address user) external view returns (uint256) {... */\n    tag_49:\n        /* \"study_way/src/4day_bankConstractExtend.sol\":5471:5478  uint256 */\n      0x00\n        /* \"study_way/src/4day_bankConstractExtend.sol\":5497:5505  balances */\n      0x01\n        /* \"study_way/src/4day_bankConstractExtend.sol\":5497:5511  balances[user] */\n      0x00\n        /* \"study_way/src/4day_bankConstractExtend.sol\":5506:5510  user */\n      dup4\n        /* \"study_way/src/4day_bankConstractExtend.sol\":5497:5511  balances[user] */\n      0xffffffffffffffffffffffffffffffffffffffff\n      and\n      0xffffffffffffffffffffffffffffffffffffffff\n      and\n      dup2\n      mstore\n      0x20\n      add\n      swap1\n      dup2\n      mstore\n      0x20\n      add\n      0x00\n      keccak256\n      sload\n        /* \"study_way/src/4day_bankConstractExtend.sol\":5490:5511  return balances[user] */\n      swap1\n      pop\n        /* \"study_way/src/4day_bankConstractExtend.sol\":5410:5518  function getUserBalance(address user) external view returns (uint256) {... */\n      swap2\n      swap1\n      pop\n      jump\t// out\n        /* \"study_way/src/4day_bankConstractExtend.sol\":975:1000  address[] public topUsers */\n    tag_54:\n      0x04\n      dup2\n      dup2\n      sload\n      dup2\n      lt\n      tag_101\n      jumpi\n      0x00\n      dup1\n      revert\n    tag_101:\n      swap1\n      0x00\n      mstore\n      keccak256(0x00, 0x20)\n      add\n      0x00\n      swap2\n      pop\n      sload\n      swap1\n      0x0100\n      exp\n      swap1\n      div\n      0xffffffffffffffffffffffffffffffffffffffff\n      and\n      dup2\n      jump\t// out\n        /* \"study_way/src/4day_bankConstractExtend.sol\":5571:5678  function getContractBalance() external view returns (uint256) {... */\n    tag_58:\n        /* \"study_way/src/4day_bankConstractExtend.sol\":5624:5631  uint256 */\n      0x00\n        /* \"study_way/src/4day_bankConstractExtend.sol\":5650:5671  address(this).balance */\n      selfbalance\n        /* \"study_way/src/4day_bankConstractExtend.sol\":5643:5671  return address(this).balance */\n      swap1\n      pop\n        /* \"study_way/src/4day_bankConstractExtend.sol\":5571:5678  function getContractBalance() external view returns (uint256) {... */\n      swap1\n      jump\t// out\n        /* \"study_way/src/4day_bankConstractExtend.sol\":7153:7323  function transferAdmin(address newAdmin) external onlyAdmin {... */\n    tag_63:\n        /* \"study_way/src/4day_bankConstractExtend.sol\":1439:1444  admin */\n      0x00\n      dup1\n      sload\n      swap1\n      0x0100\n      exp\n      swap1\n      div\n      0xffffffffffffffffffffffffffffffffffffffff\n      and\n        /* \"study_way/src/4day_bankConstractExtend.sol\":1425:1444  msg.sender == admin */\n      0xffffffffffffffffffffffffffffffffffffffff\n      and\n        /* \"study_way/src/4day_bankConstractExtend.sol\":1425:1435  msg.sender */\n      caller\n        /* \"study_way/src/4day_bankConstractExtend.sol\":1425:1444  msg.sender == admin */\n      0xffffffffffffffffffffffffffffffffffffffff\n      and\n      eq\n        /* \"study_way/src/4day_bankConstractExtend.sol\":1417:1486  require(msg.sender == admin, \"Only admin can perform this operation\") */\n      tag_105\n      jumpi\n      mload(0x40)\n      0x08c379a000000000000000000000000000000000000000000000000000000000\n      dup2\n      mstore\n      0x04\n      add\n      tag_106\n      swap1\n      tag_93\n      jump\t// in\n    tag_106:\n      mload(0x40)\n      dup1\n      swap2\n      sub\n      swap1\n      revert\n    tag_105:\n        /* \"study_way/src/4day_bankConstractExtend.sol\":7251:7252  0 */\n      0x00\n        /* \"study_way/src/4day_bankConstractExtend.sol\":7231:7253  newAdmin != address(0) */\n      0xffffffffffffffffffffffffffffffffffffffff\n      and\n        /* \"study_way/src/4day_bankConstractExtend.sol\":7231:7239  newAdmin */\n      dup2\n        /* \"study_way/src/4day_bankConstractExtend.sol\":7231:7253  newAdmin != address(0) */\n      0xffffffffffffffffffffffffffffffffffffffff\n      and\n      sub\n        /* \"study_way/src/4day_bankConstractExtend.sol\":7223:7290  require(newAdmin != address(0), \"New admin cannot be zero address\") */\n      tag_108\n      jumpi\n      mload(0x40)\n      0x08c379a000000000000000000000000000000000000000000000000000000000\n      dup2\n      mstore\n      0x04\n      add\n      tag_109\n      swap1\n      tag_110\n      jump\t// in\n    tag_109:\n      mload(0x40)\n      dup1\n      swap2\n      sub\n      swap1\n      revert\n    tag_108:\n        /* \"study_way/src/4day_bankConstractExtend.sol\":7308:7316  newAdmin */\n      dup1\n        /* \"study_way/src/4day_bankConstractExtend.sol\":7300:7305  admin */\n      0x00\n      dup1\n        /* \"study_way/src/4day_bankConstractExtend.sol\":7300:7316  admin = newAdmin */\n      0x0100\n      exp\n      dup2\n      sload\n      dup2\n      0xffffffffffffffffffffffffffffffffffffffff\n      mul\n      not\n      and\n      swap1\n      dup4\n      0xffffffffffffffffffffffffffffffffffffffff\n      and\n      mul\n      or\n      swap1\n      sstore\n      pop\n        /* \"study_way/src/4day_bankConstractExtend.sol\":7153:7323  function transferAdmin(address newAdmin) external onlyAdmin {... */\n      pop\n      jump\t// out\n        /* \"study_way/src/4day_bankConstractExtend.sol\":860:888  uint256[] public topDeposits */\n    tag_67:\n      0x03\n      dup2\n      dup2\n      sload\n      dup2\n      lt\n      tag_111\n      jumpi\n      0x00\n      dup1\n      revert\n    tag_111:\n      swap1\n      0x00\n      mstore\n      keccak256(0x00, 0x20)\n      add\n      0x00\n      swap2\n      pop\n      swap1\n      pop\n      sload\n      dup2\n      jump\t// out\n        /* \"study_way/src/4day_bankConstractExtend.sol\":6992:7106  function deposit() external payable override minimumDeposit {... */\n    tag_70:\n        /* \"study_way/src/4day_bankConstractExtend.sol\":6819:6830  0.001 ether */\n      0x038d7ea4c68000\n        /* \"study_way/src/4day_bankConstractExtend.sol\":6807:6816  msg.value */\n      callvalue\n        /* \"study_way/src/4day_bankConstractExtend.sol\":6807:6830  msg.value > 0.001 ether */\n      gt\n        /* \"study_way/src/4day_bankConstractExtend.sol\":6786:6896  require(... */\n      tag_114\n      jumpi\n      mload(0x40)\n      0x08c379a000000000000000000000000000000000000000000000000000000000\n      dup2\n      mstore\n      0x04\n      add\n      tag_115\n      swap1\n      tag_19\n      jump\t// in\n    tag_115:\n      mload(0x40)\n      dup1\n      swap2\n      sub\n      swap1\n      revert\n    tag_114:\n        /* \"study_way/src/4day_bankConstractExtend.sol\":7062:7099  _handleDeposit(msg.sender, msg.value) */\n      tag_117\n        /* \"study_way/src/4day_bankConstractExtend.sol\":7077:7087  msg.sender */\n      caller\n        /* \"study_way/src/4day_bankConstractExtend.sol\":7089:7098  msg.value */\n      callvalue\n        /* \"study_way/src/4day_bankConstractExtend.sol\":7062:7076  _handleDeposit */\n      tag_22\n        /* \"study_way/src/4day_bankConstractExtend.sol\":7062:7099  _handleDeposit(msg.sender, msg.value) */\n      jump\t// in\n    tag_117:\n        /* \"study_way/src/4day_bankConstractExtend.sol\":6992:7106  function deposit() external payable override minimumDeposit {... */\n      jump\t// out\n        /* \"study_way/src/4day_bankConstractExtend.sol\":5179:5336  function getTopUsers()... */\n    tag_73:\n        /* \"study_way/src/4day_bankConstractExtend.sol\":5249:5265  address[] memory */\n      0x60\n        /* \"study_way/src/4day_bankConstractExtend.sol\":5267:5283  uint256[] memory */\n      dup1\n        /* \"study_way/src/4day_bankConstractExtend.sol\":5307:5315  topUsers */\n      0x04\n        /* \"study_way/src/4day_bankConstractExtend.sol\":5317:5328  topDeposits */\n      0x03\n        /* \"study_way/src/4day_bankConstractExtend.sol\":5299:5329  return (topUsers, topDeposits) */\n      dup2\n      dup1\n      sload\n      dup1\n      0x20\n      mul\n      0x20\n      add\n      mload(0x40)\n      swap1\n      dup2\n      add\n      0x40\n      mstore\n      dup1\n      swap3\n      swap2\n      swap1\n      dup2\n      dup2\n      mstore\n      0x20\n      add\n      dup3\n      dup1\n      sload\n      dup1\n      iszero\n      tag_119\n      jumpi\n      0x20\n      mul\n      dup3\n      add\n      swap2\n      swap1\n      0x00\n      mstore\n      keccak256(0x00, 0x20)\n      swap1\n    tag_120:\n      dup2\n      0x00\n      swap1\n      sload\n      swap1\n      0x0100\n      exp\n      swap1\n      div\n      0xffffffffffffffffffffffffffffffffffffffff\n      and\n      0xffffffffffffffffffffffffffffffffffffffff\n      and\n      dup2\n      mstore\n      0x20\n      add\n      swap1\n      0x01\n      add\n      swap1\n      dup1\n      dup4\n      gt\n      tag_120\n      jumpi\n    tag_119:\n      pop\n      pop\n      pop\n      pop\n      pop\n      swap2\n      pop\n      dup1\n      dup1\n      sload\n      dup1\n      0x20\n      mul\n      0x20\n      add\n      mload(0x40)\n      swap1\n      dup2\n      add\n      0x40\n      mstore\n      dup1\n      swap3\n      swap2\n      swap1\n      dup2\n      dup2\n      mstore\n      0x20\n      add\n      dup3\n      dup1\n      sload\n      dup1\n      iszero\n      tag_121\n      jumpi\n      0x20\n      mul\n      dup3\n      add\n      swap2\n      swap1\n      0x00\n      mstore\n      keccak256(0x00, 0x20)\n      swap1\n    tag_122:\n      dup2\n      sload\n      dup2\n      mstore\n      0x20\n      add\n      swap1\n      0x01\n      add\n      swap1\n      dup1\n      dup4\n      gt\n      tag_122\n      jumpi\n    tag_121:\n      pop\n      pop\n      pop\n      pop\n      pop\n      swap1\n      pop\n      swap2\n      pop\n      swap2\n      pop\n        /* \"study_way/src/4day_bankConstractExtend.sol\":5179:5336  function getTopUsers()... */\n      swap1\n      swap2\n      jump\t// out\n        /* \"study_way/src/4day_bankConstractExtend.sol\":549:569  address public admin */\n    tag_78:\n      0x00\n      dup1\n      sload\n      swap1\n      0x0100\n      exp\n      swap1\n      div\n      0xffffffffffffffffffffffffffffffffffffffff\n      and\n      dup2\n      jump\t// out\n        /* \"study_way/src/4day_bankConstractExtend.sol\":2332:3399  function updateTopUsers(address user, uint256 amount) internal {... */\n    tag_87:\n        /* \"study_way/src/4day_bankConstractExtend.sol\":2493:2502  uint256 i */\n      0x00\n        /* \"study_way/src/4day_bankConstractExtend.sol\":2488:2747  for (uint256 i = 0; i < topUsers.length; i++) {... */\n    tag_124:\n        /* \"study_way/src/4day_bankConstractExtend.sol\":2512:2520  topUsers */\n      0x04\n        /* \"study_way/src/4day_bankConstractExtend.sol\":2512:2527  topUsers.length */\n      dup1\n      sload\n      swap1\n      pop\n        /* \"study_way/src/4day_bankConstractExtend.sol\":2508:2509  i */\n      dup2\n        /* \"study_way/src/4day_bankConstractExtend.sol\":2508:2527  i < topUsers.length */\n      lt\n        /* \"study_way/src/4day_bankConstractExtend.sol\":2488:2747  for (uint256 i = 0; i < topUsers.length; i++) {... */\n      iszero\n      tag_125\n      jumpi\n        /* \"study_way/src/4day_bankConstractExtend.sol\":2567:2571  user */\n      dup3\n        /* \"study_way/src/4day_bankConstractExtend.sol\":2552:2571  topUsers[i] == user */\n      0xffffffffffffffffffffffffffffffffffffffff\n      and\n        /* \"study_way/src/4day_bankConstractExtend.sol\":2552:2560  topUsers */\n      0x04\n        /* \"study_way/src/4day_bankConstractExtend.sol\":2561:2562  i */\n      dup3\n        /* \"study_way/src/4day_bankConstractExtend.sol\":2552:2563  topUsers[i] */\n      dup2\n      sload\n      dup2\n      lt\n      tag_127\n      jumpi\n      tag_128\n      tag_129\n      jump\t// in\n    tag_128:\n    tag_127:\n      swap1\n      0x00\n      mstore\n      keccak256(0x00, 0x20)\n      add\n      0x00\n      swap1\n      sload\n      swap1\n      0x0100\n      exp\n      swap1\n      div\n      0xffffffffffffffffffffffffffffffffffffffff\n      and\n        /* \"study_way/src/4day_bankConstractExtend.sol\":2552:2571  topUsers[i] == user */\n      0xffffffffffffffffffffffffffffffffffffffff\n      and\n      sub\n        /* \"study_way/src/4day_bankConstractExtend.sol\":2548:2737  if (topUsers[i] == user) {... */\n      tag_131\n      jumpi\n        /* \"study_way/src/4day_bankConstractExtend.sol\":2608:2614  amount */\n      dup2\n        /* \"study_way/src/4day_bankConstractExtend.sol\":2591:2602  topDeposits */\n      0x03\n        /* \"study_way/src/4day_bankConstractExtend.sol\":2603:2604  i */\n      dup3\n        /* \"study_way/src/4day_bankConstractExtend.sol\":2591:2605  topDeposits[i] */\n      dup2\n      sload\n      dup2\n      lt\n      tag_132\n      jumpi\n      tag_133\n      tag_129\n      jump\t// in\n    tag_133:\n    tag_132:\n      swap1\n      0x00\n      mstore\n      keccak256(0x00, 0x20)\n      add\n        /* \"study_way/src/4day_bankConstractExtend.sol\":2591:2614  topDeposits[i] = amount */\n      dup2\n      swap1\n      sstore\n      pop\n        /* \"study_way/src/4day_bankConstractExtend.sol\":2632:2647  _sortTopUsers() */\n      tag_135\n        /* \"study_way/src/4day_bankConstractExtend.sol\":2632:2645  _sortTopUsers */\n      tag_136\n        /* \"study_way/src/4day_bankConstractExtend.sol\":2632:2647  _sortTopUsers() */\n      jump\t// in\n    tag_135:\n        /* \"study_way/src/4day_bankConstractExtend.sol\":2685:2689  user */\n      dup3\n        /* \"study_way/src/4day_bankConstractExtend.sol\":2670:2698  TopUserUpdated(user, amount) */\n      0xffffffffffffffffffffffffffffffffffffffff\n      and\n      0xd6205b4cb548ead6d931d099314bcf8c604c0908cf235d00c8ecbbff8aa77e28\n        /* \"study_way/src/4day_bankConstractExtend.sol\":2691:2697  amount */\n      dup4\n        /* \"study_way/src/4day_bankConstractExtend.sol\":2670:2698  TopUserUpdated(user, amount) */\n      mload(0x40)\n      tag_137\n      swap2\n      swap1\n      tag_35\n      jump\t// in\n    tag_137:\n      mload(0x40)\n      dup1\n      swap2\n      sub\n      swap1\n      log2\n        /* \"study_way/src/4day_bankConstractExtend.sol\":2716:2723  return; */\n      pop\n      jump(tag_123)\n        /* \"study_way/src/4day_bankConstractExtend.sol\":2548:2737  if (topUsers[i] == user) {... */\n    tag_131:\n        /* \"study_way/src/4day_bankConstractExtend.sol\":2529:2532  i++ */\n      dup1\n      dup1\n      0x01\n      add\n      swap2\n      pop\n      pop\n        /* \"study_way/src/4day_bankConstractExtend.sol\":2488:2747  for (uint256 i = 0; i < topUsers.length; i++) {... */\n      jump(tag_124)\n    tag_125:\n      pop\n        /* \"study_way/src/4day_bankConstractExtend.sol\":2846:2847  3 */\n      0x03\n        /* \"study_way/src/4day_bankConstractExtend.sol\":2828:2836  topUsers */\n      0x04\n        /* \"study_way/src/4day_bankConstractExtend.sol\":2828:2843  topUsers.length */\n      dup1\n      sload\n      swap1\n      pop\n        /* \"study_way/src/4day_bankConstractExtend.sol\":2828:2847  topUsers.length < 3 */\n      lt\n        /* \"study_way/src/4day_bankConstractExtend.sol\":2824:3238  if (topUsers.length < 3) {... */\n      iszero\n      tag_138\n      jumpi\n        /* \"study_way/src/4day_bankConstractExtend.sol\":2863:2871  topUsers */\n      0x04\n        /* \"study_way/src/4day_bankConstractExtend.sol\":2877:2881  user */\n      dup3\n        /* \"study_way/src/4day_bankConstractExtend.sol\":2863:2882  topUsers.push(user) */\n      swap1\n      dup1\n      0x01\n      dup2\n      sload\n      add\n      dup1\n      dup3\n      sstore\n      dup1\n      swap2\n      pop\n      pop\n      0x01\n      swap1\n      sub\n      swap1\n      0x00\n      mstore\n      keccak256(0x00, 0x20)\n      add\n      0x00\n      swap1\n      swap2\n      swap1\n      swap2\n      swap1\n      swap2\n      0x0100\n      exp\n      dup2\n      sload\n      dup2\n      0xffffffffffffffffffffffffffffffffffffffff\n      mul\n      not\n      and\n      swap1\n      dup4\n      0xffffffffffffffffffffffffffffffffffffffff\n      and\n      mul\n      or\n      swap1\n      sstore\n      pop\n        /* \"study_way/src/4day_bankConstractExtend.sol\":2896:2907  topDeposits */\n      0x03\n        /* \"study_way/src/4day_bankConstractExtend.sol\":2913:2919  amount */\n      dup2\n        /* \"study_way/src/4day_bankConstractExtend.sol\":2896:2920  topDeposits.push(amount) */\n      swap1\n      dup1\n      0x01\n      dup2\n      sload\n      add\n      dup1\n      dup3\n      sstore\n      dup1\n      swap2\n      pop\n      pop\n      0x01\n      swap1\n      sub\n      swap1\n      0x00\n      mstore\n      keccak256(0x00, 0x20)\n      add\n      0x00\n      swap1\n      swap2\n      swap1\n      swap2\n      swap1\n      swap2\n      pop\n      sstore\n        /* \"study_way/src/4day_bankConstractExtend.sol\":2934:2949  _sortTopUsers() */\n      tag_141\n        /* \"study_way/src/4day_bankConstractExtend.sol\":2934:2947  _sortTopUsers */\n      tag_136\n        /* \"study_way/src/4day_bankConstractExtend.sol\":2934:2949  _sortTopUsers() */\n      jump\t// in\n    tag_141:\n        /* \"study_way/src/4day_bankConstractExtend.sol\":2824:3238  if (topUsers.length < 3) {... */\n      jump(tag_142)\n    tag_138:\n        /* \"study_way/src/4day_bankConstractExtend.sol\":3113:3124  topDeposits */\n      0x03\n        /* \"study_way/src/4day_bankConstractExtend.sol\":3125:3126  2 */\n      0x02\n        /* \"study_way/src/4day_bankConstractExtend.sol\":3113:3127  topDeposits[2] */\n      dup2\n      sload\n      dup2\n      lt\n      tag_143\n      jumpi\n      tag_144\n      tag_129\n      jump\t// in\n    tag_144:\n    tag_143:\n      swap1\n      0x00\n      mstore\n      keccak256(0x00, 0x20)\n      add\n      sload\n        /* \"study_way/src/4day_bankConstractExtend.sol\":3104:3110  amount */\n      dup2\n        /* \"study_way/src/4day_bankConstractExtend.sol\":3104:3127  amount > topDeposits[2] */\n      gt\n        /* \"study_way/src/4day_bankConstractExtend.sol\":3100:3238  if (amount > topDeposits[2]) {... */\n      iszero\n      tag_146\n      jumpi\n        /* \"study_way/src/4day_bankConstractExtend.sol\":3157:3161  user */\n      dup2\n        /* \"study_way/src/4day_bankConstractExtend.sol\":3143:3151  topUsers */\n      0x04\n        /* \"study_way/src/4day_bankConstractExtend.sol\":3152:3153  2 */\n      0x02\n        /* \"study_way/src/4day_bankConstractExtend.sol\":3143:3154  topUsers[2] */\n      dup2\n      sload\n      dup2\n      lt\n      tag_147\n      jumpi\n      tag_148\n      tag_129\n      jump\t// in\n    tag_148:\n    tag_147:\n      swap1\n      0x00\n      mstore\n      keccak256(0x00, 0x20)\n      add\n      0x00\n        /* \"study_way/src/4day_bankConstractExtend.sol\":3143:3161  topUsers[2] = user */\n      0x0100\n      exp\n      dup2\n      sload\n      dup2\n      0xffffffffffffffffffffffffffffffffffffffff\n      mul\n      not\n      and\n      swap1\n      dup4\n      0xffffffffffffffffffffffffffffffffffffffff\n      and\n      mul\n      or\n      swap1\n      sstore\n      pop\n        /* \"study_way/src/4day_bankConstractExtend.sol\":3192:3198  amount */\n      dup1\n        /* \"study_way/src/4day_bankConstractExtend.sol\":3175:3186  topDeposits */\n      0x03\n        /* \"study_way/src/4day_bankConstractExtend.sol\":3187:3188  2 */\n      0x02\n        /* \"study_way/src/4day_bankConstractExtend.sol\":3175:3189  topDeposits[2] */\n      dup2\n      sload\n      dup2\n      lt\n      tag_150\n      jumpi\n      tag_151\n      tag_129\n      jump\t// in\n    tag_151:\n    tag_150:\n      swap1\n      0x00\n      mstore\n      keccak256(0x00, 0x20)\n      add\n        /* \"study_way/src/4day_bankConstractExtend.sol\":3175:3198  topDeposits[2] = amount */\n      dup2\n      swap1\n      sstore\n      pop\n        /* \"study_way/src/4day_bankConstractExtend.sol\":3212:3227  _sortTopUsers() */\n      tag_153\n        /* \"study_way/src/4day_bankConstractExtend.sol\":3212:3225  _sortTopUsers */\n      tag_136\n        /* \"study_way/src/4day_bankConstractExtend.sol\":3212:3227  _sortTopUsers() */\n      jump\t// in\n    tag_153:\n        /* \"study_way/src/4day_bankConstractExtend.sol\":3100:3238  if (amount > topDeposits[2]) {... */\n    tag_146:\n        /* \"study_way/src/4day_bankConstractExtend.sol\":2824:3238  if (topUsers.length < 3) {... */\n    tag_142:\n        /* \"study_way/src/4day_bankConstractExtend.sol\":3379:3383  user */\n      dup2\n        /* \"study_way/src/4day_bankConstractExtend.sol\":3364:3392  TopUserUpdated(user, amount) */\n      0xffffffffffffffffffffffffffffffffffffffff\n      and\n      0xd6205b4cb548ead6d931d099314bcf8c604c0908cf235d00c8ecbbff8aa77e28\n        /* \"study_way/src/4day_bankConstractExtend.sol\":3385:3391  amount */\n      dup3\n        /* \"study_way/src/4day_bankConstractExtend.sol\":3364:3392  TopUserUpdated(user, amount) */\n      mload(0x40)\n      tag_154\n      swap2\n      swap1\n      tag_35\n      jump\t// in\n    tag_154:\n      mload(0x40)\n      dup1\n      swap2\n      sub\n      swap1\n      log2\n        /* \"study_way/src/4day_bankConstractExtend.sol\":2332:3399  function updateTopUsers(address user, uint256 amount) internal {... */\n    tag_123:\n      pop\n      pop\n      jump\t// out\n        /* \"study_way/src/4day_bankConstractExtend.sol\":4422:4846  function _sortTopUsers() private {... */\n    tag_136:\n        /* \"study_way/src/4day_bankConstractExtend.sol\":4490:4491  2 */\n      0x02\n        /* \"study_way/src/4day_bankConstractExtend.sol\":4469:4480  topDeposits */\n      0x03\n        /* \"study_way/src/4day_bankConstractExtend.sol\":4469:4487  topDeposits.length */\n      dup1\n      sload\n      swap1\n      pop\n        /* \"study_way/src/4day_bankConstractExtend.sol\":4469:4491  topDeposits.length < 2 */\n      lt\n        /* \"study_way/src/4day_bankConstractExtend.sol\":4493:4500  return; */\n      tag_155\n        /* \"study_way/src/4day_bankConstractExtend.sol\":4465:4500  if (topDeposits.length < 2) return; */\n      jumpi\n        /* \"study_way/src/4day_bankConstractExtend.sol\":4586:4597  topDeposits */\n      0x03\n        /* \"study_way/src/4day_bankConstractExtend.sol\":4598:4599  1 */\n      0x01\n        /* \"study_way/src/4day_bankConstractExtend.sol\":4586:4600  topDeposits[1] */\n      dup2\n      sload\n      dup2\n      lt\n      tag_157\n      jumpi\n      tag_158\n      tag_129\n      jump\t// in\n    tag_158:\n    tag_157:\n      swap1\n      0x00\n      mstore\n      keccak256(0x00, 0x20)\n      add\n      sload\n        /* \"study_way/src/4day_bankConstractExtend.sol\":4569:4580  topDeposits */\n      0x03\n        /* \"study_way/src/4day_bankConstractExtend.sol\":4581:4582  0 */\n      0x00\n        /* \"study_way/src/4day_bankConstractExtend.sol\":4569:4583  topDeposits[0] */\n      dup2\n      sload\n      dup2\n      lt\n      tag_160\n      jumpi\n      tag_161\n      tag_129\n      jump\t// in\n    tag_161:\n    tag_160:\n      swap1\n      0x00\n      mstore\n      keccak256(0x00, 0x20)\n      add\n      sload\n        /* \"study_way/src/4day_bankConstractExtend.sol\":4569:4600  topDeposits[0] < topDeposits[1] */\n      lt\n        /* \"study_way/src/4day_bankConstractExtend.sol\":4565:4638  if (topDeposits[0] < topDeposits[1]) {... */\n      iszero\n      tag_163\n      jumpi\n        /* \"study_way/src/4day_bankConstractExtend.sol\":4616:4627  _swap(0, 1) */\n      tag_164\n        /* \"study_way/src/4day_bankConstractExtend.sol\":4622:4623  0 */\n      0x00\n        /* \"study_way/src/4day_bankConstractExtend.sol\":4625:4626  1 */\n      0x01\n        /* \"study_way/src/4day_bankConstractExtend.sol\":4616:4621  _swap */\n      tag_165\n        /* \"study_way/src/4day_bankConstractExtend.sol\":4616:4627  _swap(0, 1) */\n      jump\t// in\n    tag_164:\n        /* \"study_way/src/4day_bankConstractExtend.sol\":4565:4638  if (topDeposits[0] < topDeposits[1]) {... */\n    tag_163:\n        /* \"study_way/src/4day_bankConstractExtend.sol\":4672:4673  2 */\n      0x02\n        /* \"study_way/src/4day_bankConstractExtend.sol\":4651:4662  topDeposits */\n      0x03\n        /* \"study_way/src/4day_bankConstractExtend.sol\":4651:4669  topDeposits.length */\n      dup1\n      sload\n      swap1\n      pop\n        /* \"study_way/src/4day_bankConstractExtend.sol\":4651:4673  topDeposits.length > 2 */\n      gt\n        /* \"study_way/src/4day_bankConstractExtend.sol\":4651:4708  topDeposits.length > 2 && topDeposits[1] < topDeposits[2] */\n      dup1\n      iszero\n      tag_166\n      jumpi\n      pop\n        /* \"study_way/src/4day_bankConstractExtend.sol\":4694:4705  topDeposits */\n      0x03\n        /* \"study_way/src/4day_bankConstractExtend.sol\":4706:4707  2 */\n      0x02\n        /* \"study_way/src/4day_bankConstractExtend.sol\":4694:4708  topDeposits[2] */\n      dup2\n      sload\n      dup2\n      lt\n      tag_167\n      jumpi\n      tag_168\n      tag_129\n      jump\t// in\n    tag_168:\n    tag_167:\n      swap1\n      0x00\n      mstore\n      keccak256(0x00, 0x20)\n      add\n      sload\n        /* \"study_way/src/4day_bankConstractExtend.sol\":4677:4688  topDeposits */\n      0x03\n        /* \"study_way/src/4day_bankConstractExtend.sol\":4689:4690  1 */\n      0x01\n        /* \"study_way/src/4day_bankConstractExtend.sol\":4677:4691  topDeposits[1] */\n      dup2\n      sload\n      dup2\n      lt\n      tag_170\n      jumpi\n      tag_171\n      tag_129\n      jump\t// in\n    tag_171:\n    tag_170:\n      swap1\n      0x00\n      mstore\n      keccak256(0x00, 0x20)\n      add\n      sload\n        /* \"study_way/src/4day_bankConstractExtend.sol\":4677:4708  topDeposits[1] < topDeposits[2] */\n      lt\n        /* \"study_way/src/4day_bankConstractExtend.sol\":4651:4708  topDeposits.length > 2 && topDeposits[1] < topDeposits[2] */\n    tag_166:\n        /* \"study_way/src/4day_bankConstractExtend.sol\":4647:4840  if (topDeposits.length > 2 && topDeposits[1] < topDeposits[2]) {... */\n      iszero\n      tag_173\n      jumpi\n        /* \"study_way/src/4day_bankConstractExtend.sol\":4724:4735  _swap(1, 2) */\n      tag_174\n        /* \"study_way/src/4day_bankConstractExtend.sol\":4730:4731  1 */\n      0x01\n        /* \"study_way/src/4day_bankConstractExtend.sol\":4733:4734  2 */\n      0x02\n        /* \"study_way/src/4day_bankConstractExtend.sol\":4724:4729  _swap */\n      tag_165\n        /* \"study_way/src/4day_bankConstractExtend.sol\":4724:4735  _swap(1, 2) */\n      jump\t// in\n    tag_174:\n        /* \"study_way/src/4day_bankConstractExtend.sol\":4770:4781  topDeposits */\n      0x03\n        /* \"study_way/src/4day_bankConstractExtend.sol\":4782:4783  1 */\n      0x01\n        /* \"study_way/src/4day_bankConstractExtend.sol\":4770:4784  topDeposits[1] */\n      dup2\n      sload\n      dup2\n      lt\n      tag_175\n      jumpi\n      tag_176\n      tag_129\n      jump\t// in\n    tag_176:\n    tag_175:\n      swap1\n      0x00\n      mstore\n      keccak256(0x00, 0x20)\n      add\n      sload\n        /* \"study_way/src/4day_bankConstractExtend.sol\":4753:4764  topDeposits */\n      0x03\n        /* \"study_way/src/4day_bankConstractExtend.sol\":4765:4766  0 */\n      0x00\n        /* \"study_way/src/4day_bankConstractExtend.sol\":4753:4767  topDeposits[0] */\n      dup2\n      sload\n      dup2\n      lt\n      tag_178\n      jumpi\n      tag_179\n      tag_129\n      jump\t// in\n    tag_179:\n    tag_178:\n      swap1\n      0x00\n      mstore\n      keccak256(0x00, 0x20)\n      add\n      sload\n        /* \"study_way/src/4day_bankConstractExtend.sol\":4753:4784  topDeposits[0] < topDeposits[1] */\n      lt\n        /* \"study_way/src/4day_bankConstractExtend.sol\":4749:4830  if (topDeposits[0] < topDeposits[1]) {... */\n      iszero\n      tag_181\n      jumpi\n        /* \"study_way/src/4day_bankConstractExtend.sol\":4804:4815  _swap(0, 1) */\n      tag_182\n        /* \"study_way/src/4day_bankConstractExtend.sol\":4810:4811  0 */\n      0x00\n        /* \"study_way/src/4day_bankConstractExtend.sol\":4813:4814  1 */\n      0x01\n        /* \"study_way/src/4day_bankConstractExtend.sol\":4804:4809  _swap */\n      tag_165\n        /* \"study_way/src/4day_bankConstractExtend.sol\":4804:4815  _swap(0, 1) */\n      jump\t// in\n    tag_182:\n        /* \"study_way/src/4day_bankConstractExtend.sol\":4749:4830  if (topDeposits[0] < topDeposits[1]) {... */\n    tag_181:\n        /* \"study_way/src/4day_bankConstractExtend.sol\":4647:4840  if (topDeposits.length > 2 && topDeposits[1] < topDeposits[2]) {... */\n    tag_173:\n        /* \"study_way/src/4day_bankConstractExtend.sol\":4422:4846  function _sortTopUsers() private {... */\n    tag_155:\n      jump\t// out\n        /* \"study_way/src/4day_bankConstractExtend.sol\":4902:5096  function _swap(uint256 i, uint256 j) private {... */\n    tag_165:\n        /* \"study_way/src/4day_bankConstractExtend.sol\":4993:5004  topDeposits */\n      0x03\n        /* \"study_way/src/4day_bankConstractExtend.sol\":5005:5006  j */\n      dup2\n        /* \"study_way/src/4day_bankConstractExtend.sol\":4993:5007  topDeposits[j] */\n      dup2\n      sload\n      dup2\n      lt\n      tag_184\n      jumpi\n      tag_185\n      tag_129\n      jump\t// in\n    tag_185:\n    tag_184:\n      swap1\n      0x00\n      mstore\n      keccak256(0x00, 0x20)\n      add\n      sload\n        /* \"study_way/src/4day_bankConstractExtend.sol\":5009:5020  topDeposits */\n      0x03\n        /* \"study_way/src/4day_bankConstractExtend.sol\":5021:5022  i */\n      dup4\n        /* \"study_way/src/4day_bankConstractExtend.sol\":5009:5023  topDeposits[i] */\n      dup2\n      sload\n      dup2\n      lt\n      tag_187\n      jumpi\n      tag_188\n      tag_129\n      jump\t// in\n    tag_188:\n    tag_187:\n      swap1\n      0x00\n      mstore\n      keccak256(0x00, 0x20)\n      add\n      sload\n        /* \"study_way/src/4day_bankConstractExtend.sol\":4958:4969  topDeposits */\n      0x03\n        /* \"study_way/src/4day_bankConstractExtend.sol\":4970:4971  i */\n      dup5\n        /* \"study_way/src/4day_bankConstractExtend.sol\":4958:4972  topDeposits[i] */\n      dup2\n      sload\n      dup2\n      lt\n      tag_190\n      jumpi\n      tag_191\n      tag_129\n      jump\t// in\n    tag_191:\n    tag_190:\n      swap1\n      0x00\n      mstore\n      keccak256(0x00, 0x20)\n      add\n      0x00\n        /* \"study_way/src/4day_bankConstractExtend.sol\":4974:4985  topDeposits */\n      0x03\n        /* \"study_way/src/4day_bankConstractExtend.sol\":4986:4987  j */\n      dup6\n        /* \"study_way/src/4day_bankConstractExtend.sol\":4974:4988  topDeposits[j] */\n      dup2\n      sload\n      dup2\n      lt\n      tag_193\n      jumpi\n      tag_194\n      tag_129\n      jump\t// in\n    tag_194:\n    tag_193:\n      swap1\n      0x00\n      mstore\n      keccak256(0x00, 0x20)\n      add\n      0x00\n        /* \"study_way/src/4day_bankConstractExtend.sol\":4957:5024  (topDeposits[i], topDeposits[j]) = (topDeposits[j], topDeposits[i]) */\n      dup5\n      swap2\n      swap1\n      pop\n      sstore\n      dup4\n      swap2\n      swap1\n      pop\n      sstore\n      pop\n      pop\n        /* \"study_way/src/4day_bankConstractExtend.sol\":5064:5072  topUsers */\n      0x04\n        /* \"study_way/src/4day_bankConstractExtend.sol\":5073:5074  j */\n      dup2\n        /* \"study_way/src/4day_bankConstractExtend.sol\":5064:5075  topUsers[j] */\n      dup2\n      sload\n      dup2\n      lt\n      tag_196\n      jumpi\n      tag_197\n      tag_129\n      jump\t// in\n    tag_197:\n    tag_196:\n      swap1\n      0x00\n      mstore\n      keccak256(0x00, 0x20)\n      add\n      0x00\n      swap1\n      sload\n      swap1\n      0x0100\n      exp\n      swap1\n      div\n      0xffffffffffffffffffffffffffffffffffffffff\n      and\n        /* \"study_way/src/4day_bankConstractExtend.sol\":5077:5085  topUsers */\n      0x04\n        /* \"study_way/src/4day_bankConstractExtend.sol\":5086:5087  i */\n      dup4\n        /* \"study_way/src/4day_bankConstractExtend.sol\":5077:5088  topUsers[i] */\n      dup2\n      sload\n      dup2\n      lt\n      tag_199\n      jumpi\n      tag_200\n      tag_129\n      jump\t// in\n    tag_200:\n    tag_199:\n      swap1\n      0x00\n      mstore\n      keccak256(0x00, 0x20)\n      add\n      0x00\n      swap1\n      sload\n      swap1\n      0x0100\n      exp\n      swap1\n      div\n      0xffffffffffffffffffffffffffffffffffffffff\n      and\n        /* \"study_way/src/4day_bankConstractExtend.sol\":5035:5043  topUsers */\n      0x04\n        /* \"study_way/src/4day_bankConstractExtend.sol\":5044:5045  i */\n      dup5\n        /* \"study_way/src/4day_bankConstractExtend.sol\":5035:5046  topUsers[i] */\n      dup2\n      sload\n      dup2\n      lt\n      tag_202\n      jumpi\n      tag_203\n      tag_129\n      jump\t// in\n    tag_203:\n    tag_202:\n      swap1\n      0x00\n      mstore\n      keccak256(0x00, 0x20)\n      add\n      0x00\n        /* \"study_way/src/4day_bankConstractExtend.sol\":5048:5056  topUsers */\n      0x04\n        /* \"study_way/src/4day_bankConstractExtend.sol\":5057:5058  j */\n      dup6\n        /* \"study_way/src/4day_bankConstractExtend.sol\":5048:5059  topUsers[j] */\n      dup2\n      sload\n      dup2\n      lt\n      tag_205\n      jumpi\n      tag_206\n      tag_129\n      jump\t// in\n    tag_206:\n    tag_205:\n      swap1\n      0x00\n      mstore\n      keccak256(0x00, 0x20)\n      add\n      0x00\n        /* \"study_way/src/4day_bankConstractExtend.sol\":5034:5089  (topUsers[i], topUsers[j]) = (topUsers[j], topUsers[i]) */\n      dup5\n      swap2\n      swap1\n      0x0100\n      exp\n      dup2\n      sload\n      dup2\n      0xffffffffffffffffffffffffffffffffffffffff\n      mul\n      not\n      and\n      swap1\n      dup4\n      0xffffffffffffffffffffffffffffffffffffffff\n      and\n      mul\n      or\n      swap1\n      sstore\n      pop\n      dup4\n      swap2\n      swap1\n      0x0100\n      exp\n      dup2\n      sload\n      dup2\n      0xffffffffffffffffffffffffffffffffffffffff\n      mul\n      not\n      and\n      swap1\n      dup4\n      0xffffffffffffffffffffffffffffffffffffffff\n      and\n      mul\n      or\n      swap1\n      sstore\n      pop\n      pop\n      pop\n        /* \"study_way/src/4day_bankConstractExtend.sol\":4902:5096  function _swap(uint256 i, uint256 j) private {... */\n      pop\n      pop\n      jump\t// out\n        /* \"#utility.yul\":7:176   */\n    tag_208:\n        /* \"#utility.yul\":91:102   */\n      0x00\n        /* \"#utility.yul\":125:131   */\n      dup3\n        /* \"#utility.yul\":120:123   */\n      dup3\n        /* \"#utility.yul\":113:132   */\n      mstore\n        /* \"#utility.yul\":165:169   */\n      0x20\n        /* \"#utility.yul\":160:163   */\n      dup3\n        /* \"#utility.yul\":156:170   */\n      add\n        /* \"#utility.yul\":141:170   */\n      swap1\n      pop\n        /* \"#utility.yul\":7:176   */\n      swap3\n      swap2\n      pop\n      pop\n      jump\t// out\n        /* \"#utility.yul\":182:409   */\n    tag_209:\n        /* \"#utility.yul\":322:356   */\n      0x4465706f736974206d7573742062652067726561746572207468616e20302e30\n        /* \"#utility.yul\":318:319   */\n      0x00\n        /* \"#utility.yul\":310:316   */\n      dup3\n        /* \"#utility.yul\":306:320   */\n      add\n        /* \"#utility.yul\":299:357   */\n      mstore\n        /* \"#utility.yul\":391:401   */\n      0x3031206574686572000000000000000000000000000000000000000000000000\n        /* \"#utility.yul\":386:388   */\n      0x20\n        /* \"#utility.yul\":378:384   */\n      dup3\n        /* \"#utility.yul\":374:389   */\n      add\n        /* \"#utility.yul\":367:402   */\n      mstore\n        /* \"#utility.yul\":182:409   */\n      pop\n      jump\t// out\n        /* \"#utility.yul\":415:781   */\n    tag_210:\n        /* \"#utility.yul\":557:560   */\n      0x00\n        /* \"#utility.yul\":578:645   */\n      tag_248\n        /* \"#utility.yul\":642:644   */\n      0x28\n        /* \"#utility.yul\":637:640   */\n      dup4\n        /* \"#utility.yul\":578:645   */\n      tag_208\n      jump\t// in\n    tag_248:\n        /* \"#utility.yul\":571:645   */\n      swap2\n      pop\n        /* \"#utility.yul\":654:747   */\n      tag_249\n        /* \"#utility.yul\":743:746   */\n      dup3\n        /* \"#utility.yul\":654:747   */\n      tag_209\n      jump\t// in\n    tag_249:\n        /* \"#utility.yul\":772:774   */\n      0x40\n        /* \"#utility.yul\":767:770   */\n      dup3\n        /* \"#utility.yul\":763:775   */\n      add\n        /* \"#utility.yul\":756:775   */\n      swap1\n      pop\n        /* \"#utility.yul\":415:781   */\n      swap2\n      swap1\n      pop\n      jump\t// out\n        /* \"#utility.yul\":787:1206   */\n    tag_19:\n        /* \"#utility.yul\":953:957   */\n      0x00\n        /* \"#utility.yul\":991:993   */\n      0x20\n        /* \"#utility.yul\":980:989   */\n      dup3\n        /* \"#utility.yul\":976:994   */\n      add\n        /* \"#utility.yul\":968:994   */\n      swap1\n      pop\n        /* \"#utility.yul\":1040:1049   */\n      dup2\n        /* \"#utility.yul\":1034:1038   */\n      dup2\n        /* \"#utility.yul\":1030:1050   */\n      sub\n        /* \"#utility.yul\":1026:1027   */\n      0x00\n        /* \"#utility.yul\":1015:1024   */\n      dup4\n        /* \"#utility.yul\":1011:1028   */\n      add\n        /* \"#utility.yul\":1004:1051   */\n      mstore\n        /* \"#utility.yul\":1068:1199   */\n      tag_251\n        /* \"#utility.yul\":1194:1198   */\n      dup2\n        /* \"#utility.yul\":1068:1199   */\n      tag_210\n      jump\t// in\n    tag_251:\n        /* \"#utility.yul\":1060:1199   */\n      swap1\n      pop\n        /* \"#utility.yul\":787:1206   */\n      swap2\n      swap1\n      pop\n      jump\t// out\n        /* \"#utility.yul\":1293:1410   */\n    tag_212:\n        /* \"#utility.yul\":1402:1403   */\n      0x00\n        /* \"#utility.yul\":1399:1400   */\n      dup1\n        /* \"#utility.yul\":1392:1404   */\n      revert\n        /* \"#utility.yul\":1539:1665   */\n    tag_214:\n        /* \"#utility.yul\":1576:1583   */\n      0x00\n        /* \"#utility.yul\":1616:1658   */\n      0xffffffffffffffffffffffffffffffffffffffff\n        /* \"#utility.yul\":1609:1614   */\n      dup3\n        /* \"#utility.yul\":1605:1659   */\n      and\n        /* \"#utility.yul\":1594:1659   */\n      swap1\n      pop\n        /* \"#utility.yul\":1539:1665   */\n      swap2\n      swap1\n      pop\n      jump\t// out\n        /* \"#utility.yul\":1671:1767   */\n    tag_215:\n        /* \"#utility.yul\":1708:1715   */\n      0x00\n        /* \"#utility.yul\":1737:1761   */\n      tag_257\n        /* \"#utility.yul\":1755:1760   */\n      dup3\n        /* \"#utility.yul\":1737:1761   */\n      tag_214\n      jump\t// in\n    tag_257:\n        /* \"#utility.yul\":1726:1761   */\n      swap1\n      pop\n        /* \"#utility.yul\":1671:1767   */\n      swap2\n      swap1\n      pop\n      jump\t// out\n        /* \"#utility.yul\":1773:1895   */\n    tag_216:\n        /* \"#utility.yul\":1846:1870   */\n      tag_259\n        /* \"#utility.yul\":1864:1869   */\n      dup2\n        /* \"#utility.yul\":1846:1870   */\n      tag_215\n      jump\t// in\n    tag_259:\n        /* \"#utility.yul\":1839:1844   */\n      dup2\n        /* \"#utility.yul\":1836:1871   */\n      eq\n        /* \"#utility.yul\":1826:1889   */\n      tag_260\n      jumpi\n        /* \"#utility.yul\":1885:1886   */\n      0x00\n        /* \"#utility.yul\":1882:1883   */\n      dup1\n        /* \"#utility.yul\":1875:1887   */\n      revert\n        /* \"#utility.yul\":1826:1889   */\n    tag_260:\n        /* \"#utility.yul\":1773:1895   */\n      pop\n      jump\t// out\n        /* \"#utility.yul\":1901:2040   */\n    tag_217:\n        /* \"#utility.yul\":1947:1952   */\n      0x00\n        /* \"#utility.yul\":1985:1991   */\n      dup2\n        /* \"#utility.yul\":1972:1992   */\n      calldataload\n        /* \"#utility.yul\":1963:1992   */\n      swap1\n      pop\n        /* \"#utility.yul\":2001:2034   */\n      tag_262\n        /* \"#utility.yul\":2028:2033   */\n      dup2\n        /* \"#utility.yul\":2001:2034   */\n      tag_216\n      jump\t// in\n    tag_262:\n        /* \"#utility.yul\":1901:2040   */\n      swap3\n      swap2\n      pop\n      pop\n      jump\t// out\n        /* \"#utility.yul\":2046:2375   */\n    tag_32:\n        /* \"#utility.yul\":2105:2111   */\n      0x00\n        /* \"#utility.yul\":2154:2156   */\n      0x20\n        /* \"#utility.yul\":2142:2151   */\n      dup3\n        /* \"#utility.yul\":2133:2140   */\n      dup5\n        /* \"#utility.yul\":2129:2152   */\n      sub\n        /* \"#utility.yul\":2125:2157   */\n      slt\n        /* \"#utility.yul\":2122:2241   */\n      iszero\n      tag_264\n      jumpi\n        /* \"#utility.yul\":2160:2239   */\n      tag_265\n      tag_212\n      jump\t// in\n    tag_265:\n        /* \"#utility.yul\":2122:2241   */\n    tag_264:\n        /* \"#utility.yul\":2280:2281   */\n      0x00\n        /* \"#utility.yul\":2305:2358   */\n      tag_266\n        /* \"#utility.yul\":2350:2357   */\n      dup5\n        /* \"#utility.yul\":2341:2347   */\n      dup3\n        /* \"#utility.yul\":2330:2339   */\n      dup6\n        /* \"#utility.yul\":2326:2348   */\n      add\n        /* \"#utility.yul\":2305:2358   */\n      tag_217\n      jump\t// in\n    tag_266:\n        /* \"#utility.yul\":2295:2358   */\n      swap2\n      pop\n        /* \"#utility.yul\":2251:2368   */\n      pop\n        /* \"#utility.yul\":2046:2375   */\n      swap3\n      swap2\n      pop\n      pop\n      jump\t// out\n        /* \"#utility.yul\":2381:2458   */\n    tag_218:\n        /* \"#utility.yul\":2418:2425   */\n      0x00\n        /* \"#utility.yul\":2447:2452   */\n      dup2\n        /* \"#utility.yul\":2436:2452   */\n      swap1\n      pop\n        /* \"#utility.yul\":2381:2458   */\n      swap2\n      swap1\n      pop\n      jump\t// out\n        /* \"#utility.yul\":2464:2582   */\n    tag_219:\n        /* \"#utility.yul\":2551:2575   */\n      tag_269\n        /* \"#utility.yul\":2569:2574   */\n      dup2\n        /* \"#utility.yul\":2551:2575   */\n      tag_218\n      jump\t// in\n    tag_269:\n        /* \"#utility.yul\":2546:2549   */\n      dup3\n        /* \"#utility.yul\":2539:2576   */\n      mstore\n        /* \"#utility.yul\":2464:2582   */\n      pop\n      pop\n      jump\t// out\n        /* \"#utility.yul\":2588:2810   */\n    tag_35:\n        /* \"#utility.yul\":2681:2685   */\n      0x00\n        /* \"#utility.yul\":2719:2721   */\n      0x20\n        /* \"#utility.yul\":2708:2717   */\n      dup3\n        /* \"#utility.yul\":2704:2722   */\n      add\n        /* \"#utility.yul\":2696:2722   */\n      swap1\n      pop\n        /* \"#utility.yul\":2732:2803   */\n      tag_271\n        /* \"#utility.yul\":2800:2801   */\n      0x00\n        /* \"#utility.yul\":2789:2798   */\n      dup4\n        /* \"#utility.yul\":2785:2802   */\n      add\n        /* \"#utility.yul\":2776:2782   */\n      dup5\n        /* \"#utility.yul\":2732:2803   */\n      tag_219\n      jump\t// in\n    tag_271:\n        /* \"#utility.yul\":2588:2810   */\n      swap3\n      swap2\n      pop\n      pop\n      jump\t// out\n        /* \"#utility.yul\":2816:2938   */\n    tag_220:\n        /* \"#utility.yul\":2889:2913   */\n      tag_273\n        /* \"#utility.yul\":2907:2912   */\n      dup2\n        /* \"#utility.yul\":2889:2913   */\n      tag_218\n      jump\t// in\n    tag_273:\n        /* \"#utility.yul\":2882:2887   */\n      dup2\n        /* \"#utility.yul\":2879:2914   */\n      eq\n        /* \"#utility.yul\":2869:2932   */\n      tag_274\n      jumpi\n        /* \"#utility.yul\":2928:2929   */\n      0x00\n        /* \"#utility.yul\":2925:2926   */\n      dup1\n        /* \"#utility.yul\":2918:2930   */\n      revert\n        /* \"#utility.yul\":2869:2932   */\n    tag_274:\n        /* \"#utility.yul\":2816:2938   */\n      pop\n      jump\t// out\n        /* \"#utility.yul\":2944:3083   */\n    tag_221:\n        /* \"#utility.yul\":2990:2995   */\n      0x00\n        /* \"#utility.yul\":3028:3034   */\n      dup2\n        /* \"#utility.yul\":3015:3035   */\n      calldataload\n        /* \"#utility.yul\":3006:3035   */\n      swap1\n      pop\n        /* \"#utility.yul\":3044:3077   */\n      tag_276\n        /* \"#utility.yul\":3071:3076   */\n      dup2\n        /* \"#utility.yul\":3044:3077   */\n      tag_220\n      jump\t// in\n    tag_276:\n        /* \"#utility.yul\":2944:3083   */\n      swap3\n      swap2\n      pop\n      pop\n      jump\t// out\n        /* \"#utility.yul\":3089:3418   */\n    tag_39:\n        /* \"#utility.yul\":3148:3154   */\n      0x00\n        /* \"#utility.yul\":3197:3199   */\n      0x20\n        /* \"#utility.yul\":3185:3194   */\n      dup3\n        /* \"#utility.yul\":3176:3183   */\n      dup5\n        /* \"#utility.yul\":3172:3195   */\n      sub\n        /* \"#utility.yul\":3168:3200   */\n      slt\n        /* \"#utility.yul\":3165:3284   */\n      iszero\n      tag_278\n      jumpi\n        /* \"#utility.yul\":3203:3282   */\n      tag_279\n      tag_212\n      jump\t// in\n    tag_279:\n        /* \"#utility.yul\":3165:3284   */\n    tag_278:\n        /* \"#utility.yul\":3323:3324   */\n      0x00\n        /* \"#utility.yul\":3348:3401   */\n      tag_280\n        /* \"#utility.yul\":3393:3400   */\n      dup5\n        /* \"#utility.yul\":3384:3390   */\n      dup3\n        /* \"#utility.yul\":3373:3382   */\n      dup6\n        /* \"#utility.yul\":3369:3391   */\n      add\n        /* \"#utility.yul\":3348:3401   */\n      tag_221\n      jump\t// in\n    tag_280:\n        /* \"#utility.yul\":3338:3401   */\n      swap2\n      pop\n        /* \"#utility.yul\":3294:3411   */\n      pop\n        /* \"#utility.yul\":3089:3418   */\n      swap3\n      swap2\n      pop\n      pop\n      jump\t// out\n        /* \"#utility.yul\":3424:3542   */\n    tag_222:\n        /* \"#utility.yul\":3511:3535   */\n      tag_282\n        /* \"#utility.yul\":3529:3534   */\n      dup2\n        /* \"#utility.yul\":3511:3535   */\n      tag_215\n      jump\t// in\n    tag_282:\n        /* \"#utility.yul\":3506:3509   */\n      dup3\n        /* \"#utility.yul\":3499:3536   */\n      mstore\n        /* \"#utility.yul\":3424:3542   */\n      pop\n      pop\n      jump\t// out\n        /* \"#utility.yul\":3548:3770   */\n    tag_42:\n        /* \"#utility.yul\":3641:3645   */\n      0x00\n        /* \"#utility.yul\":3679:3681   */\n      0x20\n        /* \"#utility.yul\":3668:3677   */\n      dup3\n        /* \"#utility.yul\":3664:3682   */\n      add\n        /* \"#utility.yul\":3656:3682   */\n      swap1\n      pop\n        /* \"#utility.yul\":3692:3763   */\n      tag_284\n        /* \"#utility.yul\":3760:3761   */\n      0x00\n        /* \"#utility.yul\":3749:3758   */\n      dup4\n        /* \"#utility.yul\":3745:3762   */\n      add\n        /* \"#utility.yul\":3736:3742   */\n      dup5\n        /* \"#utility.yul\":3692:3763   */\n      tag_222\n      jump\t// in\n    tag_284:\n        /* \"#utility.yul\":3548:3770   */\n      swap3\n      swap2\n      pop\n      pop\n      jump\t// out\n        /* \"#utility.yul\":3776:3890   */\n    tag_223:\n        /* \"#utility.yul\":3843:3849   */\n      0x00\n        /* \"#utility.yul\":3877:3882   */\n      dup2\n        /* \"#utility.yul\":3871:3883   */\n      mload\n        /* \"#utility.yul\":3861:3883   */\n      swap1\n      pop\n        /* \"#utility.yul\":3776:3890   */\n      swap2\n      swap1\n      pop\n      jump\t// out\n        /* \"#utility.yul\":3896:4080   */\n    tag_224:\n        /* \"#utility.yul\":3995:4006   */\n      0x00\n        /* \"#utility.yul\":4029:4035   */\n      dup3\n        /* \"#utility.yul\":4024:4027   */\n      dup3\n        /* \"#utility.yul\":4017:4036   */\n      mstore\n        /* \"#utility.yul\":4069:4073   */\n      0x20\n        /* \"#utility.yul\":4064:4067   */\n      dup3\n        /* \"#utility.yul\":4060:4074   */\n      add\n        /* \"#utility.yul\":4045:4074   */\n      swap1\n      pop\n        /* \"#utility.yul\":3896:4080   */\n      swap3\n      swap2\n      pop\n      pop\n      jump\t// out\n        /* \"#utility.yul\":4086:4218   */\n    tag_225:\n        /* \"#utility.yul\":4153:4157   */\n      0x00\n        /* \"#utility.yul\":4176:4179   */\n      dup2\n        /* \"#utility.yul\":4168:4179   */\n      swap1\n      pop\n        /* \"#utility.yul\":4206:4210   */\n      0x20\n        /* \"#utility.yul\":4201:4204   */\n      dup3\n        /* \"#utility.yul\":4197:4211   */\n      add\n        /* \"#utility.yul\":4189:4211   */\n      swap1\n      pop\n        /* \"#utility.yul\":4086:4218   */\n      swap2\n      swap1\n      pop\n      jump\t// out\n        /* \"#utility.yul\":4224:4332   */\n    tag_226:\n        /* \"#utility.yul\":4301:4325   */\n      tag_289\n        /* \"#utility.yul\":4319:4324   */\n      dup2\n        /* \"#utility.yul\":4301:4325   */\n      tag_215\n      jump\t// in\n    tag_289:\n        /* \"#utility.yul\":4296:4299   */\n      dup3\n        /* \"#utility.yul\":4289:4326   */\n      mstore\n        /* \"#utility.yul\":4224:4332   */\n      pop\n      pop\n      jump\t// out\n        /* \"#utility.yul\":4338:4517   */\n    tag_227:\n        /* \"#utility.yul\":4407:4417   */\n      0x00\n        /* \"#utility.yul\":4428:4474   */\n      tag_291\n        /* \"#utility.yul\":4470:4473   */\n      dup4\n        /* \"#utility.yul\":4462:4468   */\n      dup4\n        /* \"#utility.yul\":4428:4474   */\n      tag_226\n      jump\t// in\n    tag_291:\n        /* \"#utility.yul\":4506:4510   */\n      0x20\n        /* \"#utility.yul\":4501:4504   */\n      dup4\n        /* \"#utility.yul\":4497:4511   */\n      add\n        /* \"#utility.yul\":4483:4511   */\n      swap1\n      pop\n        /* \"#utility.yul\":4338:4517   */\n      swap3\n      swap2\n      pop\n      pop\n      jump\t// out\n        /* \"#utility.yul\":4523:4636   */\n    tag_228:\n        /* \"#utility.yul\":4593:4597   */\n      0x00\n        /* \"#utility.yul\":4625:4629   */\n      0x20\n        /* \"#utility.yul\":4620:4623   */\n      dup3\n        /* \"#utility.yul\":4616:4630   */\n      add\n        /* \"#utility.yul\":4608:4630   */\n      swap1\n      pop\n        /* \"#utility.yul\":4523:4636   */\n      swap2\n      swap1\n      pop\n      jump\t// out\n        /* \"#utility.yul\":4672:5404   */\n    tag_229:\n        /* \"#utility.yul\":4791:4794   */\n      0x00\n        /* \"#utility.yul\":4820:4874   */\n      tag_294\n        /* \"#utility.yul\":4868:4873   */\n      dup3\n        /* \"#utility.yul\":4820:4874   */\n      tag_223\n      jump\t// in\n    tag_294:\n        /* \"#utility.yul\":4890:4976   */\n      tag_295\n        /* \"#utility.yul\":4969:4975   */\n      dup2\n        /* \"#utility.yul\":4964:4967   */\n      dup6\n        /* \"#utility.yul\":4890:4976   */\n      tag_224\n      jump\t// in\n    tag_295:\n        /* \"#utility.yul\":4883:4976   */\n      swap4\n      pop\n        /* \"#utility.yul\":5000:5056   */\n      tag_296\n        /* \"#utility.yul\":5050:5055   */\n      dup4\n        /* \"#utility.yul\":5000:5056   */\n      tag_225\n      jump\t// in\n    tag_296:\n        /* \"#utility.yul\":5079:5086   */\n      dup1\n        /* \"#utility.yul\":5110:5111   */\n      0x00\n        /* \"#utility.yul\":5095:5379   */\n    tag_297:\n        /* \"#utility.yul\":5120:5126   */\n      dup4\n        /* \"#utility.yul\":5117:5118   */\n      dup2\n        /* \"#utility.yul\":5114:5127   */\n      lt\n        /* \"#utility.yul\":5095:5379   */\n      iszero\n      tag_299\n      jumpi\n        /* \"#utility.yul\":5196:5202   */\n      dup2\n        /* \"#utility.yul\":5190:5203   */\n      mload\n        /* \"#utility.yul\":5223:5286   */\n      tag_300\n        /* \"#utility.yul\":5282:5285   */\n      dup9\n        /* \"#utility.yul\":5267:5280   */\n      dup3\n        /* \"#utility.yul\":5223:5286   */\n      tag_227\n      jump\t// in\n    tag_300:\n        /* \"#utility.yul\":5216:5286   */\n      swap8\n      pop\n        /* \"#utility.yul\":5309:5369   */\n      tag_301\n        /* \"#utility.yul\":5362:5368   */\n      dup4\n        /* \"#utility.yul\":5309:5369   */\n      tag_228\n      jump\t// in\n    tag_301:\n        /* \"#utility.yul\":5299:5369   */\n      swap3\n      pop\n        /* \"#utility.yul\":5155:5379   */\n      pop\n        /* \"#utility.yul\":5142:5143   */\n      0x01\n        /* \"#utility.yul\":5139:5140   */\n      dup2\n        /* \"#utility.yul\":5135:5144   */\n      add\n        /* \"#utility.yul\":5130:5144   */\n      swap1\n      pop\n        /* \"#utility.yul\":5095:5379   */\n      jump(tag_297)\n    tag_299:\n        /* \"#utility.yul\":5099:5113   */\n      pop\n        /* \"#utility.yul\":5395:5398   */\n      dup6\n        /* \"#utility.yul\":5388:5398   */\n      swap4\n      pop\n        /* \"#utility.yul\":4796:5404   */\n      pop\n      pop\n      pop\n        /* \"#utility.yul\":4672:5404   */\n      swap3\n      swap2\n      pop\n      pop\n      jump\t// out\n        /* \"#utility.yul\":5410:5524   */\n    tag_230:\n        /* \"#utility.yul\":5477:5483   */\n      0x00\n        /* \"#utility.yul\":5511:5516   */\n      dup2\n        /* \"#utility.yul\":5505:5517   */\n      mload\n        /* \"#utility.yul\":5495:5517   */\n      swap1\n      pop\n        /* \"#utility.yul\":5410:5524   */\n      swap2\n      swap1\n      pop\n      jump\t// out\n        /* \"#utility.yul\":5530:5714   */\n    tag_231:\n        /* \"#utility.yul\":5629:5640   */\n      0x00\n        /* \"#utility.yul\":5663:5669   */\n      dup3\n        /* \"#utility.yul\":5658:5661   */\n      dup3\n        /* \"#utility.yul\":5651:5670   */\n      mstore\n        /* \"#utility.yul\":5703:5707   */\n      0x20\n        /* \"#utility.yul\":5698:5701   */\n      dup3\n        /* \"#utility.yul\":5694:5708   */\n      add\n        /* \"#utility.yul\":5679:5708   */\n      swap1\n      pop\n        /* \"#utility.yul\":5530:5714   */\n      swap3\n      swap2\n      pop\n      pop\n      jump\t// out\n        /* \"#utility.yul\":5720:5852   */\n    tag_232:\n        /* \"#utility.yul\":5787:5791   */\n      0x00\n        /* \"#utility.yul\":5810:5813   */\n      dup2\n        /* \"#utility.yul\":5802:5813   */\n      swap1\n      pop\n        /* \"#utility.yul\":5840:5844   */\n      0x20\n        /* \"#utility.yul\":5835:5838   */\n      dup3\n        /* \"#utility.yul\":5831:5845   */\n      add\n        /* \"#utility.yul\":5823:5845   */\n      swap1\n      pop\n        /* \"#utility.yul\":5720:5852   */\n      swap2\n      swap1\n      pop\n      jump\t// out\n        /* \"#utility.yul\":5858:5966   */\n    tag_233:\n        /* \"#utility.yul\":5935:5959   */\n      tag_306\n        /* \"#utility.yul\":5953:5958   */\n      dup2\n        /* \"#utility.yul\":5935:5959   */\n      tag_218\n      jump\t// in\n    tag_306:\n        /* \"#utility.yul\":5930:5933   */\n      dup3\n        /* \"#utility.yul\":5923:5960   */\n      mstore\n        /* \"#utility.yul\":5858:5966   */\n      pop\n      pop\n      jump\t// out\n        /* \"#utility.yul\":5972:6151   */\n    tag_234:\n        /* \"#utility.yul\":6041:6051   */\n      0x00\n        /* \"#utility.yul\":6062:6108   */\n      tag_308\n        /* \"#utility.yul\":6104:6107   */\n      dup4\n        /* \"#utility.yul\":6096:6102   */\n      dup4\n        /* \"#utility.yul\":6062:6108   */\n      tag_233\n      jump\t// in\n    tag_308:\n        /* \"#utility.yul\":6140:6144   */\n      0x20\n        /* \"#utility.yul\":6135:6138   */\n      dup4\n        /* \"#utility.yul\":6131:6145   */\n      add\n        /* \"#utility.yul\":6117:6145   */\n      swap1\n      pop\n        /* \"#utility.yul\":5972:6151   */\n      swap3\n      swap2\n      pop\n      pop\n      jump\t// out\n        /* \"#utility.yul\":6157:6270   */\n    tag_235:\n        /* \"#utility.yul\":6227:6231   */\n      0x00\n        /* \"#utility.yul\":6259:6263   */\n      0x20\n        /* \"#utility.yul\":6254:6257   */\n      dup3\n        /* \"#utility.yul\":6250:6264   */\n      add\n        /* \"#utility.yul\":6242:6264   */\n      swap1\n      pop\n        /* \"#utility.yul\":6157:6270   */\n      swap2\n      swap1\n      pop\n      jump\t// out\n        /* \"#utility.yul\":6306:7038   */\n    tag_236:\n        /* \"#utility.yul\":6425:6428   */\n      0x00\n        /* \"#utility.yul\":6454:6508   */\n      tag_311\n        /* \"#utility.yul\":6502:6507   */\n      dup3\n        /* \"#utility.yul\":6454:6508   */\n      tag_230\n      jump\t// in\n    tag_311:\n        /* \"#utility.yul\":6524:6610   */\n      tag_312\n        /* \"#utility.yul\":6603:6609   */\n      dup2\n        /* \"#utility.yul\":6598:6601   */\n      dup6\n        /* \"#utility.yul\":6524:6610   */\n      tag_231\n      jump\t// in\n    tag_312:\n        /* \"#utility.yul\":6517:6610   */\n      swap4\n      pop\n        /* \"#utility.yul\":6634:6690   */\n      tag_313\n        /* \"#utility.yul\":6684:6689   */\n      dup4\n        /* \"#utility.yul\":6634:6690   */\n      tag_232\n      jump\t// in\n    tag_313:\n        /* \"#utility.yul\":6713:6720   */\n      dup1\n        /* \"#utility.yul\":6744:6745   */\n      0x00\n        /* \"#utility.yul\":6729:7013   */\n    tag_314:\n        /* \"#utility.yul\":6754:6760   */\n      dup4\n        /* \"#utility.yul\":6751:6752   */\n      dup2\n        /* \"#utility.yul\":6748:6761   */\n      lt\n        /* \"#utility.yul\":6729:7013   */\n      iszero\n      tag_316\n      jumpi\n        /* \"#utility.yul\":6830:6836   */\n      dup2\n        /* \"#utility.yul\":6824:6837   */\n      mload\n        /* \"#utility.yul\":6857:6920   */\n      tag_317\n        /* \"#utility.yul\":6916:6919   */\n      dup9\n        /* \"#utility.yul\":6901:6914   */\n      dup3\n        /* \"#utility.yul\":6857:6920   */\n      tag_234\n      jump\t// in\n    tag_317:\n        /* \"#utility.yul\":6850:6920   */\n      swap8\n      pop\n        /* \"#utility.yul\":6943:7003   */\n      tag_318\n        /* \"#utility.yul\":6996:7002   */\n      dup4\n        /* \"#utility.yul\":6943:7003   */\n      tag_235\n      jump\t// in\n    tag_318:\n        /* \"#utility.yul\":6933:7003   */\n      swap3\n      pop\n        /* \"#utility.yul\":6789:7013   */\n      pop\n        /* \"#utility.yul\":6776:6777   */\n      0x01\n        /* \"#utility.yul\":6773:6774   */\n      dup2\n        /* \"#utility.yul\":6769:6778   */\n      add\n        /* \"#utility.yul\":6764:6778   */\n      swap1\n      pop\n        /* \"#utility.yul\":6729:7013   */\n      jump(tag_314)\n    tag_316:\n        /* \"#utility.yul\":6733:6747   */\n      pop\n        /* \"#utility.yul\":7029:7032   */\n      dup6\n        /* \"#utility.yul\":7022:7032   */\n      swap4\n      pop\n        /* \"#utility.yul\":6430:7038   */\n      pop\n      pop\n      pop\n        /* \"#utility.yul\":6306:7038   */\n      swap3\n      swap2\n      pop\n      pop\n      jump\t// out\n        /* \"#utility.yul\":7044:7678   */\n    tag_75:\n        /* \"#utility.yul\":7265:7269   */\n      0x00\n        /* \"#utility.yul\":7303:7305   */\n      0x40\n        /* \"#utility.yul\":7292:7301   */\n      dup3\n        /* \"#utility.yul\":7288:7306   */\n      add\n        /* \"#utility.yul\":7280:7306   */\n      swap1\n      pop\n        /* \"#utility.yul\":7352:7361   */\n      dup2\n        /* \"#utility.yul\":7346:7350   */\n      dup2\n        /* \"#utility.yul\":7342:7362   */\n      sub\n        /* \"#utility.yul\":7338:7339   */\n      0x00\n        /* \"#utility.yul\":7327:7336   */\n      dup4\n        /* \"#utility.yul\":7323:7340   */\n      add\n        /* \"#utility.yul\":7316:7363   */\n      mstore\n        /* \"#utility.yul\":7380:7488   */\n      tag_320\n        /* \"#utility.yul\":7483:7487   */\n      dup2\n        /* \"#utility.yul\":7474:7480   */\n      dup6\n        /* \"#utility.yul\":7380:7488   */\n      tag_229\n      jump\t// in\n    tag_320:\n        /* \"#utility.yul\":7372:7488   */\n      swap1\n      pop\n        /* \"#utility.yul\":7535:7544   */\n      dup2\n        /* \"#utility.yul\":7529:7533   */\n      dup2\n        /* \"#utility.yul\":7525:7545   */\n      sub\n        /* \"#utility.yul\":7520:7522   */\n      0x20\n        /* \"#utility.yul\":7509:7518   */\n      dup4\n        /* \"#utility.yul\":7505:7523   */\n      add\n        /* \"#utility.yul\":7498:7546   */\n      mstore\n        /* \"#utility.yul\":7563:7671   */\n      tag_321\n        /* \"#utility.yul\":7666:7670   */\n      dup2\n        /* \"#utility.yul\":7657:7663   */\n      dup5\n        /* \"#utility.yul\":7563:7671   */\n      tag_236\n      jump\t// in\n    tag_321:\n        /* \"#utility.yul\":7555:7671   */\n      swap1\n      pop\n        /* \"#utility.yul\":7044:7678   */\n      swap4\n      swap3\n      pop\n      pop\n      pop\n      jump\t// out\n        /* \"#utility.yul\":7684:7864   */\n    tag_237:\n        /* \"#utility.yul\":7732:7809   */\n      0x4e487b7100000000000000000000000000000000000000000000000000000000\n        /* \"#utility.yul\":7729:7730   */\n      0x00\n        /* \"#utility.yul\":7722:7810   */\n      mstore\n        /* \"#utility.yul\":7829:7833   */\n      0x11\n        /* \"#utility.yul\":7826:7827   */\n      0x04\n        /* \"#utility.yul\":7819:7834   */\n      mstore\n        /* \"#utility.yul\":7853:7857   */\n      0x24\n        /* \"#utility.yul\":7850:7851   */\n      0x00\n        /* \"#utility.yul\":7843:7858   */\n      revert\n        /* \"#utility.yul\":7870:8061   */\n    tag_84:\n        /* \"#utility.yul\":7910:7913   */\n      0x00\n        /* \"#utility.yul\":7929:7949   */\n      tag_324\n        /* \"#utility.yul\":7947:7948   */\n      dup3\n        /* \"#utility.yul\":7929:7949   */\n      tag_218\n      jump\t// in\n    tag_324:\n        /* \"#utility.yul\":7924:7949   */\n      swap2\n      pop\n        /* \"#utility.yul\":7963:7983   */\n      tag_325\n        /* \"#utility.yul\":7981:7982   */\n      dup4\n        /* \"#utility.yul\":7963:7983   */\n      tag_218\n      jump\t// in\n    tag_325:\n        /* \"#utility.yul\":7958:7983   */\n      swap3\n      pop\n        /* \"#utility.yul\":8006:8007   */\n      dup3\n        /* \"#utility.yul\":8003:8004   */\n      dup3\n        /* \"#utility.yul\":7999:8008   */\n      add\n        /* \"#utility.yul\":7992:8008   */\n      swap1\n      pop\n        /* \"#utility.yul\":8027:8030   */\n      dup1\n        /* \"#utility.yul\":8024:8025   */\n      dup3\n        /* \"#utility.yul\":8021:8031   */\n      gt\n        /* \"#utility.yul\":8018:8054   */\n      iszero\n      tag_326\n      jumpi\n        /* \"#utility.yul\":8034:8052   */\n      tag_327\n      tag_237\n      jump\t// in\n    tag_327:\n        /* \"#utility.yul\":8018:8054   */\n    tag_326:\n        /* \"#utility.yul\":7870:8061   */\n      swap3\n      swap2\n      pop\n      pop\n      jump\t// out\n        /* \"#utility.yul\":8067:8291   */\n    tag_238:\n        /* \"#utility.yul\":8207:8241   */\n      0x4f6e6c792061646d696e2063616e20706572666f726d2074686973206f706572\n        /* \"#utility.yul\":8203:8204   */\n      0x00\n        /* \"#utility.yul\":8195:8201   */\n      dup3\n        /* \"#utility.yul\":8191:8205   */\n      add\n        /* \"#utility.yul\":8184:8242   */\n      mstore\n        /* \"#utility.yul\":8276:8283   */\n      0x6174696f6e000000000000000000000000000000000000000000000000000000\n        /* \"#utility.yul\":8271:8273   */\n      0x20\n        /* \"#utility.yul\":8263:8269   */\n      dup3\n        /* \"#utility.yul\":8259:8274   */\n      add\n        /* \"#utility.yul\":8252:8284   */\n      mstore\n        /* \"#utility.yul\":8067:8291   */\n      pop\n      jump\t// out\n        /* \"#utility.yul\":8297:8663   */\n    tag_239:\n        /* \"#utility.yul\":8439:8442   */\n      0x00\n        /* \"#utility.yul\":8460:8527   */\n      tag_330\n        /* \"#utility.yul\":8524:8526   */\n      0x25\n        /* \"#utility.yul\":8519:8522   */\n      dup4\n        /* \"#utility.yul\":8460:8527   */\n      tag_208\n      jump\t// in\n    tag_330:\n        /* \"#utility.yul\":8453:8527   */\n      swap2\n      pop\n        /* \"#utility.yul\":8536:8629   */\n      tag_331\n        /* \"#utility.yul\":8625:8628   */\n      dup3\n        /* \"#utility.yul\":8536:8629   */\n      tag_238\n      jump\t// in\n    tag_331:\n        /* \"#utility.yul\":8654:8656   */\n      0x40\n        /* \"#utility.yul\":8649:8652   */\n      dup3\n        /* \"#utility.yul\":8645:8657   */\n      add\n        /* \"#utility.yul\":8638:8657   */\n      swap1\n      pop\n        /* \"#utility.yul\":8297:8663   */\n      swap2\n      swap1\n      pop\n      jump\t// out\n        /* \"#utility.yul\":8669:9088   */\n    tag_93:\n        /* \"#utility.yul\":8835:8839   */\n      0x00\n        /* \"#utility.yul\":8873:8875   */\n      0x20\n        /* \"#utility.yul\":8862:8871   */\n      dup3\n        /* \"#utility.yul\":8858:8876   */\n      add\n        /* \"#utility.yul\":8850:8876   */\n      swap1\n      pop\n        /* \"#utility.yul\":8922:8931   */\n      dup2\n        /* \"#utility.yul\":8916:8920   */\n      dup2\n        /* \"#utility.yul\":8912:8932   */\n      sub\n        /* \"#utility.yul\":8908:8909   */\n      0x00\n        /* \"#utility.yul\":8897:8906   */\n      dup4\n        /* \"#utility.yul\":8893:8910   */\n      add\n        /* \"#utility.yul\":8886:8933   */\n      mstore\n        /* \"#utility.yul\":8950:9081   */\n      tag_333\n        /* \"#utility.yul\":9076:9080   */\n      dup2\n        /* \"#utility.yul\":8950:9081   */\n      tag_239\n      jump\t// in\n    tag_333:\n        /* \"#utility.yul\":8942:9081   */\n      swap1\n      pop\n        /* \"#utility.yul\":8669:9088   */\n      swap2\n      swap1\n      pop\n      jump\t// out\n        /* \"#utility.yul\":9094:9264   */\n    tag_240:\n        /* \"#utility.yul\":9234:9256   */\n      0x4e6f2066756e647320746f207769746864726177000000000000000000000000\n        /* \"#utility.yul\":9230:9231   */\n      0x00\n        /* \"#utility.yul\":9222:9228   */\n      dup3\n        /* \"#utility.yul\":9218:9232   */\n      add\n        /* \"#utility.yul\":9211:9257   */\n      mstore\n        /* \"#utility.yul\":9094:9264   */\n      pop\n      jump\t// out\n        /* \"#utility.yul\":9270:9636   */\n    tag_241:\n        /* \"#utility.yul\":9412:9415   */\n      0x00\n        /* \"#utility.yul\":9433:9500   */\n      tag_336\n        /* \"#utility.yul\":9497:9499   */\n      0x14\n        /* \"#utility.yul\":9492:9495   */\n      dup4\n        /* \"#utility.yul\":9433:9500   */\n      tag_208\n      jump\t// in\n    tag_336:\n        /* \"#utility.yul\":9426:9500   */\n      swap2\n      pop\n        /* \"#utility.yul\":9509:9602   */\n      tag_337\n        /* \"#utility.yul\":9598:9601   */\n      dup3\n        /* \"#utility.yul\":9509:9602   */\n      tag_240\n      jump\t// in\n    tag_337:\n        /* \"#utility.yul\":9627:9629   */\n      0x20\n        /* \"#utility.yul\":9622:9625   */\n      dup3\n        /* \"#utility.yul\":9618:9630   */\n      add\n        /* \"#utility.yul\":9611:9630   */\n      swap1\n      pop\n        /* \"#utility.yul\":9270:9636   */\n      swap2\n      swap1\n      pop\n      jump\t// out\n        /* \"#utility.yul\":9642:10061   */\n    tag_97:\n        /* \"#utility.yul\":9808:9812   */\n      0x00\n        /* \"#utility.yul\":9846:9848   */\n      0x20\n        /* \"#utility.yul\":9835:9844   */\n      dup3\n        /* \"#utility.yul\":9831:9849   */\n      add\n        /* \"#utility.yul\":9823:9849   */\n      swap1\n      pop\n        /* \"#utility.yul\":9895:9904   */\n      dup2\n        /* \"#utility.yul\":9889:9893   */\n      dup2\n        /* \"#utility.yul\":9885:9905   */\n      sub\n        /* \"#utility.yul\":9881:9882   */\n      0x00\n        /* \"#utility.yul\":9870:9879   */\n      dup4\n        /* \"#utility.yul\":9866:9883   */\n      add\n        /* \"#utility.yul\":9859:9906   */\n      mstore\n        /* \"#utility.yul\":9923:10054   */\n      tag_339\n        /* \"#utility.yul\":10049:10053   */\n      dup2\n        /* \"#utility.yul\":9923:10054   */\n      tag_241\n      jump\t// in\n    tag_339:\n        /* \"#utility.yul\":9915:10054   */\n      swap1\n      pop\n        /* \"#utility.yul\":9642:10061   */\n      swap2\n      swap1\n      pop\n      jump\t// out\n        /* \"#utility.yul\":10067:10249   */\n    tag_242:\n        /* \"#utility.yul\":10207:10241   */\n      0x4e65772061646d696e2063616e6e6f74206265207a65726f2061646472657373\n        /* \"#utility.yul\":10203:10204   */\n      0x00\n        /* \"#utility.yul\":10195:10201   */\n      dup3\n        /* \"#utility.yul\":10191:10205   */\n      add\n        /* \"#utility.yul\":10184:10242   */\n      mstore\n        /* \"#utility.yul\":10067:10249   */\n      pop\n      jump\t// out\n        /* \"#utility.yul\":10255:10621   */\n    tag_243:\n        /* \"#utility.yul\":10397:10400   */\n      0x00\n        /* \"#utility.yul\":10418:10485   */\n      tag_342\n        /* \"#utility.yul\":10482:10484   */\n      0x20\n        /* \"#utility.yul\":10477:10480   */\n      dup4\n        /* \"#utility.yul\":10418:10485   */\n      tag_208\n      jump\t// in\n    tag_342:\n        /* \"#utility.yul\":10411:10485   */\n      swap2\n      pop\n        /* \"#utility.yul\":10494:10587   */\n      tag_343\n        /* \"#utility.yul\":10583:10586   */\n      dup3\n        /* \"#utility.yul\":10494:10587   */\n      tag_242\n      jump\t// in\n    tag_343:\n        /* \"#utility.yul\":10612:10614   */\n      0x20\n        /* \"#utility.yul\":10607:10610   */\n      dup3\n        /* \"#utility.yul\":10603:10615   */\n      add\n        /* \"#utility.yul\":10596:10615   */\n      swap1\n      pop\n        /* \"#utility.yul\":10255:10621   */\n      swap2\n      swap1\n      pop\n      jump\t// out\n        /* \"#utility.yul\":10627:11046   */\n    tag_110:\n        /* \"#utility.yul\":10793:10797   */\n      0x00\n        /* \"#utility.yul\":10831:10833   */\n      0x20\n        /* \"#utility.yul\":10820:10829   */\n      dup3\n        /* \"#utility.yul\":10816:10834   */\n      add\n        /* \"#utility.yul\":10808:10834   */\n      swap1\n      pop\n        /* \"#utility.yul\":10880:10889   */\n      dup2\n        /* \"#utility.yul\":10874:10878   */\n      dup2\n        /* \"#utility.yul\":10870:10890   */\n      sub\n        /* \"#utility.yul\":10866:10867   */\n      0x00\n        /* \"#utility.yul\":10855:10864   */\n      dup4\n        /* \"#utility.yul\":10851:10868   */\n      add\n        /* \"#utility.yul\":10844:10891   */\n      mstore\n        /* \"#utility.yul\":10908:11039   */\n      tag_345\n        /* \"#utility.yul\":11034:11038   */\n      dup2\n        /* \"#utility.yul\":10908:11039   */\n      tag_243\n      jump\t// in\n    tag_345:\n        /* \"#utility.yul\":10900:11039   */\n      swap1\n      pop\n        /* \"#utility.yul\":10627:11046   */\n      swap2\n      swap1\n      pop\n      jump\t// out\n        /* \"#utility.yul\":11052:11232   */\n    tag_129:\n        /* \"#utility.yul\":11100:11177   */\n      0x4e487b7100000000000000000000000000000000000000000000000000000000\n        /* \"#utility.yul\":11097:11098   */\n      0x00\n        /* \"#utility.yul\":11090:11178   */\n      mstore\n        /* \"#utility.yul\":11197:11201   */\n      0x32\n        /* \"#utility.yul\":11194:11195   */\n      0x04\n        /* \"#utility.yul\":11187:11202   */\n      mstore\n        /* \"#utility.yul\":11221:11225   */\n      0x24\n        /* \"#utility.yul\":11218:11219   */\n      0x00\n        /* \"#utility.yul\":11211:11226   */\n      revert\n\n    auxdata: 0xa26469706673582212208a1cbca90caca507bbf4f000eaf1f6ff2768a134269f7ee3358c5e03654ba84264736f6c634300081a0033\n}\n",
				"bytecode": {
					"linkReferences": {},
					"object": "6080604052348015600e575f80fd5b50335f806101000a81548173ffffffffffffffffffffffffffffffffffffffff021916908373ffffffffffffffffffffffffffffffffffffffff1602179055506114778061005b5f395ff3fe60806040526004361061009f575f3560e01c80636f9fb98a116100635780636f9fb98a1461025457806375829def1461027e57806391c1aae6146102a6578063d0e30db0146102e2578063f39dfb17146102ec578063f851a44014610317576100f9565b806327e235e31461014e578063365b98b21461018a5780633ccfd60b146101c657806347734892146101dc578063689dbf4e14610218576100f9565b366100f95766038d7ea4c6800034116100ed576040517f08c379a00000000000000000000000000000000000000000000000000000000081526004016100e490610f5e565b60405180910390fd5b6100f73334610341565b005b66038d7ea4c680003411610142576040517f08c379a000000000000000000000000000000000000000000000000000000000815260040161013990610f5e565b60405180910390fd5b61014c3334610341565b005b348015610159575f80fd5b50610174600480360381019061016f9190610fda565b6104ac565b604051610181919061101d565b60405180910390f35b348015610195575f80fd5b506101b060048036038101906101ab9190611060565b6104c1565b6040516101bd919061109a565b60405180910390f35b3480156101d1575f80fd5b506101da6104fc565b005b3480156101e7575f80fd5b5061020260048036038101906101fd9190610fda565b610635565b60405161020f919061101d565b60405180910390f35b348015610223575f80fd5b5061023e60048036038101906102399190611060565b61067b565b60405161024b919061109a565b60405180910390f35b34801561025f575f80fd5b506102686106b6565b604051610275919061101d565b60405180910390f35b348015610289575f80fd5b506102a4600480360381019061029f9190610fda565b6106bd565b005b3480156102b1575f80fd5b506102cc60048036038101906102c79190611060565b6107fa565b6040516102d9919061101d565b60405180910390f35b6102ea61081a565b005b3480156102f7575f80fd5b5061030061086f565b60405161030e929190611221565b60405180910390f35b348015610322575f80fd5b5061032b610953565b604051610338919061109a565b60405180910390f35b5f60015f8473ffffffffffffffffffffffffffffffffffffffff1673ffffffffffffffffffffffffffffffffffffffff1681526020019081526020015f2054036103e657600282908060018154018082558091505060019003905f5260205f20015f9091909190916101000a81548173ffffffffffffffffffffffffffffffffffffffff021916908373ffffffffffffffffffffffffffffffffffffffff1602179055505b8060015f8473ffffffffffffffffffffffffffffffffffffffff1673ffffffffffffffffffffffffffffffffffffffff1681526020019081526020015f205f8282546104329190611283565b925050819055503073ffffffffffffffffffffffffffffffffffffffff168273ffffffffffffffffffffffffffffffffffffffff167f5548c837ab068cf56a2c2479df0882a4922fd203edb7517321831d95078c5f6283604051610496919061101d565b60405180910390a36104a88282610976565b5050565b6001602052805f5260405f205f915090505481565b600281815481106104d0575f80fd5b905f5260205f20015f915054906101000a900473ffffffffffffffffffffffffffffffffffffffff1681565b5f8054906101000a900473ffffffffffffffffffffffffffffffffffffffff1673ffffffffffffffffffffffffffffffffffffffff163373ffffffffffffffffffffffffffffffffffffffff1614610589576040517f08c379a000000000000000000000000000000000000000000000000000000000815260040161058090611326565b60405180910390fd5b5f4790505f81116105cf576040517f08c379a00000000000000000000000000000000000000000000000000000000081526004016105c69061138e565b60405180910390fd5b5f8054906101000a900473ffffffffffffffffffffffffffffffffffffffff1673ffffffffffffffffffffffffffffffffffffffff166108fc8290811502906040515f60405180830381858888f19350505050158015610631573d5f803e3d5ffd5b5050565b5f60015f8373ffffffffffffffffffffffffffffffffffffffff1673ffffffffffffffffffffffffffffffffffffffff1681526020019081526020015f20549050919050565b6004818154811061068a575f80fd5b905f5260205f20015f915054906101000a900473ffffffffffffffffffffffffffffffffffffffff1681565b5f47905090565b5f8054906101000a900473ffffffffffffffffffffffffffffffffffffffff1673ffffffffffffffffffffffffffffffffffffffff163373ffffffffffffffffffffffffffffffffffffffff161461074a576040517f08c379a000000000000000000000000000000000000000000000000000000000815260040161074190611326565b60405180910390fd5b5f73ffffffffffffffffffffffffffffffffffffffff168173ffffffffffffffffffffffffffffffffffffffff16036107b8576040517f08c379a00000000000000000000000000000000000000000000000000000000081526004016107af906113f6565b60405180910390fd5b805f806101000a81548173ffffffffffffffffffffffffffffffffffffffff021916908373ffffffffffffffffffffffffffffffffffffffff16021790555050565b60038181548110610809575f80fd5b905f5260205f20015f915090505481565b66038d7ea4c680003411610863576040517f08c379a000000000000000000000000000000000000000000000000000000000815260040161085a90610f5e565b60405180910390fd5b61086d3334610341565b565b60608060046003818054806020026020016040519081016040528092919081815260200182805480156108f457602002820191905f5260205f20905b815f9054906101000a900473ffffffffffffffffffffffffffffffffffffffff1673ffffffffffffffffffffffffffffffffffffffff16815260200190600101908083116108ab575b505050505091508080548060200260200160405190810160405280929190818152602001828054801561094457602002820191905f5260205f20905b815481526020019060010190808311610930575b50505050509050915091509091565b5f8054906101000a900473ffffffffffffffffffffffffffffffffffffffff1681565b5f5b600480549050811015610a7d578273ffffffffffffffffffffffffffffffffffffffff16600482815481106109b0576109af611414565b5b905f5260205f20015f9054906101000a900473ffffffffffffffffffffffffffffffffffffffff1673ffffffffffffffffffffffffffffffffffffffff1603610a70578160038281548110610a0857610a07611414565b5b905f5260205f200181905550610a1c610c1e565b8273ffffffffffffffffffffffffffffffffffffffff167fd6205b4cb548ead6d931d099314bcf8c604c0908cf235d00c8ecbbff8aa77e2883604051610a62919061101d565b60405180910390a250610c1a565b8080600101915050610978565b5060036004805490501015610b1f57600482908060018154018082558091505060019003905f5260205f20015f9091909190916101000a81548173ffffffffffffffffffffffffffffffffffffffff021916908373ffffffffffffffffffffffffffffffffffffffff160217905550600381908060018154018082558091505060019003905f5260205f20015f9091909190915055610b1a610c1e565b610bcb565b6003600281548110610b3457610b33611414565b5b905f5260205f200154811115610bca57816004600281548110610b5a57610b59611414565b5b905f5260205f20015f6101000a81548173ffffffffffffffffffffffffffffffffffffffff021916908373ffffffffffffffffffffffffffffffffffffffff160217905550806003600281548110610bb557610bb4611414565b5b905f5260205f200181905550610bc9610c1e565b5b5b8173ffffffffffffffffffffffffffffffffffffffff167fd6205b4cb548ead6d931d099314bcf8c604c0908cf235d00c8ecbbff8aa77e2882604051610c11919061101d565b60405180910390a25b5050565b600260038054905010610d26576003600181548110610c4057610c3f611414565b5b905f5260205f20015460035f81548110610c5d57610c5c611414565b5b905f5260205f2001541015610c7857610c775f6001610d28565b5b6002600380549050118015610cc657506003600281548110610c9d57610c9c611414565b5b905f5260205f2001546003600181548110610cbb57610cba611414565b5b905f5260205f200154105b15610d2557610cd760016002610d28565b6003600181548110610cec57610ceb611414565b5b905f5260205f20015460035f81548110610d0957610d08611414565b5b905f5260205f2001541015610d2457610d235f6001610d28565b5b5b5b565b60038181548110610d3c57610d3b611414565b5b905f5260205f20015460038381548110610d5957610d58611414565b5b905f5260205f20015460038481548110610d7657610d75611414565b5b905f5260205f20015f60038581548110610d9357610d92611414565b5b905f5260205f20015f84919050558391905055505060048181548110610dbc57610dbb611414565b5b905f5260205f20015f9054906101000a900473ffffffffffffffffffffffffffffffffffffffff1660048381548110610df857610df7611414565b5b905f5260205f20015f9054906101000a900473ffffffffffffffffffffffffffffffffffffffff1660048481548110610e3457610e33611414565b5b905f5260205f20015f60048581548110610e5157610e50611414565b5b905f5260205f20015f8491906101000a81548173ffffffffffffffffffffffffffffffffffffffff021916908373ffffffffffffffffffffffffffffffffffffffff1602179055508391906101000a81548173ffffffffffffffffffffffffffffffffffffffff021916908373ffffffffffffffffffffffffffffffffffffffff16021790555050505050565b5f82825260208201905092915050565b7f4465706f736974206d7573742062652067726561746572207468616e20302e305f8201527f3031206574686572000000000000000000000000000000000000000000000000602082015250565b5f610f48602883610ede565b9150610f5382610eee565b604082019050919050565b5f6020820190508181035f830152610f7581610f3c565b9050919050565b5f80fd5b5f73ffffffffffffffffffffffffffffffffffffffff82169050919050565b5f610fa982610f80565b9050919050565b610fb981610f9f565b8114610fc3575f80fd5b50565b5f81359050610fd481610fb0565b92915050565b5f60208284031215610fef57610fee610f7c565b5b5f610ffc84828501610fc6565b91505092915050565b5f819050919050565b61101781611005565b82525050565b5f6020820190506110305f83018461100e565b92915050565b61103f81611005565b8114611049575f80fd5b50565b5f8135905061105a81611036565b92915050565b5f6020828403121561107557611074610f7c565b5b5f6110828482850161104c565b91505092915050565b61109481610f9f565b82525050565b5f6020820190506110ad5f83018461108b565b92915050565b5f81519050919050565b5f82825260208201905092915050565b5f819050602082019050919050565b6110e581610f9f565b82525050565b5f6110f683836110dc565b60208301905092915050565b5f602082019050919050565b5f611118826110b3565b61112281856110bd565b935061112d836110cd565b805f5b8381101561115d57815161114488826110eb565b975061114f83611102565b925050600181019050611130565b5085935050505092915050565b5f81519050919050565b5f82825260208201905092915050565b5f819050602082019050919050565b61119c81611005565b82525050565b5f6111ad8383611193565b60208301905092915050565b5f602082019050919050565b5f6111cf8261116a565b6111d98185611174565b93506111e483611184565b805f5b838110156112145781516111fb88826111a2565b9750611206836111b9565b9250506001810190506111e7565b5085935050505092915050565b5f6040820190508181035f830152611239818561110e565b9050818103602083015261124d81846111c5565b90509392505050565b7f4e487b71000000000000000000000000000000000000000000000000000000005f52601160045260245ffd5b5f61128d82611005565b915061129883611005565b92508282019050808211156112b0576112af611256565b5b92915050565b7f4f6e6c792061646d696e2063616e20706572666f726d2074686973206f7065725f8201527f6174696f6e000000000000000000000000000000000000000000000000000000602082015250565b5f611310602583610ede565b915061131b826112b6565b604082019050919050565b5f6020820190508181035f83015261133d81611304565b9050919050565b7f4e6f2066756e647320746f2077697468647261770000000000000000000000005f82015250565b5f611378601483610ede565b915061138382611344565b602082019050919050565b5f6020820190508181035f8301526113a58161136c565b9050919050565b7f4e65772061646d696e2063616e6e6f74206265207a65726f20616464726573735f82015250565b5f6113e0602083610ede565b91506113eb826113ac565b602082019050919050565b5f6020820190508181035f83015261140d816113d4565b9050919050565b7f4e487b71000000000000000000000000000000000000000000000000000000005f52603260045260245ffdfea26469706673582212208a1cbca90caca507bbf4f000eaf1f6ff2768a134269f7ee3358c5e03654ba84264736f6c634300081a0033",
					"opcodes": "PUSH1 0x80 PUSH1 0x40 MSTORE CALLVALUE DUP1 ISZERO PUSH1 0xE JUMPI PUSH0 DUP1 REVERT JUMPDEST POP CALLER PUSH0 DUP1 PUSH2 0x100 EXP DUP2 SLOAD DUP2 PUSH20 0xFFFFFFFFFFFFFFFFFFFFFFFFFFFFFFFFFFFFFFFF MUL NOT AND SWAP1 DUP4 PUSH20 0xFFFFFFFFFFFFFFFFFFFFFFFFFFFFFFFFFFFFFFFF AND MUL OR SWAP1 SSTORE POP PUSH2 0x1477 DUP1 PUSH2 0x5B PUSH0 CODECOPY PUSH0 RETURN INVALID PUSH1 0x80 PUSH1 0x40 MSTORE PUSH1 0x4 CALLDATASIZE LT PUSH2 0x9F JUMPI PUSH0 CALLDATALOAD PUSH1 0xE0 SHR DUP1 PUSH4 0x6F9FB98A GT PUSH2 0x63 JUMPI DUP1 PUSH4 0x6F9FB98A EQ PUSH2 0x254 JUMPI DUP1 PUSH4 0x75829DEF EQ PUSH2 0x27E JUMPI DUP1 PUSH4 0x91C1AAE6 EQ PUSH2 0x2A6 JUMPI DUP1 PUSH4 0xD0E30DB0 EQ PUSH2 0x2E2 JUMPI DUP1 PUSH4 0xF39DFB17 EQ PUSH2 0x2EC JUMPI DUP1 PUSH4 0xF851A440 EQ PUSH2 0x317 JUMPI PUSH2 0xF9 JUMP JUMPDEST DUP1 PUSH4 0x27E235E3 EQ PUSH2 0x14E JUMPI DUP1 PUSH4 0x365B98B2 EQ PUSH2 0x18A JUMPI DUP1 PUSH4 0x3CCFD60B EQ PUSH2 0x1C6 JUMPI DUP1 PUSH4 0x47734892 EQ PUSH2 0x1DC JUMPI DUP1 PUSH4 0x689DBF4E EQ PUSH2 0x218 JUMPI PUSH2 0xF9 JUMP JUMPDEST CALLDATASIZE PUSH2 0xF9 JUMPI PUSH7 0x38D7EA4C68000 CALLVALUE GT PUSH2 0xED JUMPI PUSH1 0x40 MLOAD PUSH32 0x8C379A000000000000000000000000000000000000000000000000000000000 DUP2 MSTORE PUSH1 0x4 ADD PUSH2 0xE4 SWAP1 PUSH2 0xF5E JUMP JUMPDEST PUSH1 0x40 MLOAD DUP1 SWAP2 SUB SWAP1 REVERT JUMPDEST PUSH2 0xF7 CALLER CALLVALUE PUSH2 0x341 JUMP JUMPDEST STOP JUMPDEST PUSH7 0x38D7EA4C68000 CALLVALUE GT PUSH2 0x142 JUMPI PUSH1 0x40 MLOAD PUSH32 0x8C379A000000000000000000000000000000000000000000000000000000000 DUP2 MSTORE PUSH1 0x4 ADD PUSH2 0x139 SWAP1 PUSH2 0xF5E JUMP JUMPDEST PUSH1 0x40 MLOAD DUP1 SWAP2 SUB SWAP1 REVERT JUMPDEST PUSH2 0x14C CALLER CALLVALUE PUSH2 0x341 JUMP JUMPDEST STOP JUMPDEST CALLVALUE DUP1 ISZERO PUSH2 0x159 JUMPI PUSH0 DUP1 REVERT JUMPDEST POP PUSH2 0x174 PUSH1 0x4 DUP1 CALLDATASIZE SUB DUP2 ADD SWAP1 PUSH2 0x16F SWAP2 SWAP1 PUSH2 0xFDA JUMP JUMPDEST PUSH2 0x4AC JUMP JUMPDEST PUSH1 0x40 MLOAD PUSH2 0x181 SWAP2 SWAP1 PUSH2 0x101D JUMP JUMPDEST PUSH1 0x40 MLOAD DUP1 SWAP2 SUB SWAP1 RETURN JUMPDEST CALLVALUE DUP1 ISZERO PUSH2 0x195 JUMPI PUSH0 DUP1 REVERT JUMPDEST POP PUSH2 0x1B0 PUSH1 0x4 DUP1 CALLDATASIZE SUB DUP2 ADD SWAP1 PUSH2 0x1AB SWAP2 SWAP1 PUSH2 0x1060 JUMP JUMPDEST PUSH2 0x4C1 JUMP JUMPDEST PUSH1 0x40 MLOAD PUSH2 0x1BD SWAP2 SWAP1 PUSH2 0x109A JUMP JUMPDEST PUSH1 0x40 MLOAD DUP1 SWAP2 SUB SWAP1 RETURN JUMPDEST CALLVALUE DUP1 ISZERO PUSH2 0x1D1 JUMPI PUSH0 DUP1 REVERT JUMPDEST POP PUSH2 0x1DA PUSH2 0x4FC JUMP JUMPDEST STOP JUMPDEST CALLVALUE DUP1 ISZERO PUSH2 0x1E7 JUMPI PUSH0 DUP1 REVERT JUMPDEST POP PUSH2 0x202 PUSH1 0x4 DUP1 CALLDATASIZE SUB DUP2 ADD SWAP1 PUSH2 0x1FD SWAP2 SWAP1 PUSH2 0xFDA JUMP JUMPDEST PUSH2 0x635 JUMP JUMPDEST PUSH1 0x40 MLOAD PUSH2 0x20F SWAP2 SWAP1 PUSH2 0x101D JUMP JUMPDEST PUSH1 0x40 MLOAD DUP1 SWAP2 SUB SWAP1 RETURN JUMPDEST CALLVALUE DUP1 ISZERO PUSH2 0x223 JUMPI PUSH0 DUP1 REVERT JUMPDEST POP PUSH2 0x23E PUSH1 0x4 DUP1 CALLDATASIZE SUB DUP2 ADD SWAP1 PUSH2 0x239 SWAP2 SWAP1 PUSH2 0x1060 JUMP JUMPDEST PUSH2 0x67B JUMP JUMPDEST PUSH1 0x40 MLOAD PUSH2 0x24B SWAP2 SWAP1 PUSH2 0x109A JUMP JUMPDEST PUSH1 0x40 MLOAD DUP1 SWAP2 SUB SWAP1 RETURN JUMPDEST CALLVALUE DUP1 ISZERO PUSH2 0x25F JUMPI PUSH0 DUP1 REVERT JUMPDEST POP PUSH2 0x268 PUSH2 0x6B6 JUMP JUMPDEST PUSH1 0x40 MLOAD PUSH2 0x275 SWAP2 SWAP1 PUSH2 0x101D JUMP JUMPDEST PUSH1 0x40 MLOAD DUP1 SWAP2 SUB SWAP1 RETURN JUMPDEST CALLVALUE DUP1 ISZERO PUSH2 0x289 JUMPI PUSH0 DUP1 REVERT JUMPDEST POP PUSH2 0x2A4 PUSH1 0x4 DUP1 CALLDATASIZE SUB DUP2 ADD SWAP1 PUSH2 0x29F SWAP2 SWAP1 PUSH2 0xFDA JUMP JUMPDEST PUSH2 0x6BD JUMP JUMPDEST STOP JUMPDEST CALLVALUE DUP1 ISZERO PUSH2 0x2B1 JUMPI PUSH0 DUP1 REVERT JUMPDEST POP PUSH2 0x2CC PUSH1 0x4 DUP1 CALLDATASIZE SUB DUP2 ADD SWAP1 PUSH2 0x2C7 SWAP2 SWAP1 PUSH2 0x1060 JUMP JUMPDEST PUSH2 0x7FA JUMP JUMPDEST PUSH1 0x40 MLOAD PUSH2 0x2D9 SWAP2 SWAP1 PUSH2 0x101D JUMP JUMPDEST PUSH1 0x40 MLOAD DUP1 SWAP2 SUB SWAP1 RETURN JUMPDEST PUSH2 0x2EA PUSH2 0x81A JUMP JUMPDEST STOP JUMPDEST CALLVALUE DUP1 ISZERO PUSH2 0x2F7 JUMPI PUSH0 DUP1 REVERT JUMPDEST POP PUSH2 0x300 PUSH2 0x86F JUMP JUMPDEST PUSH1 0x40 MLOAD PUSH2 0x30E SWAP3 SWAP2 SWAP1 PUSH2 0x1221 JUMP JUMPDEST PUSH1 0x40 MLOAD DUP1 SWAP2 SUB SWAP1 RETURN JUMPDEST CALLVALUE DUP1 ISZERO PUSH2 0x322 JUMPI PUSH0 DUP1 REVERT JUMPDEST POP PUSH2 0x32B PUSH2 0x953 JUMP JUMPDEST PUSH1 0x40 MLOAD PUSH2 0x338 SWAP2 SWAP1 PUSH2 0x109A JUMP JUMPDEST PUSH1 0x40 MLOAD DUP1 SWAP2 SUB SWAP1 RETURN JUMPDEST PUSH0 PUSH1 0x1 PUSH0 DUP5 PUSH20 0xFFFFFFFFFFFFFFFFFFFFFFFFFFFFFFFFFFFFFFFF AND PUSH20 0xFFFFFFFFFFFFFFFFFFFFFFFFFFFFFFFFFFFFFFFF AND DUP2 MSTORE PUSH1 0x20 ADD SWAP1 DUP2 MSTORE PUSH1 0x20 ADD PUSH0 KECCAK256 SLOAD SUB PUSH2 0x3E6 JUMPI PUSH1 0x2 DUP3 SWAP1 DUP1 PUSH1 0x1 DUP2 SLOAD ADD DUP1 DUP3 SSTORE DUP1 SWAP2 POP POP PUSH1 0x1 SWAP1 SUB SWAP1 PUSH0 MSTORE PUSH1 0x20 PUSH0 KECCAK256 ADD PUSH0 SWAP1 SWAP2 SWAP1 SWAP2 SWAP1 SWAP2 PUSH2 0x100 EXP DUP2 SLOAD DUP2 PUSH20 0xFFFFFFFFFFFFFFFFFFFFFFFFFFFFFFFFFFFFFFFF MUL NOT AND SWAP1 DUP4 PUSH20 0xFFFFFFFFFFFFFFFFFFFFFFFFFFFFFFFFFFFFFFFF AND MUL OR SWAP1 SSTORE POP JUMPDEST DUP1 PUSH1 0x1 PUSH0 DUP5 PUSH20 0xFFFFFFFFFFFFFFFFFFFFFFFFFFFFFFFFFFFFFFFF AND PUSH20 0xFFFFFFFFFFFFFFFFFFFFFFFFFFFFFFFFFFFFFFFF AND DUP2 MSTORE PUSH1 0x20 ADD SWAP1 DUP2 MSTORE PUSH1 0x20 ADD PUSH0 KECCAK256 PUSH0 DUP3 DUP3 SLOAD PUSH2 0x432 SWAP2 SWAP1 PUSH2 0x1283 JUMP JUMPDEST SWAP3 POP POP DUP2 SWAP1 SSTORE POP ADDRESS PUSH20 0xFFFFFFFFFFFFFFFFFFFFFFFFFFFFFFFFFFFFFFFF AND DUP3 PUSH20 0xFFFFFFFFFFFFFFFFFFFFFFFFFFFFFFFFFFFFFFFF AND PUSH32 0x5548C837AB068CF56A2C2479DF0882A4922FD203EDB7517321831D95078C5F62 DUP4 PUSH1 0x40 MLOAD PUSH2 0x496 SWAP2 SWAP1 PUSH2 0x101D JUMP JUMPDEST PUSH1 0x40 MLOAD DUP1 SWAP2 SUB SWAP1 LOG3 PUSH2 0x4A8 DUP3 DUP3 PUSH2 0x976 JUMP JUMPDEST POP POP JUMP JUMPDEST PUSH1 0x1 PUSH1 0x20 MSTORE DUP1 PUSH0 MSTORE PUSH1 0x40 PUSH0 KECCAK256 PUSH0 SWAP2 POP SWAP1 POP SLOAD DUP2 JUMP JUMPDEST PUSH1 0x2 DUP2 DUP2 SLOAD DUP2 LT PUSH2 0x4D0 JUMPI PUSH0 DUP1 REVERT JUMPDEST SWAP1 PUSH0 MSTORE PUSH1 0x20 PUSH0 KECCAK256 ADD PUSH0 SWAP2 POP SLOAD SWAP1 PUSH2 0x100 EXP SWAP1 DIV PUSH20 0xFFFFFFFFFFFFFFFFFFFFFFFFFFFFFFFFFFFFFFFF AND DUP2 JUMP JUMPDEST PUSH0 DUP1 SLOAD SWAP1 PUSH2 0x100 EXP SWAP1 DIV PUSH20 0xFFFFFFFFFFFFFFFFFFFFFFFFFFFFFFFFFFFFFFFF AND PUSH20 0xFFFFFFFFFFFFFFFFFFFFFFFFFFFFFFFFFFFFFFFF AND CALLER PUSH20 0xFFFFFFFFFFFFFFFFFFFFFFFFFFFFFFFFFFFFFFFF AND EQ PUSH2 0x589 JUMPI PUSH1 0x40 MLOAD PUSH32 0x8C379A000000000000000000000000000000000000000000000000000000000 DUP2 MSTORE PUSH1 0x4 ADD PUSH2 0x580 SWAP1 PUSH2 0x1326 JUMP JUMPDEST PUSH1 0x40 MLOAD DUP1 SWAP2 SUB SWAP1 REVERT JUMPDEST PUSH0 SELFBALANCE SWAP1 POP PUSH0 DUP2 GT PUSH2 0x5CF JUMPI PUSH1 0x40 MLOAD PUSH32 0x8C379A000000000000000000000000000000000000000000000000000000000 DUP2 MSTORE PUSH1 0x4 ADD PUSH2 0x5C6 SWAP1 PUSH2 0x138E JUMP JUMPDEST PUSH1 0x40 MLOAD DUP1 SWAP2 SUB SWAP1 REVERT JUMPDEST PUSH0 DUP1 SLOAD SWAP1 PUSH2 0x100 EXP SWAP1 DIV PUSH20 0xFFFFFFFFFFFFFFFFFFFFFFFFFFFFFFFFFFFFFFFF AND PUSH20 0xFFFFFFFFFFFFFFFFFFFFFFFFFFFFFFFFFFFFFFFF AND PUSH2 0x8FC DUP3 SWAP1 DUP2 ISZERO MUL SWAP1 PUSH1 0x40 MLOAD PUSH0 PUSH1 0x40 MLOAD DUP1 DUP4 SUB DUP2 DUP6 DUP9 DUP9 CALL SWAP4 POP POP POP POP ISZERO DUP1 ISZERO PUSH2 0x631 JUMPI RETURNDATASIZE PUSH0 DUP1 RETURNDATACOPY RETURNDATASIZE PUSH0 REVERT JUMPDEST POP POP JUMP JUMPDEST PUSH0 PUSH1 0x1 PUSH0 DUP4 PUSH20 0xFFFFFFFFFFFFFFFFFFFFFFFFFFFFFFFFFFFFFFFF AND PUSH20 0xFFFFFFFFFFFFFFFFFFFFFFFFFFFFFFFFFFFFFFFF AND DUP2 MSTORE PUSH1 0x20 ADD SWAP1 DUP2 MSTORE PUSH1 0x20 ADD PUSH0 KECCAK256 SLOAD SWAP1 POP SWAP2 SWAP1 POP JUMP JUMPDEST PUSH1 0x4 DUP2 DUP2 SLOAD DUP2 LT PUSH2 0x68A JUMPI PUSH0 DUP1 REVERT JUMPDEST SWAP1 PUSH0 MSTORE PUSH1 0x20 PUSH0 KECCAK256 ADD PUSH0 SWAP2 POP SLOAD SWAP1 PUSH2 0x100 EXP SWAP1 DIV PUSH20 0xFFFFFFFFFFFFFFFFFFFFFFFFFFFFFFFFFFFFFFFF AND DUP2 JUMP JUMPDEST PUSH0 SELFBALANCE SWAP1 POP SWAP1 JUMP JUMPDEST PUSH0 DUP1 SLOAD SWAP1 PUSH2 0x100 EXP SWAP1 DIV PUSH20 0xFFFFFFFFFFFFFFFFFFFFFFFFFFFFFFFFFFFFFFFF AND PUSH20 0xFFFFFFFFFFFFFFFFFFFFFFFFFFFFFFFFFFFFFFFF AND CALLER PUSH20 0xFFFFFFFFFFFFFFFFFFFFFFFFFFFFFFFFFFFFFFFF AND EQ PUSH2 0x74A JUMPI PUSH1 0x40 MLOAD PUSH32 0x8C379A000000000000000000000000000000000000000000000000000000000 DUP2 MSTORE PUSH1 0x4 ADD PUSH2 0x741 SWAP1 PUSH2 0x1326 JUMP JUMPDEST PUSH1 0x40 MLOAD DUP1 SWAP2 SUB SWAP1 REVERT JUMPDEST PUSH0 PUSH20 0xFFFFFFFFFFFFFFFFFFFFFFFFFFFFFFFFFFFFFFFF AND DUP2 PUSH20 0xFFFFFFFFFFFFFFFFFFFFFFFFFFFFFFFFFFFFFFFF AND SUB PUSH2 0x7B8 JUMPI PUSH1 0x40 MLOAD PUSH32 0x8C379A000000000000000000000000000000000000000000000000000000000 DUP2 MSTORE PUSH1 0x4 ADD PUSH2 0x7AF SWAP1 PUSH2 0x13F6 JUMP JUMPDEST PUSH1 0x40 MLOAD DUP1 SWAP2 SUB SWAP1 REVERT JUMPDEST DUP1 PUSH0 DUP1 PUSH2 0x100 EXP DUP2 SLOAD DUP2 PUSH20 0xFFFFFFFFFFFFFFFFFFFFFFFFFFFFFFFFFFFFFFFF MUL NOT AND SWAP1 DUP4 PUSH20 0xFFFFFFFFFFFFFFFFFFFFFFFFFFFFFFFFFFFFFFFF AND MUL OR SWAP1 SSTORE POP POP JUMP JUMPDEST PUSH1 0x3 DUP2 DUP2 SLOAD DUP2 LT PUSH2 0x809 JUMPI PUSH0 DUP1 REVERT JUMPDEST SWAP1 PUSH0 MSTORE PUSH1 0x20 PUSH0 KECCAK256 ADD PUSH0 SWAP2 POP SWAP1 POP SLOAD DUP2 JUMP JUMPDEST PUSH7 0x38D7EA4C68000 CALLVALUE GT PUSH2 0x863 JUMPI PUSH1 0x40 MLOAD PUSH32 0x8C379A000000000000000000000000000000000000000000000000000000000 DUP2 MSTORE PUSH1 0x4 ADD PUSH2 0x85A SWAP1 PUSH2 0xF5E JUMP JUMPDEST PUSH1 0x40 MLOAD DUP1 SWAP2 SUB SWAP1 REVERT JUMPDEST PUSH2 0x86D CALLER CALLVALUE PUSH2 0x341 JUMP JUMPDEST JUMP JUMPDEST PUSH1 0x60 DUP1 PUSH1 0x4 PUSH1 0x3 DUP2 DUP1 SLOAD DUP1 PUSH1 0x20 MUL PUSH1 0x20 ADD PUSH1 0x40 MLOAD SWAP1 DUP2 ADD PUSH1 0x40 MSTORE DUP1 SWAP3 SWAP2 SWAP1 DUP2 DUP2 MSTORE PUSH1 0x20 ADD DUP3 DUP1 SLOAD DUP1 ISZERO PUSH2 0x8F4 JUMPI PUSH1 0x20 MUL DUP3 ADD SWAP2 SWAP1 PUSH0 MSTORE PUSH1 0x20 PUSH0 KECCAK256 SWAP1 JUMPDEST DUP2 PUSH0 SWAP1 SLOAD SWAP1 PUSH2 0x100 EXP SWAP1 DIV PUSH20 0xFFFFFFFFFFFFFFFFFFFFFFFFFFFFFFFFFFFFFFFF AND PUSH20 0xFFFFFFFFFFFFFFFFFFFFFFFFFFFFFFFFFFFFFFFF AND DUP2 MSTORE PUSH1 0x20 ADD SWAP1 PUSH1 0x1 ADD SWAP1 DUP1 DUP4 GT PUSH2 0x8AB JUMPI JUMPDEST POP POP POP POP POP SWAP2 POP DUP1 DUP1 SLOAD DUP1 PUSH1 0x20 MUL PUSH1 0x20 ADD PUSH1 0x40 MLOAD SWAP1 DUP2 ADD PUSH1 0x40 MSTORE DUP1 SWAP3 SWAP2 SWAP1 DUP2 DUP2 MSTORE PUSH1 0x20 ADD DUP3 DUP1 SLOAD DUP1 ISZERO PUSH2 0x944 JUMPI PUSH1 0x20 MUL DUP3 ADD SWAP2 SWAP1 PUSH0 MSTORE PUSH1 0x20 PUSH0 KECCAK256 SWAP1 JUMPDEST DUP2 SLOAD DUP2 MSTORE PUSH1 0x20 ADD SWAP1 PUSH1 0x1 ADD SWAP1 DUP1 DUP4 GT PUSH2 0x930 JUMPI JUMPDEST POP POP POP POP POP SWAP1 POP SWAP2 POP SWAP2 POP SWAP1 SWAP2 JUMP JUMPDEST PUSH0 DUP1 SLOAD SWAP1 PUSH2 0x100 EXP SWAP1 DIV PUSH20 0xFFFFFFFFFFFFFFFFFFFFFFFFFFFFFFFFFFFFFFFF AND DUP2 JUMP JUMPDEST PUSH0 JUMPDEST PUSH1 0x4 DUP1 SLOAD SWAP1 POP DUP2 LT ISZERO PUSH2 0xA7D JUMPI DUP3 PUSH20 0xFFFFFFFFFFFFFFFFFFFFFFFFFFFFFFFFFFFFFFFF AND PUSH1 0x4 DUP3 DUP2 SLOAD DUP2 LT PUSH2 0x9B0 JUMPI PUSH2 0x9AF PUSH2 0x1414 JUMP JUMPDEST JUMPDEST SWAP1 PUSH0 MSTORE PUSH1 0x20 PUSH0 KECCAK256 ADD PUSH0 SWAP1 SLOAD SWAP1 PUSH2 0x100 EXP SWAP1 DIV PUSH20 0xFFFFFFFFFFFFFFFFFFFFFFFFFFFFFFFFFFFFFFFF AND PUSH20 0xFFFFFFFFFFFFFFFFFFFFFFFFFFFFFFFFFFFFFFFF AND SUB PUSH2 0xA70 JUMPI DUP2 PUSH1 0x3 DUP3 DUP2 SLOAD DUP2 LT PUSH2 0xA08 JUMPI PUSH2 0xA07 PUSH2 0x1414 JUMP JUMPDEST JUMPDEST SWAP1 PUSH0 MSTORE PUSH1 0x20 PUSH0 KECCAK256 ADD DUP2 SWAP1 SSTORE POP PUSH2 0xA1C PUSH2 0xC1E JUMP JUMPDEST DUP3 PUSH20 0xFFFFFFFFFFFFFFFFFFFFFFFFFFFFFFFFFFFFFFFF AND PUSH32 0xD6205B4CB548EAD6D931D099314BCF8C604C0908CF235D00C8ECBBFF8AA77E28 DUP4 PUSH1 0x40 MLOAD PUSH2 0xA62 SWAP2 SWAP1 PUSH2 0x101D JUMP JUMPDEST PUSH1 0x40 MLOAD DUP1 SWAP2 SUB SWAP1 LOG2 POP PUSH2 0xC1A JUMP JUMPDEST DUP1 DUP1 PUSH1 0x1 ADD SWAP2 POP POP PUSH2 0x978 JUMP JUMPDEST POP PUSH1 0x3 PUSH1 0x4 DUP1 SLOAD SWAP1 POP LT ISZERO PUSH2 0xB1F JUMPI PUSH1 0x4 DUP3 SWAP1 DUP1 PUSH1 0x1 DUP2 SLOAD ADD DUP1 DUP3 SSTORE DUP1 SWAP2 POP POP PUSH1 0x1 SWAP1 SUB SWAP1 PUSH0 MSTORE PUSH1 0x20 PUSH0 KECCAK256 ADD PUSH0 SWAP1 SWAP2 SWAP1 SWAP2 SWAP1 SWAP2 PUSH2 0x100 EXP DUP2 SLOAD DUP2 PUSH20 0xFFFFFFFFFFFFFFFFFFFFFFFFFFFFFFFFFFFFFFFF MUL NOT AND SWAP1 DUP4 PUSH20 0xFFFFFFFFFFFFFFFFFFFFFFFFFFFFFFFFFFFFFFFF AND MUL OR SWAP1 SSTORE POP PUSH1 0x3 DUP2 SWAP1 DUP1 PUSH1 0x1 DUP2 SLOAD ADD DUP1 DUP3 SSTORE DUP1 SWAP2 POP POP PUSH1 0x1 SWAP1 SUB SWAP1 PUSH0 MSTORE PUSH1 0x20 PUSH0 KECCAK256 ADD PUSH0 SWAP1 SWAP2 SWAP1 SWAP2 SWAP1 SWAP2 POP SSTORE PUSH2 0xB1A PUSH2 0xC1E JUMP JUMPDEST PUSH2 0xBCB JUMP JUMPDEST PUSH1 0x3 PUSH1 0x2 DUP2 SLOAD DUP2 LT PUSH2 0xB34 JUMPI PUSH2 0xB33 PUSH2 0x1414 JUMP JUMPDEST JUMPDEST SWAP1 PUSH0 MSTORE PUSH1 0x20 PUSH0 KECCAK256 ADD SLOAD DUP2 GT ISZERO PUSH2 0xBCA JUMPI DUP2 PUSH1 0x4 PUSH1 0x2 DUP2 SLOAD DUP2 LT PUSH2 0xB5A JUMPI PUSH2 0xB59 PUSH2 0x1414 JUMP JUMPDEST JUMPDEST SWAP1 PUSH0 MSTORE PUSH1 0x20 PUSH0 KECCAK256 ADD PUSH0 PUSH2 0x100 EXP DUP2 SLOAD DUP2 PUSH20 0xFFFFFFFFFFFFFFFFFFFFFFFFFFFFFFFFFFFFFFFF MUL NOT AND SWAP1 DUP4 PUSH20 0xFFFFFFFFFFFFFFFFFFFFFFFFFFFFFFFFFFFFFFFF AND MUL OR SWAP1 SSTORE POP DUP1 PUSH1 0x3 PUSH1 0x2 DUP2 SLOAD DUP2 LT PUSH2 0xBB5 JUMPI PUSH2 0xBB4 PUSH2 0x1414 JUMP JUMPDEST JUMPDEST SWAP1 PUSH0 MSTORE PUSH1 0x20 PUSH0 KECCAK256 ADD DUP2 SWAP1 SSTORE POP PUSH2 0xBC9 PUSH2 0xC1E JUMP JUMPDEST JUMPDEST JUMPDEST DUP2 PUSH20 0xFFFFFFFFFFFFFFFFFFFFFFFFFFFFFFFFFFFFFFFF AND PUSH32 0xD6205B4CB548EAD6D931D099314BCF8C604C0908CF235D00C8ECBBFF8AA77E28 DUP3 PUSH1 0x40 MLOAD PUSH2 0xC11 SWAP2 SWAP1 PUSH2 0x101D JUMP JUMPDEST PUSH1 0x40 MLOAD DUP1 SWAP2 SUB SWAP1 LOG2 JUMPDEST POP POP JUMP JUMPDEST PUSH1 0x2 PUSH1 0x3 DUP1 SLOAD SWAP1 POP LT PUSH2 0xD26 JUMPI PUSH1 0x3 PUSH1 0x1 DUP2 SLOAD DUP2 LT PUSH2 0xC40 JUMPI PUSH2 0xC3F PUSH2 0x1414 JUMP JUMPDEST JUMPDEST SWAP1 PUSH0 MSTORE PUSH1 0x20 PUSH0 KECCAK256 ADD SLOAD PUSH1 0x3 PUSH0 DUP2 SLOAD DUP2 LT PUSH2 0xC5D JUMPI PUSH2 0xC5C PUSH2 0x1414 JUMP JUMPDEST JUMPDEST SWAP1 PUSH0 MSTORE PUSH1 0x20 PUSH0 KECCAK256 ADD SLOAD LT ISZERO PUSH2 0xC78 JUMPI PUSH2 0xC77 PUSH0 PUSH1 0x1 PUSH2 0xD28 JUMP JUMPDEST JUMPDEST PUSH1 0x2 PUSH1 0x3 DUP1 SLOAD SWAP1 POP GT DUP1 ISZERO PUSH2 0xCC6 JUMPI POP PUSH1 0x3 PUSH1 0x2 DUP2 SLOAD DUP2 LT PUSH2 0xC9D JUMPI PUSH2 0xC9C PUSH2 0x1414 JUMP JUMPDEST JUMPDEST SWAP1 PUSH0 MSTORE PUSH1 0x20 PUSH0 KECCAK256 ADD SLOAD PUSH1 0x3 PUSH1 0x1 DUP2 SLOAD DUP2 LT PUSH2 0xCBB JUMPI PUSH2 0xCBA PUSH2 0x1414 JUMP JUMPDEST JUMPDEST SWAP1 PUSH0 MSTORE PUSH1 0x20 PUSH0 KECCAK256 ADD SLOAD LT JUMPDEST ISZERO PUSH2 0xD25 JUMPI PUSH2 0xCD7 PUSH1 0x1 PUSH1 0x2 PUSH2 0xD28 JUMP JUMPDEST PUSH1 0x3 PUSH1 0x1 DUP2 SLOAD DUP2 LT PUSH2 0xCEC JUMPI PUSH2 0xCEB PUSH2 0x1414 JUMP JUMPDEST JUMPDEST SWAP1 PUSH0 MSTORE PUSH1 0x20 PUSH0 KECCAK256 ADD SLOAD PUSH1 0x3 PUSH0 DUP2 SLOAD DUP2 LT PUSH2 0xD09 JUMPI PUSH2 0xD08 PUSH2 0x1414 JUMP JUMPDEST JUMPDEST SWAP1 PUSH0 MSTORE PUSH1 0x20 PUSH0 KECCAK256 ADD SLOAD LT ISZERO PUSH2 0xD24 JUMPI PUSH2 0xD23 PUSH0 PUSH1 0x1 PUSH2 0xD28 JUMP JUMPDEST JUMPDEST JUMPDEST JUMPDEST JUMP JUMPDEST PUSH1 0x3 DUP2 DUP2 SLOAD DUP2 LT PUSH2 0xD3C JUMPI PUSH2 0xD3B PUSH2 0x1414 JUMP JUMPDEST JUMPDEST SWAP1 PUSH0 MSTORE PUSH1 0x20 PUSH0 KECCAK256 ADD SLOAD PUSH1 0x3 DUP4 DUP2 SLOAD DUP2 LT PUSH2 0xD59 JUMPI PUSH2 0xD58 PUSH2 0x1414 JUMP JUMPDEST JUMPDEST SWAP1 PUSH0 MSTORE PUSH1 0x20 PUSH0 KECCAK256 ADD SLOAD PUSH1 0x3 DUP5 DUP2 SLOAD DUP2 LT PUSH2 0xD76 JUMPI PUSH2 0xD75 PUSH2 0x1414 JUMP JUMPDEST JUMPDEST SWAP1 PUSH0 MSTORE PUSH1 0x20 PUSH0 KECCAK256 ADD PUSH0 PUSH1 0x3 DUP6 DUP2 SLOAD DUP2 LT PUSH2 0xD93 JUMPI PUSH2 0xD92 PUSH2 0x1414 JUMP JUMPDEST JUMPDEST SWAP1 PUSH0 MSTORE PUSH1 0x20 PUSH0 KECCAK256 ADD PUSH0 DUP5 SWAP2 SWAP1 POP SSTORE DUP4 SWAP2 SWAP1 POP SSTORE POP POP PUSH1 0x4 DUP2 DUP2 SLOAD DUP2 LT PUSH2 0xDBC JUMPI PUSH2 0xDBB PUSH2 0x1414 JUMP JUMPDEST JUMPDEST SWAP1 PUSH0 MSTORE PUSH1 0x20 PUSH0 KECCAK256 ADD PUSH0 SWAP1 SLOAD SWAP1 PUSH2 0x100 EXP SWAP1 DIV PUSH20 0xFFFFFFFFFFFFFFFFFFFFFFFFFFFFFFFFFFFFFFFF AND PUSH1 0x4 DUP4 DUP2 SLOAD DUP2 LT PUSH2 0xDF8 JUMPI PUSH2 0xDF7 PUSH2 0x1414 JUMP JUMPDEST JUMPDEST SWAP1 PUSH0 MSTORE PUSH1 0x20 PUSH0 KECCAK256 ADD PUSH0 SWAP1 SLOAD SWAP1 PUSH2 0x100 EXP SWAP1 DIV PUSH20 0xFFFFFFFFFFFFFFFFFFFFFFFFFFFFFFFFFFFFFFFF AND PUSH1 0x4 DUP5 DUP2 SLOAD DUP2 LT PUSH2 0xE34 JUMPI PUSH2 0xE33 PUSH2 0x1414 JUMP JUMPDEST JUMPDEST SWAP1 PUSH0 MSTORE PUSH1 0x20 PUSH0 KECCAK256 ADD PUSH0 PUSH1 0x4 DUP6 DUP2 SLOAD DUP2 LT PUSH2 0xE51 JUMPI PUSH2 0xE50 PUSH2 0x1414 JUMP JUMPDEST JUMPDEST SWAP1 PUSH0 MSTORE PUSH1 0x20 PUSH0 KECCAK256 ADD PUSH0 DUP5 SWAP2 SWAP1 PUSH2 0x100 EXP DUP2 SLOAD DUP2 PUSH20 0xFFFFFFFFFFFFFFFFFFFFFFFFFFFFFFFFFFFFFFFF MUL NOT AND SWAP1 DUP4 PUSH20 0xFFFFFFFFFFFFFFFFFFFFFFFFFFFFFFFFFFFFFFFF AND MUL OR SWAP1 SSTORE POP DUP4 SWAP2 SWAP1 PUSH2 0x100 EXP DUP2 SLOAD DUP2 PUSH20 0xFFFFFFFFFFFFFFFFFFFFFFFFFFFFFFFFFFFFFFFF MUL NOT AND SWAP1 DUP4 PUSH20 0xFFFFFFFFFFFFFFFFFFFFFFFFFFFFFFFFFFFFFFFF AND MUL OR SWAP1 SSTORE POP POP POP POP POP JUMP JUMPDEST PUSH0 DUP3 DUP3 MSTORE PUSH1 0x20 DUP3 ADD SWAP1 POP SWAP3 SWAP2 POP POP JUMP JUMPDEST PUSH32 0x4465706F736974206D7573742062652067726561746572207468616E20302E30 PUSH0 DUP3 ADD MSTORE PUSH32 0x3031206574686572000000000000000000000000000000000000000000000000 PUSH1 0x20 DUP3 ADD MSTORE POP JUMP JUMPDEST PUSH0 PUSH2 0xF48 PUSH1 0x28 DUP4 PUSH2 0xEDE JUMP JUMPDEST SWAP2 POP PUSH2 0xF53 DUP3 PUSH2 0xEEE JUMP JUMPDEST PUSH1 0x40 DUP3 ADD SWAP1 POP SWAP2 SWAP1 POP JUMP JUMPDEST PUSH0 PUSH1 0x20 DUP3 ADD SWAP1 POP DUP2 DUP2 SUB PUSH0 DUP4 ADD MSTORE PUSH2 0xF75 DUP2 PUSH2 0xF3C JUMP JUMPDEST SWAP1 POP SWAP2 SWAP1 POP JUMP JUMPDEST PUSH0 DUP1 REVERT JUMPDEST PUSH0 PUSH20 0xFFFFFFFFFFFFFFFFFFFFFFFFFFFFFFFFFFFFFFFF DUP3 AND SWAP1 POP SWAP2 SWAP1 POP JUMP JUMPDEST PUSH0 PUSH2 0xFA9 DUP3 PUSH2 0xF80 JUMP JUMPDEST SWAP1 POP SWAP2 SWAP1 POP JUMP JUMPDEST PUSH2 0xFB9 DUP2 PUSH2 0xF9F JUMP JUMPDEST DUP2 EQ PUSH2 0xFC3 JUMPI PUSH0 DUP1 REVERT JUMPDEST POP JUMP JUMPDEST PUSH0 DUP2 CALLDATALOAD SWAP1 POP PUSH2 0xFD4 DUP2 PUSH2 0xFB0 JUMP JUMPDEST SWAP3 SWAP2 POP POP JUMP JUMPDEST PUSH0 PUSH1 0x20 DUP3 DUP5 SUB SLT ISZERO PUSH2 0xFEF JUMPI PUSH2 0xFEE PUSH2 0xF7C JUMP JUMPDEST JUMPDEST PUSH0 PUSH2 0xFFC DUP5 DUP3 DUP6 ADD PUSH2 0xFC6 JUMP JUMPDEST SWAP2 POP POP SWAP3 SWAP2 POP POP JUMP JUMPDEST PUSH0 DUP2 SWAP1 POP SWAP2 SWAP1 POP JUMP JUMPDEST PUSH2 0x1017 DUP2 PUSH2 0x1005 JUMP JUMPDEST DUP3 MSTORE POP POP JUMP JUMPDEST PUSH0 PUSH1 0x20 DUP3 ADD SWAP1 POP PUSH2 0x1030 PUSH0 DUP4 ADD DUP5 PUSH2 0x100E JUMP JUMPDEST SWAP3 SWAP2 POP POP JUMP JUMPDEST PUSH2 0x103F DUP2 PUSH2 0x1005 JUMP JUMPDEST DUP2 EQ PUSH2 0x1049 JUMPI PUSH0 DUP1 REVERT JUMPDEST POP JUMP JUMPDEST PUSH0 DUP2 CALLDATALOAD SWAP1 POP PUSH2 0x105A DUP2 PUSH2 0x1036 JUMP JUMPDEST SWAP3 SWAP2 POP POP JUMP JUMPDEST PUSH0 PUSH1 0x20 DUP3 DUP5 SUB SLT ISZERO PUSH2 0x1075 JUMPI PUSH2 0x1074 PUSH2 0xF7C JUMP JUMPDEST JUMPDEST PUSH0 PUSH2 0x1082 DUP5 DUP3 DUP6 ADD PUSH2 0x104C JUMP JUMPDEST SWAP2 POP POP SWAP3 SWAP2 POP POP JUMP JUMPDEST PUSH2 0x1094 DUP2 PUSH2 0xF9F JUMP JUMPDEST DUP3 MSTORE POP POP JUMP JUMPDEST PUSH0 PUSH1 0x20 DUP3 ADD SWAP1 POP PUSH2 0x10AD PUSH0 DUP4 ADD DUP5 PUSH2 0x108B JUMP JUMPDEST SWAP3 SWAP2 POP POP JUMP JUMPDEST PUSH0 DUP2 MLOAD SWAP1 POP SWAP2 SWAP1 POP JUMP JUMPDEST PUSH0 DUP3 DUP3 MSTORE PUSH1 0x20 DUP3 ADD SWAP1 POP SWAP3 SWAP2 POP POP JUMP JUMPDEST PUSH0 DUP2 SWAP1 POP PUSH1 0x20 DUP3 ADD SWAP1 POP SWAP2 SWAP1 POP JUMP JUMPDEST PUSH2 0x10E5 DUP2 PUSH2 0xF9F JUMP JUMPDEST DUP3 MSTORE POP POP JUMP JUMPDEST PUSH0 PUSH2 0x10F6 DUP4 DUP4 PUSH2 0x10DC JUMP JUMPDEST PUSH1 0x20 DUP4 ADD SWAP1 POP SWAP3 SWAP2 POP POP JUMP JUMPDEST PUSH0 PUSH1 0x20 DUP3 ADD SWAP1 POP SWAP2 SWAP1 POP JUMP JUMPDEST PUSH0 PUSH2 0x1118 DUP3 PUSH2 0x10B3 JUMP JUMPDEST PUSH2 0x1122 DUP2 DUP6 PUSH2 0x10BD JUMP JUMPDEST SWAP4 POP PUSH2 0x112D DUP4 PUSH2 0x10CD JUMP JUMPDEST DUP1 PUSH0 JUMPDEST DUP4 DUP2 LT ISZERO PUSH2 0x115D JUMPI DUP2 MLOAD PUSH2 0x1144 DUP9 DUP3 PUSH2 0x10EB JUMP JUMPDEST SWAP8 POP PUSH2 0x114F DUP4 PUSH2 0x1102 JUMP JUMPDEST SWAP3 POP POP PUSH1 0x1 DUP2 ADD SWAP1 POP PUSH2 0x1130 JUMP JUMPDEST POP DUP6 SWAP4 POP POP POP POP SWAP3 SWAP2 POP POP JUMP JUMPDEST PUSH0 DUP2 MLOAD SWAP1 POP SWAP2 SWAP1 POP JUMP JUMPDEST PUSH0 DUP3 DUP3 MSTORE PUSH1 0x20 DUP3 ADD SWAP1 POP SWAP3 SWAP2 POP POP JUMP JUMPDEST PUSH0 DUP2 SWAP1 POP PUSH1 0x20 DUP3 ADD SWAP1 POP SWAP2 SWAP1 POP JUMP JUMPDEST PUSH2 0x119C DUP2 PUSH2 0x1005 JUMP JUMPDEST DUP3 MSTORE POP POP JUMP JUMPDEST PUSH0 PUSH2 0x11AD DUP4 DUP4 PUSH2 0x1193 JUMP JUMPDEST PUSH1 0x20 DUP4 ADD SWAP1 POP SWAP3 SWAP2 POP POP JUMP JUMPDEST PUSH0 PUSH1 0x20 DUP3 ADD SWAP1 POP SWAP2 SWAP1 POP JUMP JUMPDEST PUSH0 PUSH2 0x11CF DUP3 PUSH2 0x116A JUMP JUMPDEST PUSH2 0x11D9 DUP2 DUP6 PUSH2 0x1174 JUMP JUMPDEST SWAP4 POP PUSH2 0x11E4 DUP4 PUSH2 0x1184 JUMP JUMPDEST DUP1 PUSH0 JUMPDEST DUP4 DUP2 LT ISZERO PUSH2 0x1214 JUMPI DUP2 MLOAD PUSH2 0x11FB DUP9 DUP3 PUSH2 0x11A2 JUMP JUMPDEST SWAP8 POP PUSH2 0x1206 DUP4 PUSH2 0x11B9 JUMP JUMPDEST SWAP3 POP POP PUSH1 0x1 DUP2 ADD SWAP1 POP PUSH2 0x11E7 JUMP JUMPDEST POP DUP6 SWAP4 POP POP POP POP SWAP3 SWAP2 POP POP JUMP JUMPDEST PUSH0 PUSH1 0x40 DUP3 ADD SWAP1 POP DUP2 DUP2 SUB PUSH0 DUP4 ADD MSTORE PUSH2 0x1239 DUP2 DUP6 PUSH2 0x110E JUMP JUMPDEST SWAP1 POP DUP2 DUP2 SUB PUSH1 0x20 DUP4 ADD MSTORE PUSH2 0x124D DUP2 DUP5 PUSH2 0x11C5 JUMP JUMPDEST SWAP1 POP SWAP4 SWAP3 POP POP POP JUMP JUMPDEST PUSH32 0x4E487B7100000000000000000000000000000000000000000000000000000000 PUSH0 MSTORE PUSH1 0x11 PUSH1 0x4 MSTORE PUSH1 0x24 PUSH0 REVERT JUMPDEST PUSH0 PUSH2 0x128D DUP3 PUSH2 0x1005 JUMP JUMPDEST SWAP2 POP PUSH2 0x1298 DUP4 PUSH2 0x1005 JUMP JUMPDEST SWAP3 POP DUP3 DUP3 ADD SWAP1 POP DUP1 DUP3 GT ISZERO PUSH2 0x12B0 JUMPI PUSH2 0x12AF PUSH2 0x1256 JUMP JUMPDEST JUMPDEST SWAP3 SWAP2 POP POP JUMP JUMPDEST PUSH32 0x4F6E6C792061646D696E2063616E20706572666F726D2074686973206F706572 PUSH0 DUP3 ADD MSTORE PUSH32 0x6174696F6E000000000000000000000000000000000000000000000000000000 PUSH1 0x20 DUP3 ADD MSTORE POP JUMP JUMPDEST PUSH0 PUSH2 0x1310 PUSH1 0x25 DUP4 PUSH2 0xEDE JUMP JUMPDEST SWAP2 POP PUSH2 0x131B DUP3 PUSH2 0x12B6 JUMP JUMPDEST PUSH1 0x40 DUP3 ADD SWAP1 POP SWAP2 SWAP1 POP JUMP JUMPDEST PUSH0 PUSH1 0x20 DUP3 ADD SWAP1 POP DUP2 DUP2 SUB PUSH0 DUP4 ADD MSTORE PUSH2 0x133D DUP2 PUSH2 0x1304 JUMP JUMPDEST SWAP1 POP SWAP2 SWAP1 POP JUMP JUMPDEST PUSH32 0x4E6F2066756E647320746F207769746864726177000000000000000000000000 PUSH0 DUP3 ADD MSTORE POP JUMP JUMPDEST PUSH0 PUSH2 0x1378 PUSH1 0x14 DUP4 PUSH2 0xEDE JUMP JUMPDEST SWAP2 POP PUSH2 0x1383 DUP3 PUSH2 0x1344 JUMP JUMPDEST PUSH1 0x20 DUP3 ADD SWAP1 POP SWAP2 SWAP1 POP JUMP JUMPDEST PUSH0 PUSH1 0x20 DUP3 ADD SWAP1 POP DUP2 DUP2 SUB PUSH0 DUP4 ADD MSTORE PUSH2 0x13A5 DUP2 PUSH2 0x136C JUMP JUMPDEST SWAP1 POP SWAP2 SWAP1 POP JUMP JUMPDEST PUSH32 0x4E65772061646D696E2063616E6E6F74206265207A65726F2061646472657373 PUSH0 DUP3 ADD MSTORE POP JUMP JUMPDEST PUSH0 PUSH2 0x13E0 PUSH1 0x20 DUP4 PUSH2 0xEDE JUMP JUMPDEST SWAP2 POP PUSH2 0x13EB DUP3 PUSH2 0x13AC JUMP JUMPDEST PUSH1 0x20 DUP3 ADD SWAP1 POP SWAP2 SWAP1 POP JUMP JUMPDEST PUSH0 PUSH1 0x20 DUP3 ADD SWAP1 POP DUP2 DUP2 SUB PUSH0 DUP4 ADD MSTORE PUSH2 0x140D DUP2 PUSH2 0x13D4 JUMP JUMPDEST SWAP1 POP SWAP2 SWAP1 POP JUMP JUMPDEST PUSH32 0x4E487B7100000000000000000000000000000000000000000000000000000000 PUSH0 MSTORE PUSH1 0x32 PUSH1 0x4 MSTORE PUSH1 0x24 PUSH0 REVERT INVALID LOG2 PUSH5 0x6970667358 0x22 SLT KECCAK256 DUP11 SHR 0xBC 0xA9 0xC 0xAC 0xA5 SMOD 0xBB DELEGATECALL CREATE STOP 0xEA CALL 0xF6 SELFDESTRUCT 0x27 PUSH9 0xA134269F7EE3358C5E SUB PUSH6 0x4BA84264736F PUSH13 0x634300081A0033000000000000 "
				},
				"gasEstimates": {
					"creation": {
						"codeDepositCost": "1047800",
						"executionCost": "25350",
						"totalCost": "1073150"
					},
					"external": {
						"": "infinite",
						"admin()": "2615",
						"balances(address)": "2803",
						"deposit()": "infinite",
						"getContractBalance()": "334",
						"getTopUsers()": "infinite",
						"getUserBalance(address)": "2896",
						"topDeposits(uint256)": "infinite",
						"topUsers(uint256)": "5033",
						"transferAdmin(address)": "26937",
						"users(uint256)": "4967",
						"withdraw()": "infinite"
					}
				},
				"methodIdentifiers": {
					"admin()": "f851a440",
					"balances(address)": "27e235e3",
					"deposit()": "d0e30db0",
					"getContractBalance()": "6f9fb98a",
					"getTopUsers()": "f39dfb17",
					"getUserBalance(address)": "47734892",
					"topDeposits(uint256)": "91c1aae6",
					"topUsers(uint256)": "689dbf4e",
					"transferAdmin(address)": "75829def",
					"users(uint256)": "365b98b2",
					"withdraw()": "3ccfd60b"
				}
			},
			"storageLayout": {
				"storage": [
					{
						"astId": 38,
						"contract": "study_way/src/4day_bankConstractExtend.sol:BigBank",
						"label": "admin",
						"offset": 0,
						"slot": "0",
						"type": "t_address"
					},
					{
						"astId": 42,
						"contract": "study_way/src/4day_bankConstractExtend.sol:BigBank",
						"label": "balances",
						"offset": 0,
						"slot": "1",
						"type": "t_mapping(t_address,t_uint256)"
					},
					{
						"astId": 45,
						"contract": "study_way/src/4day_bankConstractExtend.sol:BigBank",
						"label": "users",
						"offset": 0,
						"slot": "2",
						"type": "t_array(t_address)dyn_storage"
					},
					{
						"astId": 48,
						"contract": "study_way/src/4day_bankConstractExtend.sol:BigBank",
						"label": "topDeposits",
						"offset": 0,
						"slot": "3",
						"type": "t_array(t_uint256)dyn_storage"
					},
					{
						"astId": 51,
						"contract": "study_way/src/4day_bankConstractExtend.sol:BigBank",
						"label": "topUsers",
						"offset": 0,
						"slot": "4",
						"type": "t_array(t_address)dyn_storage"
					}
				],
				"types": {
					"t_address": {
						"encoding": "inplace",
						"label": "address",
						"numberOfBytes": "20"
					},
					"t_array(t_address)dyn_storage": {
						"base": "t_address",
						"encoding": "dynamic_array",
						"label": "address[]",
						"numberOfBytes": "32"
					},
					"t_array(t_uint256)dyn_storage": {
						"base": "t_uint256",
						"encoding": "dynamic_array",
						"label": "uint256[]",
						"numberOfBytes": "32"
					},
					"t_mapping(t_address,t_uint256)": {
						"encoding": "mapping",
						"key": "t_address",
						"label": "mapping(address => uint256)",
						"numberOfBytes": "32",
						"value": "t_uint256"
					},
					"t_uint256": {
						"encoding": "inplace",
						"label": "uint256",
						"numberOfBytes": "32"
					}
				}
			},
			"userdoc": {
				"kind": "user",
				"methods": {},
				"version": 1
			}
		}
	}
}