{
	"study_way/src/4day_bankConstractExtend.sol": {
		"Admin": {
			"abi": [
				{
					"inputs": [],
					"stateMutability": "nonpayable",
					"type": "constructor"
				},
				{
					"inputs": [
						{
							"internalType": "contract IBank",
							"name": "bank",
							"type": "address"
						}
					],
					"name": "adminWithdraw",
					"outputs": [],
					"stateMutability": "nonpayable",
					"type": "function"
				},
				{
					"inputs": [],
					"name": "owner",
					"outputs": [
						{
							"internalType": "address",
							"name": "",
							"type": "address"
						}
					],
					"stateMutability": "view",
					"type": "function"
				},
				{
					"stateMutability": "payable",
					"type": "receive"
				}
			],
			"devdoc": {
				"kind": "dev",
				"methods": {},
				"version": 1
			},
			"evm": {
				"assembly": "    /* \"study_way/src/4day_bankConstractExtend.sol\":7632:8143  contract Admin {... */\n  mstore(0x40, 0x80)\n    /* \"study_way/src/4day_bankConstractExtend.sol\":7680:7729  constructor() {... */\n  callvalue\n  dup1\n  iszero\n  tag_1\n  jumpi\n  0x00\n  dup1\n  revert\ntag_1:\n  pop\n    /* \"study_way/src/4day_bankConstractExtend.sol\":7712:7722  msg.sender */\n  caller\n    /* \"study_way/src/4day_bankConstractExtend.sol\":7704:7709  owner */\n  0x00\n  dup1\n    /* \"study_way/src/4day_bankConstractExtend.sol\":7704:7722  owner = msg.sender */\n  0x0100\n  exp\n  dup2\n  sload\n  dup2\n  0xffffffffffffffffffffffffffffffffffffffff\n  mul\n  not\n  and\n  swap1\n  dup4\n  0xffffffffffffffffffffffffffffffffffffffff\n  and\n  mul\n  or\n  swap1\n  sstore\n  pop\n    /* \"study_way/src/4day_bankConstractExtend.sol\":7632:8143  contract Admin {... */\n  dataSize(sub_0)\n  dup1\n  dataOffset(sub_0)\n  0x00\n  codecopy\n  0x00\n  return\nstop\n\nsub_0: assembly {\n        /* \"study_way/src/4day_bankConstractExtend.sol\":7632:8143  contract Admin {... */\n      mstore(0x40, 0x80)\n      jumpi(tag_1, lt(calldatasize, 0x04))\n      shr(0xe0, calldataload(0x00))\n      dup1\n      0x8da5cb5b\n      eq\n      tag_3\n      jumpi\n      dup1\n      0xa28835b6\n      eq\n      tag_4\n      jumpi\n      jump(tag_2)\n    tag_1:\n      jumpi(tag_2, calldatasize)\n      stop\n    tag_2:\n      0x00\n      dup1\n      revert\n        /* \"study_way/src/4day_bankConstractExtend.sol\":7653:7673  address public owner */\n    tag_3:\n      callvalue\n      dup1\n      iszero\n      tag_7\n      jumpi\n      0x00\n      dup1\n      revert\n    tag_7:\n      pop\n      tag_8\n      tag_9\n      jump\t// in\n    tag_8:\n      mload(0x40)\n      tag_10\n      swap2\n      swap1\n      tag_11\n      jump\t// in\n    tag_10:\n      mload(0x40)\n      dup1\n      swap2\n      sub\n      swap1\n      return\n        /* \"study_way/src/4day_bankConstractExtend.sol\":7790:8073  function adminWithdraw(IBank bank) external {... */\n    tag_4:\n      callvalue\n      dup1\n      iszero\n      tag_12\n      jumpi\n      0x00\n      dup1\n      revert\n    tag_12:\n      pop\n      tag_13\n      0x04\n      dup1\n      calldatasize\n      sub\n      dup2\n      add\n      swap1\n      tag_14\n      swap2\n      swap1\n      tag_15\n      jump\t// in\n    tag_14:\n      tag_16\n      jump\t// in\n    tag_13:\n      stop\n        /* \"study_way/src/4day_bankConstractExtend.sol\":7653:7673  address public owner */\n    tag_9:\n      0x00\n      dup1\n      sload\n      swap1\n      0x0100\n      exp\n      swap1\n      div\n      0xffffffffffffffffffffffffffffffffffffffff\n      and\n      dup2\n      jump\t// out\n        /* \"study_way/src/4day_bankConstractExtend.sol\":7790:8073  function adminWithdraw(IBank bank) external {... */\n    tag_16:\n        /* \"study_way/src/4day_bankConstractExtend.sol\":7866:7871  owner */\n      0x00\n      dup1\n      sload\n      swap1\n      0x0100\n      exp\n      swap1\n      div\n      0xffffffffffffffffffffffffffffffffffffffff\n      and\n        /* \"study_way/src/4day_bankConstractExtend.sol\":7852:7871  msg.sender == owner */\n      0xffffffffffffffffffffffffffffffffffffffff\n      and\n        /* \"study_way/src/4day_bankConstractExtend.sol\":7852:7862  msg.sender */\n      caller\n        /* \"study_way/src/4day_bankConstractExtend.sol\":7852:7871  msg.sender == owner */\n      0xffffffffffffffffffffffffffffffffffffffff\n      and\n      eq\n        /* \"study_way/src/4day_bankConstractExtend.sol\":7844:7913  require(msg.sender == owner, \"Only owner can perform this operation\") */\n      tag_18\n      jumpi\n      mload(0x40)\n      0x08c379a000000000000000000000000000000000000000000000000000000000\n      dup2\n      mstore\n      0x04\n      add\n      tag_19\n      swap1\n      tag_20\n      jump\t// in\n    tag_19:\n      mload(0x40)\n      dup1\n      swap2\n      sub\n      swap1\n      revert\n    tag_18:\n        /* \"study_way/src/4day_bankConstractExtend.sol\":7968:7972  this */\n      address\n        /* \"study_way/src/4day_bankConstractExtend.sol\":7944:7973  bank.admin() == address(this) */\n      0xffffffffffffffffffffffffffffffffffffffff\n      and\n        /* \"study_way/src/4day_bankConstractExtend.sol\":7944:7948  bank */\n      dup2\n        /* \"study_way/src/4day_bankConstractExtend.sol\":7944:7954  bank.admin */\n      0xffffffffffffffffffffffffffffffffffffffff\n      and\n      0xf851a440\n        /* \"study_way/src/4day_bankConstractExtend.sol\":7944:7956  bank.admin() */\n      mload(0x40)\n      dup2\n      0xffffffff\n      and\n      0xe0\n      shl\n      dup2\n      mstore\n      0x04\n      add\n      0x20\n      mload(0x40)\n      dup1\n      dup4\n      sub\n      dup2\n      dup7\n      gas\n      staticcall\n      iszero\n      dup1\n      iszero\n      tag_22\n      jumpi\n      returndatasize\n      0x00\n      dup1\n      returndatacopy\n      revert(0x00, returndatasize)\n    tag_22:\n      pop\n      pop\n      pop\n      pop\n      mload(0x40)\n      returndatasize\n      not(0x1f)\n      0x1f\n      dup3\n      add\n      and\n      dup3\n      add\n      dup1\n      0x40\n      mstore\n      pop\n      dup2\n      add\n      swap1\n      tag_23\n      swap2\n      swap1\n      tag_24\n      jump\t// in\n    tag_23:\n        /* \"study_way/src/4day_bankConstractExtend.sol\":7944:7973  bank.admin() == address(this) */\n      0xffffffffffffffffffffffffffffffffffffffff\n      and\n      eq\n        /* \"study_way/src/4day_bankConstractExtend.sol\":7923:8041  require(... */\n      tag_25\n      jumpi\n      mload(0x40)\n      0x08c379a000000000000000000000000000000000000000000000000000000000\n      dup2\n      mstore\n      0x04\n      add\n      tag_26\n      swap1\n      tag_27\n      jump\t// in\n    tag_26:\n      mload(0x40)\n      dup1\n      swap2\n      sub\n      swap1\n      revert\n    tag_25:\n        /* \"study_way/src/4day_bankConstractExtend.sol\":8051:8055  bank */\n      dup1\n        /* \"study_way/src/4day_bankConstractExtend.sol\":8051:8064  bank.withdraw */\n      0xffffffffffffffffffffffffffffffffffffffff\n      and\n      0x3ccfd60b\n        /* \"study_way/src/4day_bankConstractExtend.sol\":8051:8066  bank.withdraw() */\n      mload(0x40)\n      dup2\n      0xffffffff\n      and\n      0xe0\n      shl\n      dup2\n      mstore\n      0x04\n      add\n      0x00\n      mload(0x40)\n      dup1\n      dup4\n      sub\n      dup2\n      0x00\n      dup8\n      dup1\n      extcodesize\n      iszero\n      dup1\n      iszero\n      tag_28\n      jumpi\n      0x00\n      dup1\n      revert\n    tag_28:\n      pop\n      gas\n      call\n      iszero\n      dup1\n      iszero\n      tag_30\n      jumpi\n      returndatasize\n      0x00\n      dup1\n      returndatacopy\n      revert(0x00, returndatasize)\n    tag_30:\n      pop\n      pop\n      pop\n      pop\n        /* \"study_way/src/4day_bankConstractExtend.sol\":7790:8073  function adminWithdraw(IBank bank) external {... */\n      pop\n      jump\t// out\n        /* \"#utility.yul\":7:133   */\n    tag_31:\n        /* \"#utility.yul\":44:51   */\n      0x00\n        /* \"#utility.yul\":84:126   */\n      0xffffffffffffffffffffffffffffffffffffffff\n        /* \"#utility.yul\":77:82   */\n      dup3\n        /* \"#utility.yul\":73:127   */\n      and\n        /* \"#utility.yul\":62:127   */\n      swap1\n      pop\n        /* \"#utility.yul\":7:133   */\n      swap2\n      swap1\n      pop\n      jump\t// out\n        /* \"#utility.yul\":139:235   */\n    tag_32:\n        /* \"#utility.yul\":176:183   */\n      0x00\n        /* \"#utility.yul\":205:229   */\n      tag_50\n        /* \"#utility.yul\":223:228   */\n      dup3\n        /* \"#utility.yul\":205:229   */\n      tag_31\n      jump\t// in\n    tag_50:\n        /* \"#utility.yul\":194:229   */\n      swap1\n      pop\n        /* \"#utility.yul\":139:235   */\n      swap2\n      swap1\n      pop\n      jump\t// out\n        /* \"#utility.yul\":241:359   */\n    tag_33:\n        /* \"#utility.yul\":328:352   */\n      tag_52\n        /* \"#utility.yul\":346:351   */\n      dup2\n        /* \"#utility.yul\":328:352   */\n      tag_32\n      jump\t// in\n    tag_52:\n        /* \"#utility.yul\":323:326   */\n      dup3\n        /* \"#utility.yul\":316:353   */\n      mstore\n        /* \"#utility.yul\":241:359   */\n      pop\n      pop\n      jump\t// out\n        /* \"#utility.yul\":365:587   */\n    tag_11:\n        /* \"#utility.yul\":458:462   */\n      0x00\n        /* \"#utility.yul\":496:498   */\n      0x20\n        /* \"#utility.yul\":485:494   */\n      dup3\n        /* \"#utility.yul\":481:499   */\n      add\n        /* \"#utility.yul\":473:499   */\n      swap1\n      pop\n        /* \"#utility.yul\":509:580   */\n      tag_54\n        /* \"#utility.yul\":577:578   */\n      0x00\n        /* \"#utility.yul\":566:575   */\n      dup4\n        /* \"#utility.yul\":562:579   */\n      add\n        /* \"#utility.yul\":553:559   */\n      dup5\n        /* \"#utility.yul\":509:580   */\n      tag_33\n      jump\t// in\n    tag_54:\n        /* \"#utility.yul\":365:587   */\n      swap3\n      swap2\n      pop\n      pop\n      jump\t// out\n        /* \"#utility.yul\":674:791   */\n    tag_35:\n        /* \"#utility.yul\":783:784   */\n      0x00\n        /* \"#utility.yul\":780:781   */\n      dup1\n        /* \"#utility.yul\":773:785   */\n      revert\n        /* \"#utility.yul\":920:1028   */\n    tag_37:\n        /* \"#utility.yul\":969:976   */\n      0x00\n        /* \"#utility.yul\":998:1022   */\n      tag_59\n        /* \"#utility.yul\":1016:1021   */\n      dup3\n        /* \"#utility.yul\":998:1022   */\n      tag_32\n      jump\t// in\n    tag_59:\n        /* \"#utility.yul\":987:1022   */\n      swap1\n      pop\n        /* \"#utility.yul\":920:1028   */\n      swap2\n      swap1\n      pop\n      jump\t// out\n        /* \"#utility.yul\":1034:1180   */\n    tag_38:\n        /* \"#utility.yul\":1119:1155   */\n      tag_61\n        /* \"#utility.yul\":1149:1154   */\n      dup2\n        /* \"#utility.yul\":1119:1155   */\n      tag_37\n      jump\t// in\n    tag_61:\n        /* \"#utility.yul\":1112:1117   */\n      dup2\n        /* \"#utility.yul\":1109:1156   */\n      eq\n        /* \"#utility.yul\":1099:1174   */\n      tag_62\n      jumpi\n        /* \"#utility.yul\":1170:1171   */\n      0x00\n        /* \"#utility.yul\":1167:1168   */\n      dup1\n        /* \"#utility.yul\":1160:1172   */\n      revert\n        /* \"#utility.yul\":1099:1174   */\n    tag_62:\n        /* \"#utility.yul\":1034:1180   */\n      pop\n      jump\t// out\n        /* \"#utility.yul\":1186:1349   */\n    tag_39:\n        /* \"#utility.yul\":1244:1249   */\n      0x00\n        /* \"#utility.yul\":1282:1288   */\n      dup2\n        /* \"#utility.yul\":1269:1289   */\n      calldataload\n        /* \"#utility.yul\":1260:1289   */\n      swap1\n      pop\n        /* \"#utility.yul\":1298:1343   */\n      tag_64\n        /* \"#utility.yul\":1337:1342   */\n      dup2\n        /* \"#utility.yul\":1298:1343   */\n      tag_38\n      jump\t// in\n    tag_64:\n        /* \"#utility.yul\":1186:1349   */\n      swap3\n      swap2\n      pop\n      pop\n      jump\t// out\n        /* \"#utility.yul\":1355:1708   */\n    tag_15:\n        /* \"#utility.yul\":1426:1432   */\n      0x00\n        /* \"#utility.yul\":1475:1477   */\n      0x20\n        /* \"#utility.yul\":1463:1472   */\n      dup3\n        /* \"#utility.yul\":1454:1461   */\n      dup5\n        /* \"#utility.yul\":1450:1473   */\n      sub\n        /* \"#utility.yul\":1446:1478   */\n      slt\n        /* \"#utility.yul\":1443:1562   */\n      iszero\n      tag_66\n      jumpi\n        /* \"#utility.yul\":1481:1560   */\n      tag_67\n      tag_35\n      jump\t// in\n    tag_67:\n        /* \"#utility.yul\":1443:1562   */\n    tag_66:\n        /* \"#utility.yul\":1601:1602   */\n      0x00\n        /* \"#utility.yul\":1626:1691   */\n      tag_68\n        /* \"#utility.yul\":1683:1690   */\n      dup5\n        /* \"#utility.yul\":1674:1680   */\n      dup3\n        /* \"#utility.yul\":1663:1672   */\n      dup6\n        /* \"#utility.yul\":1659:1681   */\n      add\n        /* \"#utility.yul\":1626:1691   */\n      tag_39\n      jump\t// in\n    tag_68:\n        /* \"#utility.yul\":1616:1691   */\n      swap2\n      pop\n        /* \"#utility.yul\":1572:1701   */\n      pop\n        /* \"#utility.yul\":1355:1708   */\n      swap3\n      swap2\n      pop\n      pop\n      jump\t// out\n        /* \"#utility.yul\":1714:1883   */\n    tag_40:\n        /* \"#utility.yul\":1798:1809   */\n      0x00\n        /* \"#utility.yul\":1832:1838   */\n      dup3\n        /* \"#utility.yul\":1827:1830   */\n      dup3\n        /* \"#utility.yul\":1820:1839   */\n      mstore\n        /* \"#utility.yul\":1872:1876   */\n      0x20\n        /* \"#utility.yul\":1867:1870   */\n      dup3\n        /* \"#utility.yul\":1863:1877   */\n      add\n        /* \"#utility.yul\":1848:1877   */\n      swap1\n      pop\n        /* \"#utility.yul\":1714:1883   */\n      swap3\n      swap2\n      pop\n      pop\n      jump\t// out\n        /* \"#utility.yul\":1889:2113   */\n    tag_41:\n        /* \"#utility.yul\":2029:2063   */\n      0x4f6e6c79206f776e65722063616e20706572666f726d2074686973206f706572\n        /* \"#utility.yul\":2025:2026   */\n      0x00\n        /* \"#utility.yul\":2017:2023   */\n      dup3\n        /* \"#utility.yul\":2013:2027   */\n      add\n        /* \"#utility.yul\":2006:2064   */\n      mstore\n        /* \"#utility.yul\":2098:2105   */\n      0x6174696f6e000000000000000000000000000000000000000000000000000000\n        /* \"#utility.yul\":2093:2095   */\n      0x20\n        /* \"#utility.yul\":2085:2091   */\n      dup3\n        /* \"#utility.yul\":2081:2096   */\n      add\n        /* \"#utility.yul\":2074:2106   */\n      mstore\n        /* \"#utility.yul\":1889:2113   */\n      pop\n      jump\t// out\n        /* \"#utility.yul\":2119:2485   */\n    tag_42:\n        /* \"#utility.yul\":2261:2264   */\n      0x00\n        /* \"#utility.yul\":2282:2349   */\n      tag_72\n        /* \"#utility.yul\":2346:2348   */\n      0x25\n        /* \"#utility.yul\":2341:2344   */\n      dup4\n        /* \"#utility.yul\":2282:2349   */\n      tag_40\n      jump\t// in\n    tag_72:\n        /* \"#utility.yul\":2275:2349   */\n      swap2\n      pop\n        /* \"#utility.yul\":2358:2451   */\n      tag_73\n        /* \"#utility.yul\":2447:2450   */\n      dup3\n        /* \"#utility.yul\":2358:2451   */\n      tag_41\n      jump\t// in\n    tag_73:\n        /* \"#utility.yul\":2476:2478   */\n      0x40\n        /* \"#utility.yul\":2471:2474   */\n      dup3\n        /* \"#utility.yul\":2467:2479   */\n      add\n        /* \"#utility.yul\":2460:2479   */\n      swap1\n      pop\n        /* \"#utility.yul\":2119:2485   */\n      swap2\n      swap1\n      pop\n      jump\t// out\n        /* \"#utility.yul\":2491:2910   */\n    tag_20:\n        /* \"#utility.yul\":2657:2661   */\n      0x00\n        /* \"#utility.yul\":2695:2697   */\n      0x20\n        /* \"#utility.yul\":2684:2693   */\n      dup3\n        /* \"#utility.yul\":2680:2698   */\n      add\n        /* \"#utility.yul\":2672:2698   */\n      swap1\n      pop\n        /* \"#utility.yul\":2744:2753   */\n      dup2\n        /* \"#utility.yul\":2738:2742   */\n      dup2\n        /* \"#utility.yul\":2734:2754   */\n      sub\n        /* \"#utility.yul\":2730:2731   */\n      0x00\n        /* \"#utility.yul\":2719:2728   */\n      dup4\n        /* \"#utility.yul\":2715:2732   */\n      add\n        /* \"#utility.yul\":2708:2755   */\n      mstore\n        /* \"#utility.yul\":2772:2903   */\n      tag_75\n        /* \"#utility.yul\":2898:2902   */\n      dup2\n        /* \"#utility.yul\":2772:2903   */\n      tag_42\n      jump\t// in\n    tag_75:\n        /* \"#utility.yul\":2764:2903   */\n      swap1\n      pop\n        /* \"#utility.yul\":2491:2910   */\n      swap2\n      swap1\n      pop\n      jump\t// out\n        /* \"#utility.yul\":2916:3038   */\n    tag_43:\n        /* \"#utility.yul\":2989:3013   */\n      tag_77\n        /* \"#utility.yul\":3007:3012   */\n      dup2\n        /* \"#utility.yul\":2989:3013   */\n      tag_32\n      jump\t// in\n    tag_77:\n        /* \"#utility.yul\":2982:2987   */\n      dup2\n        /* \"#utility.yul\":2979:3014   */\n      eq\n        /* \"#utility.yul\":2969:3032   */\n      tag_78\n      jumpi\n        /* \"#utility.yul\":3028:3029   */\n      0x00\n        /* \"#utility.yul\":3025:3026   */\n      dup1\n        /* \"#utility.yul\":3018:3030   */\n      revert\n        /* \"#utility.yul\":2969:3032   */\n    tag_78:\n        /* \"#utility.yul\":2916:3038   */\n      pop\n      jump\t// out\n        /* \"#utility.yul\":3044:3187   */\n    tag_44:\n        /* \"#utility.yul\":3101:3106   */\n      0x00\n        /* \"#utility.yul\":3132:3138   */\n      dup2\n        /* \"#utility.yul\":3126:3139   */\n      mload\n        /* \"#utility.yul\":3117:3139   */\n      swap1\n      pop\n        /* \"#utility.yul\":3148:3181   */\n      tag_80\n        /* \"#utility.yul\":3175:3180   */\n      dup2\n        /* \"#utility.yul\":3148:3181   */\n      tag_43\n      jump\t// in\n    tag_80:\n        /* \"#utility.yul\":3044:3187   */\n      swap3\n      swap2\n      pop\n      pop\n      jump\t// out\n        /* \"#utility.yul\":3193:3544   */\n    tag_24:\n        /* \"#utility.yul\":3263:3269   */\n      0x00\n        /* \"#utility.yul\":3312:3314   */\n      0x20\n        /* \"#utility.yul\":3300:3309   */\n      dup3\n        /* \"#utility.yul\":3291:3298   */\n      dup5\n        /* \"#utility.yul\":3287:3310   */\n      sub\n        /* \"#utility.yul\":3283:3315   */\n      slt\n        /* \"#utility.yul\":3280:3399   */\n      iszero\n      tag_82\n      jumpi\n        /* \"#utility.yul\":3318:3397   */\n      tag_83\n      tag_35\n      jump\t// in\n    tag_83:\n        /* \"#utility.yul\":3280:3399   */\n    tag_82:\n        /* \"#utility.yul\":3438:3439   */\n      0x00\n        /* \"#utility.yul\":3463:3527   */\n      tag_84\n        /* \"#utility.yul\":3519:3526   */\n      dup5\n        /* \"#utility.yul\":3510:3516   */\n      dup3\n        /* \"#utility.yul\":3499:3508   */\n      dup6\n        /* \"#utility.yul\":3495:3517   */\n      add\n        /* \"#utility.yul\":3463:3527   */\n      tag_44\n      jump\t// in\n    tag_84:\n        /* \"#utility.yul\":3453:3527   */\n      swap2\n      pop\n        /* \"#utility.yul\":3409:3537   */\n      pop\n        /* \"#utility.yul\":3193:3544   */\n      swap3\n      swap2\n      pop\n      pop\n      jump\t// out\n        /* \"#utility.yul\":3550:3779   */\n    tag_45:\n        /* \"#utility.yul\":3690:3724   */\n      0x5468697320636f6e7472616374206973206e6f74207468652061646d696e206f\n        /* \"#utility.yul\":3686:3687   */\n      0x00\n        /* \"#utility.yul\":3678:3684   */\n      dup3\n        /* \"#utility.yul\":3674:3688   */\n      add\n        /* \"#utility.yul\":3667:3725   */\n      mstore\n        /* \"#utility.yul\":3759:3771   */\n      0x66207468652062616e6b00000000000000000000000000000000000000000000\n        /* \"#utility.yul\":3754:3756   */\n      0x20\n        /* \"#utility.yul\":3746:3752   */\n      dup3\n        /* \"#utility.yul\":3742:3757   */\n      add\n        /* \"#utility.yul\":3735:3772   */\n      mstore\n        /* \"#utility.yul\":3550:3779   */\n      pop\n      jump\t// out\n        /* \"#utility.yul\":3785:4151   */\n    tag_46:\n        /* \"#utility.yul\":3927:3930   */\n      0x00\n        /* \"#utility.yul\":3948:4015   */\n      tag_87\n        /* \"#utility.yul\":4012:4014   */\n      0x2a\n        /* \"#utility.yul\":4007:4010   */\n      dup4\n        /* \"#utility.yul\":3948:4015   */\n      tag_40\n      jump\t// in\n    tag_87:\n        /* \"#utility.yul\":3941:4015   */\n      swap2\n      pop\n        /* \"#utility.yul\":4024:4117   */\n      tag_88\n        /* \"#utility.yul\":4113:4116   */\n      dup3\n        /* \"#utility.yul\":4024:4117   */\n      tag_45\n      jump\t// in\n    tag_88:\n        /* \"#utility.yul\":4142:4144   */\n      0x40\n        /* \"#utility.yul\":4137:4140   */\n      dup3\n        /* \"#utility.yul\":4133:4145   */\n      add\n        /* \"#utility.yul\":4126:4145   */\n      swap1\n      pop\n        /* \"#utility.yul\":3785:4151   */\n      swap2\n      swap1\n      pop\n      jump\t// out\n        /* \"#utility.yul\":4157:4576   */\n    tag_27:\n        /* \"#utility.yul\":4323:4327   */\n      0x00\n        /* \"#utility.yul\":4361:4363   */\n      0x20\n        /* \"#utility.yul\":4350:4359   */\n      dup3\n        /* \"#utility.yul\":4346:4364   */\n      add\n        /* \"#utility.yul\":4338:4364   */\n      swap1\n      pop\n        /* \"#utility.yul\":4410:4419   */\n      dup2\n        /* \"#utility.yul\":4404:4408   */\n      dup2\n        /* \"#utility.yul\":4400:4420   */\n      sub\n        /* \"#utility.yul\":4396:4397   */\n      0x00\n        /* \"#utility.yul\":4385:4394   */\n      dup4\n        /* \"#utility.yul\":4381:4398   */\n      add\n        /* \"#utility.yul\":4374:4421   */\n      mstore\n        /* \"#utility.yul\":4438:4569   */\n      tag_90\n        /* \"#utility.yul\":4564:4568   */\n      dup2\n        /* \"#utility.yul\":4438:4569   */\n      tag_46\n      jump\t// in\n    tag_90:\n        /* \"#utility.yul\":4430:4569   */\n      swap1\n      pop\n        /* \"#utility.yul\":4157:4576   */\n      swap2\n      swap1\n      pop\n      jump\t// out\n\n    auxdata: 0xa2646970667358221220771f6ea9f177283ee5505056884c19e283acdf56a1214bfd939ddb553dbe2bfc64736f6c634300081a0033\n}\n",
				"bytecode": {
					"linkReferences": {},
					"object": "6080604052348015600e575f80fd5b50335f806101000a81548173ffffffffffffffffffffffffffffffffffffffff021916908373ffffffffffffffffffffffffffffffffffffffff1602179055506104ea8061005b5f395ff3fe60806040526004361061002c575f3560e01c80638da5cb5b14610037578063a28835b61461006157610033565b3661003357005b5f80fd5b348015610042575f80fd5b5061004b610089565b60405161005891906102b0565b60405180910390f35b34801561006c575f80fd5b5061008760048036038101906100829190610308565b6100ac565b005b5f8054906101000a900473ffffffffffffffffffffffffffffffffffffffff1681565b5f8054906101000a900473ffffffffffffffffffffffffffffffffffffffff1673ffffffffffffffffffffffffffffffffffffffff163373ffffffffffffffffffffffffffffffffffffffff1614610139576040517f08c379a0000000000000000000000000000000000000000000000000000000008152600401610130906103b3565b60405180910390fd5b3073ffffffffffffffffffffffffffffffffffffffff168173ffffffffffffffffffffffffffffffffffffffff1663f851a4406040518163ffffffff1660e01b8152600401602060405180830381865afa158015610199573d5f803e3d5ffd5b505050506040513d601f19601f820116820180604052508101906101bd91906103fb565b73ffffffffffffffffffffffffffffffffffffffff1614610213576040517f08c379a000000000000000000000000000000000000000000000000000000000815260040161020a90610496565b60405180910390fd5b8073ffffffffffffffffffffffffffffffffffffffff16633ccfd60b6040518163ffffffff1660e01b81526004015f604051808303815f87803b158015610258575f80fd5b505af115801561026a573d5f803e3d5ffd5b5050505050565b5f73ffffffffffffffffffffffffffffffffffffffff82169050919050565b5f61029a82610271565b9050919050565b6102aa81610290565b82525050565b5f6020820190506102c35f8301846102a1565b92915050565b5f80fd5b5f6102d782610290565b9050919050565b6102e7816102cd565b81146102f1575f80fd5b50565b5f81359050610302816102de565b92915050565b5f6020828403121561031d5761031c6102c9565b5b5f61032a848285016102f4565b91505092915050565b5f82825260208201905092915050565b7f4f6e6c79206f776e65722063616e20706572666f726d2074686973206f7065725f8201527f6174696f6e000000000000000000000000000000000000000000000000000000602082015250565b5f61039d602583610333565b91506103a882610343565b604082019050919050565b5f6020820190508181035f8301526103ca81610391565b9050919050565b6103da81610290565b81146103e4575f80fd5b50565b5f815190506103f5816103d1565b92915050565b5f602082840312156104105761040f6102c9565b5b5f61041d848285016103e7565b91505092915050565b7f5468697320636f6e7472616374206973206e6f74207468652061646d696e206f5f8201527f66207468652062616e6b00000000000000000000000000000000000000000000602082015250565b5f610480602a83610333565b915061048b82610426565b604082019050919050565b5f6020820190508181035f8301526104ad81610474565b905091905056fea2646970667358221220771f6ea9f177283ee5505056884c19e283acdf56a1214bfd939ddb553dbe2bfc64736f6c634300081a0033",
					"opcodes": "PUSH1 0x80 PUSH1 0x40 MSTORE CALLVALUE DUP1 ISZERO PUSH1 0xE JUMPI PUSH0 DUP1 REVERT JUMPDEST POP CALLER PUSH0 DUP1 PUSH2 0x100 EXP DUP2 SLOAD DUP2 PUSH20 0xFFFFFFFFFFFFFFFFFFFFFFFFFFFFFFFFFFFFFFFF MUL NOT AND SWAP1 DUP4 PUSH20 0xFFFFFFFFFFFFFFFFFFFFFFFFFFFFFFFFFFFFFFFF AND MUL OR SWAP1 SSTORE POP PUSH2 0x4EA DUP1 PUSH2 0x5B PUSH0 CODECOPY PUSH0 RETURN INVALID PUSH1 0x80 PUSH1 0x40 MSTORE PUSH1 0x4 CALLDATASIZE LT PUSH2 0x2C JUMPI PUSH0 CALLDATALOAD PUSH1 0xE0 SHR DUP1 PUSH4 0x8DA5CB5B EQ PUSH2 0x37 JUMPI DUP1 PUSH4 0xA28835B6 EQ PUSH2 0x61 JUMPI PUSH2 0x33 JUMP JUMPDEST CALLDATASIZE PUSH2 0x33 JUMPI STOP JUMPDEST PUSH0 DUP1 REVERT JUMPDEST CALLVALUE DUP1 ISZERO PUSH2 0x42 JUMPI PUSH0 DUP1 REVERT JUMPDEST POP PUSH2 0x4B PUSH2 0x89 JUMP JUMPDEST PUSH1 0x40 MLOAD PUSH2 0x58 SWAP2 SWAP1 PUSH2 0x2B0 JUMP JUMPDEST PUSH1 0x40 MLOAD DUP1 SWAP2 SUB SWAP1 RETURN JUMPDEST CALLVALUE DUP1 ISZERO PUSH2 0x6C JUMPI PUSH0 DUP1 REVERT JUMPDEST POP PUSH2 0x87 PUSH1 0x4 DUP1 CALLDATASIZE SUB DUP2 ADD SWAP1 PUSH2 0x82 SWAP2 SWAP1 PUSH2 0x308 JUMP JUMPDEST PUSH2 0xAC JUMP JUMPDEST STOP JUMPDEST PUSH0 DUP1 SLOAD SWAP1 PUSH2 0x100 EXP SWAP1 DIV PUSH20 0xFFFFFFFFFFFFFFFFFFFFFFFFFFFFFFFFFFFFFFFF AND DUP2 JUMP JUMPDEST PUSH0 DUP1 SLOAD SWAP1 PUSH2 0x100 EXP SWAP1 DIV PUSH20 0xFFFFFFFFFFFFFFFFFFFFFFFFFFFFFFFFFFFFFFFF AND PUSH20 0xFFFFFFFFFFFFFFFFFFFFFFFFFFFFFFFFFFFFFFFF AND CALLER PUSH20 0xFFFFFFFFFFFFFFFFFFFFFFFFFFFFFFFFFFFFFFFF AND EQ PUSH2 0x139 JUMPI PUSH1 0x40 MLOAD PUSH32 0x8C379A000000000000000000000000000000000000000000000000000000000 DUP2 MSTORE PUSH1 0x4 ADD PUSH2 0x130 SWAP1 PUSH2 0x3B3 JUMP JUMPDEST PUSH1 0x40 MLOAD DUP1 SWAP2 SUB SWAP1 REVERT JUMPDEST ADDRESS PUSH20 0xFFFFFFFFFFFFFFFFFFFFFFFFFFFFFFFFFFFFFFFF AND DUP2 PUSH20 0xFFFFFFFFFFFFFFFFFFFFFFFFFFFFFFFFFFFFFFFF AND PUSH4 0xF851A440 PUSH1 0x40 MLOAD DUP2 PUSH4 0xFFFFFFFF AND PUSH1 0xE0 SHL DUP2 MSTORE PUSH1 0x4 ADD PUSH1 0x20 PUSH1 0x40 MLOAD DUP1 DUP4 SUB DUP2 DUP7 GAS STATICCALL ISZERO DUP1 ISZERO PUSH2 0x199 JUMPI RETURNDATASIZE PUSH0 DUP1 RETURNDATACOPY RETURNDATASIZE PUSH0 REVERT JUMPDEST POP POP POP POP PUSH1 0x40 MLOAD RETURNDATASIZE PUSH1 0x1F NOT PUSH1 0x1F DUP3 ADD AND DUP3 ADD DUP1 PUSH1 0x40 MSTORE POP DUP2 ADD SWAP1 PUSH2 0x1BD SWAP2 SWAP1 PUSH2 0x3FB JUMP JUMPDEST PUSH20 0xFFFFFFFFFFFFFFFFFFFFFFFFFFFFFFFFFFFFFFFF AND EQ PUSH2 0x213 JUMPI PUSH1 0x40 MLOAD PUSH32 0x8C379A000000000000000000000000000000000000000000000000000000000 DUP2 MSTORE PUSH1 0x4 ADD PUSH2 0x20A SWAP1 PUSH2 0x496 JUMP JUMPDEST PUSH1 0x40 MLOAD DUP1 SWAP2 SUB SWAP1 REVERT JUMPDEST DUP1 PUSH20 0xFFFFFFFFFFFFFFFFFFFFFFFFFFFFFFFFFFFFFFFF AND PUSH4 0x3CCFD60B PUSH1 0x40 MLOAD DUP2 PUSH4 0xFFFFFFFF AND PUSH1 0xE0 SHL DUP2 MSTORE PUSH1 0x4 ADD PUSH0 PUSH1 0x40 MLOAD DUP1 DUP4 SUB DUP2 PUSH0 DUP8 DUP1 EXTCODESIZE ISZERO DUP1 ISZERO PUSH2 0x258 JUMPI PUSH0 DUP1 REVERT JUMPDEST POP GAS CALL ISZERO DUP1 ISZERO PUSH2 0x26A JUMPI RETURNDATASIZE PUSH0 DUP1 RETURNDATACOPY RETURNDATASIZE PUSH0 REVERT JUMPDEST POP POP POP POP POP JUMP JUMPDEST PUSH0 PUSH20 0xFFFFFFFFFFFFFFFFFFFFFFFFFFFFFFFFFFFFFFFF DUP3 AND SWAP1 POP SWAP2 SWAP1 POP JUMP JUMPDEST PUSH0 PUSH2 0x29A DUP3 PUSH2 0x271 JUMP JUMPDEST SWAP1 POP SWAP2 SWAP1 POP JUMP JUMPDEST PUSH2 0x2AA DUP2 PUSH2 0x290 JUMP JUMPDEST DUP3 MSTORE POP POP JUMP JUMPDEST PUSH0 PUSH1 0x20 DUP3 ADD SWAP1 POP PUSH2 0x2C3 PUSH0 DUP4 ADD DUP5 PUSH2 0x2A1 JUMP JUMPDEST SWAP3 SWAP2 POP POP JUMP JUMPDEST PUSH0 DUP1 REVERT JUMPDEST PUSH0 PUSH2 0x2D7 DUP3 PUSH2 0x290 JUMP JUMPDEST SWAP1 POP SWAP2 SWAP1 POP JUMP JUMPDEST PUSH2 0x2E7 DUP2 PUSH2 0x2CD JUMP JUMPDEST DUP2 EQ PUSH2 0x2F1 JUMPI PUSH0 DUP1 REVERT JUMPDEST POP JUMP JUMPDEST PUSH0 DUP2 CALLDATALOAD SWAP1 POP PUSH2 0x302 DUP2 PUSH2 0x2DE JUMP JUMPDEST SWAP3 SWAP2 POP POP JUMP JUMPDEST PUSH0 PUSH1 0x20 DUP3 DUP5 SUB SLT ISZERO PUSH2 0x31D JUMPI PUSH2 0x31C PUSH2 0x2C9 JUMP JUMPDEST JUMPDEST PUSH0 PUSH2 0x32A DUP5 DUP3 DUP6 ADD PUSH2 0x2F4 JUMP JUMPDEST SWAP2 POP POP SWAP3 SWAP2 POP POP JUMP JUMPDEST PUSH0 DUP3 DUP3 MSTORE PUSH1 0x20 DUP3 ADD SWAP1 POP SWAP3 SWAP2 POP POP JUMP JUMPDEST PUSH32 0x4F6E6C79206F776E65722063616E20706572666F726D2074686973206F706572 PUSH0 DUP3 ADD MSTORE PUSH32 0x6174696F6E000000000000000000000000000000000000000000000000000000 PUSH1 0x20 DUP3 ADD MSTORE POP JUMP JUMPDEST PUSH0 PUSH2 0x39D PUSH1 0x25 DUP4 PUSH2 0x333 JUMP JUMPDEST SWAP2 POP PUSH2 0x3A8 DUP3 PUSH2 0x343 JUMP JUMPDEST PUSH1 0x40 DUP3 ADD SWAP1 POP SWAP2 SWAP1 POP JUMP JUMPDEST PUSH0 PUSH1 0x20 DUP3 ADD SWAP1 POP DUP2 DUP2 SUB PUSH0 DUP4 ADD MSTORE PUSH2 0x3CA DUP2 PUSH2 0x391 JUMP JUMPDEST SWAP1 POP SWAP2 SWAP1 POP JUMP JUMPDEST PUSH2 0x3DA DUP2 PUSH2 0x290 JUMP JUMPDEST DUP2 EQ PUSH2 0x3E4 JUMPI PUSH0 DUP1 REVERT JUMPDEST POP JUMP JUMPDEST PUSH0 DUP2 MLOAD SWAP1 POP PUSH2 0x3F5 DUP2 PUSH2 0x3D1 JUMP JUMPDEST SWAP3 SWAP2 POP POP JUMP JUMPDEST PUSH0 PUSH1 0x20 DUP3 DUP5 SUB SLT ISZERO PUSH2 0x410 JUMPI PUSH2 0x40F PUSH2 0x2C9 JUMP JUMPDEST JUMPDEST PUSH0 PUSH2 0x41D DUP5 DUP3 DUP6 ADD PUSH2 0x3E7 JUMP JUMPDEST SWAP2 POP POP SWAP3 SWAP2 POP POP JUMP JUMPDEST PUSH32 0x5468697320636F6E7472616374206973206E6F74207468652061646D696E206F PUSH0 DUP3 ADD MSTORE PUSH32 0x66207468652062616E6B00000000000000000000000000000000000000000000 PUSH1 0x20 DUP3 ADD MSTORE POP JUMP JUMPDEST PUSH0 PUSH2 0x480 PUSH1 0x2A DUP4 PUSH2 0x333 JUMP JUMPDEST SWAP2 POP PUSH2 0x48B DUP3 PUSH2 0x426 JUMP JUMPDEST PUSH1 0x40 DUP3 ADD SWAP1 POP SWAP2 SWAP1 POP JUMP JUMPDEST PUSH0 PUSH1 0x20 DUP3 ADD SWAP1 POP DUP2 DUP2 SUB PUSH0 DUP4 ADD MSTORE PUSH2 0x4AD DUP2 PUSH2 0x474 JUMP JUMPDEST SWAP1 POP SWAP2 SWAP1 POP JUMP INVALID LOG2 PUSH5 0x6970667358 0x22 SLT KECCAK256 PUSH24 0x1F6EA9F177283EE5505056884C19E283ACDF56A1214BFD93 SWAP14 0xDB SSTORE RETURNDATASIZE 0xBE 0x2B 0xFC PUSH5 0x736F6C6343 STOP ADDMOD BYTE STOP CALLER "
				},
				"gasEstimates": {
					"creation": {
						"codeDepositCost": "251600",
						"executionCost": "24557",
						"totalCost": "276157"
					},
					"external": {
						"adminWithdraw(address)": "infinite",
						"owner()": "2483"
					}
				},
				"methodIdentifiers": {
					"adminWithdraw(address)": "a28835b6",
					"owner()": "8da5cb5b"
				}
			},
			"storageLayout": {
				"storage": [
					{
						"astId": 527,
						"contract": "study_way/src/4day_bankConstractExtend.sol:Admin",
						"label": "owner",
						"offset": 0,
						"slot": "0",
						"type": "t_address"
					}
				],
				"types": {
					"t_address": {
						"encoding": "inplace",
						"label": "address",
						"numberOfBytes": "20"
					}
				}
			},
			"userdoc": {
				"kind": "user",
				"methods": {},
				"version": 1
			}
		}
	}
}