{
	"study_way/src/4day_testTryCatch.sol": {
		"trycatch": {
			"abi": [
				{
					"inputs": [],
					"stateMutability": "nonpayable",
					"type": "constructor"
				},
				{
					"inputs": [],
					"name": "errorMessage",
					"outputs": [
						{
							"internalType": "string",
							"name": "",
							"type": "string"
						}
					],
					"stateMutability": "view",
					"type": "function"
				},
				{
					"inputs": [],
					"name": "foo",
					"outputs": [
						{
							"internalType": "contract Foo",
							"name": "",
							"type": "address"
						}
					],
					"stateMutability": "view",
					"type": "function"
				},
				{
					"inputs": [
						{
							"internalType": "uint256",
							"name": "i",
							"type": "uint256"
						}
					],
					"name": "tryCatchExtenalCall",
					"outputs": [],
					"stateMutability": "nonpayable",
					"type": "function"
				},
				{
					"inputs": [],
					"name": "y",
					"outputs": [
						{
							"internalType": "uint256",
							"name": "",
							"type": "uint256"
						}
					],
					"stateMutability": "view",
					"type": "function"
				}
			],
			"devdoc": {
				"kind": "dev",
				"methods": {},
				"version": 1
			},
			"evm": {
				"assembly": "    /* \"study_way/src/4day_testTryCatch.sol\":321:1536  contract trycatch {... */\n  mstore(0x40, 0x80)\n    /* \"study_way/src/4day_testTryCatch.sol\":423:471  constructor() {... */\n  callvalue\n  dup1\n  iszero\n  tag_1\n  jumpi\n  0x00\n  dup1\n  revert\ntag_1:\n  pop\n    /* \"study_way/src/4day_testTryCatch.sol\":454:463  new Foo() */\n  mload(0x40)\n  tag_4\n  swap1\n  tag_5\n  jump\t// in\ntag_4:\n  mload(0x40)\n  dup1\n  swap2\n  sub\n  swap1\n  0x00\n  create\n  dup1\n  iszero\n  dup1\n  iszero\n  tag_6\n  jumpi\n  returndatasize\n  0x00\n  dup1\n  returndatacopy\n  revert(0x00, returndatasize)\ntag_6:\n  pop\n    /* \"study_way/src/4day_testTryCatch.sol\":448:451  foo */\n  0x00\n  dup1\n    /* \"study_way/src/4day_testTryCatch.sol\":448:463  foo = new Foo() */\n  0x0100\n  exp\n  dup2\n  sload\n  dup2\n  0xffffffffffffffffffffffffffffffffffffffff\n  mul\n  not\n  and\n  swap1\n  dup4\n  0xffffffffffffffffffffffffffffffffffffffff\n  and\n  mul\n  or\n  swap1\n  sstore\n  pop\n    /* \"study_way/src/4day_testTryCatch.sol\":321:1536  contract trycatch {... */\n  jump(tag_7)\ntag_5:\n  dataSize(sub_1)\n  dup1\n  dataOffset(sub_1)\n  dup4\n  codecopy\n  add\n  swap1\n  jump\t// out\ntag_7:\n  dataSize(sub_0)\n  dup1\n  dataOffset(sub_0)\n  0x00\n  codecopy\n  0x00\n  return\nstop\n\nsub_0: assembly {\n        /* \"study_way/src/4day_testTryCatch.sol\":321:1536  contract trycatch {... */\n      mstore(0x40, 0x80)\n      callvalue\n      dup1\n      iszero\n      tag_1\n      jumpi\n      0x00\n      dup1\n      revert\n    tag_1:\n      pop\n      jumpi(tag_2, lt(calldatasize, 0x04))\n      shr(0xe0, calldataload(0x00))\n      dup1\n      0x13338628\n      eq\n      tag_3\n      jumpi\n      dup1\n      0x51c3002c\n      eq\n      tag_4\n      jumpi\n      dup1\n      0xa56dfe4a\n      eq\n      tag_5\n      jumpi\n      dup1\n      0xc2985578\n      eq\n      tag_6\n      jumpi\n    tag_2:\n      0x00\n      dup1\n      revert\n        /* \"study_way/src/4day_testTryCatch.sol\":390:416  string public errorMessage */\n    tag_3:\n      tag_7\n      tag_8\n      jump\t// in\n    tag_7:\n      mload(0x40)\n      tag_9\n      swap2\n      swap1\n      tag_10\n      jump\t// in\n    tag_9:\n      mload(0x40)\n      dup1\n      swap2\n      sub\n      swap1\n      return\n        /* \"study_way/src/4day_testTryCatch.sol\":481:1533  function tryCatchExtenalCall(uint i) public {... */\n    tag_4:\n      tag_11\n      0x04\n      dup1\n      calldatasize\n      sub\n      dup2\n      add\n      swap1\n      tag_12\n      swap2\n      swap1\n      tag_13\n      jump\t// in\n    tag_12:\n      tag_14\n      jump\t// in\n    tag_11:\n      stop\n        /* \"study_way/src/4day_testTryCatch.sol\":370:383  uint public y */\n    tag_5:\n      tag_15\n      tag_16\n      jump\t// in\n    tag_15:\n      mload(0x40)\n      tag_17\n      swap2\n      swap1\n      tag_18\n      jump\t// in\n    tag_17:\n      mload(0x40)\n      dup1\n      swap2\n      sub\n      swap1\n      return\n        /* \"study_way/src/4day_testTryCatch.sol\":348:363  Foo  public foo */\n    tag_6:\n      tag_19\n      tag_20\n      jump\t// in\n    tag_19:\n      mload(0x40)\n      tag_21\n      swap2\n      swap1\n      tag_22\n      jump\t// in\n    tag_21:\n      mload(0x40)\n      dup1\n      swap2\n      sub\n      swap1\n      return\n        /* \"study_way/src/4day_testTryCatch.sol\":390:416  string public errorMessage */\n    tag_8:\n      0x02\n      dup1\n      sload\n      tag_23\n      swap1\n      tag_24\n      jump\t// in\n    tag_23:\n      dup1\n      0x1f\n      add\n      0x20\n      dup1\n      swap2\n      div\n      mul\n      0x20\n      add\n      mload(0x40)\n      swap1\n      dup2\n      add\n      0x40\n      mstore\n      dup1\n      swap3\n      swap2\n      swap1\n      dup2\n      dup2\n      mstore\n      0x20\n      add\n      dup3\n      dup1\n      sload\n      tag_25\n      swap1\n      tag_24\n      jump\t// in\n    tag_25:\n      dup1\n      iszero\n      tag_26\n      jumpi\n      dup1\n      0x1f\n      lt\n      tag_27\n      jumpi\n      0x0100\n      dup1\n      dup4\n      sload\n      div\n      mul\n      dup4\n      mstore\n      swap2\n      0x20\n      add\n      swap2\n      jump(tag_26)\n    tag_27:\n      dup3\n      add\n      swap2\n      swap1\n      0x00\n      mstore\n      keccak256(0x00, 0x20)\n      swap1\n    tag_28:\n      dup2\n      sload\n      dup2\n      mstore\n      swap1\n      0x01\n      add\n      swap1\n      0x20\n      add\n      dup1\n      dup4\n      gt\n      tag_28\n      jumpi\n      dup3\n      swap1\n      sub\n      0x1f\n      and\n      dup3\n      add\n      swap2\n    tag_26:\n      pop\n      pop\n      pop\n      pop\n      pop\n      dup2\n      jump\t// out\n        /* \"study_way/src/4day_testTryCatch.sol\":481:1533  function tryCatchExtenalCall(uint i) public {... */\n    tag_14:\n        /* \"study_way/src/4day_testTryCatch.sol\":542:545  foo */\n      0x00\n      dup1\n      sload\n      swap1\n      0x0100\n      exp\n      swap1\n      div\n      0xffffffffffffffffffffffffffffffffffffffff\n      and\n        /* \"study_way/src/4day_testTryCatch.sol\":542:552  foo.myFunc */\n      0xffffffffffffffffffffffffffffffffffffffff\n      and\n      0xa9bf5633\n        /* \"study_way/src/4day_testTryCatch.sol\":553:554  i */\n      dup3\n        /* \"study_way/src/4day_testTryCatch.sol\":542:555  foo.myFunc(i) */\n      mload(0x40)\n      dup3\n      0xffffffff\n      and\n      0xe0\n      shl\n      dup2\n      mstore\n      0x04\n      add\n      tag_30\n      swap2\n      swap1\n      tag_18\n      jump\t// in\n    tag_30:\n      0x20\n      mload(0x40)\n      dup1\n      dup4\n      sub\n      dup2\n      dup7\n      gas\n      staticcall\n      swap3\n      pop\n      pop\n      pop\n      dup1\n      iszero\n      tag_31\n      jumpi\n      pop\n      mload(0x40)\n      returndatasize\n      not(0x1f)\n      0x1f\n      dup3\n      add\n      and\n      dup3\n      add\n      dup1\n      0x40\n      mstore\n      pop\n      dup2\n      add\n      swap1\n      tag_32\n      swap2\n      swap1\n      tag_33\n      jump\t// in\n    tag_32:\n      0x01\n    tag_31:\n        /* \"study_way/src/4day_testTryCatch.sol\":538:1526  try foo.myFunc(i) returns (uint result) {... */\n      tag_34\n      jumpi\n      tag_38\n      tag_39\n      jump\t// in\n    tag_38:\n      dup1\n      0x08c379a0\n      sub\n      tag_37\n      jumpi\n      pop\n      tag_40\n      tag_41\n      jump\t// in\n    tag_40:\n      dup1\n      tag_42\n      jumpi\n      pop\n      jump(tag_36)\n    tag_42:\n        /* \"study_way/src/4day_testTryCatch.sol\":841:847  reason */\n      dup1\n        /* \"study_way/src/4day_testTryCatch.sol\":834:848  revert(reason) */\n      mload(0x40)\n      0x08c379a000000000000000000000000000000000000000000000000000000000\n      dup2\n      mstore\n      0x04\n      add\n      tag_43\n      swap2\n      swap1\n      tag_10\n      jump\t// in\n    tag_43:\n      mload(0x40)\n      dup1\n      swap2\n      sub\n      swap1\n      revert\n        /* \"study_way/src/4day_testTryCatch.sol\":538:1526  try foo.myFunc(i) returns (uint result) {... */\n    tag_37:\n      pop\n    tag_36:\n      returndatasize\n      dup1\n      0x00\n      dup2\n      eq\n      tag_45\n      jumpi\n      mload(0x40)\n      swap2\n      pop\n      and(add(returndatasize, 0x3f), not(0x1f))\n      dup3\n      add\n      0x40\n      mstore\n      returndatasize\n      dup3\n      mstore\n      returndatasize\n      0x00\n      0x20\n      dup5\n      add\n      returndatacopy\n      jump(tag_44)\n    tag_45:\n      0x60\n      swap2\n      pop\n    tag_44:\n      pop\n        /* \"study_way/src/4day_testTryCatch.sol\":1378:1390  lowLevelData */\n      dup1\n        /* \"study_way/src/4day_testTryCatch.sol\":1340:1391  abi.encodePacked(\"Low-level error: \", lowLevelData) */\n      add(0x20, mload(0x40))\n      tag_46\n      swap2\n      swap1\n      tag_47\n      jump\t// in\n    tag_46:\n      mload(0x40)\n      0x20\n      dup2\n      dup4\n      sub\n      sub\n      dup2\n      mstore\n      swap1\n      0x40\n      mstore\n        /* \"study_way/src/4day_testTryCatch.sol\":1318:1330  errorMessage */\n      0x02\n        /* \"study_way/src/4day_testTryCatch.sol\":1318:1392  errorMessage = string(abi.encodePacked(\"Low-level error: \", lowLevelData)) */\n      swap1\n      dup2\n      tag_48\n      swap2\n      swap1\n      tag_49\n      jump\t// in\n    tag_48:\n      pop\n        /* \"study_way/src/4day_testTryCatch.sol\":1415:1427  errorMessage */\n      0x02\n        /* \"study_way/src/4day_testTryCatch.sol\":1408:1428  revert(errorMessage) */\n      mload(0x40)\n      0x08c379a000000000000000000000000000000000000000000000000000000000\n      dup2\n      mstore\n      0x04\n      add\n      tag_50\n      swap2\n      swap1\n      tag_51\n      jump\t// in\n    tag_50:\n      mload(0x40)\n      dup1\n      swap2\n      sub\n      swap1\n      revert\n        /* \"study_way/src/4day_testTryCatch.sol\":538:1526  try foo.myFunc(i) returns (uint result) {... */\n    tag_34:\n        /* \"study_way/src/4day_testTryCatch.sol\":597:603  result */\n      dup1\n        /* \"study_way/src/4day_testTryCatch.sol\":593:594  y */\n      0x01\n        /* \"study_way/src/4day_testTryCatch.sol\":593:603  y = result */\n      dup2\n      swap1\n      sstore\n      pop\n        /* \"study_way/src/4day_testTryCatch.sol\":556:648  returns (uint result) {... */\n      pop\n        /* \"study_way/src/4day_testTryCatch.sol\":481:1533  function tryCatchExtenalCall(uint i) public {... */\n      pop\n      jump\t// out\n        /* \"study_way/src/4day_testTryCatch.sol\":370:383  uint public y */\n    tag_16:\n      sload(0x01)\n      dup2\n      jump\t// out\n        /* \"study_way/src/4day_testTryCatch.sol\":348:363  Foo  public foo */\n    tag_20:\n      0x00\n      dup1\n      sload\n      swap1\n      0x0100\n      exp\n      swap1\n      div\n      0xffffffffffffffffffffffffffffffffffffffff\n      and\n      dup2\n      jump\t// out\n        /* \"#utility.yul\":7:106   */\n    tag_53:\n        /* \"#utility.yul\":59:65   */\n      0x00\n        /* \"#utility.yul\":93:98   */\n      dup2\n        /* \"#utility.yul\":87:99   */\n      mload\n        /* \"#utility.yul\":77:99   */\n      swap1\n      pop\n        /* \"#utility.yul\":7:106   */\n      swap2\n      swap1\n      pop\n      jump\t// out\n        /* \"#utility.yul\":112:281   */\n    tag_54:\n        /* \"#utility.yul\":196:207   */\n      0x00\n        /* \"#utility.yul\":230:236   */\n      dup3\n        /* \"#utility.yul\":225:228   */\n      dup3\n        /* \"#utility.yul\":218:237   */\n      mstore\n        /* \"#utility.yul\":270:274   */\n      0x20\n        /* \"#utility.yul\":265:268   */\n      dup3\n        /* \"#utility.yul\":261:275   */\n      add\n        /* \"#utility.yul\":246:275   */\n      swap1\n      pop\n        /* \"#utility.yul\":112:281   */\n      swap3\n      swap2\n      pop\n      pop\n      jump\t// out\n        /* \"#utility.yul\":287:426   */\n    tag_55:\n        /* \"#utility.yul\":376:382   */\n      dup3\n        /* \"#utility.yul\":371:374   */\n      dup2\n        /* \"#utility.yul\":366:369   */\n      dup4\n        /* \"#utility.yul\":360:383   */\n      mcopy\n        /* \"#utility.yul\":417:418   */\n      0x00\n        /* \"#utility.yul\":408:414   */\n      dup4\n        /* \"#utility.yul\":403:406   */\n      dup4\n        /* \"#utility.yul\":399:415   */\n      add\n        /* \"#utility.yul\":392:419   */\n      mstore\n        /* \"#utility.yul\":287:426   */\n      pop\n      pop\n      pop\n      jump\t// out\n        /* \"#utility.yul\":432:534   */\n    tag_56:\n        /* \"#utility.yul\":473:479   */\n      0x00\n        /* \"#utility.yul\":524:526   */\n      0x1f\n        /* \"#utility.yul\":520:527   */\n      not\n        /* \"#utility.yul\":515:517   */\n      0x1f\n        /* \"#utility.yul\":508:513   */\n      dup4\n        /* \"#utility.yul\":504:518   */\n      add\n        /* \"#utility.yul\":500:528   */\n      and\n        /* \"#utility.yul\":490:528   */\n      swap1\n      pop\n        /* \"#utility.yul\":432:534   */\n      swap2\n      swap1\n      pop\n      jump\t// out\n        /* \"#utility.yul\":540:917   */\n    tag_57:\n        /* \"#utility.yul\":628:631   */\n      0x00\n        /* \"#utility.yul\":656:695   */\n      tag_103\n        /* \"#utility.yul\":689:694   */\n      dup3\n        /* \"#utility.yul\":656:695   */\n      tag_53\n      jump\t// in\n    tag_103:\n        /* \"#utility.yul\":711:782   */\n      tag_104\n        /* \"#utility.yul\":775:781   */\n      dup2\n        /* \"#utility.yul\":770:773   */\n      dup6\n        /* \"#utility.yul\":711:782   */\n      tag_54\n      jump\t// in\n    tag_104:\n        /* \"#utility.yul\":704:782   */\n      swap4\n      pop\n        /* \"#utility.yul\":791:856   */\n      tag_105\n        /* \"#utility.yul\":849:855   */\n      dup2\n        /* \"#utility.yul\":844:847   */\n      dup6\n        /* \"#utility.yul\":837:841   */\n      0x20\n        /* \"#utility.yul\":830:835   */\n      dup7\n        /* \"#utility.yul\":826:842   */\n      add\n        /* \"#utility.yul\":791:856   */\n      tag_55\n      jump\t// in\n    tag_105:\n        /* \"#utility.yul\":881:910   */\n      tag_106\n        /* \"#utility.yul\":903:909   */\n      dup2\n        /* \"#utility.yul\":881:910   */\n      tag_56\n      jump\t// in\n    tag_106:\n        /* \"#utility.yul\":876:879   */\n      dup5\n        /* \"#utility.yul\":872:911   */\n      add\n        /* \"#utility.yul\":865:911   */\n      swap2\n      pop\n        /* \"#utility.yul\":632:917   */\n      pop\n        /* \"#utility.yul\":540:917   */\n      swap3\n      swap2\n      pop\n      pop\n      jump\t// out\n        /* \"#utility.yul\":923:1236   */\n    tag_10:\n        /* \"#utility.yul\":1036:1040   */\n      0x00\n        /* \"#utility.yul\":1074:1076   */\n      0x20\n        /* \"#utility.yul\":1063:1072   */\n      dup3\n        /* \"#utility.yul\":1059:1077   */\n      add\n        /* \"#utility.yul\":1051:1077   */\n      swap1\n      pop\n        /* \"#utility.yul\":1123:1132   */\n      dup2\n        /* \"#utility.yul\":1117:1121   */\n      dup2\n        /* \"#utility.yul\":1113:1133   */\n      sub\n        /* \"#utility.yul\":1109:1110   */\n      0x00\n        /* \"#utility.yul\":1098:1107   */\n      dup4\n        /* \"#utility.yul\":1094:1111   */\n      add\n        /* \"#utility.yul\":1087:1134   */\n      mstore\n        /* \"#utility.yul\":1151:1229   */\n      tag_108\n        /* \"#utility.yul\":1224:1228   */\n      dup2\n        /* \"#utility.yul\":1215:1221   */\n      dup5\n        /* \"#utility.yul\":1151:1229   */\n      tag_57\n      jump\t// in\n    tag_108:\n        /* \"#utility.yul\":1143:1229   */\n      swap1\n      pop\n        /* \"#utility.yul\":923:1236   */\n      swap3\n      swap2\n      pop\n      pop\n      jump\t// out\n        /* \"#utility.yul\":1242:1317   */\n    tag_58:\n        /* \"#utility.yul\":1275:1281   */\n      0x00\n        /* \"#utility.yul\":1308:1310   */\n      0x40\n        /* \"#utility.yul\":1302:1311   */\n      mload\n        /* \"#utility.yul\":1292:1311   */\n      swap1\n      pop\n        /* \"#utility.yul\":1242:1317   */\n      swap1\n      jump\t// out\n        /* \"#utility.yul\":1323:1440   */\n    tag_59:\n        /* \"#utility.yul\":1432:1433   */\n      0x00\n        /* \"#utility.yul\":1429:1430   */\n      dup1\n        /* \"#utility.yul\":1422:1434   */\n      revert\n        /* \"#utility.yul\":1569:1646   */\n    tag_61:\n        /* \"#utility.yul\":1606:1613   */\n      0x00\n        /* \"#utility.yul\":1635:1640   */\n      dup2\n        /* \"#utility.yul\":1624:1640   */\n      swap1\n      pop\n        /* \"#utility.yul\":1569:1646   */\n      swap2\n      swap1\n      pop\n      jump\t// out\n        /* \"#utility.yul\":1652:1774   */\n    tag_62:\n        /* \"#utility.yul\":1725:1749   */\n      tag_114\n        /* \"#utility.yul\":1743:1748   */\n      dup2\n        /* \"#utility.yul\":1725:1749   */\n      tag_61\n      jump\t// in\n    tag_114:\n        /* \"#utility.yul\":1718:1723   */\n      dup2\n        /* \"#utility.yul\":1715:1750   */\n      eq\n        /* \"#utility.yul\":1705:1768   */\n      tag_115\n      jumpi\n        /* \"#utility.yul\":1764:1765   */\n      0x00\n        /* \"#utility.yul\":1761:1762   */\n      dup1\n        /* \"#utility.yul\":1754:1766   */\n      revert\n        /* \"#utility.yul\":1705:1768   */\n    tag_115:\n        /* \"#utility.yul\":1652:1774   */\n      pop\n      jump\t// out\n        /* \"#utility.yul\":1780:1919   */\n    tag_63:\n        /* \"#utility.yul\":1826:1831   */\n      0x00\n        /* \"#utility.yul\":1864:1870   */\n      dup2\n        /* \"#utility.yul\":1851:1871   */\n      calldataload\n        /* \"#utility.yul\":1842:1871   */\n      swap1\n      pop\n        /* \"#utility.yul\":1880:1913   */\n      tag_117\n        /* \"#utility.yul\":1907:1912   */\n      dup2\n        /* \"#utility.yul\":1880:1913   */\n      tag_62\n      jump\t// in\n    tag_117:\n        /* \"#utility.yul\":1780:1919   */\n      swap3\n      swap2\n      pop\n      pop\n      jump\t// out\n        /* \"#utility.yul\":1925:2254   */\n    tag_13:\n        /* \"#utility.yul\":1984:1990   */\n      0x00\n        /* \"#utility.yul\":2033:2035   */\n      0x20\n        /* \"#utility.yul\":2021:2030   */\n      dup3\n        /* \"#utility.yul\":2012:2019   */\n      dup5\n        /* \"#utility.yul\":2008:2031   */\n      sub\n        /* \"#utility.yul\":2004:2036   */\n      slt\n        /* \"#utility.yul\":2001:2120   */\n      iszero\n      tag_119\n      jumpi\n        /* \"#utility.yul\":2039:2118   */\n      tag_120\n      tag_59\n      jump\t// in\n    tag_120:\n        /* \"#utility.yul\":2001:2120   */\n    tag_119:\n        /* \"#utility.yul\":2159:2160   */\n      0x00\n        /* \"#utility.yul\":2184:2237   */\n      tag_121\n        /* \"#utility.yul\":2229:2236   */\n      dup5\n        /* \"#utility.yul\":2220:2226   */\n      dup3\n        /* \"#utility.yul\":2209:2218   */\n      dup6\n        /* \"#utility.yul\":2205:2227   */\n      add\n        /* \"#utility.yul\":2184:2237   */\n      tag_63\n      jump\t// in\n    tag_121:\n        /* \"#utility.yul\":2174:2237   */\n      swap2\n      pop\n        /* \"#utility.yul\":2130:2247   */\n      pop\n        /* \"#utility.yul\":1925:2254   */\n      swap3\n      swap2\n      pop\n      pop\n      jump\t// out\n        /* \"#utility.yul\":2260:2378   */\n    tag_64:\n        /* \"#utility.yul\":2347:2371   */\n      tag_123\n        /* \"#utility.yul\":2365:2370   */\n      dup2\n        /* \"#utility.yul\":2347:2371   */\n      tag_61\n      jump\t// in\n    tag_123:\n        /* \"#utility.yul\":2342:2345   */\n      dup3\n        /* \"#utility.yul\":2335:2372   */\n      mstore\n        /* \"#utility.yul\":2260:2378   */\n      pop\n      pop\n      jump\t// out\n        /* \"#utility.yul\":2384:2606   */\n    tag_18:\n        /* \"#utility.yul\":2477:2481   */\n      0x00\n        /* \"#utility.yul\":2515:2517   */\n      0x20\n        /* \"#utility.yul\":2504:2513   */\n      dup3\n        /* \"#utility.yul\":2500:2518   */\n      add\n        /* \"#utility.yul\":2492:2518   */\n      swap1\n      pop\n        /* \"#utility.yul\":2528:2599   */\n      tag_125\n        /* \"#utility.yul\":2596:2597   */\n      0x00\n        /* \"#utility.yul\":2585:2594   */\n      dup4\n        /* \"#utility.yul\":2581:2598   */\n      add\n        /* \"#utility.yul\":2572:2578   */\n      dup5\n        /* \"#utility.yul\":2528:2599   */\n      tag_64\n      jump\t// in\n    tag_125:\n        /* \"#utility.yul\":2384:2606   */\n      swap3\n      swap2\n      pop\n      pop\n      jump\t// out\n        /* \"#utility.yul\":2612:2738   */\n    tag_65:\n        /* \"#utility.yul\":2649:2656   */\n      0x00\n        /* \"#utility.yul\":2689:2731   */\n      0xffffffffffffffffffffffffffffffffffffffff\n        /* \"#utility.yul\":2682:2687   */\n      dup3\n        /* \"#utility.yul\":2678:2732   */\n      and\n        /* \"#utility.yul\":2667:2732   */\n      swap1\n      pop\n        /* \"#utility.yul\":2612:2738   */\n      swap2\n      swap1\n      pop\n      jump\t// out\n        /* \"#utility.yul\":2744:2804   */\n    tag_66:\n        /* \"#utility.yul\":2772:2775   */\n      0x00\n        /* \"#utility.yul\":2793:2798   */\n      dup2\n        /* \"#utility.yul\":2786:2798   */\n      swap1\n      pop\n        /* \"#utility.yul\":2744:2804   */\n      swap2\n      swap1\n      pop\n      jump\t// out\n        /* \"#utility.yul\":2810:2952   */\n    tag_67:\n        /* \"#utility.yul\":2860:2869   */\n      0x00\n        /* \"#utility.yul\":2893:2946   */\n      tag_129\n        /* \"#utility.yul\":2911:2945   */\n      tag_130\n        /* \"#utility.yul\":2920:2944   */\n      tag_131\n        /* \"#utility.yul\":2938:2943   */\n      dup5\n        /* \"#utility.yul\":2920:2944   */\n      tag_65\n      jump\t// in\n    tag_131:\n        /* \"#utility.yul\":2911:2945   */\n      tag_66\n      jump\t// in\n    tag_130:\n        /* \"#utility.yul\":2893:2946   */\n      tag_65\n      jump\t// in\n    tag_129:\n        /* \"#utility.yul\":2880:2946   */\n      swap1\n      pop\n        /* \"#utility.yul\":2810:2952   */\n      swap2\n      swap1\n      pop\n      jump\t// out\n        /* \"#utility.yul\":2958:3084   */\n    tag_68:\n        /* \"#utility.yul\":3008:3017   */\n      0x00\n        /* \"#utility.yul\":3041:3078   */\n      tag_133\n        /* \"#utility.yul\":3072:3077   */\n      dup3\n        /* \"#utility.yul\":3041:3078   */\n      tag_67\n      jump\t// in\n    tag_133:\n        /* \"#utility.yul\":3028:3078   */\n      swap1\n      pop\n        /* \"#utility.yul\":2958:3084   */\n      swap2\n      swap1\n      pop\n      jump\t// out\n        /* \"#utility.yul\":3090:3226   */\n    tag_69:\n        /* \"#utility.yul\":3150:3159   */\n      0x00\n        /* \"#utility.yul\":3183:3220   */\n      tag_135\n        /* \"#utility.yul\":3214:3219   */\n      dup3\n        /* \"#utility.yul\":3183:3220   */\n      tag_68\n      jump\t// in\n    tag_135:\n        /* \"#utility.yul\":3170:3220   */\n      swap1\n      pop\n        /* \"#utility.yul\":3090:3226   */\n      swap2\n      swap1\n      pop\n      jump\t// out\n        /* \"#utility.yul\":3232:3383   */\n    tag_70:\n        /* \"#utility.yul\":3329:3376   */\n      tag_137\n        /* \"#utility.yul\":3370:3375   */\n      dup2\n        /* \"#utility.yul\":3329:3376   */\n      tag_69\n      jump\t// in\n    tag_137:\n        /* \"#utility.yul\":3324:3327   */\n      dup3\n        /* \"#utility.yul\":3317:3377   */\n      mstore\n        /* \"#utility.yul\":3232:3383   */\n      pop\n      pop\n      jump\t// out\n        /* \"#utility.yul\":3389:3631   */\n    tag_22:\n        /* \"#utility.yul\":3492:3496   */\n      0x00\n        /* \"#utility.yul\":3530:3532   */\n      0x20\n        /* \"#utility.yul\":3519:3528   */\n      dup3\n        /* \"#utility.yul\":3515:3533   */\n      add\n        /* \"#utility.yul\":3507:3533   */\n      swap1\n      pop\n        /* \"#utility.yul\":3543:3624   */\n      tag_139\n        /* \"#utility.yul\":3621:3622   */\n      0x00\n        /* \"#utility.yul\":3610:3619   */\n      dup4\n        /* \"#utility.yul\":3606:3623   */\n      add\n        /* \"#utility.yul\":3597:3603   */\n      dup5\n        /* \"#utility.yul\":3543:3624   */\n      tag_70\n      jump\t// in\n    tag_139:\n        /* \"#utility.yul\":3389:3631   */\n      swap3\n      swap2\n      pop\n      pop\n      jump\t// out\n        /* \"#utility.yul\":3637:3817   */\n    tag_71:\n        /* \"#utility.yul\":3685:3762   */\n      0x4e487b7100000000000000000000000000000000000000000000000000000000\n        /* \"#utility.yul\":3682:3683   */\n      0x00\n        /* \"#utility.yul\":3675:3763   */\n      mstore\n        /* \"#utility.yul\":3782:3786   */\n      0x22\n        /* \"#utility.yul\":3779:3780   */\n      0x04\n        /* \"#utility.yul\":3772:3787   */\n      mstore\n        /* \"#utility.yul\":3806:3810   */\n      0x24\n        /* \"#utility.yul\":3803:3804   */\n      0x00\n        /* \"#utility.yul\":3796:3811   */\n      revert\n        /* \"#utility.yul\":3823:4143   */\n    tag_24:\n        /* \"#utility.yul\":3867:3873   */\n      0x00\n        /* \"#utility.yul\":3904:3905   */\n      0x02\n        /* \"#utility.yul\":3898:3902   */\n      dup3\n        /* \"#utility.yul\":3894:3906   */\n      div\n        /* \"#utility.yul\":3884:3906   */\n      swap1\n      pop\n        /* \"#utility.yul\":3951:3952   */\n      0x01\n        /* \"#utility.yul\":3945:3949   */\n      dup3\n        /* \"#utility.yul\":3941:3953   */\n      and\n        /* \"#utility.yul\":3972:3990   */\n      dup1\n        /* \"#utility.yul\":3962:4043   */\n      tag_142\n      jumpi\n        /* \"#utility.yul\":4028:4032   */\n      0x7f\n        /* \"#utility.yul\":4020:4026   */\n      dup3\n        /* \"#utility.yul\":4016:4033   */\n      and\n        /* \"#utility.yul\":4006:4033   */\n      swap2\n      pop\n        /* \"#utility.yul\":3962:4043   */\n    tag_142:\n        /* \"#utility.yul\":4090:4092   */\n      0x20\n        /* \"#utility.yul\":4082:4088   */\n      dup3\n        /* \"#utility.yul\":4079:4093   */\n      lt\n        /* \"#utility.yul\":4059:4077   */\n      dup2\n        /* \"#utility.yul\":4056:4094   */\n      sub\n        /* \"#utility.yul\":4053:4137   */\n      tag_143\n      jumpi\n        /* \"#utility.yul\":4109:4127   */\n      tag_144\n      tag_71\n      jump\t// in\n    tag_144:\n        /* \"#utility.yul\":4053:4137   */\n    tag_143:\n        /* \"#utility.yul\":3874:4143   */\n      pop\n        /* \"#utility.yul\":3823:4143   */\n      swap2\n      swap1\n      pop\n      jump\t// out\n        /* \"#utility.yul\":4149:4292   */\n    tag_72:\n        /* \"#utility.yul\":4206:4211   */\n      0x00\n        /* \"#utility.yul\":4237:4243   */\n      dup2\n        /* \"#utility.yul\":4231:4244   */\n      mload\n        /* \"#utility.yul\":4222:4244   */\n      swap1\n      pop\n        /* \"#utility.yul\":4253:4286   */\n      tag_146\n        /* \"#utility.yul\":4280:4285   */\n      dup2\n        /* \"#utility.yul\":4253:4286   */\n      tag_62\n      jump\t// in\n    tag_146:\n        /* \"#utility.yul\":4149:4292   */\n      swap3\n      swap2\n      pop\n      pop\n      jump\t// out\n        /* \"#utility.yul\":4298:4649   */\n    tag_33:\n        /* \"#utility.yul\":4368:4374   */\n      0x00\n        /* \"#utility.yul\":4417:4419   */\n      0x20\n        /* \"#utility.yul\":4405:4414   */\n      dup3\n        /* \"#utility.yul\":4396:4403   */\n      dup5\n        /* \"#utility.yul\":4392:4415   */\n      sub\n        /* \"#utility.yul\":4388:4420   */\n      slt\n        /* \"#utility.yul\":4385:4504   */\n      iszero\n      tag_148\n      jumpi\n        /* \"#utility.yul\":4423:4502   */\n      tag_149\n      tag_59\n      jump\t// in\n    tag_149:\n        /* \"#utility.yul\":4385:4504   */\n    tag_148:\n        /* \"#utility.yul\":4543:4544   */\n      0x00\n        /* \"#utility.yul\":4568:4632   */\n      tag_150\n        /* \"#utility.yul\":4624:4631   */\n      dup5\n        /* \"#utility.yul\":4615:4621   */\n      dup3\n        /* \"#utility.yul\":4604:4613   */\n      dup6\n        /* \"#utility.yul\":4600:4622   */\n      add\n        /* \"#utility.yul\":4568:4632   */\n      tag_72\n      jump\t// in\n    tag_150:\n        /* \"#utility.yul\":4558:4632   */\n      swap2\n      pop\n        /* \"#utility.yul\":4514:4642   */\n      pop\n        /* \"#utility.yul\":4298:4649   */\n      swap3\n      swap2\n      pop\n      pop\n      jump\t// out\n        /* \"#utility.yul\":4655:4761   */\n    tag_73:\n        /* \"#utility.yul\":4699:4707   */\n      0x00\n        /* \"#utility.yul\":4748:4753   */\n      dup2\n        /* \"#utility.yul\":4743:4746   */\n      0xe0\n        /* \"#utility.yul\":4739:4754   */\n      shr\n        /* \"#utility.yul\":4718:4754   */\n      swap1\n      pop\n        /* \"#utility.yul\":4655:4761   */\n      swap2\n      swap1\n      pop\n      jump\t// out\n        /* \"#utility.yul\":4767:4950   */\n    tag_39:\n        /* \"#utility.yul\":4802:4805   */\n      0x00\n        /* \"#utility.yul\":4840:4841   */\n      0x03\n        /* \"#utility.yul\":4822:4838   */\n      returndatasize\n        /* \"#utility.yul\":4819:4842   */\n      gt\n        /* \"#utility.yul\":4816:4944   */\n      iszero\n      tag_153\n      jumpi\n        /* \"#utility.yul\":4878:4879   */\n      0x04\n        /* \"#utility.yul\":4875:4876   */\n      0x00\n        /* \"#utility.yul\":4872:4873   */\n      dup1\n        /* \"#utility.yul\":4857:4880   */\n      returndatacopy\n        /* \"#utility.yul\":4900:4934   */\n      tag_154\n        /* \"#utility.yul\":4931:4932   */\n      0x00\n        /* \"#utility.yul\":4925:4933   */\n      mload\n        /* \"#utility.yul\":4900:4934   */\n      tag_73\n      jump\t// in\n    tag_154:\n        /* \"#utility.yul\":4893:4934   */\n      swap1\n      pop\n        /* \"#utility.yul\":4816:4944   */\n    tag_153:\n        /* \"#utility.yul\":4767:4950   */\n      swap1\n      jump\t// out\n        /* \"#utility.yul\":4956:5136   */\n    tag_74:\n        /* \"#utility.yul\":5004:5081   */\n      0x4e487b7100000000000000000000000000000000000000000000000000000000\n        /* \"#utility.yul\":5001:5002   */\n      0x00\n        /* \"#utility.yul\":4994:5082   */\n      mstore\n        /* \"#utility.yul\":5101:5105   */\n      0x41\n        /* \"#utility.yul\":5098:5099   */\n      0x04\n        /* \"#utility.yul\":5091:5106   */\n      mstore\n        /* \"#utility.yul\":5125:5129   */\n      0x24\n        /* \"#utility.yul\":5122:5123   */\n      0x00\n        /* \"#utility.yul\":5115:5130   */\n      revert\n        /* \"#utility.yul\":5142:5423   */\n    tag_75:\n        /* \"#utility.yul\":5225:5252   */\n      tag_157\n        /* \"#utility.yul\":5247:5251   */\n      dup3\n        /* \"#utility.yul\":5225:5252   */\n      tag_56\n      jump\t// in\n    tag_157:\n        /* \"#utility.yul\":5217:5223   */\n      dup2\n        /* \"#utility.yul\":5213:5253   */\n      add\n        /* \"#utility.yul\":5355:5361   */\n      dup2\n        /* \"#utility.yul\":5343:5353   */\n      dup2\n        /* \"#utility.yul\":5340:5362   */\n      lt\n        /* \"#utility.yul\":5319:5337   */\n      0xffffffffffffffff\n        /* \"#utility.yul\":5307:5317   */\n      dup3\n        /* \"#utility.yul\":5304:5338   */\n      gt\n        /* \"#utility.yul\":5301:5363   */\n      or\n        /* \"#utility.yul\":5298:5386   */\n      iszero\n      tag_158\n      jumpi\n        /* \"#utility.yul\":5366:5384   */\n      tag_159\n      tag_74\n      jump\t// in\n    tag_159:\n        /* \"#utility.yul\":5298:5386   */\n    tag_158:\n        /* \"#utility.yul\":5406:5416   */\n      dup1\n        /* \"#utility.yul\":5402:5404   */\n      0x40\n        /* \"#utility.yul\":5395:5417   */\n      mstore\n        /* \"#utility.yul\":5185:5423   */\n      pop\n        /* \"#utility.yul\":5142:5423   */\n      pop\n      pop\n      jump\t// out\n        /* \"#utility.yul\":5429:6140   */\n    tag_41:\n        /* \"#utility.yul\":5468:5471   */\n      0x00\n        /* \"#utility.yul\":5506:5510   */\n      0x44\n        /* \"#utility.yul\":5488:5504   */\n      returndatasize\n        /* \"#utility.yul\":5485:5511   */\n      lt\n        /* \"#utility.yul\":5514:5519   */\n      tag_160\n        /* \"#utility.yul\":5482:5521   */\n      jumpi\n        /* \"#utility.yul\":5543:5563   */\n      tag_162\n      tag_58\n      jump\t// in\n    tag_162:\n        /* \"#utility.yul\":5618:5619   */\n      0x04\n        /* \"#utility.yul\":5600:5616   */\n      returndatasize\n        /* \"#utility.yul\":5596:5620   */\n      sub\n        /* \"#utility.yul\":5593:5594   */\n      0x04\n        /* \"#utility.yul\":5587:5591   */\n      dup3\n        /* \"#utility.yul\":5572:5621   */\n      returndatacopy\n        /* \"#utility.yul\":5651:5655   */\n      dup1\n        /* \"#utility.yul\":5645:5656   */\n      mload\n        /* \"#utility.yul\":5750:5766   */\n      returndatasize\n        /* \"#utility.yul\":5743:5747   */\n      0x24\n        /* \"#utility.yul\":5735:5741   */\n      dup3\n        /* \"#utility.yul\":5731:5748   */\n      add\n        /* \"#utility.yul\":5728:5767   */\n      gt\n        /* \"#utility.yul\":5695:5713   */\n      0xffffffffffffffff\n        /* \"#utility.yul\":5687:5693   */\n      dup3\n        /* \"#utility.yul\":5684:5714   */\n      gt\n        /* \"#utility.yul\":5668:5781   */\n      or\n        /* \"#utility.yul\":5665:5811   */\n      iszero\n      tag_163\n      jumpi\n        /* \"#utility.yul\":5796:5801   */\n      pop\n      pop\n      jump(tag_160)\n        /* \"#utility.yul\":5665:5811   */\n    tag_163:\n        /* \"#utility.yul\":5842:5848   */\n      dup1\n        /* \"#utility.yul\":5836:5840   */\n      dup3\n        /* \"#utility.yul\":5832:5849   */\n      add\n        /* \"#utility.yul\":5878:5881   */\n      dup1\n        /* \"#utility.yul\":5872:5882   */\n      mload\n        /* \"#utility.yul\":5905:5923   */\n      0xffffffffffffffff\n        /* \"#utility.yul\":5897:5903   */\n      dup2\n        /* \"#utility.yul\":5894:5924   */\n      gt\n        /* \"#utility.yul\":5891:5934   */\n      iszero\n      tag_164\n      jumpi\n        /* \"#utility.yul\":5927:5932   */\n      pop\n      pop\n      pop\n      pop\n      jump(tag_160)\n        /* \"#utility.yul\":5891:5934   */\n    tag_164:\n        /* \"#utility.yul\":5975:5981   */\n      dup1\n        /* \"#utility.yul\":5968:5972   */\n      0x20\n        /* \"#utility.yul\":5963:5966   */\n      dup4\n        /* \"#utility.yul\":5959:5973   */\n      add\n        /* \"#utility.yul\":5955:5982   */\n      add\n        /* \"#utility.yul\":6034:6035   */\n      0x04\n        /* \"#utility.yul\":6016:6032   */\n      returndatasize\n        /* \"#utility.yul\":6012:6036   */\n      sub\n        /* \"#utility.yul\":6006:6010   */\n      dup6\n        /* \"#utility.yul\":6002:6037   */\n      add\n        /* \"#utility.yul\":5997:6000   */\n      dup2\n        /* \"#utility.yul\":5994:6038   */\n      gt\n        /* \"#utility.yul\":5991:6048   */\n      iszero\n      tag_165\n      jumpi\n        /* \"#utility.yul\":6041:6046   */\n      pop\n      pop\n      pop\n      pop\n      pop\n      jump(tag_160)\n        /* \"#utility.yul\":5991:6048   */\n    tag_165:\n        /* \"#utility.yul\":6058:6115   */\n      tag_166\n        /* \"#utility.yul\":6106:6112   */\n      dup3\n        /* \"#utility.yul\":6100:6104   */\n      0x20\n        /* \"#utility.yul\":6096:6113   */\n      add\n        /* \"#utility.yul\":6088:6094   */\n      dup6\n        /* \"#utility.yul\":6084:6114   */\n      add\n        /* \"#utility.yul\":6078:6082   */\n      dup7\n        /* \"#utility.yul\":6058:6115   */\n      tag_75\n      jump\t// in\n    tag_166:\n        /* \"#utility.yul\":6131:6134   */\n      dup3\n        /* \"#utility.yul\":6124:6134   */\n      swap6\n      pop\n        /* \"#utility.yul\":5472:6140   */\n      pop\n      pop\n      pop\n      pop\n      pop\n        /* \"#utility.yul\":5429:6140   */\n    tag_160:\n      swap1\n      jump\t// out\n        /* \"#utility.yul\":6146:6294   */\n    tag_76:\n        /* \"#utility.yul\":6248:6259   */\n      0x00\n        /* \"#utility.yul\":6285:6288   */\n      dup2\n        /* \"#utility.yul\":6270:6288   */\n      swap1\n      pop\n        /* \"#utility.yul\":6146:6294   */\n      swap3\n      swap2\n      pop\n      pop\n      jump\t// out\n        /* \"#utility.yul\":6300:6467   */\n    tag_77:\n        /* \"#utility.yul\":6440:6459   */\n      0x4c6f772d6c6576656c206572726f723a20000000000000000000000000000000\n        /* \"#utility.yul\":6436:6437   */\n      0x00\n        /* \"#utility.yul\":6428:6434   */\n      dup3\n        /* \"#utility.yul\":6424:6438   */\n      add\n        /* \"#utility.yul\":6417:6460   */\n      mstore\n        /* \"#utility.yul\":6300:6467   */\n      pop\n      jump\t// out\n        /* \"#utility.yul\":6473:6875   */\n    tag_78:\n        /* \"#utility.yul\":6633:6636   */\n      0x00\n        /* \"#utility.yul\":6654:6739   */\n      tag_170\n        /* \"#utility.yul\":6736:6738   */\n      0x11\n        /* \"#utility.yul\":6731:6734   */\n      dup4\n        /* \"#utility.yul\":6654:6739   */\n      tag_76\n      jump\t// in\n    tag_170:\n        /* \"#utility.yul\":6647:6739   */\n      swap2\n      pop\n        /* \"#utility.yul\":6748:6841   */\n      tag_171\n        /* \"#utility.yul\":6837:6840   */\n      dup3\n        /* \"#utility.yul\":6748:6841   */\n      tag_77\n      jump\t// in\n    tag_171:\n        /* \"#utility.yul\":6866:6868   */\n      0x11\n        /* \"#utility.yul\":6861:6864   */\n      dup3\n        /* \"#utility.yul\":6857:6869   */\n      add\n        /* \"#utility.yul\":6850:6869   */\n      swap1\n      pop\n        /* \"#utility.yul\":6473:6875   */\n      swap2\n      swap1\n      pop\n      jump\t// out\n        /* \"#utility.yul\":6881:6979   */\n    tag_79:\n        /* \"#utility.yul\":6932:6938   */\n      0x00\n        /* \"#utility.yul\":6966:6971   */\n      dup2\n        /* \"#utility.yul\":6960:6972   */\n      mload\n        /* \"#utility.yul\":6950:6972   */\n      swap1\n      pop\n        /* \"#utility.yul\":6881:6979   */\n      swap2\n      swap1\n      pop\n      jump\t// out\n        /* \"#utility.yul\":6985:7132   */\n    tag_80:\n        /* \"#utility.yul\":7086:7097   */\n      0x00\n        /* \"#utility.yul\":7123:7126   */\n      dup2\n        /* \"#utility.yul\":7108:7126   */\n      swap1\n      pop\n        /* \"#utility.yul\":6985:7132   */\n      swap3\n      swap2\n      pop\n      pop\n      jump\t// out\n        /* \"#utility.yul\":7138:7524   */\n    tag_81:\n        /* \"#utility.yul\":7242:7245   */\n      0x00\n        /* \"#utility.yul\":7270:7308   */\n      tag_175\n        /* \"#utility.yul\":7302:7307   */\n      dup3\n        /* \"#utility.yul\":7270:7308   */\n      tag_79\n      jump\t// in\n    tag_175:\n        /* \"#utility.yul\":7324:7412   */\n      tag_176\n        /* \"#utility.yul\":7405:7411   */\n      dup2\n        /* \"#utility.yul\":7400:7403   */\n      dup6\n        /* \"#utility.yul\":7324:7412   */\n      tag_80\n      jump\t// in\n    tag_176:\n        /* \"#utility.yul\":7317:7412   */\n      swap4\n      pop\n        /* \"#utility.yul\":7421:7486   */\n      tag_177\n        /* \"#utility.yul\":7479:7485   */\n      dup2\n        /* \"#utility.yul\":7474:7477   */\n      dup6\n        /* \"#utility.yul\":7467:7471   */\n      0x20\n        /* \"#utility.yul\":7460:7465   */\n      dup7\n        /* \"#utility.yul\":7456:7472   */\n      add\n        /* \"#utility.yul\":7421:7486   */\n      tag_55\n      jump\t// in\n    tag_177:\n        /* \"#utility.yul\":7511:7517   */\n      dup1\n        /* \"#utility.yul\":7506:7509   */\n      dup5\n        /* \"#utility.yul\":7502:7518   */\n      add\n        /* \"#utility.yul\":7495:7518   */\n      swap2\n      pop\n        /* \"#utility.yul\":7246:7524   */\n      pop\n        /* \"#utility.yul\":7138:7524   */\n      swap3\n      swap2\n      pop\n      pop\n      jump\t// out\n        /* \"#utility.yul\":7530:8067   */\n    tag_47:\n        /* \"#utility.yul\":7761:7764   */\n      0x00\n        /* \"#utility.yul\":7783:7931   */\n      tag_179\n        /* \"#utility.yul\":7927:7930   */\n      dup3\n        /* \"#utility.yul\":7783:7931   */\n      tag_78\n      jump\t// in\n    tag_179:\n        /* \"#utility.yul\":7776:7931   */\n      swap2\n      pop\n        /* \"#utility.yul\":7948:8041   */\n      tag_180\n        /* \"#utility.yul\":8037:8040   */\n      dup3\n        /* \"#utility.yul\":8028:8034   */\n      dup5\n        /* \"#utility.yul\":7948:8041   */\n      tag_81\n      jump\t// in\n    tag_180:\n        /* \"#utility.yul\":7941:8041   */\n      swap2\n      pop\n        /* \"#utility.yul\":8058:8061   */\n      dup2\n        /* \"#utility.yul\":8051:8061   */\n      swap1\n      pop\n        /* \"#utility.yul\":7530:8067   */\n      swap3\n      swap2\n      pop\n      pop\n      jump\t// out\n        /* \"#utility.yul\":8073:8214   */\n    tag_82:\n        /* \"#utility.yul\":8122:8126   */\n      0x00\n        /* \"#utility.yul\":8145:8148   */\n      dup2\n        /* \"#utility.yul\":8137:8148   */\n      swap1\n      pop\n        /* \"#utility.yul\":8168:8171   */\n      dup2\n        /* \"#utility.yul\":8165:8166   */\n      0x00\n        /* \"#utility.yul\":8158:8172   */\n      mstore\n        /* \"#utility.yul\":8202:8206   */\n      0x20\n        /* \"#utility.yul\":8199:8200   */\n      0x00\n        /* \"#utility.yul\":8189:8207   */\n      keccak256\n        /* \"#utility.yul\":8181:8207   */\n      swap1\n      pop\n        /* \"#utility.yul\":8073:8214   */\n      swap2\n      swap1\n      pop\n      jump\t// out\n        /* \"#utility.yul\":8220:8313   */\n    tag_83:\n        /* \"#utility.yul\":8257:8263   */\n      0x00\n        /* \"#utility.yul\":8304:8306   */\n      0x20\n        /* \"#utility.yul\":8299:8301   */\n      0x1f\n        /* \"#utility.yul\":8292:8297   */\n      dup4\n        /* \"#utility.yul\":8288:8302   */\n      add\n        /* \"#utility.yul\":8284:8307   */\n      div\n        /* \"#utility.yul\":8274:8307   */\n      swap1\n      pop\n        /* \"#utility.yul\":8220:8313   */\n      swap2\n      swap1\n      pop\n      jump\t// out\n        /* \"#utility.yul\":8319:8426   */\n    tag_84:\n        /* \"#utility.yul\":8363:8371   */\n      0x00\n        /* \"#utility.yul\":8413:8418   */\n      dup3\n        /* \"#utility.yul\":8407:8411   */\n      dup3\n        /* \"#utility.yul\":8403:8419   */\n      shl\n        /* \"#utility.yul\":8382:8419   */\n      swap1\n      pop\n        /* \"#utility.yul\":8319:8426   */\n      swap3\n      swap2\n      pop\n      pop\n      jump\t// out\n        /* \"#utility.yul\":8432:8825   */\n    tag_85:\n        /* \"#utility.yul\":8501:8507   */\n      0x00\n        /* \"#utility.yul\":8551:8552   */\n      0x08\n        /* \"#utility.yul\":8539:8549   */\n      dup4\n        /* \"#utility.yul\":8535:8553   */\n      mul\n        /* \"#utility.yul\":8574:8671   */\n      tag_185\n        /* \"#utility.yul\":8604:8670   */\n      0xffffffffffffffffffffffffffffffffffffffffffffffffffffffffffffffff\n        /* \"#utility.yul\":8593:8602   */\n      dup3\n        /* \"#utility.yul\":8574:8671   */\n      tag_84\n      jump\t// in\n    tag_185:\n        /* \"#utility.yul\":8692:8731   */\n      tag_186\n        /* \"#utility.yul\":8722:8730   */\n      dup7\n        /* \"#utility.yul\":8711:8720   */\n      dup4\n        /* \"#utility.yul\":8692:8731   */\n      tag_84\n      jump\t// in\n    tag_186:\n        /* \"#utility.yul\":8680:8731   */\n      swap6\n      pop\n        /* \"#utility.yul\":8764:8768   */\n      dup1\n        /* \"#utility.yul\":8760:8769   */\n      not\n        /* \"#utility.yul\":8753:8758   */\n      dup5\n        /* \"#utility.yul\":8749:8770   */\n      and\n        /* \"#utility.yul\":8740:8770   */\n      swap4\n      pop\n        /* \"#utility.yul\":8813:8817   */\n      dup1\n        /* \"#utility.yul\":8803:8811   */\n      dup7\n        /* \"#utility.yul\":8799:8818   */\n      and\n        /* \"#utility.yul\":8792:8797   */\n      dup5\n        /* \"#utility.yul\":8789:8819   */\n      or\n        /* \"#utility.yul\":8779:8819   */\n      swap3\n      pop\n        /* \"#utility.yul\":8508:8825   */\n      pop\n      pop\n        /* \"#utility.yul\":8432:8825   */\n      swap4\n      swap3\n      pop\n      pop\n      pop\n      jump\t// out\n        /* \"#utility.yul\":8831:8973   */\n    tag_86:\n        /* \"#utility.yul\":8881:8890   */\n      0x00\n        /* \"#utility.yul\":8914:8967   */\n      tag_188\n        /* \"#utility.yul\":8932:8966   */\n      tag_189\n        /* \"#utility.yul\":8941:8965   */\n      tag_190\n        /* \"#utility.yul\":8959:8964   */\n      dup5\n        /* \"#utility.yul\":8941:8965   */\n      tag_61\n      jump\t// in\n    tag_190:\n        /* \"#utility.yul\":8932:8966   */\n      tag_66\n      jump\t// in\n    tag_189:\n        /* \"#utility.yul\":8914:8967   */\n      tag_61\n      jump\t// in\n    tag_188:\n        /* \"#utility.yul\":8901:8967   */\n      swap1\n      pop\n        /* \"#utility.yul\":8831:8973   */\n      swap2\n      swap1\n      pop\n      jump\t// out\n        /* \"#utility.yul\":8979:9054   */\n    tag_87:\n        /* \"#utility.yul\":9022:9025   */\n      0x00\n        /* \"#utility.yul\":9043:9048   */\n      dup2\n        /* \"#utility.yul\":9036:9048   */\n      swap1\n      pop\n        /* \"#utility.yul\":8979:9054   */\n      swap2\n      swap1\n      pop\n      jump\t// out\n        /* \"#utility.yul\":9060:9329   */\n    tag_88:\n        /* \"#utility.yul\":9170:9209   */\n      tag_193\n        /* \"#utility.yul\":9201:9208   */\n      dup4\n        /* \"#utility.yul\":9170:9209   */\n      tag_86\n      jump\t// in\n    tag_193:\n        /* \"#utility.yul\":9231:9322   */\n      tag_194\n        /* \"#utility.yul\":9280:9321   */\n      tag_195\n        /* \"#utility.yul\":9304:9320   */\n      dup3\n        /* \"#utility.yul\":9280:9321   */\n      tag_87\n      jump\t// in\n    tag_195:\n        /* \"#utility.yul\":9272:9278   */\n      dup5\n        /* \"#utility.yul\":9265:9269   */\n      dup5\n        /* \"#utility.yul\":9259:9270   */\n      sload\n        /* \"#utility.yul\":9231:9322   */\n      tag_85\n      jump\t// in\n    tag_194:\n        /* \"#utility.yul\":9225:9229   */\n      dup3\n        /* \"#utility.yul\":9218:9323   */\n      sstore\n        /* \"#utility.yul\":9136:9329   */\n      pop\n        /* \"#utility.yul\":9060:9329   */\n      pop\n      pop\n      pop\n      jump\t// out\n        /* \"#utility.yul\":9335:9408   */\n    tag_89:\n        /* \"#utility.yul\":9380:9383   */\n      0x00\n        /* \"#utility.yul\":9335:9408   */\n      swap1\n      jump\t// out\n        /* \"#utility.yul\":9414:9603   */\n    tag_90:\n        /* \"#utility.yul\":9491:9523   */\n      tag_198\n      tag_89\n      jump\t// in\n    tag_198:\n        /* \"#utility.yul\":9532:9597   */\n      tag_199\n        /* \"#utility.yul\":9590:9596   */\n      dup2\n        /* \"#utility.yul\":9582:9588   */\n      dup5\n        /* \"#utility.yul\":9576:9580   */\n      dup5\n        /* \"#utility.yul\":9532:9597   */\n      tag_88\n      jump\t// in\n    tag_199:\n        /* \"#utility.yul\":9467:9603   */\n      pop\n        /* \"#utility.yul\":9414:9603   */\n      pop\n      pop\n      jump\t// out\n        /* \"#utility.yul\":9609:9795   */\n    tag_91:\n        /* \"#utility.yul\":9669:9789   */\n    tag_201:\n        /* \"#utility.yul\":9686:9689   */\n      dup2\n        /* \"#utility.yul\":9679:9684   */\n      dup2\n        /* \"#utility.yul\":9676:9690   */\n      lt\n        /* \"#utility.yul\":9669:9789   */\n      iszero\n      tag_203\n      jumpi\n        /* \"#utility.yul\":9740:9779   */\n      tag_204\n        /* \"#utility.yul\":9777:9778   */\n      0x00\n        /* \"#utility.yul\":9770:9775   */\n      dup3\n        /* \"#utility.yul\":9740:9779   */\n      tag_90\n      jump\t// in\n    tag_204:\n        /* \"#utility.yul\":9713:9714   */\n      0x01\n        /* \"#utility.yul\":9706:9711   */\n      dup2\n        /* \"#utility.yul\":9702:9715   */\n      add\n        /* \"#utility.yul\":9693:9715   */\n      swap1\n      pop\n        /* \"#utility.yul\":9669:9789   */\n      jump(tag_201)\n    tag_203:\n        /* \"#utility.yul\":9609:9795   */\n      pop\n      pop\n      jump\t// out\n        /* \"#utility.yul\":9801:10344   */\n    tag_92:\n        /* \"#utility.yul\":9902:9904   */\n      0x1f\n        /* \"#utility.yul\":9897:9900   */\n      dup3\n        /* \"#utility.yul\":9894:9905   */\n      gt\n        /* \"#utility.yul\":9891:10337   */\n      iszero\n      tag_206\n      jumpi\n        /* \"#utility.yul\":9936:9974   */\n      tag_207\n        /* \"#utility.yul\":9968:9973   */\n      dup2\n        /* \"#utility.yul\":9936:9974   */\n      tag_82\n      jump\t// in\n    tag_207:\n        /* \"#utility.yul\":10020:10049   */\n      tag_208\n        /* \"#utility.yul\":10038:10048   */\n      dup5\n        /* \"#utility.yul\":10020:10049   */\n      tag_83\n      jump\t// in\n    tag_208:\n        /* \"#utility.yul\":10010:10018   */\n      dup2\n        /* \"#utility.yul\":10006:10050   */\n      add\n        /* \"#utility.yul\":10203:10205   */\n      0x20\n        /* \"#utility.yul\":10191:10201   */\n      dup6\n        /* \"#utility.yul\":10188:10206   */\n      lt\n        /* \"#utility.yul\":10185:10234   */\n      iszero\n      tag_209\n      jumpi\n        /* \"#utility.yul\":10224:10232   */\n      dup2\n        /* \"#utility.yul\":10209:10232   */\n      swap1\n      pop\n        /* \"#utility.yul\":10185:10234   */\n    tag_209:\n        /* \"#utility.yul\":10247:10327   */\n      tag_210\n        /* \"#utility.yul\":10303:10325   */\n      tag_211\n        /* \"#utility.yul\":10321:10324   */\n      dup6\n        /* \"#utility.yul\":10303:10325   */\n      tag_83\n      jump\t// in\n    tag_211:\n        /* \"#utility.yul\":10293:10301   */\n      dup4\n        /* \"#utility.yul\":10289:10326   */\n      add\n        /* \"#utility.yul\":10276:10287   */\n      dup3\n        /* \"#utility.yul\":10247:10327   */\n      tag_91\n      jump\t// in\n    tag_210:\n        /* \"#utility.yul\":9906:10337   */\n      pop\n      pop\n        /* \"#utility.yul\":9891:10337   */\n    tag_206:\n        /* \"#utility.yul\":9801:10344   */\n      pop\n      pop\n      pop\n      jump\t// out\n        /* \"#utility.yul\":10350:10467   */\n    tag_93:\n        /* \"#utility.yul\":10404:10412   */\n      0x00\n        /* \"#utility.yul\":10454:10459   */\n      dup3\n        /* \"#utility.yul\":10448:10452   */\n      dup3\n        /* \"#utility.yul\":10444:10460   */\n      shr\n        /* \"#utility.yul\":10423:10460   */\n      swap1\n      pop\n        /* \"#utility.yul\":10350:10467   */\n      swap3\n      swap2\n      pop\n      pop\n      jump\t// out\n        /* \"#utility.yul\":10473:10642   */\n    tag_94:\n        /* \"#utility.yul\":10517:10523   */\n      0x00\n        /* \"#utility.yul\":10550:10601   */\n      tag_214\n        /* \"#utility.yul\":10598:10599   */\n      0x00\n        /* \"#utility.yul\":10594:10600   */\n      not\n        /* \"#utility.yul\":10586:10591   */\n      dup5\n        /* \"#utility.yul\":10583:10584   */\n      0x08\n        /* \"#utility.yul\":10579:10592   */\n      mul\n        /* \"#utility.yul\":10550:10601   */\n      tag_93\n      jump\t// in\n    tag_214:\n        /* \"#utility.yul\":10546:10602   */\n      not\n        /* \"#utility.yul\":10631:10635   */\n      dup1\n        /* \"#utility.yul\":10625:10629   */\n      dup4\n        /* \"#utility.yul\":10621:10636   */\n      and\n        /* \"#utility.yul\":10611:10636   */\n      swap2\n      pop\n        /* \"#utility.yul\":10524:10642   */\n      pop\n        /* \"#utility.yul\":10473:10642   */\n      swap3\n      swap2\n      pop\n      pop\n      jump\t// out\n        /* \"#utility.yul\":10647:10942   */\n    tag_95:\n        /* \"#utility.yul\":10723:10727   */\n      0x00\n        /* \"#utility.yul\":10869:10898   */\n      tag_216\n        /* \"#utility.yul\":10894:10897   */\n      dup4\n        /* \"#utility.yul\":10888:10892   */\n      dup4\n        /* \"#utility.yul\":10869:10898   */\n      tag_94\n      jump\t// in\n    tag_216:\n        /* \"#utility.yul\":10861:10898   */\n      swap2\n      pop\n        /* \"#utility.yul\":10931:10934   */\n      dup3\n        /* \"#utility.yul\":10928:10929   */\n      0x02\n        /* \"#utility.yul\":10924:10935   */\n      mul\n        /* \"#utility.yul\":10918:10922   */\n      dup3\n        /* \"#utility.yul\":10915:10936   */\n      or\n        /* \"#utility.yul\":10907:10936   */\n      swap1\n      pop\n        /* \"#utility.yul\":10647:10942   */\n      swap3\n      swap2\n      pop\n      pop\n      jump\t// out\n        /* \"#utility.yul\":10947:12342   */\n    tag_49:\n        /* \"#utility.yul\":11064:11101   */\n      tag_218\n        /* \"#utility.yul\":11097:11100   */\n      dup3\n        /* \"#utility.yul\":11064:11101   */\n      tag_53\n      jump\t// in\n    tag_218:\n        /* \"#utility.yul\":11166:11184   */\n      0xffffffffffffffff\n        /* \"#utility.yul\":11158:11164   */\n      dup2\n        /* \"#utility.yul\":11155:11185   */\n      gt\n        /* \"#utility.yul\":11152:11208   */\n      iszero\n      tag_219\n      jumpi\n        /* \"#utility.yul\":11188:11206   */\n      tag_220\n      tag_74\n      jump\t// in\n    tag_220:\n        /* \"#utility.yul\":11152:11208   */\n    tag_219:\n        /* \"#utility.yul\":11232:11270   */\n      tag_221\n        /* \"#utility.yul\":11264:11268   */\n      dup3\n        /* \"#utility.yul\":11258:11269   */\n      sload\n        /* \"#utility.yul\":11232:11270   */\n      tag_24\n      jump\t// in\n    tag_221:\n        /* \"#utility.yul\":11317:11384   */\n      tag_222\n        /* \"#utility.yul\":11377:11383   */\n      dup3\n        /* \"#utility.yul\":11369:11375   */\n      dup3\n        /* \"#utility.yul\":11363:11367   */\n      dup6\n        /* \"#utility.yul\":11317:11384   */\n      tag_92\n      jump\t// in\n    tag_222:\n        /* \"#utility.yul\":11411:11412   */\n      0x00\n        /* \"#utility.yul\":11435:11439   */\n      0x20\n        /* \"#utility.yul\":11422:11439   */\n      swap1\n      pop\n        /* \"#utility.yul\":11467:11469   */\n      0x1f\n        /* \"#utility.yul\":11459:11465   */\n      dup4\n        /* \"#utility.yul\":11456:11470   */\n      gt\n        /* \"#utility.yul\":11484:11485   */\n      0x01\n        /* \"#utility.yul\":11479:12097   */\n      dup2\n      eq\n      tag_224\n      jumpi\n        /* \"#utility.yul\":12141:12142   */\n      0x00\n        /* \"#utility.yul\":12158:12164   */\n      dup5\n        /* \"#utility.yul\":12155:12232   */\n      iszero\n      tag_225\n      jumpi\n        /* \"#utility.yul\":12207:12216   */\n      dup3\n        /* \"#utility.yul\":12202:12205   */\n      dup8\n        /* \"#utility.yul\":12198:12217   */\n      add\n        /* \"#utility.yul\":12192:12218   */\n      mload\n        /* \"#utility.yul\":12183:12218   */\n      swap1\n      pop\n        /* \"#utility.yul\":12155:12232   */\n    tag_225:\n        /* \"#utility.yul\":12258:12325   */\n      tag_226\n        /* \"#utility.yul\":12318:12324   */\n      dup6\n        /* \"#utility.yul\":12311:12316   */\n      dup3\n        /* \"#utility.yul\":12258:12325   */\n      tag_95\n      jump\t// in\n    tag_226:\n        /* \"#utility.yul\":12252:12256   */\n      dup7\n        /* \"#utility.yul\":12245:12326   */\n      sstore\n        /* \"#utility.yul\":12114:12336   */\n      pop\n        /* \"#utility.yul\":11449:12336   */\n      jump(tag_223)\n        /* \"#utility.yul\":11479:12097   */\n    tag_224:\n        /* \"#utility.yul\":11531:11535   */\n      0x1f\n        /* \"#utility.yul\":11527:11536   */\n      not\n        /* \"#utility.yul\":11519:11525   */\n      dup5\n        /* \"#utility.yul\":11515:11537   */\n      and\n        /* \"#utility.yul\":11565:11602   */\n      tag_227\n        /* \"#utility.yul\":11597:11601   */\n      dup7\n        /* \"#utility.yul\":11565:11602   */\n      tag_82\n      jump\t// in\n    tag_227:\n        /* \"#utility.yul\":11624:11625   */\n      0x00\n        /* \"#utility.yul\":11638:11846   */\n    tag_228:\n        /* \"#utility.yul\":11652:11659   */\n      dup3\n        /* \"#utility.yul\":11649:11650   */\n      dup2\n        /* \"#utility.yul\":11646:11660   */\n      lt\n        /* \"#utility.yul\":11638:11846   */\n      iszero\n      tag_230\n      jumpi\n        /* \"#utility.yul\":11731:11740   */\n      dup5\n        /* \"#utility.yul\":11726:11729   */\n      dup10\n        /* \"#utility.yul\":11722:11741   */\n      add\n        /* \"#utility.yul\":11716:11742   */\n      mload\n        /* \"#utility.yul\":11708:11714   */\n      dup3\n        /* \"#utility.yul\":11701:11743   */\n      sstore\n        /* \"#utility.yul\":11782:11783   */\n      0x01\n        /* \"#utility.yul\":11774:11780   */\n      dup3\n        /* \"#utility.yul\":11770:11784   */\n      add\n        /* \"#utility.yul\":11760:11784   */\n      swap2\n      pop\n        /* \"#utility.yul\":11829:11831   */\n      0x20\n        /* \"#utility.yul\":11818:11827   */\n      dup6\n        /* \"#utility.yul\":11814:11832   */\n      add\n        /* \"#utility.yul\":11801:11832   */\n      swap5\n      pop\n        /* \"#utility.yul\":11675:11679   */\n      0x20\n        /* \"#utility.yul\":11672:11673   */\n      dup2\n        /* \"#utility.yul\":11668:11680   */\n      add\n        /* \"#utility.yul\":11663:11680   */\n      swap1\n      pop\n        /* \"#utility.yul\":11638:11846   */\n      jump(tag_228)\n    tag_230:\n        /* \"#utility.yul\":11874:11880   */\n      dup7\n        /* \"#utility.yul\":11865:11872   */\n      dup4\n        /* \"#utility.yul\":11862:11881   */\n      lt\n        /* \"#utility.yul\":11859:12038   */\n      iszero\n      tag_231\n      jumpi\n        /* \"#utility.yul\":11932:11941   */\n      dup5\n        /* \"#utility.yul\":11927:11930   */\n      dup10\n        /* \"#utility.yul\":11923:11942   */\n      add\n        /* \"#utility.yul\":11917:11943   */\n      mload\n        /* \"#utility.yul\":11975:12023   */\n      tag_232\n        /* \"#utility.yul\":12017:12021   */\n      0x1f\n        /* \"#utility.yul\":12009:12015   */\n      dup10\n        /* \"#utility.yul\":12005:12022   */\n      and\n        /* \"#utility.yul\":11994:12003   */\n      dup3\n        /* \"#utility.yul\":11975:12023   */\n      tag_94\n      jump\t// in\n    tag_232:\n        /* \"#utility.yul\":11967:11973   */\n      dup4\n        /* \"#utility.yul\":11960:12024   */\n      sstore\n        /* \"#utility.yul\":11882:12038   */\n      pop\n        /* \"#utility.yul\":11859:12038   */\n    tag_231:\n        /* \"#utility.yul\":12084:12085   */\n      0x01\n        /* \"#utility.yul\":12080:12081   */\n      0x02\n        /* \"#utility.yul\":12072:12078   */\n      dup9\n        /* \"#utility.yul\":12068:12082   */\n      mul\n        /* \"#utility.yul\":12064:12086   */\n      add\n        /* \"#utility.yul\":12058:12062   */\n      dup9\n        /* \"#utility.yul\":12051:12087   */\n      sstore\n        /* \"#utility.yul\":11486:12097   */\n      pop\n      pop\n      pop\n        /* \"#utility.yul\":11449:12336   */\n    tag_223:\n      pop\n        /* \"#utility.yul\":11039:12342   */\n      pop\n      pop\n      pop\n        /* \"#utility.yul\":10947:12342   */\n      pop\n      pop\n      jump\t// out\n        /* \"#utility.yul\":12372:13203   */\n    tag_96:\n        /* \"#utility.yul\":12457:12460   */\n      0x00\n        /* \"#utility.yul\":12494:12499   */\n      dup2\n        /* \"#utility.yul\":12488:12500   */\n      sload\n        /* \"#utility.yul\":12523:12559   */\n      tag_234\n        /* \"#utility.yul\":12549:12558   */\n      dup2\n        /* \"#utility.yul\":12523:12559   */\n      tag_24\n      jump\t// in\n    tag_234:\n        /* \"#utility.yul\":12575:12646   */\n      tag_235\n        /* \"#utility.yul\":12639:12645   */\n      dup2\n        /* \"#utility.yul\":12634:12637   */\n      dup7\n        /* \"#utility.yul\":12575:12646   */\n      tag_54\n      jump\t// in\n    tag_235:\n        /* \"#utility.yul\":12568:12646   */\n      swap5\n      pop\n        /* \"#utility.yul\":12677:12678   */\n      0x01\n        /* \"#utility.yul\":12666:12675   */\n      dup3\n        /* \"#utility.yul\":12662:12679   */\n      and\n        /* \"#utility.yul\":12693:12694   */\n      0x00\n        /* \"#utility.yul\":12688:12852   */\n      dup2\n      eq\n      tag_237\n      jumpi\n        /* \"#utility.yul\":12866:12867   */\n      0x01\n        /* \"#utility.yul\":12861:13197   */\n      dup2\n      eq\n      tag_238\n      jumpi\n        /* \"#utility.yul\":12655:13197   */\n      jump(tag_236)\n        /* \"#utility.yul\":12688:12852   */\n    tag_237:\n        /* \"#utility.yul\":12772:12776   */\n      0xff\n        /* \"#utility.yul\":12768:12777   */\n      not\n        /* \"#utility.yul\":12757:12766   */\n      dup4\n        /* \"#utility.yul\":12753:12778   */\n      and\n        /* \"#utility.yul\":12748:12751   */\n      dup7\n        /* \"#utility.yul\":12741:12779   */\n      mstore\n        /* \"#utility.yul\":12832:12838   */\n      dup2\n        /* \"#utility.yul\":12825:12839   */\n      iszero\n        /* \"#utility.yul\":12818:12840   */\n      iszero\n        /* \"#utility.yul\":12812:12816   */\n      0x20\n        /* \"#utility.yul\":12808:12841   */\n      mul\n        /* \"#utility.yul\":12803:12806   */\n      dup7\n        /* \"#utility.yul\":12799:12842   */\n      add\n        /* \"#utility.yul\":12792:12842   */\n      swap4\n      pop\n        /* \"#utility.yul\":12688:12852   */\n      jump(tag_236)\n        /* \"#utility.yul\":12861:13197   */\n    tag_238:\n        /* \"#utility.yul\":12928:12966   */\n      tag_239\n        /* \"#utility.yul\":12960:12965   */\n      dup6\n        /* \"#utility.yul\":12928:12966   */\n      tag_82\n      jump\t// in\n    tag_239:\n        /* \"#utility.yul\":12988:12989   */\n      0x00\n        /* \"#utility.yul\":13002:13156   */\n    tag_240:\n        /* \"#utility.yul\":13016:13022   */\n      dup4\n        /* \"#utility.yul\":13013:13014   */\n      dup2\n        /* \"#utility.yul\":13010:13023   */\n      lt\n        /* \"#utility.yul\":13002:13156   */\n      iszero\n      tag_242\n      jumpi\n        /* \"#utility.yul\":13090:13097   */\n      dup2\n        /* \"#utility.yul\":13084:13098   */\n      sload\n        /* \"#utility.yul\":13080:13081   */\n      dup2\n        /* \"#utility.yul\":13075:13078   */\n      dup10\n        /* \"#utility.yul\":13071:13082   */\n      add\n        /* \"#utility.yul\":13064:13099   */\n      mstore\n        /* \"#utility.yul\":13140:13141   */\n      0x01\n        /* \"#utility.yul\":13131:13138   */\n      dup3\n        /* \"#utility.yul\":13127:13142   */\n      add\n        /* \"#utility.yul\":13116:13142   */\n      swap2\n      pop\n        /* \"#utility.yul\":13038:13042   */\n      0x20\n        /* \"#utility.yul\":13035:13036   */\n      dup2\n        /* \"#utility.yul\":13031:13043   */\n      add\n        /* \"#utility.yul\":13026:13043   */\n      swap1\n      pop\n        /* \"#utility.yul\":13002:13156   */\n      jump(tag_240)\n    tag_242:\n        /* \"#utility.yul\":13185:13186   */\n      dup1\n        /* \"#utility.yul\":13180:13183   */\n      dup9\n        /* \"#utility.yul\":13176:13187   */\n      add\n        /* \"#utility.yul\":13169:13187   */\n      swap6\n      pop\n        /* \"#utility.yul\":12868:13197   */\n      pop\n      pop\n        /* \"#utility.yul\":12655:13197   */\n    tag_236:\n      pop\n        /* \"#utility.yul\":12461:13203   */\n      pop\n      pop\n        /* \"#utility.yul\":12372:13203   */\n      swap3\n      swap2\n      pop\n      pop\n      jump\t// out\n        /* \"#utility.yul\":13209:13516   */\n    tag_51:\n        /* \"#utility.yul\":13319:13323   */\n      0x00\n        /* \"#utility.yul\":13357:13359   */\n      0x20\n        /* \"#utility.yul\":13346:13355   */\n      dup3\n        /* \"#utility.yul\":13342:13360   */\n      add\n        /* \"#utility.yul\":13334:13360   */\n      swap1\n      pop\n        /* \"#utility.yul\":13406:13415   */\n      dup2\n        /* \"#utility.yul\":13400:13404   */\n      dup2\n        /* \"#utility.yul\":13396:13416   */\n      sub\n        /* \"#utility.yul\":13392:13393   */\n      0x00\n        /* \"#utility.yul\":13381:13390   */\n      dup4\n        /* \"#utility.yul\":13377:13394   */\n      add\n        /* \"#utility.yul\":13370:13417   */\n      mstore\n        /* \"#utility.yul\":13434:13509   */\n      tag_244\n        /* \"#utility.yul\":13504:13508   */\n      dup2\n        /* \"#utility.yul\":13495:13501   */\n      dup5\n        /* \"#utility.yul\":13434:13509   */\n      tag_96\n      jump\t// in\n    tag_244:\n        /* \"#utility.yul\":13426:13509   */\n      swap1\n      pop\n        /* \"#utility.yul\":13209:13516   */\n      swap3\n      swap2\n      pop\n      pop\n      jump\t// out\n\n    auxdata: 0xa2646970667358221220bd027fbcb17afe17dff4896364e8f2244828707cfc531af13b7956fdf76ba35b64736f6c634300081a0033\n}\n\nsub_1: assembly {\n        /* \"study_way/src/4day_testTryCatch.sol\":60:315  contract Foo {... */\n      mstore(0x40, 0x80)\n      callvalue\n      dup1\n      iszero\n      tag_1\n      jumpi\n      0x00\n      dup1\n      revert\n    tag_1:\n      pop\n      dataSize(sub_0)\n      dup1\n      dataOffset(sub_0)\n      0x00\n      codecopy\n      0x00\n      return\n    stop\n\n    sub_0: assembly {\n            /* \"study_way/src/4day_testTryCatch.sol\":60:315  contract Foo {... */\n          mstore(0x40, 0x80)\n          callvalue\n          dup1\n          iszero\n          tag_1\n          jumpi\n          0x00\n          dup1\n          revert\n        tag_1:\n          pop\n          jumpi(tag_2, lt(calldatasize, 0x04))\n          shr(0xe0, calldataload(0x00))\n          dup1\n          0xa9bf5633\n          eq\n          tag_3\n          jumpi\n        tag_2:\n          0x00\n          dup1\n          revert\n            /* \"study_way/src/4day_testTryCatch.sol\":80:312  function myFunc(uint x) public pure returns (uint) {... */\n        tag_3:\n          tag_4\n          0x04\n          dup1\n          calldatasize\n          sub\n          dup2\n          add\n          swap1\n          tag_5\n          swap2\n          swap1\n          tag_6\n          jump\t// in\n        tag_5:\n          tag_7\n          jump\t// in\n        tag_4:\n          mload(0x40)\n          tag_8\n          swap2\n          swap1\n          tag_9\n          jump\t// in\n        tag_8:\n          mload(0x40)\n          dup1\n          swap2\n          sub\n          swap1\n          return\n        tag_7:\n            /* \"study_way/src/4day_testTryCatch.sol\":125:129  uint */\n          0x00\n            /* \"study_way/src/4day_testTryCatch.sol\":155:156  0 */\n          dup1\n            /* \"study_way/src/4day_testTryCatch.sol\":150:151  x */\n          dup3\n            /* \"study_way/src/4day_testTryCatch.sol\":150:156  x != 0 */\n          sub\n            /* \"study_way/src/4day_testTryCatch.sol\":142:185  require(x != 0,\"if equal 0,require failed\") */\n          tag_11\n          jumpi\n          mload(0x40)\n          0x08c379a000000000000000000000000000000000000000000000000000000000\n          dup2\n          mstore\n          0x04\n          add\n          tag_12\n          swap1\n          tag_13\n          jump\t// in\n        tag_12:\n          mload(0x40)\n          dup1\n          swap2\n          sub\n          swap1\n          revert\n        tag_11:\n            /* \"study_way/src/4day_testTryCatch.sol\":207:210  100 */\n          0x64\n            /* \"study_way/src/4day_testTryCatch.sol\":203:204  x */\n          dup3\n            /* \"study_way/src/4day_testTryCatch.sol\":203:210  x <=100 */\n          gt\n          iszero\n            /* \"study_way/src/4day_testTryCatch.sol\":196:211  assert(x <=100) */\n          tag_14\n          jumpi\n          tag_15\n          tag_16\n          jump\t// in\n        tag_15:\n        tag_14:\n            /* \"study_way/src/4day_testTryCatch.sol\":303:304  1 */\n          0x01\n            /* \"study_way/src/4day_testTryCatch.sol\":299:300  x */\n          dup3\n            /* \"study_way/src/4day_testTryCatch.sol\":299:304  x + 1 */\n          tag_17\n          swap2\n          swap1\n          tag_18\n          jump\t// in\n        tag_17:\n            /* \"study_way/src/4day_testTryCatch.sol\":292:304  return x + 1 */\n          swap1\n          pop\n            /* \"study_way/src/4day_testTryCatch.sol\":80:312  function myFunc(uint x) public pure returns (uint) {... */\n          swap2\n          swap1\n          pop\n          jump\t// out\n            /* \"#utility.yul\":88:205   */\n        tag_20:\n            /* \"#utility.yul\":197:198   */\n          0x00\n            /* \"#utility.yul\":194:195   */\n          dup1\n            /* \"#utility.yul\":187:199   */\n          revert\n            /* \"#utility.yul\":334:411   */\n        tag_22:\n            /* \"#utility.yul\":371:378   */\n          0x00\n            /* \"#utility.yul\":400:405   */\n          dup2\n            /* \"#utility.yul\":389:405   */\n          swap1\n          pop\n            /* \"#utility.yul\":334:411   */\n          swap2\n          swap1\n          pop\n          jump\t// out\n            /* \"#utility.yul\":417:539   */\n        tag_23:\n            /* \"#utility.yul\":490:514   */\n          tag_36\n            /* \"#utility.yul\":508:513   */\n          dup2\n            /* \"#utility.yul\":490:514   */\n          tag_22\n          jump\t// in\n        tag_36:\n            /* \"#utility.yul\":483:488   */\n          dup2\n            /* \"#utility.yul\":480:515   */\n          eq\n            /* \"#utility.yul\":470:533   */\n          tag_37\n          jumpi\n            /* \"#utility.yul\":529:530   */\n          0x00\n            /* \"#utility.yul\":526:527   */\n          dup1\n            /* \"#utility.yul\":519:531   */\n          revert\n            /* \"#utility.yul\":470:533   */\n        tag_37:\n            /* \"#utility.yul\":417:539   */\n          pop\n          jump\t// out\n            /* \"#utility.yul\":545:684   */\n        tag_24:\n            /* \"#utility.yul\":591:596   */\n          0x00\n            /* \"#utility.yul\":629:635   */\n          dup2\n            /* \"#utility.yul\":616:636   */\n          calldataload\n            /* \"#utility.yul\":607:636   */\n          swap1\n          pop\n            /* \"#utility.yul\":645:678   */\n          tag_39\n            /* \"#utility.yul\":672:677   */\n          dup2\n            /* \"#utility.yul\":645:678   */\n          tag_23\n          jump\t// in\n        tag_39:\n            /* \"#utility.yul\":545:684   */\n          swap3\n          swap2\n          pop\n          pop\n          jump\t// out\n            /* \"#utility.yul\":690:1019   */\n        tag_6:\n            /* \"#utility.yul\":749:755   */\n          0x00\n            /* \"#utility.yul\":798:800   */\n          0x20\n            /* \"#utility.yul\":786:795   */\n          dup3\n            /* \"#utility.yul\":777:784   */\n          dup5\n            /* \"#utility.yul\":773:796   */\n          sub\n            /* \"#utility.yul\":769:801   */\n          slt\n            /* \"#utility.yul\":766:885   */\n          iszero\n          tag_41\n          jumpi\n            /* \"#utility.yul\":804:883   */\n          tag_42\n          tag_20\n          jump\t// in\n        tag_42:\n            /* \"#utility.yul\":766:885   */\n        tag_41:\n            /* \"#utility.yul\":924:925   */\n          0x00\n            /* \"#utility.yul\":949:1002   */\n          tag_43\n            /* \"#utility.yul\":994:1001   */\n          dup5\n            /* \"#utility.yul\":985:991   */\n          dup3\n            /* \"#utility.yul\":974:983   */\n          dup6\n            /* \"#utility.yul\":970:992   */\n          add\n            /* \"#utility.yul\":949:1002   */\n          tag_24\n          jump\t// in\n        tag_43:\n            /* \"#utility.yul\":939:1002   */\n          swap2\n          pop\n            /* \"#utility.yul\":895:1012   */\n          pop\n            /* \"#utility.yul\":690:1019   */\n          swap3\n          swap2\n          pop\n          pop\n          jump\t// out\n            /* \"#utility.yul\":1025:1143   */\n        tag_25:\n            /* \"#utility.yul\":1112:1136   */\n          tag_45\n            /* \"#utility.yul\":1130:1135   */\n          dup2\n            /* \"#utility.yul\":1112:1136   */\n          tag_22\n          jump\t// in\n        tag_45:\n            /* \"#utility.yul\":1107:1110   */\n          dup3\n            /* \"#utility.yul\":1100:1137   */\n          mstore\n            /* \"#utility.yul\":1025:1143   */\n          pop\n          pop\n          jump\t// out\n            /* \"#utility.yul\":1149:1371   */\n        tag_9:\n            /* \"#utility.yul\":1242:1246   */\n          0x00\n            /* \"#utility.yul\":1280:1282   */\n          0x20\n            /* \"#utility.yul\":1269:1278   */\n          dup3\n            /* \"#utility.yul\":1265:1283   */\n          add\n            /* \"#utility.yul\":1257:1283   */\n          swap1\n          pop\n            /* \"#utility.yul\":1293:1364   */\n          tag_47\n            /* \"#utility.yul\":1361:1362   */\n          0x00\n            /* \"#utility.yul\":1350:1359   */\n          dup4\n            /* \"#utility.yul\":1346:1363   */\n          add\n            /* \"#utility.yul\":1337:1343   */\n          dup5\n            /* \"#utility.yul\":1293:1364   */\n          tag_25\n          jump\t// in\n        tag_47:\n            /* \"#utility.yul\":1149:1371   */\n          swap3\n          swap2\n          pop\n          pop\n          jump\t// out\n            /* \"#utility.yul\":1377:1546   */\n        tag_26:\n            /* \"#utility.yul\":1461:1472   */\n          0x00\n            /* \"#utility.yul\":1495:1501   */\n          dup3\n            /* \"#utility.yul\":1490:1493   */\n          dup3\n            /* \"#utility.yul\":1483:1502   */\n          mstore\n            /* \"#utility.yul\":1535:1539   */\n          0x20\n            /* \"#utility.yul\":1530:1533   */\n          dup3\n            /* \"#utility.yul\":1526:1540   */\n          add\n            /* \"#utility.yul\":1511:1540   */\n          swap1\n          pop\n            /* \"#utility.yul\":1377:1546   */\n          swap3\n          swap2\n          pop\n          pop\n          jump\t// out\n            /* \"#utility.yul\":1552:1727   */\n        tag_27:\n            /* \"#utility.yul\":1692:1719   */\n          0x696620657175616c20302c72657175697265206661696c656400000000000000\n            /* \"#utility.yul\":1688:1689   */\n          0x00\n            /* \"#utility.yul\":1680:1686   */\n          dup3\n            /* \"#utility.yul\":1676:1690   */\n          add\n            /* \"#utility.yul\":1669:1720   */\n          mstore\n            /* \"#utility.yul\":1552:1727   */\n          pop\n          jump\t// out\n            /* \"#utility.yul\":1733:2099   */\n        tag_28:\n            /* \"#utility.yul\":1875:1878   */\n          0x00\n            /* \"#utility.yul\":1896:1963   */\n          tag_51\n            /* \"#utility.yul\":1960:1962   */\n          0x19\n            /* \"#utility.yul\":1955:1958   */\n          dup4\n            /* \"#utility.yul\":1896:1963   */\n          tag_26\n          jump\t// in\n        tag_51:\n            /* \"#utility.yul\":1889:1963   */\n          swap2\n          pop\n            /* \"#utility.yul\":1972:2065   */\n          tag_52\n            /* \"#utility.yul\":2061:2064   */\n          dup3\n            /* \"#utility.yul\":1972:2065   */\n          tag_27\n          jump\t// in\n        tag_52:\n            /* \"#utility.yul\":2090:2092   */\n          0x20\n            /* \"#utility.yul\":2085:2088   */\n          dup3\n            /* \"#utility.yul\":2081:2093   */\n          add\n            /* \"#utility.yul\":2074:2093   */\n          swap1\n          pop\n            /* \"#utility.yul\":1733:2099   */\n          swap2\n          swap1\n          pop\n          jump\t// out\n            /* \"#utility.yul\":2105:2524   */\n        tag_13:\n            /* \"#utility.yul\":2271:2275   */\n          0x00\n            /* \"#utility.yul\":2309:2311   */\n          0x20\n            /* \"#utility.yul\":2298:2307   */\n          dup3\n            /* \"#utility.yul\":2294:2312   */\n          add\n            /* \"#utility.yul\":2286:2312   */\n          swap1\n          pop\n            /* \"#utility.yul\":2358:2367   */\n          dup2\n            /* \"#utility.yul\":2352:2356   */\n          dup2\n            /* \"#utility.yul\":2348:2368   */\n          sub\n            /* \"#utility.yul\":2344:2345   */\n          0x00\n            /* \"#utility.yul\":2333:2342   */\n          dup4\n            /* \"#utility.yul\":2329:2346   */\n          add\n            /* \"#utility.yul\":2322:2369   */\n          mstore\n            /* \"#utility.yul\":2386:2517   */\n          tag_54\n            /* \"#utility.yul\":2512:2516   */\n          dup2\n            /* \"#utility.yul\":2386:2517   */\n          tag_28\n          jump\t// in\n        tag_54:\n            /* \"#utility.yul\":2378:2517   */\n          swap1\n          pop\n            /* \"#utility.yul\":2105:2524   */\n          swap2\n          swap1\n          pop\n          jump\t// out\n            /* \"#utility.yul\":2530:2710   */\n        tag_16:\n            /* \"#utility.yul\":2578:2655   */\n          0x4e487b7100000000000000000000000000000000000000000000000000000000\n            /* \"#utility.yul\":2575:2576   */\n          0x00\n            /* \"#utility.yul\":2568:2656   */\n          mstore\n            /* \"#utility.yul\":2675:2679   */\n          0x01\n            /* \"#utility.yul\":2672:2673   */\n          0x04\n            /* \"#utility.yul\":2665:2680   */\n          mstore\n            /* \"#utility.yul\":2699:2703   */\n          0x24\n            /* \"#utility.yul\":2696:2697   */\n          0x00\n            /* \"#utility.yul\":2689:2704   */\n          revert\n            /* \"#utility.yul\":2716:2896   */\n        tag_29:\n            /* \"#utility.yul\":2764:2841   */\n          0x4e487b7100000000000000000000000000000000000000000000000000000000\n            /* \"#utility.yul\":2761:2762   */\n          0x00\n            /* \"#utility.yul\":2754:2842   */\n          mstore\n            /* \"#utility.yul\":2861:2865   */\n          0x11\n            /* \"#utility.yul\":2858:2859   */\n          0x04\n            /* \"#utility.yul\":2851:2866   */\n          mstore\n            /* \"#utility.yul\":2885:2889   */\n          0x24\n            /* \"#utility.yul\":2882:2883   */\n          0x00\n            /* \"#utility.yul\":2875:2890   */\n          revert\n            /* \"#utility.yul\":2902:3093   */\n        tag_18:\n            /* \"#utility.yul\":2942:2945   */\n          0x00\n            /* \"#utility.yul\":2961:2981   */\n          tag_58\n            /* \"#utility.yul\":2979:2980   */\n          dup3\n            /* \"#utility.yul\":2961:2981   */\n          tag_22\n          jump\t// in\n        tag_58:\n            /* \"#utility.yul\":2956:2981   */\n          swap2\n          pop\n            /* \"#utility.yul\":2995:3015   */\n          tag_59\n            /* \"#utility.yul\":3013:3014   */\n          dup4\n            /* \"#utility.yul\":2995:3015   */\n          tag_22\n          jump\t// in\n        tag_59:\n            /* \"#utility.yul\":2990:3015   */\n          swap3\n          pop\n            /* \"#utility.yul\":3038:3039   */\n          dup3\n            /* \"#utility.yul\":3035:3036   */\n          dup3\n            /* \"#utility.yul\":3031:3040   */\n          add\n            /* \"#utility.yul\":3024:3040   */\n          swap1\n          pop\n            /* \"#utility.yul\":3059:3062   */\n          dup1\n            /* \"#utility.yul\":3056:3057   */\n          dup3\n            /* \"#utility.yul\":3053:3063   */\n          gt\n            /* \"#utility.yul\":3050:3086   */\n          iszero\n          tag_60\n          jumpi\n            /* \"#utility.yul\":3066:3084   */\n          tag_61\n          tag_29\n          jump\t// in\n        tag_61:\n            /* \"#utility.yul\":3050:3086   */\n        tag_60:\n            /* \"#utility.yul\":2902:3093   */\n          swap3\n          swap2\n          pop\n          pop\n          jump\t// out\n\n        auxdata: 0xa2646970667358221220891b94df4b879f2d064969b301bc4ce6972cc3aa651a0c245434a71eb00273e164736f6c634300081a0033\n    }\n}\n",
				"bytecode": {
					"linkReferences": {},
					"object": "6080604052348015600e575f80fd5b506040516019906074565b604051809103905ff0801580156031573d5f803e3d5ffd5b505f806101000a81548173ffffffffffffffffffffffffffffffffffffffff021916908373ffffffffffffffffffffffffffffffffffffffff1602179055506081565b6102a780610b0883390190565b610a7a8061008e5f395ff3fe608060405234801561000f575f80fd5b506004361061004a575f3560e01c8063133386281461004e57806351c3002c1461006c578063a56dfe4a14610088578063c2985578146100a6575b5f80fd5b6100566100c4565b604051610063919061038d565b60405180910390f35b610086600480360381019061008191906103ed565b610150565b005b6100906102f4565b60405161009d9190610427565b60405180910390f35b6100ae6102fa565b6040516100bb91906104ba565b60405180910390f35b600280546100d190610500565b80601f01602080910402602001604051908101604052809291908181526020018280546100fd90610500565b80156101485780601f1061011f57610100808354040283529160200191610148565b820191905f5260205f20905b81548152906001019060200180831161012b57829003601f168201915b505050505081565b5f8054906101000a900473ffffffffffffffffffffffffffffffffffffffff1673ffffffffffffffffffffffffffffffffffffffff1663a9bf5633826040518263ffffffff1660e01b81526004016101a89190610427565b602060405180830381865afa9250505080156101e257506040513d601f19601f820116820180604052508101906101df9190610544565b60015b6102e9576101ee61057b565b806308c379a00361024a57506102026105f8565b8061020d575061024c565b806040517f08c379a0000000000000000000000000000000000000000000000000000000008152600401610241919061038d565b60405180910390fd5b505b3d805f8114610276576040519150601f19603f3d011682016040523d82523d5f602084013e61027b565b606091505b508060405160200161028d919061071f565b604051602081830303815290604052600290816102aa91906108d4565b5060026040517f08c379a00000000000000000000000000000000000000000000000000000000081526004016102e09190610a24565b60405180910390fd5b806001819055505050565b60015481565b5f8054906101000a900473ffffffffffffffffffffffffffffffffffffffff1681565b5f81519050919050565b5f82825260208201905092915050565b8281835e5f83830152505050565b5f601f19601f8301169050919050565b5f61035f8261031d565b6103698185610327565b9350610379818560208601610337565b61038281610345565b840191505092915050565b5f6020820190508181035f8301526103a58184610355565b905092915050565b5f604051905090565b5f80fd5b5f819050919050565b6103cc816103ba565b81146103d6575f80fd5b50565b5f813590506103e7816103c3565b92915050565b5f60208284031215610402576104016103b6565b5b5f61040f848285016103d9565b91505092915050565b610421816103ba565b82525050565b5f60208201905061043a5f830184610418565b92915050565b5f73ffffffffffffffffffffffffffffffffffffffff82169050919050565b5f819050919050565b5f61048261047d61047884610440565b61045f565b610440565b9050919050565b5f61049382610468565b9050919050565b5f6104a482610489565b9050919050565b6104b48161049a565b82525050565b5f6020820190506104cd5f8301846104ab565b92915050565b7f4e487b71000000000000000000000000000000000000000000000000000000005f52602260045260245ffd5b5f600282049050600182168061051757607f821691505b60208210810361052a576105296104d3565b5b50919050565b5f8151905061053e816103c3565b92915050565b5f60208284031215610559576105586103b6565b5b5f61056684828501610530565b91505092915050565b5f8160e01c9050919050565b5f60033d11156105975760045f803e6105945f5161056f565b90505b90565b7f4e487b71000000000000000000000000000000000000000000000000000000005f52604160045260245ffd5b6105d082610345565b810181811067ffffffffffffffff821117156105ef576105ee61059a565b5b80604052505050565b5f60443d10610684576106096103ad565b60043d036004823e80513d602482011167ffffffffffffffff82111715610631575050610684565b808201805167ffffffffffffffff81111561064f5750505050610684565b80602083010160043d03850181111561066c575050505050610684565b61067b826020018501866105c7565b82955050505050505b90565b5f81905092915050565b7f4c6f772d6c6576656c206572726f723a200000000000000000000000000000005f82015250565b5f6106c5601183610687565b91506106d082610691565b601182019050919050565b5f81519050919050565b5f81905092915050565b5f6106f9826106db565b61070381856106e5565b9350610713818560208601610337565b80840191505092915050565b5f610729826106b9565b915061073582846106ef565b915081905092915050565b5f819050815f5260205f209050919050565b5f6020601f8301049050919050565b5f82821b905092915050565b5f6008830261079c7fffffffffffffffffffffffffffffffffffffffffffffffffffffffffffffffff82610761565b6107a68683610761565b95508019841693508086168417925050509392505050565b5f6107d86107d36107ce846103ba565b61045f565b6103ba565b9050919050565b5f819050919050565b6107f1836107be565b6108056107fd826107df565b84845461076d565b825550505050565b5f90565b61081961080d565b6108248184846107e8565b505050565b5b818110156108475761083c5f82610811565b60018101905061082a565b5050565b601f82111561088c5761085d81610740565b61086684610752565b81016020851015610875578190505b61088961088185610752565b830182610829565b50505b505050565b5f82821c905092915050565b5f6108ac5f1984600802610891565b1980831691505092915050565b5f6108c4838361089d565b9150826002028217905092915050565b6108dd8261031d565b67ffffffffffffffff8111156108f6576108f561059a565b5b6109008254610500565b61090b82828561084b565b5f60209050601f83116001811461093c575f841561092a578287015190505b61093485826108b9565b86555061099b565b601f19841661094a86610740565b5f5b828110156109715784890151825560018201915060208501945060208101905061094c565b8683101561098e578489015161098a601f89168261089d565b8355505b6001600288020188555050505b505050505050565b5f81546109af81610500565b6109b98186610327565b9450600182165f81146109d357600181146109e957610a1b565b60ff198316865281151560200286019350610a1b565b6109f285610740565b5f5b83811015610a13578154818901526001820191506020810190506109f4565b808801955050505b50505092915050565b5f6020820190508181035f830152610a3c81846109a3565b90509291505056fea2646970667358221220bd027fbcb17afe17dff4896364e8f2244828707cfc531af13b7956fdf76ba35b64736f6c634300081a00336080604052348015600e575f80fd5b5061028b8061001c5f395ff3fe608060405234801561000f575f80fd5b5060043610610029575f3560e01c8063a9bf56331461002d575b5f80fd5b610047600480360381019061004291906100fd565b61005d565b6040516100549190610137565b60405180910390f35b5f8082036100a0576040517f08c379a0000000000000000000000000000000000000000000000000000000008152600401610097906101aa565b60405180910390fd5b60648211156100b2576100b16101c8565b5b6001826100bf9190610222565b9050919050565b5f80fd5b5f819050919050565b6100dc816100ca565b81146100e6575f80fd5b50565b5f813590506100f7816100d3565b92915050565b5f60208284031215610112576101116100c6565b5b5f61011f848285016100e9565b91505092915050565b610131816100ca565b82525050565b5f60208201905061014a5f830184610128565b92915050565b5f82825260208201905092915050565b7f696620657175616c20302c72657175697265206661696c6564000000000000005f82015250565b5f610194601983610150565b915061019f82610160565b602082019050919050565b5f6020820190508181035f8301526101c181610188565b9050919050565b7f4e487b71000000000000000000000000000000000000000000000000000000005f52600160045260245ffd5b7f4e487b71000000000000000000000000000000000000000000000000000000005f52601160045260245ffd5b5f61022c826100ca565b9150610237836100ca565b925082820190508082111561024f5761024e6101f5565b5b9291505056fea2646970667358221220891b94df4b879f2d064969b301bc4ce6972cc3aa651a0c245434a71eb00273e164736f6c634300081a0033",
					"opcodes": "PUSH1 0x80 PUSH1 0x40 MSTORE CALLVALUE DUP1 ISZERO PUSH1 0xE JUMPI PUSH0 DUP1 REVERT JUMPDEST POP PUSH1 0x40 MLOAD PUSH1 0x19 SWAP1 PUSH1 0x74 JUMP JUMPDEST PUSH1 0x40 MLOAD DUP1 SWAP2 SUB SWAP1 PUSH0 CREATE DUP1 ISZERO DUP1 ISZERO PUSH1 0x31 JUMPI RETURNDATASIZE PUSH0 DUP1 RETURNDATACOPY RETURNDATASIZE PUSH0 REVERT JUMPDEST POP PUSH0 DUP1 PUSH2 0x100 EXP DUP2 SLOAD DUP2 PUSH20 0xFFFFFFFFFFFFFFFFFFFFFFFFFFFFFFFFFFFFFFFF MUL NOT AND SWAP1 DUP4 PUSH20 0xFFFFFFFFFFFFFFFFFFFFFFFFFFFFFFFFFFFFFFFF AND MUL OR SWAP1 SSTORE POP PUSH1 0x81 JUMP JUMPDEST PUSH2 0x2A7 DUP1 PUSH2 0xB08 DUP4 CODECOPY ADD SWAP1 JUMP JUMPDEST PUSH2 0xA7A DUP1 PUSH2 0x8E PUSH0 CODECOPY PUSH0 RETURN INVALID PUSH1 0x80 PUSH1 0x40 MSTORE CALLVALUE DUP1 ISZERO PUSH2 0xF JUMPI PUSH0 DUP1 REVERT JUMPDEST POP PUSH1 0x4 CALLDATASIZE LT PUSH2 0x4A JUMPI PUSH0 CALLDATALOAD PUSH1 0xE0 SHR DUP1 PUSH4 0x13338628 EQ PUSH2 0x4E JUMPI DUP1 PUSH4 0x51C3002C EQ PUSH2 0x6C JUMPI DUP1 PUSH4 0xA56DFE4A EQ PUSH2 0x88 JUMPI DUP1 PUSH4 0xC2985578 EQ PUSH2 0xA6 JUMPI JUMPDEST PUSH0 DUP1 REVERT JUMPDEST PUSH2 0x56 PUSH2 0xC4 JUMP JUMPDEST PUSH1 0x40 MLOAD PUSH2 0x63 SWAP2 SWAP1 PUSH2 0x38D JUMP JUMPDEST PUSH1 0x40 MLOAD DUP1 SWAP2 SUB SWAP1 RETURN JUMPDEST PUSH2 0x86 PUSH1 0x4 DUP1 CALLDATASIZE SUB DUP2 ADD SWAP1 PUSH2 0x81 SWAP2 SWAP1 PUSH2 0x3ED JUMP JUMPDEST PUSH2 0x150 JUMP JUMPDEST STOP JUMPDEST PUSH2 0x90 PUSH2 0x2F4 JUMP JUMPDEST PUSH1 0x40 MLOAD PUSH2 0x9D SWAP2 SWAP1 PUSH2 0x427 JUMP JUMPDEST PUSH1 0x40 MLOAD DUP1 SWAP2 SUB SWAP1 RETURN JUMPDEST PUSH2 0xAE PUSH2 0x2FA JUMP JUMPDEST PUSH1 0x40 MLOAD PUSH2 0xBB SWAP2 SWAP1 PUSH2 0x4BA JUMP JUMPDEST PUSH1 0x40 MLOAD DUP1 SWAP2 SUB SWAP1 RETURN JUMPDEST PUSH1 0x2 DUP1 SLOAD PUSH2 0xD1 SWAP1 PUSH2 0x500 JUMP JUMPDEST DUP1 PUSH1 0x1F ADD PUSH1 0x20 DUP1 SWAP2 DIV MUL PUSH1 0x20 ADD PUSH1 0x40 MLOAD SWAP1 DUP2 ADD PUSH1 0x40 MSTORE DUP1 SWAP3 SWAP2 SWAP1 DUP2 DUP2 MSTORE PUSH1 0x20 ADD DUP3 DUP1 SLOAD PUSH2 0xFD SWAP1 PUSH2 0x500 JUMP JUMPDEST DUP1 ISZERO PUSH2 0x148 JUMPI DUP1 PUSH1 0x1F LT PUSH2 0x11F JUMPI PUSH2 0x100 DUP1 DUP4 SLOAD DIV MUL DUP4 MSTORE SWAP2 PUSH1 0x20 ADD SWAP2 PUSH2 0x148 JUMP JUMPDEST DUP3 ADD SWAP2 SWAP1 PUSH0 MSTORE PUSH1 0x20 PUSH0 KECCAK256 SWAP1 JUMPDEST DUP2 SLOAD DUP2 MSTORE SWAP1 PUSH1 0x1 ADD SWAP1 PUSH1 0x20 ADD DUP1 DUP4 GT PUSH2 0x12B JUMPI DUP3 SWAP1 SUB PUSH1 0x1F AND DUP3 ADD SWAP2 JUMPDEST POP POP POP POP POP DUP2 JUMP JUMPDEST PUSH0 DUP1 SLOAD SWAP1 PUSH2 0x100 EXP SWAP1 DIV PUSH20 0xFFFFFFFFFFFFFFFFFFFFFFFFFFFFFFFFFFFFFFFF AND PUSH20 0xFFFFFFFFFFFFFFFFFFFFFFFFFFFFFFFFFFFFFFFF AND PUSH4 0xA9BF5633 DUP3 PUSH1 0x40 MLOAD DUP3 PUSH4 0xFFFFFFFF AND PUSH1 0xE0 SHL DUP2 MSTORE PUSH1 0x4 ADD PUSH2 0x1A8 SWAP2 SWAP1 PUSH2 0x427 JUMP JUMPDEST PUSH1 0x20 PUSH1 0x40 MLOAD DUP1 DUP4 SUB DUP2 DUP7 GAS STATICCALL SWAP3 POP POP POP DUP1 ISZERO PUSH2 0x1E2 JUMPI POP PUSH1 0x40 MLOAD RETURNDATASIZE PUSH1 0x1F NOT PUSH1 0x1F DUP3 ADD AND DUP3 ADD DUP1 PUSH1 0x40 MSTORE POP DUP2 ADD SWAP1 PUSH2 0x1DF SWAP2 SWAP1 PUSH2 0x544 JUMP JUMPDEST PUSH1 0x1 JUMPDEST PUSH2 0x2E9 JUMPI PUSH2 0x1EE PUSH2 0x57B JUMP JUMPDEST DUP1 PUSH4 0x8C379A0 SUB PUSH2 0x24A JUMPI POP PUSH2 0x202 PUSH2 0x5F8 JUMP JUMPDEST DUP1 PUSH2 0x20D JUMPI POP PUSH2 0x24C JUMP JUMPDEST DUP1 PUSH1 0x40 MLOAD PUSH32 0x8C379A000000000000000000000000000000000000000000000000000000000 DUP2 MSTORE PUSH1 0x4 ADD PUSH2 0x241 SWAP2 SWAP1 PUSH2 0x38D JUMP JUMPDEST PUSH1 0x40 MLOAD DUP1 SWAP2 SUB SWAP1 REVERT JUMPDEST POP JUMPDEST RETURNDATASIZE DUP1 PUSH0 DUP2 EQ PUSH2 0x276 JUMPI PUSH1 0x40 MLOAD SWAP2 POP PUSH1 0x1F NOT PUSH1 0x3F RETURNDATASIZE ADD AND DUP3 ADD PUSH1 0x40 MSTORE RETURNDATASIZE DUP3 MSTORE RETURNDATASIZE PUSH0 PUSH1 0x20 DUP5 ADD RETURNDATACOPY PUSH2 0x27B JUMP JUMPDEST PUSH1 0x60 SWAP2 POP JUMPDEST POP DUP1 PUSH1 0x40 MLOAD PUSH1 0x20 ADD PUSH2 0x28D SWAP2 SWAP1 PUSH2 0x71F JUMP JUMPDEST PUSH1 0x40 MLOAD PUSH1 0x20 DUP2 DUP4 SUB SUB DUP2 MSTORE SWAP1 PUSH1 0x40 MSTORE PUSH1 0x2 SWAP1 DUP2 PUSH2 0x2AA SWAP2 SWAP1 PUSH2 0x8D4 JUMP JUMPDEST POP PUSH1 0x2 PUSH1 0x40 MLOAD PUSH32 0x8C379A000000000000000000000000000000000000000000000000000000000 DUP2 MSTORE PUSH1 0x4 ADD PUSH2 0x2E0 SWAP2 SWAP1 PUSH2 0xA24 JUMP JUMPDEST PUSH1 0x40 MLOAD DUP1 SWAP2 SUB SWAP1 REVERT JUMPDEST DUP1 PUSH1 0x1 DUP2 SWAP1 SSTORE POP POP POP JUMP JUMPDEST PUSH1 0x1 SLOAD DUP2 JUMP JUMPDEST PUSH0 DUP1 SLOAD SWAP1 PUSH2 0x100 EXP SWAP1 DIV PUSH20 0xFFFFFFFFFFFFFFFFFFFFFFFFFFFFFFFFFFFFFFFF AND DUP2 JUMP JUMPDEST PUSH0 DUP2 MLOAD SWAP1 POP SWAP2 SWAP1 POP JUMP JUMPDEST PUSH0 DUP3 DUP3 MSTORE PUSH1 0x20 DUP3 ADD SWAP1 POP SWAP3 SWAP2 POP POP JUMP JUMPDEST DUP3 DUP2 DUP4 MCOPY PUSH0 DUP4 DUP4 ADD MSTORE POP POP POP JUMP JUMPDEST PUSH0 PUSH1 0x1F NOT PUSH1 0x1F DUP4 ADD AND SWAP1 POP SWAP2 SWAP1 POP JUMP JUMPDEST PUSH0 PUSH2 0x35F DUP3 PUSH2 0x31D JUMP JUMPDEST PUSH2 0x369 DUP2 DUP6 PUSH2 0x327 JUMP JUMPDEST SWAP4 POP PUSH2 0x379 DUP2 DUP6 PUSH1 0x20 DUP7 ADD PUSH2 0x337 JUMP JUMPDEST PUSH2 0x382 DUP2 PUSH2 0x345 JUMP JUMPDEST DUP5 ADD SWAP2 POP POP SWAP3 SWAP2 POP POP JUMP JUMPDEST PUSH0 PUSH1 0x20 DUP3 ADD SWAP1 POP DUP2 DUP2 SUB PUSH0 DUP4 ADD MSTORE PUSH2 0x3A5 DUP2 DUP5 PUSH2 0x355 JUMP JUMPDEST SWAP1 POP SWAP3 SWAP2 POP POP JUMP JUMPDEST PUSH0 PUSH1 0x40 MLOAD SWAP1 POP SWAP1 JUMP JUMPDEST PUSH0 DUP1 REVERT JUMPDEST PUSH0 DUP2 SWAP1 POP SWAP2 SWAP1 POP JUMP JUMPDEST PUSH2 0x3CC DUP2 PUSH2 0x3BA JUMP JUMPDEST DUP2 EQ PUSH2 0x3D6 JUMPI PUSH0 DUP1 REVERT JUMPDEST POP JUMP JUMPDEST PUSH0 DUP2 CALLDATALOAD SWAP1 POP PUSH2 0x3E7 DUP2 PUSH2 0x3C3 JUMP JUMPDEST SWAP3 SWAP2 POP POP JUMP JUMPDEST PUSH0 PUSH1 0x20 DUP3 DUP5 SUB SLT ISZERO PUSH2 0x402 JUMPI PUSH2 0x401 PUSH2 0x3B6 JUMP JUMPDEST JUMPDEST PUSH0 PUSH2 0x40F DUP5 DUP3 DUP6 ADD PUSH2 0x3D9 JUMP JUMPDEST SWAP2 POP POP SWAP3 SWAP2 POP POP JUMP JUMPDEST PUSH2 0x421 DUP2 PUSH2 0x3BA JUMP JUMPDEST DUP3 MSTORE POP POP JUMP JUMPDEST PUSH0 PUSH1 0x20 DUP3 ADD SWAP1 POP PUSH2 0x43A PUSH0 DUP4 ADD DUP5 PUSH2 0x418 JUMP JUMPDEST SWAP3 SWAP2 POP POP JUMP JUMPDEST PUSH0 PUSH20 0xFFFFFFFFFFFFFFFFFFFFFFFFFFFFFFFFFFFFFFFF DUP3 AND SWAP1 POP SWAP2 SWAP1 POP JUMP JUMPDEST PUSH0 DUP2 SWAP1 POP SWAP2 SWAP1 POP JUMP JUMPDEST PUSH0 PUSH2 0x482 PUSH2 0x47D PUSH2 0x478 DUP5 PUSH2 0x440 JUMP JUMPDEST PUSH2 0x45F JUMP JUMPDEST PUSH2 0x440 JUMP JUMPDEST SWAP1 POP SWAP2 SWAP1 POP JUMP JUMPDEST PUSH0 PUSH2 0x493 DUP3 PUSH2 0x468 JUMP JUMPDEST SWAP1 POP SWAP2 SWAP1 POP JUMP JUMPDEST PUSH0 PUSH2 0x4A4 DUP3 PUSH2 0x489 JUMP JUMPDEST SWAP1 POP SWAP2 SWAP1 POP JUMP JUMPDEST PUSH2 0x4B4 DUP2 PUSH2 0x49A JUMP JUMPDEST DUP3 MSTORE POP POP JUMP JUMPDEST PUSH0 PUSH1 0x20 DUP3 ADD SWAP1 POP PUSH2 0x4CD PUSH0 DUP4 ADD DUP5 PUSH2 0x4AB JUMP JUMPDEST SWAP3 SWAP2 POP POP JUMP JUMPDEST PUSH32 0x4E487B7100000000000000000000000000000000000000000000000000000000 PUSH0 MSTORE PUSH1 0x22 PUSH1 0x4 MSTORE PUSH1 0x24 PUSH0 REVERT JUMPDEST PUSH0 PUSH1 0x2 DUP3 DIV SWAP1 POP PUSH1 0x1 DUP3 AND DUP1 PUSH2 0x517 JUMPI PUSH1 0x7F DUP3 AND SWAP2 POP JUMPDEST PUSH1 0x20 DUP3 LT DUP2 SUB PUSH2 0x52A JUMPI PUSH2 0x529 PUSH2 0x4D3 JUMP JUMPDEST JUMPDEST POP SWAP2 SWAP1 POP JUMP JUMPDEST PUSH0 DUP2 MLOAD SWAP1 POP PUSH2 0x53E DUP2 PUSH2 0x3C3 JUMP JUMPDEST SWAP3 SWAP2 POP POP JUMP JUMPDEST PUSH0 PUSH1 0x20 DUP3 DUP5 SUB SLT ISZERO PUSH2 0x559 JUMPI PUSH2 0x558 PUSH2 0x3B6 JUMP JUMPDEST JUMPDEST PUSH0 PUSH2 0x566 DUP5 DUP3 DUP6 ADD PUSH2 0x530 JUMP JUMPDEST SWAP2 POP POP SWAP3 SWAP2 POP POP JUMP JUMPDEST PUSH0 DUP2 PUSH1 0xE0 SHR SWAP1 POP SWAP2 SWAP1 POP JUMP JUMPDEST PUSH0 PUSH1 0x3 RETURNDATASIZE GT ISZERO PUSH2 0x597 JUMPI PUSH1 0x4 PUSH0 DUP1 RETURNDATACOPY PUSH2 0x594 PUSH0 MLOAD PUSH2 0x56F JUMP JUMPDEST SWAP1 POP JUMPDEST SWAP1 JUMP JUMPDEST PUSH32 0x4E487B7100000000000000000000000000000000000000000000000000000000 PUSH0 MSTORE PUSH1 0x41 PUSH1 0x4 MSTORE PUSH1 0x24 PUSH0 REVERT JUMPDEST PUSH2 0x5D0 DUP3 PUSH2 0x345 JUMP JUMPDEST DUP2 ADD DUP2 DUP2 LT PUSH8 0xFFFFFFFFFFFFFFFF DUP3 GT OR ISZERO PUSH2 0x5EF JUMPI PUSH2 0x5EE PUSH2 0x59A JUMP JUMPDEST JUMPDEST DUP1 PUSH1 0x40 MSTORE POP POP POP JUMP JUMPDEST PUSH0 PUSH1 0x44 RETURNDATASIZE LT PUSH2 0x684 JUMPI PUSH2 0x609 PUSH2 0x3AD JUMP JUMPDEST PUSH1 0x4 RETURNDATASIZE SUB PUSH1 0x4 DUP3 RETURNDATACOPY DUP1 MLOAD RETURNDATASIZE PUSH1 0x24 DUP3 ADD GT PUSH8 0xFFFFFFFFFFFFFFFF DUP3 GT OR ISZERO PUSH2 0x631 JUMPI POP POP PUSH2 0x684 JUMP JUMPDEST DUP1 DUP3 ADD DUP1 MLOAD PUSH8 0xFFFFFFFFFFFFFFFF DUP2 GT ISZERO PUSH2 0x64F JUMPI POP POP POP POP PUSH2 0x684 JUMP JUMPDEST DUP1 PUSH1 0x20 DUP4 ADD ADD PUSH1 0x4 RETURNDATASIZE SUB DUP6 ADD DUP2 GT ISZERO PUSH2 0x66C JUMPI POP POP POP POP POP PUSH2 0x684 JUMP JUMPDEST PUSH2 0x67B DUP3 PUSH1 0x20 ADD DUP6 ADD DUP7 PUSH2 0x5C7 JUMP JUMPDEST DUP3 SWAP6 POP POP POP POP POP POP JUMPDEST SWAP1 JUMP JUMPDEST PUSH0 DUP2 SWAP1 POP SWAP3 SWAP2 POP POP JUMP JUMPDEST PUSH32 0x4C6F772D6C6576656C206572726F723A20000000000000000000000000000000 PUSH0 DUP3 ADD MSTORE POP JUMP JUMPDEST PUSH0 PUSH2 0x6C5 PUSH1 0x11 DUP4 PUSH2 0x687 JUMP JUMPDEST SWAP2 POP PUSH2 0x6D0 DUP3 PUSH2 0x691 JUMP JUMPDEST PUSH1 0x11 DUP3 ADD SWAP1 POP SWAP2 SWAP1 POP JUMP JUMPDEST PUSH0 DUP2 MLOAD SWAP1 POP SWAP2 SWAP1 POP JUMP JUMPDEST PUSH0 DUP2 SWAP1 POP SWAP3 SWAP2 POP POP JUMP JUMPDEST PUSH0 PUSH2 0x6F9 DUP3 PUSH2 0x6DB JUMP JUMPDEST PUSH2 0x703 DUP2 DUP6 PUSH2 0x6E5 JUMP JUMPDEST SWAP4 POP PUSH2 0x713 DUP2 DUP6 PUSH1 0x20 DUP7 ADD PUSH2 0x337 JUMP JUMPDEST DUP1 DUP5 ADD SWAP2 POP POP SWAP3 SWAP2 POP POP JUMP JUMPDEST PUSH0 PUSH2 0x729 DUP3 PUSH2 0x6B9 JUMP JUMPDEST SWAP2 POP PUSH2 0x735 DUP3 DUP5 PUSH2 0x6EF JUMP JUMPDEST SWAP2 POP DUP2 SWAP1 POP SWAP3 SWAP2 POP POP JUMP JUMPDEST PUSH0 DUP2 SWAP1 POP DUP2 PUSH0 MSTORE PUSH1 0x20 PUSH0 KECCAK256 SWAP1 POP SWAP2 SWAP1 POP JUMP JUMPDEST PUSH0 PUSH1 0x20 PUSH1 0x1F DUP4 ADD DIV SWAP1 POP SWAP2 SWAP1 POP JUMP JUMPDEST PUSH0 DUP3 DUP3 SHL SWAP1 POP SWAP3 SWAP2 POP POP JUMP JUMPDEST PUSH0 PUSH1 0x8 DUP4 MUL PUSH2 0x79C PUSH32 0xFFFFFFFFFFFFFFFFFFFFFFFFFFFFFFFFFFFFFFFFFFFFFFFFFFFFFFFFFFFFFFFF DUP3 PUSH2 0x761 JUMP JUMPDEST PUSH2 0x7A6 DUP7 DUP4 PUSH2 0x761 JUMP JUMPDEST SWAP6 POP DUP1 NOT DUP5 AND SWAP4 POP DUP1 DUP7 AND DUP5 OR SWAP3 POP POP POP SWAP4 SWAP3 POP POP POP JUMP JUMPDEST PUSH0 PUSH2 0x7D8 PUSH2 0x7D3 PUSH2 0x7CE DUP5 PUSH2 0x3BA JUMP JUMPDEST PUSH2 0x45F JUMP JUMPDEST PUSH2 0x3BA JUMP JUMPDEST SWAP1 POP SWAP2 SWAP1 POP JUMP JUMPDEST PUSH0 DUP2 SWAP1 POP SWAP2 SWAP1 POP JUMP JUMPDEST PUSH2 0x7F1 DUP4 PUSH2 0x7BE JUMP JUMPDEST PUSH2 0x805 PUSH2 0x7FD DUP3 PUSH2 0x7DF JUMP JUMPDEST DUP5 DUP5 SLOAD PUSH2 0x76D JUMP JUMPDEST DUP3 SSTORE POP POP POP POP JUMP JUMPDEST PUSH0 SWAP1 JUMP JUMPDEST PUSH2 0x819 PUSH2 0x80D JUMP JUMPDEST PUSH2 0x824 DUP2 DUP5 DUP5 PUSH2 0x7E8 JUMP JUMPDEST POP POP POP JUMP JUMPDEST JUMPDEST DUP2 DUP2 LT ISZERO PUSH2 0x847 JUMPI PUSH2 0x83C PUSH0 DUP3 PUSH2 0x811 JUMP JUMPDEST PUSH1 0x1 DUP2 ADD SWAP1 POP PUSH2 0x82A JUMP JUMPDEST POP POP JUMP JUMPDEST PUSH1 0x1F DUP3 GT ISZERO PUSH2 0x88C JUMPI PUSH2 0x85D DUP2 PUSH2 0x740 JUMP JUMPDEST PUSH2 0x866 DUP5 PUSH2 0x752 JUMP JUMPDEST DUP2 ADD PUSH1 0x20 DUP6 LT ISZERO PUSH2 0x875 JUMPI DUP2 SWAP1 POP JUMPDEST PUSH2 0x889 PUSH2 0x881 DUP6 PUSH2 0x752 JUMP JUMPDEST DUP4 ADD DUP3 PUSH2 0x829 JUMP JUMPDEST POP POP JUMPDEST POP POP POP JUMP JUMPDEST PUSH0 DUP3 DUP3 SHR SWAP1 POP SWAP3 SWAP2 POP POP JUMP JUMPDEST PUSH0 PUSH2 0x8AC PUSH0 NOT DUP5 PUSH1 0x8 MUL PUSH2 0x891 JUMP JUMPDEST NOT DUP1 DUP4 AND SWAP2 POP POP SWAP3 SWAP2 POP POP JUMP JUMPDEST PUSH0 PUSH2 0x8C4 DUP4 DUP4 PUSH2 0x89D JUMP JUMPDEST SWAP2 POP DUP3 PUSH1 0x2 MUL DUP3 OR SWAP1 POP SWAP3 SWAP2 POP POP JUMP JUMPDEST PUSH2 0x8DD DUP3 PUSH2 0x31D JUMP JUMPDEST PUSH8 0xFFFFFFFFFFFFFFFF DUP2 GT ISZERO PUSH2 0x8F6 JUMPI PUSH2 0x8F5 PUSH2 0x59A JUMP JUMPDEST JUMPDEST PUSH2 0x900 DUP3 SLOAD PUSH2 0x500 JUMP JUMPDEST PUSH2 0x90B DUP3 DUP3 DUP6 PUSH2 0x84B JUMP JUMPDEST PUSH0 PUSH1 0x20 SWAP1 POP PUSH1 0x1F DUP4 GT PUSH1 0x1 DUP2 EQ PUSH2 0x93C JUMPI PUSH0 DUP5 ISZERO PUSH2 0x92A JUMPI DUP3 DUP8 ADD MLOAD SWAP1 POP JUMPDEST PUSH2 0x934 DUP6 DUP3 PUSH2 0x8B9 JUMP JUMPDEST DUP7 SSTORE POP PUSH2 0x99B JUMP JUMPDEST PUSH1 0x1F NOT DUP5 AND PUSH2 0x94A DUP7 PUSH2 0x740 JUMP JUMPDEST PUSH0 JUMPDEST DUP3 DUP2 LT ISZERO PUSH2 0x971 JUMPI DUP5 DUP10 ADD MLOAD DUP3 SSTORE PUSH1 0x1 DUP3 ADD SWAP2 POP PUSH1 0x20 DUP6 ADD SWAP5 POP PUSH1 0x20 DUP2 ADD SWAP1 POP PUSH2 0x94C JUMP JUMPDEST DUP7 DUP4 LT ISZERO PUSH2 0x98E JUMPI DUP5 DUP10 ADD MLOAD PUSH2 0x98A PUSH1 0x1F DUP10 AND DUP3 PUSH2 0x89D JUMP JUMPDEST DUP4 SSTORE POP JUMPDEST PUSH1 0x1 PUSH1 0x2 DUP9 MUL ADD DUP9 SSTORE POP POP POP JUMPDEST POP POP POP POP POP POP JUMP JUMPDEST PUSH0 DUP2 SLOAD PUSH2 0x9AF DUP2 PUSH2 0x500 JUMP JUMPDEST PUSH2 0x9B9 DUP2 DUP7 PUSH2 0x327 JUMP JUMPDEST SWAP5 POP PUSH1 0x1 DUP3 AND PUSH0 DUP2 EQ PUSH2 0x9D3 JUMPI PUSH1 0x1 DUP2 EQ PUSH2 0x9E9 JUMPI PUSH2 0xA1B JUMP JUMPDEST PUSH1 0xFF NOT DUP4 AND DUP7 MSTORE DUP2 ISZERO ISZERO PUSH1 0x20 MUL DUP7 ADD SWAP4 POP PUSH2 0xA1B JUMP JUMPDEST PUSH2 0x9F2 DUP6 PUSH2 0x740 JUMP JUMPDEST PUSH0 JUMPDEST DUP4 DUP2 LT ISZERO PUSH2 0xA13 JUMPI DUP2 SLOAD DUP2 DUP10 ADD MSTORE PUSH1 0x1 DUP3 ADD SWAP2 POP PUSH1 0x20 DUP2 ADD SWAP1 POP PUSH2 0x9F4 JUMP JUMPDEST DUP1 DUP9 ADD SWAP6 POP POP POP JUMPDEST POP POP POP SWAP3 SWAP2 POP POP JUMP JUMPDEST PUSH0 PUSH1 0x20 DUP3 ADD SWAP1 POP DUP2 DUP2 SUB PUSH0 DUP4 ADD MSTORE PUSH2 0xA3C DUP2 DUP5 PUSH2 0x9A3 JUMP JUMPDEST SWAP1 POP SWAP3 SWAP2 POP POP JUMP INVALID LOG2 PUSH5 0x6970667358 0x22 SLT KECCAK256 0xBD MUL PUSH32 0xBCB17AFE17DFF4896364E8F2244828707CFC531AF13B7956FDF76BA35B64736F PUSH13 0x634300081A0033608060405234 DUP1 ISZERO PUSH1 0xE JUMPI PUSH0 DUP1 REVERT JUMPDEST POP PUSH2 0x28B DUP1 PUSH2 0x1C PUSH0 CODECOPY PUSH0 RETURN INVALID PUSH1 0x80 PUSH1 0x40 MSTORE CALLVALUE DUP1 ISZERO PUSH2 0xF JUMPI PUSH0 DUP1 REVERT JUMPDEST POP PUSH1 0x4 CALLDATASIZE LT PUSH2 0x29 JUMPI PUSH0 CALLDATALOAD PUSH1 0xE0 SHR DUP1 PUSH4 0xA9BF5633 EQ PUSH2 0x2D JUMPI JUMPDEST PUSH0 DUP1 REVERT JUMPDEST PUSH2 0x47 PUSH1 0x4 DUP1 CALLDATASIZE SUB DUP2 ADD SWAP1 PUSH2 0x42 SWAP2 SWAP1 PUSH2 0xFD JUMP JUMPDEST PUSH2 0x5D JUMP JUMPDEST PUSH1 0x40 MLOAD PUSH2 0x54 SWAP2 SWAP1 PUSH2 0x137 JUMP JUMPDEST PUSH1 0x40 MLOAD DUP1 SWAP2 SUB SWAP1 RETURN JUMPDEST PUSH0 DUP1 DUP3 SUB PUSH2 0xA0 JUMPI PUSH1 0x40 MLOAD PUSH32 0x8C379A000000000000000000000000000000000000000000000000000000000 DUP2 MSTORE PUSH1 0x4 ADD PUSH2 0x97 SWAP1 PUSH2 0x1AA JUMP JUMPDEST PUSH1 0x40 MLOAD DUP1 SWAP2 SUB SWAP1 REVERT JUMPDEST PUSH1 0x64 DUP3 GT ISZERO PUSH2 0xB2 JUMPI PUSH2 0xB1 PUSH2 0x1C8 JUMP JUMPDEST JUMPDEST PUSH1 0x1 DUP3 PUSH2 0xBF SWAP2 SWAP1 PUSH2 0x222 JUMP JUMPDEST SWAP1 POP SWAP2 SWAP1 POP JUMP JUMPDEST PUSH0 DUP1 REVERT JUMPDEST PUSH0 DUP2 SWAP1 POP SWAP2 SWAP1 POP JUMP JUMPDEST PUSH2 0xDC DUP2 PUSH2 0xCA JUMP JUMPDEST DUP2 EQ PUSH2 0xE6 JUMPI PUSH0 DUP1 REVERT JUMPDEST POP JUMP JUMPDEST PUSH0 DUP2 CALLDATALOAD SWAP1 POP PUSH2 0xF7 DUP2 PUSH2 0xD3 JUMP JUMPDEST SWAP3 SWAP2 POP POP JUMP JUMPDEST PUSH0 PUSH1 0x20 DUP3 DUP5 SUB SLT ISZERO PUSH2 0x112 JUMPI PUSH2 0x111 PUSH2 0xC6 JUMP JUMPDEST JUMPDEST PUSH0 PUSH2 0x11F DUP5 DUP3 DUP6 ADD PUSH2 0xE9 JUMP JUMPDEST SWAP2 POP POP SWAP3 SWAP2 POP POP JUMP JUMPDEST PUSH2 0x131 DUP2 PUSH2 0xCA JUMP JUMPDEST DUP3 MSTORE POP POP JUMP JUMPDEST PUSH0 PUSH1 0x20 DUP3 ADD SWAP1 POP PUSH2 0x14A PUSH0 DUP4 ADD DUP5 PUSH2 0x128 JUMP JUMPDEST SWAP3 SWAP2 POP POP JUMP JUMPDEST PUSH0 DUP3 DUP3 MSTORE PUSH1 0x20 DUP3 ADD SWAP1 POP SWAP3 SWAP2 POP POP JUMP JUMPDEST PUSH32 0x696620657175616C20302C72657175697265206661696C656400000000000000 PUSH0 DUP3 ADD MSTORE POP JUMP JUMPDEST PUSH0 PUSH2 0x194 PUSH1 0x19 DUP4 PUSH2 0x150 JUMP JUMPDEST SWAP2 POP PUSH2 0x19F DUP3 PUSH2 0x160 JUMP JUMPDEST PUSH1 0x20 DUP3 ADD SWAP1 POP SWAP2 SWAP1 POP JUMP JUMPDEST PUSH0 PUSH1 0x20 DUP3 ADD SWAP1 POP DUP2 DUP2 SUB PUSH0 DUP4 ADD MSTORE PUSH2 0x1C1 DUP2 PUSH2 0x188 JUMP JUMPDEST SWAP1 POP SWAP2 SWAP1 POP JUMP JUMPDEST PUSH32 0x4E487B7100000000000000000000000000000000000000000000000000000000 PUSH0 MSTORE PUSH1 0x1 PUSH1 0x4 MSTORE PUSH1 0x24 PUSH0 REVERT JUMPDEST PUSH32 0x4E487B7100000000000000000000000000000000000000000000000000000000 PUSH0 MSTORE PUSH1 0x11 PUSH1 0x4 MSTORE PUSH1 0x24 PUSH0 REVERT JUMPDEST PUSH0 PUSH2 0x22C DUP3 PUSH2 0xCA JUMP JUMPDEST SWAP2 POP PUSH2 0x237 DUP4 PUSH2 0xCA JUMP JUMPDEST SWAP3 POP DUP3 DUP3 ADD SWAP1 POP DUP1 DUP3 GT ISZERO PUSH2 0x24F JUMPI PUSH2 0x24E PUSH2 0x1F5 JUMP JUMPDEST JUMPDEST SWAP3 SWAP2 POP POP JUMP INVALID LOG2 PUSH5 0x6970667358 0x22 SLT KECCAK256 DUP10 SHL SWAP5 0xDF 0x4B DUP8 SWAP16 0x2D MOD BLOBHASH PUSH10 0xB301BC4CE6972CC3AA65 BYTE 0xC 0x24 SLOAD CALLVALUE 0xA7 0x1E 0xB0 MUL PUSH20 0xE164736F6C634300081A00330000000000000000 "
				},
				"gasEstimates": {
					"creation": {
						"codeDepositCost": "536400",
						"executionCost": "infinite",
						"totalCost": "infinite"
					},
					"external": {
						"errorMessage()": "infinite",
						"foo()": "infinite",
						"tryCatchExtenalCall(uint256)": "infinite",
						"y()": "2447"
					}
				},
				"methodIdentifiers": {
					"errorMessage()": "13338628",
					"foo()": "c2985578",
					"tryCatchExtenalCall(uint256)": "51c3002c",
					"y()": "a56dfe4a"
				}
			},
			"storageLayout": {
				"storage": [
					{
						"astId": 30,
						"contract": "study_way/src/4day_testTryCatch.sol:trycatch",
						"label": "foo",
						"offset": 0,
						"slot": "0",
						"type": "t_contract(Foo)27"
					},
					{
						"astId": 32,
						"contract": "study_way/src/4day_testTryCatch.sol:trycatch",
						"label": "y",
						"offset": 0,
						"slot": "1",
						"type": "t_uint256"
					},
					{
						"astId": 34,
						"contract": "study_way/src/4day_testTryCatch.sol:trycatch",
						"label": "errorMessage",
						"offset": 0,
						"slot": "2",
						"type": "t_string_storage"
					}
				],
				"types": {
					"t_contract(Foo)27": {
						"encoding": "inplace",
						"label": "contract Foo",
						"numberOfBytes": "20"
					},
					"t_string_storage": {
						"encoding": "bytes",
						"label": "string",
						"numberOfBytes": "32"
					},
					"t_uint256": {
						"encoding": "inplace",
						"label": "uint256",
						"numberOfBytes": "32"
					}
				}
			},
			"userdoc": {
				"kind": "user",
				"methods": {},
				"version": 1
			}
		}
	}
}