{
	"study_way/src/5day_encodeABI.sol": {
		"DataStorage": {
			"abi": [
				{
					"inputs": [],
					"name": "getData",
					"outputs": [
						{
							"internalType": "string",
							"name": "",
							"type": "string"
						}
					],
					"stateMutability": "view",
					"type": "function"
				},
				{
					"inputs": [
						{
							"internalType": "string",
							"name": "newData",
							"type": "string"
						}
					],
					"name": "setData",
					"outputs": [],
					"stateMutability": "nonpayable",
					"type": "function"
				}
			],
			"devdoc": {
				"kind": "dev",
				"methods": {},
				"version": 1
			},
			"evm": {
				"assembly": "    /* \"study_way/src/5day_encodeABI.sol\":60:292  contract DataStorage {... */\n  mstore(0x40, 0x80)\n  callvalue\n  dup1\n  iszero\n  tag_1\n  jumpi\n  0x00\n  dup1\n  revert\ntag_1:\n  pop\n  dataSize(sub_0)\n  dup1\n  dataOffset(sub_0)\n  0x00\n  codecopy\n  0x00\n  return\nstop\n\nsub_0: assembly {\n        /* \"study_way/src/5day_encodeABI.sol\":60:292  contract DataStorage {... */\n      mstore(0x40, 0x80)\n      callvalue\n      dup1\n      iszero\n      tag_1\n      jumpi\n      0x00\n      dup1\n      revert\n    tag_1:\n      pop\n      jumpi(tag_2, lt(calldatasize, 0x04))\n      shr(0xe0, calldataload(0x00))\n      dup1\n      0x3bc5de30\n      eq\n      tag_3\n      jumpi\n      dup1\n      0x47064d6a\n      eq\n      tag_4\n      jumpi\n    tag_2:\n      0x00\n      dup1\n      revert\n        /* \"study_way/src/5day_encodeABI.sol\":204:289  function getData() public view returns (string memory) {... */\n    tag_3:\n      tag_5\n      tag_6\n      jump\t// in\n    tag_5:\n      mload(0x40)\n      tag_7\n      swap2\n      swap1\n      tag_8\n      jump\t// in\n    tag_7:\n      mload(0x40)\n      dup1\n      swap2\n      sub\n      swap1\n      return\n        /* \"study_way/src/5day_encodeABI.sol\":116:196  function setData(string memory newData) public {... */\n    tag_4:\n      tag_9\n      0x04\n      dup1\n      calldatasize\n      sub\n      dup2\n      add\n      swap1\n      tag_10\n      swap2\n      swap1\n      tag_11\n      jump\t// in\n    tag_10:\n      tag_12\n      jump\t// in\n    tag_9:\n      stop\n        /* \"study_way/src/5day_encodeABI.sol\":204:289  function getData() public view returns (string memory) {... */\n    tag_6:\n        /* \"study_way/src/5day_encodeABI.sol\":244:257  string memory */\n      0x60\n        /* \"study_way/src/5day_encodeABI.sol\":277:281  data */\n      0x00\n        /* \"study_way/src/5day_encodeABI.sol\":270:281  return data */\n      dup1\n      sload\n      tag_14\n      swap1\n      tag_15\n      jump\t// in\n    tag_14:\n      dup1\n      0x1f\n      add\n      0x20\n      dup1\n      swap2\n      div\n      mul\n      0x20\n      add\n      mload(0x40)\n      swap1\n      dup2\n      add\n      0x40\n      mstore\n      dup1\n      swap3\n      swap2\n      swap1\n      dup2\n      dup2\n      mstore\n      0x20\n      add\n      dup3\n      dup1\n      sload\n      tag_16\n      swap1\n      tag_15\n      jump\t// in\n    tag_16:\n      dup1\n      iszero\n      tag_17\n      jumpi\n      dup1\n      0x1f\n      lt\n      tag_18\n      jumpi\n      0x0100\n      dup1\n      dup4\n      sload\n      div\n      mul\n      dup4\n      mstore\n      swap2\n      0x20\n      add\n      swap2\n      jump(tag_17)\n    tag_18:\n      dup3\n      add\n      swap2\n      swap1\n      0x00\n      mstore\n      keccak256(0x00, 0x20)\n      swap1\n    tag_19:\n      dup2\n      sload\n      dup2\n      mstore\n      swap1\n      0x01\n      add\n      swap1\n      0x20\n      add\n      dup1\n      dup4\n      gt\n      tag_19\n      jumpi\n      dup3\n      swap1\n      sub\n      0x1f\n      and\n      dup3\n      add\n      swap2\n    tag_17:\n      pop\n      pop\n      pop\n      pop\n      pop\n      swap1\n      pop\n        /* \"study_way/src/5day_encodeABI.sol\":204:289  function getData() public view returns (string memory) {... */\n      swap1\n      jump\t// out\n        /* \"study_way/src/5day_encodeABI.sol\":116:196  function setData(string memory newData) public {... */\n    tag_12:\n        /* \"study_way/src/5day_encodeABI.sol\":181:188  newData */\n      dup1\n        /* \"study_way/src/5day_encodeABI.sol\":174:178  data */\n      0x00\n        /* \"study_way/src/5day_encodeABI.sol\":174:188  data = newData */\n      swap1\n      dup2\n      tag_21\n      swap2\n      swap1\n      tag_22\n      jump\t// in\n    tag_21:\n      pop\n        /* \"study_way/src/5day_encodeABI.sol\":116:196  function setData(string memory newData) public {... */\n      pop\n      jump\t// out\n        /* \"#utility.yul\":7:106   */\n    tag_23:\n        /* \"#utility.yul\":59:65   */\n      0x00\n        /* \"#utility.yul\":93:98   */\n      dup2\n        /* \"#utility.yul\":87:99   */\n      mload\n        /* \"#utility.yul\":77:99   */\n      swap1\n      pop\n        /* \"#utility.yul\":7:106   */\n      swap2\n      swap1\n      pop\n      jump\t// out\n        /* \"#utility.yul\":112:281   */\n    tag_24:\n        /* \"#utility.yul\":196:207   */\n      0x00\n        /* \"#utility.yul\":230:236   */\n      dup3\n        /* \"#utility.yul\":225:228   */\n      dup3\n        /* \"#utility.yul\":218:237   */\n      mstore\n        /* \"#utility.yul\":270:274   */\n      0x20\n        /* \"#utility.yul\":265:268   */\n      dup3\n        /* \"#utility.yul\":261:275   */\n      add\n        /* \"#utility.yul\":246:275   */\n      swap1\n      pop\n        /* \"#utility.yul\":112:281   */\n      swap3\n      swap2\n      pop\n      pop\n      jump\t// out\n        /* \"#utility.yul\":287:426   */\n    tag_25:\n        /* \"#utility.yul\":376:382   */\n      dup3\n        /* \"#utility.yul\":371:374   */\n      dup2\n        /* \"#utility.yul\":366:369   */\n      dup4\n        /* \"#utility.yul\":360:383   */\n      mcopy\n        /* \"#utility.yul\":417:418   */\n      0x00\n        /* \"#utility.yul\":408:414   */\n      dup4\n        /* \"#utility.yul\":403:406   */\n      dup4\n        /* \"#utility.yul\":399:415   */\n      add\n        /* \"#utility.yul\":392:419   */\n      mstore\n        /* \"#utility.yul\":287:426   */\n      pop\n      pop\n      pop\n      jump\t// out\n        /* \"#utility.yul\":432:534   */\n    tag_26:\n        /* \"#utility.yul\":473:479   */\n      0x00\n        /* \"#utility.yul\":524:526   */\n      0x1f\n        /* \"#utility.yul\":520:527   */\n      not\n        /* \"#utility.yul\":515:517   */\n      0x1f\n        /* \"#utility.yul\":508:513   */\n      dup4\n        /* \"#utility.yul\":504:518   */\n      add\n        /* \"#utility.yul\":500:528   */\n      and\n        /* \"#utility.yul\":490:528   */\n      swap1\n      pop\n        /* \"#utility.yul\":432:534   */\n      swap2\n      swap1\n      pop\n      jump\t// out\n        /* \"#utility.yul\":540:917   */\n    tag_27:\n        /* \"#utility.yul\":628:631   */\n      0x00\n        /* \"#utility.yul\":656:695   */\n      tag_63\n        /* \"#utility.yul\":689:694   */\n      dup3\n        /* \"#utility.yul\":656:695   */\n      tag_23\n      jump\t// in\n    tag_63:\n        /* \"#utility.yul\":711:782   */\n      tag_64\n        /* \"#utility.yul\":775:781   */\n      dup2\n        /* \"#utility.yul\":770:773   */\n      dup6\n        /* \"#utility.yul\":711:782   */\n      tag_24\n      jump\t// in\n    tag_64:\n        /* \"#utility.yul\":704:782   */\n      swap4\n      pop\n        /* \"#utility.yul\":791:856   */\n      tag_65\n        /* \"#utility.yul\":849:855   */\n      dup2\n        /* \"#utility.yul\":844:847   */\n      dup6\n        /* \"#utility.yul\":837:841   */\n      0x20\n        /* \"#utility.yul\":830:835   */\n      dup7\n        /* \"#utility.yul\":826:842   */\n      add\n        /* \"#utility.yul\":791:856   */\n      tag_25\n      jump\t// in\n    tag_65:\n        /* \"#utility.yul\":881:910   */\n      tag_66\n        /* \"#utility.yul\":903:909   */\n      dup2\n        /* \"#utility.yul\":881:910   */\n      tag_26\n      jump\t// in\n    tag_66:\n        /* \"#utility.yul\":876:879   */\n      dup5\n        /* \"#utility.yul\":872:911   */\n      add\n        /* \"#utility.yul\":865:911   */\n      swap2\n      pop\n        /* \"#utility.yul\":632:917   */\n      pop\n        /* \"#utility.yul\":540:917   */\n      swap3\n      swap2\n      pop\n      pop\n      jump\t// out\n        /* \"#utility.yul\":923:1236   */\n    tag_8:\n        /* \"#utility.yul\":1036:1040   */\n      0x00\n        /* \"#utility.yul\":1074:1076   */\n      0x20\n        /* \"#utility.yul\":1063:1072   */\n      dup3\n        /* \"#utility.yul\":1059:1077   */\n      add\n        /* \"#utility.yul\":1051:1077   */\n      swap1\n      pop\n        /* \"#utility.yul\":1123:1132   */\n      dup2\n        /* \"#utility.yul\":1117:1121   */\n      dup2\n        /* \"#utility.yul\":1113:1133   */\n      sub\n        /* \"#utility.yul\":1109:1110   */\n      0x00\n        /* \"#utility.yul\":1098:1107   */\n      dup4\n        /* \"#utility.yul\":1094:1111   */\n      add\n        /* \"#utility.yul\":1087:1134   */\n      mstore\n        /* \"#utility.yul\":1151:1229   */\n      tag_68\n        /* \"#utility.yul\":1224:1228   */\n      dup2\n        /* \"#utility.yul\":1215:1221   */\n      dup5\n        /* \"#utility.yul\":1151:1229   */\n      tag_27\n      jump\t// in\n    tag_68:\n        /* \"#utility.yul\":1143:1229   */\n      swap1\n      pop\n        /* \"#utility.yul\":923:1236   */\n      swap3\n      swap2\n      pop\n      pop\n      jump\t// out\n        /* \"#utility.yul\":1242:1317   */\n    tag_28:\n        /* \"#utility.yul\":1275:1281   */\n      0x00\n        /* \"#utility.yul\":1308:1310   */\n      0x40\n        /* \"#utility.yul\":1302:1311   */\n      mload\n        /* \"#utility.yul\":1292:1311   */\n      swap1\n      pop\n        /* \"#utility.yul\":1242:1317   */\n      swap1\n      jump\t// out\n        /* \"#utility.yul\":1323:1440   */\n    tag_29:\n        /* \"#utility.yul\":1432:1433   */\n      0x00\n        /* \"#utility.yul\":1429:1430   */\n      dup1\n        /* \"#utility.yul\":1422:1434   */\n      revert\n        /* \"#utility.yul\":1446:1563   */\n    tag_30:\n        /* \"#utility.yul\":1555:1556   */\n      0x00\n        /* \"#utility.yul\":1552:1553   */\n      dup1\n        /* \"#utility.yul\":1545:1557   */\n      revert\n        /* \"#utility.yul\":1569:1686   */\n    tag_31:\n        /* \"#utility.yul\":1678:1679   */\n      0x00\n        /* \"#utility.yul\":1675:1676   */\n      dup1\n        /* \"#utility.yul\":1668:1680   */\n      revert\n        /* \"#utility.yul\":1692:1809   */\n    tag_32:\n        /* \"#utility.yul\":1801:1802   */\n      0x00\n        /* \"#utility.yul\":1798:1799   */\n      dup1\n        /* \"#utility.yul\":1791:1803   */\n      revert\n        /* \"#utility.yul\":1815:1995   */\n    tag_33:\n        /* \"#utility.yul\":1863:1940   */\n      0x4e487b7100000000000000000000000000000000000000000000000000000000\n        /* \"#utility.yul\":1860:1861   */\n      0x00\n        /* \"#utility.yul\":1853:1941   */\n      mstore\n        /* \"#utility.yul\":1960:1964   */\n      0x41\n        /* \"#utility.yul\":1957:1958   */\n      0x04\n        /* \"#utility.yul\":1950:1965   */\n      mstore\n        /* \"#utility.yul\":1984:1988   */\n      0x24\n        /* \"#utility.yul\":1981:1982   */\n      0x00\n        /* \"#utility.yul\":1974:1989   */\n      revert\n        /* \"#utility.yul\":2001:2282   */\n    tag_34:\n        /* \"#utility.yul\":2084:2111   */\n      tag_76\n        /* \"#utility.yul\":2106:2110   */\n      dup3\n        /* \"#utility.yul\":2084:2111   */\n      tag_26\n      jump\t// in\n    tag_76:\n        /* \"#utility.yul\":2076:2082   */\n      dup2\n        /* \"#utility.yul\":2072:2112   */\n      add\n        /* \"#utility.yul\":2214:2220   */\n      dup2\n        /* \"#utility.yul\":2202:2212   */\n      dup2\n        /* \"#utility.yul\":2199:2221   */\n      lt\n        /* \"#utility.yul\":2178:2196   */\n      0xffffffffffffffff\n        /* \"#utility.yul\":2166:2176   */\n      dup3\n        /* \"#utility.yul\":2163:2197   */\n      gt\n        /* \"#utility.yul\":2160:2222   */\n      or\n        /* \"#utility.yul\":2157:2245   */\n      iszero\n      tag_77\n      jumpi\n        /* \"#utility.yul\":2225:2243   */\n      tag_78\n      tag_33\n      jump\t// in\n    tag_78:\n        /* \"#utility.yul\":2157:2245   */\n    tag_77:\n        /* \"#utility.yul\":2265:2275   */\n      dup1\n        /* \"#utility.yul\":2261:2263   */\n      0x40\n        /* \"#utility.yul\":2254:2276   */\n      mstore\n        /* \"#utility.yul\":2044:2282   */\n      pop\n        /* \"#utility.yul\":2001:2282   */\n      pop\n      pop\n      jump\t// out\n        /* \"#utility.yul\":2288:2417   */\n    tag_35:\n        /* \"#utility.yul\":2322:2328   */\n      0x00\n        /* \"#utility.yul\":2349:2369   */\n      tag_80\n      tag_28\n      jump\t// in\n    tag_80:\n        /* \"#utility.yul\":2339:2369   */\n      swap1\n      pop\n        /* \"#utility.yul\":2378:2411   */\n      tag_81\n        /* \"#utility.yul\":2406:2410   */\n      dup3\n        /* \"#utility.yul\":2398:2404   */\n      dup3\n        /* \"#utility.yul\":2378:2411   */\n      tag_34\n      jump\t// in\n    tag_81:\n        /* \"#utility.yul\":2288:2417   */\n      swap2\n      swap1\n      pop\n      jump\t// out\n        /* \"#utility.yul\":2423:2731   */\n    tag_36:\n        /* \"#utility.yul\":2485:2489   */\n      0x00\n        /* \"#utility.yul\":2575:2593   */\n      0xffffffffffffffff\n        /* \"#utility.yul\":2567:2573   */\n      dup3\n        /* \"#utility.yul\":2564:2594   */\n      gt\n        /* \"#utility.yul\":2561:2617   */\n      iszero\n      tag_83\n      jumpi\n        /* \"#utility.yul\":2597:2615   */\n      tag_84\n      tag_33\n      jump\t// in\n    tag_84:\n        /* \"#utility.yul\":2561:2617   */\n    tag_83:\n        /* \"#utility.yul\":2635:2664   */\n      tag_85\n        /* \"#utility.yul\":2657:2663   */\n      dup3\n        /* \"#utility.yul\":2635:2664   */\n      tag_26\n      jump\t// in\n    tag_85:\n        /* \"#utility.yul\":2627:2664   */\n      swap1\n      pop\n        /* \"#utility.yul\":2719:2723   */\n      0x20\n        /* \"#utility.yul\":2713:2717   */\n      dup2\n        /* \"#utility.yul\":2709:2724   */\n      add\n        /* \"#utility.yul\":2701:2724   */\n      swap1\n      pop\n        /* \"#utility.yul\":2423:2731   */\n      swap2\n      swap1\n      pop\n      jump\t// out\n        /* \"#utility.yul\":2737:2885   */\n    tag_37:\n        /* \"#utility.yul\":2835:2841   */\n      dup3\n        /* \"#utility.yul\":2830:2833   */\n      dup2\n        /* \"#utility.yul\":2825:2828   */\n      dup4\n        /* \"#utility.yul\":2812:2842   */\n      calldatacopy\n        /* \"#utility.yul\":2876:2877   */\n      0x00\n        /* \"#utility.yul\":2867:2873   */\n      dup4\n        /* \"#utility.yul\":2862:2865   */\n      dup4\n        /* \"#utility.yul\":2858:2874   */\n      add\n        /* \"#utility.yul\":2851:2878   */\n      mstore\n        /* \"#utility.yul\":2737:2885   */\n      pop\n      pop\n      pop\n      jump\t// out\n        /* \"#utility.yul\":2891:3316   */\n    tag_38:\n        /* \"#utility.yul\":2969:2974   */\n      0x00\n        /* \"#utility.yul\":2994:3060   */\n      tag_88\n        /* \"#utility.yul\":3010:3059   */\n      tag_89\n        /* \"#utility.yul\":3052:3058   */\n      dup5\n        /* \"#utility.yul\":3010:3059   */\n      tag_36\n      jump\t// in\n    tag_89:\n        /* \"#utility.yul\":2994:3060   */\n      tag_35\n      jump\t// in\n    tag_88:\n        /* \"#utility.yul\":2985:3060   */\n      swap1\n      pop\n        /* \"#utility.yul\":3083:3089   */\n      dup3\n        /* \"#utility.yul\":3076:3081   */\n      dup2\n        /* \"#utility.yul\":3069:3090   */\n      mstore\n        /* \"#utility.yul\":3121:3125   */\n      0x20\n        /* \"#utility.yul\":3114:3119   */\n      dup2\n        /* \"#utility.yul\":3110:3126   */\n      add\n        /* \"#utility.yul\":3159:3162   */\n      dup5\n        /* \"#utility.yul\":3150:3156   */\n      dup5\n        /* \"#utility.yul\":3145:3148   */\n      dup5\n        /* \"#utility.yul\":3141:3157   */\n      add\n        /* \"#utility.yul\":3138:3163   */\n      gt\n        /* \"#utility.yul\":3135:3247   */\n      iszero\n      tag_90\n      jumpi\n        /* \"#utility.yul\":3166:3245   */\n      tag_91\n      tag_32\n      jump\t// in\n    tag_91:\n        /* \"#utility.yul\":3135:3247   */\n    tag_90:\n        /* \"#utility.yul\":3256:3310   */\n      tag_92\n        /* \"#utility.yul\":3303:3309   */\n      dup5\n        /* \"#utility.yul\":3298:3301   */\n      dup3\n        /* \"#utility.yul\":3293:3296   */\n      dup6\n        /* \"#utility.yul\":3256:3310   */\n      tag_37\n      jump\t// in\n    tag_92:\n        /* \"#utility.yul\":2975:3316   */\n      pop\n        /* \"#utility.yul\":2891:3316   */\n      swap4\n      swap3\n      pop\n      pop\n      pop\n      jump\t// out\n        /* \"#utility.yul\":3336:3676   */\n    tag_39:\n        /* \"#utility.yul\":3392:3397   */\n      0x00\n        /* \"#utility.yul\":3441:3444   */\n      dup3\n        /* \"#utility.yul\":3434:3438   */\n      0x1f\n        /* \"#utility.yul\":3426:3432   */\n      dup4\n        /* \"#utility.yul\":3422:3439   */\n      add\n        /* \"#utility.yul\":3418:3445   */\n      slt\n        /* \"#utility.yul\":3408:3530   */\n      tag_94\n      jumpi\n        /* \"#utility.yul\":3449:3528   */\n      tag_95\n      tag_31\n      jump\t// in\n    tag_95:\n        /* \"#utility.yul\":3408:3530   */\n    tag_94:\n        /* \"#utility.yul\":3566:3572   */\n      dup2\n        /* \"#utility.yul\":3553:3573   */\n      calldataload\n        /* \"#utility.yul\":3591:3670   */\n      tag_96\n        /* \"#utility.yul\":3666:3669   */\n      dup5\n        /* \"#utility.yul\":3658:3664   */\n      dup3\n        /* \"#utility.yul\":3651:3655   */\n      0x20\n        /* \"#utility.yul\":3643:3649   */\n      dup7\n        /* \"#utility.yul\":3639:3656   */\n      add\n        /* \"#utility.yul\":3591:3670   */\n      tag_38\n      jump\t// in\n    tag_96:\n        /* \"#utility.yul\":3582:3670   */\n      swap2\n      pop\n        /* \"#utility.yul\":3398:3676   */\n      pop\n        /* \"#utility.yul\":3336:3676   */\n      swap3\n      swap2\n      pop\n      pop\n      jump\t// out\n        /* \"#utility.yul\":3682:4191   */\n    tag_11:\n        /* \"#utility.yul\":3751:3757   */\n      0x00\n        /* \"#utility.yul\":3800:3802   */\n      0x20\n        /* \"#utility.yul\":3788:3797   */\n      dup3\n        /* \"#utility.yul\":3779:3786   */\n      dup5\n        /* \"#utility.yul\":3775:3798   */\n      sub\n        /* \"#utility.yul\":3771:3803   */\n      slt\n        /* \"#utility.yul\":3768:3887   */\n      iszero\n      tag_98\n      jumpi\n        /* \"#utility.yul\":3806:3885   */\n      tag_99\n      tag_29\n      jump\t// in\n    tag_99:\n        /* \"#utility.yul\":3768:3887   */\n    tag_98:\n        /* \"#utility.yul\":3954:3955   */\n      0x00\n        /* \"#utility.yul\":3943:3952   */\n      dup3\n        /* \"#utility.yul\":3939:3956   */\n      add\n        /* \"#utility.yul\":3926:3957   */\n      calldataload\n        /* \"#utility.yul\":3984:4002   */\n      0xffffffffffffffff\n        /* \"#utility.yul\":3976:3982   */\n      dup2\n        /* \"#utility.yul\":3973:4003   */\n      gt\n        /* \"#utility.yul\":3970:4087   */\n      iszero\n      tag_100\n      jumpi\n        /* \"#utility.yul\":4006:4085   */\n      tag_101\n      tag_30\n      jump\t// in\n    tag_101:\n        /* \"#utility.yul\":3970:4087   */\n    tag_100:\n        /* \"#utility.yul\":4111:4174   */\n      tag_102\n        /* \"#utility.yul\":4166:4173   */\n      dup5\n        /* \"#utility.yul\":4157:4163   */\n      dup3\n        /* \"#utility.yul\":4146:4155   */\n      dup6\n        /* \"#utility.yul\":4142:4164   */\n      add\n        /* \"#utility.yul\":4111:4174   */\n      tag_39\n      jump\t// in\n    tag_102:\n        /* \"#utility.yul\":4101:4174   */\n      swap2\n      pop\n        /* \"#utility.yul\":3897:4184   */\n      pop\n        /* \"#utility.yul\":3682:4191   */\n      swap3\n      swap2\n      pop\n      pop\n      jump\t// out\n        /* \"#utility.yul\":4197:4377   */\n    tag_40:\n        /* \"#utility.yul\":4245:4322   */\n      0x4e487b7100000000000000000000000000000000000000000000000000000000\n        /* \"#utility.yul\":4242:4243   */\n      0x00\n        /* \"#utility.yul\":4235:4323   */\n      mstore\n        /* \"#utility.yul\":4342:4346   */\n      0x22\n        /* \"#utility.yul\":4339:4340   */\n      0x04\n        /* \"#utility.yul\":4332:4347   */\n      mstore\n        /* \"#utility.yul\":4366:4370   */\n      0x24\n        /* \"#utility.yul\":4363:4364   */\n      0x00\n        /* \"#utility.yul\":4356:4371   */\n      revert\n        /* \"#utility.yul\":4383:4703   */\n    tag_15:\n        /* \"#utility.yul\":4427:4433   */\n      0x00\n        /* \"#utility.yul\":4464:4465   */\n      0x02\n        /* \"#utility.yul\":4458:4462   */\n      dup3\n        /* \"#utility.yul\":4454:4466   */\n      div\n        /* \"#utility.yul\":4444:4466   */\n      swap1\n      pop\n        /* \"#utility.yul\":4511:4512   */\n      0x01\n        /* \"#utility.yul\":4505:4509   */\n      dup3\n        /* \"#utility.yul\":4501:4513   */\n      and\n        /* \"#utility.yul\":4532:4550   */\n      dup1\n        /* \"#utility.yul\":4522:4603   */\n      tag_105\n      jumpi\n        /* \"#utility.yul\":4588:4592   */\n      0x7f\n        /* \"#utility.yul\":4580:4586   */\n      dup3\n        /* \"#utility.yul\":4576:4593   */\n      and\n        /* \"#utility.yul\":4566:4593   */\n      swap2\n      pop\n        /* \"#utility.yul\":4522:4603   */\n    tag_105:\n        /* \"#utility.yul\":4650:4652   */\n      0x20\n        /* \"#utility.yul\":4642:4648   */\n      dup3\n        /* \"#utility.yul\":4639:4653   */\n      lt\n        /* \"#utility.yul\":4619:4637   */\n      dup2\n        /* \"#utility.yul\":4616:4654   */\n      sub\n        /* \"#utility.yul\":4613:4697   */\n      tag_106\n      jumpi\n        /* \"#utility.yul\":4669:4687   */\n      tag_107\n      tag_40\n      jump\t// in\n    tag_107:\n        /* \"#utility.yul\":4613:4697   */\n    tag_106:\n        /* \"#utility.yul\":4434:4703   */\n      pop\n        /* \"#utility.yul\":4383:4703   */\n      swap2\n      swap1\n      pop\n      jump\t// out\n        /* \"#utility.yul\":4709:4850   */\n    tag_41:\n        /* \"#utility.yul\":4758:4762   */\n      0x00\n        /* \"#utility.yul\":4781:4784   */\n      dup2\n        /* \"#utility.yul\":4773:4784   */\n      swap1\n      pop\n        /* \"#utility.yul\":4804:4807   */\n      dup2\n        /* \"#utility.yul\":4801:4802   */\n      0x00\n        /* \"#utility.yul\":4794:4808   */\n      mstore\n        /* \"#utility.yul\":4838:4842   */\n      0x20\n        /* \"#utility.yul\":4835:4836   */\n      0x00\n        /* \"#utility.yul\":4825:4843   */\n      keccak256\n        /* \"#utility.yul\":4817:4843   */\n      swap1\n      pop\n        /* \"#utility.yul\":4709:4850   */\n      swap2\n      swap1\n      pop\n      jump\t// out\n        /* \"#utility.yul\":4856:4949   */\n    tag_42:\n        /* \"#utility.yul\":4893:4899   */\n      0x00\n        /* \"#utility.yul\":4940:4942   */\n      0x20\n        /* \"#utility.yul\":4935:4937   */\n      0x1f\n        /* \"#utility.yul\":4928:4933   */\n      dup4\n        /* \"#utility.yul\":4924:4938   */\n      add\n        /* \"#utility.yul\":4920:4943   */\n      div\n        /* \"#utility.yul\":4910:4943   */\n      swap1\n      pop\n        /* \"#utility.yul\":4856:4949   */\n      swap2\n      swap1\n      pop\n      jump\t// out\n        /* \"#utility.yul\":4955:5062   */\n    tag_43:\n        /* \"#utility.yul\":4999:5007   */\n      0x00\n        /* \"#utility.yul\":5049:5054   */\n      dup3\n        /* \"#utility.yul\":5043:5047   */\n      dup3\n        /* \"#utility.yul\":5039:5055   */\n      shl\n        /* \"#utility.yul\":5018:5055   */\n      swap1\n      pop\n        /* \"#utility.yul\":4955:5062   */\n      swap3\n      swap2\n      pop\n      pop\n      jump\t// out\n        /* \"#utility.yul\":5068:5461   */\n    tag_44:\n        /* \"#utility.yul\":5137:5143   */\n      0x00\n        /* \"#utility.yul\":5187:5188   */\n      0x08\n        /* \"#utility.yul\":5175:5185   */\n      dup4\n        /* \"#utility.yul\":5171:5189   */\n      mul\n        /* \"#utility.yul\":5210:5307   */\n      tag_112\n        /* \"#utility.yul\":5240:5306   */\n      0xffffffffffffffffffffffffffffffffffffffffffffffffffffffffffffffff\n        /* \"#utility.yul\":5229:5238   */\n      dup3\n        /* \"#utility.yul\":5210:5307   */\n      tag_43\n      jump\t// in\n    tag_112:\n        /* \"#utility.yul\":5328:5367   */\n      tag_113\n        /* \"#utility.yul\":5358:5366   */\n      dup7\n        /* \"#utility.yul\":5347:5356   */\n      dup4\n        /* \"#utility.yul\":5328:5367   */\n      tag_43\n      jump\t// in\n    tag_113:\n        /* \"#utility.yul\":5316:5367   */\n      swap6\n      pop\n        /* \"#utility.yul\":5400:5404   */\n      dup1\n        /* \"#utility.yul\":5396:5405   */\n      not\n        /* \"#utility.yul\":5389:5394   */\n      dup5\n        /* \"#utility.yul\":5385:5406   */\n      and\n        /* \"#utility.yul\":5376:5406   */\n      swap4\n      pop\n        /* \"#utility.yul\":5449:5453   */\n      dup1\n        /* \"#utility.yul\":5439:5447   */\n      dup7\n        /* \"#utility.yul\":5435:5454   */\n      and\n        /* \"#utility.yul\":5428:5433   */\n      dup5\n        /* \"#utility.yul\":5425:5455   */\n      or\n        /* \"#utility.yul\":5415:5455   */\n      swap3\n      pop\n        /* \"#utility.yul\":5144:5461   */\n      pop\n      pop\n        /* \"#utility.yul\":5068:5461   */\n      swap4\n      swap3\n      pop\n      pop\n      pop\n      jump\t// out\n        /* \"#utility.yul\":5467:5544   */\n    tag_45:\n        /* \"#utility.yul\":5504:5511   */\n      0x00\n        /* \"#utility.yul\":5533:5538   */\n      dup2\n        /* \"#utility.yul\":5522:5538   */\n      swap1\n      pop\n        /* \"#utility.yul\":5467:5544   */\n      swap2\n      swap1\n      pop\n      jump\t// out\n        /* \"#utility.yul\":5550:5610   */\n    tag_46:\n        /* \"#utility.yul\":5578:5581   */\n      0x00\n        /* \"#utility.yul\":5599:5604   */\n      dup2\n        /* \"#utility.yul\":5592:5604   */\n      swap1\n      pop\n        /* \"#utility.yul\":5550:5610   */\n      swap2\n      swap1\n      pop\n      jump\t// out\n        /* \"#utility.yul\":5616:5758   */\n    tag_47:\n        /* \"#utility.yul\":5666:5675   */\n      0x00\n        /* \"#utility.yul\":5699:5752   */\n      tag_117\n        /* \"#utility.yul\":5717:5751   */\n      tag_118\n        /* \"#utility.yul\":5726:5750   */\n      tag_119\n        /* \"#utility.yul\":5744:5749   */\n      dup5\n        /* \"#utility.yul\":5726:5750   */\n      tag_45\n      jump\t// in\n    tag_119:\n        /* \"#utility.yul\":5717:5751   */\n      tag_46\n      jump\t// in\n    tag_118:\n        /* \"#utility.yul\":5699:5752   */\n      tag_45\n      jump\t// in\n    tag_117:\n        /* \"#utility.yul\":5686:5752   */\n      swap1\n      pop\n        /* \"#utility.yul\":5616:5758   */\n      swap2\n      swap1\n      pop\n      jump\t// out\n        /* \"#utility.yul\":5764:5839   */\n    tag_48:\n        /* \"#utility.yul\":5807:5810   */\n      0x00\n        /* \"#utility.yul\":5828:5833   */\n      dup2\n        /* \"#utility.yul\":5821:5833   */\n      swap1\n      pop\n        /* \"#utility.yul\":5764:5839   */\n      swap2\n      swap1\n      pop\n      jump\t// out\n        /* \"#utility.yul\":5845:6114   */\n    tag_49:\n        /* \"#utility.yul\":5955:5994   */\n      tag_122\n        /* \"#utility.yul\":5986:5993   */\n      dup4\n        /* \"#utility.yul\":5955:5994   */\n      tag_47\n      jump\t// in\n    tag_122:\n        /* \"#utility.yul\":6016:6107   */\n      tag_123\n        /* \"#utility.yul\":6065:6106   */\n      tag_124\n        /* \"#utility.yul\":6089:6105   */\n      dup3\n        /* \"#utility.yul\":6065:6106   */\n      tag_48\n      jump\t// in\n    tag_124:\n        /* \"#utility.yul\":6057:6063   */\n      dup5\n        /* \"#utility.yul\":6050:6054   */\n      dup5\n        /* \"#utility.yul\":6044:6055   */\n      sload\n        /* \"#utility.yul\":6016:6107   */\n      tag_44\n      jump\t// in\n    tag_123:\n        /* \"#utility.yul\":6010:6014   */\n      dup3\n        /* \"#utility.yul\":6003:6108   */\n      sstore\n        /* \"#utility.yul\":5921:6114   */\n      pop\n        /* \"#utility.yul\":5845:6114   */\n      pop\n      pop\n      pop\n      jump\t// out\n        /* \"#utility.yul\":6120:6193   */\n    tag_50:\n        /* \"#utility.yul\":6165:6168   */\n      0x00\n        /* \"#utility.yul\":6120:6193   */\n      swap1\n      jump\t// out\n        /* \"#utility.yul\":6199:6388   */\n    tag_51:\n        /* \"#utility.yul\":6276:6308   */\n      tag_127\n      tag_50\n      jump\t// in\n    tag_127:\n        /* \"#utility.yul\":6317:6382   */\n      tag_128\n        /* \"#utility.yul\":6375:6381   */\n      dup2\n        /* \"#utility.yul\":6367:6373   */\n      dup5\n        /* \"#utility.yul\":6361:6365   */\n      dup5\n        /* \"#utility.yul\":6317:6382   */\n      tag_49\n      jump\t// in\n    tag_128:\n        /* \"#utility.yul\":6252:6388   */\n      pop\n        /* \"#utility.yul\":6199:6388   */\n      pop\n      pop\n      jump\t// out\n        /* \"#utility.yul\":6394:6580   */\n    tag_52:\n        /* \"#utility.yul\":6454:6574   */\n    tag_130:\n        /* \"#utility.yul\":6471:6474   */\n      dup2\n        /* \"#utility.yul\":6464:6469   */\n      dup2\n        /* \"#utility.yul\":6461:6475   */\n      lt\n        /* \"#utility.yul\":6454:6574   */\n      iszero\n      tag_132\n      jumpi\n        /* \"#utility.yul\":6525:6564   */\n      tag_133\n        /* \"#utility.yul\":6562:6563   */\n      0x00\n        /* \"#utility.yul\":6555:6560   */\n      dup3\n        /* \"#utility.yul\":6525:6564   */\n      tag_51\n      jump\t// in\n    tag_133:\n        /* \"#utility.yul\":6498:6499   */\n      0x01\n        /* \"#utility.yul\":6491:6496   */\n      dup2\n        /* \"#utility.yul\":6487:6500   */\n      add\n        /* \"#utility.yul\":6478:6500   */\n      swap1\n      pop\n        /* \"#utility.yul\":6454:6574   */\n      jump(tag_130)\n    tag_132:\n        /* \"#utility.yul\":6394:6580   */\n      pop\n      pop\n      jump\t// out\n        /* \"#utility.yul\":6586:7129   */\n    tag_53:\n        /* \"#utility.yul\":6687:6689   */\n      0x1f\n        /* \"#utility.yul\":6682:6685   */\n      dup3\n        /* \"#utility.yul\":6679:6690   */\n      gt\n        /* \"#utility.yul\":6676:7122   */\n      iszero\n      tag_135\n      jumpi\n        /* \"#utility.yul\":6721:6759   */\n      tag_136\n        /* \"#utility.yul\":6753:6758   */\n      dup2\n        /* \"#utility.yul\":6721:6759   */\n      tag_41\n      jump\t// in\n    tag_136:\n        /* \"#utility.yul\":6805:6834   */\n      tag_137\n        /* \"#utility.yul\":6823:6833   */\n      dup5\n        /* \"#utility.yul\":6805:6834   */\n      tag_42\n      jump\t// in\n    tag_137:\n        /* \"#utility.yul\":6795:6803   */\n      dup2\n        /* \"#utility.yul\":6791:6835   */\n      add\n        /* \"#utility.yul\":6988:6990   */\n      0x20\n        /* \"#utility.yul\":6976:6986   */\n      dup6\n        /* \"#utility.yul\":6973:6991   */\n      lt\n        /* \"#utility.yul\":6970:7019   */\n      iszero\n      tag_138\n      jumpi\n        /* \"#utility.yul\":7009:7017   */\n      dup2\n        /* \"#utility.yul\":6994:7017   */\n      swap1\n      pop\n        /* \"#utility.yul\":6970:7019   */\n    tag_138:\n        /* \"#utility.yul\":7032:7112   */\n      tag_139\n        /* \"#utility.yul\":7088:7110   */\n      tag_140\n        /* \"#utility.yul\":7106:7109   */\n      dup6\n        /* \"#utility.yul\":7088:7110   */\n      tag_42\n      jump\t// in\n    tag_140:\n        /* \"#utility.yul\":7078:7086   */\n      dup4\n        /* \"#utility.yul\":7074:7111   */\n      add\n        /* \"#utility.yul\":7061:7072   */\n      dup3\n        /* \"#utility.yul\":7032:7112   */\n      tag_52\n      jump\t// in\n    tag_139:\n        /* \"#utility.yul\":6691:7122   */\n      pop\n      pop\n        /* \"#utility.yul\":6676:7122   */\n    tag_135:\n        /* \"#utility.yul\":6586:7129   */\n      pop\n      pop\n      pop\n      jump\t// out\n        /* \"#utility.yul\":7135:7252   */\n    tag_54:\n        /* \"#utility.yul\":7189:7197   */\n      0x00\n        /* \"#utility.yul\":7239:7244   */\n      dup3\n        /* \"#utility.yul\":7233:7237   */\n      dup3\n        /* \"#utility.yul\":7229:7245   */\n      shr\n        /* \"#utility.yul\":7208:7245   */\n      swap1\n      pop\n        /* \"#utility.yul\":7135:7252   */\n      swap3\n      swap2\n      pop\n      pop\n      jump\t// out\n        /* \"#utility.yul\":7258:7427   */\n    tag_55:\n        /* \"#utility.yul\":7302:7308   */\n      0x00\n        /* \"#utility.yul\":7335:7386   */\n      tag_143\n        /* \"#utility.yul\":7383:7384   */\n      0x00\n        /* \"#utility.yul\":7379:7385   */\n      not\n        /* \"#utility.yul\":7371:7376   */\n      dup5\n        /* \"#utility.yul\":7368:7369   */\n      0x08\n        /* \"#utility.yul\":7364:7377   */\n      mul\n        /* \"#utility.yul\":7335:7386   */\n      tag_54\n      jump\t// in\n    tag_143:\n        /* \"#utility.yul\":7331:7387   */\n      not\n        /* \"#utility.yul\":7416:7420   */\n      dup1\n        /* \"#utility.yul\":7410:7414   */\n      dup4\n        /* \"#utility.yul\":7406:7421   */\n      and\n        /* \"#utility.yul\":7396:7421   */\n      swap2\n      pop\n        /* \"#utility.yul\":7309:7427   */\n      pop\n        /* \"#utility.yul\":7258:7427   */\n      swap3\n      swap2\n      pop\n      pop\n      jump\t// out\n        /* \"#utility.yul\":7432:7727   */\n    tag_56:\n        /* \"#utility.yul\":7508:7512   */\n      0x00\n        /* \"#utility.yul\":7654:7683   */\n      tag_145\n        /* \"#utility.yul\":7679:7682   */\n      dup4\n        /* \"#utility.yul\":7673:7677   */\n      dup4\n        /* \"#utility.yul\":7654:7683   */\n      tag_55\n      jump\t// in\n    tag_145:\n        /* \"#utility.yul\":7646:7683   */\n      swap2\n      pop\n        /* \"#utility.yul\":7716:7719   */\n      dup3\n        /* \"#utility.yul\":7713:7714   */\n      0x02\n        /* \"#utility.yul\":7709:7720   */\n      mul\n        /* \"#utility.yul\":7703:7707   */\n      dup3\n        /* \"#utility.yul\":7700:7721   */\n      or\n        /* \"#utility.yul\":7692:7721   */\n      swap1\n      pop\n        /* \"#utility.yul\":7432:7727   */\n      swap3\n      swap2\n      pop\n      pop\n      jump\t// out\n        /* \"#utility.yul\":7732:9127   */\n    tag_22:\n        /* \"#utility.yul\":7849:7886   */\n      tag_147\n        /* \"#utility.yul\":7882:7885   */\n      dup3\n        /* \"#utility.yul\":7849:7886   */\n      tag_23\n      jump\t// in\n    tag_147:\n        /* \"#utility.yul\":7951:7969   */\n      0xffffffffffffffff\n        /* \"#utility.yul\":7943:7949   */\n      dup2\n        /* \"#utility.yul\":7940:7970   */\n      gt\n        /* \"#utility.yul\":7937:7993   */\n      iszero\n      tag_148\n      jumpi\n        /* \"#utility.yul\":7973:7991   */\n      tag_149\n      tag_33\n      jump\t// in\n    tag_149:\n        /* \"#utility.yul\":7937:7993   */\n    tag_148:\n        /* \"#utility.yul\":8017:8055   */\n      tag_150\n        /* \"#utility.yul\":8049:8053   */\n      dup3\n        /* \"#utility.yul\":8043:8054   */\n      sload\n        /* \"#utility.yul\":8017:8055   */\n      tag_15\n      jump\t// in\n    tag_150:\n        /* \"#utility.yul\":8102:8169   */\n      tag_151\n        /* \"#utility.yul\":8162:8168   */\n      dup3\n        /* \"#utility.yul\":8154:8160   */\n      dup3\n        /* \"#utility.yul\":8148:8152   */\n      dup6\n        /* \"#utility.yul\":8102:8169   */\n      tag_53\n      jump\t// in\n    tag_151:\n        /* \"#utility.yul\":8196:8197   */\n      0x00\n        /* \"#utility.yul\":8220:8224   */\n      0x20\n        /* \"#utility.yul\":8207:8224   */\n      swap1\n      pop\n        /* \"#utility.yul\":8252:8254   */\n      0x1f\n        /* \"#utility.yul\":8244:8250   */\n      dup4\n        /* \"#utility.yul\":8241:8255   */\n      gt\n        /* \"#utility.yul\":8269:8270   */\n      0x01\n        /* \"#utility.yul\":8264:8882   */\n      dup2\n      eq\n      tag_153\n      jumpi\n        /* \"#utility.yul\":8926:8927   */\n      0x00\n        /* \"#utility.yul\":8943:8949   */\n      dup5\n        /* \"#utility.yul\":8940:9017   */\n      iszero\n      tag_154\n      jumpi\n        /* \"#utility.yul\":8992:9001   */\n      dup3\n        /* \"#utility.yul\":8987:8990   */\n      dup8\n        /* \"#utility.yul\":8983:9002   */\n      add\n        /* \"#utility.yul\":8977:9003   */\n      mload\n        /* \"#utility.yul\":8968:9003   */\n      swap1\n      pop\n        /* \"#utility.yul\":8940:9017   */\n    tag_154:\n        /* \"#utility.yul\":9043:9110   */\n      tag_155\n        /* \"#utility.yul\":9103:9109   */\n      dup6\n        /* \"#utility.yul\":9096:9101   */\n      dup3\n        /* \"#utility.yul\":9043:9110   */\n      tag_56\n      jump\t// in\n    tag_155:\n        /* \"#utility.yul\":9037:9041   */\n      dup7\n        /* \"#utility.yul\":9030:9111   */\n      sstore\n        /* \"#utility.yul\":8899:9121   */\n      pop\n        /* \"#utility.yul\":8234:9121   */\n      jump(tag_152)\n        /* \"#utility.yul\":8264:8882   */\n    tag_153:\n        /* \"#utility.yul\":8316:8320   */\n      0x1f\n        /* \"#utility.yul\":8312:8321   */\n      not\n        /* \"#utility.yul\":8304:8310   */\n      dup5\n        /* \"#utility.yul\":8300:8322   */\n      and\n        /* \"#utility.yul\":8350:8387   */\n      tag_156\n        /* \"#utility.yul\":8382:8386   */\n      dup7\n        /* \"#utility.yul\":8350:8387   */\n      tag_41\n      jump\t// in\n    tag_156:\n        /* \"#utility.yul\":8409:8410   */\n      0x00\n        /* \"#utility.yul\":8423:8631   */\n    tag_157:\n        /* \"#utility.yul\":8437:8444   */\n      dup3\n        /* \"#utility.yul\":8434:8435   */\n      dup2\n        /* \"#utility.yul\":8431:8445   */\n      lt\n        /* \"#utility.yul\":8423:8631   */\n      iszero\n      tag_159\n      jumpi\n        /* \"#utility.yul\":8516:8525   */\n      dup5\n        /* \"#utility.yul\":8511:8514   */\n      dup10\n        /* \"#utility.yul\":8507:8526   */\n      add\n        /* \"#utility.yul\":8501:8527   */\n      mload\n        /* \"#utility.yul\":8493:8499   */\n      dup3\n        /* \"#utility.yul\":8486:8528   */\n      sstore\n        /* \"#utility.yul\":8567:8568   */\n      0x01\n        /* \"#utility.yul\":8559:8565   */\n      dup3\n        /* \"#utility.yul\":8555:8569   */\n      add\n        /* \"#utility.yul\":8545:8569   */\n      swap2\n      pop\n        /* \"#utility.yul\":8614:8616   */\n      0x20\n        /* \"#utility.yul\":8603:8612   */\n      dup6\n        /* \"#utility.yul\":8599:8617   */\n      add\n        /* \"#utility.yul\":8586:8617   */\n      swap5\n      pop\n        /* \"#utility.yul\":8460:8464   */\n      0x20\n        /* \"#utility.yul\":8457:8458   */\n      dup2\n        /* \"#utility.yul\":8453:8465   */\n      add\n        /* \"#utility.yul\":8448:8465   */\n      swap1\n      pop\n        /* \"#utility.yul\":8423:8631   */\n      jump(tag_157)\n    tag_159:\n        /* \"#utility.yul\":8659:8665   */\n      dup7\n        /* \"#utility.yul\":8650:8657   */\n      dup4\n        /* \"#utility.yul\":8647:8666   */\n      lt\n        /* \"#utility.yul\":8644:8823   */\n      iszero\n      tag_160\n      jumpi\n        /* \"#utility.yul\":8717:8726   */\n      dup5\n        /* \"#utility.yul\":8712:8715   */\n      dup10\n        /* \"#utility.yul\":8708:8727   */\n      add\n        /* \"#utility.yul\":8702:8728   */\n      mload\n        /* \"#utility.yul\":8760:8808   */\n      tag_161\n        /* \"#utility.yul\":8802:8806   */\n      0x1f\n        /* \"#utility.yul\":8794:8800   */\n      dup10\n        /* \"#utility.yul\":8790:8807   */\n      and\n        /* \"#utility.yul\":8779:8788   */\n      dup3\n        /* \"#utility.yul\":8760:8808   */\n      tag_55\n      jump\t// in\n    tag_161:\n        /* \"#utility.yul\":8752:8758   */\n      dup4\n        /* \"#utility.yul\":8745:8809   */\n      sstore\n        /* \"#utility.yul\":8667:8823   */\n      pop\n        /* \"#utility.yul\":8644:8823   */\n    tag_160:\n        /* \"#utility.yul\":8869:8870   */\n      0x01\n        /* \"#utility.yul\":8865:8866   */\n      0x02\n        /* \"#utility.yul\":8857:8863   */\n      dup9\n        /* \"#utility.yul\":8853:8867   */\n      mul\n        /* \"#utility.yul\":8849:8871   */\n      add\n        /* \"#utility.yul\":8843:8847   */\n      dup9\n        /* \"#utility.yul\":8836:8872   */\n      sstore\n        /* \"#utility.yul\":8271:8882   */\n      pop\n      pop\n      pop\n        /* \"#utility.yul\":8234:9121   */\n    tag_152:\n      pop\n        /* \"#utility.yul\":7824:9127   */\n      pop\n      pop\n      pop\n        /* \"#utility.yul\":7732:9127   */\n      pop\n      pop\n      jump\t// out\n\n    auxdata: 0xa264697066735822122065906112b69de0c5f493c1d568396203e57cccf71954117a35ae3a7904f3703a64736f6c634300081a0033\n}\n",
				"bytecode": {
					"linkReferences": {},
					"object": "6080604052348015600e575f80fd5b5061062f8061001c5f395ff3fe608060405234801561000f575f80fd5b5060043610610034575f3560e01c80633bc5de301461003857806347064d6a14610056575b5f80fd5b610040610072565b60405161004d9190610183565b60405180910390f35b610070600480360381019061006b91906102e0565b610101565b005b60605f805461008090610354565b80601f01602080910402602001604051908101604052809291908181526020018280546100ac90610354565b80156100f75780601f106100ce576101008083540402835291602001916100f7565b820191905f5260205f20905b8154815290600101906020018083116100da57829003601f168201915b5050505050905090565b805f908161010f919061052a565b5050565b5f81519050919050565b5f82825260208201905092915050565b8281835e5f83830152505050565b5f601f19601f8301169050919050565b5f61015582610113565b61015f818561011d565b935061016f81856020860161012d565b6101788161013b565b840191505092915050565b5f6020820190508181035f83015261019b818461014b565b905092915050565b5f604051905090565b5f80fd5b5f80fd5b5f80fd5b5f80fd5b7f4e487b71000000000000000000000000000000000000000000000000000000005f52604160045260245ffd5b6101f28261013b565b810181811067ffffffffffffffff82111715610211576102106101bc565b5b80604052505050565b5f6102236101a3565b905061022f82826101e9565b919050565b5f67ffffffffffffffff82111561024e5761024d6101bc565b5b6102578261013b565b9050602081019050919050565b828183375f83830152505050565b5f61028461027f84610234565b61021a565b9050828152602081018484840111156102a05761029f6101b8565b5b6102ab848285610264565b509392505050565b5f82601f8301126102c7576102c66101b4565b5b81356102d7848260208601610272565b91505092915050565b5f602082840312156102f5576102f46101ac565b5b5f82013567ffffffffffffffff811115610312576103116101b0565b5b61031e848285016102b3565b91505092915050565b7f4e487b71000000000000000000000000000000000000000000000000000000005f52602260045260245ffd5b5f600282049050600182168061036b57607f821691505b60208210810361037e5761037d610327565b5b50919050565b5f819050815f5260205f209050919050565b5f6020601f8301049050919050565b5f82821b905092915050565b5f600883026103e07fffffffffffffffffffffffffffffffffffffffffffffffffffffffffffffffff826103a5565b6103ea86836103a5565b95508019841693508086168417925050509392505050565b5f819050919050565b5f819050919050565b5f61042e61042961042484610402565b61040b565b610402565b9050919050565b5f819050919050565b61044783610414565b61045b61045382610435565b8484546103b1565b825550505050565b5f90565b61046f610463565b61047a81848461043e565b505050565b5b8181101561049d576104925f82610467565b600181019050610480565b5050565b601f8211156104e2576104b381610384565b6104bc84610396565b810160208510156104cb578190505b6104df6104d785610396565b83018261047f565b50505b505050565b5f82821c905092915050565b5f6105025f19846008026104e7565b1980831691505092915050565b5f61051a83836104f3565b9150826002028217905092915050565b61053382610113565b67ffffffffffffffff81111561054c5761054b6101bc565b5b6105568254610354565b6105618282856104a1565b5f60209050601f831160018114610592575f8415610580578287015190505b61058a858261050f565b8655506105f1565b601f1984166105a086610384565b5f5b828110156105c7578489015182556001820191506020850194506020810190506105a2565b868310156105e457848901516105e0601f8916826104f3565b8355505b6001600288020188555050505b50505050505056fea264697066735822122065906112b69de0c5f493c1d568396203e57cccf71954117a35ae3a7904f3703a64736f6c634300081a0033",
					"opcodes": "PUSH1 0x80 PUSH1 0x40 MSTORE CALLVALUE DUP1 ISZERO PUSH1 0xE JUMPI PUSH0 DUP1 REVERT JUMPDEST POP PUSH2 0x62F DUP1 PUSH2 0x1C PUSH0 CODECOPY PUSH0 RETURN INVALID PUSH1 0x80 PUSH1 0x40 MSTORE CALLVALUE DUP1 ISZERO PUSH2 0xF JUMPI PUSH0 DUP1 REVERT JUMPDEST POP PUSH1 0x4 CALLDATASIZE LT PUSH2 0x34 JUMPI PUSH0 CALLDATALOAD PUSH1 0xE0 SHR DUP1 PUSH4 0x3BC5DE30 EQ PUSH2 0x38 JUMPI DUP1 PUSH4 0x47064D6A EQ PUSH2 0x56 JUMPI JUMPDEST PUSH0 DUP1 REVERT JUMPDEST PUSH2 0x40 PUSH2 0x72 JUMP JUMPDEST PUSH1 0x40 MLOAD PUSH2 0x4D SWAP2 SWAP1 PUSH2 0x183 JUMP JUMPDEST PUSH1 0x40 MLOAD DUP1 SWAP2 SUB SWAP1 RETURN JUMPDEST PUSH2 0x70 PUSH1 0x4 DUP1 CALLDATASIZE SUB DUP2 ADD SWAP1 PUSH2 0x6B SWAP2 SWAP1 PUSH2 0x2E0 JUMP JUMPDEST PUSH2 0x101 JUMP JUMPDEST STOP JUMPDEST PUSH1 0x60 PUSH0 DUP1 SLOAD PUSH2 0x80 SWAP1 PUSH2 0x354 JUMP JUMPDEST DUP1 PUSH1 0x1F ADD PUSH1 0x20 DUP1 SWAP2 DIV MUL PUSH1 0x20 ADD PUSH1 0x40 MLOAD SWAP1 DUP2 ADD PUSH1 0x40 MSTORE DUP1 SWAP3 SWAP2 SWAP1 DUP2 DUP2 MSTORE PUSH1 0x20 ADD DUP3 DUP1 SLOAD PUSH2 0xAC SWAP1 PUSH2 0x354 JUMP JUMPDEST DUP1 ISZERO PUSH2 0xF7 JUMPI DUP1 PUSH1 0x1F LT PUSH2 0xCE JUMPI PUSH2 0x100 DUP1 DUP4 SLOAD DIV MUL DUP4 MSTORE SWAP2 PUSH1 0x20 ADD SWAP2 PUSH2 0xF7 JUMP JUMPDEST DUP3 ADD SWAP2 SWAP1 PUSH0 MSTORE PUSH1 0x20 PUSH0 KECCAK256 SWAP1 JUMPDEST DUP2 SLOAD DUP2 MSTORE SWAP1 PUSH1 0x1 ADD SWAP1 PUSH1 0x20 ADD DUP1 DUP4 GT PUSH2 0xDA JUMPI DUP3 SWAP1 SUB PUSH1 0x1F AND DUP3 ADD SWAP2 JUMPDEST POP POP POP POP POP SWAP1 POP SWAP1 JUMP JUMPDEST DUP1 PUSH0 SWAP1 DUP2 PUSH2 0x10F SWAP2 SWAP1 PUSH2 0x52A JUMP JUMPDEST POP POP JUMP JUMPDEST PUSH0 DUP2 MLOAD SWAP1 POP SWAP2 SWAP1 POP JUMP JUMPDEST PUSH0 DUP3 DUP3 MSTORE PUSH1 0x20 DUP3 ADD SWAP1 POP SWAP3 SWAP2 POP POP JUMP JUMPDEST DUP3 DUP2 DUP4 MCOPY PUSH0 DUP4 DUP4 ADD MSTORE POP POP POP JUMP JUMPDEST PUSH0 PUSH1 0x1F NOT PUSH1 0x1F DUP4 ADD AND SWAP1 POP SWAP2 SWAP1 POP JUMP JUMPDEST PUSH0 PUSH2 0x155 DUP3 PUSH2 0x113 JUMP JUMPDEST PUSH2 0x15F DUP2 DUP6 PUSH2 0x11D JUMP JUMPDEST SWAP4 POP PUSH2 0x16F DUP2 DUP6 PUSH1 0x20 DUP7 ADD PUSH2 0x12D JUMP JUMPDEST PUSH2 0x178 DUP2 PUSH2 0x13B JUMP JUMPDEST DUP5 ADD SWAP2 POP POP SWAP3 SWAP2 POP POP JUMP JUMPDEST PUSH0 PUSH1 0x20 DUP3 ADD SWAP1 POP DUP2 DUP2 SUB PUSH0 DUP4 ADD MSTORE PUSH2 0x19B DUP2 DUP5 PUSH2 0x14B JUMP JUMPDEST SWAP1 POP SWAP3 SWAP2 POP POP JUMP JUMPDEST PUSH0 PUSH1 0x40 MLOAD SWAP1 POP SWAP1 JUMP JUMPDEST PUSH0 DUP1 REVERT JUMPDEST PUSH0 DUP1 REVERT JUMPDEST PUSH0 DUP1 REVERT JUMPDEST PUSH0 DUP1 REVERT JUMPDEST PUSH32 0x4E487B7100000000000000000000000000000000000000000000000000000000 PUSH0 MSTORE PUSH1 0x41 PUSH1 0x4 MSTORE PUSH1 0x24 PUSH0 REVERT JUMPDEST PUSH2 0x1F2 DUP3 PUSH2 0x13B JUMP JUMPDEST DUP2 ADD DUP2 DUP2 LT PUSH8 0xFFFFFFFFFFFFFFFF DUP3 GT OR ISZERO PUSH2 0x211 JUMPI PUSH2 0x210 PUSH2 0x1BC JUMP JUMPDEST JUMPDEST DUP1 PUSH1 0x40 MSTORE POP POP POP JUMP JUMPDEST PUSH0 PUSH2 0x223 PUSH2 0x1A3 JUMP JUMPDEST SWAP1 POP PUSH2 0x22F DUP3 DUP3 PUSH2 0x1E9 JUMP JUMPDEST SWAP2 SWAP1 POP JUMP JUMPDEST PUSH0 PUSH8 0xFFFFFFFFFFFFFFFF DUP3 GT ISZERO PUSH2 0x24E JUMPI PUSH2 0x24D PUSH2 0x1BC JUMP JUMPDEST JUMPDEST PUSH2 0x257 DUP3 PUSH2 0x13B JUMP JUMPDEST SWAP1 POP PUSH1 0x20 DUP2 ADD SWAP1 POP SWAP2 SWAP1 POP JUMP JUMPDEST DUP3 DUP2 DUP4 CALLDATACOPY PUSH0 DUP4 DUP4 ADD MSTORE POP POP POP JUMP JUMPDEST PUSH0 PUSH2 0x284 PUSH2 0x27F DUP5 PUSH2 0x234 JUMP JUMPDEST PUSH2 0x21A JUMP JUMPDEST SWAP1 POP DUP3 DUP2 MSTORE PUSH1 0x20 DUP2 ADD DUP5 DUP5 DUP5 ADD GT ISZERO PUSH2 0x2A0 JUMPI PUSH2 0x29F PUSH2 0x1B8 JUMP JUMPDEST JUMPDEST PUSH2 0x2AB DUP5 DUP3 DUP6 PUSH2 0x264 JUMP JUMPDEST POP SWAP4 SWAP3 POP POP POP JUMP JUMPDEST PUSH0 DUP3 PUSH1 0x1F DUP4 ADD SLT PUSH2 0x2C7 JUMPI PUSH2 0x2C6 PUSH2 0x1B4 JUMP JUMPDEST JUMPDEST DUP2 CALLDATALOAD PUSH2 0x2D7 DUP5 DUP3 PUSH1 0x20 DUP7 ADD PUSH2 0x272 JUMP JUMPDEST SWAP2 POP POP SWAP3 SWAP2 POP POP JUMP JUMPDEST PUSH0 PUSH1 0x20 DUP3 DUP5 SUB SLT ISZERO PUSH2 0x2F5 JUMPI PUSH2 0x2F4 PUSH2 0x1AC JUMP JUMPDEST JUMPDEST PUSH0 DUP3 ADD CALLDATALOAD PUSH8 0xFFFFFFFFFFFFFFFF DUP2 GT ISZERO PUSH2 0x312 JUMPI PUSH2 0x311 PUSH2 0x1B0 JUMP JUMPDEST JUMPDEST PUSH2 0x31E DUP5 DUP3 DUP6 ADD PUSH2 0x2B3 JUMP JUMPDEST SWAP2 POP POP SWAP3 SWAP2 POP POP JUMP JUMPDEST PUSH32 0x4E487B7100000000000000000000000000000000000000000000000000000000 PUSH0 MSTORE PUSH1 0x22 PUSH1 0x4 MSTORE PUSH1 0x24 PUSH0 REVERT JUMPDEST PUSH0 PUSH1 0x2 DUP3 DIV SWAP1 POP PUSH1 0x1 DUP3 AND DUP1 PUSH2 0x36B JUMPI PUSH1 0x7F DUP3 AND SWAP2 POP JUMPDEST PUSH1 0x20 DUP3 LT DUP2 SUB PUSH2 0x37E JUMPI PUSH2 0x37D PUSH2 0x327 JUMP JUMPDEST JUMPDEST POP SWAP2 SWAP1 POP JUMP JUMPDEST PUSH0 DUP2 SWAP1 POP DUP2 PUSH0 MSTORE PUSH1 0x20 PUSH0 KECCAK256 SWAP1 POP SWAP2 SWAP1 POP JUMP JUMPDEST PUSH0 PUSH1 0x20 PUSH1 0x1F DUP4 ADD DIV SWAP1 POP SWAP2 SWAP1 POP JUMP JUMPDEST PUSH0 DUP3 DUP3 SHL SWAP1 POP SWAP3 SWAP2 POP POP JUMP JUMPDEST PUSH0 PUSH1 0x8 DUP4 MUL PUSH2 0x3E0 PUSH32 0xFFFFFFFFFFFFFFFFFFFFFFFFFFFFFFFFFFFFFFFFFFFFFFFFFFFFFFFFFFFFFFFF DUP3 PUSH2 0x3A5 JUMP JUMPDEST PUSH2 0x3EA DUP7 DUP4 PUSH2 0x3A5 JUMP JUMPDEST SWAP6 POP DUP1 NOT DUP5 AND SWAP4 POP DUP1 DUP7 AND DUP5 OR SWAP3 POP POP POP SWAP4 SWAP3 POP POP POP JUMP JUMPDEST PUSH0 DUP2 SWAP1 POP SWAP2 SWAP1 POP JUMP JUMPDEST PUSH0 DUP2 SWAP1 POP SWAP2 SWAP1 POP JUMP JUMPDEST PUSH0 PUSH2 0x42E PUSH2 0x429 PUSH2 0x424 DUP5 PUSH2 0x402 JUMP JUMPDEST PUSH2 0x40B JUMP JUMPDEST PUSH2 0x402 JUMP JUMPDEST SWAP1 POP SWAP2 SWAP1 POP JUMP JUMPDEST PUSH0 DUP2 SWAP1 POP SWAP2 SWAP1 POP JUMP JUMPDEST PUSH2 0x447 DUP4 PUSH2 0x414 JUMP JUMPDEST PUSH2 0x45B PUSH2 0x453 DUP3 PUSH2 0x435 JUMP JUMPDEST DUP5 DUP5 SLOAD PUSH2 0x3B1 JUMP JUMPDEST DUP3 SSTORE POP POP POP POP JUMP JUMPDEST PUSH0 SWAP1 JUMP JUMPDEST PUSH2 0x46F PUSH2 0x463 JUMP JUMPDEST PUSH2 0x47A DUP2 DUP5 DUP5 PUSH2 0x43E JUMP JUMPDEST POP POP POP JUMP JUMPDEST JUMPDEST DUP2 DUP2 LT ISZERO PUSH2 0x49D JUMPI PUSH2 0x492 PUSH0 DUP3 PUSH2 0x467 JUMP JUMPDEST PUSH1 0x1 DUP2 ADD SWAP1 POP PUSH2 0x480 JUMP JUMPDEST POP POP JUMP JUMPDEST PUSH1 0x1F DUP3 GT ISZERO PUSH2 0x4E2 JUMPI PUSH2 0x4B3 DUP2 PUSH2 0x384 JUMP JUMPDEST PUSH2 0x4BC DUP5 PUSH2 0x396 JUMP JUMPDEST DUP2 ADD PUSH1 0x20 DUP6 LT ISZERO PUSH2 0x4CB JUMPI DUP2 SWAP1 POP JUMPDEST PUSH2 0x4DF PUSH2 0x4D7 DUP6 PUSH2 0x396 JUMP JUMPDEST DUP4 ADD DUP3 PUSH2 0x47F JUMP JUMPDEST POP POP JUMPDEST POP POP POP JUMP JUMPDEST PUSH0 DUP3 DUP3 SHR SWAP1 POP SWAP3 SWAP2 POP POP JUMP JUMPDEST PUSH0 PUSH2 0x502 PUSH0 NOT DUP5 PUSH1 0x8 MUL PUSH2 0x4E7 JUMP JUMPDEST NOT DUP1 DUP4 AND SWAP2 POP POP SWAP3 SWAP2 POP POP JUMP JUMPDEST PUSH0 PUSH2 0x51A DUP4 DUP4 PUSH2 0x4F3 JUMP JUMPDEST SWAP2 POP DUP3 PUSH1 0x2 MUL DUP3 OR SWAP1 POP SWAP3 SWAP2 POP POP JUMP JUMPDEST PUSH2 0x533 DUP3 PUSH2 0x113 JUMP JUMPDEST PUSH8 0xFFFFFFFFFFFFFFFF DUP2 GT ISZERO PUSH2 0x54C JUMPI PUSH2 0x54B PUSH2 0x1BC JUMP JUMPDEST JUMPDEST PUSH2 0x556 DUP3 SLOAD PUSH2 0x354 JUMP JUMPDEST PUSH2 0x561 DUP3 DUP3 DUP6 PUSH2 0x4A1 JUMP JUMPDEST PUSH0 PUSH1 0x20 SWAP1 POP PUSH1 0x1F DUP4 GT PUSH1 0x1 DUP2 EQ PUSH2 0x592 JUMPI PUSH0 DUP5 ISZERO PUSH2 0x580 JUMPI DUP3 DUP8 ADD MLOAD SWAP1 POP JUMPDEST PUSH2 0x58A DUP6 DUP3 PUSH2 0x50F JUMP JUMPDEST DUP7 SSTORE POP PUSH2 0x5F1 JUMP JUMPDEST PUSH1 0x1F NOT DUP5 AND PUSH2 0x5A0 DUP7 PUSH2 0x384 JUMP JUMPDEST PUSH0 JUMPDEST DUP3 DUP2 LT ISZERO PUSH2 0x5C7 JUMPI DUP5 DUP10 ADD MLOAD DUP3 SSTORE PUSH1 0x1 DUP3 ADD SWAP2 POP PUSH1 0x20 DUP6 ADD SWAP5 POP PUSH1 0x20 DUP2 ADD SWAP1 POP PUSH2 0x5A2 JUMP JUMPDEST DUP7 DUP4 LT ISZERO PUSH2 0x5E4 JUMPI DUP5 DUP10 ADD MLOAD PUSH2 0x5E0 PUSH1 0x1F DUP10 AND DUP3 PUSH2 0x4F3 JUMP JUMPDEST DUP4 SSTORE POP JUMPDEST PUSH1 0x1 PUSH1 0x2 DUP9 MUL ADD DUP9 SSTORE POP POP POP JUMPDEST POP POP POP POP POP POP JUMP INVALID LOG2 PUSH5 0x6970667358 0x22 SLT KECCAK256 PUSH6 0x906112B69DE0 0xC5 DELEGATECALL SWAP4 0xC1 0xD5 PUSH9 0x396203E57CCCF71954 GT PUSH27 0x35AE3A7904F3703A64736F6C634300081A00330000000000000000 "
				},
				"gasEstimates": {
					"creation": {
						"codeDepositCost": "316600",
						"executionCost": "353",
						"totalCost": "316953"
					},
					"external": {
						"getData()": "infinite",
						"setData(string)": "infinite"
					}
				},
				"methodIdentifiers": {
					"getData()": "3bc5de30",
					"setData(string)": "47064d6a"
				}
			},
			"storageLayout": {
				"storage": [
					{
						"astId": 3,
						"contract": "study_way/src/5day_encodeABI.sol:DataStorage",
						"label": "data",
						"offset": 0,
						"slot": "0",
						"type": "t_string_storage"
					}
				],
				"types": {
					"t_string_storage": {
						"encoding": "bytes",
						"label": "string",
						"numberOfBytes": "32"
					}
				}
			},
			"userdoc": {
				"kind": "user",
				"methods": {},
				"version": 1
			}
		}
	}
}