{
	"study_way/src/3day_bankConstract.sol": {
		"Bank": {
			"abi": [
				{
					"inputs": [],
					"stateMutability": "nonpayable",
					"type": "constructor"
				},
				{
					"anonymous": false,
					"inputs": [
						{
							"indexed": true,
							"internalType": "address",
							"name": "user",
							"type": "address"
						},
						{
							"indexed": false,
							"internalType": "uint256",
							"name": "amount",
							"type": "uint256"
						}
					],
					"name": "Deposit",
					"type": "event"
				},
				{
					"anonymous": false,
					"inputs": [
						{
							"indexed": true,
							"internalType": "address",
							"name": "user",
							"type": "address"
						},
						{
							"indexed": false,
							"internalType": "uint256",
							"name": "amount",
							"type": "uint256"
						}
					],
					"name": "TopUserUpdated",
					"type": "event"
				},
				{
					"anonymous": false,
					"inputs": [
						{
							"indexed": true,
							"internalType": "address",
							"name": "admin",
							"type": "address"
						},
						{
							"indexed": false,
							"internalType": "uint256",
							"name": "amount",
							"type": "uint256"
						}
					],
					"name": "Withdraw",
					"type": "event"
				},
				{
					"stateMutability": "payable",
					"type": "fallback"
				},
				{
					"inputs": [],
					"name": "admin",
					"outputs": [
						{
							"internalType": "address",
							"name": "",
							"type": "address"
						}
					],
					"stateMutability": "view",
					"type": "function"
				},
				{
					"inputs": [
						{
							"internalType": "address",
							"name": "",
							"type": "address"
						}
					],
					"name": "balances",
					"outputs": [
						{
							"internalType": "uint256",
							"name": "",
							"type": "uint256"
						}
					],
					"stateMutability": "view",
					"type": "function"
				},
				{
					"inputs": [],
					"name": "deposit",
					"outputs": [],
					"stateMutability": "payable",
					"type": "function"
				},
				{
					"inputs": [],
					"name": "getContractBalance",
					"outputs": [
						{
							"internalType": "uint256",
							"name": "",
							"type": "uint256"
						}
					],
					"stateMutability": "view",
					"type": "function"
				},
				{
					"inputs": [],
					"name": "getTopUsers",
					"outputs": [
						{
							"internalType": "address[]",
							"name": "",
							"type": "address[]"
						},
						{
							"internalType": "uint256[]",
							"name": "",
							"type": "uint256[]"
						}
					],
					"stateMutability": "view",
					"type": "function"
				},
				{
					"inputs": [
						{
							"internalType": "address",
							"name": "user",
							"type": "address"
						}
					],
					"name": "getUserBalance",
					"outputs": [
						{
							"internalType": "uint256",
							"name": "",
							"type": "uint256"
						}
					],
					"stateMutability": "view",
					"type": "function"
				},
				{
					"inputs": [
						{
							"internalType": "uint256",
							"name": "",
							"type": "uint256"
						}
					],
					"name": "topDeposits",
					"outputs": [
						{
							"internalType": "uint256",
							"name": "",
							"type": "uint256"
						}
					],
					"stateMutability": "view",
					"type": "function"
				},
				{
					"inputs": [
						{
							"internalType": "uint256",
							"name": "",
							"type": "uint256"
						}
					],
					"name": "topUsers",
					"outputs": [
						{
							"internalType": "address",
							"name": "",
							"type": "address"
						}
					],
					"stateMutability": "view",
					"type": "function"
				},
				{
					"inputs": [
						{
							"internalType": "uint256",
							"name": "",
							"type": "uint256"
						}
					],
					"name": "users",
					"outputs": [
						{
							"internalType": "address",
							"name": "",
							"type": "address"
						}
					],
					"stateMutability": "view",
					"type": "function"
				},
				{
					"inputs": [],
					"name": "withdraw",
					"outputs": [],
					"stateMutability": "nonpayable",
					"type": "function"
				},
				{
					"stateMutability": "payable",
					"type": "receive"
				}
			],
			"devdoc": {
				"kind": "dev",
				"methods": {},
				"version": 1
			},
			"evm": {
				"assembly": "    /* \"study_way/src/3day_bankConstract.sol\":60:6116  contract Bank {... */\n  mstore(0x40, 0x80)\n    /* \"study_way/src/3day_bankConstract.sol\":1254:1305  constructor() {... */\n  callvalue\n  dup1\n  iszero\n  tag_1\n  jumpi\n  0x00\n  dup1\n  revert\ntag_1:\n  pop\n    /* \"study_way/src/3day_bankConstract.sol\":1287:1297  msg.sender */\n  caller\n    /* \"study_way/src/3day_bankConstract.sol\":1279:1284  admin */\n  0x00\n  dup1\n    /* \"study_way/src/3day_bankConstract.sol\":1279:1297  admin = msg.sender */\n  0x0100\n  exp\n  dup2\n  sload\n  dup2\n  0xffffffffffffffffffffffffffffffffffffffff\n  mul\n  not\n  and\n  swap1\n  dup4\n  0xffffffffffffffffffffffffffffffffffffffff\n  and\n  mul\n  or\n  swap1\n  sstore\n  pop\n    /* \"study_way/src/3day_bankConstract.sol\":60:6116  contract Bank {... */\n  dataSize(sub_0)\n  dup1\n  dataOffset(sub_0)\n  0x00\n  codecopy\n  0x00\n  return\nstop\n\nsub_0: assembly {\n        /* \"study_way/src/3day_bankConstract.sol\":60:6116  contract Bank {... */\n      mstore(0x40, 0x80)\n      jumpi(tag_1, lt(calldatasize, 0x04))\n      shr(0xe0, calldataload(0x00))\n      dup1\n      0x6f9fb98a\n      gt\n      tag_13\n      jumpi\n      dup1\n      0x6f9fb98a\n      eq\n      tag_8\n      jumpi\n      dup1\n      0x91c1aae6\n      eq\n      tag_9\n      jumpi\n      dup1\n      0xd0e30db0\n      eq\n      tag_10\n      jumpi\n      dup1\n      0xf39dfb17\n      eq\n      tag_11\n      jumpi\n      dup1\n      0xf851a440\n      eq\n      tag_12\n      jumpi\n      jump(tag_2)\n    tag_13:\n      dup1\n      0x27e235e3\n      eq\n      tag_3\n      jumpi\n      dup1\n      0x365b98b2\n      eq\n      tag_4\n      jumpi\n      dup1\n      0x3ccfd60b\n      eq\n      tag_5\n      jumpi\n      dup1\n      0x47734892\n      eq\n      tag_6\n      jumpi\n      dup1\n      0x689dbf4e\n      eq\n      tag_7\n      jumpi\n      jump(tag_2)\n    tag_1:\n      jumpi(tag_2, calldatasize)\n        /* \"study_way/src/3day_bankConstract.sol\":5776:5777  0 */\n      0x00\n        /* \"study_way/src/3day_bankConstract.sol\":5764:5773  msg.value */\n      callvalue\n        /* \"study_way/src/3day_bankConstract.sol\":5764:5777  msg.value > 0 */\n      gt\n        /* \"study_way/src/3day_bankConstract.sol\":5756:5822  require(msg.value > 0, \"Deposit amount must be greater than zero\") */\n      tag_16\n      jumpi\n      mload(0x40)\n      0x08c379a000000000000000000000000000000000000000000000000000000000\n      dup2\n      mstore\n      0x04\n      add\n      tag_17\n      swap1\n      tag_18\n      jump\t// in\n    tag_17:\n      mload(0x40)\n      dup1\n      swap2\n      sub\n      swap1\n      revert\n    tag_16:\n        /* \"study_way/src/3day_bankConstract.sol\":5833:5870  _handleDeposit(msg.sender, msg.value) */\n      tag_19\n        /* \"study_way/src/3day_bankConstract.sol\":5848:5858  msg.sender */\n      caller\n        /* \"study_way/src/3day_bankConstract.sol\":5860:5869  msg.value */\n      callvalue\n        /* \"study_way/src/3day_bankConstract.sol\":5833:5847  _handleDeposit */\n      tag_20\n        /* \"study_way/src/3day_bankConstract.sol\":5833:5870  _handleDeposit(msg.sender, msg.value) */\n      jump\t// in\n    tag_19:\n        /* \"study_way/src/3day_bankConstract.sol\":60:6116  contract Bank {... */\n      stop\n    tag_2:\n        /* \"study_way/src/3day_bankConstract.sol\":6011:6012  0 */\n      0x00\n        /* \"study_way/src/3day_bankConstract.sol\":5999:6008  msg.value */\n      callvalue\n        /* \"study_way/src/3day_bankConstract.sol\":5999:6012  msg.value > 0 */\n      gt\n        /* \"study_way/src/3day_bankConstract.sol\":5991:6057  require(msg.value > 0, \"Deposit amount must be greater than zero\") */\n      tag_23\n      jumpi\n      mload(0x40)\n      0x08c379a000000000000000000000000000000000000000000000000000000000\n      dup2\n      mstore\n      0x04\n      add\n      tag_24\n      swap1\n      tag_18\n      jump\t// in\n    tag_24:\n      mload(0x40)\n      dup1\n      swap2\n      sub\n      swap1\n      revert\n    tag_23:\n        /* \"study_way/src/3day_bankConstract.sol\":6068:6105  _handleDeposit(msg.sender, msg.value) */\n      tag_25\n        /* \"study_way/src/3day_bankConstract.sol\":6083:6093  msg.sender */\n      caller\n        /* \"study_way/src/3day_bankConstract.sol\":6095:6104  msg.value */\n      callvalue\n        /* \"study_way/src/3day_bankConstract.sol\":6068:6082  _handleDeposit */\n      tag_20\n        /* \"study_way/src/3day_bankConstract.sol\":6068:6105  _handleDeposit(msg.sender, msg.value) */\n      jump\t// in\n    tag_25:\n        /* \"study_way/src/3day_bankConstract.sol\":60:6116  contract Bank {... */\n      stop\n        /* \"study_way/src/3day_bankConstract.sol\":204:247  mapping(address => uint256) public balances */\n    tag_3:\n      callvalue\n      dup1\n      iszero\n      tag_26\n      jumpi\n      0x00\n      dup1\n      revert\n    tag_26:\n      pop\n      tag_27\n      0x04\n      dup1\n      calldatasize\n      sub\n      dup2\n      add\n      swap1\n      tag_28\n      swap2\n      swap1\n      tag_29\n      jump\t// in\n    tag_28:\n      tag_30\n      jump\t// in\n    tag_27:\n      mload(0x40)\n      tag_31\n      swap2\n      swap1\n      tag_32\n      jump\t// in\n    tag_31:\n      mload(0x40)\n      dup1\n      swap2\n      sub\n      swap1\n      return\n        /* \"study_way/src/3day_bankConstract.sol\":326:348  address[] public users */\n    tag_4:\n      callvalue\n      dup1\n      iszero\n      tag_33\n      jumpi\n      0x00\n      dup1\n      revert\n    tag_33:\n      pop\n      tag_34\n      0x04\n      dup1\n      calldatasize\n      sub\n      dup2\n      add\n      swap1\n      tag_35\n      swap2\n      swap1\n      tag_36\n      jump\t// in\n    tag_35:\n      tag_37\n      jump\t// in\n    tag_34:\n      mload(0x40)\n      tag_38\n      swap2\n      swap1\n      tag_39\n      jump\t// in\n    tag_38:\n      mload(0x40)\n      dup1\n      swap2\n      sub\n      swap1\n      return\n        /* \"study_way/src/3day_bankConstract.sol\":1633:1900  function withdraw() external onlyAdmin {... */\n    tag_5:\n      callvalue\n      dup1\n      iszero\n      tag_40\n      jumpi\n      0x00\n      dup1\n      revert\n    tag_40:\n      pop\n      tag_41\n      tag_42\n      jump\t// in\n    tag_41:\n      stop\n        /* \"study_way/src/3day_bankConstract.sol\":4803:4913  function getUserBalance(address user) external view returns (uint256) {... */\n    tag_6:\n      callvalue\n      dup1\n      iszero\n      tag_43\n      jumpi\n      0x00\n      dup1\n      revert\n    tag_43:\n      pop\n      tag_44\n      0x04\n      dup1\n      calldatasize\n      sub\n      dup2\n      add\n      swap1\n      tag_45\n      swap2\n      swap1\n      tag_29\n      jump\t// in\n    tag_45:\n      tag_46\n      jump\t// in\n    tag_44:\n      mload(0x40)\n      tag_47\n      swap2\n      swap1\n      tag_32\n      jump\t// in\n    tag_47:\n      mload(0x40)\n      dup1\n      swap2\n      sub\n      swap1\n      return\n        /* \"study_way/src/3day_bankConstract.sol\":554:579  address[] public topUsers */\n    tag_7:\n      callvalue\n      dup1\n      iszero\n      tag_48\n      jumpi\n      0x00\n      dup1\n      revert\n    tag_48:\n      pop\n      tag_49\n      0x04\n      dup1\n      calldatasize\n      sub\n      dup2\n      add\n      swap1\n      tag_50\n      swap2\n      swap1\n      tag_36\n      jump\t// in\n    tag_50:\n      tag_51\n      jump\t// in\n    tag_49:\n      mload(0x40)\n      tag_52\n      swap2\n      swap1\n      tag_39\n      jump\t// in\n    tag_52:\n      mload(0x40)\n      dup1\n      swap2\n      sub\n      swap1\n      return\n        /* \"study_way/src/3day_bankConstract.sol\":4969:5078  function getContractBalance() external view returns (uint256) {... */\n    tag_8:\n      callvalue\n      dup1\n      iszero\n      tag_53\n      jumpi\n      0x00\n      dup1\n      revert\n    tag_53:\n      pop\n      tag_54\n      tag_55\n      jump\t// in\n    tag_54:\n      mload(0x40)\n      tag_56\n      swap2\n      swap1\n      tag_32\n      jump\t// in\n    tag_56:\n      mload(0x40)\n      dup1\n      swap2\n      sub\n      swap1\n      return\n        /* \"study_way/src/3day_bankConstract.sol\":437:465  uint256[] public topDeposits */\n    tag_9:\n      callvalue\n      dup1\n      iszero\n      tag_57\n      jumpi\n      0x00\n      dup1\n      revert\n    tag_57:\n      pop\n      tag_58\n      0x04\n      dup1\n      calldatasize\n      sub\n      dup2\n      add\n      swap1\n      tag_59\n      swap2\n      swap1\n      tag_36\n      jump\t// in\n    tag_59:\n      tag_60\n      jump\t// in\n    tag_58:\n      mload(0x40)\n      tag_61\n      swap2\n      swap1\n      tag_32\n      jump\t// in\n    tag_61:\n      mload(0x40)\n      dup1\n      swap2\n      sub\n      swap1\n      return\n        /* \"study_way/src/3day_bankConstract.sol\":1405:1574  function deposit() external payable {... */\n    tag_10:\n      tag_62\n      tag_63\n      jump\t// in\n    tag_62:\n      stop\n        /* \"study_way/src/3day_bankConstract.sol\":4595:4726  function getTopUsers() external view returns (address[] memory, uint256[] memory) {... */\n    tag_11:\n      callvalue\n      dup1\n      iszero\n      tag_64\n      jumpi\n      0x00\n      dup1\n      revert\n    tag_64:\n      pop\n      tag_65\n      tag_66\n      jump\t// in\n    tag_65:\n      mload(0x40)\n      tag_67\n      swap3\n      swap2\n      swap1\n      tag_68\n      jump\t// in\n    tag_67:\n      mload(0x40)\n      dup1\n      swap2\n      sub\n      swap1\n      return\n        /* \"study_way/src/3day_bankConstract.sol\":120:140  address public admin */\n    tag_12:\n      callvalue\n      dup1\n      iszero\n      tag_69\n      jumpi\n      0x00\n      dup1\n      revert\n    tag_69:\n      pop\n      tag_70\n      tag_71\n      jump\t// in\n    tag_70:\n      mload(0x40)\n      tag_72\n      swap2\n      swap1\n      tag_39\n      jump\t// in\n    tag_72:\n      mload(0x40)\n      dup1\n      swap2\n      sub\n      swap1\n      return\n        /* \"study_way/src/3day_bankConstract.sol\":5128:5633  function _handleDeposit(address user, uint256 amount) internal {... */\n    tag_20:\n        /* \"study_way/src/3day_bankConstract.sol\":5318:5319  0 */\n      0x00\n        /* \"study_way/src/3day_bankConstract.sol\":5300:5308  balances */\n      0x01\n        /* \"study_way/src/3day_bankConstract.sol\":5300:5314  balances[user] */\n      0x00\n        /* \"study_way/src/3day_bankConstract.sol\":5309:5313  user */\n      dup5\n        /* \"study_way/src/3day_bankConstract.sol\":5300:5314  balances[user] */\n      0xffffffffffffffffffffffffffffffffffffffff\n      and\n      0xffffffffffffffffffffffffffffffffffffffff\n      and\n      dup2\n      mstore\n      0x20\n      add\n      swap1\n      dup2\n      mstore\n      0x20\n      add\n      0x00\n      keccak256\n      sload\n        /* \"study_way/src/3day_bankConstract.sol\":5300:5319  balances[user] == 0 */\n      sub\n        /* \"study_way/src/3day_bankConstract.sol\":5296:5364  if (balances[user] == 0) {... */\n      tag_74\n      jumpi\n        /* \"study_way/src/3day_bankConstract.sol\":5336:5341  users */\n      0x02\n        /* \"study_way/src/3day_bankConstract.sol\":5347:5351  user */\n      dup3\n        /* \"study_way/src/3day_bankConstract.sol\":5336:5352  users.push(user) */\n      swap1\n      dup1\n      0x01\n      dup2\n      sload\n      add\n      dup1\n      dup3\n      sstore\n      dup1\n      swap2\n      pop\n      pop\n      0x01\n      swap1\n      sub\n      swap1\n      0x00\n      mstore\n      keccak256(0x00, 0x20)\n      add\n      0x00\n      swap1\n      swap2\n      swap1\n      swap2\n      swap1\n      swap2\n      0x0100\n      exp\n      dup2\n      sload\n      dup2\n      0xffffffffffffffffffffffffffffffffffffffff\n      mul\n      not\n      and\n      swap1\n      dup4\n      0xffffffffffffffffffffffffffffffffffffffff\n      and\n      mul\n      or\n      swap1\n      sstore\n      pop\n        /* \"study_way/src/3day_bankConstract.sol\":5296:5364  if (balances[user] == 0) {... */\n    tag_74:\n        /* \"study_way/src/3day_bankConstract.sol\":5464:5470  amount */\n      dup1\n        /* \"study_way/src/3day_bankConstract.sol\":5446:5454  balances */\n      0x01\n        /* \"study_way/src/3day_bankConstract.sol\":5446:5460  balances[user] */\n      0x00\n        /* \"study_way/src/3day_bankConstract.sol\":5455:5459  user */\n      dup5\n        /* \"study_way/src/3day_bankConstract.sol\":5446:5460  balances[user] */\n      0xffffffffffffffffffffffffffffffffffffffff\n      and\n      0xffffffffffffffffffffffffffffffffffffffff\n      and\n      dup2\n      mstore\n      0x20\n      add\n      swap1\n      dup2\n      mstore\n      0x20\n      add\n      0x00\n      keccak256\n      0x00\n        /* \"study_way/src/3day_bankConstract.sol\":5446:5470  balances[user] += amount */\n      dup3\n      dup3\n      sload\n      tag_76\n      swap2\n      swap1\n      tag_77\n      jump\t// in\n    tag_76:\n      swap3\n      pop\n      pop\n      dup2\n      swap1\n      sstore\n      pop\n        /* \"study_way/src/3day_bankConstract.sol\":5530:5534  user */\n      dup2\n        /* \"study_way/src/3day_bankConstract.sol\":5522:5543  Deposit(user, amount) */\n      0xffffffffffffffffffffffffffffffffffffffff\n      and\n      0xe1fffcc4923d04b559f4d29a8bfc6cda04eb5b0d3c460751c2402c5c5cc9109c\n        /* \"study_way/src/3day_bankConstract.sol\":5536:5542  amount */\n      dup3\n        /* \"study_way/src/3day_bankConstract.sol\":5522:5543  Deposit(user, amount) */\n      mload(0x40)\n      tag_78\n      swap2\n      swap1\n      tag_32\n      jump\t// in\n    tag_78:\n      mload(0x40)\n      dup1\n      swap2\n      sub\n      swap1\n      log2\n        /* \"study_way/src/3day_bankConstract.sol\":5597:5625  updateTopUsers(user, amount) */\n      tag_79\n        /* \"study_way/src/3day_bankConstract.sol\":5612:5616  user */\n      dup3\n        /* \"study_way/src/3day_bankConstract.sol\":5618:5624  amount */\n      dup3\n        /* \"study_way/src/3day_bankConstract.sol\":5597:5611  updateTopUsers */\n      tag_80\n        /* \"study_way/src/3day_bankConstract.sol\":5597:5625  updateTopUsers(user, amount) */\n      jump\t// in\n    tag_79:\n        /* \"study_way/src/3day_bankConstract.sol\":5128:5633  function _handleDeposit(address user, uint256 amount) internal {... */\n      pop\n      pop\n      jump\t// out\n        /* \"study_way/src/3day_bankConstract.sol\":204:247  mapping(address => uint256) public balances */\n    tag_30:\n      mstore(0x20, 0x01)\n      dup1\n      0x00\n      mstore\n      keccak256(0x00, 0x40)\n      0x00\n      swap2\n      pop\n      swap1\n      pop\n      sload\n      dup2\n      jump\t// out\n        /* \"study_way/src/3day_bankConstract.sol\":326:348  address[] public users */\n    tag_37:\n      0x02\n      dup2\n      dup2\n      sload\n      dup2\n      lt\n      tag_81\n      jumpi\n      0x00\n      dup1\n      revert\n    tag_81:\n      swap1\n      0x00\n      mstore\n      keccak256(0x00, 0x20)\n      add\n      0x00\n      swap2\n      pop\n      sload\n      swap1\n      0x0100\n      exp\n      swap1\n      div\n      0xffffffffffffffffffffffffffffffffffffffff\n      and\n      dup2\n      jump\t// out\n        /* \"study_way/src/3day_bankConstract.sol\":1633:1900  function withdraw() external onlyAdmin {... */\n    tag_42:\n        /* \"study_way/src/3day_bankConstract.sol\":1007:1012  admin */\n      0x00\n      dup1\n      sload\n      swap1\n      0x0100\n      exp\n      swap1\n      div\n      0xffffffffffffffffffffffffffffffffffffffff\n      and\n        /* \"study_way/src/3day_bankConstract.sol\":993:1012  msg.sender == admin */\n      0xffffffffffffffffffffffffffffffffffffffff\n      and\n        /* \"study_way/src/3day_bankConstract.sol\":993:1003  msg.sender */\n      caller\n        /* \"study_way/src/3day_bankConstract.sol\":993:1012  msg.sender == admin */\n      0xffffffffffffffffffffffffffffffffffffffff\n      and\n      eq\n        /* \"study_way/src/3day_bankConstract.sol\":985:1054  require(msg.sender == admin, \"Only admin can perform this operation\") */\n      tag_84\n      jumpi\n      mload(0x40)\n      0x08c379a000000000000000000000000000000000000000000000000000000000\n      dup2\n      mstore\n      0x04\n      add\n      tag_85\n      swap1\n      tag_86\n      jump\t// in\n    tag_85:\n      mload(0x40)\n      dup1\n      swap2\n      sub\n      swap1\n      revert\n    tag_84:\n        /* \"study_way/src/3day_bankConstract.sol\":1683:1697  uint256 amount */\n      0x00\n        /* \"study_way/src/3day_bankConstract.sol\":1700:1721  address(this).balance */\n      selfbalance\n        /* \"study_way/src/3day_bankConstract.sol\":1683:1721  uint256 amount = address(this).balance */\n      swap1\n      pop\n        /* \"study_way/src/3day_bankConstract.sol\":1749:1750  0 */\n      0x00\n        /* \"study_way/src/3day_bankConstract.sol\":1740:1746  amount */\n      dup2\n        /* \"study_way/src/3day_bankConstract.sol\":1740:1750  amount > 0 */\n      gt\n        /* \"study_way/src/3day_bankConstract.sol\":1732:1775  require(amount > 0, \"No funds to withdraw\") */\n      tag_88\n      jumpi\n      mload(0x40)\n      0x08c379a000000000000000000000000000000000000000000000000000000000\n      dup2\n      mstore\n      0x04\n      add\n      tag_89\n      swap1\n      tag_90\n      jump\t// in\n    tag_89:\n      mload(0x40)\n      dup1\n      swap2\n      sub\n      swap1\n      revert\n    tag_88:\n        /* \"study_way/src/3day_bankConstract.sol\":1869:1874  admin */\n      0x00\n      dup1\n      sload\n      swap1\n      0x0100\n      exp\n      swap1\n      div\n      0xffffffffffffffffffffffffffffffffffffffff\n      and\n        /* \"study_way/src/3day_bankConstract.sol\":1861:1884  payable(admin).transfer */\n      0xffffffffffffffffffffffffffffffffffffffff\n      and\n        /* \"study_way/src/3day_bankConstract.sol\":1861:1892  payable(admin).transfer(amount) */\n      0x08fc\n        /* \"study_way/src/3day_bankConstract.sol\":1885:1891  amount */\n      dup3\n        /* \"study_way/src/3day_bankConstract.sol\":1861:1892  payable(admin).transfer(amount) */\n      swap1\n      dup2\n      iszero\n      mul\n      swap1\n      mload(0x40)\n      0x00\n      mload(0x40)\n      dup1\n      dup4\n      sub\n      dup2\n      dup6\n      dup9\n      dup9\n      call\n      swap4\n      pop\n      pop\n      pop\n      pop\n      iszero\n      dup1\n      iszero\n      tag_92\n      jumpi\n      returndatasize\n      0x00\n      dup1\n      returndatacopy\n      revert(0x00, returndatasize)\n    tag_92:\n      pop\n        /* \"study_way/src/3day_bankConstract.sol\":1672:1900  {... */\n      pop\n        /* \"study_way/src/3day_bankConstract.sol\":1633:1900  function withdraw() external onlyAdmin {... */\n      jump\t// out\n        /* \"study_way/src/3day_bankConstract.sol\":4803:4913  function getUserBalance(address user) external view returns (uint256) {... */\n    tag_46:\n        /* \"study_way/src/3day_bankConstract.sol\":4864:4871  uint256 */\n      0x00\n        /* \"study_way/src/3day_bankConstract.sol\":4891:4899  balances */\n      0x01\n        /* \"study_way/src/3day_bankConstract.sol\":4891:4905  balances[user] */\n      0x00\n        /* \"study_way/src/3day_bankConstract.sol\":4900:4904  user */\n      dup4\n        /* \"study_way/src/3day_bankConstract.sol\":4891:4905  balances[user] */\n      0xffffffffffffffffffffffffffffffffffffffff\n      and\n      0xffffffffffffffffffffffffffffffffffffffff\n      and\n      dup2\n      mstore\n      0x20\n      add\n      swap1\n      dup2\n      mstore\n      0x20\n      add\n      0x00\n      keccak256\n      sload\n        /* \"study_way/src/3day_bankConstract.sol\":4884:4905  return balances[user] */\n      swap1\n      pop\n        /* \"study_way/src/3day_bankConstract.sol\":4803:4913  function getUserBalance(address user) external view returns (uint256) {... */\n      swap2\n      swap1\n      pop\n      jump\t// out\n        /* \"study_way/src/3day_bankConstract.sol\":554:579  address[] public topUsers */\n    tag_51:\n      0x04\n      dup2\n      dup2\n      sload\n      dup2\n      lt\n      tag_94\n      jumpi\n      0x00\n      dup1\n      revert\n    tag_94:\n      swap1\n      0x00\n      mstore\n      keccak256(0x00, 0x20)\n      add\n      0x00\n      swap2\n      pop\n      sload\n      swap1\n      0x0100\n      exp\n      swap1\n      div\n      0xffffffffffffffffffffffffffffffffffffffff\n      and\n      dup2\n      jump\t// out\n        /* \"study_way/src/3day_bankConstract.sol\":4969:5078  function getContractBalance() external view returns (uint256) {... */\n    tag_55:\n        /* \"study_way/src/3day_bankConstract.sol\":5022:5029  uint256 */\n      0x00\n        /* \"study_way/src/3day_bankConstract.sol\":5049:5070  address(this).balance */\n      selfbalance\n        /* \"study_way/src/3day_bankConstract.sol\":5042:5070  return address(this).balance */\n      swap1\n      pop\n        /* \"study_way/src/3day_bankConstract.sol\":4969:5078  function getContractBalance() external view returns (uint256) {... */\n      swap1\n      jump\t// out\n        /* \"study_way/src/3day_bankConstract.sol\":437:465  uint256[] public topDeposits */\n    tag_60:\n      0x03\n      dup2\n      dup2\n      sload\n      dup2\n      lt\n      tag_97\n      jumpi\n      0x00\n      dup1\n      revert\n    tag_97:\n      swap1\n      0x00\n      mstore\n      keccak256(0x00, 0x20)\n      add\n      0x00\n      swap2\n      pop\n      swap1\n      pop\n      sload\n      dup2\n      jump\t// out\n        /* \"study_way/src/3day_bankConstract.sol\":1405:1574  function deposit() external payable {... */\n    tag_63:\n        /* \"study_way/src/3day_bankConstract.sol\":1472:1473  0 */\n      0x00\n        /* \"study_way/src/3day_bankConstract.sol\":1460:1469  msg.value */\n      callvalue\n        /* \"study_way/src/3day_bankConstract.sol\":1460:1473  msg.value > 0 */\n      gt\n        /* \"study_way/src/3day_bankConstract.sol\":1452:1518  require(msg.value > 0, \"Deposit amount must be greater than zero\") */\n      tag_100\n      jumpi\n      mload(0x40)\n      0x08c379a000000000000000000000000000000000000000000000000000000000\n      dup2\n      mstore\n      0x04\n      add\n      tag_101\n      swap1\n      tag_18\n      jump\t// in\n    tag_101:\n      mload(0x40)\n      dup1\n      swap2\n      sub\n      swap1\n      revert\n    tag_100:\n        /* \"study_way/src/3day_bankConstract.sol\":1529:1566  _handleDeposit(msg.sender, msg.value) */\n      tag_102\n        /* \"study_way/src/3day_bankConstract.sol\":1544:1554  msg.sender */\n      caller\n        /* \"study_way/src/3day_bankConstract.sol\":1556:1565  msg.value */\n      callvalue\n        /* \"study_way/src/3day_bankConstract.sol\":1529:1543  _handleDeposit */\n      tag_20\n        /* \"study_way/src/3day_bankConstract.sol\":1529:1566  _handleDeposit(msg.sender, msg.value) */\n      jump\t// in\n    tag_102:\n        /* \"study_way/src/3day_bankConstract.sol\":1405:1574  function deposit() external payable {... */\n      jump\t// out\n        /* \"study_way/src/3day_bankConstract.sol\":4595:4726  function getTopUsers() external view returns (address[] memory, uint256[] memory) {... */\n    tag_66:\n        /* \"study_way/src/3day_bankConstract.sol\":4641:4657  address[] memory */\n      0x60\n        /* \"study_way/src/3day_bankConstract.sol\":4659:4675  uint256[] memory */\n      dup1\n        /* \"study_way/src/3day_bankConstract.sol\":4696:4704  topUsers */\n      0x04\n        /* \"study_way/src/3day_bankConstract.sol\":4706:4717  topDeposits */\n      0x03\n        /* \"study_way/src/3day_bankConstract.sol\":4688:4718  return (topUsers, topDeposits) */\n      dup2\n      dup1\n      sload\n      dup1\n      0x20\n      mul\n      0x20\n      add\n      mload(0x40)\n      swap1\n      dup2\n      add\n      0x40\n      mstore\n      dup1\n      swap3\n      swap2\n      swap1\n      dup2\n      dup2\n      mstore\n      0x20\n      add\n      dup3\n      dup1\n      sload\n      dup1\n      iszero\n      tag_104\n      jumpi\n      0x20\n      mul\n      dup3\n      add\n      swap2\n      swap1\n      0x00\n      mstore\n      keccak256(0x00, 0x20)\n      swap1\n    tag_105:\n      dup2\n      0x00\n      swap1\n      sload\n      swap1\n      0x0100\n      exp\n      swap1\n      div\n      0xffffffffffffffffffffffffffffffffffffffff\n      and\n      0xffffffffffffffffffffffffffffffffffffffff\n      and\n      dup2\n      mstore\n      0x20\n      add\n      swap1\n      0x01\n      add\n      swap1\n      dup1\n      dup4\n      gt\n      tag_105\n      jumpi\n    tag_104:\n      pop\n      pop\n      pop\n      pop\n      pop\n      swap2\n      pop\n      dup1\n      dup1\n      sload\n      dup1\n      0x20\n      mul\n      0x20\n      add\n      mload(0x40)\n      swap1\n      dup2\n      add\n      0x40\n      mstore\n      dup1\n      swap3\n      swap2\n      swap1\n      dup2\n      dup2\n      mstore\n      0x20\n      add\n      dup3\n      dup1\n      sload\n      dup1\n      iszero\n      tag_106\n      jumpi\n      0x20\n      mul\n      dup3\n      add\n      swap2\n      swap1\n      0x00\n      mstore\n      keccak256(0x00, 0x20)\n      swap1\n    tag_107:\n      dup2\n      sload\n      dup2\n      mstore\n      0x20\n      add\n      swap1\n      0x01\n      add\n      swap1\n      dup1\n      dup4\n      gt\n      tag_107\n      jumpi\n    tag_106:\n      pop\n      pop\n      pop\n      pop\n      pop\n      swap1\n      pop\n      swap2\n      pop\n      swap2\n      pop\n        /* \"study_way/src/3day_bankConstract.sol\":4595:4726  function getTopUsers() external view returns (address[] memory, uint256[] memory) {... */\n      swap1\n      swap2\n      jump\t// out\n        /* \"study_way/src/3day_bankConstract.sol\":120:140  address public admin */\n    tag_71:\n      0x00\n      dup1\n      sload\n      swap1\n      0x0100\n      exp\n      swap1\n      div\n      0xffffffffffffffffffffffffffffffffffffffff\n      and\n      dup2\n      jump\t// out\n        /* \"study_way/src/3day_bankConstract.sol\":2881:3831  function updateTopUsers(address user, uint256 amount) internal {... */\n    tag_80:\n        /* \"study_way/src/3day_bankConstract.sol\":3036:3042  uint i */\n      0x00\n        /* \"study_way/src/3day_bankConstract.sol\":3031:3218  for (uint i = 0; i < topUsers.length; i++) {... */\n    tag_109:\n        /* \"study_way/src/3day_bankConstract.sol\":3052:3060  topUsers */\n      0x04\n        /* \"study_way/src/3day_bankConstract.sol\":3052:3067  topUsers.length */\n      dup1\n      sload\n      swap1\n      pop\n        /* \"study_way/src/3day_bankConstract.sol\":3048:3049  i */\n      dup2\n        /* \"study_way/src/3day_bankConstract.sol\":3048:3067  i < topUsers.length */\n      lt\n        /* \"study_way/src/3day_bankConstract.sol\":3031:3218  for (uint i = 0; i < topUsers.length; i++) {... */\n      iszero\n      tag_110\n      jumpi\n        /* \"study_way/src/3day_bankConstract.sol\":3104:3108  user */\n      dup3\n        /* \"study_way/src/3day_bankConstract.sol\":3089:3108  topUsers[i] == user */\n      0xffffffffffffffffffffffffffffffffffffffff\n      and\n        /* \"study_way/src/3day_bankConstract.sol\":3089:3097  topUsers */\n      0x04\n        /* \"study_way/src/3day_bankConstract.sol\":3098:3099  i */\n      dup3\n        /* \"study_way/src/3day_bankConstract.sol\":3089:3100  topUsers[i] */\n      dup2\n      sload\n      dup2\n      lt\n      tag_112\n      jumpi\n      tag_113\n      tag_114\n      jump\t// in\n    tag_113:\n    tag_112:\n      swap1\n      0x00\n      mstore\n      keccak256(0x00, 0x20)\n      add\n      0x00\n      swap1\n      sload\n      swap1\n      0x0100\n      exp\n      swap1\n      div\n      0xffffffffffffffffffffffffffffffffffffffff\n      and\n        /* \"study_way/src/3day_bankConstract.sol\":3089:3108  topUsers[i] == user */\n      0xffffffffffffffffffffffffffffffffffffffff\n      and\n      sub\n        /* \"study_way/src/3day_bankConstract.sol\":3085:3211  if (topUsers[i] == user) {... */\n      tag_116\n      jumpi\n        /* \"study_way/src/3day_bankConstract.sol\":3142:3148  amount */\n      dup2\n        /* \"study_way/src/3day_bankConstract.sol\":3125:3136  topDeposits */\n      0x03\n        /* \"study_way/src/3day_bankConstract.sol\":3137:3138  i */\n      dup3\n        /* \"study_way/src/3day_bankConstract.sol\":3125:3139  topDeposits[i] */\n      dup2\n      sload\n      dup2\n      lt\n      tag_117\n      jumpi\n      tag_118\n      tag_114\n      jump\t// in\n    tag_118:\n    tag_117:\n      swap1\n      0x00\n      mstore\n      keccak256(0x00, 0x20)\n      add\n        /* \"study_way/src/3day_bankConstract.sol\":3125:3148  topDeposits[i] = amount */\n      dup2\n      swap1\n      sstore\n      pop\n        /* \"study_way/src/3day_bankConstract.sol\":3163:3178  _sortTopUsers() */\n      tag_120\n        /* \"study_way/src/3day_bankConstract.sol\":3163:3176  _sortTopUsers */\n      tag_121\n        /* \"study_way/src/3day_bankConstract.sol\":3163:3178  _sortTopUsers() */\n      jump\t// in\n    tag_120:\n        /* \"study_way/src/3day_bankConstract.sol\":3193:3200  return; */\n      pop\n      jump(tag_108)\n        /* \"study_way/src/3day_bankConstract.sol\":3085:3211  if (topUsers[i] == user) {... */\n    tag_116:\n        /* \"study_way/src/3day_bankConstract.sol\":3069:3072  i++ */\n      dup1\n      dup1\n      0x01\n      add\n      swap2\n      pop\n      pop\n        /* \"study_way/src/3day_bankConstract.sol\":3031:3218  for (uint i = 0; i < topUsers.length; i++) {... */\n      jump(tag_109)\n    tag_110:\n      pop\n        /* \"study_way/src/3day_bankConstract.sol\":3316:3317  3 */\n      0x03\n        /* \"study_way/src/3day_bankConstract.sol\":3298:3306  topUsers */\n      0x04\n        /* \"study_way/src/3day_bankConstract.sol\":3298:3313  topUsers.length */\n      dup1\n      sload\n      swap1\n      pop\n        /* \"study_way/src/3day_bankConstract.sol\":3298:3317  topUsers.length < 3 */\n      lt\n        /* \"study_way/src/3day_bankConstract.sol\":3294:3679  if (topUsers.length < 3) {... */\n      iszero\n      tag_122\n      jumpi\n        /* \"study_way/src/3day_bankConstract.sol\":3330:3338  topUsers */\n      0x04\n        /* \"study_way/src/3day_bankConstract.sol\":3344:3348  user */\n      dup3\n        /* \"study_way/src/3day_bankConstract.sol\":3330:3349  topUsers.push(user) */\n      swap1\n      dup1\n      0x01\n      dup2\n      sload\n      add\n      dup1\n      dup3\n      sstore\n      dup1\n      swap2\n      pop\n      pop\n      0x01\n      swap1\n      sub\n      swap1\n      0x00\n      mstore\n      keccak256(0x00, 0x20)\n      add\n      0x00\n      swap1\n      swap2\n      swap1\n      swap2\n      swap1\n      swap2\n      0x0100\n      exp\n      dup2\n      sload\n      dup2\n      0xffffffffffffffffffffffffffffffffffffffff\n      mul\n      not\n      and\n      swap1\n      dup4\n      0xffffffffffffffffffffffffffffffffffffffff\n      and\n      mul\n      or\n      swap1\n      sstore\n      pop\n        /* \"study_way/src/3day_bankConstract.sol\":3360:3371  topDeposits */\n      0x03\n        /* \"study_way/src/3day_bankConstract.sol\":3377:3383  amount */\n      dup2\n        /* \"study_way/src/3day_bankConstract.sol\":3360:3384  topDeposits.push(amount) */\n      swap1\n      dup1\n      0x01\n      dup2\n      sload\n      add\n      dup1\n      dup3\n      sstore\n      dup1\n      swap2\n      pop\n      pop\n      0x01\n      swap1\n      sub\n      swap1\n      0x00\n      mstore\n      keccak256(0x00, 0x20)\n      add\n      0x00\n      swap1\n      swap2\n      swap1\n      swap2\n      swap1\n      swap2\n      pop\n      sstore\n        /* \"study_way/src/3day_bankConstract.sol\":3395:3410  _sortTopUsers() */\n      tag_125\n        /* \"study_way/src/3day_bankConstract.sol\":3395:3408  _sortTopUsers */\n      tag_121\n        /* \"study_way/src/3day_bankConstract.sol\":3395:3410  _sortTopUsers() */\n      jump\t// in\n    tag_125:\n        /* \"study_way/src/3day_bankConstract.sol\":3294:3679  if (topUsers.length < 3) {... */\n      jump(tag_126)\n    tag_122:\n        /* \"study_way/src/3day_bankConstract.sol\":3566:3577  topDeposits */\n      0x03\n        /* \"study_way/src/3day_bankConstract.sol\":3578:3579  2 */\n      0x02\n        /* \"study_way/src/3day_bankConstract.sol\":3566:3580  topDeposits[2] */\n      dup2\n      sload\n      dup2\n      lt\n      tag_127\n      jumpi\n      tag_128\n      tag_114\n      jump\t// in\n    tag_128:\n    tag_127:\n      swap1\n      0x00\n      mstore\n      keccak256(0x00, 0x20)\n      add\n      sload\n        /* \"study_way/src/3day_bankConstract.sol\":3557:3563  amount */\n      dup2\n        /* \"study_way/src/3day_bankConstract.sol\":3557:3580  amount > topDeposits[2] */\n      gt\n        /* \"study_way/src/3day_bankConstract.sol\":3553:3679  if (amount > topDeposits[2]) {... */\n      iszero\n      tag_130\n      jumpi\n        /* \"study_way/src/3day_bankConstract.sol\":3607:3611  user */\n      dup2\n        /* \"study_way/src/3day_bankConstract.sol\":3593:3601  topUsers */\n      0x04\n        /* \"study_way/src/3day_bankConstract.sol\":3602:3603  2 */\n      0x02\n        /* \"study_way/src/3day_bankConstract.sol\":3593:3604  topUsers[2] */\n      dup2\n      sload\n      dup2\n      lt\n      tag_131\n      jumpi\n      tag_132\n      tag_114\n      jump\t// in\n    tag_132:\n    tag_131:\n      swap1\n      0x00\n      mstore\n      keccak256(0x00, 0x20)\n      add\n      0x00\n        /* \"study_way/src/3day_bankConstract.sol\":3593:3611  topUsers[2] = user */\n      0x0100\n      exp\n      dup2\n      sload\n      dup2\n      0xffffffffffffffffffffffffffffffffffffffff\n      mul\n      not\n      and\n      swap1\n      dup4\n      0xffffffffffffffffffffffffffffffffffffffff\n      and\n      mul\n      or\n      swap1\n      sstore\n      pop\n        /* \"study_way/src/3day_bankConstract.sol\":3639:3645  amount */\n      dup1\n        /* \"study_way/src/3day_bankConstract.sol\":3622:3633  topDeposits */\n      0x03\n        /* \"study_way/src/3day_bankConstract.sol\":3634:3635  2 */\n      0x02\n        /* \"study_way/src/3day_bankConstract.sol\":3622:3636  topDeposits[2] */\n      dup2\n      sload\n      dup2\n      lt\n      tag_134\n      jumpi\n      tag_135\n      tag_114\n      jump\t// in\n    tag_135:\n    tag_134:\n      swap1\n      0x00\n      mstore\n      keccak256(0x00, 0x20)\n      add\n        /* \"study_way/src/3day_bankConstract.sol\":3622:3645  topDeposits[2] = amount */\n      dup2\n      swap1\n      sstore\n      pop\n        /* \"study_way/src/3day_bankConstract.sol\":3656:3671  _sortTopUsers() */\n      tag_137\n        /* \"study_way/src/3day_bankConstract.sol\":3656:3669  _sortTopUsers */\n      tag_121\n        /* \"study_way/src/3day_bankConstract.sol\":3656:3671  _sortTopUsers() */\n      jump\t// in\n    tag_137:\n        /* \"study_way/src/3day_bankConstract.sol\":3553:3679  if (amount > topDeposits[2]) {... */\n    tag_130:\n        /* \"study_way/src/3day_bankConstract.sol\":3294:3679  if (topUsers.length < 3) {... */\n    tag_126:\n        /* \"study_way/src/3day_bankConstract.sol\":3814:3818  user */\n      dup2\n        /* \"study_way/src/3day_bankConstract.sol\":3799:3827  TopUserUpdated(user, amount) */\n      0xffffffffffffffffffffffffffffffffffffffff\n      and\n      0xd6205b4cb548ead6d931d099314bcf8c604c0908cf235d00c8ecbbff8aa77e28\n        /* \"study_way/src/3day_bankConstract.sol\":3820:3826  amount */\n      dup3\n        /* \"study_way/src/3day_bankConstract.sol\":3799:3827  TopUserUpdated(user, amount) */\n      mload(0x40)\n      tag_138\n      swap2\n      swap1\n      tag_32\n      jump\t// in\n    tag_138:\n      mload(0x40)\n      dup1\n      swap2\n      sub\n      swap1\n      log2\n        /* \"study_way/src/3day_bankConstract.sol\":2881:3831  function updateTopUsers(address user, uint256 amount) internal {... */\n    tag_108:\n      pop\n      pop\n      jump\t// out\n        /* \"study_way/src/3day_bankConstract.sol\":3874:4503  function _sortTopUsers() private {... */\n    tag_121:\n        /* \"study_way/src/3day_bankConstract.sol\":3939:3940  1 */\n      0x01\n        /* \"study_way/src/3day_bankConstract.sol\":3918:3929  topDeposits */\n      0x03\n        /* \"study_way/src/3day_bankConstract.sol\":3918:3936  topDeposits.length */\n      dup1\n      sload\n      swap1\n      pop\n        /* \"study_way/src/3day_bankConstract.sol\":3918:3940  topDeposits.length > 1 */\n      gt\n        /* \"study_way/src/3day_bankConstract.sol\":3914:4500  if (topDeposits.length > 1) {          // 需要检查，避免空数组或单元素数组... */\n      iszero\n      tag_140\n      jumpi\n        /* \"study_way/src/3day_bankConstract.sol\":4019:4025  uint i */\n      0x00\n        /* \"study_way/src/3day_bankConstract.sol\":4014:4493  for (uint i = 0; i < 2; i++) {    // i < 3 - 1 → i < 2... */\n    tag_141:\n        /* \"study_way/src/3day_bankConstract.sol\":4035:4036  2 */\n      0x02\n        /* \"study_way/src/3day_bankConstract.sol\":4031:4032  i */\n      dup2\n        /* \"study_way/src/3day_bankConstract.sol\":4031:4036  i < 2 */\n      lt\n        /* \"study_way/src/3day_bankConstract.sol\":4014:4493  for (uint i = 0; i < 2; i++) {    // i < 3 - 1 → i < 2... */\n      iszero\n      tag_142\n      jumpi\n        /* \"study_way/src/3day_bankConstract.sol\":4089:4095  uint j */\n      0x00\n        /* \"study_way/src/3day_bankConstract.sol\":4084:4482  for (uint j = 0; j < 2 - i; j++) {  // j < 3 - i - 1 → j < 2 - i... */\n    tag_144:\n        /* \"study_way/src/3day_bankConstract.sol\":4109:4110  i */\n      dup2\n        /* \"study_way/src/3day_bankConstract.sol\":4105:4106  2 */\n      0x02\n        /* \"study_way/src/3day_bankConstract.sol\":4105:4110  2 - i */\n      tag_147\n      swap2\n      swap1\n      tag_148\n      jump\t// in\n    tag_147:\n        /* \"study_way/src/3day_bankConstract.sol\":4101:4102  j */\n      dup2\n        /* \"study_way/src/3day_bankConstract.sol\":4101:4110  j < 2 - i */\n      lt\n        /* \"study_way/src/3day_bankConstract.sol\":4084:4482  for (uint j = 0; j < 2 - i; j++) {  // j < 3 - i - 1 → j < 2 - i... */\n      iszero\n      tag_145\n      jumpi\n        /* \"study_way/src/3day_bankConstract.sol\":4189:4200  topDeposits */\n      0x03\n        /* \"study_way/src/3day_bankConstract.sol\":4203:4204  1 */\n      0x01\n        /* \"study_way/src/3day_bankConstract.sol\":4201:4202  j */\n      dup3\n        /* \"study_way/src/3day_bankConstract.sol\":4201:4204  j+1 */\n      tag_149\n      swap2\n      swap1\n      tag_77\n      jump\t// in\n    tag_149:\n        /* \"study_way/src/3day_bankConstract.sol\":4189:4205  topDeposits[j+1] */\n      dup2\n      sload\n      dup2\n      lt\n      tag_150\n      jumpi\n      tag_151\n      tag_114\n      jump\t// in\n    tag_151:\n    tag_150:\n      swap1\n      0x00\n      mstore\n      keccak256(0x00, 0x20)\n      add\n      sload\n        /* \"study_way/src/3day_bankConstract.sol\":4172:4183  topDeposits */\n      0x03\n        /* \"study_way/src/3day_bankConstract.sol\":4184:4185  j */\n      dup3\n        /* \"study_way/src/3day_bankConstract.sol\":4172:4186  topDeposits[j] */\n      dup2\n      sload\n      dup2\n      lt\n      tag_153\n      jumpi\n      tag_154\n      tag_114\n      jump\t// in\n    tag_154:\n    tag_153:\n      swap1\n      0x00\n      mstore\n      keccak256(0x00, 0x20)\n      add\n      sload\n        /* \"study_way/src/3day_bankConstract.sol\":4172:4205  topDeposits[j] < topDeposits[j+1] */\n      lt\n        /* \"study_way/src/3day_bankConstract.sol\":4168:4467  if (topDeposits[j] < topDeposits[j+1]) {... */\n      iszero\n      tag_156\n      jumpi\n        /* \"study_way/src/3day_bankConstract.sol\":4332:4343  topDeposits */\n      0x03\n        /* \"study_way/src/3day_bankConstract.sol\":4346:4347  1 */\n      0x01\n        /* \"study_way/src/3day_bankConstract.sol\":4344:4345  j */\n      dup3\n        /* \"study_way/src/3day_bankConstract.sol\":4344:4347  j+1 */\n      tag_157\n      swap2\n      swap1\n      tag_77\n      jump\t// in\n    tag_157:\n        /* \"study_way/src/3day_bankConstract.sol\":4332:4348  topDeposits[j+1] */\n      dup2\n      sload\n      dup2\n      lt\n      tag_158\n      jumpi\n      tag_159\n      tag_114\n      jump\t// in\n    tag_159:\n    tag_158:\n      swap1\n      0x00\n      mstore\n      keccak256(0x00, 0x20)\n      add\n      sload\n        /* \"study_way/src/3day_bankConstract.sol\":4350:4361  topDeposits */\n      0x03\n        /* \"study_way/src/3day_bankConstract.sol\":4362:4363  j */\n      dup3\n        /* \"study_way/src/3day_bankConstract.sol\":4350:4364  topDeposits[j] */\n      dup2\n      sload\n      dup2\n      lt\n      tag_161\n      jumpi\n      tag_162\n      tag_114\n      jump\t// in\n    tag_162:\n    tag_161:\n      swap1\n      0x00\n      mstore\n      keccak256(0x00, 0x20)\n      add\n      sload\n        /* \"study_way/src/3day_bankConstract.sol\":4295:4306  topDeposits */\n      0x03\n        /* \"study_way/src/3day_bankConstract.sol\":4307:4308  j */\n      dup4\n        /* \"study_way/src/3day_bankConstract.sol\":4295:4309  topDeposits[j] */\n      dup2\n      sload\n      dup2\n      lt\n      tag_164\n      jumpi\n      tag_165\n      tag_114\n      jump\t// in\n    tag_165:\n    tag_164:\n      swap1\n      0x00\n      mstore\n      keccak256(0x00, 0x20)\n      add\n      0x00\n        /* \"study_way/src/3day_bankConstract.sol\":4311:4322  topDeposits */\n      0x03\n        /* \"study_way/src/3day_bankConstract.sol\":4325:4326  1 */\n      0x01\n        /* \"study_way/src/3day_bankConstract.sol\":4323:4324  j */\n      dup7\n        /* \"study_way/src/3day_bankConstract.sol\":4323:4326  j+1 */\n      tag_167\n      swap2\n      swap1\n      tag_77\n      jump\t// in\n    tag_167:\n        /* \"study_way/src/3day_bankConstract.sol\":4311:4327  topDeposits[j+1] */\n      dup2\n      sload\n      dup2\n      lt\n      tag_168\n      jumpi\n      tag_169\n      tag_114\n      jump\t// in\n    tag_169:\n    tag_168:\n      swap1\n      0x00\n      mstore\n      keccak256(0x00, 0x20)\n      add\n      0x00\n        /* \"study_way/src/3day_bankConstract.sol\":4294:4365  (topDeposits[j], topDeposits[j+1]) = (topDeposits[j+1], topDeposits[j]) */\n      dup5\n      swap2\n      swap1\n      pop\n      sstore\n      dup4\n      swap2\n      swap1\n      pop\n      sstore\n      pop\n      pop\n        /* \"study_way/src/3day_bankConstract.sol\":4420:4428  topUsers */\n      0x04\n        /* \"study_way/src/3day_bankConstract.sol\":4431:4432  1 */\n      0x01\n        /* \"study_way/src/3day_bankConstract.sol\":4429:4430  j */\n      dup3\n        /* \"study_way/src/3day_bankConstract.sol\":4429:4432  j+1 */\n      tag_171\n      swap2\n      swap1\n      tag_77\n      jump\t// in\n    tag_171:\n        /* \"study_way/src/3day_bankConstract.sol\":4420:4433  topUsers[j+1] */\n      dup2\n      sload\n      dup2\n      lt\n      tag_172\n      jumpi\n      tag_173\n      tag_114\n      jump\t// in\n    tag_173:\n    tag_172:\n      swap1\n      0x00\n      mstore\n      keccak256(0x00, 0x20)\n      add\n      0x00\n      swap1\n      sload\n      swap1\n      0x0100\n      exp\n      swap1\n      div\n      0xffffffffffffffffffffffffffffffffffffffff\n      and\n        /* \"study_way/src/3day_bankConstract.sol\":4435:4443  topUsers */\n      0x04\n        /* \"study_way/src/3day_bankConstract.sol\":4444:4445  j */\n      dup3\n        /* \"study_way/src/3day_bankConstract.sol\":4435:4446  topUsers[j] */\n      dup2\n      sload\n      dup2\n      lt\n      tag_175\n      jumpi\n      tag_176\n      tag_114\n      jump\t// in\n    tag_176:\n    tag_175:\n      swap1\n      0x00\n      mstore\n      keccak256(0x00, 0x20)\n      add\n      0x00\n      swap1\n      sload\n      swap1\n      0x0100\n      exp\n      swap1\n      div\n      0xffffffffffffffffffffffffffffffffffffffff\n      and\n        /* \"study_way/src/3day_bankConstract.sol\":4389:4397  topUsers */\n      0x04\n        /* \"study_way/src/3day_bankConstract.sol\":4398:4399  j */\n      dup4\n        /* \"study_way/src/3day_bankConstract.sol\":4389:4400  topUsers[j] */\n      dup2\n      sload\n      dup2\n      lt\n      tag_178\n      jumpi\n      tag_179\n      tag_114\n      jump\t// in\n    tag_179:\n    tag_178:\n      swap1\n      0x00\n      mstore\n      keccak256(0x00, 0x20)\n      add\n      0x00\n        /* \"study_way/src/3day_bankConstract.sol\":4402:4410  topUsers */\n      0x04\n        /* \"study_way/src/3day_bankConstract.sol\":4413:4414  1 */\n      0x01\n        /* \"study_way/src/3day_bankConstract.sol\":4411:4412  j */\n      dup7\n        /* \"study_way/src/3day_bankConstract.sol\":4411:4414  j+1 */\n      tag_181\n      swap2\n      swap1\n      tag_77\n      jump\t// in\n    tag_181:\n        /* \"study_way/src/3day_bankConstract.sol\":4402:4415  topUsers[j+1] */\n      dup2\n      sload\n      dup2\n      lt\n      tag_182\n      jumpi\n      tag_183\n      tag_114\n      jump\t// in\n    tag_183:\n    tag_182:\n      swap1\n      0x00\n      mstore\n      keccak256(0x00, 0x20)\n      add\n      0x00\n        /* \"study_way/src/3day_bankConstract.sol\":4388:4447  (topUsers[j], topUsers[j+1]) = (topUsers[j+1], topUsers[j]) */\n      dup5\n      swap2\n      swap1\n      0x0100\n      exp\n      dup2\n      sload\n      dup2\n      0xffffffffffffffffffffffffffffffffffffffff\n      mul\n      not\n      and\n      swap1\n      dup4\n      0xffffffffffffffffffffffffffffffffffffffff\n      and\n      mul\n      or\n      swap1\n      sstore\n      pop\n      dup4\n      swap2\n      swap1\n      0x0100\n      exp\n      dup2\n      sload\n      dup2\n      0xffffffffffffffffffffffffffffffffffffffff\n      mul\n      not\n      and\n      swap1\n      dup4\n      0xffffffffffffffffffffffffffffffffffffffff\n      and\n      mul\n      or\n      swap1\n      sstore\n      pop\n      pop\n      pop\n        /* \"study_way/src/3day_bankConstract.sol\":4168:4467  if (topDeposits[j] < topDeposits[j+1]) {... */\n    tag_156:\n        /* \"study_way/src/3day_bankConstract.sol\":4112:4115  j++ */\n      dup1\n      dup1\n      0x01\n      add\n      swap2\n      pop\n      pop\n        /* \"study_way/src/3day_bankConstract.sol\":4084:4482  for (uint j = 0; j < 2 - i; j++) {  // j < 3 - i - 1 → j < 2 - i... */\n      jump(tag_144)\n    tag_145:\n      pop\n        /* \"study_way/src/3day_bankConstract.sol\":4038:4041  i++ */\n      dup1\n      dup1\n      0x01\n      add\n      swap2\n      pop\n      pop\n        /* \"study_way/src/3day_bankConstract.sol\":4014:4493  for (uint i = 0; i < 2; i++) {    // i < 3 - 1 → i < 2... */\n      jump(tag_141)\n    tag_142:\n      pop\n        /* \"study_way/src/3day_bankConstract.sol\":3914:4500  if (topDeposits.length > 1) {          // 需要检查，避免空数组或单元素数组... */\n    tag_140:\n        /* \"study_way/src/3day_bankConstract.sol\":3874:4503  function _sortTopUsers() private {... */\n      jump\t// out\n        /* \"#utility.yul\":7:176   */\n    tag_185:\n        /* \"#utility.yul\":91:102   */\n      0x00\n        /* \"#utility.yul\":125:131   */\n      dup3\n        /* \"#utility.yul\":120:123   */\n      dup3\n        /* \"#utility.yul\":113:132   */\n      mstore\n        /* \"#utility.yul\":165:169   */\n      0x20\n        /* \"#utility.yul\":160:163   */\n      dup3\n        /* \"#utility.yul\":156:170   */\n      add\n        /* \"#utility.yul\":141:170   */\n      swap1\n      pop\n        /* \"#utility.yul\":7:176   */\n      swap3\n      swap2\n      pop\n      pop\n      jump\t// out\n        /* \"#utility.yul\":182:409   */\n    tag_186:\n        /* \"#utility.yul\":322:356   */\n      0x4465706f73697420616d6f756e74206d75737420626520677265617465722074\n        /* \"#utility.yul\":318:319   */\n      0x00\n        /* \"#utility.yul\":310:316   */\n      dup3\n        /* \"#utility.yul\":306:320   */\n      add\n        /* \"#utility.yul\":299:357   */\n      mstore\n        /* \"#utility.yul\":391:401   */\n      0x68616e207a65726f000000000000000000000000000000000000000000000000\n        /* \"#utility.yul\":386:388   */\n      0x20\n        /* \"#utility.yul\":378:384   */\n      dup3\n        /* \"#utility.yul\":374:389   */\n      add\n        /* \"#utility.yul\":367:402   */\n      mstore\n        /* \"#utility.yul\":182:409   */\n      pop\n      jump\t// out\n        /* \"#utility.yul\":415:781   */\n    tag_187:\n        /* \"#utility.yul\":557:560   */\n      0x00\n        /* \"#utility.yul\":578:645   */\n      tag_223\n        /* \"#utility.yul\":642:644   */\n      0x28\n        /* \"#utility.yul\":637:640   */\n      dup4\n        /* \"#utility.yul\":578:645   */\n      tag_185\n      jump\t// in\n    tag_223:\n        /* \"#utility.yul\":571:645   */\n      swap2\n      pop\n        /* \"#utility.yul\":654:747   */\n      tag_224\n        /* \"#utility.yul\":743:746   */\n      dup3\n        /* \"#utility.yul\":654:747   */\n      tag_186\n      jump\t// in\n    tag_224:\n        /* \"#utility.yul\":772:774   */\n      0x40\n        /* \"#utility.yul\":767:770   */\n      dup3\n        /* \"#utility.yul\":763:775   */\n      add\n        /* \"#utility.yul\":756:775   */\n      swap1\n      pop\n        /* \"#utility.yul\":415:781   */\n      swap2\n      swap1\n      pop\n      jump\t// out\n        /* \"#utility.yul\":787:1206   */\n    tag_18:\n        /* \"#utility.yul\":953:957   */\n      0x00\n        /* \"#utility.yul\":991:993   */\n      0x20\n        /* \"#utility.yul\":980:989   */\n      dup3\n        /* \"#utility.yul\":976:994   */\n      add\n        /* \"#utility.yul\":968:994   */\n      swap1\n      pop\n        /* \"#utility.yul\":1040:1049   */\n      dup2\n        /* \"#utility.yul\":1034:1038   */\n      dup2\n        /* \"#utility.yul\":1030:1050   */\n      sub\n        /* \"#utility.yul\":1026:1027   */\n      0x00\n        /* \"#utility.yul\":1015:1024   */\n      dup4\n        /* \"#utility.yul\":1011:1028   */\n      add\n        /* \"#utility.yul\":1004:1051   */\n      mstore\n        /* \"#utility.yul\":1068:1199   */\n      tag_226\n        /* \"#utility.yul\":1194:1198   */\n      dup2\n        /* \"#utility.yul\":1068:1199   */\n      tag_187\n      jump\t// in\n    tag_226:\n        /* \"#utility.yul\":1060:1199   */\n      swap1\n      pop\n        /* \"#utility.yul\":787:1206   */\n      swap2\n      swap1\n      pop\n      jump\t// out\n        /* \"#utility.yul\":1293:1410   */\n    tag_189:\n        /* \"#utility.yul\":1402:1403   */\n      0x00\n        /* \"#utility.yul\":1399:1400   */\n      dup1\n        /* \"#utility.yul\":1392:1404   */\n      revert\n        /* \"#utility.yul\":1539:1665   */\n    tag_191:\n        /* \"#utility.yul\":1576:1583   */\n      0x00\n        /* \"#utility.yul\":1616:1658   */\n      0xffffffffffffffffffffffffffffffffffffffff\n        /* \"#utility.yul\":1609:1614   */\n      dup3\n        /* \"#utility.yul\":1605:1659   */\n      and\n        /* \"#utility.yul\":1594:1659   */\n      swap1\n      pop\n        /* \"#utility.yul\":1539:1665   */\n      swap2\n      swap1\n      pop\n      jump\t// out\n        /* \"#utility.yul\":1671:1767   */\n    tag_192:\n        /* \"#utility.yul\":1708:1715   */\n      0x00\n        /* \"#utility.yul\":1737:1761   */\n      tag_232\n        /* \"#utility.yul\":1755:1760   */\n      dup3\n        /* \"#utility.yul\":1737:1761   */\n      tag_191\n      jump\t// in\n    tag_232:\n        /* \"#utility.yul\":1726:1761   */\n      swap1\n      pop\n        /* \"#utility.yul\":1671:1767   */\n      swap2\n      swap1\n      pop\n      jump\t// out\n        /* \"#utility.yul\":1773:1895   */\n    tag_193:\n        /* \"#utility.yul\":1846:1870   */\n      tag_234\n        /* \"#utility.yul\":1864:1869   */\n      dup2\n        /* \"#utility.yul\":1846:1870   */\n      tag_192\n      jump\t// in\n    tag_234:\n        /* \"#utility.yul\":1839:1844   */\n      dup2\n        /* \"#utility.yul\":1836:1871   */\n      eq\n        /* \"#utility.yul\":1826:1889   */\n      tag_235\n      jumpi\n        /* \"#utility.yul\":1885:1886   */\n      0x00\n        /* \"#utility.yul\":1882:1883   */\n      dup1\n        /* \"#utility.yul\":1875:1887   */\n      revert\n        /* \"#utility.yul\":1826:1889   */\n    tag_235:\n        /* \"#utility.yul\":1773:1895   */\n      pop\n      jump\t// out\n        /* \"#utility.yul\":1901:2040   */\n    tag_194:\n        /* \"#utility.yul\":1947:1952   */\n      0x00\n        /* \"#utility.yul\":1985:1991   */\n      dup2\n        /* \"#utility.yul\":1972:1992   */\n      calldataload\n        /* \"#utility.yul\":1963:1992   */\n      swap1\n      pop\n        /* \"#utility.yul\":2001:2034   */\n      tag_237\n        /* \"#utility.yul\":2028:2033   */\n      dup2\n        /* \"#utility.yul\":2001:2034   */\n      tag_193\n      jump\t// in\n    tag_237:\n        /* \"#utility.yul\":1901:2040   */\n      swap3\n      swap2\n      pop\n      pop\n      jump\t// out\n        /* \"#utility.yul\":2046:2375   */\n    tag_29:\n        /* \"#utility.yul\":2105:2111   */\n      0x00\n        /* \"#utility.yul\":2154:2156   */\n      0x20\n        /* \"#utility.yul\":2142:2151   */\n      dup3\n        /* \"#utility.yul\":2133:2140   */\n      dup5\n        /* \"#utility.yul\":2129:2152   */\n      sub\n        /* \"#utility.yul\":2125:2157   */\n      slt\n        /* \"#utility.yul\":2122:2241   */\n      iszero\n      tag_239\n      jumpi\n        /* \"#utility.yul\":2160:2239   */\n      tag_240\n      tag_189\n      jump\t// in\n    tag_240:\n        /* \"#utility.yul\":2122:2241   */\n    tag_239:\n        /* \"#utility.yul\":2280:2281   */\n      0x00\n        /* \"#utility.yul\":2305:2358   */\n      tag_241\n        /* \"#utility.yul\":2350:2357   */\n      dup5\n        /* \"#utility.yul\":2341:2347   */\n      dup3\n        /* \"#utility.yul\":2330:2339   */\n      dup6\n        /* \"#utility.yul\":2326:2348   */\n      add\n        /* \"#utility.yul\":2305:2358   */\n      tag_194\n      jump\t// in\n    tag_241:\n        /* \"#utility.yul\":2295:2358   */\n      swap2\n      pop\n        /* \"#utility.yul\":2251:2368   */\n      pop\n        /* \"#utility.yul\":2046:2375   */\n      swap3\n      swap2\n      pop\n      pop\n      jump\t// out\n        /* \"#utility.yul\":2381:2458   */\n    tag_195:\n        /* \"#utility.yul\":2418:2425   */\n      0x00\n        /* \"#utility.yul\":2447:2452   */\n      dup2\n        /* \"#utility.yul\":2436:2452   */\n      swap1\n      pop\n        /* \"#utility.yul\":2381:2458   */\n      swap2\n      swap1\n      pop\n      jump\t// out\n        /* \"#utility.yul\":2464:2582   */\n    tag_196:\n        /* \"#utility.yul\":2551:2575   */\n      tag_244\n        /* \"#utility.yul\":2569:2574   */\n      dup2\n        /* \"#utility.yul\":2551:2575   */\n      tag_195\n      jump\t// in\n    tag_244:\n        /* \"#utility.yul\":2546:2549   */\n      dup3\n        /* \"#utility.yul\":2539:2576   */\n      mstore\n        /* \"#utility.yul\":2464:2582   */\n      pop\n      pop\n      jump\t// out\n        /* \"#utility.yul\":2588:2810   */\n    tag_32:\n        /* \"#utility.yul\":2681:2685   */\n      0x00\n        /* \"#utility.yul\":2719:2721   */\n      0x20\n        /* \"#utility.yul\":2708:2717   */\n      dup3\n        /* \"#utility.yul\":2704:2722   */\n      add\n        /* \"#utility.yul\":2696:2722   */\n      swap1\n      pop\n        /* \"#utility.yul\":2732:2803   */\n      tag_246\n        /* \"#utility.yul\":2800:2801   */\n      0x00\n        /* \"#utility.yul\":2789:2798   */\n      dup4\n        /* \"#utility.yul\":2785:2802   */\n      add\n        /* \"#utility.yul\":2776:2782   */\n      dup5\n        /* \"#utility.yul\":2732:2803   */\n      tag_196\n      jump\t// in\n    tag_246:\n        /* \"#utility.yul\":2588:2810   */\n      swap3\n      swap2\n      pop\n      pop\n      jump\t// out\n        /* \"#utility.yul\":2816:2938   */\n    tag_197:\n        /* \"#utility.yul\":2889:2913   */\n      tag_248\n        /* \"#utility.yul\":2907:2912   */\n      dup2\n        /* \"#utility.yul\":2889:2913   */\n      tag_195\n      jump\t// in\n    tag_248:\n        /* \"#utility.yul\":2882:2887   */\n      dup2\n        /* \"#utility.yul\":2879:2914   */\n      eq\n        /* \"#utility.yul\":2869:2932   */\n      tag_249\n      jumpi\n        /* \"#utility.yul\":2928:2929   */\n      0x00\n        /* \"#utility.yul\":2925:2926   */\n      dup1\n        /* \"#utility.yul\":2918:2930   */\n      revert\n        /* \"#utility.yul\":2869:2932   */\n    tag_249:\n        /* \"#utility.yul\":2816:2938   */\n      pop\n      jump\t// out\n        /* \"#utility.yul\":2944:3083   */\n    tag_198:\n        /* \"#utility.yul\":2990:2995   */\n      0x00\n        /* \"#utility.yul\":3028:3034   */\n      dup2\n        /* \"#utility.yul\":3015:3035   */\n      calldataload\n        /* \"#utility.yul\":3006:3035   */\n      swap1\n      pop\n        /* \"#utility.yul\":3044:3077   */\n      tag_251\n        /* \"#utility.yul\":3071:3076   */\n      dup2\n        /* \"#utility.yul\":3044:3077   */\n      tag_197\n      jump\t// in\n    tag_251:\n        /* \"#utility.yul\":2944:3083   */\n      swap3\n      swap2\n      pop\n      pop\n      jump\t// out\n        /* \"#utility.yul\":3089:3418   */\n    tag_36:\n        /* \"#utility.yul\":3148:3154   */\n      0x00\n        /* \"#utility.yul\":3197:3199   */\n      0x20\n        /* \"#utility.yul\":3185:3194   */\n      dup3\n        /* \"#utility.yul\":3176:3183   */\n      dup5\n        /* \"#utility.yul\":3172:3195   */\n      sub\n        /* \"#utility.yul\":3168:3200   */\n      slt\n        /* \"#utility.yul\":3165:3284   */\n      iszero\n      tag_253\n      jumpi\n        /* \"#utility.yul\":3203:3282   */\n      tag_254\n      tag_189\n      jump\t// in\n    tag_254:\n        /* \"#utility.yul\":3165:3284   */\n    tag_253:\n        /* \"#utility.yul\":3323:3324   */\n      0x00\n        /* \"#utility.yul\":3348:3401   */\n      tag_255\n        /* \"#utility.yul\":3393:3400   */\n      dup5\n        /* \"#utility.yul\":3384:3390   */\n      dup3\n        /* \"#utility.yul\":3373:3382   */\n      dup6\n        /* \"#utility.yul\":3369:3391   */\n      add\n        /* \"#utility.yul\":3348:3401   */\n      tag_198\n      jump\t// in\n    tag_255:\n        /* \"#utility.yul\":3338:3401   */\n      swap2\n      pop\n        /* \"#utility.yul\":3294:3411   */\n      pop\n        /* \"#utility.yul\":3089:3418   */\n      swap3\n      swap2\n      pop\n      pop\n      jump\t// out\n        /* \"#utility.yul\":3424:3542   */\n    tag_199:\n        /* \"#utility.yul\":3511:3535   */\n      tag_257\n        /* \"#utility.yul\":3529:3534   */\n      dup2\n        /* \"#utility.yul\":3511:3535   */\n      tag_192\n      jump\t// in\n    tag_257:\n        /* \"#utility.yul\":3506:3509   */\n      dup3\n        /* \"#utility.yul\":3499:3536   */\n      mstore\n        /* \"#utility.yul\":3424:3542   */\n      pop\n      pop\n      jump\t// out\n        /* \"#utility.yul\":3548:3770   */\n    tag_39:\n        /* \"#utility.yul\":3641:3645   */\n      0x00\n        /* \"#utility.yul\":3679:3681   */\n      0x20\n        /* \"#utility.yul\":3668:3677   */\n      dup3\n        /* \"#utility.yul\":3664:3682   */\n      add\n        /* \"#utility.yul\":3656:3682   */\n      swap1\n      pop\n        /* \"#utility.yul\":3692:3763   */\n      tag_259\n        /* \"#utility.yul\":3760:3761   */\n      0x00\n        /* \"#utility.yul\":3749:3758   */\n      dup4\n        /* \"#utility.yul\":3745:3762   */\n      add\n        /* \"#utility.yul\":3736:3742   */\n      dup5\n        /* \"#utility.yul\":3692:3763   */\n      tag_199\n      jump\t// in\n    tag_259:\n        /* \"#utility.yul\":3548:3770   */\n      swap3\n      swap2\n      pop\n      pop\n      jump\t// out\n        /* \"#utility.yul\":3776:3890   */\n    tag_200:\n        /* \"#utility.yul\":3843:3849   */\n      0x00\n        /* \"#utility.yul\":3877:3882   */\n      dup2\n        /* \"#utility.yul\":3871:3883   */\n      mload\n        /* \"#utility.yul\":3861:3883   */\n      swap1\n      pop\n        /* \"#utility.yul\":3776:3890   */\n      swap2\n      swap1\n      pop\n      jump\t// out\n        /* \"#utility.yul\":3896:4080   */\n    tag_201:\n        /* \"#utility.yul\":3995:4006   */\n      0x00\n        /* \"#utility.yul\":4029:4035   */\n      dup3\n        /* \"#utility.yul\":4024:4027   */\n      dup3\n        /* \"#utility.yul\":4017:4036   */\n      mstore\n        /* \"#utility.yul\":4069:4073   */\n      0x20\n        /* \"#utility.yul\":4064:4067   */\n      dup3\n        /* \"#utility.yul\":4060:4074   */\n      add\n        /* \"#utility.yul\":4045:4074   */\n      swap1\n      pop\n        /* \"#utility.yul\":3896:4080   */\n      swap3\n      swap2\n      pop\n      pop\n      jump\t// out\n        /* \"#utility.yul\":4086:4218   */\n    tag_202:\n        /* \"#utility.yul\":4153:4157   */\n      0x00\n        /* \"#utility.yul\":4176:4179   */\n      dup2\n        /* \"#utility.yul\":4168:4179   */\n      swap1\n      pop\n        /* \"#utility.yul\":4206:4210   */\n      0x20\n        /* \"#utility.yul\":4201:4204   */\n      dup3\n        /* \"#utility.yul\":4197:4211   */\n      add\n        /* \"#utility.yul\":4189:4211   */\n      swap1\n      pop\n        /* \"#utility.yul\":4086:4218   */\n      swap2\n      swap1\n      pop\n      jump\t// out\n        /* \"#utility.yul\":4224:4332   */\n    tag_203:\n        /* \"#utility.yul\":4301:4325   */\n      tag_264\n        /* \"#utility.yul\":4319:4324   */\n      dup2\n        /* \"#utility.yul\":4301:4325   */\n      tag_192\n      jump\t// in\n    tag_264:\n        /* \"#utility.yul\":4296:4299   */\n      dup3\n        /* \"#utility.yul\":4289:4326   */\n      mstore\n        /* \"#utility.yul\":4224:4332   */\n      pop\n      pop\n      jump\t// out\n        /* \"#utility.yul\":4338:4517   */\n    tag_204:\n        /* \"#utility.yul\":4407:4417   */\n      0x00\n        /* \"#utility.yul\":4428:4474   */\n      tag_266\n        /* \"#utility.yul\":4470:4473   */\n      dup4\n        /* \"#utility.yul\":4462:4468   */\n      dup4\n        /* \"#utility.yul\":4428:4474   */\n      tag_203\n      jump\t// in\n    tag_266:\n        /* \"#utility.yul\":4506:4510   */\n      0x20\n        /* \"#utility.yul\":4501:4504   */\n      dup4\n        /* \"#utility.yul\":4497:4511   */\n      add\n        /* \"#utility.yul\":4483:4511   */\n      swap1\n      pop\n        /* \"#utility.yul\":4338:4517   */\n      swap3\n      swap2\n      pop\n      pop\n      jump\t// out\n        /* \"#utility.yul\":4523:4636   */\n    tag_205:\n        /* \"#utility.yul\":4593:4597   */\n      0x00\n        /* \"#utility.yul\":4625:4629   */\n      0x20\n        /* \"#utility.yul\":4620:4623   */\n      dup3\n        /* \"#utility.yul\":4616:4630   */\n      add\n        /* \"#utility.yul\":4608:4630   */\n      swap1\n      pop\n        /* \"#utility.yul\":4523:4636   */\n      swap2\n      swap1\n      pop\n      jump\t// out\n        /* \"#utility.yul\":4672:5404   */\n    tag_206:\n        /* \"#utility.yul\":4791:4794   */\n      0x00\n        /* \"#utility.yul\":4820:4874   */\n      tag_269\n        /* \"#utility.yul\":4868:4873   */\n      dup3\n        /* \"#utility.yul\":4820:4874   */\n      tag_200\n      jump\t// in\n    tag_269:\n        /* \"#utility.yul\":4890:4976   */\n      tag_270\n        /* \"#utility.yul\":4969:4975   */\n      dup2\n        /* \"#utility.yul\":4964:4967   */\n      dup6\n        /* \"#utility.yul\":4890:4976   */\n      tag_201\n      jump\t// in\n    tag_270:\n        /* \"#utility.yul\":4883:4976   */\n      swap4\n      pop\n        /* \"#utility.yul\":5000:5056   */\n      tag_271\n        /* \"#utility.yul\":5050:5055   */\n      dup4\n        /* \"#utility.yul\":5000:5056   */\n      tag_202\n      jump\t// in\n    tag_271:\n        /* \"#utility.yul\":5079:5086   */\n      dup1\n        /* \"#utility.yul\":5110:5111   */\n      0x00\n        /* \"#utility.yul\":5095:5379   */\n    tag_272:\n        /* \"#utility.yul\":5120:5126   */\n      dup4\n        /* \"#utility.yul\":5117:5118   */\n      dup2\n        /* \"#utility.yul\":5114:5127   */\n      lt\n        /* \"#utility.yul\":5095:5379   */\n      iszero\n      tag_274\n      jumpi\n        /* \"#utility.yul\":5196:5202   */\n      dup2\n        /* \"#utility.yul\":5190:5203   */\n      mload\n        /* \"#utility.yul\":5223:5286   */\n      tag_275\n        /* \"#utility.yul\":5282:5285   */\n      dup9\n        /* \"#utility.yul\":5267:5280   */\n      dup3\n        /* \"#utility.yul\":5223:5286   */\n      tag_204\n      jump\t// in\n    tag_275:\n        /* \"#utility.yul\":5216:5286   */\n      swap8\n      pop\n        /* \"#utility.yul\":5309:5369   */\n      tag_276\n        /* \"#utility.yul\":5362:5368   */\n      dup4\n        /* \"#utility.yul\":5309:5369   */\n      tag_205\n      jump\t// in\n    tag_276:\n        /* \"#utility.yul\":5299:5369   */\n      swap3\n      pop\n        /* \"#utility.yul\":5155:5379   */\n      pop\n        /* \"#utility.yul\":5142:5143   */\n      0x01\n        /* \"#utility.yul\":5139:5140   */\n      dup2\n        /* \"#utility.yul\":5135:5144   */\n      add\n        /* \"#utility.yul\":5130:5144   */\n      swap1\n      pop\n        /* \"#utility.yul\":5095:5379   */\n      jump(tag_272)\n    tag_274:\n        /* \"#utility.yul\":5099:5113   */\n      pop\n        /* \"#utility.yul\":5395:5398   */\n      dup6\n        /* \"#utility.yul\":5388:5398   */\n      swap4\n      pop\n        /* \"#utility.yul\":4796:5404   */\n      pop\n      pop\n      pop\n        /* \"#utility.yul\":4672:5404   */\n      swap3\n      swap2\n      pop\n      pop\n      jump\t// out\n        /* \"#utility.yul\":5410:5524   */\n    tag_207:\n        /* \"#utility.yul\":5477:5483   */\n      0x00\n        /* \"#utility.yul\":5511:5516   */\n      dup2\n        /* \"#utility.yul\":5505:5517   */\n      mload\n        /* \"#utility.yul\":5495:5517   */\n      swap1\n      pop\n        /* \"#utility.yul\":5410:5524   */\n      swap2\n      swap1\n      pop\n      jump\t// out\n        /* \"#utility.yul\":5530:5714   */\n    tag_208:\n        /* \"#utility.yul\":5629:5640   */\n      0x00\n        /* \"#utility.yul\":5663:5669   */\n      dup3\n        /* \"#utility.yul\":5658:5661   */\n      dup3\n        /* \"#utility.yul\":5651:5670   */\n      mstore\n        /* \"#utility.yul\":5703:5707   */\n      0x20\n        /* \"#utility.yul\":5698:5701   */\n      dup3\n        /* \"#utility.yul\":5694:5708   */\n      add\n        /* \"#utility.yul\":5679:5708   */\n      swap1\n      pop\n        /* \"#utility.yul\":5530:5714   */\n      swap3\n      swap2\n      pop\n      pop\n      jump\t// out\n        /* \"#utility.yul\":5720:5852   */\n    tag_209:\n        /* \"#utility.yul\":5787:5791   */\n      0x00\n        /* \"#utility.yul\":5810:5813   */\n      dup2\n        /* \"#utility.yul\":5802:5813   */\n      swap1\n      pop\n        /* \"#utility.yul\":5840:5844   */\n      0x20\n        /* \"#utility.yul\":5835:5838   */\n      dup3\n        /* \"#utility.yul\":5831:5845   */\n      add\n        /* \"#utility.yul\":5823:5845   */\n      swap1\n      pop\n        /* \"#utility.yul\":5720:5852   */\n      swap2\n      swap1\n      pop\n      jump\t// out\n        /* \"#utility.yul\":5858:5966   */\n    tag_210:\n        /* \"#utility.yul\":5935:5959   */\n      tag_281\n        /* \"#utility.yul\":5953:5958   */\n      dup2\n        /* \"#utility.yul\":5935:5959   */\n      tag_195\n      jump\t// in\n    tag_281:\n        /* \"#utility.yul\":5930:5933   */\n      dup3\n        /* \"#utility.yul\":5923:5960   */\n      mstore\n        /* \"#utility.yul\":5858:5966   */\n      pop\n      pop\n      jump\t// out\n        /* \"#utility.yul\":5972:6151   */\n    tag_211:\n        /* \"#utility.yul\":6041:6051   */\n      0x00\n        /* \"#utility.yul\":6062:6108   */\n      tag_283\n        /* \"#utility.yul\":6104:6107   */\n      dup4\n        /* \"#utility.yul\":6096:6102   */\n      dup4\n        /* \"#utility.yul\":6062:6108   */\n      tag_210\n      jump\t// in\n    tag_283:\n        /* \"#utility.yul\":6140:6144   */\n      0x20\n        /* \"#utility.yul\":6135:6138   */\n      dup4\n        /* \"#utility.yul\":6131:6145   */\n      add\n        /* \"#utility.yul\":6117:6145   */\n      swap1\n      pop\n        /* \"#utility.yul\":5972:6151   */\n      swap3\n      swap2\n      pop\n      pop\n      jump\t// out\n        /* \"#utility.yul\":6157:6270   */\n    tag_212:\n        /* \"#utility.yul\":6227:6231   */\n      0x00\n        /* \"#utility.yul\":6259:6263   */\n      0x20\n        /* \"#utility.yul\":6254:6257   */\n      dup3\n        /* \"#utility.yul\":6250:6264   */\n      add\n        /* \"#utility.yul\":6242:6264   */\n      swap1\n      pop\n        /* \"#utility.yul\":6157:6270   */\n      swap2\n      swap1\n      pop\n      jump\t// out\n        /* \"#utility.yul\":6306:7038   */\n    tag_213:\n        /* \"#utility.yul\":6425:6428   */\n      0x00\n        /* \"#utility.yul\":6454:6508   */\n      tag_286\n        /* \"#utility.yul\":6502:6507   */\n      dup3\n        /* \"#utility.yul\":6454:6508   */\n      tag_207\n      jump\t// in\n    tag_286:\n        /* \"#utility.yul\":6524:6610   */\n      tag_287\n        /* \"#utility.yul\":6603:6609   */\n      dup2\n        /* \"#utility.yul\":6598:6601   */\n      dup6\n        /* \"#utility.yul\":6524:6610   */\n      tag_208\n      jump\t// in\n    tag_287:\n        /* \"#utility.yul\":6517:6610   */\n      swap4\n      pop\n        /* \"#utility.yul\":6634:6690   */\n      tag_288\n        /* \"#utility.yul\":6684:6689   */\n      dup4\n        /* \"#utility.yul\":6634:6690   */\n      tag_209\n      jump\t// in\n    tag_288:\n        /* \"#utility.yul\":6713:6720   */\n      dup1\n        /* \"#utility.yul\":6744:6745   */\n      0x00\n        /* \"#utility.yul\":6729:7013   */\n    tag_289:\n        /* \"#utility.yul\":6754:6760   */\n      dup4\n        /* \"#utility.yul\":6751:6752   */\n      dup2\n        /* \"#utility.yul\":6748:6761   */\n      lt\n        /* \"#utility.yul\":6729:7013   */\n      iszero\n      tag_291\n      jumpi\n        /* \"#utility.yul\":6830:6836   */\n      dup2\n        /* \"#utility.yul\":6824:6837   */\n      mload\n        /* \"#utility.yul\":6857:6920   */\n      tag_292\n        /* \"#utility.yul\":6916:6919   */\n      dup9\n        /* \"#utility.yul\":6901:6914   */\n      dup3\n        /* \"#utility.yul\":6857:6920   */\n      tag_211\n      jump\t// in\n    tag_292:\n        /* \"#utility.yul\":6850:6920   */\n      swap8\n      pop\n        /* \"#utility.yul\":6943:7003   */\n      tag_293\n        /* \"#utility.yul\":6996:7002   */\n      dup4\n        /* \"#utility.yul\":6943:7003   */\n      tag_212\n      jump\t// in\n    tag_293:\n        /* \"#utility.yul\":6933:7003   */\n      swap3\n      pop\n        /* \"#utility.yul\":6789:7013   */\n      pop\n        /* \"#utility.yul\":6776:6777   */\n      0x01\n        /* \"#utility.yul\":6773:6774   */\n      dup2\n        /* \"#utility.yul\":6769:6778   */\n      add\n        /* \"#utility.yul\":6764:6778   */\n      swap1\n      pop\n        /* \"#utility.yul\":6729:7013   */\n      jump(tag_289)\n    tag_291:\n        /* \"#utility.yul\":6733:6747   */\n      pop\n        /* \"#utility.yul\":7029:7032   */\n      dup6\n        /* \"#utility.yul\":7022:7032   */\n      swap4\n      pop\n        /* \"#utility.yul\":6430:7038   */\n      pop\n      pop\n      pop\n        /* \"#utility.yul\":6306:7038   */\n      swap3\n      swap2\n      pop\n      pop\n      jump\t// out\n        /* \"#utility.yul\":7044:7678   */\n    tag_68:\n        /* \"#utility.yul\":7265:7269   */\n      0x00\n        /* \"#utility.yul\":7303:7305   */\n      0x40\n        /* \"#utility.yul\":7292:7301   */\n      dup3\n        /* \"#utility.yul\":7288:7306   */\n      add\n        /* \"#utility.yul\":7280:7306   */\n      swap1\n      pop\n        /* \"#utility.yul\":7352:7361   */\n      dup2\n        /* \"#utility.yul\":7346:7350   */\n      dup2\n        /* \"#utility.yul\":7342:7362   */\n      sub\n        /* \"#utility.yul\":7338:7339   */\n      0x00\n        /* \"#utility.yul\":7327:7336   */\n      dup4\n        /* \"#utility.yul\":7323:7340   */\n      add\n        /* \"#utility.yul\":7316:7363   */\n      mstore\n        /* \"#utility.yul\":7380:7488   */\n      tag_295\n        /* \"#utility.yul\":7483:7487   */\n      dup2\n        /* \"#utility.yul\":7474:7480   */\n      dup6\n        /* \"#utility.yul\":7380:7488   */\n      tag_206\n      jump\t// in\n    tag_295:\n        /* \"#utility.yul\":7372:7488   */\n      swap1\n      pop\n        /* \"#utility.yul\":7535:7544   */\n      dup2\n        /* \"#utility.yul\":7529:7533   */\n      dup2\n        /* \"#utility.yul\":7525:7545   */\n      sub\n        /* \"#utility.yul\":7520:7522   */\n      0x20\n        /* \"#utility.yul\":7509:7518   */\n      dup4\n        /* \"#utility.yul\":7505:7523   */\n      add\n        /* \"#utility.yul\":7498:7546   */\n      mstore\n        /* \"#utility.yul\":7563:7671   */\n      tag_296\n        /* \"#utility.yul\":7666:7670   */\n      dup2\n        /* \"#utility.yul\":7657:7663   */\n      dup5\n        /* \"#utility.yul\":7563:7671   */\n      tag_213\n      jump\t// in\n    tag_296:\n        /* \"#utility.yul\":7555:7671   */\n      swap1\n      pop\n        /* \"#utility.yul\":7044:7678   */\n      swap4\n      swap3\n      pop\n      pop\n      pop\n      jump\t// out\n        /* \"#utility.yul\":7684:7864   */\n    tag_214:\n        /* \"#utility.yul\":7732:7809   */\n      0x4e487b7100000000000000000000000000000000000000000000000000000000\n        /* \"#utility.yul\":7729:7730   */\n      0x00\n        /* \"#utility.yul\":7722:7810   */\n      mstore\n        /* \"#utility.yul\":7829:7833   */\n      0x11\n        /* \"#utility.yul\":7826:7827   */\n      0x04\n        /* \"#utility.yul\":7819:7834   */\n      mstore\n        /* \"#utility.yul\":7853:7857   */\n      0x24\n        /* \"#utility.yul\":7850:7851   */\n      0x00\n        /* \"#utility.yul\":7843:7858   */\n      revert\n        /* \"#utility.yul\":7870:8061   */\n    tag_77:\n        /* \"#utility.yul\":7910:7913   */\n      0x00\n        /* \"#utility.yul\":7929:7949   */\n      tag_299\n        /* \"#utility.yul\":7947:7948   */\n      dup3\n        /* \"#utility.yul\":7929:7949   */\n      tag_195\n      jump\t// in\n    tag_299:\n        /* \"#utility.yul\":7924:7949   */\n      swap2\n      pop\n        /* \"#utility.yul\":7963:7983   */\n      tag_300\n        /* \"#utility.yul\":7981:7982   */\n      dup4\n        /* \"#utility.yul\":7963:7983   */\n      tag_195\n      jump\t// in\n    tag_300:\n        /* \"#utility.yul\":7958:7983   */\n      swap3\n      pop\n        /* \"#utility.yul\":8006:8007   */\n      dup3\n        /* \"#utility.yul\":8003:8004   */\n      dup3\n        /* \"#utility.yul\":7999:8008   */\n      add\n        /* \"#utility.yul\":7992:8008   */\n      swap1\n      pop\n        /* \"#utility.yul\":8027:8030   */\n      dup1\n        /* \"#utility.yul\":8024:8025   */\n      dup3\n        /* \"#utility.yul\":8021:8031   */\n      gt\n        /* \"#utility.yul\":8018:8054   */\n      iszero\n      tag_301\n      jumpi\n        /* \"#utility.yul\":8034:8052   */\n      tag_302\n      tag_214\n      jump\t// in\n    tag_302:\n        /* \"#utility.yul\":8018:8054   */\n    tag_301:\n        /* \"#utility.yul\":7870:8061   */\n      swap3\n      swap2\n      pop\n      pop\n      jump\t// out\n        /* \"#utility.yul\":8067:8291   */\n    tag_215:\n        /* \"#utility.yul\":8207:8241   */\n      0x4f6e6c792061646d696e2063616e20706572666f726d2074686973206f706572\n        /* \"#utility.yul\":8203:8204   */\n      0x00\n        /* \"#utility.yul\":8195:8201   */\n      dup3\n        /* \"#utility.yul\":8191:8205   */\n      add\n        /* \"#utility.yul\":8184:8242   */\n      mstore\n        /* \"#utility.yul\":8276:8283   */\n      0x6174696f6e000000000000000000000000000000000000000000000000000000\n        /* \"#utility.yul\":8271:8273   */\n      0x20\n        /* \"#utility.yul\":8263:8269   */\n      dup3\n        /* \"#utility.yul\":8259:8274   */\n      add\n        /* \"#utility.yul\":8252:8284   */\n      mstore\n        /* \"#utility.yul\":8067:8291   */\n      pop\n      jump\t// out\n        /* \"#utility.yul\":8297:8663   */\n    tag_216:\n        /* \"#utility.yul\":8439:8442   */\n      0x00\n        /* \"#utility.yul\":8460:8527   */\n      tag_305\n        /* \"#utility.yul\":8524:8526   */\n      0x25\n        /* \"#utility.yul\":8519:8522   */\n      dup4\n        /* \"#utility.yul\":8460:8527   */\n      tag_185\n      jump\t// in\n    tag_305:\n        /* \"#utility.yul\":8453:8527   */\n      swap2\n      pop\n        /* \"#utility.yul\":8536:8629   */\n      tag_306\n        /* \"#utility.yul\":8625:8628   */\n      dup3\n        /* \"#utility.yul\":8536:8629   */\n      tag_215\n      jump\t// in\n    tag_306:\n        /* \"#utility.yul\":8654:8656   */\n      0x40\n        /* \"#utility.yul\":8649:8652   */\n      dup3\n        /* \"#utility.yul\":8645:8657   */\n      add\n        /* \"#utility.yul\":8638:8657   */\n      swap1\n      pop\n        /* \"#utility.yul\":8297:8663   */\n      swap2\n      swap1\n      pop\n      jump\t// out\n        /* \"#utility.yul\":8669:9088   */\n    tag_86:\n        /* \"#utility.yul\":8835:8839   */\n      0x00\n        /* \"#utility.yul\":8873:8875   */\n      0x20\n        /* \"#utility.yul\":8862:8871   */\n      dup3\n        /* \"#utility.yul\":8858:8876   */\n      add\n        /* \"#utility.yul\":8850:8876   */\n      swap1\n      pop\n        /* \"#utility.yul\":8922:8931   */\n      dup2\n        /* \"#utility.yul\":8916:8920   */\n      dup2\n        /* \"#utility.yul\":8912:8932   */\n      sub\n        /* \"#utility.yul\":8908:8909   */\n      0x00\n        /* \"#utility.yul\":8897:8906   */\n      dup4\n        /* \"#utility.yul\":8893:8910   */\n      add\n        /* \"#utility.yul\":8886:8933   */\n      mstore\n        /* \"#utility.yul\":8950:9081   */\n      tag_308\n        /* \"#utility.yul\":9076:9080   */\n      dup2\n        /* \"#utility.yul\":8950:9081   */\n      tag_216\n      jump\t// in\n    tag_308:\n        /* \"#utility.yul\":8942:9081   */\n      swap1\n      pop\n        /* \"#utility.yul\":8669:9088   */\n      swap2\n      swap1\n      pop\n      jump\t// out\n        /* \"#utility.yul\":9094:9264   */\n    tag_217:\n        /* \"#utility.yul\":9234:9256   */\n      0x4e6f2066756e647320746f207769746864726177000000000000000000000000\n        /* \"#utility.yul\":9230:9231   */\n      0x00\n        /* \"#utility.yul\":9222:9228   */\n      dup3\n        /* \"#utility.yul\":9218:9232   */\n      add\n        /* \"#utility.yul\":9211:9257   */\n      mstore\n        /* \"#utility.yul\":9094:9264   */\n      pop\n      jump\t// out\n        /* \"#utility.yul\":9270:9636   */\n    tag_218:\n        /* \"#utility.yul\":9412:9415   */\n      0x00\n        /* \"#utility.yul\":9433:9500   */\n      tag_311\n        /* \"#utility.yul\":9497:9499   */\n      0x14\n        /* \"#utility.yul\":9492:9495   */\n      dup4\n        /* \"#utility.yul\":9433:9500   */\n      tag_185\n      jump\t// in\n    tag_311:\n        /* \"#utility.yul\":9426:9500   */\n      swap2\n      pop\n        /* \"#utility.yul\":9509:9602   */\n      tag_312\n        /* \"#utility.yul\":9598:9601   */\n      dup3\n        /* \"#utility.yul\":9509:9602   */\n      tag_217\n      jump\t// in\n    tag_312:\n        /* \"#utility.yul\":9627:9629   */\n      0x20\n        /* \"#utility.yul\":9622:9625   */\n      dup3\n        /* \"#utility.yul\":9618:9630   */\n      add\n        /* \"#utility.yul\":9611:9630   */\n      swap1\n      pop\n        /* \"#utility.yul\":9270:9636   */\n      swap2\n      swap1\n      pop\n      jump\t// out\n        /* \"#utility.yul\":9642:10061   */\n    tag_90:\n        /* \"#utility.yul\":9808:9812   */\n      0x00\n        /* \"#utility.yul\":9846:9848   */\n      0x20\n        /* \"#utility.yul\":9835:9844   */\n      dup3\n        /* \"#utility.yul\":9831:9849   */\n      add\n        /* \"#utility.yul\":9823:9849   */\n      swap1\n      pop\n        /* \"#utility.yul\":9895:9904   */\n      dup2\n        /* \"#utility.yul\":9889:9893   */\n      dup2\n        /* \"#utility.yul\":9885:9905   */\n      sub\n        /* \"#utility.yul\":9881:9882   */\n      0x00\n        /* \"#utility.yul\":9870:9879   */\n      dup4\n        /* \"#utility.yul\":9866:9883   */\n      add\n        /* \"#utility.yul\":9859:9906   */\n      mstore\n        /* \"#utility.yul\":9923:10054   */\n      tag_314\n        /* \"#utility.yul\":10049:10053   */\n      dup2\n        /* \"#utility.yul\":9923:10054   */\n      tag_218\n      jump\t// in\n    tag_314:\n        /* \"#utility.yul\":9915:10054   */\n      swap1\n      pop\n        /* \"#utility.yul\":9642:10061   */\n      swap2\n      swap1\n      pop\n      jump\t// out\n        /* \"#utility.yul\":10067:10247   */\n    tag_114:\n        /* \"#utility.yul\":10115:10192   */\n      0x4e487b7100000000000000000000000000000000000000000000000000000000\n        /* \"#utility.yul\":10112:10113   */\n      0x00\n        /* \"#utility.yul\":10105:10193   */\n      mstore\n        /* \"#utility.yul\":10212:10216   */\n      0x32\n        /* \"#utility.yul\":10209:10210   */\n      0x04\n        /* \"#utility.yul\":10202:10217   */\n      mstore\n        /* \"#utility.yul\":10236:10240   */\n      0x24\n        /* \"#utility.yul\":10233:10234   */\n      0x00\n        /* \"#utility.yul\":10226:10241   */\n      revert\n        /* \"#utility.yul\":10253:10447   */\n    tag_148:\n        /* \"#utility.yul\":10293:10297   */\n      0x00\n        /* \"#utility.yul\":10313:10333   */\n      tag_317\n        /* \"#utility.yul\":10331:10332   */\n      dup3\n        /* \"#utility.yul\":10313:10333   */\n      tag_195\n      jump\t// in\n    tag_317:\n        /* \"#utility.yul\":10308:10333   */\n      swap2\n      pop\n        /* \"#utility.yul\":10347:10367   */\n      tag_318\n        /* \"#utility.yul\":10365:10366   */\n      dup4\n        /* \"#utility.yul\":10347:10367   */\n      tag_195\n      jump\t// in\n    tag_318:\n        /* \"#utility.yul\":10342:10367   */\n      swap3\n      pop\n        /* \"#utility.yul\":10391:10392   */\n      dup3\n        /* \"#utility.yul\":10388:10389   */\n      dup3\n        /* \"#utility.yul\":10384:10393   */\n      sub\n        /* \"#utility.yul\":10376:10393   */\n      swap1\n      pop\n        /* \"#utility.yul\":10415:10416   */\n      dup2\n        /* \"#utility.yul\":10409:10413   */\n      dup2\n        /* \"#utility.yul\":10406:10417   */\n      gt\n        /* \"#utility.yul\":10403:10440   */\n      iszero\n      tag_319\n      jumpi\n        /* \"#utility.yul\":10420:10438   */\n      tag_320\n      tag_214\n      jump\t// in\n    tag_320:\n        /* \"#utility.yul\":10403:10440   */\n    tag_319:\n        /* \"#utility.yul\":10253:10447   */\n      swap3\n      swap2\n      pop\n      pop\n      jump\t// out\n\n    auxdata: 0xa2646970667358221220938e77393a97927ca60268bfddc1ed892114e3d41d21187d5bf7fa4cd520571164736f6c634300081a0033\n}\n",
				"bytecode": {
					"linkReferences": {},
					"object": "6080604052348015600e575f80fd5b50335f806101000a81548173ffffffffffffffffffffffffffffffffffffffff021916908373ffffffffffffffffffffffffffffffffffffffff1602179055506112158061005b5f395ff3fe608060405260043610610094575f3560e01c80636f9fb98a116100585780636f9fb98a1461023b57806391c1aae614610265578063d0e30db0146102a1578063f39dfb17146102ab578063f851a440146102d6576100e7565b806327e235e314610135578063365b98b2146101715780633ccfd60b146101ad57806347734892146101c3578063689dbf4e146101ff576100e7565b366100e7575f34116100db576040517f08c379a00000000000000000000000000000000000000000000000000000000081526004016100d290610d31565b60405180910390fd5b6100e53334610300565b005b5f3411610129576040517f08c379a000000000000000000000000000000000000000000000000000000000815260040161012090610d31565b60405180910390fd5b6101333334610300565b005b348015610140575f80fd5b5061015b60048036038101906101569190610dad565b610454565b6040516101689190610df0565b60405180910390f35b34801561017c575f80fd5b5061019760048036038101906101929190610e33565b610469565b6040516101a49190610e6d565b60405180910390f35b3480156101b8575f80fd5b506101c16104a4565b005b3480156101ce575f80fd5b506101e960048036038101906101e49190610dad565b6105dd565b6040516101f69190610df0565b60405180910390f35b34801561020a575f80fd5b5061022560048036038101906102209190610e33565b610623565b6040516102329190610e6d565b60405180910390f35b348015610246575f80fd5b5061024f61065e565b60405161025c9190610df0565b60405180910390f35b348015610270575f80fd5b5061028b60048036038101906102869190610e33565b610665565b6040516102989190610df0565b60405180910390f35b6102a9610685565b005b3480156102b6575f80fd5b506102bf6106d3565b6040516102cd929190610ff4565b60405180910390f35b3480156102e1575f80fd5b506102ea6107b7565b6040516102f79190610e6d565b60405180910390f35b5f60015f8473ffffffffffffffffffffffffffffffffffffffff1673ffffffffffffffffffffffffffffffffffffffff1681526020019081526020015f2054036103a557600282908060018154018082558091505060019003905f5260205f20015f9091909190916101000a81548173ffffffffffffffffffffffffffffffffffffffff021916908373ffffffffffffffffffffffffffffffffffffffff1602179055505b8060015f8473ffffffffffffffffffffffffffffffffffffffff1673ffffffffffffffffffffffffffffffffffffffff1681526020019081526020015f205f8282546103f19190611056565b925050819055508173ffffffffffffffffffffffffffffffffffffffff167fe1fffcc4923d04b559f4d29a8bfc6cda04eb5b0d3c460751c2402c5c5cc9109c8260405161043e9190610df0565b60405180910390a261045082826107da565b5050565b6001602052805f5260405f205f915090505481565b60028181548110610478575f80fd5b905f5260205f20015f915054906101000a900473ffffffffffffffffffffffffffffffffffffffff1681565b5f8054906101000a900473ffffffffffffffffffffffffffffffffffffffff1673ffffffffffffffffffffffffffffffffffffffff163373ffffffffffffffffffffffffffffffffffffffff1614610531576040517f08c379a0000000000000000000000000000000000000000000000000000000008152600401610528906110f9565b60405180910390fd5b5f4790505f8111610577576040517f08c379a000000000000000000000000000000000000000000000000000000000815260040161056e90611161565b60405180910390fd5b5f8054906101000a900473ffffffffffffffffffffffffffffffffffffffff1673ffffffffffffffffffffffffffffffffffffffff166108fc8290811502906040515f60405180830381858888f193505050501580156105d9573d5f803e3d5ffd5b5050565b5f60015f8373ffffffffffffffffffffffffffffffffffffffff1673ffffffffffffffffffffffffffffffffffffffff1681526020019081526020015f20549050919050565b60048181548110610632575f80fd5b905f5260205f20015f915054906101000a900473ffffffffffffffffffffffffffffffffffffffff1681565b5f47905090565b60038181548110610674575f80fd5b905f5260205f20015f915090505481565b5f34116106c7576040517f08c379a00000000000000000000000000000000000000000000000000000000081526004016106be90610d31565b60405180910390fd5b6106d13334610300565b565b606080600460038180548060200260200160405190810160405280929190818152602001828054801561075857602002820191905f5260205f20905b815f9054906101000a900473ffffffffffffffffffffffffffffffffffffffff1673ffffffffffffffffffffffffffffffffffffffff168152602001906001019080831161070f575b50505050509150808054806020026020016040519081016040528092919081815260200182805480156107a857602002820191905f5260205f20905b815481526020019060010190808311610794575b50505050509050915091509091565b5f8054906101000a900473ffffffffffffffffffffffffffffffffffffffff1681565b5f5b600480549050811015610893578273ffffffffffffffffffffffffffffffffffffffff16600482815481106108145761081361117f565b5b905f5260205f20015f9054906101000a900473ffffffffffffffffffffffffffffffffffffffff1673ffffffffffffffffffffffffffffffffffffffff160361088657816003828154811061086c5761086b61117f565b5b905f5260205f200181905550610880610a34565b50610a30565b80806001019150506107dc565b506003600480549050101561093557600482908060018154018082558091505060019003905f5260205f20015f9091909190916101000a81548173ffffffffffffffffffffffffffffffffffffffff021916908373ffffffffffffffffffffffffffffffffffffffff160217905550600381908060018154018082558091505060019003905f5260205f20015f9091909190915055610930610a34565b6109e1565b600360028154811061094a5761094961117f565b5b905f5260205f2001548111156109e0578160046002815481106109705761096f61117f565b5b905f5260205f20015f6101000a81548173ffffffffffffffffffffffffffffffffffffffff021916908373ffffffffffffffffffffffffffffffffffffffff1602179055508060036002815481106109cb576109ca61117f565b5b905f5260205f2001819055506109df610a34565b5b5b8173ffffffffffffffffffffffffffffffffffffffff167fd6205b4cb548ead6d931d099314bcf8c604c0908cf235d00c8ecbbff8aa77e2882604051610a279190610df0565b60405180910390a25b5050565b60016003805490501115610caf575f5b6002811015610cad575f5b816002610a5c91906111ac565b811015610c9f576003600182610a729190611056565b81548110610a8357610a8261117f565b5b905f5260205f20015460038281548110610aa057610a9f61117f565b5b905f5260205f2001541015610c92576003600182610abe9190611056565b81548110610acf57610ace61117f565b5b905f5260205f20015460038281548110610aec57610aeb61117f565b5b905f5260205f20015460038381548110610b0957610b0861117f565b5b905f5260205f20015f6003600186610b219190611056565b81548110610b3257610b3161117f565b5b905f5260205f20015f8491905055839190505550506004600182610b569190611056565b81548110610b6757610b6661117f565b5b905f5260205f20015f9054906101000a900473ffffffffffffffffffffffffffffffffffffffff1660048281548110610ba357610ba261117f565b5b905f5260205f20015f9054906101000a900473ffffffffffffffffffffffffffffffffffffffff1660048381548110610bdf57610bde61117f565b5b905f5260205f20015f6004600186610bf79190611056565b81548110610c0857610c0761117f565b5b905f5260205f20015f8491906101000a81548173ffffffffffffffffffffffffffffffffffffffff021916908373ffffffffffffffffffffffffffffffffffffffff1602179055508391906101000a81548173ffffffffffffffffffffffffffffffffffffffff021916908373ffffffffffffffffffffffffffffffffffffffff16021790555050505b8080600101915050610a4f565b508080600101915050610a44565b505b565b5f82825260208201905092915050565b7f4465706f73697420616d6f756e74206d757374206265206772656174657220745f8201527f68616e207a65726f000000000000000000000000000000000000000000000000602082015250565b5f610d1b602883610cb1565b9150610d2682610cc1565b604082019050919050565b5f6020820190508181035f830152610d4881610d0f565b9050919050565b5f80fd5b5f73ffffffffffffffffffffffffffffffffffffffff82169050919050565b5f610d7c82610d53565b9050919050565b610d8c81610d72565b8114610d96575f80fd5b50565b5f81359050610da781610d83565b92915050565b5f60208284031215610dc257610dc1610d4f565b5b5f610dcf84828501610d99565b91505092915050565b5f819050919050565b610dea81610dd8565b82525050565b5f602082019050610e035f830184610de1565b92915050565b610e1281610dd8565b8114610e1c575f80fd5b50565b5f81359050610e2d81610e09565b92915050565b5f60208284031215610e4857610e47610d4f565b5b5f610e5584828501610e1f565b91505092915050565b610e6781610d72565b82525050565b5f602082019050610e805f830184610e5e565b92915050565b5f81519050919050565b5f82825260208201905092915050565b5f819050602082019050919050565b610eb881610d72565b82525050565b5f610ec98383610eaf565b60208301905092915050565b5f602082019050919050565b5f610eeb82610e86565b610ef58185610e90565b9350610f0083610ea0565b805f5b83811015610f30578151610f178882610ebe565b9750610f2283610ed5565b925050600181019050610f03565b5085935050505092915050565b5f81519050919050565b5f82825260208201905092915050565b5f819050602082019050919050565b610f6f81610dd8565b82525050565b5f610f808383610f66565b60208301905092915050565b5f602082019050919050565b5f610fa282610f3d565b610fac8185610f47565b9350610fb783610f57565b805f5b83811015610fe7578151610fce8882610f75565b9750610fd983610f8c565b925050600181019050610fba565b5085935050505092915050565b5f6040820190508181035f83015261100c8185610ee1565b905081810360208301526110208184610f98565b90509392505050565b7f4e487b71000000000000000000000000000000000000000000000000000000005f52601160045260245ffd5b5f61106082610dd8565b915061106b83610dd8565b925082820190508082111561108357611082611029565b5b92915050565b7f4f6e6c792061646d696e2063616e20706572666f726d2074686973206f7065725f8201527f6174696f6e000000000000000000000000000000000000000000000000000000602082015250565b5f6110e3602583610cb1565b91506110ee82611089565b604082019050919050565b5f6020820190508181035f830152611110816110d7565b9050919050565b7f4e6f2066756e647320746f2077697468647261770000000000000000000000005f82015250565b5f61114b601483610cb1565b915061115682611117565b602082019050919050565b5f6020820190508181035f8301526111788161113f565b9050919050565b7f4e487b71000000000000000000000000000000000000000000000000000000005f52603260045260245ffd5b5f6111b682610dd8565b91506111c183610dd8565b92508282039050818111156111d9576111d8611029565b5b9291505056fea2646970667358221220938e77393a97927ca60268bfddc1ed892114e3d41d21187d5bf7fa4cd520571164736f6c634300081a0033",
					"opcodes": "PUSH1 0x80 PUSH1 0x40 MSTORE CALLVALUE DUP1 ISZERO PUSH1 0xE JUMPI PUSH0 DUP1 REVERT JUMPDEST POP CALLER PUSH0 DUP1 PUSH2 0x100 EXP DUP2 SLOAD DUP2 PUSH20 0xFFFFFFFFFFFFFFFFFFFFFFFFFFFFFFFFFFFFFFFF MUL NOT AND SWAP1 DUP4 PUSH20 0xFFFFFFFFFFFFFFFFFFFFFFFFFFFFFFFFFFFFFFFF AND MUL OR SWAP1 SSTORE POP PUSH2 0x1215 DUP1 PUSH2 0x5B PUSH0 CODECOPY PUSH0 RETURN INVALID PUSH1 0x80 PUSH1 0x40 MSTORE PUSH1 0x4 CALLDATASIZE LT PUSH2 0x94 JUMPI PUSH0 CALLDATALOAD PUSH1 0xE0 SHR DUP1 PUSH4 0x6F9FB98A GT PUSH2 0x58 JUMPI DUP1 PUSH4 0x6F9FB98A EQ PUSH2 0x23B JUMPI DUP1 PUSH4 0x91C1AAE6 EQ PUSH2 0x265 JUMPI DUP1 PUSH4 0xD0E30DB0 EQ PUSH2 0x2A1 JUMPI DUP1 PUSH4 0xF39DFB17 EQ PUSH2 0x2AB JUMPI DUP1 PUSH4 0xF851A440 EQ PUSH2 0x2D6 JUMPI PUSH2 0xE7 JUMP JUMPDEST DUP1 PUSH4 0x27E235E3 EQ PUSH2 0x135 JUMPI DUP1 PUSH4 0x365B98B2 EQ PUSH2 0x171 JUMPI DUP1 PUSH4 0x3CCFD60B EQ PUSH2 0x1AD JUMPI DUP1 PUSH4 0x47734892 EQ PUSH2 0x1C3 JUMPI DUP1 PUSH4 0x689DBF4E EQ PUSH2 0x1FF JUMPI PUSH2 0xE7 JUMP JUMPDEST CALLDATASIZE PUSH2 0xE7 JUMPI PUSH0 CALLVALUE GT PUSH2 0xDB JUMPI PUSH1 0x40 MLOAD PUSH32 0x8C379A000000000000000000000000000000000000000000000000000000000 DUP2 MSTORE PUSH1 0x4 ADD PUSH2 0xD2 SWAP1 PUSH2 0xD31 JUMP JUMPDEST PUSH1 0x40 MLOAD DUP1 SWAP2 SUB SWAP1 REVERT JUMPDEST PUSH2 0xE5 CALLER CALLVALUE PUSH2 0x300 JUMP JUMPDEST STOP JUMPDEST PUSH0 CALLVALUE GT PUSH2 0x129 JUMPI PUSH1 0x40 MLOAD PUSH32 0x8C379A000000000000000000000000000000000000000000000000000000000 DUP2 MSTORE PUSH1 0x4 ADD PUSH2 0x120 SWAP1 PUSH2 0xD31 JUMP JUMPDEST PUSH1 0x40 MLOAD DUP1 SWAP2 SUB SWAP1 REVERT JUMPDEST PUSH2 0x133 CALLER CALLVALUE PUSH2 0x300 JUMP JUMPDEST STOP JUMPDEST CALLVALUE DUP1 ISZERO PUSH2 0x140 JUMPI PUSH0 DUP1 REVERT JUMPDEST POP PUSH2 0x15B PUSH1 0x4 DUP1 CALLDATASIZE SUB DUP2 ADD SWAP1 PUSH2 0x156 SWAP2 SWAP1 PUSH2 0xDAD JUMP JUMPDEST PUSH2 0x454 JUMP JUMPDEST PUSH1 0x40 MLOAD PUSH2 0x168 SWAP2 SWAP1 PUSH2 0xDF0 JUMP JUMPDEST PUSH1 0x40 MLOAD DUP1 SWAP2 SUB SWAP1 RETURN JUMPDEST CALLVALUE DUP1 ISZERO PUSH2 0x17C JUMPI PUSH0 DUP1 REVERT JUMPDEST POP PUSH2 0x197 PUSH1 0x4 DUP1 CALLDATASIZE SUB DUP2 ADD SWAP1 PUSH2 0x192 SWAP2 SWAP1 PUSH2 0xE33 JUMP JUMPDEST PUSH2 0x469 JUMP JUMPDEST PUSH1 0x40 MLOAD PUSH2 0x1A4 SWAP2 SWAP1 PUSH2 0xE6D JUMP JUMPDEST PUSH1 0x40 MLOAD DUP1 SWAP2 SUB SWAP1 RETURN JUMPDEST CALLVALUE DUP1 ISZERO PUSH2 0x1B8 JUMPI PUSH0 DUP1 REVERT JUMPDEST POP PUSH2 0x1C1 PUSH2 0x4A4 JUMP JUMPDEST STOP JUMPDEST CALLVALUE DUP1 ISZERO PUSH2 0x1CE JUMPI PUSH0 DUP1 REVERT JUMPDEST POP PUSH2 0x1E9 PUSH1 0x4 DUP1 CALLDATASIZE SUB DUP2 ADD SWAP1 PUSH2 0x1E4 SWAP2 SWAP1 PUSH2 0xDAD JUMP JUMPDEST PUSH2 0x5DD JUMP JUMPDEST PUSH1 0x40 MLOAD PUSH2 0x1F6 SWAP2 SWAP1 PUSH2 0xDF0 JUMP JUMPDEST PUSH1 0x40 MLOAD DUP1 SWAP2 SUB SWAP1 RETURN JUMPDEST CALLVALUE DUP1 ISZERO PUSH2 0x20A JUMPI PUSH0 DUP1 REVERT JUMPDEST POP PUSH2 0x225 PUSH1 0x4 DUP1 CALLDATASIZE SUB DUP2 ADD SWAP1 PUSH2 0x220 SWAP2 SWAP1 PUSH2 0xE33 JUMP JUMPDEST PUSH2 0x623 JUMP JUMPDEST PUSH1 0x40 MLOAD PUSH2 0x232 SWAP2 SWAP1 PUSH2 0xE6D JUMP JUMPDEST PUSH1 0x40 MLOAD DUP1 SWAP2 SUB SWAP1 RETURN JUMPDEST CALLVALUE DUP1 ISZERO PUSH2 0x246 JUMPI PUSH0 DUP1 REVERT JUMPDEST POP PUSH2 0x24F PUSH2 0x65E JUMP JUMPDEST PUSH1 0x40 MLOAD PUSH2 0x25C SWAP2 SWAP1 PUSH2 0xDF0 JUMP JUMPDEST PUSH1 0x40 MLOAD DUP1 SWAP2 SUB SWAP1 RETURN JUMPDEST CALLVALUE DUP1 ISZERO PUSH2 0x270 JUMPI PUSH0 DUP1 REVERT JUMPDEST POP PUSH2 0x28B PUSH1 0x4 DUP1 CALLDATASIZE SUB DUP2 ADD SWAP1 PUSH2 0x286 SWAP2 SWAP1 PUSH2 0xE33 JUMP JUMPDEST PUSH2 0x665 JUMP JUMPDEST PUSH1 0x40 MLOAD PUSH2 0x298 SWAP2 SWAP1 PUSH2 0xDF0 JUMP JUMPDEST PUSH1 0x40 MLOAD DUP1 SWAP2 SUB SWAP1 RETURN JUMPDEST PUSH2 0x2A9 PUSH2 0x685 JUMP JUMPDEST STOP JUMPDEST CALLVALUE DUP1 ISZERO PUSH2 0x2B6 JUMPI PUSH0 DUP1 REVERT JUMPDEST POP PUSH2 0x2BF PUSH2 0x6D3 JUMP JUMPDEST PUSH1 0x40 MLOAD PUSH2 0x2CD SWAP3 SWAP2 SWAP1 PUSH2 0xFF4 JUMP JUMPDEST PUSH1 0x40 MLOAD DUP1 SWAP2 SUB SWAP1 RETURN JUMPDEST CALLVALUE DUP1 ISZERO PUSH2 0x2E1 JUMPI PUSH0 DUP1 REVERT JUMPDEST POP PUSH2 0x2EA PUSH2 0x7B7 JUMP JUMPDEST PUSH1 0x40 MLOAD PUSH2 0x2F7 SWAP2 SWAP1 PUSH2 0xE6D JUMP JUMPDEST PUSH1 0x40 MLOAD DUP1 SWAP2 SUB SWAP1 RETURN JUMPDEST PUSH0 PUSH1 0x1 PUSH0 DUP5 PUSH20 0xFFFFFFFFFFFFFFFFFFFFFFFFFFFFFFFFFFFFFFFF AND PUSH20 0xFFFFFFFFFFFFFFFFFFFFFFFFFFFFFFFFFFFFFFFF AND DUP2 MSTORE PUSH1 0x20 ADD SWAP1 DUP2 MSTORE PUSH1 0x20 ADD PUSH0 KECCAK256 SLOAD SUB PUSH2 0x3A5 JUMPI PUSH1 0x2 DUP3 SWAP1 DUP1 PUSH1 0x1 DUP2 SLOAD ADD DUP1 DUP3 SSTORE DUP1 SWAP2 POP POP PUSH1 0x1 SWAP1 SUB SWAP1 PUSH0 MSTORE PUSH1 0x20 PUSH0 KECCAK256 ADD PUSH0 SWAP1 SWAP2 SWAP1 SWAP2 SWAP1 SWAP2 PUSH2 0x100 EXP DUP2 SLOAD DUP2 PUSH20 0xFFFFFFFFFFFFFFFFFFFFFFFFFFFFFFFFFFFFFFFF MUL NOT AND SWAP1 DUP4 PUSH20 0xFFFFFFFFFFFFFFFFFFFFFFFFFFFFFFFFFFFFFFFF AND MUL OR SWAP1 SSTORE POP JUMPDEST DUP1 PUSH1 0x1 PUSH0 DUP5 PUSH20 0xFFFFFFFFFFFFFFFFFFFFFFFFFFFFFFFFFFFFFFFF AND PUSH20 0xFFFFFFFFFFFFFFFFFFFFFFFFFFFFFFFFFFFFFFFF AND DUP2 MSTORE PUSH1 0x20 ADD SWAP1 DUP2 MSTORE PUSH1 0x20 ADD PUSH0 KECCAK256 PUSH0 DUP3 DUP3 SLOAD PUSH2 0x3F1 SWAP2 SWAP1 PUSH2 0x1056 JUMP JUMPDEST SWAP3 POP POP DUP2 SWAP1 SSTORE POP DUP2 PUSH20 0xFFFFFFFFFFFFFFFFFFFFFFFFFFFFFFFFFFFFFFFF AND PUSH32 0xE1FFFCC4923D04B559F4D29A8BFC6CDA04EB5B0D3C460751C2402C5C5CC9109C DUP3 PUSH1 0x40 MLOAD PUSH2 0x43E SWAP2 SWAP1 PUSH2 0xDF0 JUMP JUMPDEST PUSH1 0x40 MLOAD DUP1 SWAP2 SUB SWAP1 LOG2 PUSH2 0x450 DUP3 DUP3 PUSH2 0x7DA JUMP JUMPDEST POP POP JUMP JUMPDEST PUSH1 0x1 PUSH1 0x20 MSTORE DUP1 PUSH0 MSTORE PUSH1 0x40 PUSH0 KECCAK256 PUSH0 SWAP2 POP SWAP1 POP SLOAD DUP2 JUMP JUMPDEST PUSH1 0x2 DUP2 DUP2 SLOAD DUP2 LT PUSH2 0x478 JUMPI PUSH0 DUP1 REVERT JUMPDEST SWAP1 PUSH0 MSTORE PUSH1 0x20 PUSH0 KECCAK256 ADD PUSH0 SWAP2 POP SLOAD SWAP1 PUSH2 0x100 EXP SWAP1 DIV PUSH20 0xFFFFFFFFFFFFFFFFFFFFFFFFFFFFFFFFFFFFFFFF AND DUP2 JUMP JUMPDEST PUSH0 DUP1 SLOAD SWAP1 PUSH2 0x100 EXP SWAP1 DIV PUSH20 0xFFFFFFFFFFFFFFFFFFFFFFFFFFFFFFFFFFFFFFFF AND PUSH20 0xFFFFFFFFFFFFFFFFFFFFFFFFFFFFFFFFFFFFFFFF AND CALLER PUSH20 0xFFFFFFFFFFFFFFFFFFFFFFFFFFFFFFFFFFFFFFFF AND EQ PUSH2 0x531 JUMPI PUSH1 0x40 MLOAD PUSH32 0x8C379A000000000000000000000000000000000000000000000000000000000 DUP2 MSTORE PUSH1 0x4 ADD PUSH2 0x528 SWAP1 PUSH2 0x10F9 JUMP JUMPDEST PUSH1 0x40 MLOAD DUP1 SWAP2 SUB SWAP1 REVERT JUMPDEST PUSH0 SELFBALANCE SWAP1 POP PUSH0 DUP2 GT PUSH2 0x577 JUMPI PUSH1 0x40 MLOAD PUSH32 0x8C379A000000000000000000000000000000000000000000000000000000000 DUP2 MSTORE PUSH1 0x4 ADD PUSH2 0x56E SWAP1 PUSH2 0x1161 JUMP JUMPDEST PUSH1 0x40 MLOAD DUP1 SWAP2 SUB SWAP1 REVERT JUMPDEST PUSH0 DUP1 SLOAD SWAP1 PUSH2 0x100 EXP SWAP1 DIV PUSH20 0xFFFFFFFFFFFFFFFFFFFFFFFFFFFFFFFFFFFFFFFF AND PUSH20 0xFFFFFFFFFFFFFFFFFFFFFFFFFFFFFFFFFFFFFFFF AND PUSH2 0x8FC DUP3 SWAP1 DUP2 ISZERO MUL SWAP1 PUSH1 0x40 MLOAD PUSH0 PUSH1 0x40 MLOAD DUP1 DUP4 SUB DUP2 DUP6 DUP9 DUP9 CALL SWAP4 POP POP POP POP ISZERO DUP1 ISZERO PUSH2 0x5D9 JUMPI RETURNDATASIZE PUSH0 DUP1 RETURNDATACOPY RETURNDATASIZE PUSH0 REVERT JUMPDEST POP POP JUMP JUMPDEST PUSH0 PUSH1 0x1 PUSH0 DUP4 PUSH20 0xFFFFFFFFFFFFFFFFFFFFFFFFFFFFFFFFFFFFFFFF AND PUSH20 0xFFFFFFFFFFFFFFFFFFFFFFFFFFFFFFFFFFFFFFFF AND DUP2 MSTORE PUSH1 0x20 ADD SWAP1 DUP2 MSTORE PUSH1 0x20 ADD PUSH0 KECCAK256 SLOAD SWAP1 POP SWAP2 SWAP1 POP JUMP JUMPDEST PUSH1 0x4 DUP2 DUP2 SLOAD DUP2 LT PUSH2 0x632 JUMPI PUSH0 DUP1 REVERT JUMPDEST SWAP1 PUSH0 MSTORE PUSH1 0x20 PUSH0 KECCAK256 ADD PUSH0 SWAP2 POP SLOAD SWAP1 PUSH2 0x100 EXP SWAP1 DIV PUSH20 0xFFFFFFFFFFFFFFFFFFFFFFFFFFFFFFFFFFFFFFFF AND DUP2 JUMP JUMPDEST PUSH0 SELFBALANCE SWAP1 POP SWAP1 JUMP JUMPDEST PUSH1 0x3 DUP2 DUP2 SLOAD DUP2 LT PUSH2 0x674 JUMPI PUSH0 DUP1 REVERT JUMPDEST SWAP1 PUSH0 MSTORE PUSH1 0x20 PUSH0 KECCAK256 ADD PUSH0 SWAP2 POP SWAP1 POP SLOAD DUP2 JUMP JUMPDEST PUSH0 CALLVALUE GT PUSH2 0x6C7 JUMPI PUSH1 0x40 MLOAD PUSH32 0x8C379A000000000000000000000000000000000000000000000000000000000 DUP2 MSTORE PUSH1 0x4 ADD PUSH2 0x6BE SWAP1 PUSH2 0xD31 JUMP JUMPDEST PUSH1 0x40 MLOAD DUP1 SWAP2 SUB SWAP1 REVERT JUMPDEST PUSH2 0x6D1 CALLER CALLVALUE PUSH2 0x300 JUMP JUMPDEST JUMP JUMPDEST PUSH1 0x60 DUP1 PUSH1 0x4 PUSH1 0x3 DUP2 DUP1 SLOAD DUP1 PUSH1 0x20 MUL PUSH1 0x20 ADD PUSH1 0x40 MLOAD SWAP1 DUP2 ADD PUSH1 0x40 MSTORE DUP1 SWAP3 SWAP2 SWAP1 DUP2 DUP2 MSTORE PUSH1 0x20 ADD DUP3 DUP1 SLOAD DUP1 ISZERO PUSH2 0x758 JUMPI PUSH1 0x20 MUL DUP3 ADD SWAP2 SWAP1 PUSH0 MSTORE PUSH1 0x20 PUSH0 KECCAK256 SWAP1 JUMPDEST DUP2 PUSH0 SWAP1 SLOAD SWAP1 PUSH2 0x100 EXP SWAP1 DIV PUSH20 0xFFFFFFFFFFFFFFFFFFFFFFFFFFFFFFFFFFFFFFFF AND PUSH20 0xFFFFFFFFFFFFFFFFFFFFFFFFFFFFFFFFFFFFFFFF AND DUP2 MSTORE PUSH1 0x20 ADD SWAP1 PUSH1 0x1 ADD SWAP1 DUP1 DUP4 GT PUSH2 0x70F JUMPI JUMPDEST POP POP POP POP POP SWAP2 POP DUP1 DUP1 SLOAD DUP1 PUSH1 0x20 MUL PUSH1 0x20 ADD PUSH1 0x40 MLOAD SWAP1 DUP2 ADD PUSH1 0x40 MSTORE DUP1 SWAP3 SWAP2 SWAP1 DUP2 DUP2 MSTORE PUSH1 0x20 ADD DUP3 DUP1 SLOAD DUP1 ISZERO PUSH2 0x7A8 JUMPI PUSH1 0x20 MUL DUP3 ADD SWAP2 SWAP1 PUSH0 MSTORE PUSH1 0x20 PUSH0 KECCAK256 SWAP1 JUMPDEST DUP2 SLOAD DUP2 MSTORE PUSH1 0x20 ADD SWAP1 PUSH1 0x1 ADD SWAP1 DUP1 DUP4 GT PUSH2 0x794 JUMPI JUMPDEST POP POP POP POP POP SWAP1 POP SWAP2 POP SWAP2 POP SWAP1 SWAP2 JUMP JUMPDEST PUSH0 DUP1 SLOAD SWAP1 PUSH2 0x100 EXP SWAP1 DIV PUSH20 0xFFFFFFFFFFFFFFFFFFFFFFFFFFFFFFFFFFFFFFFF AND DUP2 JUMP JUMPDEST PUSH0 JUMPDEST PUSH1 0x4 DUP1 SLOAD SWAP1 POP DUP2 LT ISZERO PUSH2 0x893 JUMPI DUP3 PUSH20 0xFFFFFFFFFFFFFFFFFFFFFFFFFFFFFFFFFFFFFFFF AND PUSH1 0x4 DUP3 DUP2 SLOAD DUP2 LT PUSH2 0x814 JUMPI PUSH2 0x813 PUSH2 0x117F JUMP JUMPDEST JUMPDEST SWAP1 PUSH0 MSTORE PUSH1 0x20 PUSH0 KECCAK256 ADD PUSH0 SWAP1 SLOAD SWAP1 PUSH2 0x100 EXP SWAP1 DIV PUSH20 0xFFFFFFFFFFFFFFFFFFFFFFFFFFFFFFFFFFFFFFFF AND PUSH20 0xFFFFFFFFFFFFFFFFFFFFFFFFFFFFFFFFFFFFFFFF AND SUB PUSH2 0x886 JUMPI DUP2 PUSH1 0x3 DUP3 DUP2 SLOAD DUP2 LT PUSH2 0x86C JUMPI PUSH2 0x86B PUSH2 0x117F JUMP JUMPDEST JUMPDEST SWAP1 PUSH0 MSTORE PUSH1 0x20 PUSH0 KECCAK256 ADD DUP2 SWAP1 SSTORE POP PUSH2 0x880 PUSH2 0xA34 JUMP JUMPDEST POP PUSH2 0xA30 JUMP JUMPDEST DUP1 DUP1 PUSH1 0x1 ADD SWAP2 POP POP PUSH2 0x7DC JUMP JUMPDEST POP PUSH1 0x3 PUSH1 0x4 DUP1 SLOAD SWAP1 POP LT ISZERO PUSH2 0x935 JUMPI PUSH1 0x4 DUP3 SWAP1 DUP1 PUSH1 0x1 DUP2 SLOAD ADD DUP1 DUP3 SSTORE DUP1 SWAP2 POP POP PUSH1 0x1 SWAP1 SUB SWAP1 PUSH0 MSTORE PUSH1 0x20 PUSH0 KECCAK256 ADD PUSH0 SWAP1 SWAP2 SWAP1 SWAP2 SWAP1 SWAP2 PUSH2 0x100 EXP DUP2 SLOAD DUP2 PUSH20 0xFFFFFFFFFFFFFFFFFFFFFFFFFFFFFFFFFFFFFFFF MUL NOT AND SWAP1 DUP4 PUSH20 0xFFFFFFFFFFFFFFFFFFFFFFFFFFFFFFFFFFFFFFFF AND MUL OR SWAP1 SSTORE POP PUSH1 0x3 DUP2 SWAP1 DUP1 PUSH1 0x1 DUP2 SLOAD ADD DUP1 DUP3 SSTORE DUP1 SWAP2 POP POP PUSH1 0x1 SWAP1 SUB SWAP1 PUSH0 MSTORE PUSH1 0x20 PUSH0 KECCAK256 ADD PUSH0 SWAP1 SWAP2 SWAP1 SWAP2 SWAP1 SWAP2 POP SSTORE PUSH2 0x930 PUSH2 0xA34 JUMP JUMPDEST PUSH2 0x9E1 JUMP JUMPDEST PUSH1 0x3 PUSH1 0x2 DUP2 SLOAD DUP2 LT PUSH2 0x94A JUMPI PUSH2 0x949 PUSH2 0x117F JUMP JUMPDEST JUMPDEST SWAP1 PUSH0 MSTORE PUSH1 0x20 PUSH0 KECCAK256 ADD SLOAD DUP2 GT ISZERO PUSH2 0x9E0 JUMPI DUP2 PUSH1 0x4 PUSH1 0x2 DUP2 SLOAD DUP2 LT PUSH2 0x970 JUMPI PUSH2 0x96F PUSH2 0x117F JUMP JUMPDEST JUMPDEST SWAP1 PUSH0 MSTORE PUSH1 0x20 PUSH0 KECCAK256 ADD PUSH0 PUSH2 0x100 EXP DUP2 SLOAD DUP2 PUSH20 0xFFFFFFFFFFFFFFFFFFFFFFFFFFFFFFFFFFFFFFFF MUL NOT AND SWAP1 DUP4 PUSH20 0xFFFFFFFFFFFFFFFFFFFFFFFFFFFFFFFFFFFFFFFF AND MUL OR SWAP1 SSTORE POP DUP1 PUSH1 0x3 PUSH1 0x2 DUP2 SLOAD DUP2 LT PUSH2 0x9CB JUMPI PUSH2 0x9CA PUSH2 0x117F JUMP JUMPDEST JUMPDEST SWAP1 PUSH0 MSTORE PUSH1 0x20 PUSH0 KECCAK256 ADD DUP2 SWAP1 SSTORE POP PUSH2 0x9DF PUSH2 0xA34 JUMP JUMPDEST JUMPDEST JUMPDEST DUP2 PUSH20 0xFFFFFFFFFFFFFFFFFFFFFFFFFFFFFFFFFFFFFFFF AND PUSH32 0xD6205B4CB548EAD6D931D099314BCF8C604C0908CF235D00C8ECBBFF8AA77E28 DUP3 PUSH1 0x40 MLOAD PUSH2 0xA27 SWAP2 SWAP1 PUSH2 0xDF0 JUMP JUMPDEST PUSH1 0x40 MLOAD DUP1 SWAP2 SUB SWAP1 LOG2 JUMPDEST POP POP JUMP JUMPDEST PUSH1 0x1 PUSH1 0x3 DUP1 SLOAD SWAP1 POP GT ISZERO PUSH2 0xCAF JUMPI PUSH0 JUMPDEST PUSH1 0x2 DUP2 LT ISZERO PUSH2 0xCAD JUMPI PUSH0 JUMPDEST DUP2 PUSH1 0x2 PUSH2 0xA5C SWAP2 SWAP1 PUSH2 0x11AC JUMP JUMPDEST DUP2 LT ISZERO PUSH2 0xC9F JUMPI PUSH1 0x3 PUSH1 0x1 DUP3 PUSH2 0xA72 SWAP2 SWAP1 PUSH2 0x1056 JUMP JUMPDEST DUP2 SLOAD DUP2 LT PUSH2 0xA83 JUMPI PUSH2 0xA82 PUSH2 0x117F JUMP JUMPDEST JUMPDEST SWAP1 PUSH0 MSTORE PUSH1 0x20 PUSH0 KECCAK256 ADD SLOAD PUSH1 0x3 DUP3 DUP2 SLOAD DUP2 LT PUSH2 0xAA0 JUMPI PUSH2 0xA9F PUSH2 0x117F JUMP JUMPDEST JUMPDEST SWAP1 PUSH0 MSTORE PUSH1 0x20 PUSH0 KECCAK256 ADD SLOAD LT ISZERO PUSH2 0xC92 JUMPI PUSH1 0x3 PUSH1 0x1 DUP3 PUSH2 0xABE SWAP2 SWAP1 PUSH2 0x1056 JUMP JUMPDEST DUP2 SLOAD DUP2 LT PUSH2 0xACF JUMPI PUSH2 0xACE PUSH2 0x117F JUMP JUMPDEST JUMPDEST SWAP1 PUSH0 MSTORE PUSH1 0x20 PUSH0 KECCAK256 ADD SLOAD PUSH1 0x3 DUP3 DUP2 SLOAD DUP2 LT PUSH2 0xAEC JUMPI PUSH2 0xAEB PUSH2 0x117F JUMP JUMPDEST JUMPDEST SWAP1 PUSH0 MSTORE PUSH1 0x20 PUSH0 KECCAK256 ADD SLOAD PUSH1 0x3 DUP4 DUP2 SLOAD DUP2 LT PUSH2 0xB09 JUMPI PUSH2 0xB08 PUSH2 0x117F JUMP JUMPDEST JUMPDEST SWAP1 PUSH0 MSTORE PUSH1 0x20 PUSH0 KECCAK256 ADD PUSH0 PUSH1 0x3 PUSH1 0x1 DUP7 PUSH2 0xB21 SWAP2 SWAP1 PUSH2 0x1056 JUMP JUMPDEST DUP2 SLOAD DUP2 LT PUSH2 0xB32 JUMPI PUSH2 0xB31 PUSH2 0x117F JUMP JUMPDEST JUMPDEST SWAP1 PUSH0 MSTORE PUSH1 0x20 PUSH0 KECCAK256 ADD PUSH0 DUP5 SWAP2 SWAP1 POP SSTORE DUP4 SWAP2 SWAP1 POP SSTORE POP POP PUSH1 0x4 PUSH1 0x1 DUP3 PUSH2 0xB56 SWAP2 SWAP1 PUSH2 0x1056 JUMP JUMPDEST DUP2 SLOAD DUP2 LT PUSH2 0xB67 JUMPI PUSH2 0xB66 PUSH2 0x117F JUMP JUMPDEST JUMPDEST SWAP1 PUSH0 MSTORE PUSH1 0x20 PUSH0 KECCAK256 ADD PUSH0 SWAP1 SLOAD SWAP1 PUSH2 0x100 EXP SWAP1 DIV PUSH20 0xFFFFFFFFFFFFFFFFFFFFFFFFFFFFFFFFFFFFFFFF AND PUSH1 0x4 DUP3 DUP2 SLOAD DUP2 LT PUSH2 0xBA3 JUMPI PUSH2 0xBA2 PUSH2 0x117F JUMP JUMPDEST JUMPDEST SWAP1 PUSH0 MSTORE PUSH1 0x20 PUSH0 KECCAK256 ADD PUSH0 SWAP1 SLOAD SWAP1 PUSH2 0x100 EXP SWAP1 DIV PUSH20 0xFFFFFFFFFFFFFFFFFFFFFFFFFFFFFFFFFFFFFFFF AND PUSH1 0x4 DUP4 DUP2 SLOAD DUP2 LT PUSH2 0xBDF JUMPI PUSH2 0xBDE PUSH2 0x117F JUMP JUMPDEST JUMPDEST SWAP1 PUSH0 MSTORE PUSH1 0x20 PUSH0 KECCAK256 ADD PUSH0 PUSH1 0x4 PUSH1 0x1 DUP7 PUSH2 0xBF7 SWAP2 SWAP1 PUSH2 0x1056 JUMP JUMPDEST DUP2 SLOAD DUP2 LT PUSH2 0xC08 JUMPI PUSH2 0xC07 PUSH2 0x117F JUMP JUMPDEST JUMPDEST SWAP1 PUSH0 MSTORE PUSH1 0x20 PUSH0 KECCAK256 ADD PUSH0 DUP5 SWAP2 SWAP1 PUSH2 0x100 EXP DUP2 SLOAD DUP2 PUSH20 0xFFFFFFFFFFFFFFFFFFFFFFFFFFFFFFFFFFFFFFFF MUL NOT AND SWAP1 DUP4 PUSH20 0xFFFFFFFFFFFFFFFFFFFFFFFFFFFFFFFFFFFFFFFF AND MUL OR SWAP1 SSTORE POP DUP4 SWAP2 SWAP1 PUSH2 0x100 EXP DUP2 SLOAD DUP2 PUSH20 0xFFFFFFFFFFFFFFFFFFFFFFFFFFFFFFFFFFFFFFFF MUL NOT AND SWAP1 DUP4 PUSH20 0xFFFFFFFFFFFFFFFFFFFFFFFFFFFFFFFFFFFFFFFF AND MUL OR SWAP1 SSTORE POP POP POP JUMPDEST DUP1 DUP1 PUSH1 0x1 ADD SWAP2 POP POP PUSH2 0xA4F JUMP JUMPDEST POP DUP1 DUP1 PUSH1 0x1 ADD SWAP2 POP POP PUSH2 0xA44 JUMP JUMPDEST POP JUMPDEST JUMP JUMPDEST PUSH0 DUP3 DUP3 MSTORE PUSH1 0x20 DUP3 ADD SWAP1 POP SWAP3 SWAP2 POP POP JUMP JUMPDEST PUSH32 0x4465706F73697420616D6F756E74206D75737420626520677265617465722074 PUSH0 DUP3 ADD MSTORE PUSH32 0x68616E207A65726F000000000000000000000000000000000000000000000000 PUSH1 0x20 DUP3 ADD MSTORE POP JUMP JUMPDEST PUSH0 PUSH2 0xD1B PUSH1 0x28 DUP4 PUSH2 0xCB1 JUMP JUMPDEST SWAP2 POP PUSH2 0xD26 DUP3 PUSH2 0xCC1 JUMP JUMPDEST PUSH1 0x40 DUP3 ADD SWAP1 POP SWAP2 SWAP1 POP JUMP JUMPDEST PUSH0 PUSH1 0x20 DUP3 ADD SWAP1 POP DUP2 DUP2 SUB PUSH0 DUP4 ADD MSTORE PUSH2 0xD48 DUP2 PUSH2 0xD0F JUMP JUMPDEST SWAP1 POP SWAP2 SWAP1 POP JUMP JUMPDEST PUSH0 DUP1 REVERT JUMPDEST PUSH0 PUSH20 0xFFFFFFFFFFFFFFFFFFFFFFFFFFFFFFFFFFFFFFFF DUP3 AND SWAP1 POP SWAP2 SWAP1 POP JUMP JUMPDEST PUSH0 PUSH2 0xD7C DUP3 PUSH2 0xD53 JUMP JUMPDEST SWAP1 POP SWAP2 SWAP1 POP JUMP JUMPDEST PUSH2 0xD8C DUP2 PUSH2 0xD72 JUMP JUMPDEST DUP2 EQ PUSH2 0xD96 JUMPI PUSH0 DUP1 REVERT JUMPDEST POP JUMP JUMPDEST PUSH0 DUP2 CALLDATALOAD SWAP1 POP PUSH2 0xDA7 DUP2 PUSH2 0xD83 JUMP JUMPDEST SWAP3 SWAP2 POP POP JUMP JUMPDEST PUSH0 PUSH1 0x20 DUP3 DUP5 SUB SLT ISZERO PUSH2 0xDC2 JUMPI PUSH2 0xDC1 PUSH2 0xD4F JUMP JUMPDEST JUMPDEST PUSH0 PUSH2 0xDCF DUP5 DUP3 DUP6 ADD PUSH2 0xD99 JUMP JUMPDEST SWAP2 POP POP SWAP3 SWAP2 POP POP JUMP JUMPDEST PUSH0 DUP2 SWAP1 POP SWAP2 SWAP1 POP JUMP JUMPDEST PUSH2 0xDEA DUP2 PUSH2 0xDD8 JUMP JUMPDEST DUP3 MSTORE POP POP JUMP JUMPDEST PUSH0 PUSH1 0x20 DUP3 ADD SWAP1 POP PUSH2 0xE03 PUSH0 DUP4 ADD DUP5 PUSH2 0xDE1 JUMP JUMPDEST SWAP3 SWAP2 POP POP JUMP JUMPDEST PUSH2 0xE12 DUP2 PUSH2 0xDD8 JUMP JUMPDEST DUP2 EQ PUSH2 0xE1C JUMPI PUSH0 DUP1 REVERT JUMPDEST POP JUMP JUMPDEST PUSH0 DUP2 CALLDATALOAD SWAP1 POP PUSH2 0xE2D DUP2 PUSH2 0xE09 JUMP JUMPDEST SWAP3 SWAP2 POP POP JUMP JUMPDEST PUSH0 PUSH1 0x20 DUP3 DUP5 SUB SLT ISZERO PUSH2 0xE48 JUMPI PUSH2 0xE47 PUSH2 0xD4F JUMP JUMPDEST JUMPDEST PUSH0 PUSH2 0xE55 DUP5 DUP3 DUP6 ADD PUSH2 0xE1F JUMP JUMPDEST SWAP2 POP POP SWAP3 SWAP2 POP POP JUMP JUMPDEST PUSH2 0xE67 DUP2 PUSH2 0xD72 JUMP JUMPDEST DUP3 MSTORE POP POP JUMP JUMPDEST PUSH0 PUSH1 0x20 DUP3 ADD SWAP1 POP PUSH2 0xE80 PUSH0 DUP4 ADD DUP5 PUSH2 0xE5E JUMP JUMPDEST SWAP3 SWAP2 POP POP JUMP JUMPDEST PUSH0 DUP2 MLOAD SWAP1 POP SWAP2 SWAP1 POP JUMP JUMPDEST PUSH0 DUP3 DUP3 MSTORE PUSH1 0x20 DUP3 ADD SWAP1 POP SWAP3 SWAP2 POP POP JUMP JUMPDEST PUSH0 DUP2 SWAP1 POP PUSH1 0x20 DUP3 ADD SWAP1 POP SWAP2 SWAP1 POP JUMP JUMPDEST PUSH2 0xEB8 DUP2 PUSH2 0xD72 JUMP JUMPDEST DUP3 MSTORE POP POP JUMP JUMPDEST PUSH0 PUSH2 0xEC9 DUP4 DUP4 PUSH2 0xEAF JUMP JUMPDEST PUSH1 0x20 DUP4 ADD SWAP1 POP SWAP3 SWAP2 POP POP JUMP JUMPDEST PUSH0 PUSH1 0x20 DUP3 ADD SWAP1 POP SWAP2 SWAP1 POP JUMP JUMPDEST PUSH0 PUSH2 0xEEB DUP3 PUSH2 0xE86 JUMP JUMPDEST PUSH2 0xEF5 DUP2 DUP6 PUSH2 0xE90 JUMP JUMPDEST SWAP4 POP PUSH2 0xF00 DUP4 PUSH2 0xEA0 JUMP JUMPDEST DUP1 PUSH0 JUMPDEST DUP4 DUP2 LT ISZERO PUSH2 0xF30 JUMPI DUP2 MLOAD PUSH2 0xF17 DUP9 DUP3 PUSH2 0xEBE JUMP JUMPDEST SWAP8 POP PUSH2 0xF22 DUP4 PUSH2 0xED5 JUMP JUMPDEST SWAP3 POP POP PUSH1 0x1 DUP2 ADD SWAP1 POP PUSH2 0xF03 JUMP JUMPDEST POP DUP6 SWAP4 POP POP POP POP SWAP3 SWAP2 POP POP JUMP JUMPDEST PUSH0 DUP2 MLOAD SWAP1 POP SWAP2 SWAP1 POP JUMP JUMPDEST PUSH0 DUP3 DUP3 MSTORE PUSH1 0x20 DUP3 ADD SWAP1 POP SWAP3 SWAP2 POP POP JUMP JUMPDEST PUSH0 DUP2 SWAP1 POP PUSH1 0x20 DUP3 ADD SWAP1 POP SWAP2 SWAP1 POP JUMP JUMPDEST PUSH2 0xF6F DUP2 PUSH2 0xDD8 JUMP JUMPDEST DUP3 MSTORE POP POP JUMP JUMPDEST PUSH0 PUSH2 0xF80 DUP4 DUP4 PUSH2 0xF66 JUMP JUMPDEST PUSH1 0x20 DUP4 ADD SWAP1 POP SWAP3 SWAP2 POP POP JUMP JUMPDEST PUSH0 PUSH1 0x20 DUP3 ADD SWAP1 POP SWAP2 SWAP1 POP JUMP JUMPDEST PUSH0 PUSH2 0xFA2 DUP3 PUSH2 0xF3D JUMP JUMPDEST PUSH2 0xFAC DUP2 DUP6 PUSH2 0xF47 JUMP JUMPDEST SWAP4 POP PUSH2 0xFB7 DUP4 PUSH2 0xF57 JUMP JUMPDEST DUP1 PUSH0 JUMPDEST DUP4 DUP2 LT ISZERO PUSH2 0xFE7 JUMPI DUP2 MLOAD PUSH2 0xFCE DUP9 DUP3 PUSH2 0xF75 JUMP JUMPDEST SWAP8 POP PUSH2 0xFD9 DUP4 PUSH2 0xF8C JUMP JUMPDEST SWAP3 POP POP PUSH1 0x1 DUP2 ADD SWAP1 POP PUSH2 0xFBA JUMP JUMPDEST POP DUP6 SWAP4 POP POP POP POP SWAP3 SWAP2 POP POP JUMP JUMPDEST PUSH0 PUSH1 0x40 DUP3 ADD SWAP1 POP DUP2 DUP2 SUB PUSH0 DUP4 ADD MSTORE PUSH2 0x100C DUP2 DUP6 PUSH2 0xEE1 JUMP JUMPDEST SWAP1 POP DUP2 DUP2 SUB PUSH1 0x20 DUP4 ADD MSTORE PUSH2 0x1020 DUP2 DUP5 PUSH2 0xF98 JUMP JUMPDEST SWAP1 POP SWAP4 SWAP3 POP POP POP JUMP JUMPDEST PUSH32 0x4E487B7100000000000000000000000000000000000000000000000000000000 PUSH0 MSTORE PUSH1 0x11 PUSH1 0x4 MSTORE PUSH1 0x24 PUSH0 REVERT JUMPDEST PUSH0 PUSH2 0x1060 DUP3 PUSH2 0xDD8 JUMP JUMPDEST SWAP2 POP PUSH2 0x106B DUP4 PUSH2 0xDD8 JUMP JUMPDEST SWAP3 POP DUP3 DUP3 ADD SWAP1 POP DUP1 DUP3 GT ISZERO PUSH2 0x1083 JUMPI PUSH2 0x1082 PUSH2 0x1029 JUMP JUMPDEST JUMPDEST SWAP3 SWAP2 POP POP JUMP JUMPDEST PUSH32 0x4F6E6C792061646D696E2063616E20706572666F726D2074686973206F706572 PUSH0 DUP3 ADD MSTORE PUSH32 0x6174696F6E000000000000000000000000000000000000000000000000000000 PUSH1 0x20 DUP3 ADD MSTORE POP JUMP JUMPDEST PUSH0 PUSH2 0x10E3 PUSH1 0x25 DUP4 PUSH2 0xCB1 JUMP JUMPDEST SWAP2 POP PUSH2 0x10EE DUP3 PUSH2 0x1089 JUMP JUMPDEST PUSH1 0x40 DUP3 ADD SWAP1 POP SWAP2 SWAP1 POP JUMP JUMPDEST PUSH0 PUSH1 0x20 DUP3 ADD SWAP1 POP DUP2 DUP2 SUB PUSH0 DUP4 ADD MSTORE PUSH2 0x1110 DUP2 PUSH2 0x10D7 JUMP JUMPDEST SWAP1 POP SWAP2 SWAP1 POP JUMP JUMPDEST PUSH32 0x4E6F2066756E647320746F207769746864726177000000000000000000000000 PUSH0 DUP3 ADD MSTORE POP JUMP JUMPDEST PUSH0 PUSH2 0x114B PUSH1 0x14 DUP4 PUSH2 0xCB1 JUMP JUMPDEST SWAP2 POP PUSH2 0x1156 DUP3 PUSH2 0x1117 JUMP JUMPDEST PUSH1 0x20 DUP3 ADD SWAP1 POP SWAP2 SWAP1 POP JUMP JUMPDEST PUSH0 PUSH1 0x20 DUP3 ADD SWAP1 POP DUP2 DUP2 SUB PUSH0 DUP4 ADD MSTORE PUSH2 0x1178 DUP2 PUSH2 0x113F JUMP JUMPDEST SWAP1 POP SWAP2 SWAP1 POP JUMP JUMPDEST PUSH32 0x4E487B7100000000000000000000000000000000000000000000000000000000 PUSH0 MSTORE PUSH1 0x32 PUSH1 0x4 MSTORE PUSH1 0x24 PUSH0 REVERT JUMPDEST PUSH0 PUSH2 0x11B6 DUP3 PUSH2 0xDD8 JUMP JUMPDEST SWAP2 POP PUSH2 0x11C1 DUP4 PUSH2 0xDD8 JUMP JUMPDEST SWAP3 POP DUP3 DUP3 SUB SWAP1 POP DUP2 DUP2 GT ISZERO PUSH2 0x11D9 JUMPI PUSH2 0x11D8 PUSH2 0x1029 JUMP JUMPDEST JUMPDEST SWAP3 SWAP2 POP POP JUMP INVALID LOG2 PUSH5 0x6970667358 0x22 SLT KECCAK256 SWAP4 DUP15 PUSH24 0x393A97927CA60268BFDDC1ED892114E3D41D21187D5BF7FA 0x4C 0xD5 KECCAK256 JUMPI GT PUSH5 0x736F6C6343 STOP ADDMOD BYTE STOP CALLER "
				},
				"gasEstimates": {
					"creation": {
						"codeDepositCost": "925800",
						"executionCost": "25225",
						"totalCost": "951025"
					},
					"external": {
						"": "infinite",
						"admin()": "2593",
						"balances(address)": "2803",
						"deposit()": "infinite",
						"getContractBalance()": "334",
						"getTopUsers()": "infinite",
						"getUserBalance(address)": "2896",
						"topDeposits(uint256)": "infinite",
						"topUsers(uint256)": "5033",
						"users(uint256)": "4967",
						"withdraw()": "infinite"
					},
					"internal": {
						"_handleDeposit(address,uint256)": "infinite",
						"_sortTopUsers()": "infinite",
						"updateTopUsers(address,uint256)": "infinite"
					}
				},
				"methodIdentifiers": {
					"admin()": "f851a440",
					"balances(address)": "27e235e3",
					"deposit()": "d0e30db0",
					"getContractBalance()": "6f9fb98a",
					"getTopUsers()": "f39dfb17",
					"getUserBalance(address)": "47734892",
					"topDeposits(uint256)": "91c1aae6",
					"topUsers(uint256)": "689dbf4e",
					"users(uint256)": "365b98b2",
					"withdraw()": "3ccfd60b"
				}
			},
			"storageLayout": {
				"storage": [
					{
						"astId": 3,
						"contract": "study_way/src/3day_bankConstract.sol:Bank",
						"label": "admin",
						"offset": 0,
						"slot": "0",
						"type": "t_address"
					},
					{
						"astId": 7,
						"contract": "study_way/src/3day_bankConstract.sol:Bank",
						"label": "balances",
						"offset": 0,
						"slot": "1",
						"type": "t_mapping(t_address,t_uint256)"
					},
					{
						"astId": 10,
						"contract": "study_way/src/3day_bankConstract.sol:Bank",
						"label": "users",
						"offset": 0,
						"slot": "2",
						"type": "t_array(t_address)dyn_storage"
					},
					{
						"astId": 13,
						"contract": "study_way/src/3day_bankConstract.sol:Bank",
						"label": "topDeposits",
						"offset": 0,
						"slot": "3",
						"type": "t_array(t_uint256)dyn_storage"
					},
					{
						"astId": 16,
						"contract": "study_way/src/3day_bankConstract.sol:Bank",
						"label": "topUsers",
						"offset": 0,
						"slot": "4",
						"type": "t_array(t_address)dyn_storage"
					}
				],
				"types": {
					"t_address": {
						"encoding": "inplace",
						"label": "address",
						"numberOfBytes": "20"
					},
					"t_array(t_address)dyn_storage": {
						"base": "t_address",
						"encoding": "dynamic_array",
						"label": "address[]",
						"numberOfBytes": "32"
					},
					"t_array(t_uint256)dyn_storage": {
						"base": "t_uint256",
						"encoding": "dynamic_array",
						"label": "uint256[]",
						"numberOfBytes": "32"
					},
					"t_mapping(t_address,t_uint256)": {
						"encoding": "mapping",
						"key": "t_address",
						"label": "mapping(address => uint256)",
						"numberOfBytes": "32",
						"value": "t_uint256"
					},
					"t_uint256": {
						"encoding": "inplace",
						"label": "uint256",
						"numberOfBytes": "32"
					}
				}
			},
			"userdoc": {
				"kind": "user",
				"methods": {},
				"version": 1
			}
		}
	}
}